{
  "contractName": "Appointments",
  "abi": [
    {
      "inputs": [
        {
          "internalType": "address",
          "name": "registrationA",
          "type": "address"
        }
      ],
      "stateMutability": "nonpayable",
      "type": "constructor"
    },
    {
      "anonymous": false,
      "inputs": [
        {
          "indexed": false,
          "internalType": "address",
          "name": "patient",
          "type": "address"
        },
        {
          "indexed": false,
          "internalType": "address",
          "name": "doctor",
          "type": "address"
        },
        {
          "indexed": false,
          "internalType": "uint256",
          "name": "date",
          "type": "uint256"
        },
        {
          "indexed": false,
          "internalType": "string",
          "name": "startingHour",
          "type": "string"
        },
        {
          "indexed": false,
          "internalType": "string",
          "name": "dateString",
          "type": "string"
        }
      ],
      "name": "AppointmentAdd",
      "type": "event"
    },
    {
      "anonymous": false,
      "inputs": [
        {
          "indexed": true,
          "internalType": "address",
          "name": "previousOwner",
          "type": "address"
        },
        {
          "indexed": true,
          "internalType": "address",
          "name": "newOwner",
          "type": "address"
        }
      ],
      "name": "OwnershipTransferred",
      "type": "event"
    },
    {
      "anonymous": false,
      "inputs": [
        {
          "indexed": true,
          "internalType": "bytes32",
          "name": "role",
          "type": "bytes32"
        },
        {
          "indexed": true,
          "internalType": "bytes32",
          "name": "previousAdminRole",
          "type": "bytes32"
        },
        {
          "indexed": true,
          "internalType": "bytes32",
          "name": "newAdminRole",
          "type": "bytes32"
        }
      ],
      "name": "RoleAdminChanged",
      "type": "event"
    },
    {
      "anonymous": false,
      "inputs": [
        {
          "indexed": true,
          "internalType": "bytes32",
          "name": "role",
          "type": "bytes32"
        },
        {
          "indexed": true,
          "internalType": "address",
          "name": "account",
          "type": "address"
        },
        {
          "indexed": true,
          "internalType": "address",
          "name": "sender",
          "type": "address"
        }
      ],
      "name": "RoleGranted",
      "type": "event"
    },
    {
      "anonymous": false,
      "inputs": [
        {
          "indexed": true,
          "internalType": "bytes32",
          "name": "role",
          "type": "bytes32"
        },
        {
          "indexed": true,
          "internalType": "address",
          "name": "account",
          "type": "address"
        },
        {
          "indexed": true,
          "internalType": "address",
          "name": "sender",
          "type": "address"
        }
      ],
      "name": "RoleRevoked",
      "type": "event"
    },
    {
      "inputs": [],
      "name": "DEFAULT_ADMIN_ROLE",
      "outputs": [
        {
          "internalType": "bytes32",
          "name": "",
          "type": "bytes32"
        }
      ],
      "stateMutability": "view",
      "type": "function",
      "constant": true
    },
    {
      "inputs": [
        {
          "internalType": "bytes32",
          "name": "role",
          "type": "bytes32"
        }
      ],
      "name": "getRoleAdmin",
      "outputs": [
        {
          "internalType": "bytes32",
          "name": "",
          "type": "bytes32"
        }
      ],
      "stateMutability": "view",
      "type": "function",
      "constant": true
    },
    {
      "inputs": [
        {
          "internalType": "bytes32",
          "name": "role",
          "type": "bytes32"
        },
        {
          "internalType": "address",
          "name": "account",
          "type": "address"
        }
      ],
      "name": "grantRole",
      "outputs": [],
      "stateMutability": "nonpayable",
      "type": "function"
    },
    {
      "inputs": [
        {
          "internalType": "bytes32",
          "name": "role",
          "type": "bytes32"
        },
        {
          "internalType": "address",
          "name": "account",
          "type": "address"
        }
      ],
      "name": "hasRole",
      "outputs": [
        {
          "internalType": "bool",
          "name": "",
          "type": "bool"
        }
      ],
      "stateMutability": "view",
      "type": "function",
      "constant": true
    },
    {
      "inputs": [],
      "name": "owner",
      "outputs": [
        {
          "internalType": "address",
          "name": "",
          "type": "address"
        }
      ],
      "stateMutability": "view",
      "type": "function",
      "constant": true
    },
    {
      "inputs": [],
      "name": "renounceOwnership",
      "outputs": [],
      "stateMutability": "nonpayable",
      "type": "function"
    },
    {
      "inputs": [
        {
          "internalType": "bytes32",
          "name": "role",
          "type": "bytes32"
        },
        {
          "internalType": "address",
          "name": "account",
          "type": "address"
        }
      ],
      "name": "renounceRole",
      "outputs": [],
      "stateMutability": "nonpayable",
      "type": "function"
    },
    {
      "inputs": [
        {
          "internalType": "bytes32",
          "name": "role",
          "type": "bytes32"
        },
        {
          "internalType": "address",
          "name": "account",
          "type": "address"
        }
      ],
      "name": "revokeRole",
      "outputs": [],
      "stateMutability": "nonpayable",
      "type": "function"
    },
    {
      "inputs": [
        {
          "internalType": "bytes4",
          "name": "interfaceId",
          "type": "bytes4"
        }
      ],
      "name": "supportsInterface",
      "outputs": [
        {
          "internalType": "bool",
          "name": "",
          "type": "bool"
        }
      ],
      "stateMutability": "view",
      "type": "function",
      "constant": true
    },
    {
      "inputs": [
        {
          "internalType": "address",
          "name": "newOwner",
          "type": "address"
        }
      ],
      "name": "transferOwnership",
      "outputs": [],
      "stateMutability": "nonpayable",
      "type": "function"
    },
    {
      "inputs": [
        {
          "components": [
            {
              "internalType": "address",
              "name": "patient",
              "type": "address"
            },
            {
              "internalType": "address",
              "name": "doctor",
              "type": "address"
            },
            {
              "internalType": "uint256",
              "name": "date",
              "type": "uint256"
            },
            {
              "internalType": "string",
              "name": "startingHour",
              "type": "string"
            },
            {
              "internalType": "string",
              "name": "dateString",
              "type": "string"
            }
          ],
          "internalType": "struct Appointments.Appointment",
          "name": "appointment",
          "type": "tuple"
        }
      ],
      "name": "addAppointment",
      "outputs": [],
      "stateMutability": "nonpayable",
      "type": "function"
    },
    {
      "inputs": [
        {
          "internalType": "address",
          "name": "_address",
          "type": "address"
        }
      ],
      "name": "getAppointmentsOfDoctor",
      "outputs": [
        {
          "components": [
            {
              "internalType": "address",
              "name": "patient",
              "type": "address"
            },
            {
              "internalType": "address",
              "name": "doctor",
              "type": "address"
            },
            {
              "internalType": "uint256",
              "name": "date",
              "type": "uint256"
            },
            {
              "internalType": "string",
              "name": "startingHour",
              "type": "string"
            },
            {
              "internalType": "string",
              "name": "dateString",
              "type": "string"
            }
          ],
          "internalType": "struct Appointments.Appointment[]",
          "name": "",
          "type": "tuple[]"
        }
      ],
      "stateMutability": "nonpayable",
      "type": "function"
    },
    {
      "inputs": [
        {
          "internalType": "address",
          "name": "_address",
          "type": "address"
        }
      ],
      "name": "getAppointmentsOfPatient",
      "outputs": [
        {
          "components": [
            {
              "internalType": "address",
              "name": "patient",
              "type": "address"
            },
            {
              "internalType": "address",
              "name": "doctor",
              "type": "address"
            },
            {
              "internalType": "uint256",
              "name": "date",
              "type": "uint256"
            },
            {
              "internalType": "string",
              "name": "startingHour",
              "type": "string"
            },
            {
              "internalType": "string",
              "name": "dateString",
              "type": "string"
            }
          ],
          "internalType": "struct Appointments.Appointment[]",
          "name": "",
          "type": "tuple[]"
        }
      ],
      "stateMutability": "nonpayable",
      "type": "function"
    },
    {
      "inputs": [
        {
          "internalType": "address",
          "name": "_address",
          "type": "address"
        }
      ],
      "name": "getPatientsOfADoctor",
      "outputs": [
        {
          "internalType": "address[]",
          "name": "",
          "type": "address[]"
        }
      ],
      "stateMutability": "nonpayable",
      "type": "function"
    },
    {
      "inputs": [
        {
          "internalType": "address",
          "name": "_address",
          "type": "address"
        }
      ],
      "name": "getDoctorsOfAPatient",
      "outputs": [
        {
          "internalType": "address[]",
          "name": "",
          "type": "address[]"
        }
      ],
      "stateMutability": "nonpayable",
      "type": "function"
    },
    {
      "inputs": [
        {
          "internalType": "address",
          "name": "_address",
          "type": "address"
        },
        {
          "internalType": "string",
          "name": "day",
          "type": "string"
        }
      ],
      "name": "getAppointmentsInADay",
      "outputs": [
        {
          "internalType": "string[]",
          "name": "",
          "type": "string[]"
        }
      ],
      "stateMutability": "nonpayable",
      "type": "function"
    }
  ],
  "bytecode": "0x60806040523480156200001157600080fd5b5060405162002cfd38038062002cfd833981810160405281019062000037919062000182565b620000576200004b6200009f60201b60201c565b620000a760201b60201c565b80600760006101000a81548173ffffffffffffffffffffffffffffffffffffffff021916908373ffffffffffffffffffffffffffffffffffffffff16021790555050620001fc565b600033905090565b60008060009054906101000a900473ffffffffffffffffffffffffffffffffffffffff169050816000806101000a81548173ffffffffffffffffffffffffffffffffffffffff021916908373ffffffffffffffffffffffffffffffffffffffff1602179055508173ffffffffffffffffffffffffffffffffffffffff168173ffffffffffffffffffffffffffffffffffffffff167f8be0079c531659141344cd1fd0a4f28419497f9722a3daafe3b4186f6b6457e060405160405180910390a35050565b6000815190506200017c81620001e2565b92915050565b6000602082840312156200019557600080fd5b6000620001a5848285016200016b565b91505092915050565b6000620001bb82620001c2565b9050919050565b600073ffffffffffffffffffffffffffffffffffffffff82169050919050565b620001ed81620001ae565b8114620001f957600080fd5b50565b612af1806200020c6000396000f3fe608060405234801561001057600080fd5b50600436106101005760003560e01c806372a0346311610097578063d547741f11610066578063d547741f146102bf578063e7e9ee86146102db578063eb07dcd11461030b578063f2fde38b1461033b57610100565b806372a03463146102375780638da5cb5b1461025357806391d1485414610271578063a217fddf146102a157610100565b80632f2ff15d116100d35780632f2ff15d146101c557806336568abe146101e157806358b69799146101fd578063715018a61461022d57610100565b806301ffc9a7146101055780631128dc8a14610135578063248a9ca3146101655780632dcba4e514610195575b600080fd5b61011f600480360381019061011a9190611e5e565b610357565b60405161012c9190612448565b60405180910390f35b61014f600480360381019061014a9190611d7c565b6103d1565b60405161015c9190612426565b60405180910390f35b61017f600480360381019061017a9190611df9565b610649565b60405161018c9190612463565b60405180910390f35b6101af60048036038101906101aa9190611da5565b610669565b6040516101bc9190612404565b60405180910390f35b6101df60048036038101906101da9190611e22565b61079e565b005b6101fb60048036038101906101f69190611e22565b6107c7565b005b61021760048036038101906102129190611d7c565b61084a565b6040516102249190612426565b60405180910390f35b610235610ac2565b005b610251600480360381019061024c9190611ec8565b610b4a565b005b61025b611118565b6040516102689190612366565b60405180910390f35b61028b60048036038101906102869190611e22565b611141565b6040516102989190612448565b60405180910390f35b6102a96111ac565b6040516102b69190612463565b60405180910390f35b6102d960048036038101906102d49190611e22565b6111b3565b005b6102f560048036038101906102f09190611d7c565b6111dc565b60405161030291906123e2565b60405180910390f35b61032560048036038101906103209190611d7c565b6112a9565b60405161033291906123e2565b60405180910390f35b61035560048036038101906103509190611d7c565b611376565b005b60007f7965db0b000000000000000000000000000000000000000000000000000000007bffffffffffffffffffffffffffffffffffffffffffffffffffffffff1916827bffffffffffffffffffffffffffffffffffffffffffffffffffffffff191614806103ca57506103c98261146e565b5b9050919050565b6060600260008373ffffffffffffffffffffffffffffffffffffffff1673ffffffffffffffffffffffffffffffffffffffff168152602001908152602001600020805480602002602001604051908101604052809291908181526020016000905b8282101561063e57838290600052602060002090600502016040518060a00160405290816000820160009054906101000a900473ffffffffffffffffffffffffffffffffffffffff1673ffffffffffffffffffffffffffffffffffffffff1673ffffffffffffffffffffffffffffffffffffffff1681526020016001820160009054906101000a900473ffffffffffffffffffffffffffffffffffffffff1673ffffffffffffffffffffffffffffffffffffffff1673ffffffffffffffffffffffffffffffffffffffff1681526020016002820154815260200160038201805461051b906127f3565b80601f0160208091040260200160405190810160405280929190818152602001828054610547906127f3565b80156105945780601f1061056957610100808354040283529160200191610594565b820191906000526020600020905b81548152906001019060200180831161057757829003601f168201915b505050505081526020016004820180546105ad906127f3565b80601f01602080910402602001604051908101604052809291908181526020018280546105d9906127f3565b80156106265780601f106105fb57610100808354040283529160200191610626565b820191906000526020600020905b81548152906001019060200180831161060957829003601f168201915b50505050508152505081526020019060010190610432565b505050509050919050565b600060016000838152602001908152602001600020600101549050919050565b6060600660008473ffffffffffffffffffffffffffffffffffffffff1673ffffffffffffffffffffffffffffffffffffffff168152602001908152602001600020826040516106b89190612300565b9081526020016040518091039020805480602002602001604051908101604052809291908181526020016000905b82821015610792578382906000526020600020018054610705906127f3565b80601f0160208091040260200160405190810160405280929190818152602001828054610731906127f3565b801561077e5780601f106107535761010080835404028352916020019161077e565b820191906000526020600020905b81548152906001019060200180831161076157829003601f168201915b5050505050815260200190600101906106e6565b50505050905092915050565b6107a782610649565b6107b8816107b36114d8565b6114e0565b6107c2838361157d565b505050565b6107cf6114d8565b73ffffffffffffffffffffffffffffffffffffffff168173ffffffffffffffffffffffffffffffffffffffff161461083c576040517f08c379a000000000000000000000000000000000000000000000000000000000815260040161083390612500565b60405180910390fd5b610846828261165d565b5050565b6060600360008373ffffffffffffffffffffffffffffffffffffffff1673ffffffffffffffffffffffffffffffffffffffff168152602001908152602001600020805480602002602001604051908101604052809291908181526020016000905b82821015610ab757838290600052602060002090600502016040518060a00160405290816000820160009054906101000a900473ffffffffffffffffffffffffffffffffffffffff1673ffffffffffffffffffffffffffffffffffffffff1673ffffffffffffffffffffffffffffffffffffffff1681526020016001820160009054906101000a900473ffffffffffffffffffffffffffffffffffffffff1673ffffffffffffffffffffffffffffffffffffffff1673ffffffffffffffffffffffffffffffffffffffff16815260200160028201548152602001600382018054610994906127f3565b80601f01602080910402602001604051908101604052809291908181526020018280546109c0906127f3565b8015610a0d5780601f106109e257610100808354040283529160200191610a0d565b820191906000526020600020905b8154815290600101906020018083116109f057829003601f168201915b50505050508152602001600482018054610a26906127f3565b80601f0160208091040260200160405190810160405280929190818152602001828054610a52906127f3565b8015610a9f5780601f10610a7457610100808354040283529160200191610a9f565b820191906000526020600020905b815481529060010190602001808311610a8257829003601f168201915b505050505081525050815260200190600101906108ab565b505050509050919050565b610aca6114d8565b73ffffffffffffffffffffffffffffffffffffffff16610ae8611118565b73ffffffffffffffffffffffffffffffffffffffff1614610b3e576040517f08c379a0000000000000000000000000000000000000000000000000000000008152600401610b35906124e0565b60405180910390fd5b610b48600061173f565b565b604051602001610b5990612351565b60405160208183030381529060405280519060200120600760009054906101000a900473ffffffffffffffffffffffffffffffffffffffff1673ffffffffffffffffffffffffffffffffffffffff166344276733326040518263ffffffff1660e01b8152600401610bca9190612366565b60006040518083038186803b158015610be257600080fd5b505afa158015610bf6573d6000803e3d6000fd5b505050506040513d6000823e3d601f19601f82011682018060405250810190610c1f9190611e87565b604051602001610c2f9190612300565b6040516020818303038152906040528051906020012014610c4f57600080fd5b60026000826000015173ffffffffffffffffffffffffffffffffffffffff1673ffffffffffffffffffffffffffffffffffffffff16815260200190815260200160002081908060018154018082558091505060019003906000526020600020906005020160009091909190915060008201518160000160006101000a81548173ffffffffffffffffffffffffffffffffffffffff021916908373ffffffffffffffffffffffffffffffffffffffff16021790555060208201518160010160006101000a81548173ffffffffffffffffffffffffffffffffffffffff021916908373ffffffffffffffffffffffffffffffffffffffff160217905550604082015181600201556060820151816003019080519060200190610d70929190611afd565b506080820151816004019080519060200190610d8d929190611afd565b50505060046000826000015173ffffffffffffffffffffffffffffffffffffffff1673ffffffffffffffffffffffffffffffffffffffff16815260200190815260200160002081602001519080600181540180825580915050600190039060005260206000200160009091909190916101000a81548173ffffffffffffffffffffffffffffffffffffffff021916908373ffffffffffffffffffffffffffffffffffffffff16021790555060036000826020015173ffffffffffffffffffffffffffffffffffffffff1673ffffffffffffffffffffffffffffffffffffffff16815260200190815260200160002081908060018154018082558091505060019003906000526020600020906005020160009091909190915060008201518160000160006101000a81548173ffffffffffffffffffffffffffffffffffffffff021916908373ffffffffffffffffffffffffffffffffffffffff16021790555060208201518160010160006101000a81548173ffffffffffffffffffffffffffffffffffffffff021916908373ffffffffffffffffffffffffffffffffffffffff160217905550604082015181600201556060820151816003019080519060200190610f59929190611afd565b506080820151816004019080519060200190610f76929190611afd565b50505060056000826020015173ffffffffffffffffffffffffffffffffffffffff1673ffffffffffffffffffffffffffffffffffffffff16815260200190815260200160002081600001519080600181540180825580915050600190039060005260206000200160009091909190916101000a81548173ffffffffffffffffffffffffffffffffffffffff021916908373ffffffffffffffffffffffffffffffffffffffff16021790555060066000826020015173ffffffffffffffffffffffffffffffffffffffff1673ffffffffffffffffffffffffffffffffffffffff16815260200190815260200160002081608001516040516110769190612300565b908152602001604051809103902081606001519080600181540180825580915050600190039060005260206000200160009091909190915090805190602001906110c1929190611afd565b507fe06ebeea65a938b27463490d13f9032c40c142734e2c772f7938dfaf0fa219828160000151826020015183604001518460600151856080015160405161110d959493929190612381565b60405180910390a150565b60008060009054906101000a900473ffffffffffffffffffffffffffffffffffffffff16905090565b60006001600084815260200190815260200160002060000160008373ffffffffffffffffffffffffffffffffffffffff1673ffffffffffffffffffffffffffffffffffffffff16815260200190815260200160002060009054906101000a900460ff16905092915050565b6000801b81565b6111bc82610649565b6111cd816111c86114d8565b6114e0565b6111d7838361165d565b505050565b6060600560008373ffffffffffffffffffffffffffffffffffffffff1673ffffffffffffffffffffffffffffffffffffffff16815260200190815260200160002080548060200260200160405190810160405280929190818152602001828054801561129d57602002820191906000526020600020905b8160009054906101000a900473ffffffffffffffffffffffffffffffffffffffff1673ffffffffffffffffffffffffffffffffffffffff1681526020019060010190808311611253575b50505050509050919050565b6060600460008373ffffffffffffffffffffffffffffffffffffffff1673ffffffffffffffffffffffffffffffffffffffff16815260200190815260200160002080548060200260200160405190810160405280929190818152602001828054801561136a57602002820191906000526020600020905b8160009054906101000a900473ffffffffffffffffffffffffffffffffffffffff1673ffffffffffffffffffffffffffffffffffffffff1681526020019060010190808311611320575b50505050509050919050565b61137e6114d8565b73ffffffffffffffffffffffffffffffffffffffff1661139c611118565b73ffffffffffffffffffffffffffffffffffffffff16146113f2576040517f08c379a00000000000000000000000000000000000000000000000000000000081526004016113e9906124e0565b60405180910390fd5b600073ffffffffffffffffffffffffffffffffffffffff168173ffffffffffffffffffffffffffffffffffffffff161415611462576040517f08c379a0000000000000000000000000000000000000000000000000000000008152600401611459906124c0565b60405180910390fd5b61146b8161173f565b50565b60007f01ffc9a7000000000000000000000000000000000000000000000000000000007bffffffffffffffffffffffffffffffffffffffffffffffffffffffff1916827bffffffffffffffffffffffffffffffffffffffffffffffffffffffff1916149050919050565b600033905090565b6114ea8282611141565b6115795761150f8173ffffffffffffffffffffffffffffffffffffffff166014611803565b61151d8360001c6020611803565b60405160200161152e929190612317565b6040516020818303038152906040526040517f08c379a0000000000000000000000000000000000000000000000000000000008152600401611570919061247e565b60405180910390fd5b5050565b6115878282611141565b61165957600180600084815260200190815260200160002060000160008373ffffffffffffffffffffffffffffffffffffffff1673ffffffffffffffffffffffffffffffffffffffff16815260200190815260200160002060006101000a81548160ff0219169083151502179055506115fe6114d8565b73ffffffffffffffffffffffffffffffffffffffff168173ffffffffffffffffffffffffffffffffffffffff16837f2f8788117e7eff1d82e926ec794901d17c78024a50270940304540a733656f0d60405160405180910390a45b5050565b6116678282611141565b1561173b5760006001600084815260200190815260200160002060000160008373ffffffffffffffffffffffffffffffffffffffff1673ffffffffffffffffffffffffffffffffffffffff16815260200190815260200160002060006101000a81548160ff0219169083151502179055506116e06114d8565b73ffffffffffffffffffffffffffffffffffffffff168173ffffffffffffffffffffffffffffffffffffffff16837ff6391f5c32d9c69d2a47ea670b442974b53935d1edc7fd64eb21e047a839171b60405160405180910390a45b5050565b60008060009054906101000a900473ffffffffffffffffffffffffffffffffffffffff169050816000806101000a81548173ffffffffffffffffffffffffffffffffffffffff021916908373ffffffffffffffffffffffffffffffffffffffff1602179055508173ffffffffffffffffffffffffffffffffffffffff168173ffffffffffffffffffffffffffffffffffffffff167f8be0079c531659141344cd1fd0a4f28419497f9722a3daafe3b4186f6b6457e060405160405180910390a35050565b60606000600283600261181691906126af565b6118209190612659565b67ffffffffffffffff81111561185f577f4e487b7100000000000000000000000000000000000000000000000000000000600052604160045260246000fd5b6040519080825280601f01601f1916602001820160405280156118915781602001600182028036833780820191505090505b5090507f3000000000000000000000000000000000000000000000000000000000000000816000815181106118ef577f4e487b7100000000000000000000000000000000000000000000000000000000600052603260045260246000fd5b60200101907effffffffffffffffffffffffffffffffffffffffffffffffffffffffffffff1916908160001a9053507f780000000000000000000000000000000000000000000000000000000000000081600181518110611979577f4e487b7100000000000000000000000000000000000000000000000000000000600052603260045260246000fd5b60200101907effffffffffffffffffffffffffffffffffffffffffffffffffffffffffffff1916908160001a905350600060018460026119b991906126af565b6119c39190612659565b90505b6001811115611aaf577f3031323334353637383961626364656600000000000000000000000000000000600f861660108110611a2b577f4e487b7100000000000000000000000000000000000000000000000000000000600052603260045260246000fd5b1a60f81b828281518110611a68577f4e487b7100000000000000000000000000000000000000000000000000000000600052603260045260246000fd5b60200101907effffffffffffffffffffffffffffffffffffffffffffffffffffffffffffff1916908160001a905350600485901c945080611aa8906127c9565b90506119c6565b5060008414611af3576040517f08c379a0000000000000000000000000000000000000000000000000000000008152600401611aea906124a0565b60405180910390fd5b8091505092915050565b828054611b09906127f3565b90600052602060002090601f016020900481019282611b2b5760008555611b72565b82601f10611b4457805160ff1916838001178555611b72565b82800160010185558215611b72579182015b82811115611b71578251825591602001919060010190611b56565b5b509050611b7f9190611b83565b5090565b5b80821115611b9c576000816000905550600101611b84565b5090565b6000611bb3611bae84612545565b612520565b905082815260208101848484011115611bcb57600080fd5b611bd6848285612787565b509392505050565b6000611bf1611bec84612545565b612520565b905082815260208101848484011115611c0957600080fd5b611c14848285612796565b509392505050565b600081359050611c2b81612a5f565b92915050565b600081359050611c4081612a76565b92915050565b600081359050611c5581612a8d565b92915050565b600082601f830112611c6c57600080fd5b8135611c7c848260208601611ba0565b91505092915050565b600082601f830112611c9657600080fd5b8151611ca6848260208601611bde565b91505092915050565b600060a08284031215611cc157600080fd5b611ccb60a0612520565b90506000611cdb84828501611c1c565b6000830152506020611cef84828501611c1c565b6020830152506040611d0384828501611d67565b604083015250606082013567ffffffffffffffff811115611d2357600080fd5b611d2f84828501611c5b565b606083015250608082013567ffffffffffffffff811115611d4f57600080fd5b611d5b84828501611c5b565b60808301525092915050565b600081359050611d7681612aa4565b92915050565b600060208284031215611d8e57600080fd5b6000611d9c84828501611c1c565b91505092915050565b60008060408385031215611db857600080fd5b6000611dc685828601611c1c565b925050602083013567ffffffffffffffff811115611de357600080fd5b611def85828601611c5b565b9150509250929050565b600060208284031215611e0b57600080fd5b6000611e1984828501611c31565b91505092915050565b60008060408385031215611e3557600080fd5b6000611e4385828601611c31565b9250506020611e5485828601611c1c565b9150509250929050565b600060208284031215611e7057600080fd5b6000611e7e84828501611c46565b91505092915050565b600060208284031215611e9957600080fd5b600082015167ffffffffffffffff811115611eb357600080fd5b611ebf84828501611c85565b91505092915050565b600060208284031215611eda57600080fd5b600082013567ffffffffffffffff811115611ef457600080fd5b611f0084828501611caf565b91505092915050565b6000611f158383611f49565b60208301905092915050565b6000611f2d83836120cd565b905092915050565b6000611f418383612265565b905092915050565b611f5281612709565b82525050565b611f6181612709565b82525050565b6000611f72826125a6565b611f7c81856125f9565b9350611f8783612576565b8060005b83811015611fb8578151611f9f8882611f09565b9750611faa836125d2565b925050600181019050611f8b565b5085935050505092915050565b6000611fd0826125b1565b611fda818561260a565b935083602082028501611fec85612586565b8060005b8581101561202857848403895281516120098582611f21565b9450612014836125df565b925060208a01995050600181019050611ff0565b50829750879550505050505092915050565b6000612045826125bc565b61204f818561261b565b93508360208202850161206185612596565b8060005b8581101561209d578484038952815161207e8582611f35565b9450612089836125ec565b925060208a01995050600181019050612065565b50829750879550505050505092915050565b6120b88161271b565b82525050565b6120c781612727565b82525050565b60006120d8826125c7565b6120e2818561262c565b93506120f2818560208601612796565b6120fb816128e3565b840191505092915050565b6000612111826125c7565b61211b818561263d565b935061212b818560208601612796565b612134816128e3565b840191505092915050565b600061214a826125c7565b612154818561264e565b9350612164818560208601612796565b80840191505092915050565b600061217d60208361263d565b9150612188826128f4565b602082019050919050565b60006121a060268361263d565b91506121ab8261291d565b604082019050919050565b60006121c360208361263d565b91506121ce8261296c565b602082019050919050565b60006121e660178361264e565b91506121f182612995565b601782019050919050565b600061220960078361264e565b9150612214826129be565b600782019050919050565b600061222c60118361264e565b9150612237826129e7565b601182019050919050565b600061224f602f8361263d565b915061225a82612a10565b604082019050919050565b600060a08301600083015161227d6000860182611f49565b5060208301516122906020860182611f49565b5060408301516122a360408601826122e2565b50606083015184820360608601526122bb82826120cd565b915050608083015184820360808601526122d582826120cd565b9150508091505092915050565b6122eb8161277d565b82525050565b6122fa8161277d565b82525050565b600061230c828461213f565b915081905092915050565b6000612322826121d9565b915061232e828561213f565b91506123398261221f565b9150612345828461213f565b91508190509392505050565b600061235c826121fc565b9150819050919050565b600060208201905061237b6000830184611f58565b92915050565b600060a0820190506123966000830188611f58565b6123a36020830187611f58565b6123b060408301866122f1565b81810360608301526123c28185612106565b905081810360808301526123d68184612106565b90509695505050505050565b600060208201905081810360008301526123fc8184611f67565b905092915050565b6000602082019050818103600083015261241e8184611fc5565b905092915050565b60006020820190508181036000830152612440818461203a565b905092915050565b600060208201905061245d60008301846120af565b92915050565b600060208201905061247860008301846120be565b92915050565b600060208201905081810360008301526124988184612106565b905092915050565b600060208201905081810360008301526124b981612170565b9050919050565b600060208201905081810360008301526124d981612193565b9050919050565b600060208201905081810360008301526124f9816121b6565b9050919050565b6000602082019050818103600083015261251981612242565b9050919050565b600061252a61253b565b90506125368282612825565b919050565b6000604051905090565b600067ffffffffffffffff8211156125605761255f6128b4565b5b612569826128e3565b9050602081019050919050565b6000819050602082019050919050565b6000819050602082019050919050565b6000819050602082019050919050565b600081519050919050565b600081519050919050565b600081519050919050565b600081519050919050565b6000602082019050919050565b6000602082019050919050565b6000602082019050919050565b600082825260208201905092915050565b600082825260208201905092915050565b600082825260208201905092915050565b600082825260208201905092915050565b600082825260208201905092915050565b600081905092915050565b60006126648261277d565b915061266f8361277d565b9250827fffffffffffffffffffffffffffffffffffffffffffffffffffffffffffffffff038211156126a4576126a3612856565b5b828201905092915050565b60006126ba8261277d565b91506126c58361277d565b9250817fffffffffffffffffffffffffffffffffffffffffffffffffffffffffffffffff04831182151516156126fe576126fd612856565b5b828202905092915050565b60006127148261275d565b9050919050565b60008115159050919050565b6000819050919050565b60007fffffffff0000000000000000000000000000000000000000000000000000000082169050919050565b600073ffffffffffffffffffffffffffffffffffffffff82169050919050565b6000819050919050565b82818337600083830152505050565b60005b838110156127b4578082015181840152602081019050612799565b838111156127c3576000848401525b50505050565b60006127d48261277d565b915060008214156127e8576127e7612856565b5b600182039050919050565b6000600282049050600182168061280b57607f821691505b6020821081141561281f5761281e612885565b5b50919050565b61282e826128e3565b810181811067ffffffffffffffff8211171561284d5761284c6128b4565b5b80604052505050565b7f4e487b7100000000000000000000000000000000000000000000000000000000600052601160045260246000fd5b7f4e487b7100000000000000000000000000000000000000000000000000000000600052602260045260246000fd5b7f4e487b7100000000000000000000000000000000000000000000000000000000600052604160045260246000fd5b6000601f19601f8301169050919050565b7f537472696e67733a20686578206c656e67746820696e73756666696369656e74600082015250565b7f4f776e61626c653a206e6577206f776e657220697320746865207a65726f206160008201527f6464726573730000000000000000000000000000000000000000000000000000602082015250565b7f4f776e61626c653a2063616c6c6572206973206e6f7420746865206f776e6572600082015250565b7f416363657373436f6e74726f6c3a206163636f756e7420000000000000000000600082015250565b7f50415449454e5400000000000000000000000000000000000000000000000000600082015250565b7f206973206d697373696e6720726f6c6520000000000000000000000000000000600082015250565b7f416363657373436f6e74726f6c3a2063616e206f6e6c792072656e6f756e636560008201527f20726f6c657320666f722073656c660000000000000000000000000000000000602082015250565b612a6881612709565b8114612a7357600080fd5b50565b612a7f81612727565b8114612a8a57600080fd5b50565b612a9681612731565b8114612aa157600080fd5b50565b612aad8161277d565b8114612ab857600080fd5b5056fea26469706673582212209dfeae815a629ead42b28243f629bf253da0e62d8c7529e0403ed7a7f17d385164736f6c63430008040033",
  "immutableReferences": {},
  "source": "pragma solidity  0.8.4;\r\n\r\nimport \"./Registration.sol\";\r\nimport \"@openzeppelin/contracts/access/Ownable.sol\";\r\nimport \"@openzeppelin/contracts/access/AccessControl.sol\";\r\n\r\ncontract Appointments is Ownable, AccessControl{\r\n    struct Appointment {\r\n        address patient;\r\n        address doctor;\r\n        uint date;\r\n        string startingHour;\r\n        string dateString;\r\n    }\r\n\r\n    event AppointmentAdd(\r\n        address patient,\r\n        address doctor,\r\n        uint date,\r\n        string startingHour,\r\n        string dateString\r\n    );\r\n\r\n    mapping(address => Appointment[]) appointmentsOfPatients;\r\n    mapping(address => Appointment[]) appointmentsOfDoctor;\r\n    mapping(address => address[]) doctorsOfPatient;\r\n    mapping(address => address[]) patientsOfDoctor;\r\n    mapping(address => mapping(string => string[])) appointmentsOfADoctorInADay;\r\n\r\n    Registration _registration;\r\n\r\n    constructor(address registrationA) public {\r\n        _registration = Registration(registrationA);\r\n    }\r\n\r\n    modifier onlyAdmin {\r\n      require(keccak256(abi.encodePacked((_registration.getRole(tx.origin)))) == keccak256(abi.encodePacked((\"ADMIN\"))));\r\n      _;\r\n    }\r\n    modifier onlyPatient {\r\n        require(keccak256(abi.encodePacked((_registration.getRole(tx.origin)))) == keccak256(abi.encodePacked((\"PATIENT\"))));\r\n        _;\r\n    }\r\n    modifier onlyMedicalResearcher {\r\n        require(keccak256(abi.encodePacked((_registration.getRole(tx.origin)))) == keccak256(abi.encodePacked((\"RESEARCHER\"))));\r\n        _;\r\n    }\r\n    modifier onlyDoctor {\r\n        require(keccak256(abi.encodePacked((_registration.getRole(tx.origin)))) == keccak256(abi.encodePacked((\"DOCTOR\"))));\r\n        _;\r\n    }\r\n\r\n    function addAppointment(Appointment memory appointment) public onlyPatient{\r\n        appointmentsOfPatients[appointment.patient].push(appointment);\r\n        doctorsOfPatient[appointment.patient].push(appointment.doctor);\r\n\r\n        appointmentsOfDoctor[appointment.doctor].push(appointment);\r\n        patientsOfDoctor[appointment.doctor].push(appointment.patient);\r\n\r\n        appointmentsOfADoctorInADay[appointment.doctor][appointment.dateString].push(appointment.startingHour);\r\n\r\n        emit AppointmentAdd(appointment.patient, appointment.doctor, appointment.date, appointment.startingHour, appointment.dateString);\r\n    }\r\n\r\n    function getAppointmentsOfDoctor(address _address) public returns(Appointment[] memory){\r\n        return appointmentsOfDoctor[_address];\r\n    }\r\n\r\n    function getAppointmentsOfPatient(address _address) public returns(Appointment[] memory){\r\n        return appointmentsOfPatients[_address];\r\n    }\r\n\r\n    function getPatientsOfADoctor(address _address) public returns(address[] memory){\r\n        return patientsOfDoctor[_address];\r\n    }\r\n\r\n    function getDoctorsOfAPatient(address _address) public returns(address[] memory){\r\n        return doctorsOfPatient[_address];\r\n    }\r\n\r\n    function getAppointmentsInADay(address _address, string memory day) public returns(string[] memory){\r\n        return appointmentsOfADoctorInADay[_address][day];\r\n    }\r\n}",
  "sourcePath": "C:/Licenta/Licenta/src/contracts/Appointments.sol",
  "compiler": {
    "name": "solc",
    "version": "0.8.4+commit.c7e474f2.Emscripten.clang"
  },
  "schemaVersion": "3.2.3",
  "updatedAt": "2022-06-26T20:15:36.276Z",
  "networkType": "ethereum",
  "devdoc": {
    "kind": "dev",
    "methods": {
      "getRoleAdmin(bytes32)": {
        "details": "Returns the admin role that controls `role`. See {grantRole} and {revokeRole}. To change a role's admin, use {_setRoleAdmin}."
      },
      "grantRole(bytes32,address)": {
        "details": "Grants `role` to `account`. If `account` had not been already granted `role`, emits a {RoleGranted} event. Requirements: - the caller must have ``role``'s admin role."
      },
      "hasRole(bytes32,address)": {
        "details": "Returns `true` if `account` has been granted `role`."
      },
      "owner()": {
        "details": "Returns the address of the current owner."
      },
      "renounceOwnership()": {
        "details": "Leaves the contract without owner. It will not be possible to call `onlyOwner` functions anymore. Can only be called by the current owner. NOTE: Renouncing ownership will leave the contract without an owner, thereby removing any functionality that is only available to the owner."
      },
      "renounceRole(bytes32,address)": {
        "details": "Revokes `role` from the calling account. Roles are often managed via {grantRole} and {revokeRole}: this function's purpose is to provide a mechanism for accounts to lose their privileges if they are compromised (such as when a trusted device is misplaced). If the calling account had been revoked `role`, emits a {RoleRevoked} event. Requirements: - the caller must be `account`."
      },
      "revokeRole(bytes32,address)": {
        "details": "Revokes `role` from `account`. If `account` had been granted `role`, emits a {RoleRevoked} event. Requirements: - the caller must have ``role``'s admin role."
      },
      "supportsInterface(bytes4)": {
        "details": "See {IERC165-supportsInterface}."
      },
      "transferOwnership(address)": {
        "details": "Transfers ownership of the contract to a new account (`newOwner`). Can only be called by the current owner."
      }
    },
    "version": 1
  },
  "userdoc": {
    "kind": "user",
    "methods": {},
    "version": 1
  }
}