{
  "contractName": "Appointments",
  "abi": [
    {
      "inputs": [
        {
          "internalType": "address",
          "name": "registrationA",
          "type": "address"
        }
      ],
      "stateMutability": "nonpayable",
      "type": "constructor"
    },
    {
      "anonymous": false,
      "inputs": [
        {
          "indexed": false,
          "internalType": "address",
          "name": "patient",
          "type": "address"
        },
        {
          "indexed": false,
          "internalType": "address",
          "name": "doctor",
          "type": "address"
        },
        {
          "indexed": false,
          "internalType": "uint256",
          "name": "date",
          "type": "uint256"
        },
        {
          "indexed": false,
          "internalType": "string",
          "name": "startingHour",
          "type": "string"
        },
        {
          "indexed": false,
          "internalType": "string",
          "name": "dateString",
          "type": "string"
        }
      ],
      "name": "AppointmentAdd",
      "type": "event"
    },
    {
      "anonymous": false,
      "inputs": [
        {
          "indexed": true,
          "internalType": "address",
          "name": "previousOwner",
          "type": "address"
        },
        {
          "indexed": true,
          "internalType": "address",
          "name": "newOwner",
          "type": "address"
        }
      ],
      "name": "OwnershipTransferred",
      "type": "event"
    },
    {
      "anonymous": false,
      "inputs": [
        {
          "indexed": true,
          "internalType": "bytes32",
          "name": "role",
          "type": "bytes32"
        },
        {
          "indexed": true,
          "internalType": "bytes32",
          "name": "previousAdminRole",
          "type": "bytes32"
        },
        {
          "indexed": true,
          "internalType": "bytes32",
          "name": "newAdminRole",
          "type": "bytes32"
        }
      ],
      "name": "RoleAdminChanged",
      "type": "event"
    },
    {
      "anonymous": false,
      "inputs": [
        {
          "indexed": true,
          "internalType": "bytes32",
          "name": "role",
          "type": "bytes32"
        },
        {
          "indexed": true,
          "internalType": "address",
          "name": "account",
          "type": "address"
        },
        {
          "indexed": true,
          "internalType": "address",
          "name": "sender",
          "type": "address"
        }
      ],
      "name": "RoleGranted",
      "type": "event"
    },
    {
      "anonymous": false,
      "inputs": [
        {
          "indexed": true,
          "internalType": "bytes32",
          "name": "role",
          "type": "bytes32"
        },
        {
          "indexed": true,
          "internalType": "address",
          "name": "account",
          "type": "address"
        },
        {
          "indexed": true,
          "internalType": "address",
          "name": "sender",
          "type": "address"
        }
      ],
      "name": "RoleRevoked",
      "type": "event"
    },
    {
      "inputs": [],
      "name": "DEFAULT_ADMIN_ROLE",
      "outputs": [
        {
          "internalType": "bytes32",
          "name": "",
          "type": "bytes32"
        }
      ],
      "stateMutability": "view",
      "type": "function",
      "constant": true
    },
    {
      "inputs": [
        {
          "internalType": "bytes32",
          "name": "role",
          "type": "bytes32"
        }
      ],
      "name": "getRoleAdmin",
      "outputs": [
        {
          "internalType": "bytes32",
          "name": "",
          "type": "bytes32"
        }
      ],
      "stateMutability": "view",
      "type": "function",
      "constant": true
    },
    {
      "inputs": [
        {
          "internalType": "bytes32",
          "name": "role",
          "type": "bytes32"
        },
        {
          "internalType": "address",
          "name": "account",
          "type": "address"
        }
      ],
      "name": "grantRole",
      "outputs": [],
      "stateMutability": "nonpayable",
      "type": "function"
    },
    {
      "inputs": [
        {
          "internalType": "bytes32",
          "name": "role",
          "type": "bytes32"
        },
        {
          "internalType": "address",
          "name": "account",
          "type": "address"
        }
      ],
      "name": "hasRole",
      "outputs": [
        {
          "internalType": "bool",
          "name": "",
          "type": "bool"
        }
      ],
      "stateMutability": "view",
      "type": "function",
      "constant": true
    },
    {
      "inputs": [],
      "name": "owner",
      "outputs": [
        {
          "internalType": "address",
          "name": "",
          "type": "address"
        }
      ],
      "stateMutability": "view",
      "type": "function",
      "constant": true
    },
    {
      "inputs": [],
      "name": "renounceOwnership",
      "outputs": [],
      "stateMutability": "nonpayable",
      "type": "function"
    },
    {
      "inputs": [
        {
          "internalType": "bytes32",
          "name": "role",
          "type": "bytes32"
        },
        {
          "internalType": "address",
          "name": "account",
          "type": "address"
        }
      ],
      "name": "renounceRole",
      "outputs": [],
      "stateMutability": "nonpayable",
      "type": "function"
    },
    {
      "inputs": [
        {
          "internalType": "bytes32",
          "name": "role",
          "type": "bytes32"
        },
        {
          "internalType": "address",
          "name": "account",
          "type": "address"
        }
      ],
      "name": "revokeRole",
      "outputs": [],
      "stateMutability": "nonpayable",
      "type": "function"
    },
    {
      "inputs": [
        {
          "internalType": "bytes4",
          "name": "interfaceId",
          "type": "bytes4"
        }
      ],
      "name": "supportsInterface",
      "outputs": [
        {
          "internalType": "bool",
          "name": "",
          "type": "bool"
        }
      ],
      "stateMutability": "view",
      "type": "function",
      "constant": true
    },
    {
      "inputs": [
        {
          "internalType": "address",
          "name": "newOwner",
          "type": "address"
        }
      ],
      "name": "transferOwnership",
      "outputs": [],
      "stateMutability": "nonpayable",
      "type": "function"
    },
    {
      "inputs": [
        {
          "components": [
            {
              "internalType": "address",
              "name": "patient",
              "type": "address"
            },
            {
              "internalType": "address",
              "name": "doctor",
              "type": "address"
            },
            {
              "internalType": "uint256",
              "name": "date",
              "type": "uint256"
            },
            {
              "internalType": "string",
              "name": "startingHour",
              "type": "string"
            },
            {
              "internalType": "string",
              "name": "dateString",
              "type": "string"
            }
          ],
          "internalType": "struct Appointments.Appointment",
          "name": "appointment",
          "type": "tuple"
        }
      ],
      "name": "addAppointment",
      "outputs": [],
      "stateMutability": "nonpayable",
      "type": "function"
    },
    {
      "inputs": [
        {
          "internalType": "address",
          "name": "_address",
          "type": "address"
        }
      ],
      "name": "getAppointmentsOfDoctor",
      "outputs": [
        {
          "components": [
            {
              "internalType": "address",
              "name": "patient",
              "type": "address"
            },
            {
              "internalType": "address",
              "name": "doctor",
              "type": "address"
            },
            {
              "internalType": "uint256",
              "name": "date",
              "type": "uint256"
            },
            {
              "internalType": "string",
              "name": "startingHour",
              "type": "string"
            },
            {
              "internalType": "string",
              "name": "dateString",
              "type": "string"
            }
          ],
          "internalType": "struct Appointments.Appointment[]",
          "name": "",
          "type": "tuple[]"
        }
      ],
      "stateMutability": "nonpayable",
      "type": "function"
    },
    {
      "inputs": [
        {
          "internalType": "address",
          "name": "_address",
          "type": "address"
        }
      ],
      "name": "getAppointmentsOfPatient",
      "outputs": [
        {
          "components": [
            {
              "internalType": "address",
              "name": "patient",
              "type": "address"
            },
            {
              "internalType": "address",
              "name": "doctor",
              "type": "address"
            },
            {
              "internalType": "uint256",
              "name": "date",
              "type": "uint256"
            },
            {
              "internalType": "string",
              "name": "startingHour",
              "type": "string"
            },
            {
              "internalType": "string",
              "name": "dateString",
              "type": "string"
            }
          ],
          "internalType": "struct Appointments.Appointment[]",
          "name": "",
          "type": "tuple[]"
        }
      ],
      "stateMutability": "nonpayable",
      "type": "function"
    },
    {
      "inputs": [
        {
          "internalType": "address",
          "name": "_address",
          "type": "address"
        }
      ],
      "name": "getPatientsOfADoctor",
      "outputs": [
        {
          "internalType": "address[]",
          "name": "",
          "type": "address[]"
        }
      ],
      "stateMutability": "nonpayable",
      "type": "function"
    },
    {
      "inputs": [
        {
          "internalType": "address",
          "name": "_address",
          "type": "address"
        }
      ],
      "name": "getDoctorsOfAPatient",
      "outputs": [
        {
          "internalType": "address[]",
          "name": "",
          "type": "address[]"
        }
      ],
      "stateMutability": "nonpayable",
      "type": "function"
    },
    {
      "inputs": [
        {
          "internalType": "address",
          "name": "_address",
          "type": "address"
        },
        {
          "internalType": "string",
          "name": "day",
          "type": "string"
        }
      ],
      "name": "getAppointmentsInADay",
      "outputs": [
        {
          "internalType": "string[]",
          "name": "",
          "type": "string[]"
        }
      ],
      "stateMutability": "nonpayable",
      "type": "function"
    }
  ],
  "bytecode": "0x60806040523480156200001157600080fd5b5060405162002d0138038062002d01833981810160405281019062000037919062000182565b620000576200004b6200009f60201b60201c565b620000a760201b60201c565b80600760006101000a81548173ffffffffffffffffffffffffffffffffffffffff021916908373ffffffffffffffffffffffffffffffffffffffff16021790555050620001fc565b600033905090565b60008060009054906101000a900473ffffffffffffffffffffffffffffffffffffffff169050816000806101000a81548173ffffffffffffffffffffffffffffffffffffffff021916908373ffffffffffffffffffffffffffffffffffffffff1602179055508173ffffffffffffffffffffffffffffffffffffffff168173ffffffffffffffffffffffffffffffffffffffff167f8be0079c531659141344cd1fd0a4f28419497f9722a3daafe3b4186f6b6457e060405160405180910390a35050565b6000815190506200017c81620001e2565b92915050565b6000602082840312156200019557600080fd5b6000620001a5848285016200016b565b91505092915050565b6000620001bb82620001c2565b9050919050565b600073ffffffffffffffffffffffffffffffffffffffff82169050919050565b620001ed81620001ae565b8114620001f957600080fd5b50565b612af5806200020c6000396000f3fe608060405234801561001057600080fd5b50600436106101005760003560e01c806372a0346311610097578063d547741f11610066578063d547741f146102bf578063e7e9ee86146102db578063eb07dcd11461030b578063f2fde38b1461033b57610100565b806372a03463146102375780638da5cb5b1461025357806391d1485414610271578063a217fddf146102a157610100565b80632f2ff15d116100d35780632f2ff15d146101c557806336568abe146101e157806358b69799146101fd578063715018a61461022d57610100565b806301ffc9a7146101055780631128dc8a14610135578063248a9ca3146101655780632dcba4e514610195575b600080fd5b61011f600480360381019061011a9190611e62565b610357565b60405161012c919061244c565b60405180910390f35b61014f600480360381019061014a9190611d80565b6103d1565b60405161015c919061242a565b60405180910390f35b61017f600480360381019061017a9190611dfd565b610649565b60405161018c9190612467565b60405180910390f35b6101af60048036038101906101aa9190611da9565b610669565b6040516101bc9190612408565b60405180910390f35b6101df60048036038101906101da9190611e26565b61079e565b005b6101fb60048036038101906101f69190611e26565b6107bf565b005b61021760048036038101906102129190611d80565b610842565b604051610224919061242a565b60405180910390f35b610235610aba565b005b610251600480360381019061024c9190611ecc565b610b42565b005b61025b611110565b604051610268919061236a565b60405180910390f35b61028b60048036038101906102869190611e26565b611139565b604051610298919061244c565b60405180910390f35b6102a96111a4565b6040516102b69190612467565b60405180910390f35b6102d960048036038101906102d49190611e26565b6111ab565b005b6102f560048036038101906102f09190611d80565b6111cc565b60405161030291906123e6565b60405180910390f35b61032560048036038101906103209190611d80565b611299565b60405161033291906123e6565b60405180910390f35b61035560048036038101906103509190611d80565b611366565b005b60007f7965db0b000000000000000000000000000000000000000000000000000000007bffffffffffffffffffffffffffffffffffffffffffffffffffffffff1916827bffffffffffffffffffffffffffffffffffffffffffffffffffffffff191614806103ca57506103c98261145e565b5b9050919050565b6060600260008373ffffffffffffffffffffffffffffffffffffffff1673ffffffffffffffffffffffffffffffffffffffff168152602001908152602001600020805480602002602001604051908101604052809291908181526020016000905b8282101561063e57838290600052602060002090600502016040518060a00160405290816000820160009054906101000a900473ffffffffffffffffffffffffffffffffffffffff1673ffffffffffffffffffffffffffffffffffffffff1673ffffffffffffffffffffffffffffffffffffffff1681526020016001820160009054906101000a900473ffffffffffffffffffffffffffffffffffffffff1673ffffffffffffffffffffffffffffffffffffffff1673ffffffffffffffffffffffffffffffffffffffff1681526020016002820154815260200160038201805461051b906127f7565b80601f0160208091040260200160405190810160405280929190818152602001828054610547906127f7565b80156105945780601f1061056957610100808354040283529160200191610594565b820191906000526020600020905b81548152906001019060200180831161057757829003601f168201915b505050505081526020016004820180546105ad906127f7565b80601f01602080910402602001604051908101604052809291908181526020018280546105d9906127f7565b80156106265780601f106105fb57610100808354040283529160200191610626565b820191906000526020600020905b81548152906001019060200180831161060957829003601f168201915b50505050508152505081526020019060010190610432565b505050509050919050565b600060016000838152602001908152602001600020600101549050919050565b6060600660008473ffffffffffffffffffffffffffffffffffffffff1673ffffffffffffffffffffffffffffffffffffffff168152602001908152602001600020826040516106b89190612304565b9081526020016040518091039020805480602002602001604051908101604052809291908181526020016000905b82821015610792578382906000526020600020018054610705906127f7565b80601f0160208091040260200160405190810160405280929190818152602001828054610731906127f7565b801561077e5780601f106107535761010080835404028352916020019161077e565b820191906000526020600020905b81548152906001019060200180831161076157829003601f168201915b5050505050815260200190600101906106e6565b50505050905092915050565b6107a782610649565b6107b0816114c8565b6107ba83836114dc565b505050565b6107c76115bc565b73ffffffffffffffffffffffffffffffffffffffff168173ffffffffffffffffffffffffffffffffffffffff1614610834576040517f08c379a000000000000000000000000000000000000000000000000000000000815260040161082b90612504565b60405180910390fd5b61083e82826115c4565b5050565b6060600360008373ffffffffffffffffffffffffffffffffffffffff1673ffffffffffffffffffffffffffffffffffffffff168152602001908152602001600020805480602002602001604051908101604052809291908181526020016000905b82821015610aaf57838290600052602060002090600502016040518060a00160405290816000820160009054906101000a900473ffffffffffffffffffffffffffffffffffffffff1673ffffffffffffffffffffffffffffffffffffffff1673ffffffffffffffffffffffffffffffffffffffff1681526020016001820160009054906101000a900473ffffffffffffffffffffffffffffffffffffffff1673ffffffffffffffffffffffffffffffffffffffff1673ffffffffffffffffffffffffffffffffffffffff1681526020016002820154815260200160038201805461098c906127f7565b80601f01602080910402602001604051908101604052809291908181526020018280546109b8906127f7565b8015610a055780601f106109da57610100808354040283529160200191610a05565b820191906000526020600020905b8154815290600101906020018083116109e857829003601f168201915b50505050508152602001600482018054610a1e906127f7565b80601f0160208091040260200160405190810160405280929190818152602001828054610a4a906127f7565b8015610a975780601f10610a6c57610100808354040283529160200191610a97565b820191906000526020600020905b815481529060010190602001808311610a7a57829003601f168201915b505050505081525050815260200190600101906108a3565b505050509050919050565b610ac26115bc565b73ffffffffffffffffffffffffffffffffffffffff16610ae0611110565b73ffffffffffffffffffffffffffffffffffffffff1614610b36576040517f08c379a0000000000000000000000000000000000000000000000000000000008152600401610b2d906124e4565b60405180910390fd5b610b4060006116a6565b565b604051602001610b5190612355565b60405160208183030381529060405280519060200120600760009054906101000a900473ffffffffffffffffffffffffffffffffffffffff1673ffffffffffffffffffffffffffffffffffffffff166344276733326040518263ffffffff1660e01b8152600401610bc2919061236a565b60006040518083038186803b158015610bda57600080fd5b505afa158015610bee573d6000803e3d6000fd5b505050506040513d6000823e3d601f19601f82011682018060405250810190610c179190611e8b565b604051602001610c279190612304565b6040516020818303038152906040528051906020012014610c4757600080fd5b60026000826000015173ffffffffffffffffffffffffffffffffffffffff1673ffffffffffffffffffffffffffffffffffffffff16815260200190815260200160002081908060018154018082558091505060019003906000526020600020906005020160009091909190915060008201518160000160006101000a81548173ffffffffffffffffffffffffffffffffffffffff021916908373ffffffffffffffffffffffffffffffffffffffff16021790555060208201518160010160006101000a81548173ffffffffffffffffffffffffffffffffffffffff021916908373ffffffffffffffffffffffffffffffffffffffff160217905550604082015181600201556060820151816003019080519060200190610d68929190611b01565b506080820151816004019080519060200190610d85929190611b01565b50505060046000826000015173ffffffffffffffffffffffffffffffffffffffff1673ffffffffffffffffffffffffffffffffffffffff16815260200190815260200160002081602001519080600181540180825580915050600190039060005260206000200160009091909190916101000a81548173ffffffffffffffffffffffffffffffffffffffff021916908373ffffffffffffffffffffffffffffffffffffffff16021790555060036000826020015173ffffffffffffffffffffffffffffffffffffffff1673ffffffffffffffffffffffffffffffffffffffff16815260200190815260200160002081908060018154018082558091505060019003906000526020600020906005020160009091909190915060008201518160000160006101000a81548173ffffffffffffffffffffffffffffffffffffffff021916908373ffffffffffffffffffffffffffffffffffffffff16021790555060208201518160010160006101000a81548173ffffffffffffffffffffffffffffffffffffffff021916908373ffffffffffffffffffffffffffffffffffffffff160217905550604082015181600201556060820151816003019080519060200190610f51929190611b01565b506080820151816004019080519060200190610f6e929190611b01565b50505060056000826020015173ffffffffffffffffffffffffffffffffffffffff1673ffffffffffffffffffffffffffffffffffffffff16815260200190815260200160002081600001519080600181540180825580915050600190039060005260206000200160009091909190916101000a81548173ffffffffffffffffffffffffffffffffffffffff021916908373ffffffffffffffffffffffffffffffffffffffff16021790555060066000826020015173ffffffffffffffffffffffffffffffffffffffff1673ffffffffffffffffffffffffffffffffffffffff168152602001908152602001600020816080015160405161106e9190612304565b908152602001604051809103902081606001519080600181540180825580915050600190039060005260206000200160009091909190915090805190602001906110b9929190611b01565b507fe06ebeea65a938b27463490d13f9032c40c142734e2c772f7938dfaf0fa2198281600001518260200151836040015184606001518560800151604051611105959493929190612385565b60405180910390a150565b60008060009054906101000a900473ffffffffffffffffffffffffffffffffffffffff16905090565b60006001600084815260200190815260200160002060000160008373ffffffffffffffffffffffffffffffffffffffff1673ffffffffffffffffffffffffffffffffffffffff16815260200190815260200160002060009054906101000a900460ff16905092915050565b6000801b81565b6111b482610649565b6111bd816114c8565b6111c783836115c4565b505050565b6060600560008373ffffffffffffffffffffffffffffffffffffffff1673ffffffffffffffffffffffffffffffffffffffff16815260200190815260200160002080548060200260200160405190810160405280929190818152602001828054801561128d57602002820191906000526020600020905b8160009054906101000a900473ffffffffffffffffffffffffffffffffffffffff1673ffffffffffffffffffffffffffffffffffffffff1681526020019060010190808311611243575b50505050509050919050565b6060600460008373ffffffffffffffffffffffffffffffffffffffff1673ffffffffffffffffffffffffffffffffffffffff16815260200190815260200160002080548060200260200160405190810160405280929190818152602001828054801561135a57602002820191906000526020600020905b8160009054906101000a900473ffffffffffffffffffffffffffffffffffffffff1673ffffffffffffffffffffffffffffffffffffffff1681526020019060010190808311611310575b50505050509050919050565b61136e6115bc565b73ffffffffffffffffffffffffffffffffffffffff1661138c611110565b73ffffffffffffffffffffffffffffffffffffffff16146113e2576040517f08c379a00000000000000000000000000000000000000000000000000000000081526004016113d9906124e4565b60405180910390fd5b600073ffffffffffffffffffffffffffffffffffffffff168173ffffffffffffffffffffffffffffffffffffffff161415611452576040517f08c379a0000000000000000000000000000000000000000000000000000000008152600401611449906124c4565b60405180910390fd5b61145b816116a6565b50565b60007f01ffc9a7000000000000000000000000000000000000000000000000000000007bffffffffffffffffffffffffffffffffffffffffffffffffffffffff1916827bffffffffffffffffffffffffffffffffffffffffffffffffffffffff1916149050919050565b6114d9816114d46115bc565b61176a565b50565b6114e68282611139565b6115b857600180600084815260200190815260200160002060000160008373ffffffffffffffffffffffffffffffffffffffff1673ffffffffffffffffffffffffffffffffffffffff16815260200190815260200160002060006101000a81548160ff02191690831515021790555061155d6115bc565b73ffffffffffffffffffffffffffffffffffffffff168173ffffffffffffffffffffffffffffffffffffffff16837f2f8788117e7eff1d82e926ec794901d17c78024a50270940304540a733656f0d60405160405180910390a45b5050565b600033905090565b6115ce8282611139565b156116a25760006001600084815260200190815260200160002060000160008373ffffffffffffffffffffffffffffffffffffffff1673ffffffffffffffffffffffffffffffffffffffff16815260200190815260200160002060006101000a81548160ff0219169083151502179055506116476115bc565b73ffffffffffffffffffffffffffffffffffffffff168173ffffffffffffffffffffffffffffffffffffffff16837ff6391f5c32d9c69d2a47ea670b442974b53935d1edc7fd64eb21e047a839171b60405160405180910390a45b5050565b60008060009054906101000a900473ffffffffffffffffffffffffffffffffffffffff169050816000806101000a81548173ffffffffffffffffffffffffffffffffffffffff021916908373ffffffffffffffffffffffffffffffffffffffff1602179055508173ffffffffffffffffffffffffffffffffffffffff168173ffffffffffffffffffffffffffffffffffffffff167f8be0079c531659141344cd1fd0a4f28419497f9722a3daafe3b4186f6b6457e060405160405180910390a35050565b6117748282611139565b611803576117998173ffffffffffffffffffffffffffffffffffffffff166014611807565b6117a78360001c6020611807565b6040516020016117b892919061231b565b6040516020818303038152906040526040517f08c379a00000000000000000000000000000000000000000000000000000000081526004016117fa9190612482565b60405180910390fd5b5050565b60606000600283600261181a91906126b3565b611824919061265d565b67ffffffffffffffff811115611863577f4e487b7100000000000000000000000000000000000000000000000000000000600052604160045260246000fd5b6040519080825280601f01601f1916602001820160405280156118955781602001600182028036833780820191505090505b5090507f3000000000000000000000000000000000000000000000000000000000000000816000815181106118f3577f4e487b7100000000000000000000000000000000000000000000000000000000600052603260045260246000fd5b60200101907effffffffffffffffffffffffffffffffffffffffffffffffffffffffffffff1916908160001a9053507f78000000000000000000000000000000000000000000000000000000000000008160018151811061197d577f4e487b7100000000000000000000000000000000000000000000000000000000600052603260045260246000fd5b60200101907effffffffffffffffffffffffffffffffffffffffffffffffffffffffffffff1916908160001a905350600060018460026119bd91906126b3565b6119c7919061265d565b90505b6001811115611ab3577f3031323334353637383961626364656600000000000000000000000000000000600f861660108110611a2f577f4e487b7100000000000000000000000000000000000000000000000000000000600052603260045260246000fd5b1a60f81b828281518110611a6c577f4e487b7100000000000000000000000000000000000000000000000000000000600052603260045260246000fd5b60200101907effffffffffffffffffffffffffffffffffffffffffffffffffffffffffffff1916908160001a905350600485901c945080611aac906127cd565b90506119ca565b5060008414611af7576040517f08c379a0000000000000000000000000000000000000000000000000000000008152600401611aee906124a4565b60405180910390fd5b8091505092915050565b828054611b0d906127f7565b90600052602060002090601f016020900481019282611b2f5760008555611b76565b82601f10611b4857805160ff1916838001178555611b76565b82800160010185558215611b76579182015b82811115611b75578251825591602001919060010190611b5a565b5b509050611b839190611b87565b5090565b5b80821115611ba0576000816000905550600101611b88565b5090565b6000611bb7611bb284612549565b612524565b905082815260208101848484011115611bcf57600080fd5b611bda84828561278b565b509392505050565b6000611bf5611bf084612549565b612524565b905082815260208101848484011115611c0d57600080fd5b611c1884828561279a565b509392505050565b600081359050611c2f81612a63565b92915050565b600081359050611c4481612a7a565b92915050565b600081359050611c5981612a91565b92915050565b600082601f830112611c7057600080fd5b8135611c80848260208601611ba4565b91505092915050565b600082601f830112611c9a57600080fd5b8151611caa848260208601611be2565b91505092915050565b600060a08284031215611cc557600080fd5b611ccf60a0612524565b90506000611cdf84828501611c20565b6000830152506020611cf384828501611c20565b6020830152506040611d0784828501611d6b565b604083015250606082013567ffffffffffffffff811115611d2757600080fd5b611d3384828501611c5f565b606083015250608082013567ffffffffffffffff811115611d5357600080fd5b611d5f84828501611c5f565b60808301525092915050565b600081359050611d7a81612aa8565b92915050565b600060208284031215611d9257600080fd5b6000611da084828501611c20565b91505092915050565b60008060408385031215611dbc57600080fd5b6000611dca85828601611c20565b925050602083013567ffffffffffffffff811115611de757600080fd5b611df385828601611c5f565b9150509250929050565b600060208284031215611e0f57600080fd5b6000611e1d84828501611c35565b91505092915050565b60008060408385031215611e3957600080fd5b6000611e4785828601611c35565b9250506020611e5885828601611c20565b9150509250929050565b600060208284031215611e7457600080fd5b6000611e8284828501611c4a565b91505092915050565b600060208284031215611e9d57600080fd5b600082015167ffffffffffffffff811115611eb757600080fd5b611ec384828501611c89565b91505092915050565b600060208284031215611ede57600080fd5b600082013567ffffffffffffffff811115611ef857600080fd5b611f0484828501611cb3565b91505092915050565b6000611f198383611f4d565b60208301905092915050565b6000611f3183836120d1565b905092915050565b6000611f458383612269565b905092915050565b611f568161270d565b82525050565b611f658161270d565b82525050565b6000611f76826125aa565b611f8081856125fd565b9350611f8b8361257a565b8060005b83811015611fbc578151611fa38882611f0d565b9750611fae836125d6565b925050600181019050611f8f565b5085935050505092915050565b6000611fd4826125b5565b611fde818561260e565b935083602082028501611ff08561258a565b8060005b8581101561202c578484038952815161200d8582611f25565b9450612018836125e3565b925060208a01995050600181019050611ff4565b50829750879550505050505092915050565b6000612049826125c0565b612053818561261f565b9350836020820285016120658561259a565b8060005b858110156120a157848403895281516120828582611f39565b945061208d836125f0565b925060208a01995050600181019050612069565b50829750879550505050505092915050565b6120bc8161271f565b82525050565b6120cb8161272b565b82525050565b60006120dc826125cb565b6120e68185612630565b93506120f681856020860161279a565b6120ff816128e7565b840191505092915050565b6000612115826125cb565b61211f8185612641565b935061212f81856020860161279a565b612138816128e7565b840191505092915050565b600061214e826125cb565b6121588185612652565b935061216881856020860161279a565b80840191505092915050565b6000612181602083612641565b915061218c826128f8565b602082019050919050565b60006121a4602683612641565b91506121af82612921565b604082019050919050565b60006121c7602083612641565b91506121d282612970565b602082019050919050565b60006121ea601783612652565b91506121f582612999565b601782019050919050565b600061220d600783612652565b9150612218826129c2565b600782019050919050565b6000612230601183612652565b915061223b826129eb565b601182019050919050565b6000612253602f83612641565b915061225e82612a14565b604082019050919050565b600060a0830160008301516122816000860182611f4d565b5060208301516122946020860182611f4d565b5060408301516122a760408601826122e6565b50606083015184820360608601526122bf82826120d1565b915050608083015184820360808601526122d982826120d1565b9150508091505092915050565b6122ef81612781565b82525050565b6122fe81612781565b82525050565b60006123108284612143565b915081905092915050565b6000612326826121dd565b91506123328285612143565b915061233d82612223565b91506123498284612143565b91508190509392505050565b600061236082612200565b9150819050919050565b600060208201905061237f6000830184611f5c565b92915050565b600060a08201905061239a6000830188611f5c565b6123a76020830187611f5c565b6123b460408301866122f5565b81810360608301526123c6818561210a565b905081810360808301526123da818461210a565b90509695505050505050565b600060208201905081810360008301526124008184611f6b565b905092915050565b600060208201905081810360008301526124228184611fc9565b905092915050565b60006020820190508181036000830152612444818461203e565b905092915050565b600060208201905061246160008301846120b3565b92915050565b600060208201905061247c60008301846120c2565b92915050565b6000602082019050818103600083015261249c818461210a565b905092915050565b600060208201905081810360008301526124bd81612174565b9050919050565b600060208201905081810360008301526124dd81612197565b9050919050565b600060208201905081810360008301526124fd816121ba565b9050919050565b6000602082019050818103600083015261251d81612246565b9050919050565b600061252e61253f565b905061253a8282612829565b919050565b6000604051905090565b600067ffffffffffffffff821115612564576125636128b8565b5b61256d826128e7565b9050602081019050919050565b6000819050602082019050919050565b6000819050602082019050919050565b6000819050602082019050919050565b600081519050919050565b600081519050919050565b600081519050919050565b600081519050919050565b6000602082019050919050565b6000602082019050919050565b6000602082019050919050565b600082825260208201905092915050565b600082825260208201905092915050565b600082825260208201905092915050565b600082825260208201905092915050565b600082825260208201905092915050565b600081905092915050565b600061266882612781565b915061267383612781565b9250827fffffffffffffffffffffffffffffffffffffffffffffffffffffffffffffffff038211156126a8576126a761285a565b5b828201905092915050565b60006126be82612781565b91506126c983612781565b9250817fffffffffffffffffffffffffffffffffffffffffffffffffffffffffffffffff04831182151516156127025761270161285a565b5b828202905092915050565b600061271882612761565b9050919050565b60008115159050919050565b6000819050919050565b60007fffffffff0000000000000000000000000000000000000000000000000000000082169050919050565b600073ffffffffffffffffffffffffffffffffffffffff82169050919050565b6000819050919050565b82818337600083830152505050565b60005b838110156127b857808201518184015260208101905061279d565b838111156127c7576000848401525b50505050565b60006127d882612781565b915060008214156127ec576127eb61285a565b5b600182039050919050565b6000600282049050600182168061280f57607f821691505b6020821081141561282357612822612889565b5b50919050565b612832826128e7565b810181811067ffffffffffffffff82111715612851576128506128b8565b5b80604052505050565b7f4e487b7100000000000000000000000000000000000000000000000000000000600052601160045260246000fd5b7f4e487b7100000000000000000000000000000000000000000000000000000000600052602260045260246000fd5b7f4e487b7100000000000000000000000000000000000000000000000000000000600052604160045260246000fd5b6000601f19601f8301169050919050565b7f537472696e67733a20686578206c656e67746820696e73756666696369656e74600082015250565b7f4f776e61626c653a206e6577206f776e657220697320746865207a65726f206160008201527f6464726573730000000000000000000000000000000000000000000000000000602082015250565b7f4f776e61626c653a2063616c6c6572206973206e6f7420746865206f776e6572600082015250565b7f416363657373436f6e74726f6c3a206163636f756e7420000000000000000000600082015250565b7f50415449454e5400000000000000000000000000000000000000000000000000600082015250565b7f206973206d697373696e6720726f6c6520000000000000000000000000000000600082015250565b7f416363657373436f6e74726f6c3a2063616e206f6e6c792072656e6f756e636560008201527f20726f6c657320666f722073656c660000000000000000000000000000000000602082015250565b612a6c8161270d565b8114612a7757600080fd5b50565b612a838161272b565b8114612a8e57600080fd5b50565b612a9a81612735565b8114612aa557600080fd5b50565b612ab181612781565b8114612abc57600080fd5b5056fea2646970667358221220d718e40e690aeb515bee4a2f46e9919f3dfcff89cd03b911248644d5aa8dcef764736f6c63430008040033",
  "immutableReferences": {},
  "source": "pragma solidity  0.8.4;\r\n\r\nimport \"./Registration.sol\";\r\nimport \"@openzeppelin/contracts/access/Ownable.sol\";\r\nimport \"@openzeppelin/contracts/access/AccessControl.sol\";\r\n\r\ncontract Appointments is Ownable, AccessControl{\r\n    struct Appointment {\r\n        address patient;\r\n        address doctor;\r\n        uint date;\r\n        string startingHour;\r\n        string dateString;\r\n    }\r\n\r\n    event AppointmentAdd(\r\n        address patient,\r\n        address doctor,\r\n        uint date,\r\n        string startingHour,\r\n        string dateString\r\n    );\r\n\r\n    mapping(address => Appointment[]) appointmentsOfPatients;\r\n    mapping(address => Appointment[]) appointmentsOfDoctor;\r\n    mapping(address => address[]) doctorsOfPatient;\r\n    mapping(address => address[]) patientsOfDoctor;\r\n    mapping(address => mapping(string => string[])) appointmentsOfADoctorInADay;\r\n\r\n    Registration _registration;\r\n\r\n    constructor(address registrationA) public {\r\n        _registration = Registration(registrationA);\r\n    }\r\n\r\n    modifier onlyPatient {\r\n        require(keccak256(abi.encodePacked((_registration.getRole(tx.origin)))) == keccak256(abi.encodePacked((\"PATIENT\"))));\r\n        _;\r\n    }\r\n\r\n    function addAppointment(Appointment memory appointment) public onlyPatient{\r\n        appointmentsOfPatients[appointment.patient].push(appointment);\r\n        doctorsOfPatient[appointment.patient].push(appointment.doctor);\r\n\r\n        appointmentsOfDoctor[appointment.doctor].push(appointment);\r\n        patientsOfDoctor[appointment.doctor].push(appointment.patient);\r\n\r\n        appointmentsOfADoctorInADay[appointment.doctor][appointment.dateString].push(appointment.startingHour);\r\n\r\n        emit AppointmentAdd(appointment.patient, appointment.doctor, appointment.date, appointment.startingHour, appointment.dateString);\r\n    }\r\n\r\n    function getAppointmentsOfDoctor(address _address) public returns(Appointment[] memory){\r\n        return appointmentsOfDoctor[_address];\r\n    }\r\n\r\n    function getAppointmentsOfPatient(address _address) public returns(Appointment[] memory){\r\n        return appointmentsOfPatients[_address];\r\n    }\r\n\r\n    function getPatientsOfADoctor(address _address) public returns(address[] memory){\r\n        return patientsOfDoctor[_address];\r\n    }\r\n\r\n    function getDoctorsOfAPatient(address _address) public returns(address[] memory){\r\n        return doctorsOfPatient[_address];\r\n    }\r\n\r\n    function getAppointmentsInADay(address _address, string memory day) public returns(string[] memory){\r\n        return appointmentsOfADoctorInADay[_address][day];\r\n    }\r\n}",
  "sourcePath": "C:/Licenta/Licenta/src/contracts/Appointments.sol",
  "compiler": {
    "name": "solc",
    "version": "0.8.4+commit.c7e474f2.Emscripten.clang"
  },
  "schemaVersion": "3.2.3",
  "updatedAt": "2022-06-30T17:30:30.276Z",
  "networkType": "ethereum",
  "devdoc": {
    "kind": "dev",
    "methods": {
      "getRoleAdmin(bytes32)": {
        "details": "Returns the admin role that controls `role`. See {grantRole} and {revokeRole}. To change a role's admin, use {_setRoleAdmin}."
      },
      "grantRole(bytes32,address)": {
        "details": "Grants `role` to `account`. If `account` had not been already granted `role`, emits a {RoleGranted} event. Requirements: - the caller must have ``role``'s admin role."
      },
      "hasRole(bytes32,address)": {
        "details": "Returns `true` if `account` has been granted `role`."
      },
      "owner()": {
        "details": "Returns the address of the current owner."
      },
      "renounceOwnership()": {
        "details": "Leaves the contract without owner. It will not be possible to call `onlyOwner` functions anymore. Can only be called by the current owner. NOTE: Renouncing ownership will leave the contract without an owner, thereby removing any functionality that is only available to the owner."
      },
      "renounceRole(bytes32,address)": {
        "details": "Revokes `role` from the calling account. Roles are often managed via {grantRole} and {revokeRole}: this function's purpose is to provide a mechanism for accounts to lose their privileges if they are compromised (such as when a trusted device is misplaced). If the calling account had been revoked `role`, emits a {RoleRevoked} event. Requirements: - the caller must be `account`."
      },
      "revokeRole(bytes32,address)": {
        "details": "Revokes `role` from `account`. If `account` had been granted `role`, emits a {RoleRevoked} event. Requirements: - the caller must have ``role``'s admin role."
      },
      "supportsInterface(bytes4)": {
        "details": "See {IERC165-supportsInterface}."
      },
      "transferOwnership(address)": {
        "details": "Transfers ownership of the contract to a new account (`newOwner`). Can only be called by the current owner."
      }
    },
    "version": 1
  },
  "userdoc": {
    "kind": "user",
    "methods": {},
    "version": 1
  }
}