{
  "contractName": "Appointments",
  "abi": [
    {
      "anonymous": false,
      "inputs": [
        {
          "indexed": false,
          "internalType": "address",
          "name": "patient",
          "type": "address"
        },
        {
          "indexed": false,
          "internalType": "address",
          "name": "doctor",
          "type": "address"
        },
        {
          "indexed": false,
          "internalType": "uint256",
          "name": "date",
          "type": "uint256"
        },
        {
          "indexed": false,
          "internalType": "string",
          "name": "startingHour",
          "type": "string"
        },
        {
          "indexed": false,
          "internalType": "string",
          "name": "dateString",
          "type": "string"
        }
      ],
      "name": "AppointmentAdd",
      "type": "event"
    },
    {
      "anonymous": false,
      "inputs": [
        {
          "indexed": false,
          "internalType": "address",
          "name": "patient",
          "type": "address"
        },
        {
          "indexed": false,
          "internalType": "string",
          "name": "_hash",
          "type": "string"
        }
      ],
      "name": "FilesAdd",
      "type": "event"
    },
    {
      "anonymous": false,
      "inputs": [
        {
          "indexed": false,
          "internalType": "address",
          "name": "patient",
          "type": "address"
        },
        {
          "indexed": false,
          "internalType": "address",
          "name": "doctor",
          "type": "address"
        },
        {
          "indexed": false,
          "internalType": "uint256",
          "name": "index",
          "type": "uint256"
        }
      ],
      "name": "RequestAdd",
      "type": "event"
    },
    {
      "inputs": [
        {
          "components": [
            {
              "internalType": "address",
              "name": "patient",
              "type": "address"
            },
            {
              "internalType": "address",
              "name": "doctor",
              "type": "address"
            },
            {
              "internalType": "uint256",
              "name": "date",
              "type": "uint256"
            },
            {
              "internalType": "string",
              "name": "startingHour",
              "type": "string"
            },
            {
              "internalType": "string",
              "name": "dateString",
              "type": "string"
            }
          ],
          "internalType": "struct Appointments.Appointment",
          "name": "appointment",
          "type": "tuple"
        }
      ],
      "name": "addAppointment",
      "outputs": [],
      "stateMutability": "nonpayable",
      "type": "function"
    },
    {
      "inputs": [
        {
          "internalType": "address",
          "name": "_address",
          "type": "address"
        }
      ],
      "name": "getAppointmentsOfDoctor",
      "outputs": [
        {
          "components": [
            {
              "internalType": "address",
              "name": "patient",
              "type": "address"
            },
            {
              "internalType": "address",
              "name": "doctor",
              "type": "address"
            },
            {
              "internalType": "uint256",
              "name": "date",
              "type": "uint256"
            },
            {
              "internalType": "string",
              "name": "startingHour",
              "type": "string"
            },
            {
              "internalType": "string",
              "name": "dateString",
              "type": "string"
            }
          ],
          "internalType": "struct Appointments.Appointment[]",
          "name": "",
          "type": "tuple[]"
        }
      ],
      "stateMutability": "nonpayable",
      "type": "function"
    },
    {
      "inputs": [
        {
          "internalType": "address",
          "name": "_address",
          "type": "address"
        }
      ],
      "name": "getAppointmentsOfPatient",
      "outputs": [
        {
          "components": [
            {
              "internalType": "address",
              "name": "patient",
              "type": "address"
            },
            {
              "internalType": "address",
              "name": "doctor",
              "type": "address"
            },
            {
              "internalType": "uint256",
              "name": "date",
              "type": "uint256"
            },
            {
              "internalType": "string",
              "name": "startingHour",
              "type": "string"
            },
            {
              "internalType": "string",
              "name": "dateString",
              "type": "string"
            }
          ],
          "internalType": "struct Appointments.Appointment[]",
          "name": "",
          "type": "tuple[]"
        }
      ],
      "stateMutability": "nonpayable",
      "type": "function"
    },
    {
      "inputs": [
        {
          "internalType": "address",
          "name": "_address",
          "type": "address"
        }
      ],
      "name": "getPatientsOfADoctor",
      "outputs": [
        {
          "internalType": "address[]",
          "name": "",
          "type": "address[]"
        }
      ],
      "stateMutability": "nonpayable",
      "type": "function"
    },
    {
      "inputs": [
        {
          "internalType": "address",
          "name": "_address",
          "type": "address"
        }
      ],
      "name": "getDoctorsOfAPatient",
      "outputs": [
        {
          "internalType": "address[]",
          "name": "",
          "type": "address[]"
        }
      ],
      "stateMutability": "nonpayable",
      "type": "function"
    },
    {
      "inputs": [
        {
          "internalType": "address",
          "name": "_address",
          "type": "address"
        },
        {
          "internalType": "string",
          "name": "day",
          "type": "string"
        }
      ],
      "name": "getAppointmentsInADay",
      "outputs": [
        {
          "internalType": "string[]",
          "name": "",
          "type": "string[]"
        }
      ],
      "stateMutability": "nonpayable",
      "type": "function"
    },
    {
      "inputs": [
        {
          "internalType": "address",
          "name": "_address",
          "type": "address"
        }
      ],
      "name": "addRequestToShareMedicalRecords",
      "outputs": [],
      "stateMutability": "nonpayable",
      "type": "function"
    },
    {
      "inputs": [
        {
          "internalType": "address",
          "name": "_address",
          "type": "address"
        }
      ],
      "name": "getHistoryAvailableForDoctor",
      "outputs": [
        {
          "internalType": "address[]",
          "name": "",
          "type": "address[]"
        }
      ],
      "stateMutability": "nonpayable",
      "type": "function"
    },
    {
      "inputs": [
        {
          "internalType": "address",
          "name": "_address",
          "type": "address"
        }
      ],
      "name": "getRequestsOfAPatient",
      "outputs": [
        {
          "components": [
            {
              "internalType": "address",
              "name": "patient",
              "type": "address"
            },
            {
              "internalType": "address",
              "name": "doctor",
              "type": "address"
            },
            {
              "internalType": "uint256",
              "name": "index",
              "type": "uint256"
            }
          ],
          "internalType": "struct Appointments.Request[]",
          "name": "",
          "type": "tuple[]"
        }
      ],
      "stateMutability": "nonpayable",
      "type": "function"
    },
    {
      "inputs": [
        {
          "internalType": "address",
          "name": "_address",
          "type": "address"
        },
        {
          "internalType": "uint256",
          "name": "index",
          "type": "uint256"
        },
        {
          "internalType": "string",
          "name": "_hash",
          "type": "string"
        }
      ],
      "name": "acceptRequestFromDoctor",
      "outputs": [],
      "stateMutability": "nonpayable",
      "type": "function"
    },
    {
      "inputs": [
        {
          "internalType": "address",
          "name": "_address",
          "type": "address"
        },
        {
          "internalType": "string",
          "name": "_hash",
          "type": "string"
        }
      ],
      "name": "addFilesToDoctor",
      "outputs": [],
      "stateMutability": "nonpayable",
      "type": "function"
    },
    {
      "inputs": [
        {
          "internalType": "address",
          "name": "_address",
          "type": "address"
        }
      ],
      "name": "getFileHistoryFromPatient",
      "outputs": [
        {
          "components": [
            {
              "internalType": "address",
              "name": "patient",
              "type": "address"
            },
            {
              "internalType": "string",
              "name": "_hash",
              "type": "string"
            }
          ],
          "internalType": "struct Appointments.Files",
          "name": "",
          "type": "tuple"
        }
      ],
      "stateMutability": "nonpayable",
      "type": "function"
    },
    {
      "inputs": [
        {
          "internalType": "address",
          "name": "_address",
          "type": "address"
        },
        {
          "internalType": "uint256",
          "name": "index",
          "type": "uint256"
        }
      ],
      "name": "declineRequestFromDoctor",
      "outputs": [],
      "stateMutability": "nonpayable",
      "type": "function"
    },
    {
      "inputs": [
        {
          "internalType": "string",
          "name": "encryptionPublicKey",
          "type": "string"
        }
      ],
      "name": "addEncryptionKey",
      "outputs": [],
      "stateMutability": "nonpayable",
      "type": "function"
    },
    {
      "inputs": [
        {
          "internalType": "address",
          "name": "_address",
          "type": "address"
        }
      ],
      "name": "getEncryptionPublicKey",
      "outputs": [
        {
          "internalType": "string",
          "name": "",
          "type": "string"
        }
      ],
      "stateMutability": "nonpayable",
      "type": "function"
    }
  ],
  "bytecode": "0x608060405234801561001057600080fd5b50612649806100206000396000f3fe608060405234801561001057600080fd5b50600436106100f55760003560e01c806372a0346311610097578063d8801a1f11610066578063d8801a1f146102ba578063e7e9ee86146102d6578063eb07dcd114610306578063f4d48c9414610336576100f5565b806372a03463146102225780637d9f7b191461023e57806392e334851461026e578063c92dbde41461028a576100f5565b80632dcba4e5116100d35780632dcba4e514610162578063550d60971461019257806358b69799146101c2578063705ac9cb146101f2576100f5565b80630f8d66c4146100fa5780631128dc8a1461011657806324bf6f4414610146575b600080fd5b610114600480360381019061010f9190611d1d565b610352565b005b610130600480360381019061012b9190611bfd565b6103a9565b60405161013d919061229b565b60405180910390f35b610160600480360381019061015b9190611bfd565b610620565b005b61017c60048036038101906101779190611c26565b61082b565b6040516101899190612279565b60405180910390f35b6101ac60048036038101906101a79190611bfd565b610960565b6040516101b99190612257565b60405180910390f35b6101dc60048036038101906101d79190611bfd565b610a2d565b6040516101e9919061229b565b60405180910390f35b61020c60048036038101906102079190611bfd565b610ca5565b60405161021991906122bd565b60405180910390f35b61023c60048036038101906102379190611d5e565b610df9565b005b61025860048036038101906102539190611bfd565b6112c1565b60405161026591906122df565b60405180910390f35b61028860048036038101906102839190611c7a565b611392565b005b6102a4600480360381019061029f9190611bfd565b611474565b6040516102b19190612301565b60405180910390f35b6102d460048036038101906102cf9190611c26565b6115b5565b005b6102f060048036038101906102eb9190611bfd565b6116c3565b6040516102fd9190612257565b60405180910390f35b610320600480360381019061031b9190611bfd565b611790565b60405161032d9190612257565b60405180910390f35b610350600480360381019061034b9190611cb6565b61185d565b005b80600860003373ffffffffffffffffffffffffffffffffffffffff1673ffffffffffffffffffffffffffffffffffffffff16815260200190815260200160002090805190602001906103a59291906119e0565b5050565b60606000808373ffffffffffffffffffffffffffffffffffffffff1673ffffffffffffffffffffffffffffffffffffffff168152602001908152602001600020805480602002602001604051908101604052809291908181526020016000905b8282101561061557838290600052602060002090600502016040518060a00160405290816000820160009054906101000a900473ffffffffffffffffffffffffffffffffffffffff1673ffffffffffffffffffffffffffffffffffffffff1673ffffffffffffffffffffffffffffffffffffffff1681526020016001820160009054906101000a900473ffffffffffffffffffffffffffffffffffffffff1673ffffffffffffffffffffffffffffffffffffffff1673ffffffffffffffffffffffffffffffffffffffff168152602001600282015481526020016003820180546104f290612513565b80601f016020809104026020016040519081016040528092919081815260200182805461051e90612513565b801561056b5780601f106105405761010080835404028352916020019161056b565b820191906000526020600020905b81548152906001019060200180831161054e57829003601f168201915b5050505050815260200160048201805461058490612513565b80601f01602080910402602001604051908101604052809291908181526020018280546105b090612513565b80156105fd5780601f106105d2576101008083540402835291602001916105fd565b820191906000526020600020905b8154815290600101906020018083116105e057829003601f168201915b50505050508152505081526020019060010190610409565b505050509050919050565b600760008273ffffffffffffffffffffffffffffffffffffffff1673ffffffffffffffffffffffffffffffffffffffff16815260200190815260200160002060405180606001604052808373ffffffffffffffffffffffffffffffffffffffff1681526020013373ffffffffffffffffffffffffffffffffffffffff168152602001600760003373ffffffffffffffffffffffffffffffffffffffff1673ffffffffffffffffffffffffffffffffffffffff16815260200190815260200160002080549050815250908060018154018082558091505060019003906000526020600020906003020160009091909190915060008201518160000160006101000a81548173ffffffffffffffffffffffffffffffffffffffff021916908373ffffffffffffffffffffffffffffffffffffffff16021790555060208201518160010160006101000a81548173ffffffffffffffffffffffffffffffffffffffff021916908373ffffffffffffffffffffffffffffffffffffffff1602179055506040820151816002015550507feaf5ea1e95678b1be41f17e32e21f6f2820f06e7bb870717f720ba58c80ddaa38133600760008573ffffffffffffffffffffffffffffffffffffffff1673ffffffffffffffffffffffffffffffffffffffff168152602001908152602001600020805490506040516108209392919061218f565b60405180910390a150565b6060600460008473ffffffffffffffffffffffffffffffffffffffff1673ffffffffffffffffffffffffffffffffffffffff1681526020019081526020016000208260405161087a9190612178565b9081526020016040518091039020805480602002602001604051908101604052809291908181526020016000905b828210156109545783829060005260206000200180546108c790612513565b80601f01602080910402602001604051908101604052809291908181526020018280546108f390612513565b80156109405780601f1061091557610100808354040283529160200191610940565b820191906000526020600020905b81548152906001019060200180831161092357829003601f168201915b5050505050815260200190600101906108a8565b50505050905092915050565b6060600560008373ffffffffffffffffffffffffffffffffffffffff1673ffffffffffffffffffffffffffffffffffffffff168152602001908152602001600020805480602002602001604051908101604052809291908181526020018280548015610a2157602002820191906000526020600020905b8160009054906101000a900473ffffffffffffffffffffffffffffffffffffffff1673ffffffffffffffffffffffffffffffffffffffff16815260200190600101908083116109d7575b50505050509050919050565b6060600160008373ffffffffffffffffffffffffffffffffffffffff1673ffffffffffffffffffffffffffffffffffffffff168152602001908152602001600020805480602002602001604051908101604052809291908181526020016000905b82821015610c9a57838290600052602060002090600502016040518060a00160405290816000820160009054906101000a900473ffffffffffffffffffffffffffffffffffffffff1673ffffffffffffffffffffffffffffffffffffffff1673ffffffffffffffffffffffffffffffffffffffff1681526020016001820160009054906101000a900473ffffffffffffffffffffffffffffffffffffffff1673ffffffffffffffffffffffffffffffffffffffff1673ffffffffffffffffffffffffffffffffffffffff16815260200160028201548152602001600382018054610b7790612513565b80601f0160208091040260200160405190810160405280929190818152602001828054610ba390612513565b8015610bf05780601f10610bc557610100808354040283529160200191610bf0565b820191906000526020600020905b815481529060010190602001808311610bd357829003601f168201915b50505050508152602001600482018054610c0990612513565b80601f0160208091040260200160405190810160405280929190818152602001828054610c3590612513565b8015610c825780601f10610c5757610100808354040283529160200191610c82565b820191906000526020600020905b815481529060010190602001808311610c6557829003601f168201915b50505050508152505081526020019060010190610a8e565b505050509050919050565b6060600760008373ffffffffffffffffffffffffffffffffffffffff1673ffffffffffffffffffffffffffffffffffffffff168152602001908152602001600020805480602002602001604051908101604052809291908181526020016000905b82821015610dee57838290600052602060002090600302016040518060600160405290816000820160009054906101000a900473ffffffffffffffffffffffffffffffffffffffff1673ffffffffffffffffffffffffffffffffffffffff1673ffffffffffffffffffffffffffffffffffffffff1681526020016001820160009054906101000a900473ffffffffffffffffffffffffffffffffffffffff1673ffffffffffffffffffffffffffffffffffffffff1673ffffffffffffffffffffffffffffffffffffffff16815260200160028201548152505081526020019060010190610d06565b505050509050919050565b600080826000015173ffffffffffffffffffffffffffffffffffffffff1673ffffffffffffffffffffffffffffffffffffffff16815260200190815260200160002081908060018154018082558091505060019003906000526020600020906005020160009091909190915060008201518160000160006101000a81548173ffffffffffffffffffffffffffffffffffffffff021916908373ffffffffffffffffffffffffffffffffffffffff16021790555060208201518160010160006101000a81548173ffffffffffffffffffffffffffffffffffffffff021916908373ffffffffffffffffffffffffffffffffffffffff160217905550604082015181600201556060820151816003019080519060200190610f199291906119e0565b506080820151816004019080519060200190610f369291906119e0565b50505060026000826000015173ffffffffffffffffffffffffffffffffffffffff1673ffffffffffffffffffffffffffffffffffffffff16815260200190815260200160002081602001519080600181540180825580915050600190039060005260206000200160009091909190916101000a81548173ffffffffffffffffffffffffffffffffffffffff021916908373ffffffffffffffffffffffffffffffffffffffff16021790555060016000826020015173ffffffffffffffffffffffffffffffffffffffff1673ffffffffffffffffffffffffffffffffffffffff16815260200190815260200160002081908060018154018082558091505060019003906000526020600020906005020160009091909190915060008201518160000160006101000a81548173ffffffffffffffffffffffffffffffffffffffff021916908373ffffffffffffffffffffffffffffffffffffffff16021790555060208201518160010160006101000a81548173ffffffffffffffffffffffffffffffffffffffff021916908373ffffffffffffffffffffffffffffffffffffffff1602179055506040820151816002015560608201518160030190805190602001906111029291906119e0565b50608082015181600401908051906020019061111f9291906119e0565b50505060036000826020015173ffffffffffffffffffffffffffffffffffffffff1673ffffffffffffffffffffffffffffffffffffffff16815260200190815260200160002081600001519080600181540180825580915050600190039060005260206000200160009091909190916101000a81548173ffffffffffffffffffffffffffffffffffffffff021916908373ffffffffffffffffffffffffffffffffffffffff16021790555060046000826020015173ffffffffffffffffffffffffffffffffffffffff1673ffffffffffffffffffffffffffffffffffffffff168152602001908152602001600020816080015160405161121f9190612178565b9081526020016040518091039020816060015190806001815401808255809150506001900390600052602060002001600090919091909150908051906020019061126a9291906119e0565b507fe06ebeea65a938b27463490d13f9032c40c142734e2c772f7938dfaf0fa21982816000015182602001518360400151846060015185608001516040516112b69594939291906121c6565b60405180910390a150565b6060600860008373ffffffffffffffffffffffffffffffffffffffff1673ffffffffffffffffffffffffffffffffffffffff168152602001908152602001600020805461130d90612513565b80601f016020809104026020016040519081016040528092919081815260200182805461133990612513565b80156113865780601f1061135b57610100808354040283529160200191611386565b820191906000526020600020905b81548152906001019060200180831161136957829003601f168201915b50505050509050919050565b600760003373ffffffffffffffffffffffffffffffffffffffff1673ffffffffffffffffffffffffffffffffffffffff1681526020019081526020016000208181548110611409577f4e487b7100000000000000000000000000000000000000000000000000000000600052603260045260246000fd5b9060005260206000209060030201600080820160006101000a81549073ffffffffffffffffffffffffffffffffffffffff02191690556001820160006101000a81549073ffffffffffffffffffffffffffffffffffffffff0219169055600282016000905550505050565b61147c611a66565b600660008373ffffffffffffffffffffffffffffffffffffffff1673ffffffffffffffffffffffffffffffffffffffff1681526020019081526020016000206040518060400160405290816000820160009054906101000a900473ffffffffffffffffffffffffffffffffffffffff1673ffffffffffffffffffffffffffffffffffffffff1673ffffffffffffffffffffffffffffffffffffffff16815260200160018201805461152c90612513565b80601f016020809104026020016040519081016040528092919081815260200182805461155890612513565b80156115a55780601f1061157a576101008083540402835291602001916115a5565b820191906000526020600020905b81548152906001019060200180831161158857829003601f168201915b5050505050815250509050919050565b60405180604001604052803373ffffffffffffffffffffffffffffffffffffffff16815260200182815250600660008473ffffffffffffffffffffffffffffffffffffffff1673ffffffffffffffffffffffffffffffffffffffff16815260200190815260200160002060008201518160000160006101000a81548173ffffffffffffffffffffffffffffffffffffffff021916908373ffffffffffffffffffffffffffffffffffffffff16021790555060208201518160010190805190602001906116829291906119e0565b509050507ffe3833d10ea2624036e9009fa30162c7514262e56688d210546a48503743e51282826040516116b7929190612227565b60405180910390a15050565b6060600360008373ffffffffffffffffffffffffffffffffffffffff1673ffffffffffffffffffffffffffffffffffffffff16815260200190815260200160002080548060200260200160405190810160405280929190818152602001828054801561178457602002820191906000526020600020905b8160009054906101000a900473ffffffffffffffffffffffffffffffffffffffff1673ffffffffffffffffffffffffffffffffffffffff168152602001906001019080831161173a575b50505050509050919050565b6060600260008373ffffffffffffffffffffffffffffffffffffffff1673ffffffffffffffffffffffffffffffffffffffff16815260200190815260200160002080548060200260200160405190810160405280929190818152602001828054801561185157602002820191906000526020600020905b8160009054906101000a900473ffffffffffffffffffffffffffffffffffffffff1673ffffffffffffffffffffffffffffffffffffffff1681526020019060010190808311611807575b50505050509050919050565b600560008473ffffffffffffffffffffffffffffffffffffffff1673ffffffffffffffffffffffffffffffffffffffff168152602001908152602001600020339080600181540180825580915050600190039060005260206000200160009091909190916101000a81548173ffffffffffffffffffffffffffffffffffffffff021916908373ffffffffffffffffffffffffffffffffffffffff160217905550600760003373ffffffffffffffffffffffffffffffffffffffff1673ffffffffffffffffffffffffffffffffffffffff1681526020019081526020016000208281548110611974577f4e487b7100000000000000000000000000000000000000000000000000000000600052603260045260246000fd5b9060005260206000209060030201600080820160006101000a81549073ffffffffffffffffffffffffffffffffffffffff02191690556001820160006101000a81549073ffffffffffffffffffffffffffffffffffffffff021916905560028201600090555050505050565b8280546119ec90612513565b90600052602060002090601f016020900481019282611a0e5760008555611a55565b82601f10611a2757805160ff1916838001178555611a55565b82800160010185558215611a55579182015b82811115611a54578251825591602001919060010190611a39565b5b509050611a629190611a96565b5090565b6040518060400160405280600073ffffffffffffffffffffffffffffffffffffffff168152602001606081525090565b5b80821115611aaf576000816000905550600101611a97565b5090565b6000611ac6611ac184612348565b612323565b905082815260208101848484011115611ade57600080fd5b611ae98482856124d1565b509392505050565b600081359050611b00816125e5565b92915050565b600082601f830112611b1757600080fd5b8135611b27848260208601611ab3565b91505092915050565b600060a08284031215611b4257600080fd5b611b4c60a0612323565b90506000611b5c84828501611af1565b6000830152506020611b7084828501611af1565b6020830152506040611b8484828501611be8565b604083015250606082013567ffffffffffffffff811115611ba457600080fd5b611bb084828501611b06565b606083015250608082013567ffffffffffffffff811115611bd057600080fd5b611bdc84828501611b06565b60808301525092915050565b600081359050611bf7816125fc565b92915050565b600060208284031215611c0f57600080fd5b6000611c1d84828501611af1565b91505092915050565b60008060408385031215611c3957600080fd5b6000611c4785828601611af1565b925050602083013567ffffffffffffffff811115611c6457600080fd5b611c7085828601611b06565b9150509250929050565b60008060408385031215611c8d57600080fd5b6000611c9b85828601611af1565b9250506020611cac85828601611be8565b9150509250929050565b600080600060608486031215611ccb57600080fd5b6000611cd986828701611af1565b9350506020611cea86828701611be8565b925050604084013567ffffffffffffffff811115611d0757600080fd5b611d1386828701611b06565b9150509250925092565b600060208284031215611d2f57600080fd5b600082013567ffffffffffffffff811115611d4957600080fd5b611d5584828501611b06565b91505092915050565b600060208284031215611d7057600080fd5b600082013567ffffffffffffffff811115611d8a57600080fd5b611d9684828501611b30565b91505092915050565b6000611dab8383611df7565b60208301905092915050565b6000611dc38383611fbb565b905092915050565b6000611dd7838361205e565b905092915050565b6000611deb8383612118565b60608301905092915050565b611e0081612495565b82525050565b611e0f81612495565b82525050565b6000611e20826123b9565b611e2a8185612424565b9350611e3583612379565b8060005b83811015611e66578151611e4d8882611d9f565b9750611e58836123f0565b925050600181019050611e39565b5085935050505092915050565b6000611e7e826123c4565b611e888185612435565b935083602082028501611e9a85612389565b8060005b85811015611ed65784840389528151611eb78582611db7565b9450611ec2836123fd565b925060208a01995050600181019050611e9e565b50829750879550505050505092915050565b6000611ef3826123cf565b611efd8185612446565b935083602082028501611f0f85612399565b8060005b85811015611f4b5784840389528151611f2c8582611dcb565b9450611f378361240a565b925060208a01995050600181019050611f13565b50829750879550505050505092915050565b6000611f68826123da565b611f728185612457565b9350611f7d836123a9565b8060005b83811015611fae578151611f958882611ddf565b9750611fa083612417565b925050600181019050611f81565b5085935050505092915050565b6000611fc6826123e5565b611fd08185612468565b9350611fe08185602086016124e0565b611fe9816125d4565b840191505092915050565b6000611fff826123e5565b6120098185612479565b93506120198185602086016124e0565b612022816125d4565b840191505092915050565b6000612038826123e5565b612042818561248a565b93506120528185602086016124e0565b80840191505092915050565b600060a0830160008301516120766000860182611df7565b5060208301516120896020860182611df7565b50604083015161209c604086018261215a565b50606083015184820360608601526120b48282611fbb565b915050608083015184820360808601526120ce8282611fbb565b9150508091505092915050565b60006040830160008301516120f36000860182611df7565b506020830151848203602086015261210b8282611fbb565b9150508091505092915050565b60608201600082015161212e6000850182611df7565b5060208201516121416020850182611df7565b506040820151612154604085018261215a565b50505050565b612163816124c7565b82525050565b612172816124c7565b82525050565b6000612184828461202d565b915081905092915050565b60006060820190506121a46000830186611e06565b6121b16020830185611e06565b6121be6040830184612169565b949350505050565b600060a0820190506121db6000830188611e06565b6121e86020830187611e06565b6121f56040830186612169565b81810360608301526122078185611ff4565b9050818103608083015261221b8184611ff4565b90509695505050505050565b600060408201905061223c6000830185611e06565b818103602083015261224e8184611ff4565b90509392505050565b600060208201905081810360008301526122718184611e15565b905092915050565b600060208201905081810360008301526122938184611e73565b905092915050565b600060208201905081810360008301526122b58184611ee8565b905092915050565b600060208201905081810360008301526122d78184611f5d565b905092915050565b600060208201905081810360008301526122f98184611ff4565b905092915050565b6000602082019050818103600083015261231b81846120db565b905092915050565b600061232d61233e565b90506123398282612545565b919050565b6000604051905090565b600067ffffffffffffffff821115612363576123626125a5565b5b61236c826125d4565b9050602081019050919050565b6000819050602082019050919050565b6000819050602082019050919050565b6000819050602082019050919050565b6000819050602082019050919050565b600081519050919050565b600081519050919050565b600081519050919050565b600081519050919050565b600081519050919050565b6000602082019050919050565b6000602082019050919050565b6000602082019050919050565b6000602082019050919050565b600082825260208201905092915050565b600082825260208201905092915050565b600082825260208201905092915050565b600082825260208201905092915050565b600082825260208201905092915050565b600082825260208201905092915050565b600081905092915050565b60006124a0826124a7565b9050919050565b600073ffffffffffffffffffffffffffffffffffffffff82169050919050565b6000819050919050565b82818337600083830152505050565b60005b838110156124fe5780820151818401526020810190506124e3565b8381111561250d576000848401525b50505050565b6000600282049050600182168061252b57607f821691505b6020821081141561253f5761253e612576565b5b50919050565b61254e826125d4565b810181811067ffffffffffffffff8211171561256d5761256c6125a5565b5b80604052505050565b7f4e487b7100000000000000000000000000000000000000000000000000000000600052602260045260246000fd5b7f4e487b7100000000000000000000000000000000000000000000000000000000600052604160045260246000fd5b6000601f19601f8301169050919050565b6125ee81612495565b81146125f957600080fd5b50565b612605816124c7565b811461261057600080fd5b5056fea2646970667358221220895c71279b1c67dfdd4c07a2d4fce7be9524229d28c4e3ddb3cdf65a80bf8bc364736f6c63430008040033",
  "immutableReferences": {},
  "source": "pragma solidity  0.8.4;\r\n\r\ncontract Appointments {\r\n    struct Appointment {\r\n        address patient;\r\n        address doctor;\r\n        uint date;\r\n        string startingHour;\r\n        string dateString;\r\n    }\r\n\r\n    event AppointmentAdd(\r\n        address patient,\r\n        address doctor,\r\n        uint date,\r\n        string startingHour,\r\n        string dateString\r\n    );\r\n\r\n    struct Request {\r\n        address patient;\r\n        address doctor;\r\n        uint index;\r\n    }\r\n\r\n    event RequestAdd(\r\n        address patient,\r\n        address doctor,\r\n        uint index\r\n    );\r\n\r\n     struct Files {\r\n        address patient;\r\n        string _hash;\r\n    }\r\n\r\n    event FilesAdd(\r\n        address patient,\r\n        string _hash\r\n    );\r\n\r\n    mapping(address => Appointment[]) appointmentsOfPatients;\r\n    mapping(address => Appointment[]) appointmentsOfDoctor;\r\n    mapping(address => address[]) doctorsOfPatient;\r\n    mapping(address => address[]) patientsOfDoctor;\r\n    mapping(address => mapping(string => string[])) appointmentsOfADoctorInADay;\r\n    mapping(address => address[]) historyAvailable;\r\n    mapping(address => Files) historyFiles;\r\n    mapping(address => Request[]) requestsOfAPatient;\r\n    mapping(address => string) encryptionPublicKeys;\r\n\r\n    function addAppointment(Appointment memory appointment) public {\r\n        appointmentsOfPatients[appointment.patient].push(appointment);\r\n        doctorsOfPatient[appointment.patient].push(appointment.doctor);\r\n\r\n        appointmentsOfDoctor[appointment.doctor].push(appointment);\r\n        patientsOfDoctor[appointment.doctor].push(appointment.patient);\r\n\r\n        appointmentsOfADoctorInADay[appointment.doctor][appointment.dateString].push(appointment.startingHour);\r\n\r\n        emit AppointmentAdd(appointment.patient, appointment.doctor, appointment.date, appointment.startingHour, appointment.dateString);\r\n    }\r\n\r\n    function getAppointmentsOfDoctor(address _address) public returns(Appointment[] memory) {\r\n        return appointmentsOfDoctor[_address];\r\n    }\r\n\r\n    function getAppointmentsOfPatient(address _address) public returns(Appointment[] memory) {\r\n        return appointmentsOfPatients[_address];\r\n    }\r\n\r\n    function getPatientsOfADoctor(address _address) public returns(address[] memory) {\r\n        return patientsOfDoctor[_address];\r\n    }\r\n\r\n    function getDoctorsOfAPatient(address _address) public returns(address[] memory) {\r\n        return doctorsOfPatient[_address];\r\n    }\r\n\r\n    function getAppointmentsInADay(address _address, string memory day) public returns(string[] memory){\r\n        return appointmentsOfADoctorInADay[_address][day];\r\n    }\r\n\r\n    function addRequestToShareMedicalRecords(address _address) public {\r\n        requestsOfAPatient[_address].push(Request(_address, msg.sender, requestsOfAPatient[msg.sender].length));\r\n\r\n        emit RequestAdd(_address, msg.sender, requestsOfAPatient[_address].length);\r\n    }\r\n\r\n    function getHistoryAvailableForDoctor(address _address) public returns(address[] memory){\r\n        return historyAvailable[_address];\r\n    }\r\n\r\n    function getRequestsOfAPatient(address _address) public returns(Request[] memory){\r\n        return requestsOfAPatient[_address];\r\n    }\r\n\r\n    function acceptRequestFromDoctor(address _address, uint index, string memory _hash) public{\r\n        // historyFiles[_address][msg.sender].push(_hash);\r\n        historyAvailable[_address].push(msg.sender);\r\n\r\n        delete requestsOfAPatient[msg.sender][index];\r\n    }\r\n\r\n    function addFilesToDoctor(address _address, string memory _hash) public{\r\n        historyFiles[_address] = Files(msg.sender, _hash);\r\n\r\n        emit FilesAdd(_address, _hash);\r\n    }\r\n\r\n    function getFileHistoryFromPatient(address _address) public returns(Files memory){\r\n        return historyFiles[_address];\r\n    }\r\n\r\n    function declineRequestFromDoctor(address _address, uint index) public{\r\n        delete requestsOfAPatient[msg.sender][index];\r\n    }\r\n\r\n    function addEncryptionKey(string memory encryptionPublicKey) public {\r\n        encryptionPublicKeys[msg.sender] = encryptionPublicKey;\r\n    }\r\n\r\n    function getEncryptionPublicKey(address _address) public returns(string memory){\r\n        return encryptionPublicKeys[_address];\r\n    }\r\n}",
  "sourcePath": "C:/Licenta/Licenta/src/contracts/Appointments.sol",
  "compiler": {
    "name": "solc",
    "version": "0.8.4+commit.c7e474f2.Emscripten.clang"
  },
  "schemaVersion": "3.2.3",
  "updatedAt": "2022-06-13T13:47:43.246Z",
  "networkType": "ethereum",
  "devdoc": {
    "kind": "dev",
    "methods": {},
    "version": 1
  },
  "userdoc": {
    "kind": "user",
    "methods": {},
    "version": 1
  }
}