{
  "contractName": "DStorage",
  "abi": [
    {
      "inputs": [],
      "stateMutability": "nonpayable",
      "type": "constructor"
    },
    {
      "anonymous": false,
      "inputs": [
        {
          "indexed": false,
          "internalType": "uint256",
          "name": "fileId",
          "type": "uint256"
        },
        {
          "indexed": false,
          "internalType": "string",
          "name": "fileHash",
          "type": "string"
        },
        {
          "indexed": false,
          "internalType": "uint256",
          "name": "fileSize",
          "type": "uint256"
        },
        {
          "indexed": false,
          "internalType": "string",
          "name": "fileType",
          "type": "string"
        },
        {
          "indexed": false,
          "internalType": "string",
          "name": "fileName",
          "type": "string"
        },
        {
          "indexed": false,
          "internalType": "string",
          "name": "fileDescription",
          "type": "string"
        },
        {
          "indexed": false,
          "internalType": "uint256",
          "name": "uploadTime",
          "type": "uint256"
        },
        {
          "indexed": false,
          "internalType": "address payable",
          "name": "uploader",
          "type": "address"
        }
      ],
      "name": "FileUploaded",
      "type": "event"
    },
    {
      "anonymous": false,
      "inputs": [
        {
          "indexed": true,
          "internalType": "address",
          "name": "previousOwner",
          "type": "address"
        },
        {
          "indexed": true,
          "internalType": "address",
          "name": "newOwner",
          "type": "address"
        }
      ],
      "name": "OwnershipTransferred",
      "type": "event"
    },
    {
      "anonymous": false,
      "inputs": [
        {
          "indexed": true,
          "internalType": "bytes32",
          "name": "role",
          "type": "bytes32"
        },
        {
          "indexed": true,
          "internalType": "bytes32",
          "name": "previousAdminRole",
          "type": "bytes32"
        },
        {
          "indexed": true,
          "internalType": "bytes32",
          "name": "newAdminRole",
          "type": "bytes32"
        }
      ],
      "name": "RoleAdminChanged",
      "type": "event"
    },
    {
      "anonymous": false,
      "inputs": [
        {
          "indexed": true,
          "internalType": "bytes32",
          "name": "role",
          "type": "bytes32"
        },
        {
          "indexed": true,
          "internalType": "address",
          "name": "account",
          "type": "address"
        },
        {
          "indexed": true,
          "internalType": "address",
          "name": "sender",
          "type": "address"
        }
      ],
      "name": "RoleGranted",
      "type": "event"
    },
    {
      "anonymous": false,
      "inputs": [
        {
          "indexed": true,
          "internalType": "bytes32",
          "name": "role",
          "type": "bytes32"
        },
        {
          "indexed": true,
          "internalType": "address",
          "name": "account",
          "type": "address"
        },
        {
          "indexed": true,
          "internalType": "address",
          "name": "sender",
          "type": "address"
        }
      ],
      "name": "RoleRevoked",
      "type": "event"
    },
    {
      "inputs": [],
      "name": "DEFAULT_ADMIN_ROLE",
      "outputs": [
        {
          "internalType": "bytes32",
          "name": "",
          "type": "bytes32"
        }
      ],
      "stateMutability": "view",
      "type": "function",
      "constant": true
    },
    {
      "inputs": [],
      "name": "fileCount",
      "outputs": [
        {
          "internalType": "uint256",
          "name": "",
          "type": "uint256"
        }
      ],
      "stateMutability": "view",
      "type": "function",
      "constant": true
    },
    {
      "inputs": [
        {
          "internalType": "uint256",
          "name": "",
          "type": "uint256"
        }
      ],
      "name": "files",
      "outputs": [
        {
          "internalType": "uint256",
          "name": "fileId",
          "type": "uint256"
        },
        {
          "internalType": "string",
          "name": "fileHash",
          "type": "string"
        },
        {
          "internalType": "uint256",
          "name": "fileSize",
          "type": "uint256"
        },
        {
          "internalType": "string",
          "name": "fileType",
          "type": "string"
        },
        {
          "internalType": "string",
          "name": "fileName",
          "type": "string"
        },
        {
          "internalType": "string",
          "name": "fileDescription",
          "type": "string"
        },
        {
          "internalType": "uint256",
          "name": "uploadTime",
          "type": "uint256"
        },
        {
          "internalType": "address payable",
          "name": "uploader",
          "type": "address"
        }
      ],
      "stateMutability": "view",
      "type": "function",
      "constant": true
    },
    {
      "inputs": [
        {
          "internalType": "bytes32",
          "name": "role",
          "type": "bytes32"
        }
      ],
      "name": "getRoleAdmin",
      "outputs": [
        {
          "internalType": "bytes32",
          "name": "",
          "type": "bytes32"
        }
      ],
      "stateMutability": "view",
      "type": "function",
      "constant": true
    },
    {
      "inputs": [
        {
          "internalType": "bytes32",
          "name": "role",
          "type": "bytes32"
        },
        {
          "internalType": "address",
          "name": "account",
          "type": "address"
        }
      ],
      "name": "grantRole",
      "outputs": [],
      "stateMutability": "nonpayable",
      "type": "function"
    },
    {
      "inputs": [
        {
          "internalType": "bytes32",
          "name": "role",
          "type": "bytes32"
        },
        {
          "internalType": "address",
          "name": "account",
          "type": "address"
        }
      ],
      "name": "hasRole",
      "outputs": [
        {
          "internalType": "bool",
          "name": "",
          "type": "bool"
        }
      ],
      "stateMutability": "view",
      "type": "function",
      "constant": true
    },
    {
      "inputs": [
        {
          "internalType": "address",
          "name": "",
          "type": "address"
        }
      ],
      "name": "members",
      "outputs": [
        {
          "internalType": "bool",
          "name": "",
          "type": "bool"
        }
      ],
      "stateMutability": "view",
      "type": "function",
      "constant": true
    },
    {
      "inputs": [],
      "name": "name",
      "outputs": [
        {
          "internalType": "string",
          "name": "",
          "type": "string"
        }
      ],
      "stateMutability": "view",
      "type": "function",
      "constant": true
    },
    {
      "inputs": [],
      "name": "owner",
      "outputs": [
        {
          "internalType": "address",
          "name": "",
          "type": "address"
        }
      ],
      "stateMutability": "view",
      "type": "function",
      "constant": true
    },
    {
      "inputs": [],
      "name": "renounceOwnership",
      "outputs": [],
      "stateMutability": "nonpayable",
      "type": "function"
    },
    {
      "inputs": [
        {
          "internalType": "bytes32",
          "name": "role",
          "type": "bytes32"
        },
        {
          "internalType": "address",
          "name": "account",
          "type": "address"
        }
      ],
      "name": "renounceRole",
      "outputs": [],
      "stateMutability": "nonpayable",
      "type": "function"
    },
    {
      "inputs": [
        {
          "internalType": "bytes32",
          "name": "role",
          "type": "bytes32"
        },
        {
          "internalType": "address",
          "name": "account",
          "type": "address"
        }
      ],
      "name": "revokeRole",
      "outputs": [],
      "stateMutability": "nonpayable",
      "type": "function"
    },
    {
      "inputs": [
        {
          "internalType": "bytes4",
          "name": "interfaceId",
          "type": "bytes4"
        }
      ],
      "name": "supportsInterface",
      "outputs": [
        {
          "internalType": "bool",
          "name": "",
          "type": "bool"
        }
      ],
      "stateMutability": "view",
      "type": "function",
      "constant": true
    },
    {
      "inputs": [
        {
          "internalType": "address",
          "name": "newOwner",
          "type": "address"
        }
      ],
      "name": "transferOwnership",
      "outputs": [],
      "stateMutability": "nonpayable",
      "type": "function"
    },
    {
      "inputs": [
        {
          "internalType": "address",
          "name": "_member",
          "type": "address"
        }
      ],
      "name": "addMember",
      "outputs": [],
      "stateMutability": "nonpayable",
      "type": "function"
    },
    {
      "inputs": [
        {
          "internalType": "address",
          "name": "_address",
          "type": "address"
        }
      ],
      "name": "isDoctor",
      "outputs": [
        {
          "internalType": "bool",
          "name": "",
          "type": "bool"
        }
      ],
      "stateMutability": "nonpayable",
      "type": "function"
    },
    {
      "inputs": [
        {
          "internalType": "string",
          "name": "_fileHash",
          "type": "string"
        },
        {
          "internalType": "uint256",
          "name": "_fileSize",
          "type": "uint256"
        },
        {
          "internalType": "string",
          "name": "_fileType",
          "type": "string"
        },
        {
          "internalType": "string",
          "name": "_fileName",
          "type": "string"
        },
        {
          "internalType": "string",
          "name": "_fileDescription",
          "type": "string"
        }
      ],
      "name": "uploadFile",
      "outputs": [],
      "stateMutability": "nonpayable",
      "type": "function"
    }
  ],
  "bytecode": "0x60806040526040518060400160405280600881526020017f4453746f726167650000000000000000000000000000000000000000000000008152506002908051906020019062000051929190620009cc565b5060006003553480156200006457600080fd5b5062000085620000796200029a60201b60201c565b620002a260201b60201c565b604051620000939062000a5d565b604051809103906000f080158015620000b0573d6000803e3d6000fd5b50600660006101000a81548173ffffffffffffffffffffffffffffffffffffffff021916908373ffffffffffffffffffffffffffffffffffffffff160217905550620001a6600660009054906101000a900473ffffffffffffffffffffffffffffffffffffffff1673ffffffffffffffffffffffffffffffffffffffff1663ac5cb97d6040518163ffffffff1660e01b815260040160206040518083038186803b1580156200015e57600080fd5b505afa15801562000173573d6000803e3d6000fd5b505050506040513d601f19601f8201168201806040525081019062000199919062000aa1565b336200036660201b60201c565b6200026f600660009054906101000a900473ffffffffffffffffffffffffffffffffffffffff1673ffffffffffffffffffffffffffffffffffffffff1663fec331f26040518163ffffffff1660e01b815260040160206040518083038186803b1580156200021357600080fd5b505afa15801562000228573d6000803e3d6000fd5b505050506040513d601f19601f820116820180604052508101906200024e919062000aa1565b73e2d18e6fffd6b2d36b3c7e2f44e33374c7d92b336200036660201b60201c565b6200029473e2d18e6fffd6b2d36b3c7e2f44e33374c7d92b336200037c60201b60201c565b62000eb0565b600033905090565b60008060009054906101000a900473ffffffffffffffffffffffffffffffffffffffff169050816000806101000a81548173ffffffffffffffffffffffffffffffffffffffff021916908373ffffffffffffffffffffffffffffffffffffffff1602179055508173ffffffffffffffffffffffffffffffffffffffff168173ffffffffffffffffffffffffffffffffffffffff167f8be0079c531659141344cd1fd0a4f28419497f9722a3daafe3b4186f6b6457e060405160405180910390a35050565b6200037882826200049d60201b60201c565b5050565b600660009054906101000a900473ffffffffffffffffffffffffffffffffffffffff1673ffffffffffffffffffffffffffffffffffffffff1663ac5cb97d6040518163ffffffff1660e01b815260040160206040518083038186803b158015620003e557600080fd5b505afa158015620003fa573d6000803e3d6000fd5b505050506040513d601f19601f8201168201806040525081019062000420919062000aa1565b6200044181620004356200029a60201b60201c565b6200058e60201b60201c565b6001600560008473ffffffffffffffffffffffffffffffffffffffff1673ffffffffffffffffffffffffffffffffffffffff16815260200190815260200160002060006101000a81548160ff0219169083151502179055505050565b620004af82826200065260201b60201c565b6200058a57600180600084815260200190815260200160002060000160008373ffffffffffffffffffffffffffffffffffffffff1673ffffffffffffffffffffffffffffffffffffffff16815260200190815260200160002060006101000a81548160ff0219169083151502179055506200052f6200029a60201b60201c565b73ffffffffffffffffffffffffffffffffffffffff168173ffffffffffffffffffffffffffffffffffffffff16837f2f8788117e7eff1d82e926ec794901d17c78024a50270940304540a733656f0d60405160405180910390a45b5050565b620005a082826200065260201b60201c565b6200064e57620005d38173ffffffffffffffffffffffffffffffffffffffff166014620006bd60201b62000eda1760201c565b620005ee8360001c6020620006bd60201b62000eda1760201c565b6040516020016200060192919062000c0b565b6040516020818303038152906040526040517f08c379a000000000000000000000000000000000000000000000000000000000815260040162000645919062000c4d565b60405180910390fd5b5050565b60006001600084815260200190815260200160002060000160008373ffffffffffffffffffffffffffffffffffffffff1673ffffffffffffffffffffffffffffffffffffffff16815260200190815260200160002060009054906101000a900460ff16905092915050565b606060006002836002620006d2919062000d17565b620006de919062000cba565b67ffffffffffffffff8111156200071e577f4e487b7100000000000000000000000000000000000000000000000000000000600052604160045260246000fd5b6040519080825280601f01601f191660200182016040528015620007515781602001600182028036833780820191505090505b5090507f300000000000000000000000000000000000000000000000000000000000000081600081518110620007b0577f4e487b7100000000000000000000000000000000000000000000000000000000600052603260045260246000fd5b60200101907effffffffffffffffffffffffffffffffffffffffffffffffffffffffffffff1916908160001a9053507f7800000000000000000000000000000000000000000000000000000000000000816001815181106200083b577f4e487b7100000000000000000000000000000000000000000000000000000000600052603260045260246000fd5b60200101907effffffffffffffffffffffffffffffffffffffffffffffffffffffffffffff1916908160001a905350600060018460026200087d919062000d17565b62000889919062000cba565b90505b60018111156200097b577f3031323334353637383961626364656600000000000000000000000000000000600f861660108110620008f3577f4e487b7100000000000000000000000000000000000000000000000000000000600052603260045260246000fd5b1a60f81b82828151811062000931577f4e487b7100000000000000000000000000000000000000000000000000000000600052603260045260246000fd5b60200101907effffffffffffffffffffffffffffffffffffffffffffffffffffffffffffff1916908160001a905350600485901c945080620009739062000dc2565b90506200088c565b5060008414620009c2576040517f08c379a0000000000000000000000000000000000000000000000000000000008152600401620009b99062000c71565b60405180910390fd5b8091505092915050565b828054620009da9062000df1565b90600052602060002090601f016020900481019282620009fe576000855562000a4a565b82601f1062000a1957805160ff191683800117855562000a4a565b8280016001018555821562000a4a579182015b8281111562000a4957825182559160200191906001019062000a2c565b5b50905062000a59919062000a6b565b5090565b61047c8062002fbf83390190565b5b8082111562000a8657600081600090555060010162000a6c565b5090565b60008151905062000a9b8162000e96565b92915050565b60006020828403121562000ab457600080fd5b600062000ac48482850162000a8a565b91505092915050565b600062000ada8262000c93565b62000ae6818562000c9e565b935062000af881856020860162000d8c565b62000b038162000e85565b840191505092915050565b600062000b1b8262000c93565b62000b27818562000caf565b935062000b3981856020860162000d8c565b80840191505092915050565b600062000b5460208362000c9e565b91507f537472696e67733a20686578206c656e67746820696e73756666696369656e746000830152602082019050919050565b600062000b9660178362000caf565b91507f416363657373436f6e74726f6c3a206163636f756e74200000000000000000006000830152601782019050919050565b600062000bd860118362000caf565b91507f206973206d697373696e6720726f6c65200000000000000000000000000000006000830152601182019050919050565b600062000c188262000b87565b915062000c26828562000b0e565b915062000c338262000bc9565b915062000c41828462000b0e565b91508190509392505050565b6000602082019050818103600083015262000c69818462000acd565b905092915050565b6000602082019050818103600083015262000c8c8162000b45565b9050919050565b600081519050919050565b600082825260208201905092915050565b600081905092915050565b600062000cc78262000d82565b915062000cd48362000d82565b9250827fffffffffffffffffffffffffffffffffffffffffffffffffffffffffffffffff0382111562000d0c5762000d0b62000e27565b5b828201905092915050565b600062000d248262000d82565b915062000d318362000d82565b9250817fffffffffffffffffffffffffffffffffffffffffffffffffffffffffffffffff048311821515161562000d6d5762000d6c62000e27565b5b828202905092915050565b6000819050919050565b6000819050919050565b60005b8381101562000dac57808201518184015260208101905062000d8f565b8381111562000dbc576000848401525b50505050565b600062000dcf8262000d82565b9150600082141562000de65762000de562000e27565b5b600182039050919050565b6000600282049050600182168062000e0a57607f821691505b6020821081141562000e215762000e2062000e56565b5b50919050565b7f4e487b7100000000000000000000000000000000000000000000000000000000600052601160045260246000fd5b7f4e487b7100000000000000000000000000000000000000000000000000000000600052602260045260246000fd5b6000601f19601f8301169050919050565b62000ea18162000d78565b811462000ead57600080fd5b50565b6120ff8062000ec06000396000f3fe608060405234801561001057600080fd5b506004361061010b5760003560e01c80638da5cb5b116100a2578063ca6d56dc11610071578063ca6d56dc146102ba578063d547741f146102d6578063e82d9d33146102f2578063f2fde38b1461030e578063f4c714b41461032a5761010b565b80638da5cb5b1461021e57806391d148541461023c578063996440c61461026c578063a217fddf1461029c5761010b565b80632f2ff15d116100de5780632f2ff15d146101be57806336568abe146101da57806343953519146101f6578063715018a6146102145761010b565b806301ffc9a71461011057806306fdde031461014057806308ae4b0c1461015e578063248a9ca31461018e575b600080fd5b61012a60048036038101906101259190611794565b610361565b6040516101379190611b93565b60405180910390f35b6101486103db565b6040516101559190611bc9565b60405180910390f35b610178600480360381019061017391906116dd565b610469565b6040516101859190611b93565b60405180910390f35b6101a860048036038101906101a39190611706565b610489565b6040516101b59190611bae565b60405180910390f35b6101d860048036038101906101d39190611758565b6104a9565b005b6101f460048036038101906101ef9190611758565b6104d2565b005b6101fe610555565b60405161020b9190611c6b565b60405180910390f35b61021c61055b565b005b6102266105e3565b6040516102339190611b78565b60405180910390f35b61025660048036038101906102519190611758565b61060c565b6040516102639190611b93565b60405180910390f35b610286600480360381019061028191906116dd565b610677565b6040516102939190611b93565b60405180910390f35b6102a461073a565b6040516102b19190611bae565b60405180910390f35b6102d460048036038101906102cf91906116dd565b610741565b005b6102f060048036038101906102eb9190611758565b61084e565b005b61030c600480360381019061030791906117bd565b610877565b005b610328600480360381019061032391906116dd565b610b5a565b005b610344600480360381019061033f9190611894565b610c52565b604051610358989796959493929190611c86565b60405180910390f35b60007f7965db0b000000000000000000000000000000000000000000000000000000007bffffffffffffffffffffffffffffffffffffffffffffffffffffffff1916827bffffffffffffffffffffffffffffffffffffffffffffffffffffffff191614806103d457506103d3826111d4565b5b9050919050565b600280546103e890611f54565b80601f016020809104026020016040519081016040528092919081815260200182805461041490611f54565b80156104615780601f1061043657610100808354040283529160200191610461565b820191906000526020600020905b81548152906001019060200180831161044457829003601f168201915b505050505081565b60056020528060005260406000206000915054906101000a900460ff1681565b600060016000838152602001908152602001600020600101549050919050565b6104b282610489565b6104c3816104be61123e565b611246565b6104cd83836112e3565b505050565b6104da61123e565b73ffffffffffffffffffffffffffffffffffffffff168173ffffffffffffffffffffffffffffffffffffffff1614610547576040517f08c379a000000000000000000000000000000000000000000000000000000000815260040161053e90611c4b565b60405180910390fd5b61055182826113c3565b5050565b60035481565b61056361123e565b73ffffffffffffffffffffffffffffffffffffffff166105816105e3565b73ffffffffffffffffffffffffffffffffffffffff16146105d7576040517f08c379a00000000000000000000000000000000000000000000000000000000081526004016105ce90611c2b565b60405180910390fd5b6105e160006114a5565b565b60008060009054906101000a900473ffffffffffffffffffffffffffffffffffffffff16905090565b60006001600084815260200190815260200160002060000160008373ffffffffffffffffffffffffffffffffffffffff1673ffffffffffffffffffffffffffffffffffffffff16815260200190815260200160002060009054906101000a900460ff16905092915050565b6000610722600660009054906101000a900473ffffffffffffffffffffffffffffffffffffffff1673ffffffffffffffffffffffffffffffffffffffff1663fec331f26040518163ffffffff1660e01b815260040160206040518083038186803b1580156106e457600080fd5b505afa1580156106f8573d6000803e3d6000fd5b505050506040513d601f19601f8201168201806040525081019061071c919061172f565b8361060c565b156107305760019050610735565b600090505b919050565b6000801b81565b600660009054906101000a900473ffffffffffffffffffffffffffffffffffffffff1673ffffffffffffffffffffffffffffffffffffffff1663ac5cb97d6040518163ffffffff1660e01b815260040160206040518083038186803b1580156107a957600080fd5b505afa1580156107bd573d6000803e3d6000fd5b505050506040513d601f19601f820116820180604052508101906107e1919061172f565b6107f2816107ed61123e565b611246565b6001600560008473ffffffffffffffffffffffffffffffffffffffff1673ffffffffffffffffffffffffffffffffffffffff16815260200190815260200160002060006101000a81548160ff0219169083151502179055505050565b61085782610489565b6108688161086361123e565b611246565b61087283836113c3565b505050565b600660009054906101000a900473ffffffffffffffffffffffffffffffffffffffff1673ffffffffffffffffffffffffffffffffffffffff1663ac5cb97d6040518163ffffffff1660e01b815260040160206040518083038186803b1580156108df57600080fd5b505afa1580156108f3573d6000803e3d6000fd5b505050506040513d601f19601f82011682018060405250810190610917919061172f565b6109288161092361123e565b611246565b600086511161093657600080fd5b600084511161094457600080fd5b600082511161095257600080fd5b600083511161096057600080fd5b600073ffffffffffffffffffffffffffffffffffffffff163373ffffffffffffffffffffffffffffffffffffffff16141561099a57600080fd5b600085116109a757600080fd5b600360008154809291906109ba90611f86565b919050555060405180610100016040528060035481526020018781526020018681526020018581526020018481526020018381526020014281526020013373ffffffffffffffffffffffffffffffffffffffff16815250600460006003548152602001908152602001600020600082015181600001556020820151816001019080519060200190610a4c929190611569565b50604082015181600201556060820151816003019080519060200190610a73929190611569565b506080820151816004019080519060200190610a90929190611569565b5060a0820151816005019080519060200190610aad929190611569565b5060c0820151816006015560e08201518160070160006101000a81548173ffffffffffffffffffffffffffffffffffffffff021916908373ffffffffffffffffffffffffffffffffffffffff160217905550905050610b0b33610741565b7f6e95bbaa37a5fdec42a312e049dea2fe6160ebe659214d3409b4f91f164c2f5260035487878787874233604051610b4a989796959493929190611c86565b60405180910390a1505050505050565b610b6261123e565b73ffffffffffffffffffffffffffffffffffffffff16610b806105e3565b73ffffffffffffffffffffffffffffffffffffffff1614610bd6576040517f08c379a0000000000000000000000000000000000000000000000000000000008152600401610bcd90611c2b565b60405180910390fd5b600073ffffffffffffffffffffffffffffffffffffffff168173ffffffffffffffffffffffffffffffffffffffff161415610c46576040517f08c379a0000000000000000000000000000000000000000000000000000000008152600401610c3d90611c0b565b60405180910390fd5b610c4f816114a5565b50565b6004602052806000526040600020600091509050806000015490806001018054610c7b90611f54565b80601f0160208091040260200160405190810160405280929190818152602001828054610ca790611f54565b8015610cf45780601f10610cc957610100808354040283529160200191610cf4565b820191906000526020600020905b815481529060010190602001808311610cd757829003601f168201915b505050505090806002015490806003018054610d0f90611f54565b80601f0160208091040260200160405190810160405280929190818152602001828054610d3b90611f54565b8015610d885780601f10610d5d57610100808354040283529160200191610d88565b820191906000526020600020905b815481529060010190602001808311610d6b57829003601f168201915b505050505090806004018054610d9d90611f54565b80601f0160208091040260200160405190810160405280929190818152602001828054610dc990611f54565b8015610e165780601f10610deb57610100808354040283529160200191610e16565b820191906000526020600020905b815481529060010190602001808311610df957829003601f168201915b505050505090806005018054610e2b90611f54565b80601f0160208091040260200160405190810160405280929190818152602001828054610e5790611f54565b8015610ea45780601f10610e7957610100808354040283529160200191610ea4565b820191906000526020600020905b815481529060010190602001808311610e8757829003601f168201915b5050505050908060060154908060070160009054906101000a900473ffffffffffffffffffffffffffffffffffffffff16905088565b606060006002836002610eed9190611dfe565b610ef79190611da8565b67ffffffffffffffff811115610f36577f4e487b7100000000000000000000000000000000000000000000000000000000600052604160045260246000fd5b6040519080825280601f01601f191660200182016040528015610f685781602001600182028036833780820191505090505b5090507f300000000000000000000000000000000000000000000000000000000000000081600081518110610fc6577f4e487b7100000000000000000000000000000000000000000000000000000000600052603260045260246000fd5b60200101907effffffffffffffffffffffffffffffffffffffffffffffffffffffffffffff1916908160001a9053507f780000000000000000000000000000000000000000000000000000000000000081600181518110611050577f4e487b7100000000000000000000000000000000000000000000000000000000600052603260045260246000fd5b60200101907effffffffffffffffffffffffffffffffffffffffffffffffffffffffffffff1916908160001a905350600060018460026110909190611dfe565b61109a9190611da8565b90505b6001811115611186577f3031323334353637383961626364656600000000000000000000000000000000600f861660108110611102577f4e487b7100000000000000000000000000000000000000000000000000000000600052603260045260246000fd5b1a60f81b82828151811061113f577f4e487b7100000000000000000000000000000000000000000000000000000000600052603260045260246000fd5b60200101907effffffffffffffffffffffffffffffffffffffffffffffffffffffffffffff1916908160001a905350600485901c94508061117f90611f2a565b905061109d565b50600084146111ca576040517f08c379a00000000000000000000000000000000000000000000000000000000081526004016111c190611beb565b60405180910390fd5b8091505092915050565b60007f01ffc9a7000000000000000000000000000000000000000000000000000000007bffffffffffffffffffffffffffffffffffffffffffffffffffffffff1916827bffffffffffffffffffffffffffffffffffffffffffffffffffffffff1916149050919050565b600033905090565b611250828261060c565b6112df576112758173ffffffffffffffffffffffffffffffffffffffff166014610eda565b6112838360001c6020610eda565b604051602001611294929190611b3e565b6040516020818303038152906040526040517f08c379a00000000000000000000000000000000000000000000000000000000081526004016112d69190611bc9565b60405180910390fd5b5050565b6112ed828261060c565b6113bf57600180600084815260200190815260200160002060000160008373ffffffffffffffffffffffffffffffffffffffff1673ffffffffffffffffffffffffffffffffffffffff16815260200190815260200160002060006101000a81548160ff02191690831515021790555061136461123e565b73ffffffffffffffffffffffffffffffffffffffff168173ffffffffffffffffffffffffffffffffffffffff16837f2f8788117e7eff1d82e926ec794901d17c78024a50270940304540a733656f0d60405160405180910390a45b5050565b6113cd828261060c565b156114a15760006001600084815260200190815260200160002060000160008373ffffffffffffffffffffffffffffffffffffffff1673ffffffffffffffffffffffffffffffffffffffff16815260200190815260200160002060006101000a81548160ff02191690831515021790555061144661123e565b73ffffffffffffffffffffffffffffffffffffffff168173ffffffffffffffffffffffffffffffffffffffff16837ff6391f5c32d9c69d2a47ea670b442974b53935d1edc7fd64eb21e047a839171b60405160405180910390a45b5050565b60008060009054906101000a900473ffffffffffffffffffffffffffffffffffffffff169050816000806101000a81548173ffffffffffffffffffffffffffffffffffffffff021916908373ffffffffffffffffffffffffffffffffffffffff1602179055508173ffffffffffffffffffffffffffffffffffffffff168173ffffffffffffffffffffffffffffffffffffffff167f8be0079c531659141344cd1fd0a4f28419497f9722a3daafe3b4186f6b6457e060405160405180910390a35050565b82805461157590611f54565b90600052602060002090601f01602090048101928261159757600085556115de565b82601f106115b057805160ff19168380011785556115de565b828001600101855582156115de579182015b828111156115dd5782518255916020019190600101906115c2565b5b5090506115eb91906115ef565b5090565b5b808211156116085760008160009055506001016115f0565b5090565b600061161f61161a84611d51565b611d20565b90508281526020810184848401111561163757600080fd5b611642848285611ee8565b509392505050565b6000813590506116598161206d565b92915050565b60008135905061166e81612084565b92915050565b60008151905061168381612084565b92915050565b6000813590506116988161209b565b92915050565b600082601f8301126116af57600080fd5b81356116bf84826020860161160c565b91505092915050565b6000813590506116d7816120b2565b92915050565b6000602082840312156116ef57600080fd5b60006116fd8482850161164a565b91505092915050565b60006020828403121561171857600080fd5b60006117268482850161165f565b91505092915050565b60006020828403121561174157600080fd5b600061174f84828501611674565b91505092915050565b6000806040838503121561176b57600080fd5b60006117798582860161165f565b925050602061178a8582860161164a565b9150509250929050565b6000602082840312156117a657600080fd5b60006117b484828501611689565b91505092915050565b600080600080600060a086880312156117d557600080fd5b600086013567ffffffffffffffff8111156117ef57600080fd5b6117fb8882890161169e565b955050602061180c888289016116c8565b945050604086013567ffffffffffffffff81111561182957600080fd5b6118358882890161169e565b935050606086013567ffffffffffffffff81111561185257600080fd5b61185e8882890161169e565b925050608086013567ffffffffffffffff81111561187b57600080fd5b6118878882890161169e565b9150509295509295909350565b6000602082840312156118a657600080fd5b60006118b4848285016116c8565b91505092915050565b6118c681611e6a565b82525050565b6118d581611e58565b82525050565b6118e481611e7c565b82525050565b6118f381611e88565b82525050565b600061190482611d81565b61190e8185611d8c565b935061191e818560208601611ef7565b6119278161205c565b840191505092915050565b600061193d82611d81565b6119478185611d9d565b9350611957818560208601611ef7565b80840191505092915050565b6000611970602083611d8c565b91507f537472696e67733a20686578206c656e67746820696e73756666696369656e746000830152602082019050919050565b60006119b0602683611d8c565b91507f4f776e61626c653a206e6577206f776e657220697320746865207a65726f206160008301527f64647265737300000000000000000000000000000000000000000000000000006020830152604082019050919050565b6000611a16602083611d8c565b91507f4f776e61626c653a2063616c6c6572206973206e6f7420746865206f776e65726000830152602082019050919050565b6000611a56601783611d9d565b91507f416363657373436f6e74726f6c3a206163636f756e74200000000000000000006000830152601782019050919050565b6000611a96601183611d9d565b91507f206973206d697373696e6720726f6c65200000000000000000000000000000006000830152601182019050919050565b6000611ad6602f83611d8c565b91507f416363657373436f6e74726f6c3a2063616e206f6e6c792072656e6f756e636560008301527f20726f6c657320666f722073656c6600000000000000000000000000000000006020830152604082019050919050565b611b3881611ede565b82525050565b6000611b4982611a49565b9150611b558285611932565b9150611b6082611a89565b9150611b6c8284611932565b91508190509392505050565b6000602082019050611b8d60008301846118cc565b92915050565b6000602082019050611ba860008301846118db565b92915050565b6000602082019050611bc360008301846118ea565b92915050565b60006020820190508181036000830152611be381846118f9565b905092915050565b60006020820190508181036000830152611c0481611963565b9050919050565b60006020820190508181036000830152611c24816119a3565b9050919050565b60006020820190508181036000830152611c4481611a09565b9050919050565b60006020820190508181036000830152611c6481611ac9565b9050919050565b6000602082019050611c806000830184611b2f565b92915050565b600061010082019050611c9c600083018b611b2f565b8181036020830152611cae818a6118f9565b9050611cbd6040830189611b2f565b8181036060830152611ccf81886118f9565b90508181036080830152611ce381876118f9565b905081810360a0830152611cf781866118f9565b9050611d0660c0830185611b2f565b611d1360e08301846118bd565b9998505050505050505050565b6000604051905081810181811067ffffffffffffffff82111715611d4757611d4661202d565b5b8060405250919050565b600067ffffffffffffffff821115611d6c57611d6b61202d565b5b601f19601f8301169050602081019050919050565b600081519050919050565b600082825260208201905092915050565b600081905092915050565b6000611db382611ede565b9150611dbe83611ede565b9250827fffffffffffffffffffffffffffffffffffffffffffffffffffffffffffffffff03821115611df357611df2611fcf565b5b828201905092915050565b6000611e0982611ede565b9150611e1483611ede565b9250817fffffffffffffffffffffffffffffffffffffffffffffffffffffffffffffffff0483118215151615611e4d57611e4c611fcf565b5b828202905092915050565b6000611e6382611ebe565b9050919050565b6000611e7582611ebe565b9050919050565b60008115159050919050565b6000819050919050565b60007fffffffff0000000000000000000000000000000000000000000000000000000082169050919050565b600073ffffffffffffffffffffffffffffffffffffffff82169050919050565b6000819050919050565b82818337600083830152505050565b60005b83811015611f15578082015181840152602081019050611efa565b83811115611f24576000848401525b50505050565b6000611f3582611ede565b91506000821415611f4957611f48611fcf565b5b600182039050919050565b60006002820490506001821680611f6c57607f821691505b60208210811415611f8057611f7f611ffe565b5b50919050565b6000611f9182611ede565b91507fffffffffffffffffffffffffffffffffffffffffffffffffffffffffffffffff821415611fc457611fc3611fcf565b5b600182019050919050565b7f4e487b7100000000000000000000000000000000000000000000000000000000600052601160045260246000fd5b7f4e487b7100000000000000000000000000000000000000000000000000000000600052602260045260246000fd5b7f4e487b7100000000000000000000000000000000000000000000000000000000600052604160045260246000fd5b6000601f19601f8301169050919050565b61207681611e58565b811461208157600080fd5b50565b61208d81611e88565b811461209857600080fd5b50565b6120a481611e92565b81146120af57600080fd5b50565b6120bb81611ede565b81146120c657600080fd5b5056fea26469706673582212205f0dcffebf8d861d7c5f1b0b686a7f20b64f279774459c4d3991fc54e43d4d7a64736f6c63430008000033608060405234801561001057600080fd5b50610034735c4e9fccd53c74a4ce7c9fc14aac38a81f9ae98361005c60201b60201c565b61005773e2d18e6fffd6b2d36b3c7e2f44e33374c7d92b3361005c60201b60201c565b6100b6565b60016000808373ffffffffffffffffffffffffffffffffffffffff1673ffffffffffffffffffffffffffffffffffffffff16815260200190815260200160002060006101000a81548160ff02191690831515021790555050565b6103b7806100c56000396000f3fe608060405234801561001057600080fd5b50600436106100625760003560e01c80630e666e4914610067578063421b2d8b1461009757806375b238fc146100b3578063a87430ba146100d1578063ac5cb97d14610101578063fec331f21461011f575b600080fd5b610081600480360381019061007c91906102a5565b61013d565b60405161008e91906102ec565b60405180910390f35b6100b160048036038101906100ac91906102a5565b6101aa565b005b6100bb610204565b6040516100c89190610307565b60405180910390f35b6100eb60048036038101906100e691906102a5565b610228565b6040516100f891906102ec565b60405180910390f35b610109610248565b6040516101169190610307565b60405180910390f35b61012761026c565b6040516101349190610307565b60405180910390f35b6000600115156000808473ffffffffffffffffffffffffffffffffffffffff1673ffffffffffffffffffffffffffffffffffffffff16815260200190815260200160002060009054906101000a900460ff16151514156101a057600190506101a5565b600090505b919050565b60016000808373ffffffffffffffffffffffffffffffffffffffff1673ffffffffffffffffffffffffffffffffffffffff16815260200190815260200160002060006101000a81548160ff02191690831515021790555050565b7fa49807205ce4d355092ef5a8a18f56e8913cf4a201fbe287825b095693c2177581565b60006020528060005260406000206000915054906101000a900460ff1681565b7f72606200fac42b7dc86b75901d61ecfab2a4a1a6eded478b97a428094891abed81565b7f0af1dac7dea2fd7f7738119cec7df099dfad49aa9d2e7d17ba6b60f63ae7411f81565b60008135905061029f8161036a565b92915050565b6000602082840312156102b757600080fd5b60006102c584828501610290565b91505092915050565b6102d781610334565b82525050565b6102e681610340565b82525050565b600060208201905061030160008301846102ce565b92915050565b600060208201905061031c60008301846102dd565b92915050565b600061032d8261034a565b9050919050565b60008115159050919050565b6000819050919050565b600073ffffffffffffffffffffffffffffffffffffffff82169050919050565b61037381610322565b811461037e57600080fd5b5056fea2646970667358221220cb06887f8f6a2b7515d4c43276683e473704bb9323043dca4ee12e6ff311fe0d64736f6c63430008000033",
  "immutableReferences": {},
  "source": "pragma solidity  0.8.0;\r\n\r\nimport \"@openzeppelin/contracts/access/Ownable.sol\";\r\nimport \"@openzeppelin/contracts/access/AccessControl.sol\";\r\nimport \"./Registration.sol\";\r\n\r\ncontract DStorage is Ownable, AccessControl {\r\n\r\n  string public name = \"DStorage\";\r\n  // Number of files\r\n  uint public fileCount = 0;\r\n  // Mapping fileId=>Struct \r\n  mapping (uint => File) public files;\r\n\r\n  mapping (address => bool) public members;\r\n\r\n  Registration _registration;\r\n\r\n  // bytes32 public constant DOCTOR_ROLE = keccak256(\"DOCTOR_ROLE\");\r\n  // bytes32 public constant PATIENT_ROLE = keccak256(\"PATIENT_ROLE\");\r\n\r\n  // Struct\r\n  struct File {\r\n      uint fileId;\r\n      string fileHash;\r\n      uint fileSize;\r\n      string fileType;\r\n      string fileName;\r\n      string fileDescription;\r\n      uint uploadTime;\r\n      address payable uploader;\r\n  }\r\n\r\n  // Event\r\n  event FileUploaded(\r\n      uint fileId,\r\n      string fileHash,\r\n      uint fileSize,\r\n      string fileType,\r\n      string fileName,\r\n      string fileDescription,\r\n      uint uploadTime,\r\n      address payable uploader\r\n  );\r\n\r\n  constructor() public {\r\n    _registration = new Registration();\r\n    _setupRole(_registration.PATIENT_ROLE(), msg.sender);\r\n    _setupRole(_registration.DOCTOR_ROLE(), 0xe2D18E6fffd6B2d36B3C7e2F44E33374c7d92B33);\r\n    addMember(0xe2D18E6fffd6B2d36B3C7e2F44E33374c7d92B33);\r\n  }\r\n\r\n  function addMember(address _member) public onlyRole(_registration.PATIENT_ROLE())\r\n   {\r\n      members[_member] = true;\r\n   }\r\n\r\n  function isDoctor(address _address) public returns (bool)\r\n  {\r\n    if(hasRole(_registration.DOCTOR_ROLE(), _address)){\r\n      return true;\r\n    }\r\n    return false;\r\n  }\r\n\r\n  // Upload File function\r\n  function uploadFile(string memory _fileHash, uint _fileSize, string memory _fileType, string memory _fileName, string memory _fileDescription) public onlyRole(_registration.PATIENT_ROLE()) {\r\n    \r\n    // Make sure the file hash exists\r\n    require(bytes(_fileHash).length > 0);\r\n\r\n    // Make sure file type exists\r\n    require(bytes(_fileType).length > 0);\r\n\r\n    // Make sure file description exists\r\n    require(bytes(_fileDescription).length > 0);\r\n\r\n    // Make sure file fileName exists\r\n    require(bytes(_fileName).length > 0);\r\n\r\n    // Make sure uploader address exists\r\n    require(msg.sender != address(0));\r\n\r\n    // Make sure file size is more than 0\r\n    require(_fileSize > 0);\r\n\r\n    //addMember(msg.sender);\r\n\r\n    fileCount++;\r\n\r\n    files[fileCount] = File(fileCount, _fileHash, _fileSize, _fileType, _fileName, _fileDescription, block.timestamp, payable(msg.sender));\r\n    addMember(msg.sender);\r\n    // Trigger an event\r\n\r\n    emit FileUploaded(fileCount, _fileHash, _fileSize, _fileType, _fileName, _fileDescription, block.timestamp, payable(msg.sender));\r\n  }\r\n\r\n}",
  "sourcePath": "C:/Licenta/Licenta/src/contracts/DStorage.sol",
  "compiler": {
    "name": "solc",
    "version": "0.8.0+commit.c7dfd78e.Emscripten.clang"
  },
  "schemaVersion": "3.2.3",
  "updatedAt": "2022-04-08T10:38:55.022Z",
  "networkType": "ethereum",
  "devdoc": {
    "kind": "dev",
    "methods": {
      "getRoleAdmin(bytes32)": {
        "details": "Returns the admin role that controls `role`. See {grantRole} and {revokeRole}. To change a role's admin, use {_setRoleAdmin}."
      },
      "grantRole(bytes32,address)": {
        "details": "Grants `role` to `account`. If `account` had not been already granted `role`, emits a {RoleGranted} event. Requirements: - the caller must have ``role``'s admin role."
      },
      "hasRole(bytes32,address)": {
        "details": "Returns `true` if `account` has been granted `role`."
      },
      "owner()": {
        "details": "Returns the address of the current owner."
      },
      "renounceOwnership()": {
        "details": "Leaves the contract without owner. It will not be possible to call `onlyOwner` functions anymore. Can only be called by the current owner. NOTE: Renouncing ownership will leave the contract without an owner, thereby removing any functionality that is only available to the owner."
      },
      "renounceRole(bytes32,address)": {
        "details": "Revokes `role` from the calling account. Roles are often managed via {grantRole} and {revokeRole}: this function's purpose is to provide a mechanism for accounts to lose their privileges if they are compromised (such as when a trusted device is misplaced). If the calling account had been revoked `role`, emits a {RoleRevoked} event. Requirements: - the caller must be `account`."
      },
      "revokeRole(bytes32,address)": {
        "details": "Revokes `role` from `account`. If `account` had been granted `role`, emits a {RoleRevoked} event. Requirements: - the caller must have ``role``'s admin role."
      },
      "supportsInterface(bytes4)": {
        "details": "See {IERC165-supportsInterface}."
      },
      "transferOwnership(address)": {
        "details": "Transfers ownership of the contract to a new account (`newOwner`). Can only be called by the current owner."
      }
    },
    "version": 1
  },
  "userdoc": {
    "kind": "user",
    "methods": {},
    "version": 1
  }
}