{
  "contractName": "DStorage",
  "abi": [
    {
      "inputs": [
        {
          "internalType": "address",
          "name": "registrationA",
          "type": "address"
        }
      ],
      "stateMutability": "nonpayable",
      "type": "constructor"
    },
    {
      "anonymous": false,
      "inputs": [
        {
          "indexed": false,
          "internalType": "uint256",
          "name": "fileId",
          "type": "uint256"
        },
        {
          "indexed": false,
          "internalType": "string",
          "name": "fileHash",
          "type": "string"
        },
        {
          "indexed": false,
          "internalType": "uint256",
          "name": "fileSize",
          "type": "uint256"
        },
        {
          "indexed": false,
          "internalType": "string",
          "name": "fileType",
          "type": "string"
        },
        {
          "indexed": false,
          "internalType": "string",
          "name": "fileName",
          "type": "string"
        },
        {
          "indexed": false,
          "internalType": "string",
          "name": "fileDescription",
          "type": "string"
        },
        {
          "indexed": false,
          "internalType": "uint256",
          "name": "uploadTime",
          "type": "uint256"
        },
        {
          "indexed": false,
          "internalType": "address payable",
          "name": "uploader",
          "type": "address"
        }
      ],
      "name": "FileUploaded",
      "type": "event"
    },
    {
      "anonymous": false,
      "inputs": [
        {
          "indexed": true,
          "internalType": "address",
          "name": "previousOwner",
          "type": "address"
        },
        {
          "indexed": true,
          "internalType": "address",
          "name": "newOwner",
          "type": "address"
        }
      ],
      "name": "OwnershipTransferred",
      "type": "event"
    },
    {
      "anonymous": false,
      "inputs": [
        {
          "indexed": true,
          "internalType": "bytes32",
          "name": "role",
          "type": "bytes32"
        },
        {
          "indexed": true,
          "internalType": "bytes32",
          "name": "previousAdminRole",
          "type": "bytes32"
        },
        {
          "indexed": true,
          "internalType": "bytes32",
          "name": "newAdminRole",
          "type": "bytes32"
        }
      ],
      "name": "RoleAdminChanged",
      "type": "event"
    },
    {
      "anonymous": false,
      "inputs": [
        {
          "indexed": true,
          "internalType": "bytes32",
          "name": "role",
          "type": "bytes32"
        },
        {
          "indexed": true,
          "internalType": "address",
          "name": "account",
          "type": "address"
        },
        {
          "indexed": true,
          "internalType": "address",
          "name": "sender",
          "type": "address"
        }
      ],
      "name": "RoleGranted",
      "type": "event"
    },
    {
      "anonymous": false,
      "inputs": [
        {
          "indexed": true,
          "internalType": "bytes32",
          "name": "role",
          "type": "bytes32"
        },
        {
          "indexed": true,
          "internalType": "address",
          "name": "account",
          "type": "address"
        },
        {
          "indexed": true,
          "internalType": "address",
          "name": "sender",
          "type": "address"
        }
      ],
      "name": "RoleRevoked",
      "type": "event"
    },
    {
      "inputs": [],
      "name": "DEFAULT_ADMIN_ROLE",
      "outputs": [
        {
          "internalType": "bytes32",
          "name": "",
          "type": "bytes32"
        }
      ],
      "stateMutability": "view",
      "type": "function",
      "constant": true
    },
    {
      "inputs": [],
      "name": "fileCount",
      "outputs": [
        {
          "internalType": "uint256",
          "name": "",
          "type": "uint256"
        }
      ],
      "stateMutability": "view",
      "type": "function",
      "constant": true
    },
    {
      "inputs": [
        {
          "internalType": "uint256",
          "name": "",
          "type": "uint256"
        }
      ],
      "name": "files",
      "outputs": [
        {
          "internalType": "uint256",
          "name": "fileId",
          "type": "uint256"
        },
        {
          "internalType": "string",
          "name": "fileHash",
          "type": "string"
        },
        {
          "internalType": "uint256",
          "name": "fileSize",
          "type": "uint256"
        },
        {
          "internalType": "string",
          "name": "fileType",
          "type": "string"
        },
        {
          "internalType": "string",
          "name": "fileName",
          "type": "string"
        },
        {
          "internalType": "string",
          "name": "fileDescription",
          "type": "string"
        },
        {
          "internalType": "uint256",
          "name": "uploadTime",
          "type": "uint256"
        },
        {
          "internalType": "address payable",
          "name": "uploader",
          "type": "address"
        }
      ],
      "stateMutability": "view",
      "type": "function",
      "constant": true
    },
    {
      "inputs": [
        {
          "internalType": "bytes32",
          "name": "role",
          "type": "bytes32"
        }
      ],
      "name": "getRoleAdmin",
      "outputs": [
        {
          "internalType": "bytes32",
          "name": "",
          "type": "bytes32"
        }
      ],
      "stateMutability": "view",
      "type": "function",
      "constant": true
    },
    {
      "inputs": [
        {
          "internalType": "bytes32",
          "name": "role",
          "type": "bytes32"
        },
        {
          "internalType": "address",
          "name": "account",
          "type": "address"
        }
      ],
      "name": "grantRole",
      "outputs": [],
      "stateMutability": "nonpayable",
      "type": "function"
    },
    {
      "inputs": [
        {
          "internalType": "bytes32",
          "name": "role",
          "type": "bytes32"
        },
        {
          "internalType": "address",
          "name": "account",
          "type": "address"
        }
      ],
      "name": "hasRole",
      "outputs": [
        {
          "internalType": "bool",
          "name": "",
          "type": "bool"
        }
      ],
      "stateMutability": "view",
      "type": "function",
      "constant": true
    },
    {
      "inputs": [
        {
          "internalType": "address",
          "name": "",
          "type": "address"
        }
      ],
      "name": "members",
      "outputs": [
        {
          "internalType": "bool",
          "name": "",
          "type": "bool"
        }
      ],
      "stateMutability": "view",
      "type": "function",
      "constant": true
    },
    {
      "inputs": [],
      "name": "name",
      "outputs": [
        {
          "internalType": "string",
          "name": "",
          "type": "string"
        }
      ],
      "stateMutability": "view",
      "type": "function",
      "constant": true
    },
    {
      "inputs": [],
      "name": "owner",
      "outputs": [
        {
          "internalType": "address",
          "name": "",
          "type": "address"
        }
      ],
      "stateMutability": "view",
      "type": "function",
      "constant": true
    },
    {
      "inputs": [],
      "name": "renounceOwnership",
      "outputs": [],
      "stateMutability": "nonpayable",
      "type": "function"
    },
    {
      "inputs": [
        {
          "internalType": "bytes32",
          "name": "role",
          "type": "bytes32"
        },
        {
          "internalType": "address",
          "name": "account",
          "type": "address"
        }
      ],
      "name": "renounceRole",
      "outputs": [],
      "stateMutability": "nonpayable",
      "type": "function"
    },
    {
      "inputs": [
        {
          "internalType": "bytes32",
          "name": "role",
          "type": "bytes32"
        },
        {
          "internalType": "address",
          "name": "account",
          "type": "address"
        }
      ],
      "name": "revokeRole",
      "outputs": [],
      "stateMutability": "nonpayable",
      "type": "function"
    },
    {
      "inputs": [
        {
          "internalType": "bytes4",
          "name": "interfaceId",
          "type": "bytes4"
        }
      ],
      "name": "supportsInterface",
      "outputs": [
        {
          "internalType": "bool",
          "name": "",
          "type": "bool"
        }
      ],
      "stateMutability": "view",
      "type": "function",
      "constant": true
    },
    {
      "inputs": [
        {
          "internalType": "address",
          "name": "newOwner",
          "type": "address"
        }
      ],
      "name": "transferOwnership",
      "outputs": [],
      "stateMutability": "nonpayable",
      "type": "function"
    },
    {
      "inputs": [
        {
          "internalType": "string",
          "name": "_fileHash",
          "type": "string"
        },
        {
          "internalType": "uint256",
          "name": "_fileSize",
          "type": "uint256"
        },
        {
          "internalType": "string",
          "name": "_fileType",
          "type": "string"
        },
        {
          "internalType": "string",
          "name": "_fileName",
          "type": "string"
        },
        {
          "internalType": "string",
          "name": "_fileDescription",
          "type": "string"
        }
      ],
      "name": "uploadFile",
      "outputs": [],
      "stateMutability": "nonpayable",
      "type": "function"
    }
  ],
  "bytecode": "0x60806040526040518060400160405280600881526020017f4453746f726167650000000000000000000000000000000000000000000000008152506002908051906020019062000051929190620001be565b5060006003553480156200006457600080fd5b50604051620021b6380380620021b683398181016040528101906200008a919062000285565b620000aa6200009e620000f260201b60201c565b620000fa60201b60201c565b80600660006101000a81548173ffffffffffffffffffffffffffffffffffffffff021916908373ffffffffffffffffffffffffffffffffffffffff1602179055505062000364565b600033905090565b60008060009054906101000a900473ffffffffffffffffffffffffffffffffffffffff169050816000806101000a81548173ffffffffffffffffffffffffffffffffffffffff021916908373ffffffffffffffffffffffffffffffffffffffff1602179055508173ffffffffffffffffffffffffffffffffffffffff168173ffffffffffffffffffffffffffffffffffffffff167f8be0079c531659141344cd1fd0a4f28419497f9722a3daafe3b4186f6b6457e060405160405180910390a35050565b828054620001cc90620002e5565b90600052602060002090601f016020900481019282620001f057600085556200023c565b82601f106200020b57805160ff19168380011785556200023c565b828001600101855582156200023c579182015b828111156200023b5782518255916020019190600101906200021e565b5b5090506200024b91906200024f565b5090565b5b808211156200026a57600081600090555060010162000250565b5090565b6000815190506200027f816200034a565b92915050565b6000602082840312156200029857600080fd5b6000620002a8848285016200026e565b91505092915050565b6000620002be82620002c5565b9050919050565b600073ffffffffffffffffffffffffffffffffffffffff82169050919050565b60006002820490506001821680620002fe57607f821691505b602082108114156200031557620003146200031b565b5b50919050565b7f4e487b7100000000000000000000000000000000000000000000000000000000600052602260045260246000fd5b6200035581620002b1565b81146200036157600080fd5b50565b611e4280620003746000396000f3fe608060405234801561001057600080fd5b50600436106100f55760003560e01c8063715018a611610097578063d547741f11610066578063d547741f14610274578063e82d9d3314610290578063f2fde38b146102ac578063f4c714b4146102c8576100f5565b8063715018a6146101fe5780638da5cb5b1461020857806391d1485414610226578063a217fddf14610256576100f5565b8063248a9ca3116100d3578063248a9ca3146101785780632f2ff15d146101a857806336568abe146101c457806343953519146101e0576100f5565b806301ffc9a7146100fa57806306fdde031461012a57806308ae4b0c14610148575b600080fd5b610114600480360381019061010f9190611469565b6102ff565b604051610121919061176e565b60405180910390f35b610132610379565b60405161013f91906117a4565b60405180910390f35b610162600480360381019061015d91906113db565b610407565b60405161016f919061176e565b60405180910390f35b610192600480360381019061018d9190611404565b610427565b60405161019f9190611789565b60405180910390f35b6101c260048036038101906101bd919061142d565b610447565b005b6101de60048036038101906101d9919061142d565b610470565b005b6101e86104f3565b6040516101f59190611846565b60405180910390f35b6102066104f9565b005b610210610581565b60405161021d9190611753565b60405180910390f35b610240600480360381019061023b919061142d565b6105aa565b60405161024d919061176e565b60405180910390f35b61025e610615565b60405161026b9190611789565b60405180910390f35b61028e6004803603810190610289919061142d565b61061c565b005b6102aa60048036038101906102a59190611492565b610645565b005b6102c660048036038101906102c191906113db565b61086d565b005b6102e260048036038101906102dd9190611569565b610965565b6040516102f6989796959493929190611861565b60405180910390f35b60007f7965db0b000000000000000000000000000000000000000000000000000000007bffffffffffffffffffffffffffffffffffffffffffffffffffffffff1916827bffffffffffffffffffffffffffffffffffffffffffffffffffffffff19161480610372575061037182610bed565b5b9050919050565b6002805461038690611b24565b80601f01602080910402602001604051908101604052809291908181526020018280546103b290611b24565b80156103ff5780601f106103d4576101008083540402835291602001916103ff565b820191906000526020600020905b8154815290600101906020018083116103e257829003601f168201915b505050505081565b60056020528060005260406000206000915054906101000a900460ff1681565b600060016000838152602001908152602001600020600101549050919050565b61045082610427565b6104618161045c610c57565b610c5f565b61046b8383610cfc565b505050565b610478610c57565b73ffffffffffffffffffffffffffffffffffffffff168173ffffffffffffffffffffffffffffffffffffffff16146104e5576040517f08c379a00000000000000000000000000000000000000000000000000000000081526004016104dc90611826565b60405180910390fd5b6104ef8282610ddc565b5050565b60035481565b610501610c57565b73ffffffffffffffffffffffffffffffffffffffff1661051f610581565b73ffffffffffffffffffffffffffffffffffffffff1614610575576040517f08c379a000000000000000000000000000000000000000000000000000000000815260040161056c90611806565b60405180910390fd5b61057f6000610ebe565b565b60008060009054906101000a900473ffffffffffffffffffffffffffffffffffffffff16905090565b60006001600084815260200190815260200160002060000160008373ffffffffffffffffffffffffffffffffffffffff1673ffffffffffffffffffffffffffffffffffffffff16815260200190815260200160002060009054906101000a900460ff16905092915050565b6000801b81565b61062582610427565b61063681610631610c57565b610c5f565b6106408383610ddc565b505050565b600085511161065357600080fd5b600083511161066157600080fd5b600081511161066f57600080fd5b600082511161067d57600080fd5b600073ffffffffffffffffffffffffffffffffffffffff163373ffffffffffffffffffffffffffffffffffffffff1614156106b757600080fd5b600084116106c457600080fd5b600360008154809291906106d790611b87565b919050555060405180610100016040528060035481526020018681526020018581526020018481526020018381526020018281526020014281526020013373ffffffffffffffffffffffffffffffffffffffff1681525060046000600354815260200190815260200160002060008201518160000155602082015181600101908051906020019061076992919061127c565b5060408201518160020155606082015181600301908051906020019061079092919061127c565b5060808201518160040190805190602001906107ad92919061127c565b5060a08201518160050190805190602001906107ca92919061127c565b5060c0820151816006015560e08201518160070160006101000a81548173ffffffffffffffffffffffffffffffffffffffff021916908373ffffffffffffffffffffffffffffffffffffffff1602179055509050507f6e95bbaa37a5fdec42a312e049dea2fe6160ebe659214d3409b4f91f164c2f526003548686868686423360405161085e989796959493929190611861565b60405180910390a15050505050565b610875610c57565b73ffffffffffffffffffffffffffffffffffffffff16610893610581565b73ffffffffffffffffffffffffffffffffffffffff16146108e9576040517f08c379a00000000000000000000000000000000000000000000000000000000081526004016108e090611806565b60405180910390fd5b600073ffffffffffffffffffffffffffffffffffffffff168173ffffffffffffffffffffffffffffffffffffffff161415610959576040517f08c379a0000000000000000000000000000000000000000000000000000000008152600401610950906117e6565b60405180910390fd5b61096281610ebe565b50565b600460205280600052604060002060009150905080600001549080600101805461098e90611b24565b80601f01602080910402602001604051908101604052809291908181526020018280546109ba90611b24565b8015610a075780601f106109dc57610100808354040283529160200191610a07565b820191906000526020600020905b8154815290600101906020018083116109ea57829003601f168201915b505050505090806002015490806003018054610a2290611b24565b80601f0160208091040260200160405190810160405280929190818152602001828054610a4e90611b24565b8015610a9b5780601f10610a7057610100808354040283529160200191610a9b565b820191906000526020600020905b815481529060010190602001808311610a7e57829003601f168201915b505050505090806004018054610ab090611b24565b80601f0160208091040260200160405190810160405280929190818152602001828054610adc90611b24565b8015610b295780601f10610afe57610100808354040283529160200191610b29565b820191906000526020600020905b815481529060010190602001808311610b0c57829003601f168201915b505050505090806005018054610b3e90611b24565b80601f0160208091040260200160405190810160405280929190818152602001828054610b6a90611b24565b8015610bb75780601f10610b8c57610100808354040283529160200191610bb7565b820191906000526020600020905b815481529060010190602001808311610b9a57829003601f168201915b5050505050908060060154908060070160009054906101000a900473ffffffffffffffffffffffffffffffffffffffff16905088565b60007f01ffc9a7000000000000000000000000000000000000000000000000000000007bffffffffffffffffffffffffffffffffffffffffffffffffffffffff1916827bffffffffffffffffffffffffffffffffffffffffffffffffffffffff1916149050919050565b600033905090565b610c6982826105aa565b610cf857610c8e8173ffffffffffffffffffffffffffffffffffffffff166014610f82565b610c9c8360001c6020610f82565b604051602001610cad929190611719565b6040516020818303038152906040526040517f08c379a0000000000000000000000000000000000000000000000000000000008152600401610cef91906117a4565b60405180910390fd5b5050565b610d0682826105aa565b610dd857600180600084815260200190815260200160002060000160008373ffffffffffffffffffffffffffffffffffffffff1673ffffffffffffffffffffffffffffffffffffffff16815260200190815260200160002060006101000a81548160ff021916908315150217905550610d7d610c57565b73ffffffffffffffffffffffffffffffffffffffff168173ffffffffffffffffffffffffffffffffffffffff16837f2f8788117e7eff1d82e926ec794901d17c78024a50270940304540a733656f0d60405160405180910390a45b5050565b610de682826105aa565b15610eba5760006001600084815260200190815260200160002060000160008373ffffffffffffffffffffffffffffffffffffffff1673ffffffffffffffffffffffffffffffffffffffff16815260200190815260200160002060006101000a81548160ff021916908315150217905550610e5f610c57565b73ffffffffffffffffffffffffffffffffffffffff168173ffffffffffffffffffffffffffffffffffffffff16837ff6391f5c32d9c69d2a47ea670b442974b53935d1edc7fd64eb21e047a839171b60405160405180910390a45b5050565b60008060009054906101000a900473ffffffffffffffffffffffffffffffffffffffff169050816000806101000a81548173ffffffffffffffffffffffffffffffffffffffff021916908373ffffffffffffffffffffffffffffffffffffffff1602179055508173ffffffffffffffffffffffffffffffffffffffff168173ffffffffffffffffffffffffffffffffffffffff167f8be0079c531659141344cd1fd0a4f28419497f9722a3daafe3b4186f6b6457e060405160405180910390a35050565b606060006002836002610f9591906119ce565b610f9f9190611978565b67ffffffffffffffff811115610fde577f4e487b7100000000000000000000000000000000000000000000000000000000600052604160045260246000fd5b6040519080825280601f01601f1916602001820160405280156110105781602001600182028036833780820191505090505b5090507f30000000000000000000000000000000000000000000000000000000000000008160008151811061106e577f4e487b7100000000000000000000000000000000000000000000000000000000600052603260045260246000fd5b60200101907effffffffffffffffffffffffffffffffffffffffffffffffffffffffffffff1916908160001a9053507f7800000000000000000000000000000000000000000000000000000000000000816001815181106110f8577f4e487b7100000000000000000000000000000000000000000000000000000000600052603260045260246000fd5b60200101907effffffffffffffffffffffffffffffffffffffffffffffffffffffffffffff1916908160001a9053506000600184600261113891906119ce565b6111429190611978565b90505b600181111561122e577f3031323334353637383961626364656600000000000000000000000000000000600f8616601081106111aa577f4e487b7100000000000000000000000000000000000000000000000000000000600052603260045260246000fd5b1a60f81b8282815181106111e7577f4e487b7100000000000000000000000000000000000000000000000000000000600052603260045260246000fd5b60200101907effffffffffffffffffffffffffffffffffffffffffffffffffffffffffffff1916908160001a905350600485901c94508061122790611afa565b9050611145565b5060008414611272576040517f08c379a0000000000000000000000000000000000000000000000000000000008152600401611269906117c6565b60405180910390fd5b8091505092915050565b82805461128890611b24565b90600052602060002090601f0160209004810192826112aa57600085556112f1565b82601f106112c357805160ff19168380011785556112f1565b828001600101855582156112f1579182015b828111156112f05782518255916020019190600101906112d5565b5b5090506112fe9190611302565b5090565b5b8082111561131b576000816000905550600101611303565b5090565b600061133261132d84611920565b6118fb565b90508281526020810184848401111561134a57600080fd5b611355848285611ab8565b509392505050565b60008135905061136c81611db0565b92915050565b60008135905061138181611dc7565b92915050565b60008135905061139681611dde565b92915050565b600082601f8301126113ad57600080fd5b81356113bd84826020860161131f565b91505092915050565b6000813590506113d581611df5565b92915050565b6000602082840312156113ed57600080fd5b60006113fb8482850161135d565b91505092915050565b60006020828403121561141657600080fd5b600061142484828501611372565b91505092915050565b6000806040838503121561144057600080fd5b600061144e85828601611372565b925050602061145f8582860161135d565b9150509250929050565b60006020828403121561147b57600080fd5b600061148984828501611387565b91505092915050565b600080600080600060a086880312156114aa57600080fd5b600086013567ffffffffffffffff8111156114c457600080fd5b6114d08882890161139c565b95505060206114e1888289016113c6565b945050604086013567ffffffffffffffff8111156114fe57600080fd5b61150a8882890161139c565b935050606086013567ffffffffffffffff81111561152757600080fd5b6115338882890161139c565b925050608086013567ffffffffffffffff81111561155057600080fd5b61155c8882890161139c565b9150509295509295909350565b60006020828403121561157b57600080fd5b6000611589848285016113c6565b91505092915050565b61159b81611a3a565b82525050565b6115aa81611a28565b82525050565b6115b981611a4c565b82525050565b6115c881611a58565b82525050565b60006115d982611951565b6115e3818561195c565b93506115f3818560208601611ac7565b6115fc81611c5d565b840191505092915050565b600061161282611951565b61161c818561196d565b935061162c818560208601611ac7565b80840191505092915050565b600061164560208361195c565b915061165082611c6e565b602082019050919050565b600061166860268361195c565b915061167382611c97565b604082019050919050565b600061168b60208361195c565b915061169682611ce6565b602082019050919050565b60006116ae60178361196d565b91506116b982611d0f565b601782019050919050565b60006116d160118361196d565b91506116dc82611d38565b601182019050919050565b60006116f4602f8361195c565b91506116ff82611d61565b604082019050919050565b61171381611aae565b82525050565b6000611724826116a1565b91506117308285611607565b915061173b826116c4565b91506117478284611607565b91508190509392505050565b600060208201905061176860008301846115a1565b92915050565b600060208201905061178360008301846115b0565b92915050565b600060208201905061179e60008301846115bf565b92915050565b600060208201905081810360008301526117be81846115ce565b905092915050565b600060208201905081810360008301526117df81611638565b9050919050565b600060208201905081810360008301526117ff8161165b565b9050919050565b6000602082019050818103600083015261181f8161167e565b9050919050565b6000602082019050818103600083015261183f816116e7565b9050919050565b600060208201905061185b600083018461170a565b92915050565b600061010082019050611877600083018b61170a565b8181036020830152611889818a6115ce565b9050611898604083018961170a565b81810360608301526118aa81886115ce565b905081810360808301526118be81876115ce565b905081810360a08301526118d281866115ce565b90506118e160c083018561170a565b6118ee60e0830184611592565b9998505050505050505050565b6000611905611916565b90506119118282611b56565b919050565b6000604051905090565b600067ffffffffffffffff82111561193b5761193a611c2e565b5b61194482611c5d565b9050602081019050919050565b600081519050919050565b600082825260208201905092915050565b600081905092915050565b600061198382611aae565b915061198e83611aae565b9250827fffffffffffffffffffffffffffffffffffffffffffffffffffffffffffffffff038211156119c3576119c2611bd0565b5b828201905092915050565b60006119d982611aae565b91506119e483611aae565b9250817fffffffffffffffffffffffffffffffffffffffffffffffffffffffffffffffff0483118215151615611a1d57611a1c611bd0565b5b828202905092915050565b6000611a3382611a8e565b9050919050565b6000611a4582611a8e565b9050919050565b60008115159050919050565b6000819050919050565b60007fffffffff0000000000000000000000000000000000000000000000000000000082169050919050565b600073ffffffffffffffffffffffffffffffffffffffff82169050919050565b6000819050919050565b82818337600083830152505050565b60005b83811015611ae5578082015181840152602081019050611aca565b83811115611af4576000848401525b50505050565b6000611b0582611aae565b91506000821415611b1957611b18611bd0565b5b600182039050919050565b60006002820490506001821680611b3c57607f821691505b60208210811415611b5057611b4f611bff565b5b50919050565b611b5f82611c5d565b810181811067ffffffffffffffff82111715611b7e57611b7d611c2e565b5b80604052505050565b6000611b9282611aae565b91507fffffffffffffffffffffffffffffffffffffffffffffffffffffffffffffffff821415611bc557611bc4611bd0565b5b600182019050919050565b7f4e487b7100000000000000000000000000000000000000000000000000000000600052601160045260246000fd5b7f4e487b7100000000000000000000000000000000000000000000000000000000600052602260045260246000fd5b7f4e487b7100000000000000000000000000000000000000000000000000000000600052604160045260246000fd5b6000601f19601f8301169050919050565b7f537472696e67733a20686578206c656e67746820696e73756666696369656e74600082015250565b7f4f776e61626c653a206e6577206f776e657220697320746865207a65726f206160008201527f6464726573730000000000000000000000000000000000000000000000000000602082015250565b7f4f776e61626c653a2063616c6c6572206973206e6f7420746865206f776e6572600082015250565b7f416363657373436f6e74726f6c3a206163636f756e7420000000000000000000600082015250565b7f206973206d697373696e6720726f6c6520000000000000000000000000000000600082015250565b7f416363657373436f6e74726f6c3a2063616e206f6e6c792072656e6f756e636560008201527f20726f6c657320666f722073656c660000000000000000000000000000000000602082015250565b611db981611a28565b8114611dc457600080fd5b50565b611dd081611a58565b8114611ddb57600080fd5b50565b611de781611a62565b8114611df257600080fd5b50565b611dfe81611aae565b8114611e0957600080fd5b5056fea264697066735822122070a1307599563cbb9f0b4b7355db6dae70195f6427412af3ad55b8bfe2a47b1f64736f6c63430008040033",
  "immutableReferences": {},
  "source": "pragma solidity  0.8.4;\r\n\r\nimport \"@openzeppelin/contracts/access/Ownable.sol\";\r\nimport \"@openzeppelin/contracts/access/AccessControl.sol\";\r\nimport \"./Registration.sol\";\r\n\r\ncontract DStorage is Ownable, AccessControl {\r\n\r\n  string public name = \"DStorage\";\r\n  // Number of files\r\n  uint public fileCount = 0;\r\n  // Mapping fileId=>Struct \r\n  mapping (uint => File) public files;\r\n\r\n  mapping (address => bool) public members;\r\n\r\n  Registration _registration;\r\n\r\n  // bytes32 public constant DOCTOR_ROLE = keccak256(\"DOCTOR_ROLE\");\r\n  // bytes32 public constant PATIENT_ROLE = keccak256(\"PATIENT_ROLE\");\r\n\r\n  // Struct\r\n  struct File {\r\n      uint fileId;\r\n      string fileHash;\r\n      uint fileSize;\r\n      string fileType;\r\n      string fileName;\r\n      string fileDescription;\r\n      uint uploadTime;\r\n      address payable uploader;\r\n  }\r\n\r\n  // Event\r\n  event FileUploaded(\r\n      uint fileId,\r\n      string fileHash,\r\n      uint fileSize,\r\n      string fileType,\r\n      string fileName,\r\n      string fileDescription,\r\n      uint uploadTime,\r\n      address payable uploader\r\n  );\r\n\r\n  constructor(address registrationA) public {\r\n    _registration = Registration(registrationA);\r\n    \r\n  }\r\n\r\n  // Upload File function\r\n  function uploadFile(string memory _fileHash, uint _fileSize, string memory _fileType, string memory _fileName, string memory _fileDescription) public {\r\n    \r\n    // Make sure the file hash exists\r\n    require(bytes(_fileHash).length > 0);\r\n\r\n    // Make sure file type exists\r\n    require(bytes(_fileType).length > 0);\r\n\r\n    // Make sure file description exists\r\n    require(bytes(_fileDescription).length > 0);\r\n\r\n    // Make sure file fileName exists\r\n    require(bytes(_fileName).length > 0);\r\n\r\n    // Make sure uploader address exists\r\n    require(msg.sender != address(0));\r\n\r\n    // Make sure file size is more than 0\r\n    require(_fileSize > 0);\r\n\r\n    //addMember(msg.sender);\r\n\r\n    fileCount++;\r\n\r\n    files[fileCount] = File(fileCount, _fileHash, _fileSize, _fileType, _fileName, _fileDescription, block.timestamp, payable(msg.sender));\r\n    // Trigger an event\r\n\r\n    emit FileUploaded(fileCount, _fileHash, _fileSize, _fileType, _fileName, _fileDescription, block.timestamp, payable(msg.sender));\r\n  }\r\n\r\n}",
  "sourcePath": "C:\\Licenta\\Licenta\\src\\contracts\\DStorage.sol",
  "compiler": {
    "name": "solc",
    "version": "0.8.4+commit.c7e474f2.Emscripten.clang"
  },
  "schemaVersion": "3.2.3",
  "updatedAt": "2022-06-13T13:47:43.213Z",
  "networkType": "ethereum",
  "devdoc": {
    "kind": "dev",
    "methods": {
      "getRoleAdmin(bytes32)": {
        "details": "Returns the admin role that controls `role`. See {grantRole} and {revokeRole}. To change a role's admin, use {_setRoleAdmin}."
      },
      "grantRole(bytes32,address)": {
        "details": "Grants `role` to `account`. If `account` had not been already granted `role`, emits a {RoleGranted} event. Requirements: - the caller must have ``role``'s admin role."
      },
      "hasRole(bytes32,address)": {
        "details": "Returns `true` if `account` has been granted `role`."
      },
      "owner()": {
        "details": "Returns the address of the current owner."
      },
      "renounceOwnership()": {
        "details": "Leaves the contract without owner. It will not be possible to call `onlyOwner` functions anymore. Can only be called by the current owner. NOTE: Renouncing ownership will leave the contract without an owner, thereby removing any functionality that is only available to the owner."
      },
      "renounceRole(bytes32,address)": {
        "details": "Revokes `role` from the calling account. Roles are often managed via {grantRole} and {revokeRole}: this function's purpose is to provide a mechanism for accounts to lose their privileges if they are compromised (such as when a trusted device is misplaced). If the calling account had been revoked `role`, emits a {RoleRevoked} event. Requirements: - the caller must be `account`."
      },
      "revokeRole(bytes32,address)": {
        "details": "Revokes `role` from `account`. If `account` had been granted `role`, emits a {RoleRevoked} event. Requirements: - the caller must have ``role``'s admin role."
      },
      "supportsInterface(bytes4)": {
        "details": "See {IERC165-supportsInterface}."
      },
      "transferOwnership(address)": {
        "details": "Transfers ownership of the contract to a new account (`newOwner`). Can only be called by the current owner."
      }
    },
    "version": 1
  },
  "userdoc": {
    "kind": "user",
    "methods": {},
    "version": 1
  }
}