{
  "contractName": "Files",
  "abi": [
    {
      "inputs": [
        {
          "internalType": "address",
          "name": "registrationA",
          "type": "address"
        }
      ],
      "stateMutability": "nonpayable",
      "type": "constructor"
    },
    {
      "anonymous": false,
      "inputs": [
        {
          "indexed": false,
          "internalType": "address",
          "name": "patient",
          "type": "address"
        },
        {
          "indexed": false,
          "internalType": "string",
          "name": "_hash",
          "type": "string"
        }
      ],
      "name": "FilesAdd",
      "type": "event"
    },
    {
      "anonymous": false,
      "inputs": [
        {
          "indexed": true,
          "internalType": "address",
          "name": "previousOwner",
          "type": "address"
        },
        {
          "indexed": true,
          "internalType": "address",
          "name": "newOwner",
          "type": "address"
        }
      ],
      "name": "OwnershipTransferred",
      "type": "event"
    },
    {
      "anonymous": false,
      "inputs": [
        {
          "indexed": false,
          "internalType": "address",
          "name": "patient",
          "type": "address"
        },
        {
          "indexed": false,
          "internalType": "address",
          "name": "doctor",
          "type": "address"
        },
        {
          "indexed": false,
          "internalType": "uint256",
          "name": "index",
          "type": "uint256"
        }
      ],
      "name": "RequestAdd",
      "type": "event"
    },
    {
      "anonymous": false,
      "inputs": [
        {
          "indexed": true,
          "internalType": "bytes32",
          "name": "role",
          "type": "bytes32"
        },
        {
          "indexed": true,
          "internalType": "bytes32",
          "name": "previousAdminRole",
          "type": "bytes32"
        },
        {
          "indexed": true,
          "internalType": "bytes32",
          "name": "newAdminRole",
          "type": "bytes32"
        }
      ],
      "name": "RoleAdminChanged",
      "type": "event"
    },
    {
      "anonymous": false,
      "inputs": [
        {
          "indexed": true,
          "internalType": "bytes32",
          "name": "role",
          "type": "bytes32"
        },
        {
          "indexed": true,
          "internalType": "address",
          "name": "account",
          "type": "address"
        },
        {
          "indexed": true,
          "internalType": "address",
          "name": "sender",
          "type": "address"
        }
      ],
      "name": "RoleGranted",
      "type": "event"
    },
    {
      "anonymous": false,
      "inputs": [
        {
          "indexed": true,
          "internalType": "bytes32",
          "name": "role",
          "type": "bytes32"
        },
        {
          "indexed": true,
          "internalType": "address",
          "name": "account",
          "type": "address"
        },
        {
          "indexed": true,
          "internalType": "address",
          "name": "sender",
          "type": "address"
        }
      ],
      "name": "RoleRevoked",
      "type": "event"
    },
    {
      "inputs": [],
      "name": "DEFAULT_ADMIN_ROLE",
      "outputs": [
        {
          "internalType": "bytes32",
          "name": "",
          "type": "bytes32"
        }
      ],
      "stateMutability": "view",
      "type": "function",
      "constant": true
    },
    {
      "inputs": [
        {
          "internalType": "bytes32",
          "name": "role",
          "type": "bytes32"
        }
      ],
      "name": "getRoleAdmin",
      "outputs": [
        {
          "internalType": "bytes32",
          "name": "",
          "type": "bytes32"
        }
      ],
      "stateMutability": "view",
      "type": "function",
      "constant": true
    },
    {
      "inputs": [
        {
          "internalType": "bytes32",
          "name": "role",
          "type": "bytes32"
        },
        {
          "internalType": "address",
          "name": "account",
          "type": "address"
        }
      ],
      "name": "grantRole",
      "outputs": [],
      "stateMutability": "nonpayable",
      "type": "function"
    },
    {
      "inputs": [
        {
          "internalType": "bytes32",
          "name": "role",
          "type": "bytes32"
        },
        {
          "internalType": "address",
          "name": "account",
          "type": "address"
        }
      ],
      "name": "hasRole",
      "outputs": [
        {
          "internalType": "bool",
          "name": "",
          "type": "bool"
        }
      ],
      "stateMutability": "view",
      "type": "function",
      "constant": true
    },
    {
      "inputs": [],
      "name": "owner",
      "outputs": [
        {
          "internalType": "address",
          "name": "",
          "type": "address"
        }
      ],
      "stateMutability": "view",
      "type": "function",
      "constant": true
    },
    {
      "inputs": [],
      "name": "renounceOwnership",
      "outputs": [],
      "stateMutability": "nonpayable",
      "type": "function"
    },
    {
      "inputs": [
        {
          "internalType": "bytes32",
          "name": "role",
          "type": "bytes32"
        },
        {
          "internalType": "address",
          "name": "account",
          "type": "address"
        }
      ],
      "name": "renounceRole",
      "outputs": [],
      "stateMutability": "nonpayable",
      "type": "function"
    },
    {
      "inputs": [
        {
          "internalType": "bytes32",
          "name": "role",
          "type": "bytes32"
        },
        {
          "internalType": "address",
          "name": "account",
          "type": "address"
        }
      ],
      "name": "revokeRole",
      "outputs": [],
      "stateMutability": "nonpayable",
      "type": "function"
    },
    {
      "inputs": [
        {
          "internalType": "bytes4",
          "name": "interfaceId",
          "type": "bytes4"
        }
      ],
      "name": "supportsInterface",
      "outputs": [
        {
          "internalType": "bool",
          "name": "",
          "type": "bool"
        }
      ],
      "stateMutability": "view",
      "type": "function",
      "constant": true
    },
    {
      "inputs": [
        {
          "internalType": "address",
          "name": "newOwner",
          "type": "address"
        }
      ],
      "name": "transferOwnership",
      "outputs": [],
      "stateMutability": "nonpayable",
      "type": "function"
    },
    {
      "inputs": [
        {
          "internalType": "address",
          "name": "_address",
          "type": "address"
        }
      ],
      "name": "addRequestToShareMedicalRecords",
      "outputs": [],
      "stateMutability": "nonpayable",
      "type": "function"
    },
    {
      "inputs": [
        {
          "internalType": "address",
          "name": "_address",
          "type": "address"
        }
      ],
      "name": "getHistoryAvailableForDoctor",
      "outputs": [
        {
          "internalType": "address[]",
          "name": "",
          "type": "address[]"
        }
      ],
      "stateMutability": "nonpayable",
      "type": "function"
    },
    {
      "inputs": [
        {
          "internalType": "address",
          "name": "_address",
          "type": "address"
        }
      ],
      "name": "getRequestsOfAPatient",
      "outputs": [
        {
          "components": [
            {
              "internalType": "address",
              "name": "patient",
              "type": "address"
            },
            {
              "internalType": "address",
              "name": "doctor",
              "type": "address"
            },
            {
              "internalType": "uint256",
              "name": "index",
              "type": "uint256"
            }
          ],
          "internalType": "struct Files.Request[]",
          "name": "",
          "type": "tuple[]"
        }
      ],
      "stateMutability": "nonpayable",
      "type": "function"
    },
    {
      "inputs": [
        {
          "internalType": "address",
          "name": "_address",
          "type": "address"
        },
        {
          "internalType": "uint256",
          "name": "index",
          "type": "uint256"
        },
        {
          "internalType": "string",
          "name": "_hash",
          "type": "string"
        }
      ],
      "name": "acceptRequestFromDoctor",
      "outputs": [],
      "stateMutability": "nonpayable",
      "type": "function"
    },
    {
      "inputs": [
        {
          "internalType": "address",
          "name": "_address",
          "type": "address"
        },
        {
          "internalType": "string",
          "name": "_hash",
          "type": "string"
        }
      ],
      "name": "addFilesToDoctor",
      "outputs": [],
      "stateMutability": "nonpayable",
      "type": "function"
    },
    {
      "inputs": [
        {
          "internalType": "address",
          "name": "_address",
          "type": "address"
        }
      ],
      "name": "getFilesHistory",
      "outputs": [
        {
          "components": [
            {
              "internalType": "address",
              "name": "patient",
              "type": "address"
            },
            {
              "internalType": "string",
              "name": "_hash",
              "type": "string"
            }
          ],
          "internalType": "struct Files.Files[]",
          "name": "",
          "type": "tuple[]"
        }
      ],
      "stateMutability": "nonpayable",
      "type": "function"
    },
    {
      "inputs": [
        {
          "internalType": "address",
          "name": "_address",
          "type": "address"
        },
        {
          "internalType": "uint256",
          "name": "index",
          "type": "uint256"
        }
      ],
      "name": "declineRequestFromDoctor",
      "outputs": [],
      "stateMutability": "nonpayable",
      "type": "function"
    }
  ],
  "bytecode": "0x60806040523480156200001157600080fd5b5060405162002cd038038062002cd0833981810160405281019062000037919062000182565b620000576200004b6200009f60201b60201c565b620000a760201b60201c565b80600260006101000a81548173ffffffffffffffffffffffffffffffffffffffff021916908373ffffffffffffffffffffffffffffffffffffffff16021790555050620001fc565b600033905090565b60008060009054906101000a900473ffffffffffffffffffffffffffffffffffffffff169050816000806101000a81548173ffffffffffffffffffffffffffffffffffffffff021916908373ffffffffffffffffffffffffffffffffffffffff1602179055508173ffffffffffffffffffffffffffffffffffffffff168173ffffffffffffffffffffffffffffffffffffffff167f8be0079c531659141344cd1fd0a4f28419497f9722a3daafe3b4186f6b6457e060405160405180910390a35050565b6000815190506200017c81620001e2565b92915050565b6000602082840312156200019557600080fd5b6000620001a5848285016200016b565b91505092915050565b6000620001bb82620001c2565b9050919050565b600073ffffffffffffffffffffffffffffffffffffffff82169050919050565b620001ed81620001ae565b8114620001f957600080fd5b50565b612ac4806200020c6000396000f3fe608060405234801561001057600080fd5b506004361061010b5760003560e01c8063715018a6116100a2578063a217fddf11610071578063a217fddf146102c8578063d547741f146102e6578063d8801a1f14610302578063f2fde38b1461031e578063f4d48c941461033a5761010b565b8063715018a6146102545780638da5cb5b1461025e57806391d148541461027c57806392e33485146102ac5761010b565b806336568abe116100de57806336568abe146101a8578063550d6097146101c4578063558eca3e146101f4578063705ac9cb146102245761010b565b806301ffc9a714610110578063248a9ca31461014057806324bf6f44146101705780632f2ff15d1461018c575b600080fd5b61012a60048036038101906101259190611e1c565b610356565b60405161013791906123f2565b60405180910390f35b61015a60048036038101906101559190611db7565b6103d0565b604051610167919061240d565b60405180910390f35b61018a60048036038101906101859190611c97565b6103f0565b005b6101a660048036038101906101a19190611de0565b610700565b005b6101c260048036038101906101bd9190611de0565b610729565b005b6101de60048036038101906101d99190611c97565b6107ac565b6040516101eb919061238c565b60405180910390f35b61020e60048036038101906102099190611c97565b610879565b60405161021b91906123ae565b60405180910390f35b61023e60048036038101906102399190611c97565b6109ff565b60405161024b91906123d0565b60405180910390f35b61025c610b53565b005b610266610bdb565b604051610273919061230a565b60405180910390f35b61029660048036038101906102919190611de0565b610c04565b6040516102a391906123f2565b60405180910390f35b6102c660048036038101906102c19190611d14565b610c6f565b005b6102d0610e56565b6040516102dd919061240d565b60405180910390f35b61030060048036038101906102fb9190611de0565b610e5d565b005b61031c60048036038101906103179190611cc0565b610e86565b005b61033860048036038101906103339190611c97565b6110c1565b005b610354600480360381019061034f9190611d50565b6111b9565b005b60007f7965db0b000000000000000000000000000000000000000000000000000000007bffffffffffffffffffffffffffffffffffffffffffffffffffffffff1916827bffffffffffffffffffffffffffffffffffffffffffffffffffffffff191614806103c957506103c882611441565b5b9050919050565b600060016000838152602001908152602001600020600101549050919050565b6040516020016103ff906122a6565b60405160208183030381529060405280519060200120600260009054906101000a900473ffffffffffffffffffffffffffffffffffffffff1673ffffffffffffffffffffffffffffffffffffffff166344276733326040518263ffffffff1660e01b8152600401610470919061230a565b60006040518083038186803b15801561048857600080fd5b505afa15801561049c573d6000803e3d6000fd5b505050506040513d6000823e3d601f19601f820116820180604052508101906104c59190611e45565b6040516020016104d5919061228f565b60405160208183030381529060405280519060200120146104f557600080fd5b600560008273ffffffffffffffffffffffffffffffffffffffff1673ffffffffffffffffffffffffffffffffffffffff16815260200190815260200160002060405180606001604052808373ffffffffffffffffffffffffffffffffffffffff1681526020013373ffffffffffffffffffffffffffffffffffffffff168152602001600560008573ffffffffffffffffffffffffffffffffffffffff1673ffffffffffffffffffffffffffffffffffffffff16815260200190815260200160002080549050815250908060018154018082558091505060019003906000526020600020906003020160009091909190915060008201518160000160006101000a81548173ffffffffffffffffffffffffffffffffffffffff021916908373ffffffffffffffffffffffffffffffffffffffff16021790555060208201518160010160006101000a81548173ffffffffffffffffffffffffffffffffffffffff021916908373ffffffffffffffffffffffffffffffffffffffff1602179055506040820151816002015550507feaf5ea1e95678b1be41f17e32e21f6f2820f06e7bb870717f720ba58c80ddaa38133600560008573ffffffffffffffffffffffffffffffffffffffff1673ffffffffffffffffffffffffffffffffffffffff168152602001908152602001600020805490506040516106f593929190612325565b60405180910390a150565b610709826103d0565b61071a816107156114ab565b6114b3565b6107248383611550565b505050565b6107316114ab565b73ffffffffffffffffffffffffffffffffffffffff168173ffffffffffffffffffffffffffffffffffffffff161461079e576040517f08c379a0000000000000000000000000000000000000000000000000000000008152600401610795906124aa565b60405180910390fd5b6107a88282611630565b5050565b6060600360008373ffffffffffffffffffffffffffffffffffffffff1673ffffffffffffffffffffffffffffffffffffffff16815260200190815260200160002080548060200260200160405190810160405280929190818152602001828054801561086d57602002820191906000526020600020905b8160009054906101000a900473ffffffffffffffffffffffffffffffffffffffff1673ffffffffffffffffffffffffffffffffffffffff1681526020019060010190808311610823575b50505050509050919050565b6060600460008373ffffffffffffffffffffffffffffffffffffffff1673ffffffffffffffffffffffffffffffffffffffff168152602001908152602001600020805480602002602001604051908101604052809291908181526020016000905b828210156109f457838290600052602060002090600202016040518060400160405290816000820160009054906101000a900473ffffffffffffffffffffffffffffffffffffffff1673ffffffffffffffffffffffffffffffffffffffff1673ffffffffffffffffffffffffffffffffffffffff1681526020016001820180546109639061279d565b80601f016020809104026020016040519081016040528092919081815260200182805461098f9061279d565b80156109dc5780601f106109b1576101008083540402835291602001916109dc565b820191906000526020600020905b8154815290600101906020018083116109bf57829003601f168201915b505050505081525050815260200190600101906108da565b505050509050919050565b6060600560008373ffffffffffffffffffffffffffffffffffffffff1673ffffffffffffffffffffffffffffffffffffffff168152602001908152602001600020805480602002602001604051908101604052809291908181526020016000905b82821015610b4857838290600052602060002090600302016040518060600160405290816000820160009054906101000a900473ffffffffffffffffffffffffffffffffffffffff1673ffffffffffffffffffffffffffffffffffffffff1673ffffffffffffffffffffffffffffffffffffffff1681526020016001820160009054906101000a900473ffffffffffffffffffffffffffffffffffffffff1673ffffffffffffffffffffffffffffffffffffffff1673ffffffffffffffffffffffffffffffffffffffff16815260200160028201548152505081526020019060010190610a60565b505050509050919050565b610b5b6114ab565b73ffffffffffffffffffffffffffffffffffffffff16610b79610bdb565b73ffffffffffffffffffffffffffffffffffffffff1614610bcf576040517f08c379a0000000000000000000000000000000000000000000000000000000008152600401610bc69061248a565b60405180910390fd5b610bd96000611712565b565b60008060009054906101000a900473ffffffffffffffffffffffffffffffffffffffff16905090565b60006001600084815260200190815260200160002060000160008373ffffffffffffffffffffffffffffffffffffffff1673ffffffffffffffffffffffffffffffffffffffff16815260200190815260200160002060009054906101000a900460ff16905092915050565b604051602001610c7e906122f5565b60405160208183030381529060405280519060200120600260009054906101000a900473ffffffffffffffffffffffffffffffffffffffff1673ffffffffffffffffffffffffffffffffffffffff166344276733326040518263ffffffff1660e01b8152600401610cef919061230a565b60006040518083038186803b158015610d0757600080fd5b505afa158015610d1b573d6000803e3d6000fd5b505050506040513d6000823e3d601f19601f82011682018060405250810190610d449190611e45565b604051602001610d54919061228f565b6040516020818303038152906040528051906020012014610d7457600080fd5b600560003373ffffffffffffffffffffffffffffffffffffffff1673ffffffffffffffffffffffffffffffffffffffff1681526020019081526020016000208181548110610deb577f4e487b7100000000000000000000000000000000000000000000000000000000600052603260045260246000fd5b9060005260206000209060030201600080820160006101000a81549073ffffffffffffffffffffffffffffffffffffffff02191690556001820160006101000a81549073ffffffffffffffffffffffffffffffffffffffff0219169055600282016000905550505050565b6000801b81565b610e66826103d0565b610e7781610e726114ab565b6114b3565b610e818383611630565b505050565b604051602001610e95906122f5565b60405160208183030381529060405280519060200120600260009054906101000a900473ffffffffffffffffffffffffffffffffffffffff1673ffffffffffffffffffffffffffffffffffffffff166344276733326040518263ffffffff1660e01b8152600401610f06919061230a565b60006040518083038186803b158015610f1e57600080fd5b505afa158015610f32573d6000803e3d6000fd5b505050506040513d6000823e3d601f19601f82011682018060405250810190610f5b9190611e45565b604051602001610f6b919061228f565b6040516020818303038152906040528051906020012014610f8b57600080fd5b600460008373ffffffffffffffffffffffffffffffffffffffff1673ffffffffffffffffffffffffffffffffffffffff16815260200190815260200160002060405180604001604052803373ffffffffffffffffffffffffffffffffffffffff16815260200183815250908060018154018082558091505060019003906000526020600020906002020160009091909190915060008201518160000160006101000a81548173ffffffffffffffffffffffffffffffffffffffff021916908373ffffffffffffffffffffffffffffffffffffffff1602179055506020820151816001019080519060200190611081929190611ad0565b5050507ffe3833d10ea2624036e9009fa30162c7514262e56688d210546a48503743e51233826040516110b592919061235c565b60405180910390a15050565b6110c96114ab565b73ffffffffffffffffffffffffffffffffffffffff166110e7610bdb565b73ffffffffffffffffffffffffffffffffffffffff161461113d576040517f08c379a00000000000000000000000000000000000000000000000000000000081526004016111349061248a565b60405180910390fd5b600073ffffffffffffffffffffffffffffffffffffffff168173ffffffffffffffffffffffffffffffffffffffff1614156111ad576040517f08c379a00000000000000000000000000000000000000000000000000000000081526004016111a49061246a565b60405180910390fd5b6111b681611712565b50565b6040516020016111c8906122f5565b60405160208183030381529060405280519060200120600260009054906101000a900473ffffffffffffffffffffffffffffffffffffffff1673ffffffffffffffffffffffffffffffffffffffff166344276733326040518263ffffffff1660e01b8152600401611239919061230a565b60006040518083038186803b15801561125157600080fd5b505afa158015611265573d6000803e3d6000fd5b505050506040513d6000823e3d601f19601f8201168201806040525081019061128e9190611e45565b60405160200161129e919061228f565b60405160208183030381529060405280519060200120146112be57600080fd5b600360008473ffffffffffffffffffffffffffffffffffffffff1673ffffffffffffffffffffffffffffffffffffffff168152602001908152602001600020339080600181540180825580915050600190039060005260206000200160009091909190916101000a81548173ffffffffffffffffffffffffffffffffffffffff021916908373ffffffffffffffffffffffffffffffffffffffff160217905550600560003373ffffffffffffffffffffffffffffffffffffffff1673ffffffffffffffffffffffffffffffffffffffff16815260200190815260200160002082815481106113d5577f4e487b7100000000000000000000000000000000000000000000000000000000600052603260045260246000fd5b9060005260206000209060030201600080820160006101000a81549073ffffffffffffffffffffffffffffffffffffffff02191690556001820160006101000a81549073ffffffffffffffffffffffffffffffffffffffff021916905560028201600090555050505050565b60007f01ffc9a7000000000000000000000000000000000000000000000000000000007bffffffffffffffffffffffffffffffffffffffffffffffffffffffff1916827bffffffffffffffffffffffffffffffffffffffffffffffffffffffff1916149050919050565b600033905090565b6114bd8282610c04565b61154c576114e28173ffffffffffffffffffffffffffffffffffffffff1660146117d6565b6114f08360001c60206117d6565b6040516020016115019291906122bb565b6040516020818303038152906040526040517f08c379a00000000000000000000000000000000000000000000000000000000081526004016115439190612428565b60405180910390fd5b5050565b61155a8282610c04565b61162c57600180600084815260200190815260200160002060000160008373ffffffffffffffffffffffffffffffffffffffff1673ffffffffffffffffffffffffffffffffffffffff16815260200190815260200160002060006101000a81548160ff0219169083151502179055506115d16114ab565b73ffffffffffffffffffffffffffffffffffffffff168173ffffffffffffffffffffffffffffffffffffffff16837f2f8788117e7eff1d82e926ec794901d17c78024a50270940304540a733656f0d60405160405180910390a45b5050565b61163a8282610c04565b1561170e5760006001600084815260200190815260200160002060000160008373ffffffffffffffffffffffffffffffffffffffff1673ffffffffffffffffffffffffffffffffffffffff16815260200190815260200160002060006101000a81548160ff0219169083151502179055506116b36114ab565b73ffffffffffffffffffffffffffffffffffffffff168173ffffffffffffffffffffffffffffffffffffffff16837ff6391f5c32d9c69d2a47ea670b442974b53935d1edc7fd64eb21e047a839171b60405160405180910390a45b5050565b60008060009054906101000a900473ffffffffffffffffffffffffffffffffffffffff169050816000806101000a81548173ffffffffffffffffffffffffffffffffffffffff021916908373ffffffffffffffffffffffffffffffffffffffff1602179055508173ffffffffffffffffffffffffffffffffffffffff168173ffffffffffffffffffffffffffffffffffffffff167f8be0079c531659141344cd1fd0a4f28419497f9722a3daafe3b4186f6b6457e060405160405180910390a35050565b6060600060028360026117e99190612659565b6117f39190612603565b67ffffffffffffffff811115611832577f4e487b7100000000000000000000000000000000000000000000000000000000600052604160045260246000fd5b6040519080825280601f01601f1916602001820160405280156118645781602001600182028036833780820191505090505b5090507f3000000000000000000000000000000000000000000000000000000000000000816000815181106118c2577f4e487b7100000000000000000000000000000000000000000000000000000000600052603260045260246000fd5b60200101907effffffffffffffffffffffffffffffffffffffffffffffffffffffffffffff1916908160001a9053507f78000000000000000000000000000000000000000000000000000000000000008160018151811061194c577f4e487b7100000000000000000000000000000000000000000000000000000000600052603260045260246000fd5b60200101907effffffffffffffffffffffffffffffffffffffffffffffffffffffffffffff1916908160001a9053506000600184600261198c9190612659565b6119969190612603565b90505b6001811115611a82577f3031323334353637383961626364656600000000000000000000000000000000600f8616601081106119fe577f4e487b7100000000000000000000000000000000000000000000000000000000600052603260045260246000fd5b1a60f81b828281518110611a3b577f4e487b7100000000000000000000000000000000000000000000000000000000600052603260045260246000fd5b60200101907effffffffffffffffffffffffffffffffffffffffffffffffffffffffffffff1916908160001a905350600485901c945080611a7b90612773565b9050611999565b5060008414611ac6576040517f08c379a0000000000000000000000000000000000000000000000000000000008152600401611abd9061244a565b60405180910390fd5b8091505092915050565b828054611adc9061279d565b90600052602060002090601f016020900481019282611afe5760008555611b45565b82601f10611b1757805160ff1916838001178555611b45565b82800160010185558215611b45579182015b82811115611b44578251825591602001919060010190611b29565b5b509050611b529190611b56565b5090565b5b80821115611b6f576000816000905550600101611b57565b5090565b6000611b86611b81846124ef565b6124ca565b905082815260208101848484011115611b9e57600080fd5b611ba9848285612731565b509392505050565b6000611bc4611bbf846124ef565b6124ca565b905082815260208101848484011115611bdc57600080fd5b611be7848285612740565b509392505050565b600081359050611bfe81612a32565b92915050565b600081359050611c1381612a49565b92915050565b600081359050611c2881612a60565b92915050565b600082601f830112611c3f57600080fd5b8135611c4f848260208601611b73565b91505092915050565b600082601f830112611c6957600080fd5b8151611c79848260208601611bb1565b91505092915050565b600081359050611c9181612a77565b92915050565b600060208284031215611ca957600080fd5b6000611cb784828501611bef565b91505092915050565b60008060408385031215611cd357600080fd5b6000611ce185828601611bef565b925050602083013567ffffffffffffffff811115611cfe57600080fd5b611d0a85828601611c2e565b9150509250929050565b60008060408385031215611d2757600080fd5b6000611d3585828601611bef565b9250506020611d4685828601611c82565b9150509250929050565b600080600060608486031215611d6557600080fd5b6000611d7386828701611bef565b9350506020611d8486828701611c82565b925050604084013567ffffffffffffffff811115611da157600080fd5b611dad86828701611c2e565b9150509250925092565b600060208284031215611dc957600080fd5b6000611dd784828501611c04565b91505092915050565b60008060408385031215611df357600080fd5b6000611e0185828601611c04565b9250506020611e1285828601611bef565b9150509250929050565b600060208284031215611e2e57600080fd5b6000611e3c84828501611c19565b91505092915050565b600060208284031215611e5757600080fd5b600082015167ffffffffffffffff811115611e7157600080fd5b611e7d84828501611c58565b91505092915050565b6000611e928383611eca565b60208301905092915050565b6000611eaa83836121f2565b905092915050565b6000611ebe838361222f565b60608301905092915050565b611ed3816126b3565b82525050565b611ee2816126b3565b82525050565b6000611ef382612550565b611efd81856125a3565b9350611f0883612520565b8060005b83811015611f39578151611f208882611e86565b9750611f2b8361257c565b925050600181019050611f0c565b5085935050505092915050565b6000611f518261255b565b611f5b81856125b4565b935083602082028501611f6d85612530565b8060005b85811015611fa95784840389528151611f8a8582611e9e565b9450611f9583612589565b925060208a01995050600181019050611f71565b50829750879550505050505092915050565b6000611fc682612566565b611fd081856125c5565b9350611fdb83612540565b8060005b8381101561200c578151611ff38882611eb2565b9750611ffe83612596565b925050600181019050611fdf565b5085935050505092915050565b612022816126c5565b82525050565b612031816126d1565b82525050565b600061204282612571565b61204c81856125d6565b935061205c818560208601612740565b6120658161288d565b840191505092915050565b600061207b82612571565b61208581856125e7565b9350612095818560208601612740565b61209e8161288d565b840191505092915050565b60006120b482612571565b6120be81856125f8565b93506120ce818560208601612740565b80840191505092915050565b60006120e76020836125e7565b91506120f28261289e565b602082019050919050565b600061210a6026836125e7565b9150612115826128c7565b604082019050919050565b600061212d6020836125e7565b915061213882612916565b602082019050919050565b60006121506006836125f8565b915061215b8261293f565b600682019050919050565b60006121736017836125f8565b915061217e82612968565b601782019050919050565b60006121966007836125f8565b91506121a182612991565b600782019050919050565b60006121b96011836125f8565b91506121c4826129ba565b601182019050919050565b60006121dc602f836125e7565b91506121e7826129e3565b604082019050919050565b600060408301600083015161220a6000860182611eca565b50602083015184820360208601526122228282612037565b9150508091505092915050565b6060820160008201516122456000850182611eca565b5060208201516122586020850182611eca565b50604082015161226b6040850182612271565b50505050565b61227a81612727565b82525050565b61228981612727565b82525050565b600061229b82846120a9565b915081905092915050565b60006122b182612143565b9150819050919050565b60006122c682612166565b91506122d282856120a9565b91506122dd826121ac565b91506122e982846120a9565b91508190509392505050565b600061230082612189565b9150819050919050565b600060208201905061231f6000830184611ed9565b92915050565b600060608201905061233a6000830186611ed9565b6123476020830185611ed9565b6123546040830184612280565b949350505050565b60006040820190506123716000830185611ed9565b81810360208301526123838184612070565b90509392505050565b600060208201905081810360008301526123a68184611ee8565b905092915050565b600060208201905081810360008301526123c88184611f46565b905092915050565b600060208201905081810360008301526123ea8184611fbb565b905092915050565b60006020820190506124076000830184612019565b92915050565b60006020820190506124226000830184612028565b92915050565b600060208201905081810360008301526124428184612070565b905092915050565b60006020820190508181036000830152612463816120da565b9050919050565b60006020820190508181036000830152612483816120fd565b9050919050565b600060208201905081810360008301526124a381612120565b9050919050565b600060208201905081810360008301526124c3816121cf565b9050919050565b60006124d46124e5565b90506124e082826127cf565b919050565b6000604051905090565b600067ffffffffffffffff82111561250a5761250961285e565b5b6125138261288d565b9050602081019050919050565b6000819050602082019050919050565b6000819050602082019050919050565b6000819050602082019050919050565b600081519050919050565b600081519050919050565b600081519050919050565b600081519050919050565b6000602082019050919050565b6000602082019050919050565b6000602082019050919050565b600082825260208201905092915050565b600082825260208201905092915050565b600082825260208201905092915050565b600082825260208201905092915050565b600082825260208201905092915050565b600081905092915050565b600061260e82612727565b915061261983612727565b9250827fffffffffffffffffffffffffffffffffffffffffffffffffffffffffffffffff0382111561264e5761264d612800565b5b828201905092915050565b600061266482612727565b915061266f83612727565b9250817fffffffffffffffffffffffffffffffffffffffffffffffffffffffffffffffff04831182151516156126a8576126a7612800565b5b828202905092915050565b60006126be82612707565b9050919050565b60008115159050919050565b6000819050919050565b60007fffffffff0000000000000000000000000000000000000000000000000000000082169050919050565b600073ffffffffffffffffffffffffffffffffffffffff82169050919050565b6000819050919050565b82818337600083830152505050565b60005b8381101561275e578082015181840152602081019050612743565b8381111561276d576000848401525b50505050565b600061277e82612727565b9150600082141561279257612791612800565b5b600182039050919050565b600060028204905060018216806127b557607f821691505b602082108114156127c9576127c861282f565b5b50919050565b6127d88261288d565b810181811067ffffffffffffffff821117156127f7576127f661285e565b5b80604052505050565b7f4e487b7100000000000000000000000000000000000000000000000000000000600052601160045260246000fd5b7f4e487b7100000000000000000000000000000000000000000000000000000000600052602260045260246000fd5b7f4e487b7100000000000000000000000000000000000000000000000000000000600052604160045260246000fd5b6000601f19601f8301169050919050565b7f537472696e67733a20686578206c656e67746820696e73756666696369656e74600082015250565b7f4f776e61626c653a206e6577206f776e657220697320746865207a65726f206160008201527f6464726573730000000000000000000000000000000000000000000000000000602082015250565b7f4f776e61626c653a2063616c6c6572206973206e6f7420746865206f776e6572600082015250565b7f444f43544f520000000000000000000000000000000000000000000000000000600082015250565b7f416363657373436f6e74726f6c3a206163636f756e7420000000000000000000600082015250565b7f50415449454e5400000000000000000000000000000000000000000000000000600082015250565b7f206973206d697373696e6720726f6c6520000000000000000000000000000000600082015250565b7f416363657373436f6e74726f6c3a2063616e206f6e6c792072656e6f756e636560008201527f20726f6c657320666f722073656c660000000000000000000000000000000000602082015250565b612a3b816126b3565b8114612a4657600080fd5b50565b612a52816126d1565b8114612a5d57600080fd5b50565b612a69816126db565b8114612a7457600080fd5b50565b612a8081612727565b8114612a8b57600080fd5b5056fea2646970667358221220ad6e6e88addb45471364e27a70aac4b38cf35ad32eecf889075efa22016e20b264736f6c63430008040033",
  "immutableReferences": {},
  "source": "pragma solidity  0.8.4;\r\n\r\nimport \"./Registration.sol\";\r\nimport \"@openzeppelin/contracts/access/Ownable.sol\";\r\nimport \"@openzeppelin/contracts/access/AccessControl.sol\";\r\n\r\ncontract Files is Ownable, AccessControl{\r\n\r\n    Registration _registration;\r\n\r\n    struct Request {\r\n        address patient;\r\n        address doctor;\r\n        uint index;\r\n    }\r\n\r\n    event RequestAdd(\r\n        address patient,\r\n        address doctor,\r\n        uint index\r\n    );\r\n\r\n     struct Files {\r\n        address patient;\r\n        string _hash;\r\n    }\r\n\r\n    event FilesAdd(\r\n        address patient,\r\n        string _hash\r\n    );\r\n\r\n    \r\n    mapping(address => address[]) historyAvailable;\r\n    mapping(address => Files[]) historyFiles;\r\n    mapping(address => Request[]) requestsOfAPatient;\r\n\r\n    constructor(address registrationA) public {\r\n        _registration = Registration(registrationA);\r\n    }\r\n\r\n    modifier onlyAdmin {\r\n      require(keccak256(abi.encodePacked((_registration.getRole(tx.origin)))) == keccak256(abi.encodePacked((\"ADMIN\"))));\r\n      _;\r\n    }\r\n    modifier onlyPatient {\r\n        require(keccak256(abi.encodePacked((_registration.getRole(tx.origin)))) == keccak256(abi.encodePacked((\"PATIENT\"))));\r\n        _;\r\n    }\r\n    modifier onlyMedicalResearcher {\r\n        require(keccak256(abi.encodePacked((_registration.getRole(tx.origin)))) == keccak256(abi.encodePacked((\"RESEARCHER\"))));\r\n        _;\r\n    }\r\n    modifier onlyDoctor {\r\n        require(keccak256(abi.encodePacked((_registration.getRole(tx.origin)))) == keccak256(abi.encodePacked((\"DOCTOR\"))));\r\n        _;\r\n    }\r\n\r\n    function addRequestToShareMedicalRecords(address _address) public onlyDoctor {\r\n        requestsOfAPatient[_address].push(Request(_address, msg.sender, requestsOfAPatient[_address].length));\r\n\r\n        emit RequestAdd(_address, msg.sender, requestsOfAPatient[_address].length);\r\n    }\r\n\r\n    function getHistoryAvailableForDoctor(address _address) public returns(address[] memory){\r\n        return historyAvailable[_address];\r\n    }\r\n\r\n    function getRequestsOfAPatient(address _address) public returns(Request[] memory){\r\n        return requestsOfAPatient[_address];\r\n    }\r\n\r\n    function acceptRequestFromDoctor(address _address, uint index, string memory _hash) public onlyPatient{\r\n        historyAvailable[_address].push(msg.sender);\r\n        \r\n        delete requestsOfAPatient[msg.sender][index];\r\n    }\r\n\r\n    function addFilesToDoctor(address _address, string memory _hash) public onlyPatient{\r\n        historyFiles[_address].push(Files(msg.sender, _hash));\r\n\r\n        emit FilesAdd(msg.sender, _hash);\r\n    }\r\n\r\n    function getFilesHistory(address _address) public returns(Files[] memory){\r\n        return historyFiles[_address];\r\n    }\r\n\r\n    function declineRequestFromDoctor(address _address, uint index) public onlyPatient{\r\n        delete requestsOfAPatient[msg.sender][index];\r\n    }\r\n}",
  "sourcePath": "C:/Licenta/Licenta/src/contracts/Files.sol",
  "compiler": {
    "name": "solc",
    "version": "0.8.4+commit.c7e474f2.Emscripten.clang"
  },
  "schemaVersion": "3.2.3",
  "updatedAt": "2022-06-26T20:15:36.268Z",
  "networkType": "ethereum",
  "devdoc": {
    "kind": "dev",
    "methods": {
      "getRoleAdmin(bytes32)": {
        "details": "Returns the admin role that controls `role`. See {grantRole} and {revokeRole}. To change a role's admin, use {_setRoleAdmin}."
      },
      "grantRole(bytes32,address)": {
        "details": "Grants `role` to `account`. If `account` had not been already granted `role`, emits a {RoleGranted} event. Requirements: - the caller must have ``role``'s admin role."
      },
      "hasRole(bytes32,address)": {
        "details": "Returns `true` if `account` has been granted `role`."
      },
      "owner()": {
        "details": "Returns the address of the current owner."
      },
      "renounceOwnership()": {
        "details": "Leaves the contract without owner. It will not be possible to call `onlyOwner` functions anymore. Can only be called by the current owner. NOTE: Renouncing ownership will leave the contract without an owner, thereby removing any functionality that is only available to the owner."
      },
      "renounceRole(bytes32,address)": {
        "details": "Revokes `role` from the calling account. Roles are often managed via {grantRole} and {revokeRole}: this function's purpose is to provide a mechanism for accounts to lose their privileges if they are compromised (such as when a trusted device is misplaced). If the calling account had been revoked `role`, emits a {RoleRevoked} event. Requirements: - the caller must be `account`."
      },
      "revokeRole(bytes32,address)": {
        "details": "Revokes `role` from `account`. If `account` had been granted `role`, emits a {RoleRevoked} event. Requirements: - the caller must have ``role``'s admin role."
      },
      "supportsInterface(bytes4)": {
        "details": "See {IERC165-supportsInterface}."
      },
      "transferOwnership(address)": {
        "details": "Transfers ownership of the contract to a new account (`newOwner`). Can only be called by the current owner."
      }
    },
    "version": 1
  },
  "userdoc": {
    "kind": "user",
    "methods": {},
    "version": 1
  }
}