{
  "contractName": "Files",
  "abi": [
    {
      "inputs": [
        {
          "internalType": "address",
          "name": "registrationA",
          "type": "address"
        }
      ],
      "stateMutability": "nonpayable",
      "type": "constructor"
    },
    {
      "anonymous": false,
      "inputs": [
        {
          "indexed": false,
          "internalType": "address",
          "name": "patient",
          "type": "address"
        },
        {
          "indexed": false,
          "internalType": "string",
          "name": "_hash",
          "type": "string"
        }
      ],
      "name": "FilesAdd",
      "type": "event"
    },
    {
      "anonymous": false,
      "inputs": [
        {
          "indexed": true,
          "internalType": "address",
          "name": "previousOwner",
          "type": "address"
        },
        {
          "indexed": true,
          "internalType": "address",
          "name": "newOwner",
          "type": "address"
        }
      ],
      "name": "OwnershipTransferred",
      "type": "event"
    },
    {
      "anonymous": false,
      "inputs": [
        {
          "indexed": false,
          "internalType": "address",
          "name": "patient",
          "type": "address"
        },
        {
          "indexed": false,
          "internalType": "address",
          "name": "doctor",
          "type": "address"
        },
        {
          "indexed": false,
          "internalType": "uint256",
          "name": "index",
          "type": "uint256"
        }
      ],
      "name": "RequestAdd",
      "type": "event"
    },
    {
      "anonymous": false,
      "inputs": [
        {
          "indexed": true,
          "internalType": "bytes32",
          "name": "role",
          "type": "bytes32"
        },
        {
          "indexed": true,
          "internalType": "bytes32",
          "name": "previousAdminRole",
          "type": "bytes32"
        },
        {
          "indexed": true,
          "internalType": "bytes32",
          "name": "newAdminRole",
          "type": "bytes32"
        }
      ],
      "name": "RoleAdminChanged",
      "type": "event"
    },
    {
      "anonymous": false,
      "inputs": [
        {
          "indexed": true,
          "internalType": "bytes32",
          "name": "role",
          "type": "bytes32"
        },
        {
          "indexed": true,
          "internalType": "address",
          "name": "account",
          "type": "address"
        },
        {
          "indexed": true,
          "internalType": "address",
          "name": "sender",
          "type": "address"
        }
      ],
      "name": "RoleGranted",
      "type": "event"
    },
    {
      "anonymous": false,
      "inputs": [
        {
          "indexed": true,
          "internalType": "bytes32",
          "name": "role",
          "type": "bytes32"
        },
        {
          "indexed": true,
          "internalType": "address",
          "name": "account",
          "type": "address"
        },
        {
          "indexed": true,
          "internalType": "address",
          "name": "sender",
          "type": "address"
        }
      ],
      "name": "RoleRevoked",
      "type": "event"
    },
    {
      "inputs": [],
      "name": "DEFAULT_ADMIN_ROLE",
      "outputs": [
        {
          "internalType": "bytes32",
          "name": "",
          "type": "bytes32"
        }
      ],
      "stateMutability": "view",
      "type": "function",
      "constant": true
    },
    {
      "inputs": [
        {
          "internalType": "bytes32",
          "name": "role",
          "type": "bytes32"
        }
      ],
      "name": "getRoleAdmin",
      "outputs": [
        {
          "internalType": "bytes32",
          "name": "",
          "type": "bytes32"
        }
      ],
      "stateMutability": "view",
      "type": "function",
      "constant": true
    },
    {
      "inputs": [
        {
          "internalType": "bytes32",
          "name": "role",
          "type": "bytes32"
        },
        {
          "internalType": "address",
          "name": "account",
          "type": "address"
        }
      ],
      "name": "grantRole",
      "outputs": [],
      "stateMutability": "nonpayable",
      "type": "function"
    },
    {
      "inputs": [
        {
          "internalType": "bytes32",
          "name": "role",
          "type": "bytes32"
        },
        {
          "internalType": "address",
          "name": "account",
          "type": "address"
        }
      ],
      "name": "hasRole",
      "outputs": [
        {
          "internalType": "bool",
          "name": "",
          "type": "bool"
        }
      ],
      "stateMutability": "view",
      "type": "function",
      "constant": true
    },
    {
      "inputs": [],
      "name": "owner",
      "outputs": [
        {
          "internalType": "address",
          "name": "",
          "type": "address"
        }
      ],
      "stateMutability": "view",
      "type": "function",
      "constant": true
    },
    {
      "inputs": [],
      "name": "renounceOwnership",
      "outputs": [],
      "stateMutability": "nonpayable",
      "type": "function"
    },
    {
      "inputs": [
        {
          "internalType": "bytes32",
          "name": "role",
          "type": "bytes32"
        },
        {
          "internalType": "address",
          "name": "account",
          "type": "address"
        }
      ],
      "name": "renounceRole",
      "outputs": [],
      "stateMutability": "nonpayable",
      "type": "function"
    },
    {
      "inputs": [
        {
          "internalType": "bytes32",
          "name": "role",
          "type": "bytes32"
        },
        {
          "internalType": "address",
          "name": "account",
          "type": "address"
        }
      ],
      "name": "revokeRole",
      "outputs": [],
      "stateMutability": "nonpayable",
      "type": "function"
    },
    {
      "inputs": [
        {
          "internalType": "bytes4",
          "name": "interfaceId",
          "type": "bytes4"
        }
      ],
      "name": "supportsInterface",
      "outputs": [
        {
          "internalType": "bool",
          "name": "",
          "type": "bool"
        }
      ],
      "stateMutability": "view",
      "type": "function",
      "constant": true
    },
    {
      "inputs": [
        {
          "internalType": "address",
          "name": "newOwner",
          "type": "address"
        }
      ],
      "name": "transferOwnership",
      "outputs": [],
      "stateMutability": "nonpayable",
      "type": "function"
    },
    {
      "inputs": [
        {
          "internalType": "address",
          "name": "_address",
          "type": "address"
        }
      ],
      "name": "addRequestToShareMedicalRecords",
      "outputs": [],
      "stateMutability": "nonpayable",
      "type": "function"
    },
    {
      "inputs": [
        {
          "internalType": "address",
          "name": "_address",
          "type": "address"
        }
      ],
      "name": "getHistoryAvailableForDoctor",
      "outputs": [
        {
          "internalType": "address[]",
          "name": "",
          "type": "address[]"
        }
      ],
      "stateMutability": "nonpayable",
      "type": "function"
    },
    {
      "inputs": [
        {
          "internalType": "address",
          "name": "_address",
          "type": "address"
        }
      ],
      "name": "getRequestsOfAPatient",
      "outputs": [
        {
          "components": [
            {
              "internalType": "address",
              "name": "patient",
              "type": "address"
            },
            {
              "internalType": "address",
              "name": "doctor",
              "type": "address"
            },
            {
              "internalType": "uint256",
              "name": "index",
              "type": "uint256"
            }
          ],
          "internalType": "struct Files.Request[]",
          "name": "",
          "type": "tuple[]"
        }
      ],
      "stateMutability": "nonpayable",
      "type": "function"
    },
    {
      "inputs": [
        {
          "internalType": "address",
          "name": "_address",
          "type": "address"
        },
        {
          "internalType": "uint256",
          "name": "index",
          "type": "uint256"
        },
        {
          "internalType": "string",
          "name": "_hash",
          "type": "string"
        }
      ],
      "name": "acceptRequestFromDoctor",
      "outputs": [],
      "stateMutability": "nonpayable",
      "type": "function"
    },
    {
      "inputs": [
        {
          "internalType": "address",
          "name": "_address",
          "type": "address"
        },
        {
          "internalType": "string",
          "name": "_hash",
          "type": "string"
        }
      ],
      "name": "addFilesToDoctor",
      "outputs": [],
      "stateMutability": "nonpayable",
      "type": "function"
    },
    {
      "inputs": [
        {
          "internalType": "address",
          "name": "_address",
          "type": "address"
        }
      ],
      "name": "getFilesHistory",
      "outputs": [
        {
          "components": [
            {
              "internalType": "address",
              "name": "patient",
              "type": "address"
            },
            {
              "internalType": "string",
              "name": "_hash",
              "type": "string"
            }
          ],
          "internalType": "struct Files.Files[]",
          "name": "",
          "type": "tuple[]"
        }
      ],
      "stateMutability": "nonpayable",
      "type": "function"
    },
    {
      "inputs": [
        {
          "internalType": "address",
          "name": "_address",
          "type": "address"
        },
        {
          "internalType": "uint256",
          "name": "index",
          "type": "uint256"
        }
      ],
      "name": "declineRequestFromDoctor",
      "outputs": [],
      "stateMutability": "nonpayable",
      "type": "function"
    }
  ],
  "bytecode": "0x60806040523480156200001157600080fd5b5060405162002cd438038062002cd4833981810160405281019062000037919062000182565b620000576200004b6200009f60201b60201c565b620000a760201b60201c565b80600260006101000a81548173ffffffffffffffffffffffffffffffffffffffff021916908373ffffffffffffffffffffffffffffffffffffffff16021790555050620001fc565b600033905090565b60008060009054906101000a900473ffffffffffffffffffffffffffffffffffffffff169050816000806101000a81548173ffffffffffffffffffffffffffffffffffffffff021916908373ffffffffffffffffffffffffffffffffffffffff1602179055508173ffffffffffffffffffffffffffffffffffffffff168173ffffffffffffffffffffffffffffffffffffffff167f8be0079c531659141344cd1fd0a4f28419497f9722a3daafe3b4186f6b6457e060405160405180910390a35050565b6000815190506200017c81620001e2565b92915050565b6000602082840312156200019557600080fd5b6000620001a5848285016200016b565b91505092915050565b6000620001bb82620001c2565b9050919050565b600073ffffffffffffffffffffffffffffffffffffffff82169050919050565b620001ed81620001ae565b8114620001f957600080fd5b50565b612ac8806200020c6000396000f3fe608060405234801561001057600080fd5b506004361061010b5760003560e01c8063715018a6116100a2578063a217fddf11610071578063a217fddf146102c8578063d547741f146102e6578063d8801a1f14610302578063f2fde38b1461031e578063f4d48c941461033a5761010b565b8063715018a6146102545780638da5cb5b1461025e57806391d148541461027c57806392e33485146102ac5761010b565b806336568abe116100de57806336568abe146101a8578063550d6097146101c4578063558eca3e146101f4578063705ac9cb146102245761010b565b806301ffc9a714610110578063248a9ca31461014057806324bf6f44146101705780632f2ff15d1461018c575b600080fd5b61012a60048036038101906101259190611e20565b610356565b60405161013791906123f6565b60405180910390f35b61015a60048036038101906101559190611dbb565b6103d0565b6040516101679190612411565b60405180910390f35b61018a60048036038101906101859190611c9b565b6103f0565b005b6101a660048036038101906101a19190611de4565b610700565b005b6101c260048036038101906101bd9190611de4565b610721565b005b6101de60048036038101906101d99190611c9b565b6107a4565b6040516101eb9190612390565b60405180910390f35b61020e60048036038101906102099190611c9b565b610871565b60405161021b91906123b2565b60405180910390f35b61023e60048036038101906102399190611c9b565b6109f7565b60405161024b91906123d4565b60405180910390f35b61025c610b4b565b005b610266610bd3565b604051610273919061230e565b60405180910390f35b61029660048036038101906102919190611de4565b610bfc565b6040516102a391906123f6565b60405180910390f35b6102c660048036038101906102c19190611d18565b610c67565b005b6102d0610e4e565b6040516102dd9190612411565b60405180910390f35b61030060048036038101906102fb9190611de4565b610e55565b005b61031c60048036038101906103179190611cc4565b610e76565b005b61033860048036038101906103339190611c9b565b6110b1565b005b610354600480360381019061034f9190611d54565b6111a9565b005b60007f7965db0b000000000000000000000000000000000000000000000000000000007bffffffffffffffffffffffffffffffffffffffffffffffffffffffff1916827bffffffffffffffffffffffffffffffffffffffffffffffffffffffff191614806103c957506103c882611431565b5b9050919050565b600060016000838152602001908152602001600020600101549050919050565b6040516020016103ff906122aa565b60405160208183030381529060405280519060200120600260009054906101000a900473ffffffffffffffffffffffffffffffffffffffff1673ffffffffffffffffffffffffffffffffffffffff166344276733326040518263ffffffff1660e01b8152600401610470919061230e565b60006040518083038186803b15801561048857600080fd5b505afa15801561049c573d6000803e3d6000fd5b505050506040513d6000823e3d601f19601f820116820180604052508101906104c59190611e49565b6040516020016104d59190612293565b60405160208183030381529060405280519060200120146104f557600080fd5b600560008273ffffffffffffffffffffffffffffffffffffffff1673ffffffffffffffffffffffffffffffffffffffff16815260200190815260200160002060405180606001604052808373ffffffffffffffffffffffffffffffffffffffff1681526020013373ffffffffffffffffffffffffffffffffffffffff168152602001600560008573ffffffffffffffffffffffffffffffffffffffff1673ffffffffffffffffffffffffffffffffffffffff16815260200190815260200160002080549050815250908060018154018082558091505060019003906000526020600020906003020160009091909190915060008201518160000160006101000a81548173ffffffffffffffffffffffffffffffffffffffff021916908373ffffffffffffffffffffffffffffffffffffffff16021790555060208201518160010160006101000a81548173ffffffffffffffffffffffffffffffffffffffff021916908373ffffffffffffffffffffffffffffffffffffffff1602179055506040820151816002015550507feaf5ea1e95678b1be41f17e32e21f6f2820f06e7bb870717f720ba58c80ddaa38133600560008573ffffffffffffffffffffffffffffffffffffffff1673ffffffffffffffffffffffffffffffffffffffff168152602001908152602001600020805490506040516106f593929190612329565b60405180910390a150565b610709826103d0565b6107128161149b565b61071c83836114af565b505050565b61072961158f565b73ffffffffffffffffffffffffffffffffffffffff168173ffffffffffffffffffffffffffffffffffffffff1614610796576040517f08c379a000000000000000000000000000000000000000000000000000000000815260040161078d906124ae565b60405180910390fd5b6107a08282611597565b5050565b6060600360008373ffffffffffffffffffffffffffffffffffffffff1673ffffffffffffffffffffffffffffffffffffffff16815260200190815260200160002080548060200260200160405190810160405280929190818152602001828054801561086557602002820191906000526020600020905b8160009054906101000a900473ffffffffffffffffffffffffffffffffffffffff1673ffffffffffffffffffffffffffffffffffffffff168152602001906001019080831161081b575b50505050509050919050565b6060600460008373ffffffffffffffffffffffffffffffffffffffff1673ffffffffffffffffffffffffffffffffffffffff168152602001908152602001600020805480602002602001604051908101604052809291908181526020016000905b828210156109ec57838290600052602060002090600202016040518060400160405290816000820160009054906101000a900473ffffffffffffffffffffffffffffffffffffffff1673ffffffffffffffffffffffffffffffffffffffff1673ffffffffffffffffffffffffffffffffffffffff16815260200160018201805461095b906127a1565b80601f0160208091040260200160405190810160405280929190818152602001828054610987906127a1565b80156109d45780601f106109a9576101008083540402835291602001916109d4565b820191906000526020600020905b8154815290600101906020018083116109b757829003601f168201915b505050505081525050815260200190600101906108d2565b505050509050919050565b6060600560008373ffffffffffffffffffffffffffffffffffffffff1673ffffffffffffffffffffffffffffffffffffffff168152602001908152602001600020805480602002602001604051908101604052809291908181526020016000905b82821015610b4057838290600052602060002090600302016040518060600160405290816000820160009054906101000a900473ffffffffffffffffffffffffffffffffffffffff1673ffffffffffffffffffffffffffffffffffffffff1673ffffffffffffffffffffffffffffffffffffffff1681526020016001820160009054906101000a900473ffffffffffffffffffffffffffffffffffffffff1673ffffffffffffffffffffffffffffffffffffffff1673ffffffffffffffffffffffffffffffffffffffff16815260200160028201548152505081526020019060010190610a58565b505050509050919050565b610b5361158f565b73ffffffffffffffffffffffffffffffffffffffff16610b71610bd3565b73ffffffffffffffffffffffffffffffffffffffff1614610bc7576040517f08c379a0000000000000000000000000000000000000000000000000000000008152600401610bbe9061248e565b60405180910390fd5b610bd16000611679565b565b60008060009054906101000a900473ffffffffffffffffffffffffffffffffffffffff16905090565b60006001600084815260200190815260200160002060000160008373ffffffffffffffffffffffffffffffffffffffff1673ffffffffffffffffffffffffffffffffffffffff16815260200190815260200160002060009054906101000a900460ff16905092915050565b604051602001610c76906122f9565b60405160208183030381529060405280519060200120600260009054906101000a900473ffffffffffffffffffffffffffffffffffffffff1673ffffffffffffffffffffffffffffffffffffffff166344276733326040518263ffffffff1660e01b8152600401610ce7919061230e565b60006040518083038186803b158015610cff57600080fd5b505afa158015610d13573d6000803e3d6000fd5b505050506040513d6000823e3d601f19601f82011682018060405250810190610d3c9190611e49565b604051602001610d4c9190612293565b6040516020818303038152906040528051906020012014610d6c57600080fd5b600560003373ffffffffffffffffffffffffffffffffffffffff1673ffffffffffffffffffffffffffffffffffffffff1681526020019081526020016000208181548110610de3577f4e487b7100000000000000000000000000000000000000000000000000000000600052603260045260246000fd5b9060005260206000209060030201600080820160006101000a81549073ffffffffffffffffffffffffffffffffffffffff02191690556001820160006101000a81549073ffffffffffffffffffffffffffffffffffffffff0219169055600282016000905550505050565b6000801b81565b610e5e826103d0565b610e678161149b565b610e718383611597565b505050565b604051602001610e85906122f9565b60405160208183030381529060405280519060200120600260009054906101000a900473ffffffffffffffffffffffffffffffffffffffff1673ffffffffffffffffffffffffffffffffffffffff166344276733326040518263ffffffff1660e01b8152600401610ef6919061230e565b60006040518083038186803b158015610f0e57600080fd5b505afa158015610f22573d6000803e3d6000fd5b505050506040513d6000823e3d601f19601f82011682018060405250810190610f4b9190611e49565b604051602001610f5b9190612293565b6040516020818303038152906040528051906020012014610f7b57600080fd5b600460008373ffffffffffffffffffffffffffffffffffffffff1673ffffffffffffffffffffffffffffffffffffffff16815260200190815260200160002060405180604001604052803373ffffffffffffffffffffffffffffffffffffffff16815260200183815250908060018154018082558091505060019003906000526020600020906002020160009091909190915060008201518160000160006101000a81548173ffffffffffffffffffffffffffffffffffffffff021916908373ffffffffffffffffffffffffffffffffffffffff1602179055506020820151816001019080519060200190611071929190611ad4565b5050507ffe3833d10ea2624036e9009fa30162c7514262e56688d210546a48503743e51233826040516110a5929190612360565b60405180910390a15050565b6110b961158f565b73ffffffffffffffffffffffffffffffffffffffff166110d7610bd3565b73ffffffffffffffffffffffffffffffffffffffff161461112d576040517f08c379a00000000000000000000000000000000000000000000000000000000081526004016111249061248e565b60405180910390fd5b600073ffffffffffffffffffffffffffffffffffffffff168173ffffffffffffffffffffffffffffffffffffffff16141561119d576040517f08c379a00000000000000000000000000000000000000000000000000000000081526004016111949061246e565b60405180910390fd5b6111a681611679565b50565b6040516020016111b8906122f9565b60405160208183030381529060405280519060200120600260009054906101000a900473ffffffffffffffffffffffffffffffffffffffff1673ffffffffffffffffffffffffffffffffffffffff166344276733326040518263ffffffff1660e01b8152600401611229919061230e565b60006040518083038186803b15801561124157600080fd5b505afa158015611255573d6000803e3d6000fd5b505050506040513d6000823e3d601f19601f8201168201806040525081019061127e9190611e49565b60405160200161128e9190612293565b60405160208183030381529060405280519060200120146112ae57600080fd5b600360008473ffffffffffffffffffffffffffffffffffffffff1673ffffffffffffffffffffffffffffffffffffffff168152602001908152602001600020339080600181540180825580915050600190039060005260206000200160009091909190916101000a81548173ffffffffffffffffffffffffffffffffffffffff021916908373ffffffffffffffffffffffffffffffffffffffff160217905550600560003373ffffffffffffffffffffffffffffffffffffffff1673ffffffffffffffffffffffffffffffffffffffff16815260200190815260200160002082815481106113c5577f4e487b7100000000000000000000000000000000000000000000000000000000600052603260045260246000fd5b9060005260206000209060030201600080820160006101000a81549073ffffffffffffffffffffffffffffffffffffffff02191690556001820160006101000a81549073ffffffffffffffffffffffffffffffffffffffff021916905560028201600090555050505050565b60007f01ffc9a7000000000000000000000000000000000000000000000000000000007bffffffffffffffffffffffffffffffffffffffffffffffffffffffff1916827bffffffffffffffffffffffffffffffffffffffffffffffffffffffff1916149050919050565b6114ac816114a761158f565b61173d565b50565b6114b98282610bfc565b61158b57600180600084815260200190815260200160002060000160008373ffffffffffffffffffffffffffffffffffffffff1673ffffffffffffffffffffffffffffffffffffffff16815260200190815260200160002060006101000a81548160ff02191690831515021790555061153061158f565b73ffffffffffffffffffffffffffffffffffffffff168173ffffffffffffffffffffffffffffffffffffffff16837f2f8788117e7eff1d82e926ec794901d17c78024a50270940304540a733656f0d60405160405180910390a45b5050565b600033905090565b6115a18282610bfc565b156116755760006001600084815260200190815260200160002060000160008373ffffffffffffffffffffffffffffffffffffffff1673ffffffffffffffffffffffffffffffffffffffff16815260200190815260200160002060006101000a81548160ff02191690831515021790555061161a61158f565b73ffffffffffffffffffffffffffffffffffffffff168173ffffffffffffffffffffffffffffffffffffffff16837ff6391f5c32d9c69d2a47ea670b442974b53935d1edc7fd64eb21e047a839171b60405160405180910390a45b5050565b60008060009054906101000a900473ffffffffffffffffffffffffffffffffffffffff169050816000806101000a81548173ffffffffffffffffffffffffffffffffffffffff021916908373ffffffffffffffffffffffffffffffffffffffff1602179055508173ffffffffffffffffffffffffffffffffffffffff168173ffffffffffffffffffffffffffffffffffffffff167f8be0079c531659141344cd1fd0a4f28419497f9722a3daafe3b4186f6b6457e060405160405180910390a35050565b6117478282610bfc565b6117d65761176c8173ffffffffffffffffffffffffffffffffffffffff1660146117da565b61177a8360001c60206117da565b60405160200161178b9291906122bf565b6040516020818303038152906040526040517f08c379a00000000000000000000000000000000000000000000000000000000081526004016117cd919061242c565b60405180910390fd5b5050565b6060600060028360026117ed919061265d565b6117f79190612607565b67ffffffffffffffff811115611836577f4e487b7100000000000000000000000000000000000000000000000000000000600052604160045260246000fd5b6040519080825280601f01601f1916602001820160405280156118685781602001600182028036833780820191505090505b5090507f3000000000000000000000000000000000000000000000000000000000000000816000815181106118c6577f4e487b7100000000000000000000000000000000000000000000000000000000600052603260045260246000fd5b60200101907effffffffffffffffffffffffffffffffffffffffffffffffffffffffffffff1916908160001a9053507f780000000000000000000000000000000000000000000000000000000000000081600181518110611950577f4e487b7100000000000000000000000000000000000000000000000000000000600052603260045260246000fd5b60200101907effffffffffffffffffffffffffffffffffffffffffffffffffffffffffffff1916908160001a90535060006001846002611990919061265d565b61199a9190612607565b90505b6001811115611a86577f3031323334353637383961626364656600000000000000000000000000000000600f861660108110611a02577f4e487b7100000000000000000000000000000000000000000000000000000000600052603260045260246000fd5b1a60f81b828281518110611a3f577f4e487b7100000000000000000000000000000000000000000000000000000000600052603260045260246000fd5b60200101907effffffffffffffffffffffffffffffffffffffffffffffffffffffffffffff1916908160001a905350600485901c945080611a7f90612777565b905061199d565b5060008414611aca576040517f08c379a0000000000000000000000000000000000000000000000000000000008152600401611ac19061244e565b60405180910390fd5b8091505092915050565b828054611ae0906127a1565b90600052602060002090601f016020900481019282611b025760008555611b49565b82601f10611b1b57805160ff1916838001178555611b49565b82800160010185558215611b49579182015b82811115611b48578251825591602001919060010190611b2d565b5b509050611b569190611b5a565b5090565b5b80821115611b73576000816000905550600101611b5b565b5090565b6000611b8a611b85846124f3565b6124ce565b905082815260208101848484011115611ba257600080fd5b611bad848285612735565b509392505050565b6000611bc8611bc3846124f3565b6124ce565b905082815260208101848484011115611be057600080fd5b611beb848285612744565b509392505050565b600081359050611c0281612a36565b92915050565b600081359050611c1781612a4d565b92915050565b600081359050611c2c81612a64565b92915050565b600082601f830112611c4357600080fd5b8135611c53848260208601611b77565b91505092915050565b600082601f830112611c6d57600080fd5b8151611c7d848260208601611bb5565b91505092915050565b600081359050611c9581612a7b565b92915050565b600060208284031215611cad57600080fd5b6000611cbb84828501611bf3565b91505092915050565b60008060408385031215611cd757600080fd5b6000611ce585828601611bf3565b925050602083013567ffffffffffffffff811115611d0257600080fd5b611d0e85828601611c32565b9150509250929050565b60008060408385031215611d2b57600080fd5b6000611d3985828601611bf3565b9250506020611d4a85828601611c86565b9150509250929050565b600080600060608486031215611d6957600080fd5b6000611d7786828701611bf3565b9350506020611d8886828701611c86565b925050604084013567ffffffffffffffff811115611da557600080fd5b611db186828701611c32565b9150509250925092565b600060208284031215611dcd57600080fd5b6000611ddb84828501611c08565b91505092915050565b60008060408385031215611df757600080fd5b6000611e0585828601611c08565b9250506020611e1685828601611bf3565b9150509250929050565b600060208284031215611e3257600080fd5b6000611e4084828501611c1d565b91505092915050565b600060208284031215611e5b57600080fd5b600082015167ffffffffffffffff811115611e7557600080fd5b611e8184828501611c5c565b91505092915050565b6000611e968383611ece565b60208301905092915050565b6000611eae83836121f6565b905092915050565b6000611ec28383612233565b60608301905092915050565b611ed7816126b7565b82525050565b611ee6816126b7565b82525050565b6000611ef782612554565b611f0181856125a7565b9350611f0c83612524565b8060005b83811015611f3d578151611f248882611e8a565b9750611f2f83612580565b925050600181019050611f10565b5085935050505092915050565b6000611f558261255f565b611f5f81856125b8565b935083602082028501611f7185612534565b8060005b85811015611fad5784840389528151611f8e8582611ea2565b9450611f998361258d565b925060208a01995050600181019050611f75565b50829750879550505050505092915050565b6000611fca8261256a565b611fd481856125c9565b9350611fdf83612544565b8060005b83811015612010578151611ff78882611eb6565b97506120028361259a565b925050600181019050611fe3565b5085935050505092915050565b612026816126c9565b82525050565b612035816126d5565b82525050565b600061204682612575565b61205081856125da565b9350612060818560208601612744565b61206981612891565b840191505092915050565b600061207f82612575565b61208981856125eb565b9350612099818560208601612744565b6120a281612891565b840191505092915050565b60006120b882612575565b6120c281856125fc565b93506120d2818560208601612744565b80840191505092915050565b60006120eb6020836125eb565b91506120f6826128a2565b602082019050919050565b600061210e6026836125eb565b9150612119826128cb565b604082019050919050565b60006121316020836125eb565b915061213c8261291a565b602082019050919050565b60006121546006836125fc565b915061215f82612943565b600682019050919050565b60006121776017836125fc565b91506121828261296c565b601782019050919050565b600061219a6007836125fc565b91506121a582612995565b600782019050919050565b60006121bd6011836125fc565b91506121c8826129be565b601182019050919050565b60006121e0602f836125eb565b91506121eb826129e7565b604082019050919050565b600060408301600083015161220e6000860182611ece565b5060208301518482036020860152612226828261203b565b9150508091505092915050565b6060820160008201516122496000850182611ece565b50602082015161225c6020850182611ece565b50604082015161226f6040850182612275565b50505050565b61227e8161272b565b82525050565b61228d8161272b565b82525050565b600061229f82846120ad565b915081905092915050565b60006122b582612147565b9150819050919050565b60006122ca8261216a565b91506122d682856120ad565b91506122e1826121b0565b91506122ed82846120ad565b91508190509392505050565b60006123048261218d565b9150819050919050565b60006020820190506123236000830184611edd565b92915050565b600060608201905061233e6000830186611edd565b61234b6020830185611edd565b6123586040830184612284565b949350505050565b60006040820190506123756000830185611edd565b81810360208301526123878184612074565b90509392505050565b600060208201905081810360008301526123aa8184611eec565b905092915050565b600060208201905081810360008301526123cc8184611f4a565b905092915050565b600060208201905081810360008301526123ee8184611fbf565b905092915050565b600060208201905061240b600083018461201d565b92915050565b6000602082019050612426600083018461202c565b92915050565b600060208201905081810360008301526124468184612074565b905092915050565b60006020820190508181036000830152612467816120de565b9050919050565b6000602082019050818103600083015261248781612101565b9050919050565b600060208201905081810360008301526124a781612124565b9050919050565b600060208201905081810360008301526124c7816121d3565b9050919050565b60006124d86124e9565b90506124e482826127d3565b919050565b6000604051905090565b600067ffffffffffffffff82111561250e5761250d612862565b5b61251782612891565b9050602081019050919050565b6000819050602082019050919050565b6000819050602082019050919050565b6000819050602082019050919050565b600081519050919050565b600081519050919050565b600081519050919050565b600081519050919050565b6000602082019050919050565b6000602082019050919050565b6000602082019050919050565b600082825260208201905092915050565b600082825260208201905092915050565b600082825260208201905092915050565b600082825260208201905092915050565b600082825260208201905092915050565b600081905092915050565b60006126128261272b565b915061261d8361272b565b9250827fffffffffffffffffffffffffffffffffffffffffffffffffffffffffffffffff0382111561265257612651612804565b5b828201905092915050565b60006126688261272b565b91506126738361272b565b9250817fffffffffffffffffffffffffffffffffffffffffffffffffffffffffffffffff04831182151516156126ac576126ab612804565b5b828202905092915050565b60006126c28261270b565b9050919050565b60008115159050919050565b6000819050919050565b60007fffffffff0000000000000000000000000000000000000000000000000000000082169050919050565b600073ffffffffffffffffffffffffffffffffffffffff82169050919050565b6000819050919050565b82818337600083830152505050565b60005b83811015612762578082015181840152602081019050612747565b83811115612771576000848401525b50505050565b60006127828261272b565b9150600082141561279657612795612804565b5b600182039050919050565b600060028204905060018216806127b957607f821691505b602082108114156127cd576127cc612833565b5b50919050565b6127dc82612891565b810181811067ffffffffffffffff821117156127fb576127fa612862565b5b80604052505050565b7f4e487b7100000000000000000000000000000000000000000000000000000000600052601160045260246000fd5b7f4e487b7100000000000000000000000000000000000000000000000000000000600052602260045260246000fd5b7f4e487b7100000000000000000000000000000000000000000000000000000000600052604160045260246000fd5b6000601f19601f8301169050919050565b7f537472696e67733a20686578206c656e67746820696e73756666696369656e74600082015250565b7f4f776e61626c653a206e6577206f776e657220697320746865207a65726f206160008201527f6464726573730000000000000000000000000000000000000000000000000000602082015250565b7f4f776e61626c653a2063616c6c6572206973206e6f7420746865206f776e6572600082015250565b7f444f43544f520000000000000000000000000000000000000000000000000000600082015250565b7f416363657373436f6e74726f6c3a206163636f756e7420000000000000000000600082015250565b7f50415449454e5400000000000000000000000000000000000000000000000000600082015250565b7f206973206d697373696e6720726f6c6520000000000000000000000000000000600082015250565b7f416363657373436f6e74726f6c3a2063616e206f6e6c792072656e6f756e636560008201527f20726f6c657320666f722073656c660000000000000000000000000000000000602082015250565b612a3f816126b7565b8114612a4a57600080fd5b50565b612a56816126d5565b8114612a6157600080fd5b50565b612a6d816126df565b8114612a7857600080fd5b50565b612a848161272b565b8114612a8f57600080fd5b5056fea26469706673582212206b0258c955487410ebc1d33d4b13b17af87d13f35771109e6971589086915f0764736f6c63430008040033",
  "immutableReferences": {},
  "source": "pragma solidity  0.8.4;\r\n\r\nimport \"./Registration.sol\";\r\nimport \"@openzeppelin/contracts/access/Ownable.sol\";\r\nimport \"@openzeppelin/contracts/access/AccessControl.sol\";\r\n\r\ncontract Files is Ownable, AccessControl{\r\n\r\n    Registration _registration;\r\n\r\n    struct Request {\r\n        address patient;\r\n        address doctor;\r\n        uint index;\r\n    }\r\n\r\n    event RequestAdd(\r\n        address patient,\r\n        address doctor,\r\n        uint index\r\n    );\r\n\r\n     struct Files {\r\n        address patient;\r\n        string _hash;\r\n    }\r\n\r\n    event FilesAdd(\r\n        address patient,\r\n        string _hash\r\n    );\r\n\r\n    \r\n    mapping(address => address[]) historyAvailable;\r\n    mapping(address => Files[]) historyFiles;\r\n    mapping(address => Request[]) requestsOfAPatient;\r\n\r\n    constructor(address registrationA) public {\r\n        _registration = Registration(registrationA);\r\n    }\r\n\r\n    modifier onlyPatient {\r\n        require(keccak256(abi.encodePacked((_registration.getRole(tx.origin)))) == keccak256(abi.encodePacked((\"PATIENT\"))));\r\n        _;\r\n    }\r\n    modifier onlyDoctor {\r\n        require(keccak256(abi.encodePacked((_registration.getRole(tx.origin)))) == keccak256(abi.encodePacked((\"DOCTOR\"))));\r\n        _;\r\n    }\r\n\r\n    function addRequestToShareMedicalRecords(address _address) public onlyDoctor {\r\n        requestsOfAPatient[_address].push(Request(_address, msg.sender, requestsOfAPatient[_address].length));\r\n\r\n        emit RequestAdd(_address, msg.sender, requestsOfAPatient[_address].length);\r\n    }\r\n\r\n    function getHistoryAvailableForDoctor(address _address) public returns(address[] memory){\r\n        return historyAvailable[_address];\r\n    }\r\n\r\n    function getRequestsOfAPatient(address _address) public returns(Request[] memory){\r\n        return requestsOfAPatient[_address];\r\n    }\r\n\r\n    function acceptRequestFromDoctor(address _address, uint index, string memory _hash) public onlyPatient{\r\n        historyAvailable[_address].push(msg.sender);\r\n        \r\n        delete requestsOfAPatient[msg.sender][index];\r\n    }\r\n\r\n    function addFilesToDoctor(address _address, string memory _hash) public onlyPatient{\r\n        historyFiles[_address].push(Files(msg.sender, _hash));\r\n\r\n        emit FilesAdd(msg.sender, _hash);\r\n    }\r\n\r\n    function getFilesHistory(address _address) public returns(Files[] memory){\r\n        return historyFiles[_address];\r\n    }\r\n\r\n    function declineRequestFromDoctor(address _address, uint index) public onlyPatient{\r\n        delete requestsOfAPatient[msg.sender][index];\r\n    }\r\n}",
  "sourcePath": "C:/Licenta/Licenta/src/contracts/Files.sol",
  "compiler": {
    "name": "solc",
    "version": "0.8.4+commit.c7e474f2.Emscripten.clang"
  },
  "schemaVersion": "3.2.3",
  "updatedAt": "2022-06-30T17:30:30.270Z",
  "networkType": "ethereum",
  "devdoc": {
    "kind": "dev",
    "methods": {
      "getRoleAdmin(bytes32)": {
        "details": "Returns the admin role that controls `role`. See {grantRole} and {revokeRole}. To change a role's admin, use {_setRoleAdmin}."
      },
      "grantRole(bytes32,address)": {
        "details": "Grants `role` to `account`. If `account` had not been already granted `role`, emits a {RoleGranted} event. Requirements: - the caller must have ``role``'s admin role."
      },
      "hasRole(bytes32,address)": {
        "details": "Returns `true` if `account` has been granted `role`."
      },
      "owner()": {
        "details": "Returns the address of the current owner."
      },
      "renounceOwnership()": {
        "details": "Leaves the contract without owner. It will not be possible to call `onlyOwner` functions anymore. Can only be called by the current owner. NOTE: Renouncing ownership will leave the contract without an owner, thereby removing any functionality that is only available to the owner."
      },
      "renounceRole(bytes32,address)": {
        "details": "Revokes `role` from the calling account. Roles are often managed via {grantRole} and {revokeRole}: this function's purpose is to provide a mechanism for accounts to lose their privileges if they are compromised (such as when a trusted device is misplaced). If the calling account had been revoked `role`, emits a {RoleRevoked} event. Requirements: - the caller must be `account`."
      },
      "revokeRole(bytes32,address)": {
        "details": "Revokes `role` from `account`. If `account` had been granted `role`, emits a {RoleRevoked} event. Requirements: - the caller must have ``role``'s admin role."
      },
      "supportsInterface(bytes4)": {
        "details": "See {IERC165-supportsInterface}."
      },
      "transferOwnership(address)": {
        "details": "Transfers ownership of the contract to a new account (`newOwner`). Can only be called by the current owner."
      }
    },
    "version": 1
  },
  "userdoc": {
    "kind": "user",
    "methods": {},
    "version": 1
  }
}