{
  "contractName": "Files",
  "abi": [
    {
      "inputs": [
        {
          "internalType": "address",
          "name": "filesA",
          "type": "address"
        }
      ],
      "stateMutability": "nonpayable",
      "type": "constructor"
    },
    {
      "anonymous": false,
      "inputs": [
        {
          "indexed": true,
          "internalType": "address",
          "name": "owner",
          "type": "address"
        },
        {
          "indexed": true,
          "internalType": "address",
          "name": "approved",
          "type": "address"
        },
        {
          "indexed": true,
          "internalType": "uint256",
          "name": "tokenId",
          "type": "uint256"
        }
      ],
      "name": "Approval",
      "type": "event"
    },
    {
      "anonymous": false,
      "inputs": [
        {
          "indexed": true,
          "internalType": "address",
          "name": "owner",
          "type": "address"
        },
        {
          "indexed": true,
          "internalType": "address",
          "name": "operator",
          "type": "address"
        },
        {
          "indexed": false,
          "internalType": "bool",
          "name": "approved",
          "type": "bool"
        }
      ],
      "name": "ApprovalForAll",
      "type": "event"
    },
    {
      "anonymous": false,
      "inputs": [
        {
          "indexed": true,
          "internalType": "address",
          "name": "from",
          "type": "address"
        },
        {
          "indexed": true,
          "internalType": "address",
          "name": "to",
          "type": "address"
        },
        {
          "indexed": true,
          "internalType": "uint256",
          "name": "tokenId",
          "type": "uint256"
        }
      ],
      "name": "Transfer",
      "type": "event"
    },
    {
      "inputs": [
        {
          "internalType": "address",
          "name": "to",
          "type": "address"
        },
        {
          "internalType": "uint256",
          "name": "tokenId",
          "type": "uint256"
        }
      ],
      "name": "approve",
      "outputs": [],
      "stateMutability": "nonpayable",
      "type": "function"
    },
    {
      "inputs": [
        {
          "internalType": "address",
          "name": "owner",
          "type": "address"
        }
      ],
      "name": "balanceOf",
      "outputs": [
        {
          "internalType": "uint256",
          "name": "",
          "type": "uint256"
        }
      ],
      "stateMutability": "view",
      "type": "function",
      "constant": true
    },
    {
      "inputs": [
        {
          "internalType": "uint256",
          "name": "tokenId",
          "type": "uint256"
        }
      ],
      "name": "getApproved",
      "outputs": [
        {
          "internalType": "address",
          "name": "",
          "type": "address"
        }
      ],
      "stateMutability": "view",
      "type": "function",
      "constant": true
    },
    {
      "inputs": [
        {
          "internalType": "address",
          "name": "owner",
          "type": "address"
        },
        {
          "internalType": "address",
          "name": "operator",
          "type": "address"
        }
      ],
      "name": "isApprovedForAll",
      "outputs": [
        {
          "internalType": "bool",
          "name": "",
          "type": "bool"
        }
      ],
      "stateMutability": "view",
      "type": "function",
      "constant": true
    },
    {
      "inputs": [],
      "name": "name",
      "outputs": [
        {
          "internalType": "string",
          "name": "",
          "type": "string"
        }
      ],
      "stateMutability": "view",
      "type": "function",
      "constant": true
    },
    {
      "inputs": [
        {
          "internalType": "uint256",
          "name": "tokenId",
          "type": "uint256"
        }
      ],
      "name": "ownerOf",
      "outputs": [
        {
          "internalType": "address",
          "name": "",
          "type": "address"
        }
      ],
      "stateMutability": "view",
      "type": "function",
      "constant": true
    },
    {
      "inputs": [
        {
          "internalType": "address",
          "name": "from",
          "type": "address"
        },
        {
          "internalType": "address",
          "name": "to",
          "type": "address"
        },
        {
          "internalType": "uint256",
          "name": "tokenId",
          "type": "uint256"
        }
      ],
      "name": "safeTransferFrom",
      "outputs": [],
      "stateMutability": "nonpayable",
      "type": "function"
    },
    {
      "inputs": [
        {
          "internalType": "address",
          "name": "from",
          "type": "address"
        },
        {
          "internalType": "address",
          "name": "to",
          "type": "address"
        },
        {
          "internalType": "uint256",
          "name": "tokenId",
          "type": "uint256"
        },
        {
          "internalType": "bytes",
          "name": "_data",
          "type": "bytes"
        }
      ],
      "name": "safeTransferFrom",
      "outputs": [],
      "stateMutability": "nonpayable",
      "type": "function"
    },
    {
      "inputs": [
        {
          "internalType": "address",
          "name": "operator",
          "type": "address"
        },
        {
          "internalType": "bool",
          "name": "approved",
          "type": "bool"
        }
      ],
      "name": "setApprovalForAll",
      "outputs": [],
      "stateMutability": "nonpayable",
      "type": "function"
    },
    {
      "inputs": [
        {
          "internalType": "bytes4",
          "name": "interfaceId",
          "type": "bytes4"
        }
      ],
      "name": "supportsInterface",
      "outputs": [
        {
          "internalType": "bool",
          "name": "",
          "type": "bool"
        }
      ],
      "stateMutability": "view",
      "type": "function",
      "constant": true
    },
    {
      "inputs": [],
      "name": "symbol",
      "outputs": [
        {
          "internalType": "string",
          "name": "",
          "type": "string"
        }
      ],
      "stateMutability": "view",
      "type": "function",
      "constant": true
    },
    {
      "inputs": [],
      "name": "tokenCount",
      "outputs": [
        {
          "internalType": "uint256",
          "name": "",
          "type": "uint256"
        }
      ],
      "stateMutability": "view",
      "type": "function",
      "constant": true
    },
    {
      "inputs": [
        {
          "internalType": "uint256",
          "name": "tokenId",
          "type": "uint256"
        }
      ],
      "name": "tokenURI",
      "outputs": [
        {
          "internalType": "string",
          "name": "",
          "type": "string"
        }
      ],
      "stateMutability": "view",
      "type": "function",
      "constant": true
    },
    {
      "inputs": [
        {
          "internalType": "address",
          "name": "from",
          "type": "address"
        },
        {
          "internalType": "address",
          "name": "to",
          "type": "address"
        },
        {
          "internalType": "uint256",
          "name": "tokenId",
          "type": "uint256"
        }
      ],
      "name": "transferFrom",
      "outputs": [],
      "stateMutability": "nonpayable",
      "type": "function"
    },
    {
      "inputs": [
        {
          "internalType": "string",
          "name": "_tokenURI",
          "type": "string"
        },
        {
          "internalType": "address",
          "name": "_to",
          "type": "address"
        }
      ],
      "name": "mint",
      "outputs": [
        {
          "internalType": "uint256",
          "name": "",
          "type": "uint256"
        }
      ],
      "stateMutability": "nonpayable",
      "type": "function"
    },
    {
      "inputs": [],
      "name": "getTokenCount",
      "outputs": [
        {
          "internalType": "uint256",
          "name": "",
          "type": "uint256"
        }
      ],
      "stateMutability": "nonpayable",
      "type": "function"
    },
    {
      "inputs": [
        {
          "internalType": "address",
          "name": "_to",
          "type": "address"
        },
        {
          "internalType": "uint256",
          "name": "tokenId",
          "type": "uint256"
        }
      ],
      "name": "transferFile",
      "outputs": [],
      "stateMutability": "nonpayable",
      "type": "function"
    }
  ],
  "bytecode": "0x60806040523480156200001157600080fd5b506040516200305c3803806200305c833981810160405281019062000037919062000227565b6040518060400160405280600b81526020017f444865616c7468636172650000000000000000000000000000000000000000008152506040518060400160405280600381526020017f44484300000000000000000000000000000000000000000000000000000000008152508160009080519060200190620000bb92919062000160565b508060019080519060200190620000d492919062000160565b50505080600860006101000a81548173ffffffffffffffffffffffffffffffffffffffff021916908373ffffffffffffffffffffffffffffffffffffffff16021790555080600960006101000a81548173ffffffffffffffffffffffffffffffffffffffff021916908373ffffffffffffffffffffffffffffffffffffffff1602179055505062000306565b8280546200016e9062000287565b90600052602060002090601f016020900481019282620001925760008555620001de565b82601f10620001ad57805160ff1916838001178555620001de565b82800160010185558215620001de579182015b82811115620001dd578251825591602001919060010190620001c0565b5b509050620001ed9190620001f1565b5090565b5b808211156200020c576000816000905550600101620001f2565b5090565b6000815190506200022181620002ec565b92915050565b6000602082840312156200023a57600080fd5b60006200024a8482850162000210565b91505092915050565b6000620002608262000267565b9050919050565b600073ffffffffffffffffffffffffffffffffffffffff82169050919050565b60006002820490506001821680620002a057607f821691505b60208210811415620002b757620002b6620002bd565b5b50919050565b7f4e487b7100000000000000000000000000000000000000000000000000000000600052602260045260246000fd5b620002f78162000253565b81146200030357600080fd5b50565b612d4680620003166000396000f3fe608060405234801561001057600080fd5b506004361061010b5760003560e01c806370a08231116100a2578063a22cb46511610071578063a22cb465146102cc578063b88d4fde146102e8578063c87b56dd14610304578063e492d4e914610334578063e985e9c5146103505761010b565b806370a082311461024257806378a895671461027257806395d89b41146102905780639f181b5e146102ae5761010b565b80631c351a9d116100de5780631c351a9d146101aa57806323b872dd146101da57806342842e0e146101f65780636352211e146102125761010b565b806301ffc9a71461011057806306fdde0314610140578063081812fc1461015e578063095ea7b31461018e575b600080fd5b61012a60048036038101906101259190611d76565b610380565b60405161013791906121d0565b60405180910390f35b610148610462565b60405161015591906121eb565b60405180910390f35b61017860048036038101906101739190611e1c565b6104f4565b6040516101859190612169565b60405180910390f35b6101a860048036038101906101a39190611d3a565b610579565b005b6101c460048036038101906101bf9190611dc8565b610691565b6040516101d1919061240d565b60405180910390f35b6101f460048036038101906101ef9190611c34565b61075f565b005b610210600480360381019061020b9190611c34565b6107bf565b005b61022c60048036038101906102279190611e1c565b6107df565b6040516102399190612169565b60405180910390f35b61025c60048036038101906102579190611bcf565b610891565b604051610269919061240d565b60405180910390f35b61027a610949565b604051610287919061240d565b60405180910390f35b610298610953565b6040516102a591906121eb565b60405180910390f35b6102b66109e5565b6040516102c3919061240d565b60405180910390f35b6102e660048036038101906102e19190611cfe565b6109eb565b005b61030260048036038101906102fd9190611c83565b610a01565b005b61031e60048036038101906103199190611e1c565b610a63565b60405161032b91906121eb565b60405180910390f35b61034e60048036038101906103499190611d3a565b610bb5565b005b61036a60048036038101906103659190611bf8565b610bc4565b60405161037791906121d0565b60405180910390f35b60007f80ac58cd000000000000000000000000000000000000000000000000000000007bffffffffffffffffffffffffffffffffffffffffffffffffffffffff1916827bffffffffffffffffffffffffffffffffffffffffffffffffffffffff1916148061044b57507f5b5e139f000000000000000000000000000000000000000000000000000000007bffffffffffffffffffffffffffffffffffffffffffffffffffffffff1916827bffffffffffffffffffffffffffffffffffffffffffffffffffffffff1916145b8061045b575061045a82610c58565b5b9050919050565b6060600080546104719061268c565b80601f016020809104026020016040519081016040528092919081815260200182805461049d9061268c565b80156104ea5780601f106104bf576101008083540402835291602001916104ea565b820191906000526020600020905b8154815290600101906020018083116104cd57829003601f168201915b5050505050905090565b60006104ff82610cc2565b61053e576040517f08c379a00000000000000000000000000000000000000000000000000000000081526004016105359061238d565b60405180910390fd5b6004600083815260200190815260200160002060009054906101000a900473ffffffffffffffffffffffffffffffffffffffff169050919050565b6000610584826107df565b90508073ffffffffffffffffffffffffffffffffffffffff168373ffffffffffffffffffffffffffffffffffffffff1614156105f5576040517f08c379a00000000000000000000000000000000000000000000000000000000081526004016105ec906123cd565b60405180910390fd5b8073ffffffffffffffffffffffffffffffffffffffff16610614610d2e565b73ffffffffffffffffffffffffffffffffffffffff16148061064357506106428161063d610d2e565b610bc4565b5b610682576040517f08c379a0000000000000000000000000000000000000000000000000000000008152600401610679906122cd565b60405180910390fd5b61068c8383610d36565b505050565b6000600760008154809291906106a6906126ef565b91905055506106b733600754610def565b6106c360075484610e0d565b600860009054906101000a900473ffffffffffffffffffffffffffffffffffffffff1673ffffffffffffffffffffffffffffffffffffffff16630f80e271600754846040518363ffffffff1660e01b8152600401610722929190612428565b600060405180830381600087803b15801561073c57600080fd5b505af1158015610750573d6000803e3d6000fd5b50505050600754905092915050565b61077061076a610d2e565b82610e81565b6107af576040517f08c379a00000000000000000000000000000000000000000000000000000000081526004016107a6906123ed565b60405180910390fd5b6107ba838383610f5f565b505050565b6107da83838360405180602001604052806000815250610a01565b505050565b6000806002600084815260200190815260200160002060009054906101000a900473ffffffffffffffffffffffffffffffffffffffff169050600073ffffffffffffffffffffffffffffffffffffffff168173ffffffffffffffffffffffffffffffffffffffff161415610888576040517f08c379a000000000000000000000000000000000000000000000000000000000815260040161087f9061230d565b60405180910390fd5b80915050919050565b60008073ffffffffffffffffffffffffffffffffffffffff168273ffffffffffffffffffffffffffffffffffffffff161415610902576040517f08c379a00000000000000000000000000000000000000000000000000000000081526004016108f9906122ed565b60405180910390fd5b600360008373ffffffffffffffffffffffffffffffffffffffff1673ffffffffffffffffffffffffffffffffffffffff168152602001908152602001600020549050919050565b6000600754905090565b6060600180546109629061268c565b80601f016020809104026020016040519081016040528092919081815260200182805461098e9061268c565b80156109db5780601f106109b0576101008083540402835291602001916109db565b820191906000526020600020905b8154815290600101906020018083116109be57829003601f168201915b5050505050905090565b60075481565b6109fd6109f6610d2e565b83836111c6565b5050565b610a12610a0c610d2e565b83610e81565b610a51576040517f08c379a0000000000000000000000000000000000000000000000000000000008152600401610a48906123ed565b60405180910390fd5b610a5d84848484611333565b50505050565b6060610a6e82610cc2565b610aad576040517f08c379a0000000000000000000000000000000000000000000000000000000008152600401610aa49061236d565b60405180910390fd5b6000600660008481526020019081526020016000208054610acd9061268c565b80601f0160208091040260200160405190810160405280929190818152602001828054610af99061268c565b8015610b465780601f10610b1b57610100808354040283529160200191610b46565b820191906000526020600020905b815481529060010190602001808311610b2957829003601f168201915b505050505090506000610b5761138f565b9050600081511415610b6d578192505050610bb0565b600082511115610ba2578082604051602001610b8a929190612145565b60405160208183030381529060405292505050610bb0565b610bab846113a6565b925050505b919050565b610bc030838361075f565b5050565b6000600560008473ffffffffffffffffffffffffffffffffffffffff1673ffffffffffffffffffffffffffffffffffffffff16815260200190815260200160002060008373ffffffffffffffffffffffffffffffffffffffff1673ffffffffffffffffffffffffffffffffffffffff16815260200190815260200160002060009054906101000a900460ff16905092915050565b60007f01ffc9a7000000000000000000000000000000000000000000000000000000007bffffffffffffffffffffffffffffffffffffffffffffffffffffffff1916827bffffffffffffffffffffffffffffffffffffffffffffffffffffffff1916149050919050565b60008073ffffffffffffffffffffffffffffffffffffffff166002600084815260200190815260200160002060009054906101000a900473ffffffffffffffffffffffffffffffffffffffff1673ffffffffffffffffffffffffffffffffffffffff1614159050919050565b600033905090565b816004600083815260200190815260200160002060006101000a81548173ffffffffffffffffffffffffffffffffffffffff021916908373ffffffffffffffffffffffffffffffffffffffff160217905550808273ffffffffffffffffffffffffffffffffffffffff16610da9836107df565b73ffffffffffffffffffffffffffffffffffffffff167f8c5be1e5ebec7d5bd14f71427d1e84f3dd0314c0f7b2291e5b200ac8c7c3b92560405160405180910390a45050565b610e0982826040518060200160405280600081525061144d565b5050565b610e1682610cc2565b610e55576040517f08c379a0000000000000000000000000000000000000000000000000000000008152600401610e4c9061232d565b60405180910390fd5b80600660008481526020019081526020016000209080519060200190610e7c9291906119f3565b505050565b6000610e8c82610cc2565b610ecb576040517f08c379a0000000000000000000000000000000000000000000000000000000008152600401610ec2906122ad565b60405180910390fd5b6000610ed6836107df565b90508073ffffffffffffffffffffffffffffffffffffffff168473ffffffffffffffffffffffffffffffffffffffff161480610f4557508373ffffffffffffffffffffffffffffffffffffffff16610f2d846104f4565b73ffffffffffffffffffffffffffffffffffffffff16145b80610f565750610f558185610bc4565b5b91505092915050565b8273ffffffffffffffffffffffffffffffffffffffff16610f7f826107df565b73ffffffffffffffffffffffffffffffffffffffff1614610fd5576040517f08c379a0000000000000000000000000000000000000000000000000000000008152600401610fcc9061222d565b60405180910390fd5b600073ffffffffffffffffffffffffffffffffffffffff168273ffffffffffffffffffffffffffffffffffffffff161415611045576040517f08c379a000000000000000000000000000000000000000000000000000000000815260040161103c9061226d565b60405180910390fd5b6110508383836114a8565b61105b600082610d36565b6001600360008573ffffffffffffffffffffffffffffffffffffffff1673ffffffffffffffffffffffffffffffffffffffff16815260200190815260200160002060008282546110ab91906125a2565b925050819055506001600360008473ffffffffffffffffffffffffffffffffffffffff1673ffffffffffffffffffffffffffffffffffffffff1681526020019081526020016000206000828254611102919061251b565b92505081905550816002600083815260200190815260200160002060006101000a81548173ffffffffffffffffffffffffffffffffffffffff021916908373ffffffffffffffffffffffffffffffffffffffff160217905550808273ffffffffffffffffffffffffffffffffffffffff168473ffffffffffffffffffffffffffffffffffffffff167fddf252ad1be2c89b69c2b068fc378daa952ba7f163c4a11628f55a4df523b3ef60405160405180910390a46111c18383836114ad565b505050565b8173ffffffffffffffffffffffffffffffffffffffff168373ffffffffffffffffffffffffffffffffffffffff161415611235576040517f08c379a000000000000000000000000000000000000000000000000000000000815260040161122c9061228d565b60405180910390fd5b80600560008573ffffffffffffffffffffffffffffffffffffffff1673ffffffffffffffffffffffffffffffffffffffff16815260200190815260200160002060008473ffffffffffffffffffffffffffffffffffffffff1673ffffffffffffffffffffffffffffffffffffffff16815260200190815260200160002060006101000a81548160ff0219169083151502179055508173ffffffffffffffffffffffffffffffffffffffff168373ffffffffffffffffffffffffffffffffffffffff167f17307eab39ab6107e8899845ad3d59bd9653f200f220920489ca2b5937696c318360405161132691906121d0565b60405180910390a3505050565b61133e848484610f5f565b61134a848484846114b2565b611389576040517f08c379a00000000000000000000000000000000000000000000000000000000081526004016113809061220d565b60405180910390fd5b50505050565b606060405180602001604052806000815250905090565b60606113b182610cc2565b6113f0576040517f08c379a00000000000000000000000000000000000000000000000000000000081526004016113e7906123ad565b60405180910390fd5b60006113fa61138f565b9050600081511161141a5760405180602001604052806000815250611445565b8061142484611649565b604051602001611435929190612145565b6040516020818303038152906040525b915050919050565b61145783836117f6565b61146460008484846114b2565b6114a3576040517f08c379a000000000000000000000000000000000000000000000000000000000815260040161149a9061220d565b60405180910390fd5b505050565b505050565b505050565b60006114d38473ffffffffffffffffffffffffffffffffffffffff166119d0565b1561163c578373ffffffffffffffffffffffffffffffffffffffff1663150b7a026114fc610d2e565b8786866040518563ffffffff1660e01b815260040161151e9493929190612184565b602060405180830381600087803b15801561153857600080fd5b505af192505050801561156957506040513d601f19601f820116820180604052508101906115669190611d9f565b60015b6115ec573d8060008114611599576040519150601f19603f3d011682016040523d82523d6000602084013e61159e565b606091505b506000815114156115e4576040517f08c379a00000000000000000000000000000000000000000000000000000000081526004016115db9061220d565b60405180910390fd5b805181602001fd5b63150b7a0260e01b7bffffffffffffffffffffffffffffffffffffffffffffffffffffffff1916817bffffffffffffffffffffffffffffffffffffffffffffffffffffffff191614915050611641565b600190505b949350505050565b60606000821415611691576040518060400160405280600181526020017f300000000000000000000000000000000000000000000000000000000000000081525090506117f1565b600082905060005b600082146116c35780806116ac906126ef565b915050600a826116bc9190612571565b9150611699565b60008167ffffffffffffffff811115611705577f4e487b7100000000000000000000000000000000000000000000000000000000600052604160045260246000fd5b6040519080825280601f01601f1916602001820160405280156117375781602001600182028036833780820191505090505b5090505b600085146117ea5760018261175091906125a2565b9150600a8561175f9190612738565b603061176b919061251b565b60f81b8183815181106117a7577f4e487b7100000000000000000000000000000000000000000000000000000000600052603260045260246000fd5b60200101907effffffffffffffffffffffffffffffffffffffffffffffffffffffffffffff1916908160001a905350600a856117e39190612571565b945061173b565b8093505050505b919050565b600073ffffffffffffffffffffffffffffffffffffffff168273ffffffffffffffffffffffffffffffffffffffff161415611866576040517f08c379a000000000000000000000000000000000000000000000000000000000815260040161185d9061234d565b60405180910390fd5b61186f81610cc2565b156118af576040517f08c379a00000000000000000000000000000000000000000000000000000000081526004016118a69061224d565b60405180910390fd5b6118bb600083836114a8565b6001600360008473ffffffffffffffffffffffffffffffffffffffff1673ffffffffffffffffffffffffffffffffffffffff168152602001908152602001600020600082825461190b919061251b565b92505081905550816002600083815260200190815260200160002060006101000a81548173ffffffffffffffffffffffffffffffffffffffff021916908373ffffffffffffffffffffffffffffffffffffffff160217905550808273ffffffffffffffffffffffffffffffffffffffff16600073ffffffffffffffffffffffffffffffffffffffff167fddf252ad1be2c89b69c2b068fc378daa952ba7f163c4a11628f55a4df523b3ef60405160405180910390a46119cc600083836114ad565b5050565b6000808273ffffffffffffffffffffffffffffffffffffffff163b119050919050565b8280546119ff9061268c565b90600052602060002090601f016020900481019282611a215760008555611a68565b82601f10611a3a57805160ff1916838001178555611a68565b82800160010185558215611a68579182015b82811115611a67578251825591602001919060010190611a4c565b5b509050611a759190611a79565b5090565b5b80821115611a92576000816000905550600101611a7a565b5090565b6000611aa9611aa484612476565b612451565b905082815260208101848484011115611ac157600080fd5b611acc84828561264a565b509392505050565b6000611ae7611ae2846124a7565b612451565b905082815260208101848484011115611aff57600080fd5b611b0a84828561264a565b509392505050565b600081359050611b2181612cb4565b92915050565b600081359050611b3681612ccb565b92915050565b600081359050611b4b81612ce2565b92915050565b600081519050611b6081612ce2565b92915050565b600082601f830112611b7757600080fd5b8135611b87848260208601611a96565b91505092915050565b600082601f830112611ba157600080fd5b8135611bb1848260208601611ad4565b91505092915050565b600081359050611bc981612cf9565b92915050565b600060208284031215611be157600080fd5b6000611bef84828501611b12565b91505092915050565b60008060408385031215611c0b57600080fd5b6000611c1985828601611b12565b9250506020611c2a85828601611b12565b9150509250929050565b600080600060608486031215611c4957600080fd5b6000611c5786828701611b12565b9350506020611c6886828701611b12565b9250506040611c7986828701611bba565b9150509250925092565b60008060008060808587031215611c9957600080fd5b6000611ca787828801611b12565b9450506020611cb887828801611b12565b9350506040611cc987828801611bba565b925050606085013567ffffffffffffffff811115611ce657600080fd5b611cf287828801611b66565b91505092959194509250565b60008060408385031215611d1157600080fd5b6000611d1f85828601611b12565b9250506020611d3085828601611b27565b9150509250929050565b60008060408385031215611d4d57600080fd5b6000611d5b85828601611b12565b9250506020611d6c85828601611bba565b9150509250929050565b600060208284031215611d8857600080fd5b6000611d9684828501611b3c565b91505092915050565b600060208284031215611db157600080fd5b6000611dbf84828501611b51565b91505092915050565b60008060408385031215611ddb57600080fd5b600083013567ffffffffffffffff811115611df557600080fd5b611e0185828601611b90565b9250506020611e1285828601611b12565b9150509250929050565b600060208284031215611e2e57600080fd5b6000611e3c84828501611bba565b91505092915050565b611e4e816125d6565b82525050565b611e5d816125e8565b82525050565b6000611e6e826124d8565b611e7881856124ee565b9350611e88818560208601612659565b611e9181612825565b840191505092915050565b6000611ea7826124e3565b611eb181856124ff565b9350611ec1818560208601612659565b611eca81612825565b840191505092915050565b6000611ee0826124e3565b611eea8185612510565b9350611efa818560208601612659565b80840191505092915050565b6000611f136032836124ff565b9150611f1e82612836565b604082019050919050565b6000611f366025836124ff565b9150611f4182612885565b604082019050919050565b6000611f59601c836124ff565b9150611f64826128d4565b602082019050919050565b6000611f7c6024836124ff565b9150611f87826128fd565b604082019050919050565b6000611f9f6019836124ff565b9150611faa8261294c565b602082019050919050565b6000611fc2602c836124ff565b9150611fcd82612975565b604082019050919050565b6000611fe56038836124ff565b9150611ff0826129c4565b604082019050919050565b6000612008602a836124ff565b915061201382612a13565b604082019050919050565b600061202b6029836124ff565b915061203682612a62565b604082019050919050565b600061204e602e836124ff565b915061205982612ab1565b604082019050919050565b60006120716020836124ff565b915061207c82612b00565b602082019050919050565b60006120946031836124ff565b915061209f82612b29565b604082019050919050565b60006120b7602c836124ff565b91506120c282612b78565b604082019050919050565b60006120da602f836124ff565b91506120e582612bc7565b604082019050919050565b60006120fd6021836124ff565b915061210882612c16565b604082019050919050565b60006121206031836124ff565b915061212b82612c65565b604082019050919050565b61213f81612640565b82525050565b60006121518285611ed5565b915061215d8284611ed5565b91508190509392505050565b600060208201905061217e6000830184611e45565b92915050565b60006080820190506121996000830187611e45565b6121a66020830186611e45565b6121b36040830185612136565b81810360608301526121c58184611e63565b905095945050505050565b60006020820190506121e56000830184611e54565b92915050565b600060208201905081810360008301526122058184611e9c565b905092915050565b6000602082019050818103600083015261222681611f06565b9050919050565b6000602082019050818103600083015261224681611f29565b9050919050565b6000602082019050818103600083015261226681611f4c565b9050919050565b6000602082019050818103600083015261228681611f6f565b9050919050565b600060208201905081810360008301526122a681611f92565b9050919050565b600060208201905081810360008301526122c681611fb5565b9050919050565b600060208201905081810360008301526122e681611fd8565b9050919050565b6000602082019050818103600083015261230681611ffb565b9050919050565b600060208201905081810360008301526123268161201e565b9050919050565b6000602082019050818103600083015261234681612041565b9050919050565b6000602082019050818103600083015261236681612064565b9050919050565b6000602082019050818103600083015261238681612087565b9050919050565b600060208201905081810360008301526123a6816120aa565b9050919050565b600060208201905081810360008301526123c6816120cd565b9050919050565b600060208201905081810360008301526123e6816120f0565b9050919050565b6000602082019050818103600083015261240681612113565b9050919050565b60006020820190506124226000830184612136565b92915050565b600060408201905061243d6000830185612136565b61244a6020830184611e45565b9392505050565b600061245b61246c565b905061246782826126be565b919050565b6000604051905090565b600067ffffffffffffffff821115612491576124906127f6565b5b61249a82612825565b9050602081019050919050565b600067ffffffffffffffff8211156124c2576124c16127f6565b5b6124cb82612825565b9050602081019050919050565b600081519050919050565b600081519050919050565b600082825260208201905092915050565b600082825260208201905092915050565b600081905092915050565b600061252682612640565b915061253183612640565b9250827fffffffffffffffffffffffffffffffffffffffffffffffffffffffffffffffff0382111561256657612565612769565b5b828201905092915050565b600061257c82612640565b915061258783612640565b92508261259757612596612798565b5b828204905092915050565b60006125ad82612640565b91506125b883612640565b9250828210156125cb576125ca612769565b5b828203905092915050565b60006125e182612620565b9050919050565b60008115159050919050565b60007fffffffff0000000000000000000000000000000000000000000000000000000082169050919050565b600073ffffffffffffffffffffffffffffffffffffffff82169050919050565b6000819050919050565b82818337600083830152505050565b60005b8381101561267757808201518184015260208101905061265c565b83811115612686576000848401525b50505050565b600060028204905060018216806126a457607f821691505b602082108114156126b8576126b76127c7565b5b50919050565b6126c782612825565b810181811067ffffffffffffffff821117156126e6576126e56127f6565b5b80604052505050565b60006126fa82612640565b91507fffffffffffffffffffffffffffffffffffffffffffffffffffffffffffffffff82141561272d5761272c612769565b5b600182019050919050565b600061274382612640565b915061274e83612640565b92508261275e5761275d612798565b5b828206905092915050565b7f4e487b7100000000000000000000000000000000000000000000000000000000600052601160045260246000fd5b7f4e487b7100000000000000000000000000000000000000000000000000000000600052601260045260246000fd5b7f4e487b7100000000000000000000000000000000000000000000000000000000600052602260045260246000fd5b7f4e487b7100000000000000000000000000000000000000000000000000000000600052604160045260246000fd5b6000601f19601f8301169050919050565b7f4552433732313a207472616e7366657220746f206e6f6e20455243373231526560008201527f63656976657220696d706c656d656e7465720000000000000000000000000000602082015250565b7f4552433732313a207472616e736665722066726f6d20696e636f72726563742060008201527f6f776e6572000000000000000000000000000000000000000000000000000000602082015250565b7f4552433732313a20746f6b656e20616c7265616479206d696e74656400000000600082015250565b7f4552433732313a207472616e7366657220746f20746865207a65726f2061646460008201527f7265737300000000000000000000000000000000000000000000000000000000602082015250565b7f4552433732313a20617070726f766520746f2063616c6c657200000000000000600082015250565b7f4552433732313a206f70657261746f7220717565727920666f72206e6f6e657860008201527f697374656e7420746f6b656e0000000000000000000000000000000000000000602082015250565b7f4552433732313a20617070726f76652063616c6c6572206973206e6f74206f7760008201527f6e6572206e6f7220617070726f76656420666f7220616c6c0000000000000000602082015250565b7f4552433732313a2062616c616e636520717565727920666f7220746865207a6560008201527f726f206164647265737300000000000000000000000000000000000000000000602082015250565b7f4552433732313a206f776e657220717565727920666f72206e6f6e657869737460008201527f656e7420746f6b656e0000000000000000000000000000000000000000000000602082015250565b7f45524337323155524953746f726167653a2055524920736574206f66206e6f6e60008201527f6578697374656e7420746f6b656e000000000000000000000000000000000000602082015250565b7f4552433732313a206d696e7420746f20746865207a65726f2061646472657373600082015250565b7f45524337323155524953746f726167653a2055524920717565727920666f722060008201527f6e6f6e6578697374656e7420746f6b656e000000000000000000000000000000602082015250565b7f4552433732313a20617070726f76656420717565727920666f72206e6f6e657860008201527f697374656e7420746f6b656e0000000000000000000000000000000000000000602082015250565b7f4552433732314d657461646174613a2055524920717565727920666f72206e6f60008201527f6e6578697374656e7420746f6b656e0000000000000000000000000000000000602082015250565b7f4552433732313a20617070726f76616c20746f2063757272656e74206f776e6560008201527f7200000000000000000000000000000000000000000000000000000000000000602082015250565b7f4552433732313a207472616e736665722063616c6c6572206973206e6f74206f60008201527f776e6572206e6f7220617070726f766564000000000000000000000000000000602082015250565b612cbd816125d6565b8114612cc857600080fd5b50565b612cd4816125e8565b8114612cdf57600080fd5b50565b612ceb816125f4565b8114612cf657600080fd5b50565b612d0281612640565b8114612d0d57600080fd5b5056fea26469706673582212201b8421695d5f73abdb800d40cbef0ec087aa4cb378640da401768cb14994d1ce64736f6c63430008040033",
  "immutableReferences": {},
  "source": "pragma solidity  0.8.4;\r\n\r\nimport \"@openzeppelin/contracts/token/ERC721/extensions/ERC721URIStorage.sol\";\r\n\r\nimport \"./Patients.sol\";\r\n\r\ncontract Files is ERC721URIStorage{\r\n\r\n    uint public tokenCount;\r\n\r\n    Patients _patients;\r\n\r\n    address contractAddress;\r\n\r\n    constructor(address filesA) ERC721(\"DHealthcare\", \"DHC\"){\r\n        _patients = Patients(filesA);\r\n        contractAddress = filesA;\r\n    }\r\n\r\n    function mint(string memory _tokenURI, address _to) external returns(uint) {\r\n        tokenCount++;\r\n        _safeMint(msg.sender, tokenCount);\r\n        _setTokenURI(tokenCount, _tokenURI);\r\n        _patients.addFileNft(tokenCount, _to);\r\n\r\n        return(tokenCount);\r\n    }\r\n\r\n    function getTokenCount() external returns(uint) {\r\n        return tokenCount;\r\n    }\r\n\r\n    function transferFile(address _to, uint tokenId) external {\r\n        transferFrom(address(this), _to, tokenId);\r\n    }\r\n\r\n}",
  "sourcePath": "C:/Licenta/Licenta/src/contracts/Files.sol",
  "compiler": {
    "name": "solc",
    "version": "0.8.4+commit.c7e474f2.Emscripten.clang"
  },
  "schemaVersion": "3.2.3",
  "updatedAt": "2022-06-13T13:47:43.241Z",
  "networkType": "ethereum",
  "devdoc": {
    "kind": "dev",
    "methods": {
      "approve(address,uint256)": {
        "details": "See {IERC721-approve}."
      },
      "balanceOf(address)": {
        "details": "See {IERC721-balanceOf}."
      },
      "getApproved(uint256)": {
        "details": "See {IERC721-getApproved}."
      },
      "isApprovedForAll(address,address)": {
        "details": "See {IERC721-isApprovedForAll}."
      },
      "name()": {
        "details": "See {IERC721Metadata-name}."
      },
      "ownerOf(uint256)": {
        "details": "See {IERC721-ownerOf}."
      },
      "safeTransferFrom(address,address,uint256)": {
        "details": "See {IERC721-safeTransferFrom}."
      },
      "safeTransferFrom(address,address,uint256,bytes)": {
        "details": "See {IERC721-safeTransferFrom}."
      },
      "setApprovalForAll(address,bool)": {
        "details": "See {IERC721-setApprovalForAll}."
      },
      "supportsInterface(bytes4)": {
        "details": "See {IERC165-supportsInterface}."
      },
      "symbol()": {
        "details": "See {IERC721Metadata-symbol}."
      },
      "tokenURI(uint256)": {
        "details": "See {IERC721Metadata-tokenURI}."
      },
      "transferFrom(address,address,uint256)": {
        "details": "See {IERC721-transferFrom}."
      }
    },
    "version": 1
  },
  "userdoc": {
    "kind": "user",
    "methods": {},
    "version": 1
  }
}