{
  "contractName": "Hospitals",
  "abi": [
    {
      "inputs": [
        {
          "internalType": "address",
          "name": "registrationA",
          "type": "address"
        }
      ],
      "stateMutability": "nonpayable",
      "type": "constructor"
    },
    {
      "anonymous": false,
      "inputs": [
        {
          "indexed": false,
          "internalType": "string",
          "name": "firstName",
          "type": "string"
        },
        {
          "indexed": false,
          "internalType": "string",
          "name": "lastName",
          "type": "string"
        },
        {
          "indexed": false,
          "internalType": "uint256",
          "name": "birthDate",
          "type": "uint256"
        },
        {
          "indexed": false,
          "internalType": "string",
          "name": "gender",
          "type": "string"
        },
        {
          "indexed": false,
          "internalType": "string",
          "name": "country",
          "type": "string"
        },
        {
          "indexed": false,
          "internalType": "string",
          "name": "city",
          "type": "string"
        },
        {
          "indexed": false,
          "internalType": "string",
          "name": "hospital",
          "type": "string"
        },
        {
          "indexed": false,
          "internalType": "string",
          "name": "specialization",
          "type": "string"
        },
        {
          "indexed": false,
          "internalType": "string[]",
          "name": "skills",
          "type": "string[]"
        },
        {
          "indexed": false,
          "internalType": "address",
          "name": "walletAddress",
          "type": "address"
        },
        {
          "indexed": false,
          "internalType": "uint256",
          "name": "cnp",
          "type": "uint256"
        },
        {
          "indexed": false,
          "internalType": "string",
          "name": "_profileHash",
          "type": "string"
        }
      ],
      "name": "DoctorAdd",
      "type": "event"
    },
    {
      "anonymous": false,
      "inputs": [
        {
          "indexed": true,
          "internalType": "address",
          "name": "previousOwner",
          "type": "address"
        },
        {
          "indexed": true,
          "internalType": "address",
          "name": "newOwner",
          "type": "address"
        }
      ],
      "name": "OwnershipTransferred",
      "type": "event"
    },
    {
      "anonymous": false,
      "inputs": [
        {
          "indexed": true,
          "internalType": "bytes32",
          "name": "role",
          "type": "bytes32"
        },
        {
          "indexed": true,
          "internalType": "bytes32",
          "name": "previousAdminRole",
          "type": "bytes32"
        },
        {
          "indexed": true,
          "internalType": "bytes32",
          "name": "newAdminRole",
          "type": "bytes32"
        }
      ],
      "name": "RoleAdminChanged",
      "type": "event"
    },
    {
      "anonymous": false,
      "inputs": [
        {
          "indexed": true,
          "internalType": "bytes32",
          "name": "role",
          "type": "bytes32"
        },
        {
          "indexed": true,
          "internalType": "address",
          "name": "account",
          "type": "address"
        },
        {
          "indexed": true,
          "internalType": "address",
          "name": "sender",
          "type": "address"
        }
      ],
      "name": "RoleGranted",
      "type": "event"
    },
    {
      "anonymous": false,
      "inputs": [
        {
          "indexed": true,
          "internalType": "bytes32",
          "name": "role",
          "type": "bytes32"
        },
        {
          "indexed": true,
          "internalType": "address",
          "name": "account",
          "type": "address"
        },
        {
          "indexed": true,
          "internalType": "address",
          "name": "sender",
          "type": "address"
        }
      ],
      "name": "RoleRevoked",
      "type": "event"
    },
    {
      "inputs": [],
      "name": "DEFAULT_ADMIN_ROLE",
      "outputs": [
        {
          "internalType": "bytes32",
          "name": "",
          "type": "bytes32"
        }
      ],
      "stateMutability": "view",
      "type": "function",
      "constant": true
    },
    {
      "inputs": [
        {
          "internalType": "uint256",
          "name": "",
          "type": "uint256"
        }
      ],
      "name": "doctorsAccounts",
      "outputs": [
        {
          "internalType": "address",
          "name": "",
          "type": "address"
        }
      ],
      "stateMutability": "view",
      "type": "function",
      "constant": true
    },
    {
      "inputs": [
        {
          "internalType": "bytes32",
          "name": "role",
          "type": "bytes32"
        }
      ],
      "name": "getRoleAdmin",
      "outputs": [
        {
          "internalType": "bytes32",
          "name": "",
          "type": "bytes32"
        }
      ],
      "stateMutability": "view",
      "type": "function",
      "constant": true
    },
    {
      "inputs": [
        {
          "internalType": "bytes32",
          "name": "role",
          "type": "bytes32"
        },
        {
          "internalType": "address",
          "name": "account",
          "type": "address"
        }
      ],
      "name": "grantRole",
      "outputs": [],
      "stateMutability": "nonpayable",
      "type": "function"
    },
    {
      "inputs": [
        {
          "internalType": "bytes32",
          "name": "role",
          "type": "bytes32"
        },
        {
          "internalType": "address",
          "name": "account",
          "type": "address"
        }
      ],
      "name": "hasRole",
      "outputs": [
        {
          "internalType": "bool",
          "name": "",
          "type": "bool"
        }
      ],
      "stateMutability": "view",
      "type": "function",
      "constant": true
    },
    {
      "inputs": [],
      "name": "owner",
      "outputs": [
        {
          "internalType": "address",
          "name": "",
          "type": "address"
        }
      ],
      "stateMutability": "view",
      "type": "function",
      "constant": true
    },
    {
      "inputs": [],
      "name": "renounceOwnership",
      "outputs": [],
      "stateMutability": "nonpayable",
      "type": "function"
    },
    {
      "inputs": [
        {
          "internalType": "bytes32",
          "name": "role",
          "type": "bytes32"
        },
        {
          "internalType": "address",
          "name": "account",
          "type": "address"
        }
      ],
      "name": "renounceRole",
      "outputs": [],
      "stateMutability": "nonpayable",
      "type": "function"
    },
    {
      "inputs": [
        {
          "internalType": "bytes32",
          "name": "role",
          "type": "bytes32"
        },
        {
          "internalType": "address",
          "name": "account",
          "type": "address"
        }
      ],
      "name": "revokeRole",
      "outputs": [],
      "stateMutability": "nonpayable",
      "type": "function"
    },
    {
      "inputs": [
        {
          "internalType": "bytes4",
          "name": "interfaceId",
          "type": "bytes4"
        }
      ],
      "name": "supportsInterface",
      "outputs": [
        {
          "internalType": "bool",
          "name": "",
          "type": "bool"
        }
      ],
      "stateMutability": "view",
      "type": "function",
      "constant": true
    },
    {
      "inputs": [
        {
          "internalType": "address",
          "name": "newOwner",
          "type": "address"
        }
      ],
      "name": "transferOwnership",
      "outputs": [],
      "stateMutability": "nonpayable",
      "type": "function"
    },
    {
      "inputs": [
        {
          "components": [
            {
              "internalType": "string",
              "name": "firstName",
              "type": "string"
            },
            {
              "internalType": "string",
              "name": "lastName",
              "type": "string"
            },
            {
              "internalType": "uint256",
              "name": "birthDate",
              "type": "uint256"
            },
            {
              "internalType": "string",
              "name": "gender",
              "type": "string"
            },
            {
              "internalType": "string",
              "name": "country",
              "type": "string"
            },
            {
              "internalType": "string",
              "name": "city",
              "type": "string"
            },
            {
              "internalType": "string",
              "name": "hospital",
              "type": "string"
            },
            {
              "internalType": "string",
              "name": "specialization",
              "type": "string"
            },
            {
              "internalType": "string[]",
              "name": "skills",
              "type": "string[]"
            },
            {
              "internalType": "address",
              "name": "walletAddress",
              "type": "address"
            },
            {
              "internalType": "uint256",
              "name": "cnp",
              "type": "uint256"
            },
            {
              "internalType": "string",
              "name": "_profileHash",
              "type": "string"
            }
          ],
          "internalType": "struct Hospitals.Doctor",
          "name": "doc",
          "type": "tuple"
        }
      ],
      "name": "addDoctorToSystem",
      "outputs": [],
      "stateMutability": "nonpayable",
      "type": "function"
    },
    {
      "inputs": [],
      "name": "getDoctors",
      "outputs": [
        {
          "internalType": "address[]",
          "name": "",
          "type": "address[]"
        }
      ],
      "stateMutability": "view",
      "type": "function",
      "constant": true
    },
    {
      "inputs": [
        {
          "internalType": "string",
          "name": "hospital",
          "type": "string"
        }
      ],
      "name": "getDoctorsInAHospital",
      "outputs": [
        {
          "components": [
            {
              "internalType": "string",
              "name": "firstName",
              "type": "string"
            },
            {
              "internalType": "string",
              "name": "lastName",
              "type": "string"
            },
            {
              "internalType": "uint256",
              "name": "birthDate",
              "type": "uint256"
            },
            {
              "internalType": "string",
              "name": "gender",
              "type": "string"
            },
            {
              "internalType": "string",
              "name": "country",
              "type": "string"
            },
            {
              "internalType": "string",
              "name": "city",
              "type": "string"
            },
            {
              "internalType": "string",
              "name": "hospital",
              "type": "string"
            },
            {
              "internalType": "string",
              "name": "specialization",
              "type": "string"
            },
            {
              "internalType": "string[]",
              "name": "skills",
              "type": "string[]"
            },
            {
              "internalType": "address",
              "name": "walletAddress",
              "type": "address"
            },
            {
              "internalType": "uint256",
              "name": "cnp",
              "type": "uint256"
            },
            {
              "internalType": "string",
              "name": "_profileHash",
              "type": "string"
            }
          ],
          "internalType": "struct Hospitals.Doctor[]",
          "name": "",
          "type": "tuple[]"
        }
      ],
      "stateMutability": "view",
      "type": "function",
      "constant": true
    },
    {
      "inputs": [
        {
          "internalType": "address",
          "name": "_address",
          "type": "address"
        }
      ],
      "name": "getDoctor",
      "outputs": [
        {
          "components": [
            {
              "internalType": "string",
              "name": "firstName",
              "type": "string"
            },
            {
              "internalType": "string",
              "name": "lastName",
              "type": "string"
            },
            {
              "internalType": "uint256",
              "name": "birthDate",
              "type": "uint256"
            },
            {
              "internalType": "string",
              "name": "gender",
              "type": "string"
            },
            {
              "internalType": "string",
              "name": "country",
              "type": "string"
            },
            {
              "internalType": "string",
              "name": "city",
              "type": "string"
            },
            {
              "internalType": "string",
              "name": "hospital",
              "type": "string"
            },
            {
              "internalType": "string",
              "name": "specialization",
              "type": "string"
            },
            {
              "internalType": "string[]",
              "name": "skills",
              "type": "string[]"
            },
            {
              "internalType": "address",
              "name": "walletAddress",
              "type": "address"
            },
            {
              "internalType": "uint256",
              "name": "cnp",
              "type": "uint256"
            },
            {
              "internalType": "string",
              "name": "_profileHash",
              "type": "string"
            }
          ],
          "internalType": "struct Hospitals.Doctor",
          "name": "",
          "type": "tuple"
        }
      ],
      "stateMutability": "view",
      "type": "function",
      "constant": true
    },
    {
      "inputs": [
        {
          "internalType": "string",
          "name": "encryptionPublicKey",
          "type": "string"
        }
      ],
      "name": "addEncryptionKey",
      "outputs": [],
      "stateMutability": "nonpayable",
      "type": "function"
    },
    {
      "inputs": [
        {
          "internalType": "address",
          "name": "_address",
          "type": "address"
        }
      ],
      "name": "getEncryptionPublicKey",
      "outputs": [
        {
          "internalType": "string",
          "name": "",
          "type": "string"
        }
      ],
      "stateMutability": "nonpayable",
      "type": "function"
    }
  ],
  "bytecode": "0x60806040523480156200001157600080fd5b5060405162003d2938038062003d29833981810160405281019062000037919062000182565b620000576200004b6200009f60201b60201c565b620000a760201b60201c565b80600260006101000a81548173ffffffffffffffffffffffffffffffffffffffff021916908373ffffffffffffffffffffffffffffffffffffffff16021790555050620001fc565b600033905090565b60008060009054906101000a900473ffffffffffffffffffffffffffffffffffffffff169050816000806101000a81548173ffffffffffffffffffffffffffffffffffffffff021916908373ffffffffffffffffffffffffffffffffffffffff1602179055508173ffffffffffffffffffffffffffffffffffffffff168173ffffffffffffffffffffffffffffffffffffffff167f8be0079c531659141344cd1fd0a4f28419497f9722a3daafe3b4186f6b6457e060405160405180910390a35050565b6000815190506200017c81620001e2565b92915050565b6000602082840312156200019557600080fd5b6000620001a5848285016200016b565b91505092915050565b6000620001bb82620001c2565b9050919050565b600073ffffffffffffffffffffffffffffffffffffffff82169050919050565b620001ed81620001ae565b8114620001f957600080fd5b50565b613b1d806200020c6000396000f3fe608060405234801561001057600080fd5b506004361061010b5760003560e01c8063715018a6116100a257806391d148541161007157806391d14854146102c8578063a217fddf146102f8578063b13d5d9414610316578063d547741f14610334578063f2fde38b146103505761010b565b8063715018a6146102405780637d9f7b191461024a57806386ba5fcd1461027a5780638da5cb5b146102aa5761010b565b80632f2ff15d116100de5780632f2ff15d146101bc57806333fff834146101d857806336568abe146102085780634d69fd3b146102245761010b565b806301ffc9a7146101105780630f8d66c414610140578063248a9ca31461015c5780632f04e0641461018c575b600080fd5b61012a60048036038101906101259190612a7a565b61036c565b60405161013791906132f3565b60405180910390f35b61015a60048036038101906101559190612aa3565b6103e6565b005b61017660048036038101906101719190612a15565b610542565b604051610183919061330e565b60405180910390f35b6101a660048036038101906101a191906129ec565b610562565b6040516101b391906134c4565b60405180910390f35b6101d660048036038101906101d19190612a3e565b610b8f565b005b6101f260048036038101906101ed9190612b66565b610bb8565b6040516101ff9190613294565b60405180910390f35b610222600480360381019061021d9190612a3e565b610bf7565b005b61023e60048036038101906102399190612b25565b610c7a565b005b6102486112cc565b005b610264600480360381019061025f91906129ec565b611354565b6040516102719190613329565b60405180910390f35b610294600480360381019061028f9190612aa3565b611425565b6040516102a191906132d1565b60405180910390f35b6102b2611a76565b6040516102bf9190613294565b60405180910390f35b6102e260048036038101906102dd9190612a3e565b611a9f565b6040516102ef91906132f3565b60405180910390f35b610300611b0a565b60405161030d919061330e565b60405180910390f35b61031e611b11565b60405161032b91906132af565b60405180910390f35b61034e60048036038101906103499190612a3e565b611b9f565b005b61036a600480360381019061036591906129ec565b611bc8565b005b60007f7965db0b000000000000000000000000000000000000000000000000000000007bffffffffffffffffffffffffffffffffffffffffffffffffffffffff1916827bffffffffffffffffffffffffffffffffffffffffffffffffffffffff191614806103df57506103de82611cc0565b5b9050919050565b6040516020016103f590613230565b60405160208183030381529060405280519060200120600260009054906101000a900473ffffffffffffffffffffffffffffffffffffffff1673ffffffffffffffffffffffffffffffffffffffff166344276733326040518263ffffffff1660e01b81526004016104669190613294565b60006040518083038186803b15801561047e57600080fd5b505afa158015610492573d6000803e3d6000fd5b505050506040513d6000823e3d601f19601f820116820180604052508101906104bb9190612ae4565b6040516020016104cb9190613219565b60405160208183030381529060405280519060200120146104eb57600080fd5b80600660003373ffffffffffffffffffffffffffffffffffffffff1673ffffffffffffffffffffffffffffffffffffffff168152602001908152602001600020908051906020019061053e92919061234f565b5050565b600060016000838152602001908152602001600020600101549050919050565b61056a6123d5565b600460008373ffffffffffffffffffffffffffffffffffffffff1673ffffffffffffffffffffffffffffffffffffffff168152602001908152602001600020604051806101800160405290816000820180546105c5906137f6565b80601f01602080910402602001604051908101604052809291908181526020018280546105f1906137f6565b801561063e5780601f106106135761010080835404028352916020019161063e565b820191906000526020600020905b81548152906001019060200180831161062157829003601f168201915b50505050508152602001600182018054610657906137f6565b80601f0160208091040260200160405190810160405280929190818152602001828054610683906137f6565b80156106d05780601f106106a5576101008083540402835291602001916106d0565b820191906000526020600020905b8154815290600101906020018083116106b357829003601f168201915b50505050508152602001600282015481526020016003820180546106f3906137f6565b80601f016020809104026020016040519081016040528092919081815260200182805461071f906137f6565b801561076c5780601f106107415761010080835404028352916020019161076c565b820191906000526020600020905b81548152906001019060200180831161074f57829003601f168201915b50505050508152602001600482018054610785906137f6565b80601f01602080910402602001604051908101604052809291908181526020018280546107b1906137f6565b80156107fe5780601f106107d3576101008083540402835291602001916107fe565b820191906000526020600020905b8154815290600101906020018083116107e157829003601f168201915b50505050508152602001600582018054610817906137f6565b80601f0160208091040260200160405190810160405280929190818152602001828054610843906137f6565b80156108905780601f1061086557610100808354040283529160200191610890565b820191906000526020600020905b81548152906001019060200180831161087357829003601f168201915b505050505081526020016006820180546108a9906137f6565b80601f01602080910402602001604051908101604052809291908181526020018280546108d5906137f6565b80156109225780601f106108f757610100808354040283529160200191610922565b820191906000526020600020905b81548152906001019060200180831161090557829003601f168201915b5050505050815260200160078201805461093b906137f6565b80601f0160208091040260200160405190810160405280929190818152602001828054610967906137f6565b80156109b45780601f10610989576101008083540402835291602001916109b4565b820191906000526020600020905b81548152906001019060200180831161099757829003601f168201915b5050505050815260200160088201805480602002602001604051908101604052809291908181526020016000905b82821015610a8e578382906000526020600020018054610a01906137f6565b80601f0160208091040260200160405190810160405280929190818152602001828054610a2d906137f6565b8015610a7a5780601f10610a4f57610100808354040283529160200191610a7a565b820191906000526020600020905b815481529060010190602001808311610a5d57829003601f168201915b5050505050815260200190600101906109e2565b5050505081526020016009820160009054906101000a900473ffffffffffffffffffffffffffffffffffffffff1673ffffffffffffffffffffffffffffffffffffffff1673ffffffffffffffffffffffffffffffffffffffff168152602001600a8201548152602001600b82018054610b06906137f6565b80601f0160208091040260200160405190810160405280929190818152602001828054610b32906137f6565b8015610b7f5780601f10610b5457610100808354040283529160200191610b7f565b820191906000526020600020905b815481529060010190602001808311610b6257829003601f168201915b5050505050815250509050919050565b610b9882610542565b610ba981610ba4611d2a565b611d32565b610bb38383611dcf565b505050565b60058181548110610bc857600080fd5b906000526020600020016000915054906101000a900473ffffffffffffffffffffffffffffffffffffffff1681565b610bff611d2a565b73ffffffffffffffffffffffffffffffffffffffff168173ffffffffffffffffffffffffffffffffffffffff1614610c6c576040517f08c379a0000000000000000000000000000000000000000000000000000000008152600401610c63906134a4565b60405180910390fd5b610c768282611eaf565b5050565b604051602001610c899061327f565b60405160208183030381529060405280519060200120600260009054906101000a900473ffffffffffffffffffffffffffffffffffffffff1673ffffffffffffffffffffffffffffffffffffffff166344276733326040518263ffffffff1660e01b8152600401610cfa9190613294565b60006040518083038186803b158015610d1257600080fd5b505afa158015610d26573d6000803e3d6000fd5b505050506040513d6000823e3d601f19601f82011682018060405250810190610d4f9190612ae4565b604051602001610d5f9190613219565b6040516020818303038152906040528051906020012014610d7f57600080fd5b806004600083610120015173ffffffffffffffffffffffffffffffffffffffff1673ffffffffffffffffffffffffffffffffffffffff1681526020019081526020016000206000820151816000019080519060200190610de092919061234f565b506020820151816001019080519060200190610dfd92919061234f565b50604082015181600201556060820151816003019080519060200190610e2492919061234f565b506080820151816004019080519060200190610e4192919061234f565b5060a0820151816005019080519060200190610e5e92919061234f565b5060c0820151816006019080519060200190610e7b92919061234f565b5060e0820151816007019080519060200190610e9892919061234f565b50610100820151816008019080519060200190610eb692919061244c565b506101208201518160090160006101000a81548173ffffffffffffffffffffffffffffffffffffffff021916908373ffffffffffffffffffffffffffffffffffffffff16021790555061014082015181600a015561016082015181600b019080519060200190610f2792919061234f565b5090505060058161012001519080600181540180825580915050600190039060005260206000200160009091909190916101000a81548173ffffffffffffffffffffffffffffffffffffffff021916908373ffffffffffffffffffffffffffffffffffffffff160217905550600260009054906101000a900473ffffffffffffffffffffffffffffffffffffffff1673ffffffffffffffffffffffffffffffffffffffff16634780468f8261012001516040518263ffffffff1660e01b8152600401610ff39190613294565b600060405180830381600087803b15801561100d57600080fd5b505af1158015611021573d6000803e3d6000fd5b5050505060038160c001516040516110399190613219565b90815260200160405180910390206004600083610120015173ffffffffffffffffffffffffffffffffffffffff1673ffffffffffffffffffffffffffffffffffffffff16815260200190815260200160002090806001815401808255809150506001900390600052602060002090600c020160009091909190915060008201816000019080546110c8906137f6565b6110d39291906124ac565b5060018201816001019080546110e8906137f6565b6110f39291906124ac565b50600282015481600201556003820181600301908054611112906137f6565b61111d9291906124ac565b506004820181600401908054611132906137f6565b61113d9291906124ac565b506005820181600501908054611152906137f6565b61115d9291906124ac565b506006820181600601908054611172906137f6565b61117d9291906124ac565b506007820181600701908054611192906137f6565b61119d9291906124ac565b5060088201816008019080546111b4929190612539565b506009820160009054906101000a900473ffffffffffffffffffffffffffffffffffffffff168160090160006101000a81548173ffffffffffffffffffffffffffffffffffffffff021916908373ffffffffffffffffffffffffffffffffffffffff160217905550600a82015481600a0155600b820181600b0190805461123a906137f6565b6112459291906124ac565b5050507f6de443a130019ea936f85998b3cd988234c2406f4615105f328e80fab539f206816000015182602001518360400151846060015185608001518660a001518760c001518860e001518961010001518a61012001518b61014001518c61016001516040516112c19c9b9a9998979695949392919061334b565b60405180910390a150565b6112d4611d2a565b73ffffffffffffffffffffffffffffffffffffffff166112f2611a76565b73ffffffffffffffffffffffffffffffffffffffff1614611348576040517f08c379a000000000000000000000000000000000000000000000000000000000815260040161133f90613484565b60405180910390fd5b6113526000611f91565b565b6060600660008373ffffffffffffffffffffffffffffffffffffffff1673ffffffffffffffffffffffffffffffffffffffff16815260200190815260200160002080546113a0906137f6565b80601f01602080910402602001604051908101604052809291908181526020018280546113cc906137f6565b80156114195780601f106113ee57610100808354040283529160200191611419565b820191906000526020600020905b8154815290600101906020018083116113fc57829003601f168201915b50505050509050919050565b60606003826040516114379190613219565b9081526020016040518091039020805480602002602001604051908101604052809291908181526020016000905b82821015611a6b57838290600052602060002090600c020160405180610180016040529081600082018054611499906137f6565b80601f01602080910402602001604051908101604052809291908181526020018280546114c5906137f6565b80156115125780601f106114e757610100808354040283529160200191611512565b820191906000526020600020905b8154815290600101906020018083116114f557829003601f168201915b5050505050815260200160018201805461152b906137f6565b80601f0160208091040260200160405190810160405280929190818152602001828054611557906137f6565b80156115a45780601f10611579576101008083540402835291602001916115a4565b820191906000526020600020905b81548152906001019060200180831161158757829003601f168201915b50505050508152602001600282015481526020016003820180546115c7906137f6565b80601f01602080910402602001604051908101604052809291908181526020018280546115f3906137f6565b80156116405780601f1061161557610100808354040283529160200191611640565b820191906000526020600020905b81548152906001019060200180831161162357829003601f168201915b50505050508152602001600482018054611659906137f6565b80601f0160208091040260200160405190810160405280929190818152602001828054611685906137f6565b80156116d25780601f106116a7576101008083540402835291602001916116d2565b820191906000526020600020905b8154815290600101906020018083116116b557829003601f168201915b505050505081526020016005820180546116eb906137f6565b80601f0160208091040260200160405190810160405280929190818152602001828054611717906137f6565b80156117645780601f1061173957610100808354040283529160200191611764565b820191906000526020600020905b81548152906001019060200180831161174757829003601f168201915b5050505050815260200160068201805461177d906137f6565b80601f01602080910402602001604051908101604052809291908181526020018280546117a9906137f6565b80156117f65780601f106117cb576101008083540402835291602001916117f6565b820191906000526020600020905b8154815290600101906020018083116117d957829003601f168201915b5050505050815260200160078201805461180f906137f6565b80601f016020809104026020016040519081016040528092919081815260200182805461183b906137f6565b80156118885780601f1061185d57610100808354040283529160200191611888565b820191906000526020600020905b81548152906001019060200180831161186b57829003601f168201915b5050505050815260200160088201805480602002602001604051908101604052809291908181526020016000905b828210156119625783829060005260206000200180546118d5906137f6565b80601f0160208091040260200160405190810160405280929190818152602001828054611901906137f6565b801561194e5780601f106119235761010080835404028352916020019161194e565b820191906000526020600020905b81548152906001019060200180831161193157829003601f168201915b5050505050815260200190600101906118b6565b5050505081526020016009820160009054906101000a900473ffffffffffffffffffffffffffffffffffffffff1673ffffffffffffffffffffffffffffffffffffffff1673ffffffffffffffffffffffffffffffffffffffff168152602001600a8201548152602001600b820180546119da906137f6565b80601f0160208091040260200160405190810160405280929190818152602001828054611a06906137f6565b8015611a535780601f10611a2857610100808354040283529160200191611a53565b820191906000526020600020905b815481529060010190602001808311611a3657829003601f168201915b50505050508152505081526020019060010190611465565b505050509050919050565b60008060009054906101000a900473ffffffffffffffffffffffffffffffffffffffff16905090565b60006001600084815260200190815260200160002060000160008373ffffffffffffffffffffffffffffffffffffffff1673ffffffffffffffffffffffffffffffffffffffff16815260200190815260200160002060009054906101000a900460ff16905092915050565b6000801b81565b60606005805480602002602001604051908101604052809291908181526020018280548015611b9557602002820191906000526020600020905b8160009054906101000a900473ffffffffffffffffffffffffffffffffffffffff1673ffffffffffffffffffffffffffffffffffffffff1681526020019060010190808311611b4b575b5050505050905090565b611ba882610542565b611bb981611bb4611d2a565b611d32565b611bc38383611eaf565b505050565b611bd0611d2a565b73ffffffffffffffffffffffffffffffffffffffff16611bee611a76565b73ffffffffffffffffffffffffffffffffffffffff1614611c44576040517f08c379a0000000000000000000000000000000000000000000000000000000008152600401611c3b90613484565b60405180910390fd5b600073ffffffffffffffffffffffffffffffffffffffff168173ffffffffffffffffffffffffffffffffffffffff161415611cb4576040517f08c379a0000000000000000000000000000000000000000000000000000000008152600401611cab90613464565b60405180910390fd5b611cbd81611f91565b50565b60007f01ffc9a7000000000000000000000000000000000000000000000000000000007bffffffffffffffffffffffffffffffffffffffffffffffffffffffff1916827bffffffffffffffffffffffffffffffffffffffffffffffffffffffff1916149050919050565b600033905090565b611d3c8282611a9f565b611dcb57611d618173ffffffffffffffffffffffffffffffffffffffff166014612055565b611d6f8360001c6020612055565b604051602001611d80929190613245565b6040516020818303038152906040526040517f08c379a0000000000000000000000000000000000000000000000000000000008152600401611dc29190613329565b60405180910390fd5b5050565b611dd98282611a9f565b611eab57600180600084815260200190815260200160002060000160008373ffffffffffffffffffffffffffffffffffffffff1673ffffffffffffffffffffffffffffffffffffffff16815260200190815260200160002060006101000a81548160ff021916908315150217905550611e50611d2a565b73ffffffffffffffffffffffffffffffffffffffff168173ffffffffffffffffffffffffffffffffffffffff16837f2f8788117e7eff1d82e926ec794901d17c78024a50270940304540a733656f0d60405160405180910390a45b5050565b611eb98282611a9f565b15611f8d5760006001600084815260200190815260200160002060000160008373ffffffffffffffffffffffffffffffffffffffff1673ffffffffffffffffffffffffffffffffffffffff16815260200190815260200160002060006101000a81548160ff021916908315150217905550611f32611d2a565b73ffffffffffffffffffffffffffffffffffffffff168173ffffffffffffffffffffffffffffffffffffffff16837ff6391f5c32d9c69d2a47ea670b442974b53935d1edc7fd64eb21e047a839171b60405160405180910390a45b5050565b60008060009054906101000a900473ffffffffffffffffffffffffffffffffffffffff169050816000806101000a81548173ffffffffffffffffffffffffffffffffffffffff021916908373ffffffffffffffffffffffffffffffffffffffff1602179055508173ffffffffffffffffffffffffffffffffffffffff168173ffffffffffffffffffffffffffffffffffffffff167f8be0079c531659141344cd1fd0a4f28419497f9722a3daafe3b4186f6b6457e060405160405180910390a35050565b60606000600283600261206891906136b2565b612072919061365c565b67ffffffffffffffff8111156120b1577f4e487b7100000000000000000000000000000000000000000000000000000000600052604160045260246000fd5b6040519080825280601f01601f1916602001820160405280156120e35781602001600182028036833780820191505090505b5090507f300000000000000000000000000000000000000000000000000000000000000081600081518110612141577f4e487b7100000000000000000000000000000000000000000000000000000000600052603260045260246000fd5b60200101907effffffffffffffffffffffffffffffffffffffffffffffffffffffffffffff1916908160001a9053507f7800000000000000000000000000000000000000000000000000000000000000816001815181106121cb577f4e487b7100000000000000000000000000000000000000000000000000000000600052603260045260246000fd5b60200101907effffffffffffffffffffffffffffffffffffffffffffffffffffffffffffff1916908160001a9053506000600184600261220b91906136b2565b612215919061365c565b90505b6001811115612301577f3031323334353637383961626364656600000000000000000000000000000000600f86166010811061227d577f4e487b7100000000000000000000000000000000000000000000000000000000600052603260045260246000fd5b1a60f81b8282815181106122ba577f4e487b7100000000000000000000000000000000000000000000000000000000600052603260045260246000fd5b60200101907effffffffffffffffffffffffffffffffffffffffffffffffffffffffffffff1916908160001a905350600485901c9450806122fa906137cc565b9050612218565b5060008414612345576040517f08c379a000000000000000000000000000000000000000000000000000000000815260040161233c90613444565b60405180910390fd5b8091505092915050565b82805461235b906137f6565b90600052602060002090601f01602090048101928261237d57600085556123c4565b82601f1061239657805160ff19168380011785556123c4565b828001600101855582156123c4579182015b828111156123c35782518255916020019190600101906123a8565b5b5090506123d191906125a1565b5090565b604051806101800160405280606081526020016060815260200160008152602001606081526020016060815260200160608152602001606081526020016060815260200160608152602001600073ffffffffffffffffffffffffffffffffffffffff16815260200160008152602001606081525090565b82805482825590600052602060002090810192821561249b579160200282015b8281111561249a57825182908051906020019061248a92919061234f565b509160200191906001019061246c565b5b5090506124a891906125be565b5090565b8280546124b8906137f6565b90600052602060002090601f0160209004810192826124da5760008555612528565b82601f106124eb5780548555612528565b8280016001018555821561252857600052602060002091601f016020900482015b8281111561252757825482559160010191906001019061250c565b5b50905061253591906125a1565b5090565b8280548282559060005260206000209081019282156125905760005260206000209182015b8281111561258f578282908054612574906137f6565b61257f9291906124ac565b509160010191906001019061255e565b5b50905061259d91906125be565b5090565b5b808211156125ba5760008160009055506001016125a2565b5090565b5b808211156125de57600081816125d591906125e2565b506001016125bf565b5090565b5080546125ee906137f6565b6000825580601f10612600575061261f565b601f01602090049060005260206000209081019061261e91906125a1565b5b50565b60006126356126308461350b565b6134e6565b9050808382526020820190508285602086028201111561265457600080fd5b60005b8581101561269e57813567ffffffffffffffff81111561267657600080fd5b808601612683898261278d565b85526020850194506020840193505050600181019050612657565b5050509392505050565b60006126bb6126b684613537565b6134e6565b9050828152602081018484840111156126d357600080fd5b6126de84828561378a565b509392505050565b60006126f96126f484613537565b6134e6565b90508281526020810184848401111561271157600080fd5b61271c848285613799565b509392505050565b60008135905061273381613a8b565b92915050565b600082601f83011261274a57600080fd5b813561275a848260208601612622565b91505092915050565b60008135905061277281613aa2565b92915050565b60008135905061278781613ab9565b92915050565b600082601f83011261279e57600080fd5b81356127ae8482602086016126a8565b91505092915050565b600082601f8301126127c857600080fd5b81516127d88482602086016126e6565b91505092915050565b600061018082840312156127f457600080fd5b6127ff6101806134e6565b9050600082013567ffffffffffffffff81111561281b57600080fd5b6128278482850161278d565b600083015250602082013567ffffffffffffffff81111561284757600080fd5b6128538482850161278d565b6020830152506040612867848285016129d7565b604083015250606082013567ffffffffffffffff81111561288757600080fd5b6128938482850161278d565b606083015250608082013567ffffffffffffffff8111156128b357600080fd5b6128bf8482850161278d565b60808301525060a082013567ffffffffffffffff8111156128df57600080fd5b6128eb8482850161278d565b60a08301525060c082013567ffffffffffffffff81111561290b57600080fd5b6129178482850161278d565b60c08301525060e082013567ffffffffffffffff81111561293757600080fd5b6129438482850161278d565b60e08301525061010082013567ffffffffffffffff81111561296457600080fd5b61297084828501612739565b6101008301525061012061298684828501612724565b6101208301525061014061299c848285016129d7565b6101408301525061016082013567ffffffffffffffff8111156129be57600080fd5b6129ca8482850161278d565b6101608301525092915050565b6000813590506129e681613ad0565b92915050565b6000602082840312156129fe57600080fd5b6000612a0c84828501612724565b91505092915050565b600060208284031215612a2757600080fd5b6000612a3584828501612763565b91505092915050565b60008060408385031215612a5157600080fd5b6000612a5f85828601612763565b9250506020612a7085828601612724565b9150509250929050565b600060208284031215612a8c57600080fd5b6000612a9a84828501612778565b91505092915050565b600060208284031215612ab557600080fd5b600082013567ffffffffffffffff811115612acf57600080fd5b612adb8482850161278d565b91505092915050565b600060208284031215612af657600080fd5b600082015167ffffffffffffffff811115612b1057600080fd5b612b1c848285016127b7565b91505092915050565b600060208284031215612b3757600080fd5b600082013567ffffffffffffffff811115612b5157600080fd5b612b5d848285016127e1565b91505092915050565b600060208284031215612b7857600080fd5b6000612b86848285016129d7565b91505092915050565b6000612b9b8383612bcf565b60208301905092915050565b6000612bb38383612dc8565b905092915050565b6000612bc78383612f83565b905092915050565b612bd88161370c565b82525050565b612be78161370c565b82525050565b6000612bf882613598565b612c0281856135eb565b9350612c0d83613568565b8060005b83811015612c3e578151612c258882612b8f565b9750612c30836135c4565b925050600181019050612c11565b5085935050505092915050565b6000612c56826135a3565b612c6081856135fc565b935083602082028501612c7285613578565b8060005b85811015612cae5784840389528151612c8f8582612ba7565b9450612c9a836135d1565b925060208a01995050600181019050612c76565b50829750879550505050505092915050565b6000612ccb826135a3565b612cd5818561360d565b935083602082028501612ce785613578565b8060005b85811015612d235784840389528151612d048582612ba7565b9450612d0f836135d1565b925060208a01995050600181019050612ceb565b50829750879550505050505092915050565b6000612d40826135ae565b612d4a818561361e565b935083602082028501612d5c85613588565b8060005b85811015612d985784840389528151612d798582612bbb565b9450612d84836135de565b925060208a01995050600181019050612d60565b50829750879550505050505092915050565b612db38161371e565b82525050565b612dc28161372a565b82525050565b6000612dd3826135b9565b612ddd818561362f565b9350612ded818560208601613799565b612df6816138e6565b840191505092915050565b6000612e0c826135b9565b612e168185613640565b9350612e26818560208601613799565b612e2f816138e6565b840191505092915050565b6000612e45826135b9565b612e4f8185613651565b9350612e5f818560208601613799565b80840191505092915050565b6000612e78602083613640565b9150612e83826138f7565b602082019050919050565b6000612e9b602683613640565b9150612ea682613920565b604082019050919050565b6000612ebe602083613640565b9150612ec98261396f565b602082019050919050565b6000612ee1600683613651565b9150612eec82613998565b600682019050919050565b6000612f04601783613651565b9150612f0f826139c1565b601782019050919050565b6000612f27600583613651565b9150612f32826139ea565b600582019050919050565b6000612f4a601183613651565b9150612f5582613a13565b601182019050919050565b6000612f6d602f83613640565b9150612f7882613a3c565b604082019050919050565b6000610180830160008301518482036000860152612fa18282612dc8565b91505060208301518482036020860152612fbb8282612dc8565b9150506040830151612fd060408601826131fb565b5060608301518482036060860152612fe88282612dc8565b915050608083015184820360808601526130028282612dc8565b91505060a083015184820360a086015261301c8282612dc8565b91505060c083015184820360c08601526130368282612dc8565b91505060e083015184820360e08601526130508282612dc8565b91505061010083015184820361010086015261306c8282612c4b565b915050610120830151613083610120860182612bcf565b506101408301516130986101408601826131fb565b506101608301518482036101608601526130b28282612dc8565b9150508091505092915050565b60006101808301600083015184820360008601526130dd8282612dc8565b915050602083015184820360208601526130f78282612dc8565b915050604083015161310c60408601826131fb565b50606083015184820360608601526131248282612dc8565b9150506080830151848203608086015261313e8282612dc8565b91505060a083015184820360a08601526131588282612dc8565b91505060c083015184820360c08601526131728282612dc8565b91505060e083015184820360e086015261318c8282612dc8565b9150506101008301518482036101008601526131a88282612c4b565b9150506101208301516131bf610120860182612bcf565b506101408301516131d46101408601826131fb565b506101608301518482036101608601526131ee8282612dc8565b9150508091505092915050565b61320481613780565b82525050565b61321381613780565b82525050565b60006132258284612e3a565b915081905092915050565b600061323b82612ed4565b9150819050919050565b600061325082612ef7565b915061325c8285612e3a565b915061326782612f3d565b91506132738284612e3a565b91508190509392505050565b600061328a82612f1a565b9150819050919050565b60006020820190506132a96000830184612bde565b92915050565b600060208201905081810360008301526132c98184612bed565b905092915050565b600060208201905081810360008301526132eb8184612d35565b905092915050565b60006020820190506133086000830184612daa565b92915050565b60006020820190506133236000830184612db9565b92915050565b600060208201905081810360008301526133438184612e01565b905092915050565b6000610180820190508181036000830152613366818f612e01565b9050818103602083015261337a818e612e01565b9050613389604083018d61320a565b818103606083015261339b818c612e01565b905081810360808301526133af818b612e01565b905081810360a08301526133c3818a612e01565b905081810360c08301526133d78189612e01565b905081810360e08301526133eb8188612e01565b90508181036101008301526134008187612cc0565b9050613410610120830186612bde565b61341e61014083018561320a565b8181036101608301526134318184612e01565b90509d9c50505050505050505050505050565b6000602082019050818103600083015261345d81612e6b565b9050919050565b6000602082019050818103600083015261347d81612e8e565b9050919050565b6000602082019050818103600083015261349d81612eb1565b9050919050565b600060208201905081810360008301526134bd81612f60565b9050919050565b600060208201905081810360008301526134de81846130bf565b905092915050565b60006134f0613501565b90506134fc8282613828565b919050565b6000604051905090565b600067ffffffffffffffff821115613526576135256138b7565b5b602082029050602081019050919050565b600067ffffffffffffffff821115613552576135516138b7565b5b61355b826138e6565b9050602081019050919050565b6000819050602082019050919050565b6000819050602082019050919050565b6000819050602082019050919050565b600081519050919050565b600081519050919050565b600081519050919050565b600081519050919050565b6000602082019050919050565b6000602082019050919050565b6000602082019050919050565b600082825260208201905092915050565b600082825260208201905092915050565b600082825260208201905092915050565b600082825260208201905092915050565b600082825260208201905092915050565b600082825260208201905092915050565b600081905092915050565b600061366782613780565b915061367283613780565b9250827fffffffffffffffffffffffffffffffffffffffffffffffffffffffffffffffff038211156136a7576136a6613859565b5b828201905092915050565b60006136bd82613780565b91506136c883613780565b9250817fffffffffffffffffffffffffffffffffffffffffffffffffffffffffffffffff048311821515161561370157613700613859565b5b828202905092915050565b600061371782613760565b9050919050565b60008115159050919050565b6000819050919050565b60007fffffffff0000000000000000000000000000000000000000000000000000000082169050919050565b600073ffffffffffffffffffffffffffffffffffffffff82169050919050565b6000819050919050565b82818337600083830152505050565b60005b838110156137b757808201518184015260208101905061379c565b838111156137c6576000848401525b50505050565b60006137d782613780565b915060008214156137eb576137ea613859565b5b600182039050919050565b6000600282049050600182168061380e57607f821691505b6020821081141561382257613821613888565b5b50919050565b613831826138e6565b810181811067ffffffffffffffff821117156138505761384f6138b7565b5b80604052505050565b7f4e487b7100000000000000000000000000000000000000000000000000000000600052601160045260246000fd5b7f4e487b7100000000000000000000000000000000000000000000000000000000600052602260045260246000fd5b7f4e487b7100000000000000000000000000000000000000000000000000000000600052604160045260246000fd5b6000601f19601f8301169050919050565b7f537472696e67733a20686578206c656e67746820696e73756666696369656e74600082015250565b7f4f776e61626c653a206e6577206f776e657220697320746865207a65726f206160008201527f6464726573730000000000000000000000000000000000000000000000000000602082015250565b7f4f776e61626c653a2063616c6c6572206973206e6f7420746865206f776e6572600082015250565b7f444f43544f520000000000000000000000000000000000000000000000000000600082015250565b7f416363657373436f6e74726f6c3a206163636f756e7420000000000000000000600082015250565b7f41444d494e000000000000000000000000000000000000000000000000000000600082015250565b7f206973206d697373696e6720726f6c6520000000000000000000000000000000600082015250565b7f416363657373436f6e74726f6c3a2063616e206f6e6c792072656e6f756e636560008201527f20726f6c657320666f722073656c660000000000000000000000000000000000602082015250565b613a948161370c565b8114613a9f57600080fd5b50565b613aab8161372a565b8114613ab657600080fd5b50565b613ac281613734565b8114613acd57600080fd5b50565b613ad981613780565b8114613ae457600080fd5b5056fea26469706673582212203d001e80c818cf8b02069cf01bc37db82d1d780bdba1daea5fd3cbdf24cdb50c64736f6c63430008040033",
  "immutableReferences": {},
  "source": "pragma solidity  0.8.4;\r\n\r\nimport \"@openzeppelin/contracts/access/Ownable.sol\";\r\nimport \"@openzeppelin/contracts/access/AccessControl.sol\";\r\nimport \"./Registration.sol\";\r\n\r\ncontract Hospitals is Ownable, AccessControl{\r\n\r\n    struct Doctor {\r\n        string firstName;\r\n        string lastName;\r\n        uint birthDate;\r\n        string gender;\r\n        string country;\r\n        string city;\r\n        string hospital;\r\n        string specialization;\r\n        string[] skills;\r\n        address walletAddress;\r\n        uint cnp;\r\n        string _profileHash;\r\n    }\r\n\r\n    event DoctorAdd(\r\n        string firstName,\r\n        string lastName,\r\n        uint birthDate,\r\n        string gender,\r\n        string country,\r\n        string city,\r\n        string hospital,\r\n        string specialization,\r\n        string[] skills,\r\n        address walletAddress,\r\n        uint cnp,\r\n        string _profileHash\r\n    );\r\n\r\n    Registration _registration;\r\n\r\n    mapping(string => Doctor[]) doctorsInHospital;\r\n    mapping(address => Doctor) doctors;\r\n    address[] public doctorsAccounts;\r\n    mapping(address => string) encryptionPublicKeys;\r\n\r\n    constructor(address registrationA) public {\r\n        _registration = Registration(registrationA);\r\n    }\r\n\r\n    modifier onlyAdmin {\r\n      require(keccak256(abi.encodePacked((_registration.getRole(tx.origin)))) == keccak256(abi.encodePacked((\"ADMIN\"))));\r\n      _;\r\n    }\r\n    modifier onlyPatient {\r\n        require(keccak256(abi.encodePacked((_registration.getRole(tx.origin)))) == keccak256(abi.encodePacked((\"PATIENT\"))));\r\n        _;\r\n    }\r\n    modifier onlyMedicalResearcher {\r\n        require(keccak256(abi.encodePacked((_registration.getRole(tx.origin)))) == keccak256(abi.encodePacked((\"RESEARCHER\"))));\r\n        _;\r\n    }\r\n    modifier onlyDoctor {\r\n        require(keccak256(abi.encodePacked((_registration.getRole(tx.origin)))) == keccak256(abi.encodePacked((\"DOCTOR\"))));\r\n        _;\r\n    }\r\n\r\n    function addDoctorToSystem(Doctor memory doc) public onlyAdmin{\r\n        doctors[doc.walletAddress] = doc;\r\n        doctorsAccounts.push(doc.walletAddress);\r\n        _registration.addDoctor(doc.walletAddress);\r\n        doctorsInHospital[doc.hospital].push(doctors[doc.walletAddress]);\r\n\r\n        emit DoctorAdd(doc.firstName, doc.lastName, doc.birthDate, doc.gender, doc.country, doc.city, doc.hospital,\r\n        doc.specialization, doc.skills, doc.walletAddress, doc.cnp, doc._profileHash);\r\n    }\r\n\r\n    function getDoctors() view public returns(address[] memory){\r\n        return doctorsAccounts;\r\n    }\r\n\r\n    function getDoctorsInAHospital(string memory hospital) view public returns(Doctor[] memory){\r\n        return doctorsInHospital[hospital];\r\n    }\r\n\r\n    function getDoctor(address _address) view public returns (Doctor memory){\r\n        return doctors[_address];\r\n    }\r\n\r\n    function addEncryptionKey(string memory encryptionPublicKey) public onlyDoctor{\r\n        encryptionPublicKeys[msg.sender] = encryptionPublicKey;\r\n    }\r\n\r\n    function getEncryptionPublicKey(address _address) public returns(string memory){\r\n        return encryptionPublicKeys[_address];\r\n    }\r\n}",
  "sourcePath": "C:/Licenta/Licenta/src/contracts/Hospitals.sol",
  "compiler": {
    "name": "solc",
    "version": "0.8.4+commit.c7e474f2.Emscripten.clang"
  },
  "schemaVersion": "3.2.3",
  "updatedAt": "2022-06-26T20:15:36.255Z",
  "networkType": "ethereum",
  "devdoc": {
    "kind": "dev",
    "methods": {
      "getRoleAdmin(bytes32)": {
        "details": "Returns the admin role that controls `role`. See {grantRole} and {revokeRole}. To change a role's admin, use {_setRoleAdmin}."
      },
      "grantRole(bytes32,address)": {
        "details": "Grants `role` to `account`. If `account` had not been already granted `role`, emits a {RoleGranted} event. Requirements: - the caller must have ``role``'s admin role."
      },
      "hasRole(bytes32,address)": {
        "details": "Returns `true` if `account` has been granted `role`."
      },
      "owner()": {
        "details": "Returns the address of the current owner."
      },
      "renounceOwnership()": {
        "details": "Leaves the contract without owner. It will not be possible to call `onlyOwner` functions anymore. Can only be called by the current owner. NOTE: Renouncing ownership will leave the contract without an owner, thereby removing any functionality that is only available to the owner."
      },
      "renounceRole(bytes32,address)": {
        "details": "Revokes `role` from the calling account. Roles are often managed via {grantRole} and {revokeRole}: this function's purpose is to provide a mechanism for accounts to lose their privileges if they are compromised (such as when a trusted device is misplaced). If the calling account had been revoked `role`, emits a {RoleRevoked} event. Requirements: - the caller must be `account`."
      },
      "revokeRole(bytes32,address)": {
        "details": "Revokes `role` from `account`. If `account` had been granted `role`, emits a {RoleRevoked} event. Requirements: - the caller must have ``role``'s admin role."
      },
      "supportsInterface(bytes4)": {
        "details": "See {IERC165-supportsInterface}."
      },
      "transferOwnership(address)": {
        "details": "Transfers ownership of the contract to a new account (`newOwner`). Can only be called by the current owner."
      }
    },
    "version": 1
  },
  "userdoc": {
    "kind": "user",
    "methods": {},
    "version": 1
  }
}