{
  "contractName": "Hospitals",
  "abi": [
    {
      "inputs": [
        {
          "internalType": "address",
          "name": "registrationA",
          "type": "address"
        }
      ],
      "stateMutability": "nonpayable",
      "type": "constructor"
    },
    {
      "anonymous": false,
      "inputs": [
        {
          "indexed": false,
          "internalType": "string",
          "name": "firstName",
          "type": "string"
        },
        {
          "indexed": false,
          "internalType": "string",
          "name": "lastName",
          "type": "string"
        },
        {
          "indexed": false,
          "internalType": "uint256",
          "name": "birthDate",
          "type": "uint256"
        },
        {
          "indexed": false,
          "internalType": "string",
          "name": "gender",
          "type": "string"
        },
        {
          "indexed": false,
          "internalType": "string",
          "name": "country",
          "type": "string"
        },
        {
          "indexed": false,
          "internalType": "string",
          "name": "city",
          "type": "string"
        },
        {
          "indexed": false,
          "internalType": "string",
          "name": "hospital",
          "type": "string"
        },
        {
          "indexed": false,
          "internalType": "string",
          "name": "specialization",
          "type": "string"
        },
        {
          "indexed": false,
          "internalType": "string[]",
          "name": "skills",
          "type": "string[]"
        },
        {
          "indexed": false,
          "internalType": "address",
          "name": "walletAddress",
          "type": "address"
        },
        {
          "indexed": false,
          "internalType": "uint256",
          "name": "cnp",
          "type": "uint256"
        },
        {
          "indexed": false,
          "internalType": "string",
          "name": "_profileHash",
          "type": "string"
        }
      ],
      "name": "DoctorAdd",
      "type": "event"
    },
    {
      "anonymous": false,
      "inputs": [
        {
          "indexed": true,
          "internalType": "address",
          "name": "previousOwner",
          "type": "address"
        },
        {
          "indexed": true,
          "internalType": "address",
          "name": "newOwner",
          "type": "address"
        }
      ],
      "name": "OwnershipTransferred",
      "type": "event"
    },
    {
      "anonymous": false,
      "inputs": [
        {
          "indexed": true,
          "internalType": "bytes32",
          "name": "role",
          "type": "bytes32"
        },
        {
          "indexed": true,
          "internalType": "bytes32",
          "name": "previousAdminRole",
          "type": "bytes32"
        },
        {
          "indexed": true,
          "internalType": "bytes32",
          "name": "newAdminRole",
          "type": "bytes32"
        }
      ],
      "name": "RoleAdminChanged",
      "type": "event"
    },
    {
      "anonymous": false,
      "inputs": [
        {
          "indexed": true,
          "internalType": "bytes32",
          "name": "role",
          "type": "bytes32"
        },
        {
          "indexed": true,
          "internalType": "address",
          "name": "account",
          "type": "address"
        },
        {
          "indexed": true,
          "internalType": "address",
          "name": "sender",
          "type": "address"
        }
      ],
      "name": "RoleGranted",
      "type": "event"
    },
    {
      "anonymous": false,
      "inputs": [
        {
          "indexed": true,
          "internalType": "bytes32",
          "name": "role",
          "type": "bytes32"
        },
        {
          "indexed": true,
          "internalType": "address",
          "name": "account",
          "type": "address"
        },
        {
          "indexed": true,
          "internalType": "address",
          "name": "sender",
          "type": "address"
        }
      ],
      "name": "RoleRevoked",
      "type": "event"
    },
    {
      "inputs": [],
      "name": "DEFAULT_ADMIN_ROLE",
      "outputs": [
        {
          "internalType": "bytes32",
          "name": "",
          "type": "bytes32"
        }
      ],
      "stateMutability": "view",
      "type": "function",
      "constant": true
    },
    {
      "inputs": [
        {
          "internalType": "uint256",
          "name": "",
          "type": "uint256"
        }
      ],
      "name": "doctorsAccounts",
      "outputs": [
        {
          "internalType": "address",
          "name": "",
          "type": "address"
        }
      ],
      "stateMutability": "view",
      "type": "function",
      "constant": true
    },
    {
      "inputs": [
        {
          "internalType": "bytes32",
          "name": "role",
          "type": "bytes32"
        }
      ],
      "name": "getRoleAdmin",
      "outputs": [
        {
          "internalType": "bytes32",
          "name": "",
          "type": "bytes32"
        }
      ],
      "stateMutability": "view",
      "type": "function",
      "constant": true
    },
    {
      "inputs": [
        {
          "internalType": "bytes32",
          "name": "role",
          "type": "bytes32"
        },
        {
          "internalType": "address",
          "name": "account",
          "type": "address"
        }
      ],
      "name": "grantRole",
      "outputs": [],
      "stateMutability": "nonpayable",
      "type": "function"
    },
    {
      "inputs": [
        {
          "internalType": "bytes32",
          "name": "role",
          "type": "bytes32"
        },
        {
          "internalType": "address",
          "name": "account",
          "type": "address"
        }
      ],
      "name": "hasRole",
      "outputs": [
        {
          "internalType": "bool",
          "name": "",
          "type": "bool"
        }
      ],
      "stateMutability": "view",
      "type": "function",
      "constant": true
    },
    {
      "inputs": [],
      "name": "owner",
      "outputs": [
        {
          "internalType": "address",
          "name": "",
          "type": "address"
        }
      ],
      "stateMutability": "view",
      "type": "function",
      "constant": true
    },
    {
      "inputs": [],
      "name": "renounceOwnership",
      "outputs": [],
      "stateMutability": "nonpayable",
      "type": "function"
    },
    {
      "inputs": [
        {
          "internalType": "bytes32",
          "name": "role",
          "type": "bytes32"
        },
        {
          "internalType": "address",
          "name": "account",
          "type": "address"
        }
      ],
      "name": "renounceRole",
      "outputs": [],
      "stateMutability": "nonpayable",
      "type": "function"
    },
    {
      "inputs": [
        {
          "internalType": "bytes32",
          "name": "role",
          "type": "bytes32"
        },
        {
          "internalType": "address",
          "name": "account",
          "type": "address"
        }
      ],
      "name": "revokeRole",
      "outputs": [],
      "stateMutability": "nonpayable",
      "type": "function"
    },
    {
      "inputs": [
        {
          "internalType": "bytes4",
          "name": "interfaceId",
          "type": "bytes4"
        }
      ],
      "name": "supportsInterface",
      "outputs": [
        {
          "internalType": "bool",
          "name": "",
          "type": "bool"
        }
      ],
      "stateMutability": "view",
      "type": "function",
      "constant": true
    },
    {
      "inputs": [
        {
          "internalType": "address",
          "name": "newOwner",
          "type": "address"
        }
      ],
      "name": "transferOwnership",
      "outputs": [],
      "stateMutability": "nonpayable",
      "type": "function"
    },
    {
      "inputs": [
        {
          "components": [
            {
              "internalType": "string",
              "name": "firstName",
              "type": "string"
            },
            {
              "internalType": "string",
              "name": "lastName",
              "type": "string"
            },
            {
              "internalType": "uint256",
              "name": "birthDate",
              "type": "uint256"
            },
            {
              "internalType": "string",
              "name": "gender",
              "type": "string"
            },
            {
              "internalType": "string",
              "name": "country",
              "type": "string"
            },
            {
              "internalType": "string",
              "name": "city",
              "type": "string"
            },
            {
              "internalType": "string",
              "name": "hospital",
              "type": "string"
            },
            {
              "internalType": "string",
              "name": "specialization",
              "type": "string"
            },
            {
              "internalType": "string[]",
              "name": "skills",
              "type": "string[]"
            },
            {
              "internalType": "address",
              "name": "walletAddress",
              "type": "address"
            },
            {
              "internalType": "uint256",
              "name": "cnp",
              "type": "uint256"
            },
            {
              "internalType": "string",
              "name": "_profileHash",
              "type": "string"
            }
          ],
          "internalType": "struct Hospitals.Doctor",
          "name": "doc",
          "type": "tuple"
        }
      ],
      "name": "addDoctorToSystem",
      "outputs": [],
      "stateMutability": "nonpayable",
      "type": "function"
    },
    {
      "inputs": [],
      "name": "getDoctors",
      "outputs": [
        {
          "internalType": "address[]",
          "name": "",
          "type": "address[]"
        }
      ],
      "stateMutability": "view",
      "type": "function",
      "constant": true
    },
    {
      "inputs": [
        {
          "internalType": "string",
          "name": "hospital",
          "type": "string"
        }
      ],
      "name": "getDoctorsInAHospital",
      "outputs": [
        {
          "components": [
            {
              "internalType": "string",
              "name": "firstName",
              "type": "string"
            },
            {
              "internalType": "string",
              "name": "lastName",
              "type": "string"
            },
            {
              "internalType": "uint256",
              "name": "birthDate",
              "type": "uint256"
            },
            {
              "internalType": "string",
              "name": "gender",
              "type": "string"
            },
            {
              "internalType": "string",
              "name": "country",
              "type": "string"
            },
            {
              "internalType": "string",
              "name": "city",
              "type": "string"
            },
            {
              "internalType": "string",
              "name": "hospital",
              "type": "string"
            },
            {
              "internalType": "string",
              "name": "specialization",
              "type": "string"
            },
            {
              "internalType": "string[]",
              "name": "skills",
              "type": "string[]"
            },
            {
              "internalType": "address",
              "name": "walletAddress",
              "type": "address"
            },
            {
              "internalType": "uint256",
              "name": "cnp",
              "type": "uint256"
            },
            {
              "internalType": "string",
              "name": "_profileHash",
              "type": "string"
            }
          ],
          "internalType": "struct Hospitals.Doctor[]",
          "name": "",
          "type": "tuple[]"
        }
      ],
      "stateMutability": "view",
      "type": "function",
      "constant": true
    },
    {
      "inputs": [
        {
          "internalType": "address",
          "name": "_address",
          "type": "address"
        }
      ],
      "name": "getDoctor",
      "outputs": [
        {
          "components": [
            {
              "internalType": "string",
              "name": "firstName",
              "type": "string"
            },
            {
              "internalType": "string",
              "name": "lastName",
              "type": "string"
            },
            {
              "internalType": "uint256",
              "name": "birthDate",
              "type": "uint256"
            },
            {
              "internalType": "string",
              "name": "gender",
              "type": "string"
            },
            {
              "internalType": "string",
              "name": "country",
              "type": "string"
            },
            {
              "internalType": "string",
              "name": "city",
              "type": "string"
            },
            {
              "internalType": "string",
              "name": "hospital",
              "type": "string"
            },
            {
              "internalType": "string",
              "name": "specialization",
              "type": "string"
            },
            {
              "internalType": "string[]",
              "name": "skills",
              "type": "string[]"
            },
            {
              "internalType": "address",
              "name": "walletAddress",
              "type": "address"
            },
            {
              "internalType": "uint256",
              "name": "cnp",
              "type": "uint256"
            },
            {
              "internalType": "string",
              "name": "_profileHash",
              "type": "string"
            }
          ],
          "internalType": "struct Hospitals.Doctor",
          "name": "",
          "type": "tuple"
        }
      ],
      "stateMutability": "view",
      "type": "function",
      "constant": true
    },
    {
      "inputs": [
        {
          "internalType": "string",
          "name": "encryptionPublicKey",
          "type": "string"
        }
      ],
      "name": "addEncryptionKey",
      "outputs": [],
      "stateMutability": "nonpayable",
      "type": "function"
    },
    {
      "inputs": [
        {
          "internalType": "address",
          "name": "_address",
          "type": "address"
        }
      ],
      "name": "getEncryptionPublicKey",
      "outputs": [
        {
          "internalType": "string",
          "name": "",
          "type": "string"
        }
      ],
      "stateMutability": "nonpayable",
      "type": "function"
    }
  ],
  "bytecode": "0x60806040523480156200001157600080fd5b5060405162003d2d38038062003d2d833981810160405281019062000037919062000182565b620000576200004b6200009f60201b60201c565b620000a760201b60201c565b80600260006101000a81548173ffffffffffffffffffffffffffffffffffffffff021916908373ffffffffffffffffffffffffffffffffffffffff16021790555050620001fc565b600033905090565b60008060009054906101000a900473ffffffffffffffffffffffffffffffffffffffff169050816000806101000a81548173ffffffffffffffffffffffffffffffffffffffff021916908373ffffffffffffffffffffffffffffffffffffffff1602179055508173ffffffffffffffffffffffffffffffffffffffff168173ffffffffffffffffffffffffffffffffffffffff167f8be0079c531659141344cd1fd0a4f28419497f9722a3daafe3b4186f6b6457e060405160405180910390a35050565b6000815190506200017c81620001e2565b92915050565b6000602082840312156200019557600080fd5b6000620001a5848285016200016b565b91505092915050565b6000620001bb82620001c2565b9050919050565b600073ffffffffffffffffffffffffffffffffffffffff82169050919050565b620001ed81620001ae565b8114620001f957600080fd5b50565b613b21806200020c6000396000f3fe608060405234801561001057600080fd5b506004361061010b5760003560e01c8063715018a6116100a257806391d148541161007157806391d14854146102c8578063a217fddf146102f8578063b13d5d9414610316578063d547741f14610334578063f2fde38b146103505761010b565b8063715018a6146102405780637d9f7b191461024a57806386ba5fcd1461027a5780638da5cb5b146102aa5761010b565b80632f2ff15d116100de5780632f2ff15d146101bc57806333fff834146101d857806336568abe146102085780634d69fd3b146102245761010b565b806301ffc9a7146101105780630f8d66c414610140578063248a9ca31461015c5780632f04e0641461018c575b600080fd5b61012a60048036038101906101259190612a7e565b61036c565b60405161013791906132f7565b60405180910390f35b61015a60048036038101906101559190612aa7565b6103e6565b005b61017660048036038101906101719190612a19565b610542565b6040516101839190613312565b60405180910390f35b6101a660048036038101906101a191906129f0565b610562565b6040516101b391906134c8565b60405180910390f35b6101d660048036038101906101d19190612a42565b610b8f565b005b6101f260048036038101906101ed9190612b6a565b610bb0565b6040516101ff9190613298565b60405180910390f35b610222600480360381019061021d9190612a42565b610bef565b005b61023e60048036038101906102399190612b29565b610c72565b005b6102486112c4565b005b610264600480360381019061025f91906129f0565b61134c565b604051610271919061332d565b60405180910390f35b610294600480360381019061028f9190612aa7565b61141d565b6040516102a191906132d5565b60405180910390f35b6102b2611a6e565b6040516102bf9190613298565b60405180910390f35b6102e260048036038101906102dd9190612a42565b611a97565b6040516102ef91906132f7565b60405180910390f35b610300611b02565b60405161030d9190613312565b60405180910390f35b61031e611b09565b60405161032b91906132b3565b60405180910390f35b61034e60048036038101906103499190612a42565b611b97565b005b61036a600480360381019061036591906129f0565b611bb8565b005b60007f7965db0b000000000000000000000000000000000000000000000000000000007bffffffffffffffffffffffffffffffffffffffffffffffffffffffff1916827bffffffffffffffffffffffffffffffffffffffffffffffffffffffff191614806103df57506103de82611cb0565b5b9050919050565b6040516020016103f590613234565b60405160208183030381529060405280519060200120600260009054906101000a900473ffffffffffffffffffffffffffffffffffffffff1673ffffffffffffffffffffffffffffffffffffffff166344276733326040518263ffffffff1660e01b81526004016104669190613298565b60006040518083038186803b15801561047e57600080fd5b505afa158015610492573d6000803e3d6000fd5b505050506040513d6000823e3d601f19601f820116820180604052508101906104bb9190612ae8565b6040516020016104cb919061321d565b60405160208183030381529060405280519060200120146104eb57600080fd5b80600660003373ffffffffffffffffffffffffffffffffffffffff1673ffffffffffffffffffffffffffffffffffffffff168152602001908152602001600020908051906020019061053e929190612353565b5050565b600060016000838152602001908152602001600020600101549050919050565b61056a6123d9565b600460008373ffffffffffffffffffffffffffffffffffffffff1673ffffffffffffffffffffffffffffffffffffffff168152602001908152602001600020604051806101800160405290816000820180546105c5906137fa565b80601f01602080910402602001604051908101604052809291908181526020018280546105f1906137fa565b801561063e5780601f106106135761010080835404028352916020019161063e565b820191906000526020600020905b81548152906001019060200180831161062157829003601f168201915b50505050508152602001600182018054610657906137fa565b80601f0160208091040260200160405190810160405280929190818152602001828054610683906137fa565b80156106d05780601f106106a5576101008083540402835291602001916106d0565b820191906000526020600020905b8154815290600101906020018083116106b357829003601f168201915b50505050508152602001600282015481526020016003820180546106f3906137fa565b80601f016020809104026020016040519081016040528092919081815260200182805461071f906137fa565b801561076c5780601f106107415761010080835404028352916020019161076c565b820191906000526020600020905b81548152906001019060200180831161074f57829003601f168201915b50505050508152602001600482018054610785906137fa565b80601f01602080910402602001604051908101604052809291908181526020018280546107b1906137fa565b80156107fe5780601f106107d3576101008083540402835291602001916107fe565b820191906000526020600020905b8154815290600101906020018083116107e157829003601f168201915b50505050508152602001600582018054610817906137fa565b80601f0160208091040260200160405190810160405280929190818152602001828054610843906137fa565b80156108905780601f1061086557610100808354040283529160200191610890565b820191906000526020600020905b81548152906001019060200180831161087357829003601f168201915b505050505081526020016006820180546108a9906137fa565b80601f01602080910402602001604051908101604052809291908181526020018280546108d5906137fa565b80156109225780601f106108f757610100808354040283529160200191610922565b820191906000526020600020905b81548152906001019060200180831161090557829003601f168201915b5050505050815260200160078201805461093b906137fa565b80601f0160208091040260200160405190810160405280929190818152602001828054610967906137fa565b80156109b45780601f10610989576101008083540402835291602001916109b4565b820191906000526020600020905b81548152906001019060200180831161099757829003601f168201915b5050505050815260200160088201805480602002602001604051908101604052809291908181526020016000905b82821015610a8e578382906000526020600020018054610a01906137fa565b80601f0160208091040260200160405190810160405280929190818152602001828054610a2d906137fa565b8015610a7a5780601f10610a4f57610100808354040283529160200191610a7a565b820191906000526020600020905b815481529060010190602001808311610a5d57829003601f168201915b5050505050815260200190600101906109e2565b5050505081526020016009820160009054906101000a900473ffffffffffffffffffffffffffffffffffffffff1673ffffffffffffffffffffffffffffffffffffffff1673ffffffffffffffffffffffffffffffffffffffff168152602001600a8201548152602001600b82018054610b06906137fa565b80601f0160208091040260200160405190810160405280929190818152602001828054610b32906137fa565b8015610b7f5780601f10610b5457610100808354040283529160200191610b7f565b820191906000526020600020905b815481529060010190602001808311610b6257829003601f168201915b5050505050815250509050919050565b610b9882610542565b610ba181611d1a565b610bab8383611d2e565b505050565b60058181548110610bc057600080fd5b906000526020600020016000915054906101000a900473ffffffffffffffffffffffffffffffffffffffff1681565b610bf7611e0e565b73ffffffffffffffffffffffffffffffffffffffff168173ffffffffffffffffffffffffffffffffffffffff1614610c64576040517f08c379a0000000000000000000000000000000000000000000000000000000008152600401610c5b906134a8565b60405180910390fd5b610c6e8282611e16565b5050565b604051602001610c8190613283565b60405160208183030381529060405280519060200120600260009054906101000a900473ffffffffffffffffffffffffffffffffffffffff1673ffffffffffffffffffffffffffffffffffffffff166344276733326040518263ffffffff1660e01b8152600401610cf29190613298565b60006040518083038186803b158015610d0a57600080fd5b505afa158015610d1e573d6000803e3d6000fd5b505050506040513d6000823e3d601f19601f82011682018060405250810190610d479190612ae8565b604051602001610d57919061321d565b6040516020818303038152906040528051906020012014610d7757600080fd5b806004600083610120015173ffffffffffffffffffffffffffffffffffffffff1673ffffffffffffffffffffffffffffffffffffffff1681526020019081526020016000206000820151816000019080519060200190610dd8929190612353565b506020820151816001019080519060200190610df5929190612353565b50604082015181600201556060820151816003019080519060200190610e1c929190612353565b506080820151816004019080519060200190610e39929190612353565b5060a0820151816005019080519060200190610e56929190612353565b5060c0820151816006019080519060200190610e73929190612353565b5060e0820151816007019080519060200190610e90929190612353565b50610100820151816008019080519060200190610eae929190612450565b506101208201518160090160006101000a81548173ffffffffffffffffffffffffffffffffffffffff021916908373ffffffffffffffffffffffffffffffffffffffff16021790555061014082015181600a015561016082015181600b019080519060200190610f1f929190612353565b5090505060058161012001519080600181540180825580915050600190039060005260206000200160009091909190916101000a81548173ffffffffffffffffffffffffffffffffffffffff021916908373ffffffffffffffffffffffffffffffffffffffff160217905550600260009054906101000a900473ffffffffffffffffffffffffffffffffffffffff1673ffffffffffffffffffffffffffffffffffffffff16634780468f8261012001516040518263ffffffff1660e01b8152600401610feb9190613298565b600060405180830381600087803b15801561100557600080fd5b505af1158015611019573d6000803e3d6000fd5b5050505060038160c00151604051611031919061321d565b90815260200160405180910390206004600083610120015173ffffffffffffffffffffffffffffffffffffffff1673ffffffffffffffffffffffffffffffffffffffff16815260200190815260200160002090806001815401808255809150506001900390600052602060002090600c020160009091909190915060008201816000019080546110c0906137fa565b6110cb9291906124b0565b5060018201816001019080546110e0906137fa565b6110eb9291906124b0565b5060028201548160020155600382018160030190805461110a906137fa565b6111159291906124b0565b50600482018160040190805461112a906137fa565b6111359291906124b0565b50600582018160050190805461114a906137fa565b6111559291906124b0565b50600682018160060190805461116a906137fa565b6111759291906124b0565b50600782018160070190805461118a906137fa565b6111959291906124b0565b5060088201816008019080546111ac92919061253d565b506009820160009054906101000a900473ffffffffffffffffffffffffffffffffffffffff168160090160006101000a81548173ffffffffffffffffffffffffffffffffffffffff021916908373ffffffffffffffffffffffffffffffffffffffff160217905550600a82015481600a0155600b820181600b01908054611232906137fa565b61123d9291906124b0565b5050507f6de443a130019ea936f85998b3cd988234c2406f4615105f328e80fab539f206816000015182602001518360400151846060015185608001518660a001518760c001518860e001518961010001518a61012001518b61014001518c61016001516040516112b99c9b9a9998979695949392919061334f565b60405180910390a150565b6112cc611e0e565b73ffffffffffffffffffffffffffffffffffffffff166112ea611a6e565b73ffffffffffffffffffffffffffffffffffffffff1614611340576040517f08c379a000000000000000000000000000000000000000000000000000000000815260040161133790613488565b60405180910390fd5b61134a6000611ef8565b565b6060600660008373ffffffffffffffffffffffffffffffffffffffff1673ffffffffffffffffffffffffffffffffffffffff1681526020019081526020016000208054611398906137fa565b80601f01602080910402602001604051908101604052809291908181526020018280546113c4906137fa565b80156114115780601f106113e657610100808354040283529160200191611411565b820191906000526020600020905b8154815290600101906020018083116113f457829003601f168201915b50505050509050919050565b606060038260405161142f919061321d565b9081526020016040518091039020805480602002602001604051908101604052809291908181526020016000905b82821015611a6357838290600052602060002090600c020160405180610180016040529081600082018054611491906137fa565b80601f01602080910402602001604051908101604052809291908181526020018280546114bd906137fa565b801561150a5780601f106114df5761010080835404028352916020019161150a565b820191906000526020600020905b8154815290600101906020018083116114ed57829003601f168201915b50505050508152602001600182018054611523906137fa565b80601f016020809104026020016040519081016040528092919081815260200182805461154f906137fa565b801561159c5780601f106115715761010080835404028352916020019161159c565b820191906000526020600020905b81548152906001019060200180831161157f57829003601f168201915b50505050508152602001600282015481526020016003820180546115bf906137fa565b80601f01602080910402602001604051908101604052809291908181526020018280546115eb906137fa565b80156116385780601f1061160d57610100808354040283529160200191611638565b820191906000526020600020905b81548152906001019060200180831161161b57829003601f168201915b50505050508152602001600482018054611651906137fa565b80601f016020809104026020016040519081016040528092919081815260200182805461167d906137fa565b80156116ca5780601f1061169f576101008083540402835291602001916116ca565b820191906000526020600020905b8154815290600101906020018083116116ad57829003601f168201915b505050505081526020016005820180546116e3906137fa565b80601f016020809104026020016040519081016040528092919081815260200182805461170f906137fa565b801561175c5780601f106117315761010080835404028352916020019161175c565b820191906000526020600020905b81548152906001019060200180831161173f57829003601f168201915b50505050508152602001600682018054611775906137fa565b80601f01602080910402602001604051908101604052809291908181526020018280546117a1906137fa565b80156117ee5780601f106117c3576101008083540402835291602001916117ee565b820191906000526020600020905b8154815290600101906020018083116117d157829003601f168201915b50505050508152602001600782018054611807906137fa565b80601f0160208091040260200160405190810160405280929190818152602001828054611833906137fa565b80156118805780601f1061185557610100808354040283529160200191611880565b820191906000526020600020905b81548152906001019060200180831161186357829003601f168201915b5050505050815260200160088201805480602002602001604051908101604052809291908181526020016000905b8282101561195a5783829060005260206000200180546118cd906137fa565b80601f01602080910402602001604051908101604052809291908181526020018280546118f9906137fa565b80156119465780601f1061191b57610100808354040283529160200191611946565b820191906000526020600020905b81548152906001019060200180831161192957829003601f168201915b5050505050815260200190600101906118ae565b5050505081526020016009820160009054906101000a900473ffffffffffffffffffffffffffffffffffffffff1673ffffffffffffffffffffffffffffffffffffffff1673ffffffffffffffffffffffffffffffffffffffff168152602001600a8201548152602001600b820180546119d2906137fa565b80601f01602080910402602001604051908101604052809291908181526020018280546119fe906137fa565b8015611a4b5780601f10611a2057610100808354040283529160200191611a4b565b820191906000526020600020905b815481529060010190602001808311611a2e57829003601f168201915b5050505050815250508152602001906001019061145d565b505050509050919050565b60008060009054906101000a900473ffffffffffffffffffffffffffffffffffffffff16905090565b60006001600084815260200190815260200160002060000160008373ffffffffffffffffffffffffffffffffffffffff1673ffffffffffffffffffffffffffffffffffffffff16815260200190815260200160002060009054906101000a900460ff16905092915050565b6000801b81565b60606005805480602002602001604051908101604052809291908181526020018280548015611b8d57602002820191906000526020600020905b8160009054906101000a900473ffffffffffffffffffffffffffffffffffffffff1673ffffffffffffffffffffffffffffffffffffffff1681526020019060010190808311611b43575b5050505050905090565b611ba082610542565b611ba981611d1a565b611bb38383611e16565b505050565b611bc0611e0e565b73ffffffffffffffffffffffffffffffffffffffff16611bde611a6e565b73ffffffffffffffffffffffffffffffffffffffff1614611c34576040517f08c379a0000000000000000000000000000000000000000000000000000000008152600401611c2b90613488565b60405180910390fd5b600073ffffffffffffffffffffffffffffffffffffffff168173ffffffffffffffffffffffffffffffffffffffff161415611ca4576040517f08c379a0000000000000000000000000000000000000000000000000000000008152600401611c9b90613468565b60405180910390fd5b611cad81611ef8565b50565b60007f01ffc9a7000000000000000000000000000000000000000000000000000000007bffffffffffffffffffffffffffffffffffffffffffffffffffffffff1916827bffffffffffffffffffffffffffffffffffffffffffffffffffffffff1916149050919050565b611d2b81611d26611e0e565b611fbc565b50565b611d388282611a97565b611e0a57600180600084815260200190815260200160002060000160008373ffffffffffffffffffffffffffffffffffffffff1673ffffffffffffffffffffffffffffffffffffffff16815260200190815260200160002060006101000a81548160ff021916908315150217905550611daf611e0e565b73ffffffffffffffffffffffffffffffffffffffff168173ffffffffffffffffffffffffffffffffffffffff16837f2f8788117e7eff1d82e926ec794901d17c78024a50270940304540a733656f0d60405160405180910390a45b5050565b600033905090565b611e208282611a97565b15611ef45760006001600084815260200190815260200160002060000160008373ffffffffffffffffffffffffffffffffffffffff1673ffffffffffffffffffffffffffffffffffffffff16815260200190815260200160002060006101000a81548160ff021916908315150217905550611e99611e0e565b73ffffffffffffffffffffffffffffffffffffffff168173ffffffffffffffffffffffffffffffffffffffff16837ff6391f5c32d9c69d2a47ea670b442974b53935d1edc7fd64eb21e047a839171b60405160405180910390a45b5050565b60008060009054906101000a900473ffffffffffffffffffffffffffffffffffffffff169050816000806101000a81548173ffffffffffffffffffffffffffffffffffffffff021916908373ffffffffffffffffffffffffffffffffffffffff1602179055508173ffffffffffffffffffffffffffffffffffffffff168173ffffffffffffffffffffffffffffffffffffffff167f8be0079c531659141344cd1fd0a4f28419497f9722a3daafe3b4186f6b6457e060405160405180910390a35050565b611fc68282611a97565b61205557611feb8173ffffffffffffffffffffffffffffffffffffffff166014612059565b611ff98360001c6020612059565b60405160200161200a929190613249565b6040516020818303038152906040526040517f08c379a000000000000000000000000000000000000000000000000000000000815260040161204c919061332d565b60405180910390fd5b5050565b60606000600283600261206c91906136b6565b6120769190613660565b67ffffffffffffffff8111156120b5577f4e487b7100000000000000000000000000000000000000000000000000000000600052604160045260246000fd5b6040519080825280601f01601f1916602001820160405280156120e75781602001600182028036833780820191505090505b5090507f300000000000000000000000000000000000000000000000000000000000000081600081518110612145577f4e487b7100000000000000000000000000000000000000000000000000000000600052603260045260246000fd5b60200101907effffffffffffffffffffffffffffffffffffffffffffffffffffffffffffff1916908160001a9053507f7800000000000000000000000000000000000000000000000000000000000000816001815181106121cf577f4e487b7100000000000000000000000000000000000000000000000000000000600052603260045260246000fd5b60200101907effffffffffffffffffffffffffffffffffffffffffffffffffffffffffffff1916908160001a9053506000600184600261220f91906136b6565b6122199190613660565b90505b6001811115612305577f3031323334353637383961626364656600000000000000000000000000000000600f861660108110612281577f4e487b7100000000000000000000000000000000000000000000000000000000600052603260045260246000fd5b1a60f81b8282815181106122be577f4e487b7100000000000000000000000000000000000000000000000000000000600052603260045260246000fd5b60200101907effffffffffffffffffffffffffffffffffffffffffffffffffffffffffffff1916908160001a905350600485901c9450806122fe906137d0565b905061221c565b5060008414612349576040517f08c379a000000000000000000000000000000000000000000000000000000000815260040161234090613448565b60405180910390fd5b8091505092915050565b82805461235f906137fa565b90600052602060002090601f01602090048101928261238157600085556123c8565b82601f1061239a57805160ff19168380011785556123c8565b828001600101855582156123c8579182015b828111156123c75782518255916020019190600101906123ac565b5b5090506123d591906125a5565b5090565b604051806101800160405280606081526020016060815260200160008152602001606081526020016060815260200160608152602001606081526020016060815260200160608152602001600073ffffffffffffffffffffffffffffffffffffffff16815260200160008152602001606081525090565b82805482825590600052602060002090810192821561249f579160200282015b8281111561249e57825182908051906020019061248e929190612353565b5091602001919060010190612470565b5b5090506124ac91906125c2565b5090565b8280546124bc906137fa565b90600052602060002090601f0160209004810192826124de576000855561252c565b82601f106124ef578054855561252c565b8280016001018555821561252c57600052602060002091601f016020900482015b8281111561252b578254825591600101919060010190612510565b5b50905061253991906125a5565b5090565b8280548282559060005260206000209081019282156125945760005260206000209182015b82811115612593578282908054612578906137fa565b6125839291906124b0565b5091600101919060010190612562565b5b5090506125a191906125c2565b5090565b5b808211156125be5760008160009055506001016125a6565b5090565b5b808211156125e257600081816125d991906125e6565b506001016125c3565b5090565b5080546125f2906137fa565b6000825580601f106126045750612623565b601f01602090049060005260206000209081019061262291906125a5565b5b50565b60006126396126348461350f565b6134ea565b9050808382526020820190508285602086028201111561265857600080fd5b60005b858110156126a257813567ffffffffffffffff81111561267a57600080fd5b8086016126878982612791565b8552602085019450602084019350505060018101905061265b565b5050509392505050565b60006126bf6126ba8461353b565b6134ea565b9050828152602081018484840111156126d757600080fd5b6126e284828561378e565b509392505050565b60006126fd6126f88461353b565b6134ea565b90508281526020810184848401111561271557600080fd5b61272084828561379d565b509392505050565b60008135905061273781613a8f565b92915050565b600082601f83011261274e57600080fd5b813561275e848260208601612626565b91505092915050565b60008135905061277681613aa6565b92915050565b60008135905061278b81613abd565b92915050565b600082601f8301126127a257600080fd5b81356127b28482602086016126ac565b91505092915050565b600082601f8301126127cc57600080fd5b81516127dc8482602086016126ea565b91505092915050565b600061018082840312156127f857600080fd5b6128036101806134ea565b9050600082013567ffffffffffffffff81111561281f57600080fd5b61282b84828501612791565b600083015250602082013567ffffffffffffffff81111561284b57600080fd5b61285784828501612791565b602083015250604061286b848285016129db565b604083015250606082013567ffffffffffffffff81111561288b57600080fd5b61289784828501612791565b606083015250608082013567ffffffffffffffff8111156128b757600080fd5b6128c384828501612791565b60808301525060a082013567ffffffffffffffff8111156128e357600080fd5b6128ef84828501612791565b60a08301525060c082013567ffffffffffffffff81111561290f57600080fd5b61291b84828501612791565b60c08301525060e082013567ffffffffffffffff81111561293b57600080fd5b61294784828501612791565b60e08301525061010082013567ffffffffffffffff81111561296857600080fd5b6129748482850161273d565b6101008301525061012061298a84828501612728565b610120830152506101406129a0848285016129db565b6101408301525061016082013567ffffffffffffffff8111156129c257600080fd5b6129ce84828501612791565b6101608301525092915050565b6000813590506129ea81613ad4565b92915050565b600060208284031215612a0257600080fd5b6000612a1084828501612728565b91505092915050565b600060208284031215612a2b57600080fd5b6000612a3984828501612767565b91505092915050565b60008060408385031215612a5557600080fd5b6000612a6385828601612767565b9250506020612a7485828601612728565b9150509250929050565b600060208284031215612a9057600080fd5b6000612a9e8482850161277c565b91505092915050565b600060208284031215612ab957600080fd5b600082013567ffffffffffffffff811115612ad357600080fd5b612adf84828501612791565b91505092915050565b600060208284031215612afa57600080fd5b600082015167ffffffffffffffff811115612b1457600080fd5b612b20848285016127bb565b91505092915050565b600060208284031215612b3b57600080fd5b600082013567ffffffffffffffff811115612b5557600080fd5b612b61848285016127e5565b91505092915050565b600060208284031215612b7c57600080fd5b6000612b8a848285016129db565b91505092915050565b6000612b9f8383612bd3565b60208301905092915050565b6000612bb78383612dcc565b905092915050565b6000612bcb8383612f87565b905092915050565b612bdc81613710565b82525050565b612beb81613710565b82525050565b6000612bfc8261359c565b612c0681856135ef565b9350612c118361356c565b8060005b83811015612c42578151612c298882612b93565b9750612c34836135c8565b925050600181019050612c15565b5085935050505092915050565b6000612c5a826135a7565b612c648185613600565b935083602082028501612c768561357c565b8060005b85811015612cb25784840389528151612c938582612bab565b9450612c9e836135d5565b925060208a01995050600181019050612c7a565b50829750879550505050505092915050565b6000612ccf826135a7565b612cd98185613611565b935083602082028501612ceb8561357c565b8060005b85811015612d275784840389528151612d088582612bab565b9450612d13836135d5565b925060208a01995050600181019050612cef565b50829750879550505050505092915050565b6000612d44826135b2565b612d4e8185613622565b935083602082028501612d608561358c565b8060005b85811015612d9c5784840389528151612d7d8582612bbf565b9450612d88836135e2565b925060208a01995050600181019050612d64565b50829750879550505050505092915050565b612db781613722565b82525050565b612dc68161372e565b82525050565b6000612dd7826135bd565b612de18185613633565b9350612df181856020860161379d565b612dfa816138ea565b840191505092915050565b6000612e10826135bd565b612e1a8185613644565b9350612e2a81856020860161379d565b612e33816138ea565b840191505092915050565b6000612e49826135bd565b612e538185613655565b9350612e6381856020860161379d565b80840191505092915050565b6000612e7c602083613644565b9150612e87826138fb565b602082019050919050565b6000612e9f602683613644565b9150612eaa82613924565b604082019050919050565b6000612ec2602083613644565b9150612ecd82613973565b602082019050919050565b6000612ee5600683613655565b9150612ef08261399c565b600682019050919050565b6000612f08601783613655565b9150612f13826139c5565b601782019050919050565b6000612f2b600583613655565b9150612f36826139ee565b600582019050919050565b6000612f4e601183613655565b9150612f5982613a17565b601182019050919050565b6000612f71602f83613644565b9150612f7c82613a40565b604082019050919050565b6000610180830160008301518482036000860152612fa58282612dcc565b91505060208301518482036020860152612fbf8282612dcc565b9150506040830151612fd460408601826131ff565b5060608301518482036060860152612fec8282612dcc565b915050608083015184820360808601526130068282612dcc565b91505060a083015184820360a08601526130208282612dcc565b91505060c083015184820360c086015261303a8282612dcc565b91505060e083015184820360e08601526130548282612dcc565b9150506101008301518482036101008601526130708282612c4f565b915050610120830151613087610120860182612bd3565b5061014083015161309c6101408601826131ff565b506101608301518482036101608601526130b68282612dcc565b9150508091505092915050565b60006101808301600083015184820360008601526130e18282612dcc565b915050602083015184820360208601526130fb8282612dcc565b915050604083015161311060408601826131ff565b50606083015184820360608601526131288282612dcc565b915050608083015184820360808601526131428282612dcc565b91505060a083015184820360a086015261315c8282612dcc565b91505060c083015184820360c08601526131768282612dcc565b91505060e083015184820360e08601526131908282612dcc565b9150506101008301518482036101008601526131ac8282612c4f565b9150506101208301516131c3610120860182612bd3565b506101408301516131d86101408601826131ff565b506101608301518482036101608601526131f28282612dcc565b9150508091505092915050565b61320881613784565b82525050565b61321781613784565b82525050565b60006132298284612e3e565b915081905092915050565b600061323f82612ed8565b9150819050919050565b600061325482612efb565b91506132608285612e3e565b915061326b82612f41565b91506132778284612e3e565b91508190509392505050565b600061328e82612f1e565b9150819050919050565b60006020820190506132ad6000830184612be2565b92915050565b600060208201905081810360008301526132cd8184612bf1565b905092915050565b600060208201905081810360008301526132ef8184612d39565b905092915050565b600060208201905061330c6000830184612dae565b92915050565b60006020820190506133276000830184612dbd565b92915050565b600060208201905081810360008301526133478184612e05565b905092915050565b600061018082019050818103600083015261336a818f612e05565b9050818103602083015261337e818e612e05565b905061338d604083018d61320e565b818103606083015261339f818c612e05565b905081810360808301526133b3818b612e05565b905081810360a08301526133c7818a612e05565b905081810360c08301526133db8189612e05565b905081810360e08301526133ef8188612e05565b90508181036101008301526134048187612cc4565b9050613414610120830186612be2565b61342261014083018561320e565b8181036101608301526134358184612e05565b90509d9c50505050505050505050505050565b6000602082019050818103600083015261346181612e6f565b9050919050565b6000602082019050818103600083015261348181612e92565b9050919050565b600060208201905081810360008301526134a181612eb5565b9050919050565b600060208201905081810360008301526134c181612f64565b9050919050565b600060208201905081810360008301526134e281846130c3565b905092915050565b60006134f4613505565b9050613500828261382c565b919050565b6000604051905090565b600067ffffffffffffffff82111561352a576135296138bb565b5b602082029050602081019050919050565b600067ffffffffffffffff821115613556576135556138bb565b5b61355f826138ea565b9050602081019050919050565b6000819050602082019050919050565b6000819050602082019050919050565b6000819050602082019050919050565b600081519050919050565b600081519050919050565b600081519050919050565b600081519050919050565b6000602082019050919050565b6000602082019050919050565b6000602082019050919050565b600082825260208201905092915050565b600082825260208201905092915050565b600082825260208201905092915050565b600082825260208201905092915050565b600082825260208201905092915050565b600082825260208201905092915050565b600081905092915050565b600061366b82613784565b915061367683613784565b9250827fffffffffffffffffffffffffffffffffffffffffffffffffffffffffffffffff038211156136ab576136aa61385d565b5b828201905092915050565b60006136c182613784565b91506136cc83613784565b9250817fffffffffffffffffffffffffffffffffffffffffffffffffffffffffffffffff04831182151516156137055761370461385d565b5b828202905092915050565b600061371b82613764565b9050919050565b60008115159050919050565b6000819050919050565b60007fffffffff0000000000000000000000000000000000000000000000000000000082169050919050565b600073ffffffffffffffffffffffffffffffffffffffff82169050919050565b6000819050919050565b82818337600083830152505050565b60005b838110156137bb5780820151818401526020810190506137a0565b838111156137ca576000848401525b50505050565b60006137db82613784565b915060008214156137ef576137ee61385d565b5b600182039050919050565b6000600282049050600182168061381257607f821691505b602082108114156138265761382561388c565b5b50919050565b613835826138ea565b810181811067ffffffffffffffff82111715613854576138536138bb565b5b80604052505050565b7f4e487b7100000000000000000000000000000000000000000000000000000000600052601160045260246000fd5b7f4e487b7100000000000000000000000000000000000000000000000000000000600052602260045260246000fd5b7f4e487b7100000000000000000000000000000000000000000000000000000000600052604160045260246000fd5b6000601f19601f8301169050919050565b7f537472696e67733a20686578206c656e67746820696e73756666696369656e74600082015250565b7f4f776e61626c653a206e6577206f776e657220697320746865207a65726f206160008201527f6464726573730000000000000000000000000000000000000000000000000000602082015250565b7f4f776e61626c653a2063616c6c6572206973206e6f7420746865206f776e6572600082015250565b7f444f43544f520000000000000000000000000000000000000000000000000000600082015250565b7f416363657373436f6e74726f6c3a206163636f756e7420000000000000000000600082015250565b7f41444d494e000000000000000000000000000000000000000000000000000000600082015250565b7f206973206d697373696e6720726f6c6520000000000000000000000000000000600082015250565b7f416363657373436f6e74726f6c3a2063616e206f6e6c792072656e6f756e636560008201527f20726f6c657320666f722073656c660000000000000000000000000000000000602082015250565b613a9881613710565b8114613aa357600080fd5b50565b613aaf8161372e565b8114613aba57600080fd5b50565b613ac681613738565b8114613ad157600080fd5b50565b613add81613784565b8114613ae857600080fd5b5056fea26469706673582212200a852a45c7a38b7e70f75c63f5cae9dd59fc2e4dacb276e3e7af53e31e67997364736f6c63430008040033",
  "immutableReferences": {},
  "source": "pragma solidity  0.8.4;\r\n\r\nimport \"@openzeppelin/contracts/access/Ownable.sol\";\r\nimport \"@openzeppelin/contracts/access/AccessControl.sol\";\r\nimport \"./Registration.sol\";\r\n\r\ncontract Hospitals is Ownable, AccessControl{\r\n\r\n    struct Doctor {\r\n        string firstName;\r\n        string lastName;\r\n        uint birthDate;\r\n        string gender;\r\n        string country;\r\n        string city;\r\n        string hospital;\r\n        string specialization;\r\n        string[] skills;\r\n        address walletAddress;\r\n        uint cnp;\r\n        string _profileHash;\r\n    }\r\n\r\n    event DoctorAdd(\r\n        string firstName,\r\n        string lastName,\r\n        uint birthDate,\r\n        string gender,\r\n        string country,\r\n        string city,\r\n        string hospital,\r\n        string specialization,\r\n        string[] skills,\r\n        address walletAddress,\r\n        uint cnp,\r\n        string _profileHash\r\n    );\r\n\r\n    Registration _registration;\r\n\r\n    mapping(string => Doctor[]) doctorsInHospital;\r\n    mapping(address => Doctor) doctors;\r\n    address[] public doctorsAccounts;\r\n    mapping(address => string) encryptionPublicKeys;\r\n\r\n    constructor(address registrationA) public {\r\n        _registration = Registration(registrationA);\r\n    }\r\n\r\n    modifier onlyAdmin {\r\n      require(keccak256(abi.encodePacked((_registration.getRole(tx.origin)))) == keccak256(abi.encodePacked((\"ADMIN\"))));\r\n      _;\r\n    }\r\n    modifier onlyDoctor {\r\n        require(keccak256(abi.encodePacked((_registration.getRole(tx.origin)))) == keccak256(abi.encodePacked((\"DOCTOR\"))));\r\n        _;\r\n    }\r\n\r\n    function addDoctorToSystem(Doctor memory doc) public onlyAdmin{\r\n        doctors[doc.walletAddress] = doc;\r\n        doctorsAccounts.push(doc.walletAddress);\r\n        _registration.addDoctor(doc.walletAddress);\r\n        doctorsInHospital[doc.hospital].push(doctors[doc.walletAddress]);\r\n\r\n        emit DoctorAdd(doc.firstName, doc.lastName, doc.birthDate, doc.gender, doc.country, doc.city, doc.hospital,\r\n        doc.specialization, doc.skills, doc.walletAddress, doc.cnp, doc._profileHash);\r\n    }\r\n\r\n    function getDoctors() view public returns(address[] memory){\r\n        return doctorsAccounts;\r\n    }\r\n\r\n    function getDoctorsInAHospital(string memory hospital) view public returns(Doctor[] memory){\r\n        return doctorsInHospital[hospital];\r\n    }\r\n\r\n    function getDoctor(address _address) view public returns (Doctor memory){\r\n        return doctors[_address];\r\n    }\r\n\r\n    function addEncryptionKey(string memory encryptionPublicKey) public onlyDoctor{\r\n        encryptionPublicKeys[msg.sender] = encryptionPublicKey;\r\n    }\r\n\r\n    function getEncryptionPublicKey(address _address) public returns(string memory){\r\n        return encryptionPublicKeys[_address];\r\n    }\r\n}",
  "sourcePath": "C:/Licenta/Licenta/src/contracts/Hospitals.sol",
  "compiler": {
    "name": "solc",
    "version": "0.8.4+commit.c7e474f2.Emscripten.clang"
  },
  "schemaVersion": "3.2.3",
  "updatedAt": "2022-07-06T20:00:40.692Z",
  "networkType": "ethereum",
  "devdoc": {
    "kind": "dev",
    "methods": {
      "getRoleAdmin(bytes32)": {
        "details": "Returns the admin role that controls `role`. See {grantRole} and {revokeRole}. To change a role's admin, use {_setRoleAdmin}."
      },
      "grantRole(bytes32,address)": {
        "details": "Grants `role` to `account`. If `account` had not been already granted `role`, emits a {RoleGranted} event. Requirements: - the caller must have ``role``'s admin role."
      },
      "hasRole(bytes32,address)": {
        "details": "Returns `true` if `account` has been granted `role`."
      },
      "owner()": {
        "details": "Returns the address of the current owner."
      },
      "renounceOwnership()": {
        "details": "Leaves the contract without owner. It will not be possible to call `onlyOwner` functions anymore. Can only be called by the current owner. NOTE: Renouncing ownership will leave the contract without an owner, thereby removing any functionality that is only available to the owner."
      },
      "renounceRole(bytes32,address)": {
        "details": "Revokes `role` from the calling account. Roles are often managed via {grantRole} and {revokeRole}: this function's purpose is to provide a mechanism for accounts to lose their privileges if they are compromised (such as when a trusted device is misplaced). If the calling account had been revoked `role`, emits a {RoleRevoked} event. Requirements: - the caller must be `account`."
      },
      "revokeRole(bytes32,address)": {
        "details": "Revokes `role` from `account`. If `account` had been granted `role`, emits a {RoleRevoked} event. Requirements: - the caller must have ``role``'s admin role."
      },
      "supportsInterface(bytes4)": {
        "details": "See {IERC165-supportsInterface}."
      },
      "transferOwnership(address)": {
        "details": "Transfers ownership of the contract to a new account (`newOwner`). Can only be called by the current owner."
      }
    },
    "version": 1
  },
  "userdoc": {
    "kind": "user",
    "methods": {},
    "version": 1
  }
}