{
  "contractName": "Hospitals",
  "abi": [
    {
      "inputs": [
        {
          "internalType": "address",
          "name": "registrationA",
          "type": "address"
        }
      ],
      "stateMutability": "nonpayable",
      "type": "constructor"
    },
    {
      "anonymous": false,
      "inputs": [
        {
          "indexed": false,
          "internalType": "string",
          "name": "firstName",
          "type": "string"
        },
        {
          "indexed": false,
          "internalType": "string",
          "name": "lastName",
          "type": "string"
        },
        {
          "indexed": false,
          "internalType": "uint256",
          "name": "birthDate",
          "type": "uint256"
        },
        {
          "indexed": false,
          "internalType": "string",
          "name": "gender",
          "type": "string"
        },
        {
          "indexed": false,
          "internalType": "string",
          "name": "country",
          "type": "string"
        },
        {
          "indexed": false,
          "internalType": "string",
          "name": "city",
          "type": "string"
        },
        {
          "indexed": false,
          "internalType": "string",
          "name": "hospital",
          "type": "string"
        },
        {
          "indexed": false,
          "internalType": "string",
          "name": "specialization",
          "type": "string"
        },
        {
          "indexed": false,
          "internalType": "string[]",
          "name": "skills",
          "type": "string[]"
        },
        {
          "indexed": false,
          "internalType": "address",
          "name": "walletAddress",
          "type": "address"
        },
        {
          "indexed": false,
          "internalType": "uint256",
          "name": "cnp",
          "type": "uint256"
        },
        {
          "indexed": false,
          "internalType": "string",
          "name": "_profileHash",
          "type": "string"
        }
      ],
      "name": "DoctorAdd",
      "type": "event"
    },
    {
      "anonymous": false,
      "inputs": [
        {
          "indexed": false,
          "internalType": "string",
          "name": "city",
          "type": "string"
        },
        {
          "indexed": false,
          "internalType": "string",
          "name": "country",
          "type": "string"
        },
        {
          "indexed": false,
          "internalType": "string",
          "name": "name",
          "type": "string"
        }
      ],
      "name": "HospitalAdd",
      "type": "event"
    },
    {
      "anonymous": false,
      "inputs": [
        {
          "indexed": true,
          "internalType": "address",
          "name": "previousOwner",
          "type": "address"
        },
        {
          "indexed": true,
          "internalType": "address",
          "name": "newOwner",
          "type": "address"
        }
      ],
      "name": "OwnershipTransferred",
      "type": "event"
    },
    {
      "anonymous": false,
      "inputs": [
        {
          "indexed": true,
          "internalType": "bytes32",
          "name": "role",
          "type": "bytes32"
        },
        {
          "indexed": true,
          "internalType": "bytes32",
          "name": "previousAdminRole",
          "type": "bytes32"
        },
        {
          "indexed": true,
          "internalType": "bytes32",
          "name": "newAdminRole",
          "type": "bytes32"
        }
      ],
      "name": "RoleAdminChanged",
      "type": "event"
    },
    {
      "anonymous": false,
      "inputs": [
        {
          "indexed": true,
          "internalType": "bytes32",
          "name": "role",
          "type": "bytes32"
        },
        {
          "indexed": true,
          "internalType": "address",
          "name": "account",
          "type": "address"
        },
        {
          "indexed": true,
          "internalType": "address",
          "name": "sender",
          "type": "address"
        }
      ],
      "name": "RoleGranted",
      "type": "event"
    },
    {
      "anonymous": false,
      "inputs": [
        {
          "indexed": true,
          "internalType": "bytes32",
          "name": "role",
          "type": "bytes32"
        },
        {
          "indexed": true,
          "internalType": "address",
          "name": "account",
          "type": "address"
        },
        {
          "indexed": true,
          "internalType": "address",
          "name": "sender",
          "type": "address"
        }
      ],
      "name": "RoleRevoked",
      "type": "event"
    },
    {
      "inputs": [],
      "name": "DEFAULT_ADMIN_ROLE",
      "outputs": [
        {
          "internalType": "bytes32",
          "name": "",
          "type": "bytes32"
        }
      ],
      "stateMutability": "view",
      "type": "function",
      "constant": true
    },
    {
      "inputs": [
        {
          "internalType": "uint256",
          "name": "",
          "type": "uint256"
        }
      ],
      "name": "doctorsAccounts",
      "outputs": [
        {
          "internalType": "address",
          "name": "",
          "type": "address"
        }
      ],
      "stateMutability": "view",
      "type": "function",
      "constant": true
    },
    {
      "inputs": [
        {
          "internalType": "bytes32",
          "name": "role",
          "type": "bytes32"
        }
      ],
      "name": "getRoleAdmin",
      "outputs": [
        {
          "internalType": "bytes32",
          "name": "",
          "type": "bytes32"
        }
      ],
      "stateMutability": "view",
      "type": "function",
      "constant": true
    },
    {
      "inputs": [
        {
          "internalType": "bytes32",
          "name": "role",
          "type": "bytes32"
        },
        {
          "internalType": "uint256",
          "name": "index",
          "type": "uint256"
        }
      ],
      "name": "getRoleMember",
      "outputs": [
        {
          "internalType": "address",
          "name": "",
          "type": "address"
        }
      ],
      "stateMutability": "view",
      "type": "function",
      "constant": true
    },
    {
      "inputs": [
        {
          "internalType": "bytes32",
          "name": "role",
          "type": "bytes32"
        }
      ],
      "name": "getRoleMemberCount",
      "outputs": [
        {
          "internalType": "uint256",
          "name": "",
          "type": "uint256"
        }
      ],
      "stateMutability": "view",
      "type": "function",
      "constant": true
    },
    {
      "inputs": [
        {
          "internalType": "bytes32",
          "name": "role",
          "type": "bytes32"
        },
        {
          "internalType": "address",
          "name": "account",
          "type": "address"
        }
      ],
      "name": "grantRole",
      "outputs": [],
      "stateMutability": "nonpayable",
      "type": "function"
    },
    {
      "inputs": [
        {
          "internalType": "bytes32",
          "name": "role",
          "type": "bytes32"
        },
        {
          "internalType": "address",
          "name": "account",
          "type": "address"
        }
      ],
      "name": "hasRole",
      "outputs": [
        {
          "internalType": "bool",
          "name": "",
          "type": "bool"
        }
      ],
      "stateMutability": "view",
      "type": "function",
      "constant": true
    },
    {
      "inputs": [],
      "name": "owner",
      "outputs": [
        {
          "internalType": "address",
          "name": "",
          "type": "address"
        }
      ],
      "stateMutability": "view",
      "type": "function",
      "constant": true
    },
    {
      "inputs": [],
      "name": "renounceOwnership",
      "outputs": [],
      "stateMutability": "nonpayable",
      "type": "function"
    },
    {
      "inputs": [
        {
          "internalType": "bytes32",
          "name": "role",
          "type": "bytes32"
        },
        {
          "internalType": "address",
          "name": "account",
          "type": "address"
        }
      ],
      "name": "renounceRole",
      "outputs": [],
      "stateMutability": "nonpayable",
      "type": "function"
    },
    {
      "inputs": [
        {
          "internalType": "bytes32",
          "name": "role",
          "type": "bytes32"
        },
        {
          "internalType": "address",
          "name": "account",
          "type": "address"
        }
      ],
      "name": "revokeRole",
      "outputs": [],
      "stateMutability": "nonpayable",
      "type": "function"
    },
    {
      "inputs": [
        {
          "internalType": "bytes4",
          "name": "interfaceId",
          "type": "bytes4"
        }
      ],
      "name": "supportsInterface",
      "outputs": [
        {
          "internalType": "bool",
          "name": "",
          "type": "bool"
        }
      ],
      "stateMutability": "view",
      "type": "function",
      "constant": true
    },
    {
      "inputs": [
        {
          "internalType": "address",
          "name": "newOwner",
          "type": "address"
        }
      ],
      "name": "transferOwnership",
      "outputs": [],
      "stateMutability": "nonpayable",
      "type": "function"
    },
    {
      "inputs": [
        {
          "internalType": "uint256",
          "name": "id",
          "type": "uint256"
        },
        {
          "internalType": "string",
          "name": "name",
          "type": "string"
        },
        {
          "internalType": "string",
          "name": "city",
          "type": "string"
        },
        {
          "internalType": "string",
          "name": "country",
          "type": "string"
        }
      ],
      "name": "addHospital",
      "outputs": [],
      "stateMutability": "nonpayable",
      "type": "function"
    },
    {
      "inputs": [
        {
          "internalType": "uint256",
          "name": "id",
          "type": "uint256"
        }
      ],
      "name": "getHospital",
      "outputs": [
        {
          "internalType": "string",
          "name": "",
          "type": "string"
        },
        {
          "internalType": "string",
          "name": "",
          "type": "string"
        },
        {
          "internalType": "string",
          "name": "",
          "type": "string"
        }
      ],
      "stateMutability": "view",
      "type": "function",
      "constant": true
    },
    {
      "inputs": [
        {
          "components": [
            {
              "internalType": "string",
              "name": "firstName",
              "type": "string"
            },
            {
              "internalType": "string",
              "name": "lastName",
              "type": "string"
            },
            {
              "internalType": "uint256",
              "name": "birthDate",
              "type": "uint256"
            },
            {
              "internalType": "string",
              "name": "gender",
              "type": "string"
            },
            {
              "internalType": "string",
              "name": "country",
              "type": "string"
            },
            {
              "internalType": "string",
              "name": "city",
              "type": "string"
            },
            {
              "internalType": "string",
              "name": "hospital",
              "type": "string"
            },
            {
              "internalType": "string",
              "name": "specialization",
              "type": "string"
            },
            {
              "internalType": "string[]",
              "name": "skills",
              "type": "string[]"
            },
            {
              "internalType": "address",
              "name": "walletAddress",
              "type": "address"
            },
            {
              "internalType": "uint256",
              "name": "cnp",
              "type": "uint256"
            },
            {
              "internalType": "string",
              "name": "_profileHash",
              "type": "string"
            }
          ],
          "internalType": "struct Hospitals.Doctor",
          "name": "doc",
          "type": "tuple"
        }
      ],
      "name": "addDoctor",
      "outputs": [],
      "stateMutability": "nonpayable",
      "type": "function"
    },
    {
      "inputs": [],
      "name": "getDoctors",
      "outputs": [
        {
          "internalType": "address[]",
          "name": "",
          "type": "address[]"
        }
      ],
      "stateMutability": "view",
      "type": "function",
      "constant": true
    },
    {
      "inputs": [
        {
          "internalType": "string",
          "name": "hospital",
          "type": "string"
        }
      ],
      "name": "getDoctorsInAHospital",
      "outputs": [
        {
          "components": [
            {
              "internalType": "string",
              "name": "firstName",
              "type": "string"
            },
            {
              "internalType": "string",
              "name": "lastName",
              "type": "string"
            },
            {
              "internalType": "uint256",
              "name": "birthDate",
              "type": "uint256"
            },
            {
              "internalType": "string",
              "name": "gender",
              "type": "string"
            },
            {
              "internalType": "string",
              "name": "country",
              "type": "string"
            },
            {
              "internalType": "string",
              "name": "city",
              "type": "string"
            },
            {
              "internalType": "string",
              "name": "hospital",
              "type": "string"
            },
            {
              "internalType": "string",
              "name": "specialization",
              "type": "string"
            },
            {
              "internalType": "string[]",
              "name": "skills",
              "type": "string[]"
            },
            {
              "internalType": "address",
              "name": "walletAddress",
              "type": "address"
            },
            {
              "internalType": "uint256",
              "name": "cnp",
              "type": "uint256"
            },
            {
              "internalType": "string",
              "name": "_profileHash",
              "type": "string"
            }
          ],
          "internalType": "struct Hospitals.Doctor[]",
          "name": "",
          "type": "tuple[]"
        }
      ],
      "stateMutability": "view",
      "type": "function",
      "constant": true
    },
    {
      "inputs": [
        {
          "internalType": "address",
          "name": "_address",
          "type": "address"
        }
      ],
      "name": "getDoctor",
      "outputs": [
        {
          "components": [
            {
              "internalType": "string",
              "name": "firstName",
              "type": "string"
            },
            {
              "internalType": "string",
              "name": "lastName",
              "type": "string"
            },
            {
              "internalType": "uint256",
              "name": "birthDate",
              "type": "uint256"
            },
            {
              "internalType": "string",
              "name": "gender",
              "type": "string"
            },
            {
              "internalType": "string",
              "name": "country",
              "type": "string"
            },
            {
              "internalType": "string",
              "name": "city",
              "type": "string"
            },
            {
              "internalType": "string",
              "name": "hospital",
              "type": "string"
            },
            {
              "internalType": "string",
              "name": "specialization",
              "type": "string"
            },
            {
              "internalType": "string[]",
              "name": "skills",
              "type": "string[]"
            },
            {
              "internalType": "address",
              "name": "walletAddress",
              "type": "address"
            },
            {
              "internalType": "uint256",
              "name": "cnp",
              "type": "uint256"
            },
            {
              "internalType": "string",
              "name": "_profileHash",
              "type": "string"
            }
          ],
          "internalType": "struct Hospitals.Doctor",
          "name": "",
          "type": "tuple"
        }
      ],
      "stateMutability": "view",
      "type": "function",
      "constant": true
    }
  ],
  "bytecode": "0x60806040523480156200001157600080fd5b506040516200418638038062004186833981810160405281019062000037919062000182565b620000576200004b6200009f60201b60201c565b620000a760201b60201c565b80600360006101000a81548173ffffffffffffffffffffffffffffffffffffffff021916908373ffffffffffffffffffffffffffffffffffffffff16021790555050620001fc565b600033905090565b60008060009054906101000a900473ffffffffffffffffffffffffffffffffffffffff169050816000806101000a81548173ffffffffffffffffffffffffffffffffffffffff021916908373ffffffffffffffffffffffffffffffffffffffff1602179055508173ffffffffffffffffffffffffffffffffffffffff168173ffffffffffffffffffffffffffffffffffffffff167f8be0079c531659141344cd1fd0a4f28419497f9722a3daafe3b4186f6b6457e060405160405180910390a35050565b6000815190506200017c81620001e2565b92915050565b6000602082840312156200019557600080fd5b6000620001a5848285016200016b565b91505092915050565b6000620001bb82620001c2565b9050919050565b600073ffffffffffffffffffffffffffffffffffffffff82169050919050565b620001ed81620001ae565b8114620001f957600080fd5b50565b613f7a806200020c6000396000f3fe608060405234801561001057600080fd5b50600436106101215760003560e01c806386ba5fcd116100ad578063a7470f9a11610071578063a7470f9a1461032c578063b13d5d941461035e578063ca15c8731461037c578063d547741f146103ac578063f2fde38b146103c857610121565b806386ba5fcd146102605780638da5cb5b146102905780639010d07c146102ae57806391d14854146102de578063a217fddf1461030e57610121565b806333fff834116100f457806333fff834146101d257806336568abe146102025780633f531a751461021e578063715018a61461023a57806371a4579e1461024457610121565b806301ffc9a714610126578063248a9ca3146101565780632f04e064146101865780632f2ff15d146101b6575b600080fd5b610140600480360381019061013b9190612e94565b6103e4565b60405161014d9190613707565b60405180910390f35b610170600480360381019061016b9190612df3565b61045e565b60405161017d9190613722565b60405180910390f35b6101a0600480360381019061019b9190612dca565b61047e565b6040516101ad9190613924565b60405180910390f35b6101d060048036038101906101cb9190612e1c565b610aab565b005b6101ec60048036038101906101e79190612f3f565b610ad4565b6040516101f991906136a8565b60405180910390f35b61021c60048036038101906102179190612e1c565b610b13565b005b61023860048036038101906102339190612efe565b610b96565b005b6102426110e3565b005b61025e60048036038101906102599190612f68565b61116b565b005b61027a60048036038101906102759190612ebd565b611234565b60405161028791906136e5565b60405180910390f35b610298611885565b6040516102a591906136a8565b60405180910390f35b6102c860048036038101906102c39190612e58565b6118ae565b6040516102d591906136a8565b60405180910390f35b6102f860048036038101906102f39190612e1c565b6118dd565b6040516103059190613707565b60405180910390f35b610316611948565b6040516103239190613722565b60405180910390f35b61034660048036038101906103419190612f3f565b61194f565b6040516103559392919061375f565b60405180910390f35b610366611b47565b60405161037391906136c3565b60405180910390f35b61039660048036038101906103919190612df3565b611bd5565b6040516103a39190613946565b60405180910390f35b6103c660048036038101906103c19190612e1c565b611bf9565b005b6103e260048036038101906103dd9190612dca565b611c22565b005b60007f5a05180f000000000000000000000000000000000000000000000000000000007bffffffffffffffffffffffffffffffffffffffffffffffffffffffff1916827bffffffffffffffffffffffffffffffffffffffffffffffffffffffff19161480610457575061045682611d1a565b5b9050919050565b600060016000838152602001908152602001600020600101549050919050565b610486612795565b600660008373ffffffffffffffffffffffffffffffffffffffff1673ffffffffffffffffffffffffffffffffffffffff168152602001908152602001600020604051806101800160405290816000820180546104e190613ca5565b80601f016020809104026020016040519081016040528092919081815260200182805461050d90613ca5565b801561055a5780601f1061052f5761010080835404028352916020019161055a565b820191906000526020600020905b81548152906001019060200180831161053d57829003601f168201915b5050505050815260200160018201805461057390613ca5565b80601f016020809104026020016040519081016040528092919081815260200182805461059f90613ca5565b80156105ec5780601f106105c1576101008083540402835291602001916105ec565b820191906000526020600020905b8154815290600101906020018083116105cf57829003601f168201915b505050505081526020016002820154815260200160038201805461060f90613ca5565b80601f016020809104026020016040519081016040528092919081815260200182805461063b90613ca5565b80156106885780601f1061065d57610100808354040283529160200191610688565b820191906000526020600020905b81548152906001019060200180831161066b57829003601f168201915b505050505081526020016004820180546106a190613ca5565b80601f01602080910402602001604051908101604052809291908181526020018280546106cd90613ca5565b801561071a5780601f106106ef5761010080835404028352916020019161071a565b820191906000526020600020905b8154815290600101906020018083116106fd57829003601f168201915b5050505050815260200160058201805461073390613ca5565b80601f016020809104026020016040519081016040528092919081815260200182805461075f90613ca5565b80156107ac5780601f10610781576101008083540402835291602001916107ac565b820191906000526020600020905b81548152906001019060200180831161078f57829003601f168201915b505050505081526020016006820180546107c590613ca5565b80601f01602080910402602001604051908101604052809291908181526020018280546107f190613ca5565b801561083e5780601f106108135761010080835404028352916020019161083e565b820191906000526020600020905b81548152906001019060200180831161082157829003601f168201915b5050505050815260200160078201805461085790613ca5565b80601f016020809104026020016040519081016040528092919081815260200182805461088390613ca5565b80156108d05780601f106108a5576101008083540402835291602001916108d0565b820191906000526020600020905b8154815290600101906020018083116108b357829003601f168201915b5050505050815260200160088201805480602002602001604051908101604052809291908181526020016000905b828210156109aa57838290600052602060002001805461091d90613ca5565b80601f016020809104026020016040519081016040528092919081815260200182805461094990613ca5565b80156109965780601f1061096b57610100808354040283529160200191610996565b820191906000526020600020905b81548152906001019060200180831161097957829003601f168201915b5050505050815260200190600101906108fe565b5050505081526020016009820160009054906101000a900473ffffffffffffffffffffffffffffffffffffffff1673ffffffffffffffffffffffffffffffffffffffff1673ffffffffffffffffffffffffffffffffffffffff168152602001600a8201548152602001600b82018054610a2290613ca5565b80601f0160208091040260200160405190810160405280929190818152602001828054610a4e90613ca5565b8015610a9b5780601f10610a7057610100808354040283529160200191610a9b565b820191906000526020600020905b815481529060010190602001808311610a7e57829003601f168201915b5050505050815250509050919050565b610ab48261045e565b610ac581610ac0611d94565b611d9c565b610acf8383611e39565b505050565b60078181548110610ae457600080fd5b906000526020600020016000915054906101000a900473ffffffffffffffffffffffffffffffffffffffff1681565b610b1b611d94565b73ffffffffffffffffffffffffffffffffffffffff168173ffffffffffffffffffffffffffffffffffffffff1614610b88576040517f08c379a0000000000000000000000000000000000000000000000000000000008152600401610b7f90613904565b60405180910390fd5b610b928282611e6d565b5050565b806006600083610120015173ffffffffffffffffffffffffffffffffffffffff1673ffffffffffffffffffffffffffffffffffffffff1681526020019081526020016000206000820151816000019080519060200190610bf792919061280c565b506020820151816001019080519060200190610c1492919061280c565b50604082015181600201556060820151816003019080519060200190610c3b92919061280c565b506080820151816004019080519060200190610c5892919061280c565b5060a0820151816005019080519060200190610c7592919061280c565b5060c0820151816006019080519060200190610c9292919061280c565b5060e0820151816007019080519060200190610caf92919061280c565b50610100820151816008019080519060200190610ccd929190612892565b506101208201518160090160006101000a81548173ffffffffffffffffffffffffffffffffffffffff021916908373ffffffffffffffffffffffffffffffffffffffff16021790555061014082015181600a015561016082015181600b019080519060200190610d3e92919061280c565b5090505060078161012001519080600181540180825580915050600190039060005260206000200160009091909190916101000a81548173ffffffffffffffffffffffffffffffffffffffff021916908373ffffffffffffffffffffffffffffffffffffffff160217905550600360009054906101000a900473ffffffffffffffffffffffffffffffffffffffff1673ffffffffffffffffffffffffffffffffffffffff16634780468f8261012001516040518263ffffffff1660e01b8152600401610e0a91906136a8565b600060405180830381600087803b158015610e2457600080fd5b505af1158015610e38573d6000803e3d6000fd5b5050505060058160c00151604051610e509190613657565b90815260200160405180910390206006600083610120015173ffffffffffffffffffffffffffffffffffffffff1673ffffffffffffffffffffffffffffffffffffffff16815260200190815260200160002090806001815401808255809150506001900390600052602060002090600c02016000909190919091506000820181600001908054610edf90613ca5565b610eea9291906128f2565b506001820181600101908054610eff90613ca5565b610f0a9291906128f2565b50600282015481600201556003820181600301908054610f2990613ca5565b610f349291906128f2565b506004820181600401908054610f4990613ca5565b610f549291906128f2565b506005820181600501908054610f6990613ca5565b610f749291906128f2565b506006820181600601908054610f8990613ca5565b610f949291906128f2565b506007820181600701908054610fa990613ca5565b610fb49291906128f2565b506008820181600801908054610fcb92919061297f565b506009820160009054906101000a900473ffffffffffffffffffffffffffffffffffffffff168160090160006101000a81548173ffffffffffffffffffffffffffffffffffffffff021916908373ffffffffffffffffffffffffffffffffffffffff160217905550600a82015481600a0155600b820181600b0190805461105190613ca5565b61105c9291906128f2565b5050507f6de443a130019ea936f85998b3cd988234c2406f4615105f328e80fab539f206816000015182602001518360400151846060015185608001518660a001518760c001518860e001518961010001518a61012001518b61014001518c61016001516040516110d89c9b9a999897969594939291906137ab565b60405180910390a150565b6110eb611d94565b73ffffffffffffffffffffffffffffffffffffffff16611109611885565b73ffffffffffffffffffffffffffffffffffffffff161461115f576040517f08c379a0000000000000000000000000000000000000000000000000000000008152600401611156906138e4565b60405180910390fd5b6111696000611ea1565b565b6040518060600160405280838152602001828152602001848152506004600086815260200190815260200160002060008201518160000190805190602001906111b592919061280c565b5060208201518160010190805190602001906111d292919061280c565b5060408201518160020190805190602001906111ef92919061280c565b509050507fa71e76d3ef3a17c80008993b11701fd4fbc9e5433db74c4fea884ba64d5e3caa8282856040516112269392919061375f565b60405180910390a150505050565b60606005826040516112469190613657565b9081526020016040518091039020805480602002602001604051908101604052809291908181526020016000905b8282101561187a57838290600052602060002090600c0201604051806101800160405290816000820180546112a890613ca5565b80601f01602080910402602001604051908101604052809291908181526020018280546112d490613ca5565b80156113215780601f106112f657610100808354040283529160200191611321565b820191906000526020600020905b81548152906001019060200180831161130457829003601f168201915b5050505050815260200160018201805461133a90613ca5565b80601f016020809104026020016040519081016040528092919081815260200182805461136690613ca5565b80156113b35780601f10611388576101008083540402835291602001916113b3565b820191906000526020600020905b81548152906001019060200180831161139657829003601f168201915b50505050508152602001600282015481526020016003820180546113d690613ca5565b80601f016020809104026020016040519081016040528092919081815260200182805461140290613ca5565b801561144f5780601f106114245761010080835404028352916020019161144f565b820191906000526020600020905b81548152906001019060200180831161143257829003601f168201915b5050505050815260200160048201805461146890613ca5565b80601f016020809104026020016040519081016040528092919081815260200182805461149490613ca5565b80156114e15780601f106114b6576101008083540402835291602001916114e1565b820191906000526020600020905b8154815290600101906020018083116114c457829003601f168201915b505050505081526020016005820180546114fa90613ca5565b80601f016020809104026020016040519081016040528092919081815260200182805461152690613ca5565b80156115735780601f1061154857610100808354040283529160200191611573565b820191906000526020600020905b81548152906001019060200180831161155657829003601f168201915b5050505050815260200160068201805461158c90613ca5565b80601f01602080910402602001604051908101604052809291908181526020018280546115b890613ca5565b80156116055780601f106115da57610100808354040283529160200191611605565b820191906000526020600020905b8154815290600101906020018083116115e857829003601f168201915b5050505050815260200160078201805461161e90613ca5565b80601f016020809104026020016040519081016040528092919081815260200182805461164a90613ca5565b80156116975780601f1061166c57610100808354040283529160200191611697565b820191906000526020600020905b81548152906001019060200180831161167a57829003601f168201915b5050505050815260200160088201805480602002602001604051908101604052809291908181526020016000905b828210156117715783829060005260206000200180546116e490613ca5565b80601f016020809104026020016040519081016040528092919081815260200182805461171090613ca5565b801561175d5780601f106117325761010080835404028352916020019161175d565b820191906000526020600020905b81548152906001019060200180831161174057829003601f168201915b5050505050815260200190600101906116c5565b5050505081526020016009820160009054906101000a900473ffffffffffffffffffffffffffffffffffffffff1673ffffffffffffffffffffffffffffffffffffffff1673ffffffffffffffffffffffffffffffffffffffff168152602001600a8201548152602001600b820180546117e990613ca5565b80601f016020809104026020016040519081016040528092919081815260200182805461181590613ca5565b80156118625780601f1061183757610100808354040283529160200191611862565b820191906000526020600020905b81548152906001019060200180831161184557829003601f168201915b50505050508152505081526020019060010190611274565b505050509050919050565b60008060009054906101000a900473ffffffffffffffffffffffffffffffffffffffff16905090565b60006118d58260026000868152602001908152602001600020611f6590919063ffffffff16565b905092915050565b60006001600084815260200190815260200160002060000160008373ffffffffffffffffffffffffffffffffffffffff1673ffffffffffffffffffffffffffffffffffffffff16815260200190815260200160002060009054906101000a900460ff16905092915050565b6000801b81565b60608060606004600085815260200190815260200160002060020160046000868152602001908152602001600020600101600460008781526020019081526020016000206000018280546119a290613ca5565b80601f01602080910402602001604051908101604052809291908181526020018280546119ce90613ca5565b8015611a1b5780601f106119f057610100808354040283529160200191611a1b565b820191906000526020600020905b8154815290600101906020018083116119fe57829003601f168201915b50505050509250818054611a2e90613ca5565b80601f0160208091040260200160405190810160405280929190818152602001828054611a5a90613ca5565b8015611aa75780601f10611a7c57610100808354040283529160200191611aa7565b820191906000526020600020905b815481529060010190602001808311611a8a57829003601f168201915b50505050509150808054611aba90613ca5565b80601f0160208091040260200160405190810160405280929190818152602001828054611ae690613ca5565b8015611b335780601f10611b0857610100808354040283529160200191611b33565b820191906000526020600020905b815481529060010190602001808311611b1657829003601f168201915b505050505090509250925092509193909250565b60606007805480602002602001604051908101604052809291908181526020018280548015611bcb57602002820191906000526020600020905b8160009054906101000a900473ffffffffffffffffffffffffffffffffffffffff1673ffffffffffffffffffffffffffffffffffffffff1681526020019060010190808311611b81575b5050505050905090565b6000611bf260026000848152602001908152602001600020611f7f565b9050919050565b611c028261045e565b611c1381611c0e611d94565b611d9c565b611c1d8383611e6d565b505050565b611c2a611d94565b73ffffffffffffffffffffffffffffffffffffffff16611c48611885565b73ffffffffffffffffffffffffffffffffffffffff1614611c9e576040517f08c379a0000000000000000000000000000000000000000000000000000000008152600401611c95906138e4565b60405180910390fd5b600073ffffffffffffffffffffffffffffffffffffffff168173ffffffffffffffffffffffffffffffffffffffff161415611d0e576040517f08c379a0000000000000000000000000000000000000000000000000000000008152600401611d05906138c4565b60405180910390fd5b611d1781611ea1565b50565b60007f7965db0b000000000000000000000000000000000000000000000000000000007bffffffffffffffffffffffffffffffffffffffffffffffffffffffff1916827bffffffffffffffffffffffffffffffffffffffffffffffffffffffff19161480611d8d5750611d8c82611f94565b5b9050919050565b600033905090565b611da682826118dd565b611e3557611dcb8173ffffffffffffffffffffffffffffffffffffffff166014611ffe565b611dd98360001c6020611ffe565b604051602001611dea92919061366e565b6040516020818303038152906040526040517f08c379a0000000000000000000000000000000000000000000000000000000008152600401611e2c919061373d565b60405180910390fd5b5050565b611e4382826122f8565b611e6881600260008581526020019081526020016000206123d890919063ffffffff16565b505050565b611e778282612408565b611e9c81600260008581526020019081526020016000206124ea90919063ffffffff16565b505050565b60008060009054906101000a900473ffffffffffffffffffffffffffffffffffffffff169050816000806101000a81548173ffffffffffffffffffffffffffffffffffffffff021916908373ffffffffffffffffffffffffffffffffffffffff1602179055508173ffffffffffffffffffffffffffffffffffffffff168173ffffffffffffffffffffffffffffffffffffffff167f8be0079c531659141344cd1fd0a4f28419497f9722a3daafe3b4186f6b6457e060405160405180910390a35050565b6000611f74836000018361251a565b60001c905092915050565b6000611f8d8260000161256b565b9050919050565b60007f01ffc9a7000000000000000000000000000000000000000000000000000000007bffffffffffffffffffffffffffffffffffffffffffffffffffffffff1916827bffffffffffffffffffffffffffffffffffffffffffffffffffffffff1916149050919050565b6060600060028360026120119190613b2d565b61201b9190613ad7565b67ffffffffffffffff81111561205a577f4e487b7100000000000000000000000000000000000000000000000000000000600052604160045260246000fd5b6040519080825280601f01601f19166020018201604052801561208c5781602001600182028036833780820191505090505b5090507f3000000000000000000000000000000000000000000000000000000000000000816000815181106120ea577f4e487b7100000000000000000000000000000000000000000000000000000000600052603260045260246000fd5b60200101907effffffffffffffffffffffffffffffffffffffffffffffffffffffffffffff1916908160001a9053507f780000000000000000000000000000000000000000000000000000000000000081600181518110612174577f4e487b7100000000000000000000000000000000000000000000000000000000600052603260045260246000fd5b60200101907effffffffffffffffffffffffffffffffffffffffffffffffffffffffffffff1916908160001a905350600060018460026121b49190613b2d565b6121be9190613ad7565b90505b60018111156122aa577f3031323334353637383961626364656600000000000000000000000000000000600f861660108110612226577f4e487b7100000000000000000000000000000000000000000000000000000000600052603260045260246000fd5b1a60f81b828281518110612263577f4e487b7100000000000000000000000000000000000000000000000000000000600052603260045260246000fd5b60200101907effffffffffffffffffffffffffffffffffffffffffffffffffffffffffffff1916908160001a905350600485901c9450806122a390613c7b565b90506121c1565b50600084146122ee576040517f08c379a00000000000000000000000000000000000000000000000000000000081526004016122e5906138a4565b60405180910390fd5b8091505092915050565b61230282826118dd565b6123d457600180600084815260200190815260200160002060000160008373ffffffffffffffffffffffffffffffffffffffff1673ffffffffffffffffffffffffffffffffffffffff16815260200190815260200160002060006101000a81548160ff021916908315150217905550612379611d94565b73ffffffffffffffffffffffffffffffffffffffff168173ffffffffffffffffffffffffffffffffffffffff16837f2f8788117e7eff1d82e926ec794901d17c78024a50270940304540a733656f0d60405160405180910390a45b5050565b6000612400836000018373ffffffffffffffffffffffffffffffffffffffff1660001b61257c565b905092915050565b61241282826118dd565b156124e65760006001600084815260200190815260200160002060000160008373ffffffffffffffffffffffffffffffffffffffff1673ffffffffffffffffffffffffffffffffffffffff16815260200190815260200160002060006101000a81548160ff02191690831515021790555061248b611d94565b73ffffffffffffffffffffffffffffffffffffffff168173ffffffffffffffffffffffffffffffffffffffff16837ff6391f5c32d9c69d2a47ea670b442974b53935d1edc7fd64eb21e047a839171b60405160405180910390a45b5050565b6000612512836000018373ffffffffffffffffffffffffffffffffffffffff1660001b6125ec565b905092915050565b6000826000018281548110612558577f4e487b7100000000000000000000000000000000000000000000000000000000600052603260045260246000fd5b9060005260206000200154905092915050565b600081600001805490509050919050565b60006125888383612772565b6125e15782600001829080600181540180825580915050600190039060005260206000200160009091909190915055826000018054905083600101600084815260200190815260200160002081905550600190506125e6565b600090505b92915050565b6000808360010160008481526020019081526020016000205490506000811461276657600060018261261e9190613b87565b90506000600186600001805490506126369190613b87565b90508181146126f157600086600001828154811061267d577f4e487b7100000000000000000000000000000000000000000000000000000000600052603260045260246000fd5b90600052602060002001549050808760000184815481106126c7577f4e487b7100000000000000000000000000000000000000000000000000000000600052603260045260246000fd5b90600052602060002001819055508387600101600083815260200190815260200160002081905550505b8560000180548061272b577f4e487b7100000000000000000000000000000000000000000000000000000000600052603160045260246000fd5b60019003818190600052602060002001600090559055856001016000868152602001908152602001600020600090556001935050505061276c565b60009150505b92915050565b600080836001016000848152602001908152602001600020541415905092915050565b604051806101800160405280606081526020016060815260200160008152602001606081526020016060815260200160608152602001606081526020016060815260200160608152602001600073ffffffffffffffffffffffffffffffffffffffff16815260200160008152602001606081525090565b82805461281890613ca5565b90600052602060002090601f01602090048101928261283a5760008555612881565b82601f1061285357805160ff1916838001178555612881565b82800160010185558215612881579182015b82811115612880578251825591602001919060010190612865565b5b50905061288e91906129e7565b5090565b8280548282559060005260206000209081019282156128e1579160200282015b828111156128e05782518290805190602001906128d092919061280c565b50916020019190600101906128b2565b5b5090506128ee9190612a04565b5090565b8280546128fe90613ca5565b90600052602060002090601f016020900481019282612920576000855561296e565b82601f10612931578054855561296e565b8280016001018555821561296e57600052602060002091601f016020900482015b8281111561296d578254825591600101919060010190612952565b5b50905061297b91906129e7565b5090565b8280548282559060005260206000209081019282156129d65760005260206000209182015b828111156129d55782829080546129ba90613ca5565b6129c59291906128f2565b50916001019190600101906129a4565b5b5090506129e39190612a04565b5090565b5b80821115612a005760008160009055506001016129e8565b5090565b5b80821115612a245760008181612a1b9190612a28565b50600101612a05565b5090565b508054612a3490613ca5565b6000825580601f10612a465750612a65565b601f016020900490600052602060002090810190612a6491906129e7565b5b50565b6000612a7b612a7684613986565b613961565b90508083825260208201905082856020860282011115612a9a57600080fd5b60005b85811015612ae457813567ffffffffffffffff811115612abc57600080fd5b808601612ac98982612b95565b85526020850194506020840193505050600181019050612a9d565b5050509392505050565b6000612b01612afc846139b2565b613961565b905082815260208101848484011115612b1957600080fd5b612b24848285613c39565b509392505050565b600081359050612b3b81613ee8565b92915050565b600082601f830112612b5257600080fd5b8135612b62848260208601612a68565b91505092915050565b600081359050612b7a81613eff565b92915050565b600081359050612b8f81613f16565b92915050565b600082601f830112612ba657600080fd5b8135612bb6848260208601612aee565b91505092915050565b60006101808284031215612bd257600080fd5b612bdd610180613961565b9050600082013567ffffffffffffffff811115612bf957600080fd5b612c0584828501612b95565b600083015250602082013567ffffffffffffffff811115612c2557600080fd5b612c3184828501612b95565b6020830152506040612c4584828501612db5565b604083015250606082013567ffffffffffffffff811115612c6557600080fd5b612c7184828501612b95565b606083015250608082013567ffffffffffffffff811115612c9157600080fd5b612c9d84828501612b95565b60808301525060a082013567ffffffffffffffff811115612cbd57600080fd5b612cc984828501612b95565b60a08301525060c082013567ffffffffffffffff811115612ce957600080fd5b612cf584828501612b95565b60c08301525060e082013567ffffffffffffffff811115612d1557600080fd5b612d2184828501612b95565b60e08301525061010082013567ffffffffffffffff811115612d4257600080fd5b612d4e84828501612b41565b61010083015250610120612d6484828501612b2c565b61012083015250610140612d7a84828501612db5565b6101408301525061016082013567ffffffffffffffff811115612d9c57600080fd5b612da884828501612b95565b6101608301525092915050565b600081359050612dc481613f2d565b92915050565b600060208284031215612ddc57600080fd5b6000612dea84828501612b2c565b91505092915050565b600060208284031215612e0557600080fd5b6000612e1384828501612b6b565b91505092915050565b60008060408385031215612e2f57600080fd5b6000612e3d85828601612b6b565b9250506020612e4e85828601612b2c565b9150509250929050565b60008060408385031215612e6b57600080fd5b6000612e7985828601612b6b565b9250506020612e8a85828601612db5565b9150509250929050565b600060208284031215612ea657600080fd5b6000612eb484828501612b80565b91505092915050565b600060208284031215612ecf57600080fd5b600082013567ffffffffffffffff811115612ee957600080fd5b612ef584828501612b95565b91505092915050565b600060208284031215612f1057600080fd5b600082013567ffffffffffffffff811115612f2a57600080fd5b612f3684828501612bbf565b91505092915050565b600060208284031215612f5157600080fd5b6000612f5f84828501612db5565b91505092915050565b60008060008060808587031215612f7e57600080fd5b6000612f8c87828801612db5565b945050602085013567ffffffffffffffff811115612fa957600080fd5b612fb587828801612b95565b935050604085013567ffffffffffffffff811115612fd257600080fd5b612fde87828801612b95565b925050606085013567ffffffffffffffff811115612ffb57600080fd5b61300787828801612b95565b91505092959194509250565b600061301f8383613053565b60208301905092915050565b6000613037838361324c565b905092915050565b600061304b83836133c1565b905092915050565b61305c81613bbb565b82525050565b61306b81613bbb565b82525050565b600061307c82613a13565b6130868185613a66565b9350613091836139e3565b8060005b838110156130c25781516130a98882613013565b97506130b483613a3f565b925050600181019050613095565b5085935050505092915050565b60006130da82613a1e565b6130e48185613a77565b9350836020820285016130f6856139f3565b8060005b858110156131325784840389528151613113858261302b565b945061311e83613a4c565b925060208a019950506001810190506130fa565b50829750879550505050505092915050565b600061314f82613a1e565b6131598185613a88565b93508360208202850161316b856139f3565b8060005b858110156131a75784840389528151613188858261302b565b945061319383613a4c565b925060208a0199505060018101905061316f565b50829750879550505050505092915050565b60006131c482613a29565b6131ce8185613a99565b9350836020820285016131e085613a03565b8060005b8581101561321c57848403895281516131fd858261303f565b945061320883613a59565b925060208a019950506001810190506131e4565b50829750879550505050505092915050565b61323781613bcd565b82525050565b61324681613bd9565b82525050565b600061325782613a34565b6132618185613aaa565b9350613271818560208601613c48565b61327a81613d95565b840191505092915050565b600061329082613a34565b61329a8185613abb565b93506132aa818560208601613c48565b6132b381613d95565b840191505092915050565b60006132c982613a34565b6132d38185613acc565b93506132e3818560208601613c48565b80840191505092915050565b60006132fc602083613abb565b915061330782613da6565b602082019050919050565b600061331f602683613abb565b915061332a82613dcf565b604082019050919050565b6000613342602083613abb565b915061334d82613e1e565b602082019050919050565b6000613365601783613acc565b915061337082613e47565b601782019050919050565b6000613388601183613acc565b915061339382613e70565b601182019050919050565b60006133ab602f83613abb565b91506133b682613e99565b604082019050919050565b60006101808301600083015184820360008601526133df828261324c565b915050602083015184820360208601526133f9828261324c565b915050604083015161340e6040860182613639565b5060608301518482036060860152613426828261324c565b91505060808301518482036080860152613440828261324c565b91505060a083015184820360a086015261345a828261324c565b91505060c083015184820360c0860152613474828261324c565b91505060e083015184820360e086015261348e828261324c565b9150506101008301518482036101008601526134aa82826130cf565b9150506101208301516134c1610120860182613053565b506101408301516134d6610140860182613639565b506101608301518482036101608601526134f0828261324c565b9150508091505092915050565b600061018083016000830151848203600086015261351b828261324c565b91505060208301518482036020860152613535828261324c565b915050604083015161354a6040860182613639565b5060608301518482036060860152613562828261324c565b9150506080830151848203608086015261357c828261324c565b91505060a083015184820360a0860152613596828261324c565b91505060c083015184820360c08601526135b0828261324c565b91505060e083015184820360e08601526135ca828261324c565b9150506101008301518482036101008601526135e682826130cf565b9150506101208301516135fd610120860182613053565b50610140830151613612610140860182613639565b5061016083015184820361016086015261362c828261324c565b9150508091505092915050565b61364281613c2f565b82525050565b61365181613c2f565b82525050565b600061366382846132be565b915081905092915050565b600061367982613358565b915061368582856132be565b91506136908261337b565b915061369c82846132be565b91508190509392505050565b60006020820190506136bd6000830184613062565b92915050565b600060208201905081810360008301526136dd8184613071565b905092915050565b600060208201905081810360008301526136ff81846131b9565b905092915050565b600060208201905061371c600083018461322e565b92915050565b6000602082019050613737600083018461323d565b92915050565b600060208201905081810360008301526137578184613285565b905092915050565b600060608201905081810360008301526137798186613285565b9050818103602083015261378d8185613285565b905081810360408301526137a18184613285565b9050949350505050565b60006101808201905081810360008301526137c6818f613285565b905081810360208301526137da818e613285565b90506137e9604083018d613648565b81810360608301526137fb818c613285565b9050818103608083015261380f818b613285565b905081810360a0830152613823818a613285565b905081810360c08301526138378189613285565b905081810360e083015261384b8188613285565b90508181036101008301526138608187613144565b9050613870610120830186613062565b61387e610140830185613648565b8181036101608301526138918184613285565b90509d9c50505050505050505050505050565b600060208201905081810360008301526138bd816132ef565b9050919050565b600060208201905081810360008301526138dd81613312565b9050919050565b600060208201905081810360008301526138fd81613335565b9050919050565b6000602082019050818103600083015261391d8161339e565b9050919050565b6000602082019050818103600083015261393e81846134fd565b905092915050565b600060208201905061395b6000830184613648565b92915050565b600061396b61397c565b90506139778282613cd7565b919050565b6000604051905090565b600067ffffffffffffffff8211156139a1576139a0613d66565b5b602082029050602081019050919050565b600067ffffffffffffffff8211156139cd576139cc613d66565b5b6139d682613d95565b9050602081019050919050565b6000819050602082019050919050565b6000819050602082019050919050565b6000819050602082019050919050565b600081519050919050565b600081519050919050565b600081519050919050565b600081519050919050565b6000602082019050919050565b6000602082019050919050565b6000602082019050919050565b600082825260208201905092915050565b600082825260208201905092915050565b600082825260208201905092915050565b600082825260208201905092915050565b600082825260208201905092915050565b600082825260208201905092915050565b600081905092915050565b6000613ae282613c2f565b9150613aed83613c2f565b9250827fffffffffffffffffffffffffffffffffffffffffffffffffffffffffffffffff03821115613b2257613b21613d08565b5b828201905092915050565b6000613b3882613c2f565b9150613b4383613c2f565b9250817fffffffffffffffffffffffffffffffffffffffffffffffffffffffffffffffff0483118215151615613b7c57613b7b613d08565b5b828202905092915050565b6000613b9282613c2f565b9150613b9d83613c2f565b925082821015613bb057613baf613d08565b5b828203905092915050565b6000613bc682613c0f565b9050919050565b60008115159050919050565b6000819050919050565b60007fffffffff0000000000000000000000000000000000000000000000000000000082169050919050565b600073ffffffffffffffffffffffffffffffffffffffff82169050919050565b6000819050919050565b82818337600083830152505050565b60005b83811015613c66578082015181840152602081019050613c4b565b83811115613c75576000848401525b50505050565b6000613c8682613c2f565b91506000821415613c9a57613c99613d08565b5b600182039050919050565b60006002820490506001821680613cbd57607f821691505b60208210811415613cd157613cd0613d37565b5b50919050565b613ce082613d95565b810181811067ffffffffffffffff82111715613cff57613cfe613d66565b5b80604052505050565b7f4e487b7100000000000000000000000000000000000000000000000000000000600052601160045260246000fd5b7f4e487b7100000000000000000000000000000000000000000000000000000000600052602260045260246000fd5b7f4e487b7100000000000000000000000000000000000000000000000000000000600052604160045260246000fd5b6000601f19601f8301169050919050565b7f537472696e67733a20686578206c656e67746820696e73756666696369656e74600082015250565b7f4f776e61626c653a206e6577206f776e657220697320746865207a65726f206160008201527f6464726573730000000000000000000000000000000000000000000000000000602082015250565b7f4f776e61626c653a2063616c6c6572206973206e6f7420746865206f776e6572600082015250565b7f416363657373436f6e74726f6c3a206163636f756e7420000000000000000000600082015250565b7f206973206d697373696e6720726f6c6520000000000000000000000000000000600082015250565b7f416363657373436f6e74726f6c3a2063616e206f6e6c792072656e6f756e636560008201527f20726f6c657320666f722073656c660000000000000000000000000000000000602082015250565b613ef181613bbb565b8114613efc57600080fd5b50565b613f0881613bd9565b8114613f1357600080fd5b50565b613f1f81613be3565b8114613f2a57600080fd5b50565b613f3681613c2f565b8114613f4157600080fd5b5056fea26469706673582212207a9dd6ed5e8861ad21694ae7f1d7158ae650782beea7ae867de556c01b6377b964736f6c63430008040033",
  "immutableReferences": {},
  "source": "pragma solidity  0.8.4;\r\n\r\nimport \"@openzeppelin/contracts/access/Ownable.sol\";\r\nimport \"@openzeppelin/contracts/access/AccessControl.sol\";\r\nimport \"./Registration.sol\";\r\n\r\ncontract Hospitals is Ownable, AccessControlEnumerable {\r\n\r\n    struct Hospital {\r\n        string city;\r\n        string country;\r\n        string name;\r\n    }\r\n\r\n    event HospitalAdd(\r\n        string city,\r\n        string country,\r\n        string name\r\n    );\r\n\r\n    struct Doctor {\r\n        string firstName;\r\n        string lastName;\r\n        uint birthDate;\r\n        string gender;\r\n        string country;\r\n        string city;\r\n        string hospital;\r\n        string specialization;\r\n        string[] skills;\r\n        address walletAddress;\r\n        uint cnp;\r\n        string _profileHash;\r\n    }\r\n\r\n    event DoctorAdd(\r\n        string firstName,\r\n        string lastName,\r\n        uint birthDate,\r\n        string gender,\r\n        string country,\r\n        string city,\r\n        string hospital,\r\n        string specialization,\r\n        string[] skills,\r\n        address walletAddress,\r\n        uint cnp,\r\n        string _profileHash\r\n    );\r\n\r\n    Registration _registration;\r\n\r\n    mapping(uint => Hospital) hospitals;\r\n    mapping(string => Doctor[]) doctorsInHospital;\r\n    mapping(address => Doctor) doctors;\r\n    address[] public doctorsAccounts;\r\n\r\n    constructor(address registrationA) public {\r\n        _registration = Registration(registrationA);\r\n    }\r\n\r\n    function addHospital(uint id, string memory name, string memory city, string memory country) public {\r\n        hospitals[id] = Hospital(city, country, name);\r\n\r\n        emit HospitalAdd(city, country, name);\r\n    }\r\n\r\n    function getHospital(uint id) public view returns (string memory, string memory, string memory) {\r\n        return (hospitals[id].name, hospitals[id].country, hospitals[id].city);\r\n    }\r\n\r\n    function addDoctor(Doctor memory doc) public{\r\n        doctors[doc.walletAddress] = doc;\r\n        doctorsAccounts.push(doc.walletAddress);\r\n        _registration.addDoctor(doc.walletAddress);\r\n        doctorsInHospital[doc.hospital].push(doctors[doc.walletAddress]);\r\n\r\n        emit DoctorAdd(doc.firstName, doc.lastName, doc.birthDate, doc.gender, doc.country, doc.city, doc.hospital,\r\n        doc.specialization, doc.skills, doc.walletAddress, doc.cnp, doc._profileHash);\r\n    }\r\n\r\n    function getDoctors() view public returns(address[] memory){\r\n        return doctorsAccounts;\r\n    }\r\n\r\n    function getDoctorsInAHospital(string memory hospital) view public returns(Doctor[] memory){\r\n        return doctorsInHospital[hospital];\r\n    }\r\n\r\n    function getDoctor(address _address) view public returns (Doctor memory){\r\n        // return (doctors[_address].age, doctors[_address].name, doctors[_address].specialization, doctors[_address].hospitalId);\r\n        return doctors[_address];\r\n    }\r\n\r\n    // function getEncryptionKey(address _address) view public returns (string memory) {\r\n    //     return doctors[_address].encryptionKey;\r\n    // }\r\n}",
  "sourcePath": "C:/Licenta/Licenta/src/contracts/Hospitals.sol",
  "compiler": {
    "name": "solc",
    "version": "0.8.4+commit.c7e474f2.Emscripten.clang"
  },
  "schemaVersion": "3.2.3",
  "updatedAt": "2022-06-13T13:47:43.224Z",
  "networkType": "ethereum",
  "devdoc": {
    "kind": "dev",
    "methods": {
      "getRoleAdmin(bytes32)": {
        "details": "Returns the admin role that controls `role`. See {grantRole} and {revokeRole}. To change a role's admin, use {_setRoleAdmin}."
      },
      "getRoleMember(bytes32,uint256)": {
        "details": "Returns one of the accounts that have `role`. `index` must be a value between 0 and {getRoleMemberCount}, non-inclusive. Role bearers are not sorted in any particular way, and their ordering may change at any point. WARNING: When using {getRoleMember} and {getRoleMemberCount}, make sure you perform all queries on the same block. See the following https://forum.openzeppelin.com/t/iterating-over-elements-on-enumerableset-in-openzeppelin-contracts/2296[forum post] for more information."
      },
      "getRoleMemberCount(bytes32)": {
        "details": "Returns the number of accounts that have `role`. Can be used together with {getRoleMember} to enumerate all bearers of a role."
      },
      "grantRole(bytes32,address)": {
        "details": "Grants `role` to `account`. If `account` had not been already granted `role`, emits a {RoleGranted} event. Requirements: - the caller must have ``role``'s admin role."
      },
      "hasRole(bytes32,address)": {
        "details": "Returns `true` if `account` has been granted `role`."
      },
      "owner()": {
        "details": "Returns the address of the current owner."
      },
      "renounceOwnership()": {
        "details": "Leaves the contract without owner. It will not be possible to call `onlyOwner` functions anymore. Can only be called by the current owner. NOTE: Renouncing ownership will leave the contract without an owner, thereby removing any functionality that is only available to the owner."
      },
      "renounceRole(bytes32,address)": {
        "details": "Revokes `role` from the calling account. Roles are often managed via {grantRole} and {revokeRole}: this function's purpose is to provide a mechanism for accounts to lose their privileges if they are compromised (such as when a trusted device is misplaced). If the calling account had been revoked `role`, emits a {RoleRevoked} event. Requirements: - the caller must be `account`."
      },
      "revokeRole(bytes32,address)": {
        "details": "Revokes `role` from `account`. If `account` had been granted `role`, emits a {RoleRevoked} event. Requirements: - the caller must have ``role``'s admin role."
      },
      "supportsInterface(bytes4)": {
        "details": "See {IERC165-supportsInterface}."
      },
      "transferOwnership(address)": {
        "details": "Transfers ownership of the contract to a new account (`newOwner`). Can only be called by the current owner."
      }
    },
    "version": 1
  },
  "userdoc": {
    "kind": "user",
    "methods": {},
    "version": 1
  }
}