{
  "contractName": "Hospitals",
  "abi": [
    {
      "anonymous": false,
      "inputs": [
        {
          "indexed": false,
          "internalType": "uint256",
          "name": "age",
          "type": "uint256"
        },
        {
          "indexed": false,
          "internalType": "string",
          "name": "name",
          "type": "string"
        },
        {
          "indexed": false,
          "internalType": "string",
          "name": "specialization",
          "type": "string"
        },
        {
          "indexed": false,
          "internalType": "uint256",
          "name": "hostpitalId",
          "type": "uint256"
        }
      ],
      "name": "DoctorAdd",
      "type": "event"
    },
    {
      "anonymous": false,
      "inputs": [
        {
          "indexed": false,
          "internalType": "string",
          "name": "city",
          "type": "string"
        },
        {
          "indexed": false,
          "internalType": "string",
          "name": "country",
          "type": "string"
        },
        {
          "indexed": false,
          "internalType": "string",
          "name": "name",
          "type": "string"
        }
      ],
      "name": "HospitalAdd",
      "type": "event"
    },
    {
      "anonymous": false,
      "inputs": [
        {
          "indexed": true,
          "internalType": "address",
          "name": "previousOwner",
          "type": "address"
        },
        {
          "indexed": true,
          "internalType": "address",
          "name": "newOwner",
          "type": "address"
        }
      ],
      "name": "OwnershipTransferred",
      "type": "event"
    },
    {
      "anonymous": false,
      "inputs": [
        {
          "indexed": true,
          "internalType": "bytes32",
          "name": "role",
          "type": "bytes32"
        },
        {
          "indexed": true,
          "internalType": "bytes32",
          "name": "previousAdminRole",
          "type": "bytes32"
        },
        {
          "indexed": true,
          "internalType": "bytes32",
          "name": "newAdminRole",
          "type": "bytes32"
        }
      ],
      "name": "RoleAdminChanged",
      "type": "event"
    },
    {
      "anonymous": false,
      "inputs": [
        {
          "indexed": true,
          "internalType": "bytes32",
          "name": "role",
          "type": "bytes32"
        },
        {
          "indexed": true,
          "internalType": "address",
          "name": "account",
          "type": "address"
        },
        {
          "indexed": true,
          "internalType": "address",
          "name": "sender",
          "type": "address"
        }
      ],
      "name": "RoleGranted",
      "type": "event"
    },
    {
      "anonymous": false,
      "inputs": [
        {
          "indexed": true,
          "internalType": "bytes32",
          "name": "role",
          "type": "bytes32"
        },
        {
          "indexed": true,
          "internalType": "address",
          "name": "account",
          "type": "address"
        },
        {
          "indexed": true,
          "internalType": "address",
          "name": "sender",
          "type": "address"
        }
      ],
      "name": "RoleRevoked",
      "type": "event"
    },
    {
      "inputs": [],
      "name": "DEFAULT_ADMIN_ROLE",
      "outputs": [
        {
          "internalType": "bytes32",
          "name": "",
          "type": "bytes32"
        }
      ],
      "stateMutability": "view",
      "type": "function",
      "constant": true
    },
    {
      "inputs": [
        {
          "internalType": "uint256",
          "name": "",
          "type": "uint256"
        }
      ],
      "name": "doctorsAccounts",
      "outputs": [
        {
          "internalType": "address",
          "name": "",
          "type": "address"
        }
      ],
      "stateMutability": "view",
      "type": "function",
      "constant": true
    },
    {
      "inputs": [
        {
          "internalType": "bytes32",
          "name": "role",
          "type": "bytes32"
        }
      ],
      "name": "getRoleAdmin",
      "outputs": [
        {
          "internalType": "bytes32",
          "name": "",
          "type": "bytes32"
        }
      ],
      "stateMutability": "view",
      "type": "function",
      "constant": true
    },
    {
      "inputs": [
        {
          "internalType": "bytes32",
          "name": "role",
          "type": "bytes32"
        },
        {
          "internalType": "address",
          "name": "account",
          "type": "address"
        }
      ],
      "name": "grantRole",
      "outputs": [],
      "stateMutability": "nonpayable",
      "type": "function"
    },
    {
      "inputs": [
        {
          "internalType": "bytes32",
          "name": "role",
          "type": "bytes32"
        },
        {
          "internalType": "address",
          "name": "account",
          "type": "address"
        }
      ],
      "name": "hasRole",
      "outputs": [
        {
          "internalType": "bool",
          "name": "",
          "type": "bool"
        }
      ],
      "stateMutability": "view",
      "type": "function",
      "constant": true
    },
    {
      "inputs": [],
      "name": "owner",
      "outputs": [
        {
          "internalType": "address",
          "name": "",
          "type": "address"
        }
      ],
      "stateMutability": "view",
      "type": "function",
      "constant": true
    },
    {
      "inputs": [],
      "name": "renounceOwnership",
      "outputs": [],
      "stateMutability": "nonpayable",
      "type": "function"
    },
    {
      "inputs": [
        {
          "internalType": "bytes32",
          "name": "role",
          "type": "bytes32"
        },
        {
          "internalType": "address",
          "name": "account",
          "type": "address"
        }
      ],
      "name": "renounceRole",
      "outputs": [],
      "stateMutability": "nonpayable",
      "type": "function"
    },
    {
      "inputs": [
        {
          "internalType": "bytes32",
          "name": "role",
          "type": "bytes32"
        },
        {
          "internalType": "address",
          "name": "account",
          "type": "address"
        }
      ],
      "name": "revokeRole",
      "outputs": [],
      "stateMutability": "nonpayable",
      "type": "function"
    },
    {
      "inputs": [
        {
          "internalType": "bytes4",
          "name": "interfaceId",
          "type": "bytes4"
        }
      ],
      "name": "supportsInterface",
      "outputs": [
        {
          "internalType": "bool",
          "name": "",
          "type": "bool"
        }
      ],
      "stateMutability": "view",
      "type": "function",
      "constant": true
    },
    {
      "inputs": [
        {
          "internalType": "address",
          "name": "newOwner",
          "type": "address"
        }
      ],
      "name": "transferOwnership",
      "outputs": [],
      "stateMutability": "nonpayable",
      "type": "function"
    },
    {
      "inputs": [
        {
          "internalType": "uint256",
          "name": "id",
          "type": "uint256"
        },
        {
          "internalType": "string",
          "name": "name",
          "type": "string"
        },
        {
          "internalType": "string",
          "name": "city",
          "type": "string"
        },
        {
          "internalType": "string",
          "name": "country",
          "type": "string"
        }
      ],
      "name": "addHospital",
      "outputs": [],
      "stateMutability": "nonpayable",
      "type": "function"
    },
    {
      "inputs": [
        {
          "internalType": "uint256",
          "name": "id",
          "type": "uint256"
        }
      ],
      "name": "getHospital",
      "outputs": [
        {
          "internalType": "string",
          "name": "",
          "type": "string"
        },
        {
          "internalType": "string",
          "name": "",
          "type": "string"
        },
        {
          "internalType": "string",
          "name": "",
          "type": "string"
        }
      ],
      "stateMutability": "view",
      "type": "function",
      "constant": true
    },
    {
      "inputs": [
        {
          "internalType": "address",
          "name": "_address",
          "type": "address"
        },
        {
          "internalType": "uint256",
          "name": "_age",
          "type": "uint256"
        },
        {
          "internalType": "string",
          "name": "_name",
          "type": "string"
        },
        {
          "internalType": "string",
          "name": "_specialization",
          "type": "string"
        },
        {
          "internalType": "uint256",
          "name": "_hospitalId",
          "type": "uint256"
        }
      ],
      "name": "addDoctor",
      "outputs": [],
      "stateMutability": "nonpayable",
      "type": "function"
    },
    {
      "inputs": [],
      "name": "getDoctors",
      "outputs": [
        {
          "internalType": "address[]",
          "name": "",
          "type": "address[]"
        }
      ],
      "stateMutability": "view",
      "type": "function",
      "constant": true
    },
    {
      "inputs": [
        {
          "internalType": "uint256",
          "name": "_hospitalId",
          "type": "uint256"
        }
      ],
      "name": "getDoctorsInAHospital",
      "outputs": [
        {
          "components": [
            {
              "internalType": "uint256",
              "name": "age",
              "type": "uint256"
            },
            {
              "internalType": "string",
              "name": "name",
              "type": "string"
            },
            {
              "internalType": "string",
              "name": "specialization",
              "type": "string"
            },
            {
              "internalType": "uint256",
              "name": "hospitalId",
              "type": "uint256"
            }
          ],
          "internalType": "struct Hospitals.Doctor[]",
          "name": "",
          "type": "tuple[]"
        }
      ],
      "stateMutability": "view",
      "type": "function",
      "constant": true
    },
    {
      "inputs": [
        {
          "internalType": "address",
          "name": "_address",
          "type": "address"
        }
      ],
      "name": "getDoctor",
      "outputs": [
        {
          "components": [
            {
              "internalType": "uint256",
              "name": "age",
              "type": "uint256"
            },
            {
              "internalType": "string",
              "name": "name",
              "type": "string"
            },
            {
              "internalType": "string",
              "name": "specialization",
              "type": "string"
            },
            {
              "internalType": "uint256",
              "name": "hospitalId",
              "type": "uint256"
            }
          ],
          "internalType": "struct Hospitals.Doctor",
          "name": "",
          "type": "tuple"
        }
      ],
      "stateMutability": "view",
      "type": "function",
      "constant": true
    }
  ],
  "bytecode": "0x60806040523480156200001157600080fd5b5062000032620000266200003860201b60201c565b6200004060201b60201c565b62000104565b600033905090565b60008060009054906101000a900473ffffffffffffffffffffffffffffffffffffffff169050816000806101000a81548173ffffffffffffffffffffffffffffffffffffffff021916908373ffffffffffffffffffffffffffffffffffffffff1602179055508173ffffffffffffffffffffffffffffffffffffffff168173ffffffffffffffffffffffffffffffffffffffff167f8be0079c531659141344cd1fd0a4f28419497f9722a3daafe3b4186f6b6457e060405160405180910390a35050565b61259480620001146000396000f3fe608060405234801561001057600080fd5b506004361061010b5760003560e01c806371a4579e116100a2578063a217fddf11610071578063a217fddf146102c8578063a7470f9a146102e6578063b13d5d9414610318578063d547741f14610336578063f2fde38b146103525761010b565b806371a4579e1461022e5780638da5cb5b1461024a57806391d14854146102685780639c6abb62146102985761010b565b80632f2ff15d116100de5780632f2ff15d146101bc57806333fff834146101d857806336568abe14610208578063715018a6146102245761010b565b806301ffc9a714610110578063115da43414610140578063248a9ca31461015c5780632f04e0641461018c575b600080fd5b61012a600480360381019061012591906119c2565b61036e565b6040516101379190611ff4565b60405180910390f35b61015a600480360381019061015591906118b6565b6103e8565b005b6101766004803603810190610171919061195d565b610611565b604051610183919061200f565b60405180910390f35b6101a660048036038101906101a1919061188d565b610631565b6040516101b39190612118565b60405180910390f35b6101d660048036038101906101d19190611986565b6107c2565b005b6101f260048036038101906101ed91906119eb565b6107eb565b6040516101ff9190611f95565b60405180910390f35b610222600480360381019061021d9190611986565b61082a565b005b61022c6108ad565b005b61024860048036038101906102439190611a14565b610935565b005b6102526109fe565b60405161025f9190611f95565b60405180910390f35b610282600480360381019061027d9190611986565b610a27565b60405161028f9190611ff4565b60405180910390f35b6102b260048036038101906102ad91906119eb565b610a92565b6040516102bf9190611fd2565b60405180910390f35b6102d0610c3c565b6040516102dd919061200f565b60405180910390f35b61030060048036038101906102fb91906119eb565b610c43565b60405161030f9392919061204c565b60405180910390f35b610320610e3b565b60405161032d9190611fb0565b60405180910390f35b610350600480360381019061034b9190611986565b610ec9565b005b61036c6004803603810190610367919061188d565b610ef2565b005b60007f7965db0b000000000000000000000000000000000000000000000000000000007bffffffffffffffffffffffffffffffffffffffffffffffffffffffff1916827bffffffffffffffffffffffffffffffffffffffffffffffffffffffff191614806103e157506103e082610fea565b5b9050919050565b604051806080016040528085815260200184815260200183815260200182815250600460008773ffffffffffffffffffffffffffffffffffffffff1673ffffffffffffffffffffffffffffffffffffffff16815260200190815260200160002060008201518160000155602082015181600101908051906020019061046e929190611679565b50604082015181600201908051906020019061048b929190611679565b50606082015181600301559050506005859080600181540180825580915050600190039060005260206000200160009091909190916101000a81548173ffffffffffffffffffffffffffffffffffffffff021916908373ffffffffffffffffffffffffffffffffffffffff16021790555060036000828152602001908152602001600020600460008773ffffffffffffffffffffffffffffffffffffffff1673ffffffffffffffffffffffffffffffffffffffff168152602001908152602001600020908060018154018082558091505060019003906000526020600020906004020160009091909190915060008201548160000155600182018160010190805461059590612432565b6105a09291906116ff565b5060028201816002019080546105b590612432565b6105c09291906116ff565b506003820154816003015550507f07a31f6541cbb794e863d21134c8b8e1f7de0e2ff50a2eb9ca437768845e17ec84848484604051610602949392919061213a565b60405180910390a15050505050565b600060016000838152602001908152602001600020600101549050919050565b61063961178c565b600460008373ffffffffffffffffffffffffffffffffffffffff1673ffffffffffffffffffffffffffffffffffffffff1681526020019081526020016000206040518060800160405290816000820154815260200160018201805461069d90612432565b80601f01602080910402602001604051908101604052809291908181526020018280546106c990612432565b80156107165780601f106106eb57610100808354040283529160200191610716565b820191906000526020600020905b8154815290600101906020018083116106f957829003601f168201915b5050505050815260200160028201805461072f90612432565b80601f016020809104026020016040519081016040528092919081815260200182805461075b90612432565b80156107a85780601f1061077d576101008083540402835291602001916107a8565b820191906000526020600020905b81548152906001019060200180831161078b57829003601f168201915b505050505081526020016003820154815250509050919050565b6107cb82610611565b6107dc816107d7611054565b61105c565b6107e683836110f9565b505050565b600581815481106107fb57600080fd5b906000526020600020016000915054906101000a900473ffffffffffffffffffffffffffffffffffffffff1681565b610832611054565b73ffffffffffffffffffffffffffffffffffffffff168173ffffffffffffffffffffffffffffffffffffffff161461089f576040517f08c379a0000000000000000000000000000000000000000000000000000000008152600401610896906120f8565b60405180910390fd5b6108a982826111d9565b5050565b6108b5611054565b73ffffffffffffffffffffffffffffffffffffffff166108d36109fe565b73ffffffffffffffffffffffffffffffffffffffff1614610929576040517f08c379a0000000000000000000000000000000000000000000000000000000008152600401610920906120d8565b60405180910390fd5b61093360006112bb565b565b60405180606001604052808381526020018281526020018481525060026000868152602001908152602001600020600082015181600001908051906020019061097f929190611679565b50602082015181600101908051906020019061099c929190611679565b5060408201518160020190805190602001906109b9929190611679565b509050507fa71e76d3ef3a17c80008993b11701fd4fbc9e5433db74c4fea884ba64d5e3caa8282856040516109f09392919061204c565b60405180910390a150505050565b60008060009054906101000a900473ffffffffffffffffffffffffffffffffffffffff16905090565b60006001600084815260200190815260200160002060000160008373ffffffffffffffffffffffffffffffffffffffff1673ffffffffffffffffffffffffffffffffffffffff16815260200190815260200160002060009054906101000a900460ff16905092915050565b606060036000838152602001908152602001600020805480602002602001604051908101604052809291908181526020016000905b82821015610c31578382906000526020600020906004020160405180608001604052908160008201548152602001600182018054610b0490612432565b80601f0160208091040260200160405190810160405280929190818152602001828054610b3090612432565b8015610b7d5780601f10610b5257610100808354040283529160200191610b7d565b820191906000526020600020905b815481529060010190602001808311610b6057829003601f168201915b50505050508152602001600282018054610b9690612432565b80601f0160208091040260200160405190810160405280929190818152602001828054610bc290612432565b8015610c0f5780601f10610be457610100808354040283529160200191610c0f565b820191906000526020600020905b815481529060010190602001808311610bf257829003601f168201915b5050505050815260200160038201548152505081526020019060010190610ac7565b505050509050919050565b6000801b81565b6060806060600260008581526020019081526020016000206002016002600086815260200190815260200160002060010160026000878152602001908152602001600020600001828054610c9690612432565b80601f0160208091040260200160405190810160405280929190818152602001828054610cc290612432565b8015610d0f5780601f10610ce457610100808354040283529160200191610d0f565b820191906000526020600020905b815481529060010190602001808311610cf257829003601f168201915b50505050509250818054610d2290612432565b80601f0160208091040260200160405190810160405280929190818152602001828054610d4e90612432565b8015610d9b5780601f10610d7057610100808354040283529160200191610d9b565b820191906000526020600020905b815481529060010190602001808311610d7e57829003601f168201915b50505050509150808054610dae90612432565b80601f0160208091040260200160405190810160405280929190818152602001828054610dda90612432565b8015610e275780601f10610dfc57610100808354040283529160200191610e27565b820191906000526020600020905b815481529060010190602001808311610e0a57829003601f168201915b505050505090509250925092509193909250565b60606005805480602002602001604051908101604052809291908181526020018280548015610ebf57602002820191906000526020600020905b8160009054906101000a900473ffffffffffffffffffffffffffffffffffffffff1673ffffffffffffffffffffffffffffffffffffffff1681526020019060010190808311610e75575b5050505050905090565b610ed282610611565b610ee381610ede611054565b61105c565b610eed83836111d9565b505050565b610efa611054565b73ffffffffffffffffffffffffffffffffffffffff16610f186109fe565b73ffffffffffffffffffffffffffffffffffffffff1614610f6e576040517f08c379a0000000000000000000000000000000000000000000000000000000008152600401610f65906120d8565b60405180910390fd5b600073ffffffffffffffffffffffffffffffffffffffff168173ffffffffffffffffffffffffffffffffffffffff161415610fde576040517f08c379a0000000000000000000000000000000000000000000000000000000008152600401610fd5906120b8565b60405180910390fd5b610fe7816112bb565b50565b60007f01ffc9a7000000000000000000000000000000000000000000000000000000007bffffffffffffffffffffffffffffffffffffffffffffffffffffffff1916827bffffffffffffffffffffffffffffffffffffffffffffffffffffffff1916149050919050565b600033905090565b6110668282610a27565b6110f55761108b8173ffffffffffffffffffffffffffffffffffffffff16601461137f565b6110998360001c602061137f565b6040516020016110aa929190611f5b565b6040516020818303038152906040526040517f08c379a00000000000000000000000000000000000000000000000000000000081526004016110ec919061202a565b60405180910390fd5b5050565b6111038282610a27565b6111d557600180600084815260200190815260200160002060000160008373ffffffffffffffffffffffffffffffffffffffff1673ffffffffffffffffffffffffffffffffffffffff16815260200190815260200160002060006101000a81548160ff02191690831515021790555061117a611054565b73ffffffffffffffffffffffffffffffffffffffff168173ffffffffffffffffffffffffffffffffffffffff16837f2f8788117e7eff1d82e926ec794901d17c78024a50270940304540a733656f0d60405160405180910390a45b5050565b6111e38282610a27565b156112b75760006001600084815260200190815260200160002060000160008373ffffffffffffffffffffffffffffffffffffffff1673ffffffffffffffffffffffffffffffffffffffff16815260200190815260200160002060006101000a81548160ff02191690831515021790555061125c611054565b73ffffffffffffffffffffffffffffffffffffffff168173ffffffffffffffffffffffffffffffffffffffff16837ff6391f5c32d9c69d2a47ea670b442974b53935d1edc7fd64eb21e047a839171b60405160405180910390a45b5050565b60008060009054906101000a900473ffffffffffffffffffffffffffffffffffffffff169050816000806101000a81548173ffffffffffffffffffffffffffffffffffffffff021916908373ffffffffffffffffffffffffffffffffffffffff1602179055508173ffffffffffffffffffffffffffffffffffffffff168173ffffffffffffffffffffffffffffffffffffffff167f8be0079c531659141344cd1fd0a4f28419497f9722a3daafe3b4186f6b6457e060405160405180910390a35050565b60606000600283600261139291906122ee565b61139c9190612298565b67ffffffffffffffff8111156113db577f4e487b7100000000000000000000000000000000000000000000000000000000600052604160045260246000fd5b6040519080825280601f01601f19166020018201604052801561140d5781602001600182028036833780820191505090505b5090507f30000000000000000000000000000000000000000000000000000000000000008160008151811061146b577f4e487b7100000000000000000000000000000000000000000000000000000000600052603260045260246000fd5b60200101907effffffffffffffffffffffffffffffffffffffffffffffffffffffffffffff1916908160001a9053507f7800000000000000000000000000000000000000000000000000000000000000816001815181106114f5577f4e487b7100000000000000000000000000000000000000000000000000000000600052603260045260246000fd5b60200101907effffffffffffffffffffffffffffffffffffffffffffffffffffffffffffff1916908160001a9053506000600184600261153591906122ee565b61153f9190612298565b90505b600181111561162b577f3031323334353637383961626364656600000000000000000000000000000000600f8616601081106115a7577f4e487b7100000000000000000000000000000000000000000000000000000000600052603260045260246000fd5b1a60f81b8282815181106115e4577f4e487b7100000000000000000000000000000000000000000000000000000000600052603260045260246000fd5b60200101907effffffffffffffffffffffffffffffffffffffffffffffffffffffffffffff1916908160001a905350600485901c94508061162490612408565b9050611542565b506000841461166f576040517f08c379a000000000000000000000000000000000000000000000000000000000815260040161166690612098565b60405180910390fd5b8091505092915050565b82805461168590612432565b90600052602060002090601f0160209004810192826116a757600085556116ee565b82601f106116c057805160ff19168380011785556116ee565b828001600101855582156116ee579182015b828111156116ed5782518255916020019190600101906116d2565b5b5090506116fb91906117b4565b5090565b82805461170b90612432565b90600052602060002090601f01602090048101928261172d576000855561177b565b82601f1061173e578054855561177b565b8280016001018555821561177b57600052602060002091601f016020900482015b8281111561177a57825482559160010191906001019061175f565b5b50905061178891906117b4565b5090565b6040518060800160405280600081526020016060815260200160608152602001600081525090565b5b808211156117cd5760008160009055506001016117b5565b5090565b60006117e46117df846121be565b61218d565b9050828152602081018484840111156117fc57600080fd5b6118078482856123c6565b509392505050565b60008135905061181e81612502565b92915050565b60008135905061183381612519565b92915050565b60008135905061184881612530565b92915050565b600082601f83011261185f57600080fd5b813561186f8482602086016117d1565b91505092915050565b60008135905061188781612547565b92915050565b60006020828403121561189f57600080fd5b60006118ad8482850161180f565b91505092915050565b600080600080600060a086880312156118ce57600080fd5b60006118dc8882890161180f565b95505060206118ed88828901611878565b945050604086013567ffffffffffffffff81111561190a57600080fd5b6119168882890161184e565b935050606086013567ffffffffffffffff81111561193357600080fd5b61193f8882890161184e565b925050608061195088828901611878565b9150509295509295909350565b60006020828403121561196f57600080fd5b600061197d84828501611824565b91505092915050565b6000806040838503121561199957600080fd5b60006119a785828601611824565b92505060206119b88582860161180f565b9150509250929050565b6000602082840312156119d457600080fd5b60006119e284828501611839565b91505092915050565b6000602082840312156119fd57600080fd5b6000611a0b84828501611878565b91505092915050565b60008060008060808587031215611a2a57600080fd5b6000611a3887828801611878565b945050602085013567ffffffffffffffff811115611a5557600080fd5b611a618782880161184e565b935050604085013567ffffffffffffffff811115611a7e57600080fd5b611a8a8782880161184e565b925050606085013567ffffffffffffffff811115611aa757600080fd5b611ab38782880161184e565b91505092959194509250565b6000611acb8383611aeb565b60208301905092915050565b6000611ae38383611e69565b905092915050565b611af481612348565b82525050565b611b0381612348565b82525050565b6000611b148261220e565b611b1e8185612249565b9350611b29836121ee565b8060005b83811015611b5a578151611b418882611abf565b9750611b4c8361222f565b925050600181019050611b2d565b5085935050505092915050565b6000611b7282612219565b611b7c818561225a565b935083602082028501611b8e856121fe565b8060005b85811015611bca5784840389528151611bab8582611ad7565b9450611bb68361223c565b925060208a01995050600181019050611b92565b50829750879550505050505092915050565b611be58161235a565b82525050565b611bf481612366565b82525050565b6000611c0582612224565b611c0f818561226b565b9350611c1f8185602086016123d5565b611c28816124f1565b840191505092915050565b6000611c3e82612224565b611c48818561227c565b9350611c588185602086016123d5565b611c61816124f1565b840191505092915050565b6000611c7782612224565b611c81818561228d565b9350611c918185602086016123d5565b80840191505092915050565b6000611caa60208361227c565b91507f537472696e67733a20686578206c656e67746820696e73756666696369656e746000830152602082019050919050565b6000611cea60268361227c565b91507f4f776e61626c653a206e6577206f776e657220697320746865207a65726f206160008301527f64647265737300000000000000000000000000000000000000000000000000006020830152604082019050919050565b6000611d5060208361227c565b91507f4f776e61626c653a2063616c6c6572206973206e6f7420746865206f776e65726000830152602082019050919050565b6000611d9060178361228d565b91507f416363657373436f6e74726f6c3a206163636f756e74200000000000000000006000830152601782019050919050565b6000611dd060118361228d565b91507f206973206d697373696e6720726f6c65200000000000000000000000000000006000830152601182019050919050565b6000611e10602f8361227c565b91507f416363657373436f6e74726f6c3a2063616e206f6e6c792072656e6f756e636560008301527f20726f6c657320666f722073656c6600000000000000000000000000000000006020830152604082019050919050565b6000608083016000830151611e816000860182611f3d565b5060208301518482036020860152611e998282611bfa565b91505060408301518482036040860152611eb38282611bfa565b9150506060830151611ec86060860182611f3d565b508091505092915050565b6000608083016000830151611eeb6000860182611f3d565b5060208301518482036020860152611f038282611bfa565b91505060408301518482036040860152611f1d8282611bfa565b9150506060830151611f326060860182611f3d565b508091505092915050565b611f46816123bc565b82525050565b611f55816123bc565b82525050565b6000611f6682611d83565b9150611f728285611c6c565b9150611f7d82611dc3565b9150611f898284611c6c565b91508190509392505050565b6000602082019050611faa6000830184611afa565b92915050565b60006020820190508181036000830152611fca8184611b09565b905092915050565b60006020820190508181036000830152611fec8184611b67565b905092915050565b60006020820190506120096000830184611bdc565b92915050565b60006020820190506120246000830184611beb565b92915050565b600060208201905081810360008301526120448184611c33565b905092915050565b600060608201905081810360008301526120668186611c33565b9050818103602083015261207a8185611c33565b9050818103604083015261208e8184611c33565b9050949350505050565b600060208201905081810360008301526120b181611c9d565b9050919050565b600060208201905081810360008301526120d181611cdd565b9050919050565b600060208201905081810360008301526120f181611d43565b9050919050565b6000602082019050818103600083015261211181611e03565b9050919050565b600060208201905081810360008301526121328184611ed3565b905092915050565b600060808201905061214f6000830187611f4c565b81810360208301526121618186611c33565b905081810360408301526121758185611c33565b90506121846060830184611f4c565b95945050505050565b6000604051905081810181811067ffffffffffffffff821117156121b4576121b36124c2565b5b8060405250919050565b600067ffffffffffffffff8211156121d9576121d86124c2565b5b601f19601f8301169050602081019050919050565b6000819050602082019050919050565b6000819050602082019050919050565b600081519050919050565b600081519050919050565b600081519050919050565b6000602082019050919050565b6000602082019050919050565b600082825260208201905092915050565b600082825260208201905092915050565b600082825260208201905092915050565b600082825260208201905092915050565b600081905092915050565b60006122a3826123bc565b91506122ae836123bc565b9250827fffffffffffffffffffffffffffffffffffffffffffffffffffffffffffffffff038211156122e3576122e2612464565b5b828201905092915050565b60006122f9826123bc565b9150612304836123bc565b9250817fffffffffffffffffffffffffffffffffffffffffffffffffffffffffffffffff048311821515161561233d5761233c612464565b5b828202905092915050565b60006123538261239c565b9050919050565b60008115159050919050565b6000819050919050565b60007fffffffff0000000000000000000000000000000000000000000000000000000082169050919050565b600073ffffffffffffffffffffffffffffffffffffffff82169050919050565b6000819050919050565b82818337600083830152505050565b60005b838110156123f35780820151818401526020810190506123d8565b83811115612402576000848401525b50505050565b6000612413826123bc565b9150600082141561242757612426612464565b5b600182039050919050565b6000600282049050600182168061244a57607f821691505b6020821081141561245e5761245d612493565b5b50919050565b7f4e487b7100000000000000000000000000000000000000000000000000000000600052601160045260246000fd5b7f4e487b7100000000000000000000000000000000000000000000000000000000600052602260045260246000fd5b7f4e487b7100000000000000000000000000000000000000000000000000000000600052604160045260246000fd5b6000601f19601f8301169050919050565b61250b81612348565b811461251657600080fd5b50565b61252281612366565b811461252d57600080fd5b50565b61253981612370565b811461254457600080fd5b50565b612550816123bc565b811461255b57600080fd5b5056fea264697066735822122000b797ec80b0b8fe5195a746bd3cef7a71a263df4833914edab73f39b7d9732464736f6c63430008000033",
  "immutableReferences": {},
  "source": "pragma solidity  0.8.0;\r\n\r\nimport \"@openzeppelin/contracts/access/Ownable.sol\";\r\nimport \"@openzeppelin/contracts/access/AccessControl.sol\";\r\n\r\ncontract Hospitals is Ownable, AccessControl {\r\n\r\n    struct Hospital {\r\n        string city;\r\n        string country;\r\n        string name;\r\n    }\r\n\r\n    event HospitalAdd(\r\n        string city,\r\n        string country,\r\n        string name\r\n    );\r\n\r\n    struct Doctor {\r\n        uint age;\r\n        string name;\r\n        string specialization;\r\n        uint hospitalId;\r\n    }\r\n\r\n    event DoctorAdd(\r\n        uint age,\r\n        string name,\r\n        string specialization,\r\n        uint hostpitalId\r\n    );\r\n\r\n    mapping(uint => Hospital) hospitals;\r\n    mapping(uint => Doctor[]) doctorsInHospital;\r\n    mapping(address => Doctor) doctors;\r\n    address[] public doctorsAccounts;\r\n\r\n    function addHospital(uint id, string memory name, string memory city, string memory country) public {\r\n        hospitals[id] = Hospital(city, country, name);\r\n\r\n        emit HospitalAdd(city, country, name);\r\n    }\r\n\r\n    function getHospital(uint id) public view returns (string memory, string memory, string memory) {\r\n        return (hospitals[id].name, hospitals[id].country, hospitals[id].city);\r\n    }\r\n\r\n    function addDoctor(address _address, uint _age, string memory _name, string memory _specialization, uint _hospitalId) public {\r\n        doctors[_address] = Doctor(_age, _name, _specialization, _hospitalId);\r\n        doctorsAccounts.push(_address);\r\n\r\n        doctorsInHospital[_hospitalId].push(doctors[_address]);\r\n\r\n        emit DoctorAdd(_age, _name, _specialization, _hospitalId);\r\n    }\r\n\r\n    function getDoctors() view public returns(address[] memory){\r\n        return doctorsAccounts;\r\n    }\r\n\r\n    function getDoctorsInAHospital(uint _hospitalId) view public returns(Doctor[] memory){\r\n        return doctorsInHospital[_hospitalId];\r\n    }\r\n\r\n    function getDoctor(address _address) view public returns (Doctor memory){\r\n        // return (doctors[_address].age, doctors[_address].name, doctors[_address].specialization, doctors[_address].hospitalId);\r\n        return doctors[_address];\r\n    }\r\n}",
  "sourcePath": "C:/Licenta/Licenta/src/contracts/Hospitals.sol",
  "compiler": {
    "name": "solc",
    "version": "0.8.0+commit.c7dfd78e.Emscripten.clang"
  },
  "schemaVersion": "3.2.3",
  "updatedAt": "2022-04-08T10:38:55.041Z",
  "networkType": "ethereum",
  "devdoc": {
    "kind": "dev",
    "methods": {
      "getRoleAdmin(bytes32)": {
        "details": "Returns the admin role that controls `role`. See {grantRole} and {revokeRole}. To change a role's admin, use {_setRoleAdmin}."
      },
      "grantRole(bytes32,address)": {
        "details": "Grants `role` to `account`. If `account` had not been already granted `role`, emits a {RoleGranted} event. Requirements: - the caller must have ``role``'s admin role."
      },
      "hasRole(bytes32,address)": {
        "details": "Returns `true` if `account` has been granted `role`."
      },
      "owner()": {
        "details": "Returns the address of the current owner."
      },
      "renounceOwnership()": {
        "details": "Leaves the contract without owner. It will not be possible to call `onlyOwner` functions anymore. Can only be called by the current owner. NOTE: Renouncing ownership will leave the contract without an owner, thereby removing any functionality that is only available to the owner."
      },
      "renounceRole(bytes32,address)": {
        "details": "Revokes `role` from the calling account. Roles are often managed via {grantRole} and {revokeRole}: this function's purpose is to provide a mechanism for accounts to lose their privileges if they are compromised (such as when a trusted device is misplaced). If the calling account had been revoked `role`, emits a {RoleRevoked} event. Requirements: - the caller must be `account`."
      },
      "revokeRole(bytes32,address)": {
        "details": "Revokes `role` from `account`. If `account` had been granted `role`, emits a {RoleRevoked} event. Requirements: - the caller must have ``role``'s admin role."
      },
      "supportsInterface(bytes4)": {
        "details": "See {IERC165-supportsInterface}."
      },
      "transferOwnership(address)": {
        "details": "Transfers ownership of the contract to a new account (`newOwner`). Can only be called by the current owner."
      }
    },
    "version": 1
  },
  "userdoc": {
    "kind": "user",
    "methods": {},
    "version": 1
  }
}