{
  "contractName": "MedicalResearchers",
  "abi": [
    {
      "inputs": [
        {
          "internalType": "address",
          "name": "registrationA",
          "type": "address"
        }
      ],
      "stateMutability": "nonpayable",
      "type": "constructor"
    },
    {
      "anonymous": false,
      "inputs": [
        {
          "indexed": false,
          "internalType": "address",
          "name": "patient",
          "type": "address"
        },
        {
          "indexed": false,
          "internalType": "string",
          "name": "_hash",
          "type": "string"
        }
      ],
      "name": "FilesAdd",
      "type": "event"
    },
    {
      "anonymous": false,
      "inputs": [
        {
          "indexed": true,
          "internalType": "address",
          "name": "previousOwner",
          "type": "address"
        },
        {
          "indexed": true,
          "internalType": "address",
          "name": "newOwner",
          "type": "address"
        }
      ],
      "name": "OwnershipTransferred",
      "type": "event"
    },
    {
      "anonymous": false,
      "inputs": [
        {
          "indexed": false,
          "internalType": "address",
          "name": "patient",
          "type": "address"
        },
        {
          "indexed": false,
          "internalType": "address",
          "name": "researcher",
          "type": "address"
        },
        {
          "indexed": false,
          "internalType": "uint256",
          "name": "index",
          "type": "uint256"
        }
      ],
      "name": "RequestAdd",
      "type": "event"
    },
    {
      "anonymous": false,
      "inputs": [
        {
          "indexed": false,
          "internalType": "string",
          "name": "name",
          "type": "string"
        },
        {
          "indexed": false,
          "internalType": "string",
          "name": "city",
          "type": "string"
        },
        {
          "indexed": false,
          "internalType": "string",
          "name": "country",
          "type": "string"
        },
        {
          "indexed": false,
          "internalType": "uint256",
          "name": "nrOfPatients",
          "type": "uint256"
        },
        {
          "indexed": false,
          "internalType": "address",
          "name": "_address",
          "type": "address"
        }
      ],
      "name": "ResearcherAdd",
      "type": "event"
    },
    {
      "inputs": [
        {
          "internalType": "uint256",
          "name": "",
          "type": "uint256"
        }
      ],
      "name": "medicalReseachersAccounts",
      "outputs": [
        {
          "internalType": "address",
          "name": "",
          "type": "address"
        }
      ],
      "stateMutability": "view",
      "type": "function",
      "constant": true
    },
    {
      "inputs": [],
      "name": "owner",
      "outputs": [
        {
          "internalType": "address",
          "name": "",
          "type": "address"
        }
      ],
      "stateMutability": "view",
      "type": "function",
      "constant": true
    },
    {
      "inputs": [],
      "name": "renounceOwnership",
      "outputs": [],
      "stateMutability": "nonpayable",
      "type": "function"
    },
    {
      "inputs": [
        {
          "internalType": "address",
          "name": "newOwner",
          "type": "address"
        }
      ],
      "name": "transferOwnership",
      "outputs": [],
      "stateMutability": "nonpayable",
      "type": "function"
    },
    {
      "inputs": [
        {
          "internalType": "address",
          "name": "_address",
          "type": "address"
        }
      ],
      "name": "getResearcher",
      "outputs": [
        {
          "components": [
            {
              "internalType": "string",
              "name": "name",
              "type": "string"
            },
            {
              "internalType": "string",
              "name": "city",
              "type": "string"
            },
            {
              "internalType": "string",
              "name": "country",
              "type": "string"
            },
            {
              "internalType": "uint256",
              "name": "nrOfPatients",
              "type": "uint256"
            },
            {
              "internalType": "address",
              "name": "_address",
              "type": "address"
            }
          ],
          "internalType": "struct MedicalResearchers.Researcher",
          "name": "",
          "type": "tuple"
        }
      ],
      "stateMutability": "nonpayable",
      "type": "function"
    },
    {
      "inputs": [
        {
          "internalType": "address",
          "name": "_address",
          "type": "address"
        }
      ],
      "name": "getPatientsOfAResearcher",
      "outputs": [
        {
          "internalType": "address[]",
          "name": "",
          "type": "address[]"
        }
      ],
      "stateMutability": "nonpayable",
      "type": "function"
    },
    {
      "inputs": [],
      "name": "getReseachers",
      "outputs": [
        {
          "internalType": "address[]",
          "name": "",
          "type": "address[]"
        }
      ],
      "stateMutability": "view",
      "type": "function",
      "constant": true
    },
    {
      "inputs": [
        {
          "internalType": "string",
          "name": "encryptionPublicKey",
          "type": "string"
        }
      ],
      "name": "addEncryptionKey",
      "outputs": [],
      "stateMutability": "nonpayable",
      "type": "function"
    },
    {
      "inputs": [
        {
          "internalType": "address",
          "name": "_address",
          "type": "address"
        }
      ],
      "name": "getEncryptionPublicKey",
      "outputs": [
        {
          "internalType": "string",
          "name": "",
          "type": "string"
        }
      ],
      "stateMutability": "nonpayable",
      "type": "function"
    },
    {
      "inputs": [
        {
          "components": [
            {
              "internalType": "string",
              "name": "name",
              "type": "string"
            },
            {
              "internalType": "string",
              "name": "city",
              "type": "string"
            },
            {
              "internalType": "string",
              "name": "country",
              "type": "string"
            },
            {
              "internalType": "uint256",
              "name": "nrOfPatients",
              "type": "uint256"
            },
            {
              "internalType": "address",
              "name": "_address",
              "type": "address"
            }
          ],
          "internalType": "struct MedicalResearchers.Researcher",
          "name": "researcher",
          "type": "tuple"
        }
      ],
      "name": "addResearcher",
      "outputs": [],
      "stateMutability": "nonpayable",
      "type": "function"
    },
    {
      "inputs": [
        {
          "internalType": "address",
          "name": "patient",
          "type": "address"
        },
        {
          "internalType": "address",
          "name": "researcher",
          "type": "address"
        }
      ],
      "name": "addRequest",
      "outputs": [],
      "stateMutability": "nonpayable",
      "type": "function"
    },
    {
      "inputs": [
        {
          "internalType": "address",
          "name": "_address",
          "type": "address"
        }
      ],
      "name": "getHistoryAvailableForResearcher",
      "outputs": [
        {
          "internalType": "address[]",
          "name": "",
          "type": "address[]"
        }
      ],
      "stateMutability": "nonpayable",
      "type": "function"
    },
    {
      "inputs": [
        {
          "internalType": "address",
          "name": "_address",
          "type": "address"
        }
      ],
      "name": "getRequestsOfAResearcher",
      "outputs": [
        {
          "components": [
            {
              "internalType": "address",
              "name": "patient",
              "type": "address"
            },
            {
              "internalType": "address",
              "name": "researcher",
              "type": "address"
            },
            {
              "internalType": "uint256",
              "name": "index",
              "type": "uint256"
            }
          ],
          "internalType": "struct MedicalResearchers.Request[]",
          "name": "",
          "type": "tuple[]"
        }
      ],
      "stateMutability": "nonpayable",
      "type": "function"
    },
    {
      "inputs": [
        {
          "internalType": "address",
          "name": "_address",
          "type": "address"
        },
        {
          "internalType": "string",
          "name": "_hash",
          "type": "string"
        }
      ],
      "name": "addFilesToResearcher",
      "outputs": [],
      "stateMutability": "nonpayable",
      "type": "function"
    },
    {
      "inputs": [
        {
          "internalType": "address",
          "name": "_address",
          "type": "address"
        },
        {
          "internalType": "uint256",
          "name": "index",
          "type": "uint256"
        },
        {
          "internalType": "string",
          "name": "_hash",
          "type": "string"
        }
      ],
      "name": "acceptRequestFromResearcher",
      "outputs": [],
      "stateMutability": "nonpayable",
      "type": "function"
    },
    {
      "inputs": [
        {
          "internalType": "address",
          "name": "_address",
          "type": "address"
        }
      ],
      "name": "getFilesHistory",
      "outputs": [
        {
          "components": [
            {
              "internalType": "address",
              "name": "patient",
              "type": "address"
            },
            {
              "internalType": "string",
              "name": "_hash",
              "type": "string"
            }
          ],
          "internalType": "struct MedicalResearchers.Files[]",
          "name": "",
          "type": "tuple[]"
        }
      ],
      "stateMutability": "nonpayable",
      "type": "function"
    }
  ],
  "bytecode": "0x60806040523480156200001157600080fd5b5060405162002a4338038062002a43833981810160405281019062000037919062000182565b620000576200004b6200009f60201b60201c565b620000a760201b60201c565b80600160006101000a81548173ffffffffffffffffffffffffffffffffffffffff021916908373ffffffffffffffffffffffffffffffffffffffff16021790555050620001fc565b600033905090565b60008060009054906101000a900473ffffffffffffffffffffffffffffffffffffffff169050816000806101000a81548173ffffffffffffffffffffffffffffffffffffffff021916908373ffffffffffffffffffffffffffffffffffffffff1602179055508173ffffffffffffffffffffffffffffffffffffffff168173ffffffffffffffffffffffffffffffffffffffff167f8be0079c531659141344cd1fd0a4f28419497f9722a3daafe3b4186f6b6457e060405160405180910390a35050565b6000815190506200017c81620001e2565b92915050565b6000602082840312156200019557600080fd5b6000620001a5848285016200016b565b91505092915050565b6000620001bb82620001c2565b9050919050565b600073ffffffffffffffffffffffffffffffffffffffff82169050919050565b620001ed81620001ae565b8114620001f957600080fd5b50565b612837806200020c6000396000f3fe608060405234801561001057600080fd5b50600436106101005760003560e01c8063715018a6116100975780639dde40bd116100665780639dde40bd14610297578063b6e3fe56146102c7578063e7eba4c2146102f7578063f2fde38b1461032757610100565b8063715018a6146102235780637d9f7b191461022d578063895af4f11461025d5780638da5cb5b1461027957610100565b80633e6d4ff8116100d35780633e6d4ff81461018957806351103675146101a7578063558eca3e146101c3578063675bbbc2146101f357610100565b80630c5fb11d146101055780630d8eeac8146101215780630f8d66c414610151578063399423a81461016d575b600080fd5b61011f600480360381019061011a9190611c48565b610343565b005b61013b60048036038101906101369190611be3565b610479565b60405161014891906122a4565b60405180910390f35b61016b60048036038101906101669190611d03565b610546565b005b61018760048036038101906101829190611d85565b6106a2565b005b6101916109e1565b60405161019e91906122a4565b60405180910390f35b6101c160048036038101906101bc9190611c9c565b610a6f565b005b6101dd60048036038101906101d89190611be3565b610d8a565b6040516101ea91906122c6565b60405180910390f35b61020d60048036038101906102089190611dc6565b610f10565b60405161021a9190612222565b60405180910390f35b61022b610f4f565b005b61024760048036038101906102429190611be3565b610fd7565b604051610254919061230a565b60405180910390f35b61027760048036038101906102729190611c0c565b6110a8565b005b6102816112b4565b60405161028e9190612222565b60405180910390f35b6102b160048036038101906102ac9190611be3565b6112dd565b6040516102be91906122e8565b60405180910390f35b6102e160048036038101906102dc9190611be3565b611431565b6040516102ee91906122a4565b60405180910390f35b610311600480360381019061030c9190611be3565b6114fe565b60405161031e91906123d4565b60405180910390f35b610341600480360381019061033c9190611be3565b61176d565b005b600360008373ffffffffffffffffffffffffffffffffffffffff1673ffffffffffffffffffffffffffffffffffffffff16815260200190815260200160002060405180604001604052803373ffffffffffffffffffffffffffffffffffffffff16815260200183815250908060018154018082558091505060019003906000526020600020906002020160009091909190915060008201518160000160006101000a81548173ffffffffffffffffffffffffffffffffffffffff021916908373ffffffffffffffffffffffffffffffffffffffff1602179055506020820151816001019080519060200190610439929190611931565b5050507ffe3833d10ea2624036e9009fa30162c7514262e56688d210546a48503743e512338260405161046d929190612274565b60405180910390a15050565b6060600760008373ffffffffffffffffffffffffffffffffffffffff1673ffffffffffffffffffffffffffffffffffffffff16815260200190815260200160002080548060200260200160405190810160405280929190818152602001828054801561053a57602002820191906000526020600020905b8160009054906101000a900473ffffffffffffffffffffffffffffffffffffffff1673ffffffffffffffffffffffffffffffffffffffff16815260200190600101908083116104f0575b50505050509050919050565b604051602001610555906121f8565b60405160208183030381529060405280519060200120600160009054906101000a900473ffffffffffffffffffffffffffffffffffffffff1673ffffffffffffffffffffffffffffffffffffffff166344276733326040518263ffffffff1660e01b81526004016105c69190612222565b60006040518083038186803b1580156105de57600080fd5b505afa1580156105f2573d6000803e3d6000fd5b505050506040513d6000823e3d601f19601f8201168201806040525081019061061b9190611d44565b60405160200161062b91906121e1565b604051602081830303815290604052805190602001201461064b57600080fd5b80600960003373ffffffffffffffffffffffffffffffffffffffff1673ffffffffffffffffffffffffffffffffffffffff168152602001908152602001600020908051906020019061069e929190611931565b5050565b6040516020016106b19061220d565b60405160208183030381529060405280519060200120600160009054906101000a900473ffffffffffffffffffffffffffffffffffffffff1673ffffffffffffffffffffffffffffffffffffffff166344276733326040518263ffffffff1660e01b81526004016107229190612222565b60006040518083038186803b15801561073a57600080fd5b505afa15801561074e573d6000803e3d6000fd5b505050506040513d6000823e3d601f19601f820116820180604052508101906107779190611d44565b60405160200161078791906121e1565b60405160208183030381529060405280519060200120146107a757600080fd5b8060066000836080015173ffffffffffffffffffffffffffffffffffffffff1673ffffffffffffffffffffffffffffffffffffffff1681526020019081526020016000206000820151816000019080519060200190610807929190611931565b506020820151816001019080519060200190610824929190611931565b506040820151816002019080519060200190610841929190611931565b506060820151816003015560808201518160040160006101000a81548173ffffffffffffffffffffffffffffffffffffffff021916908373ffffffffffffffffffffffffffffffffffffffff160217905550905050600581608001519080600181540180825580915050600190039060005260206000200160009091909190916101000a81548173ffffffffffffffffffffffffffffffffffffffff021916908373ffffffffffffffffffffffffffffffffffffffff160217905550600160009054906101000a900473ffffffffffffffffffffffffffffffffffffffff1673ffffffffffffffffffffffffffffffffffffffff166328bde61582608001516040518263ffffffff1660e01b815260040161095c9190612222565b600060405180830381600087803b15801561097657600080fd5b505af115801561098a573d6000803e3d6000fd5b505050507f96a93e10874f26ff6ccba23fd1dbefd27d1937ce628841db3406cf59b9ce2330816000015182602001518360400151600085608001516040516109d695949392919061232c565b60405180910390a150565b60606005805480602002602001604051908101604052809291908181526020018280548015610a6557602002820191906000526020600020905b8160009054906101000a900473ffffffffffffffffffffffffffffffffffffffff1673ffffffffffffffffffffffffffffffffffffffff1681526020019060010190808311610a1b575b5050505050905090565b600260008473ffffffffffffffffffffffffffffffffffffffff1673ffffffffffffffffffffffffffffffffffffffff168152602001908152602001600020339080600181540180825580915050600190039060005260206000200160009091909190916101000a81548173ffffffffffffffffffffffffffffffffffffffff021916908373ffffffffffffffffffffffffffffffffffffffff160217905550600760008473ffffffffffffffffffffffffffffffffffffffff1673ffffffffffffffffffffffffffffffffffffffff168152602001908152602001600020339080600181540180825580915050600190039060005260206000200160009091909190916101000a81548173ffffffffffffffffffffffffffffffffffffffff021916908373ffffffffffffffffffffffffffffffffffffffff160217905550600660008473ffffffffffffffffffffffffffffffffffffffff1673ffffffffffffffffffffffffffffffffffffffff1681526020019081526020016000206003016000815480929190610c0290612622565b9190505550600860003373ffffffffffffffffffffffffffffffffffffffff1673ffffffffffffffffffffffffffffffffffffffff168152602001908152602001600020839080600181540180825580915050600190039060005260206000200160009091909190916101000a81548173ffffffffffffffffffffffffffffffffffffffff021916908373ffffffffffffffffffffffffffffffffffffffff160217905550600460003373ffffffffffffffffffffffffffffffffffffffff1673ffffffffffffffffffffffffffffffffffffffff1681526020019081526020016000208281548110610d1e577f4e487b7100000000000000000000000000000000000000000000000000000000600052603260045260246000fd5b9060005260206000209060030201600080820160006101000a81549073ffffffffffffffffffffffffffffffffffffffff02191690556001820160006101000a81549073ffffffffffffffffffffffffffffffffffffffff021916905560028201600090555050505050565b6060600360008373ffffffffffffffffffffffffffffffffffffffff1673ffffffffffffffffffffffffffffffffffffffff168152602001908152602001600020805480602002602001604051908101604052809291908181526020016000905b82821015610f0557838290600052602060002090600202016040518060400160405290816000820160009054906101000a900473ffffffffffffffffffffffffffffffffffffffff1673ffffffffffffffffffffffffffffffffffffffff1673ffffffffffffffffffffffffffffffffffffffff168152602001600182018054610e74906125bf565b80601f0160208091040260200160405190810160405280929190818152602001828054610ea0906125bf565b8015610eed5780601f10610ec257610100808354040283529160200191610eed565b820191906000526020600020905b815481529060010190602001808311610ed057829003601f168201915b50505050508152505081526020019060010190610deb565b505050509050919050565b60058181548110610f2057600080fd5b906000526020600020016000915054906101000a900473ffffffffffffffffffffffffffffffffffffffff1681565b610f57611865565b73ffffffffffffffffffffffffffffffffffffffff16610f756112b4565b73ffffffffffffffffffffffffffffffffffffffff1614610fcb576040517f08c379a0000000000000000000000000000000000000000000000000000000008152600401610fc2906123b4565b60405180910390fd5b610fd5600061186d565b565b6060600960008373ffffffffffffffffffffffffffffffffffffffff1673ffffffffffffffffffffffffffffffffffffffff1681526020019081526020016000208054611023906125bf565b80601f016020809104026020016040519081016040528092919081815260200182805461104f906125bf565b801561109c5780601f106110715761010080835404028352916020019161109c565b820191906000526020600020905b81548152906001019060200180831161107f57829003601f168201915b50505050509050919050565b600460008373ffffffffffffffffffffffffffffffffffffffff1673ffffffffffffffffffffffffffffffffffffffff16815260200190815260200160002060405180606001604052808473ffffffffffffffffffffffffffffffffffffffff1681526020018373ffffffffffffffffffffffffffffffffffffffff168152602001600460008673ffffffffffffffffffffffffffffffffffffffff1673ffffffffffffffffffffffffffffffffffffffff16815260200190815260200160002080549050815250908060018154018082558091505060019003906000526020600020906003020160009091909190915060008201518160000160006101000a81548173ffffffffffffffffffffffffffffffffffffffff021916908373ffffffffffffffffffffffffffffffffffffffff16021790555060208201518160010160006101000a81548173ffffffffffffffffffffffffffffffffffffffff021916908373ffffffffffffffffffffffffffffffffffffffff1602179055506040820151816002015550507feaf5ea1e95678b1be41f17e32e21f6f2820f06e7bb870717f720ba58c80ddaa38282600460008673ffffffffffffffffffffffffffffffffffffffff1673ffffffffffffffffffffffffffffffffffffffff168152602001908152602001600020805490506040516112a89392919061223d565b60405180910390a15050565b60008060009054906101000a900473ffffffffffffffffffffffffffffffffffffffff16905090565b6060600460008373ffffffffffffffffffffffffffffffffffffffff1673ffffffffffffffffffffffffffffffffffffffff168152602001908152602001600020805480602002602001604051908101604052809291908181526020016000905b8282101561142657838290600052602060002090600302016040518060600160405290816000820160009054906101000a900473ffffffffffffffffffffffffffffffffffffffff1673ffffffffffffffffffffffffffffffffffffffff1673ffffffffffffffffffffffffffffffffffffffff1681526020016001820160009054906101000a900473ffffffffffffffffffffffffffffffffffffffff1673ffffffffffffffffffffffffffffffffffffffff1673ffffffffffffffffffffffffffffffffffffffff1681526020016002820154815250508152602001906001019061133e565b505050509050919050565b6060600260008373ffffffffffffffffffffffffffffffffffffffff1673ffffffffffffffffffffffffffffffffffffffff1681526020019081526020016000208054806020026020016040519081016040528092919081815260200182805480156114f257602002820191906000526020600020905b8160009054906101000a900473ffffffffffffffffffffffffffffffffffffffff1673ffffffffffffffffffffffffffffffffffffffff16815260200190600101908083116114a8575b50505050509050919050565b6115066119b7565b600660008373ffffffffffffffffffffffffffffffffffffffff1673ffffffffffffffffffffffffffffffffffffffff1681526020019081526020016000206040518060a0016040529081600082018054611560906125bf565b80601f016020809104026020016040519081016040528092919081815260200182805461158c906125bf565b80156115d95780601f106115ae576101008083540402835291602001916115d9565b820191906000526020600020905b8154815290600101906020018083116115bc57829003601f168201915b505050505081526020016001820180546115f2906125bf565b80601f016020809104026020016040519081016040528092919081815260200182805461161e906125bf565b801561166b5780601f106116405761010080835404028352916020019161166b565b820191906000526020600020905b81548152906001019060200180831161164e57829003601f168201915b50505050508152602001600282018054611684906125bf565b80601f01602080910402602001604051908101604052809291908181526020018280546116b0906125bf565b80156116fd5780601f106116d2576101008083540402835291602001916116fd565b820191906000526020600020905b8154815290600101906020018083116116e057829003601f168201915b50505050508152602001600382015481526020016004820160009054906101000a900473ffffffffffffffffffffffffffffffffffffffff1673ffffffffffffffffffffffffffffffffffffffff1673ffffffffffffffffffffffffffffffffffffffff16815250509050919050565b611775611865565b73ffffffffffffffffffffffffffffffffffffffff166117936112b4565b73ffffffffffffffffffffffffffffffffffffffff16146117e9576040517f08c379a00000000000000000000000000000000000000000000000000000000081526004016117e0906123b4565b60405180910390fd5b600073ffffffffffffffffffffffffffffffffffffffff168173ffffffffffffffffffffffffffffffffffffffff161415611859576040517f08c379a000000000000000000000000000000000000000000000000000000000815260040161185090612394565b60405180910390fd5b6118628161186d565b50565b600033905090565b60008060009054906101000a900473ffffffffffffffffffffffffffffffffffffffff169050816000806101000a81548173ffffffffffffffffffffffffffffffffffffffff021916908373ffffffffffffffffffffffffffffffffffffffff1602179055508173ffffffffffffffffffffffffffffffffffffffff168173ffffffffffffffffffffffffffffffffffffffff167f8be0079c531659141344cd1fd0a4f28419497f9722a3daafe3b4186f6b6457e060405160405180910390a35050565b82805461193d906125bf565b90600052602060002090601f01602090048101928261195f57600085556119a6565b82601f1061197857805160ff19168380011785556119a6565b828001600101855582156119a6579182015b828111156119a557825182559160200191906001019061198a565b5b5090506119b391906119fc565b5090565b6040518060a0016040528060608152602001606081526020016060815260200160008152602001600073ffffffffffffffffffffffffffffffffffffffff1681525090565b5b80821115611a155760008160009055506001016119fd565b5090565b6000611a2c611a278461241b565b6123f6565b905082815260208101848484011115611a4457600080fd5b611a4f84828561257d565b509392505050565b6000611a6a611a658461241b565b6123f6565b905082815260208101848484011115611a8257600080fd5b611a8d84828561258c565b509392505050565b600081359050611aa4816127d3565b92915050565b600082601f830112611abb57600080fd5b8135611acb848260208601611a19565b91505092915050565b600082601f830112611ae557600080fd5b8151611af5848260208601611a57565b91505092915050565b600060a08284031215611b1057600080fd5b611b1a60a06123f6565b9050600082013567ffffffffffffffff811115611b3657600080fd5b611b4284828501611aaa565b600083015250602082013567ffffffffffffffff811115611b6257600080fd5b611b6e84828501611aaa565b602083015250604082013567ffffffffffffffff811115611b8e57600080fd5b611b9a84828501611aaa565b6040830152506060611bae84828501611bce565b6060830152506080611bc284828501611a95565b60808301525092915050565b600081359050611bdd816127ea565b92915050565b600060208284031215611bf557600080fd5b6000611c0384828501611a95565b91505092915050565b60008060408385031215611c1f57600080fd5b6000611c2d85828601611a95565b9250506020611c3e85828601611a95565b9150509250929050565b60008060408385031215611c5b57600080fd5b6000611c6985828601611a95565b925050602083013567ffffffffffffffff811115611c8657600080fd5b611c9285828601611aaa565b9150509250929050565b600080600060608486031215611cb157600080fd5b6000611cbf86828701611a95565b9350506020611cd086828701611bce565b925050604084013567ffffffffffffffff811115611ced57600080fd5b611cf986828701611aaa565b9150509250925092565b600060208284031215611d1557600080fd5b600082013567ffffffffffffffff811115611d2f57600080fd5b611d3b84828501611aaa565b91505092915050565b600060208284031215611d5657600080fd5b600082015167ffffffffffffffff811115611d7057600080fd5b611d7c84828501611ad4565b91505092915050565b600060208284031215611d9757600080fd5b600082013567ffffffffffffffff811115611db157600080fd5b611dbd84828501611afe565b91505092915050565b600060208284031215611dd857600080fd5b6000611de684828501611bce565b91505092915050565b6000611dfb8383611e33565b60208301905092915050565b6000611e1383836120c0565b905092915050565b6000611e2783836120fd565b60608301905092915050565b611e3c8161252f565b82525050565b611e4b8161252f565b82525050565b6000611e5c8261247c565b611e6681856124cf565b9350611e718361244c565b8060005b83811015611ea2578151611e898882611def565b9750611e94836124a8565b925050600181019050611e75565b5085935050505092915050565b6000611eba82612487565b611ec481856124e0565b935083602082028501611ed68561245c565b8060005b85811015611f125784840389528151611ef38582611e07565b9450611efe836124b5565b925060208a01995050600181019050611eda565b50829750879550505050505092915050565b6000611f2f82612492565b611f3981856124f1565b9350611f448361246c565b8060005b83811015611f75578151611f5c8882611e1b565b9750611f67836124c2565b925050600181019050611f48565b5085935050505092915050565b611f8b8161256b565b82525050565b6000611f9c8261249d565b611fa68185612502565b9350611fb681856020860161258c565b611fbf816126f8565b840191505092915050565b6000611fd58261249d565b611fdf8185612513565b9350611fef81856020860161258c565b611ff8816126f8565b840191505092915050565b600061200e8261249d565b6120188185612524565b935061202881856020860161258c565b80840191505092915050565b6000612041602683612513565b915061204c82612709565b604082019050919050565b6000612064600a83612524565b915061206f82612758565b600a82019050919050565b6000612087602083612513565b915061209282612781565b602082019050919050565b60006120aa600583612524565b91506120b5826127aa565b600582019050919050565b60006040830160008301516120d86000860182611e33565b50602083015184820360208601526120f08282611f91565b9150508091505092915050565b6060820160008201516121136000850182611e33565b5060208201516121266020850182611e33565b50604082015161213960408501826121c3565b50505050565b600060a083016000830151848203600086015261215c8282611f91565b915050602083015184820360208601526121768282611f91565b915050604083015184820360408601526121908282611f91565b91505060608301516121a560608601826121c3565b5060808301516121b86080860182611e33565b508091505092915050565b6121cc81612561565b82525050565b6121db81612561565b82525050565b60006121ed8284612003565b915081905092915050565b600061220382612057565b9150819050919050565b60006122188261209d565b9150819050919050565b60006020820190506122376000830184611e42565b92915050565b60006060820190506122526000830186611e42565b61225f6020830185611e42565b61226c60408301846121d2565b949350505050565b60006040820190506122896000830185611e42565b818103602083015261229b8184611fca565b90509392505050565b600060208201905081810360008301526122be8184611e51565b905092915050565b600060208201905081810360008301526122e08184611eaf565b905092915050565b600060208201905081810360008301526123028184611f24565b905092915050565b600060208201905081810360008301526123248184611fca565b905092915050565b600060a08201905081810360008301526123468188611fca565b9050818103602083015261235a8187611fca565b9050818103604083015261236e8186611fca565b905061237d6060830185611f82565b61238a6080830184611e42565b9695505050505050565b600060208201905081810360008301526123ad81612034565b9050919050565b600060208201905081810360008301526123cd8161207a565b9050919050565b600060208201905081810360008301526123ee818461213f565b905092915050565b6000612400612411565b905061240c82826125f1565b919050565b6000604051905090565b600067ffffffffffffffff821115612436576124356126c9565b5b61243f826126f8565b9050602081019050919050565b6000819050602082019050919050565b6000819050602082019050919050565b6000819050602082019050919050565b600081519050919050565b600081519050919050565b600081519050919050565b600081519050919050565b6000602082019050919050565b6000602082019050919050565b6000602082019050919050565b600082825260208201905092915050565b600082825260208201905092915050565b600082825260208201905092915050565b600082825260208201905092915050565b600082825260208201905092915050565b600081905092915050565b600061253a82612541565b9050919050565b600073ffffffffffffffffffffffffffffffffffffffff82169050919050565b6000819050919050565b600061257682612561565b9050919050565b82818337600083830152505050565b60005b838110156125aa57808201518184015260208101905061258f565b838111156125b9576000848401525b50505050565b600060028204905060018216806125d757607f821691505b602082108114156125eb576125ea61269a565b5b50919050565b6125fa826126f8565b810181811067ffffffffffffffff82111715612619576126186126c9565b5b80604052505050565b600061262d82612561565b91507fffffffffffffffffffffffffffffffffffffffffffffffffffffffffffffffff8214156126605761265f61266b565b5b600182019050919050565b7f4e487b7100000000000000000000000000000000000000000000000000000000600052601160045260246000fd5b7f4e487b7100000000000000000000000000000000000000000000000000000000600052602260045260246000fd5b7f4e487b7100000000000000000000000000000000000000000000000000000000600052604160045260246000fd5b6000601f19601f8301169050919050565b7f4f776e61626c653a206e6577206f776e657220697320746865207a65726f206160008201527f6464726573730000000000000000000000000000000000000000000000000000602082015250565b7f5245534541524348455200000000000000000000000000000000000000000000600082015250565b7f4f776e61626c653a2063616c6c6572206973206e6f7420746865206f776e6572600082015250565b7f41444d494e000000000000000000000000000000000000000000000000000000600082015250565b6127dc8161252f565b81146127e757600080fd5b50565b6127f381612561565b81146127fe57600080fd5b5056fea2646970667358221220fe5f7f3623beae3488504c97add94cfb166f1c215b59d45322c2bbe5706fbdc164736f6c63430008040033",
  "immutableReferences": {},
  "source": "pragma solidity  0.8.4;\r\n\r\nimport \"@openzeppelin/contracts/access/Ownable.sol\";\r\nimport \"@openzeppelin/contracts/access/AccessControl.sol\";\r\nimport \"./Registration.sol\";\r\n\r\ncontract MedicalResearchers is Ownable{\r\n    \r\n    struct Researcher{\r\n        string name;\r\n        string city;\r\n        string country;\r\n        uint nrOfPatients;\r\n        address _address;\r\n    }\r\n\r\n     event ResearcherAdd(\r\n        string name,\r\n        string city,\r\n        string country,\r\n        uint nrOfPatients,\r\n        address _address\r\n    );\r\n\r\n    struct Request {\r\n        address patient;\r\n        address researcher;\r\n        uint index;\r\n    }\r\n\r\n    event RequestAdd(\r\n        address patient,\r\n        address researcher,\r\n        uint index\r\n    );\r\n\r\n     struct Files {\r\n        address patient;\r\n        string _hash;\r\n    }\r\n\r\n    event FilesAdd(\r\n        address patient,\r\n        string _hash\r\n    );\r\n\r\n    Registration _registration;\r\n    \r\n    mapping(address => address[]) historyAvailable;\r\n    mapping(address => Files[]) historyFiles;\r\n    mapping(address => Request[]) requestsOfAPatient;\r\n\r\n    address[] public medicalReseachersAccounts;\r\n\r\n    mapping(address => Researcher) researchers;\r\n    mapping(address => address[]) patients;\r\n    mapping(address => address[]) researchersOfPatient;\r\n\r\n    mapping(address => string) encryptionPublicKeys;\r\n\r\n    constructor(address registrationA) public {\r\n        _registration = Registration(registrationA);\r\n    }\r\n\r\n        modifier onlyAdmin {\r\n      require(keccak256(abi.encodePacked((_registration.getRole(tx.origin)))) == keccak256(abi.encodePacked((\"ADMIN\"))));\r\n      _;\r\n    }\r\n    modifier onlyPatient {\r\n        require(keccak256(abi.encodePacked((_registration.getRole(tx.origin)))) == keccak256(abi.encodePacked((\"PATIENT\"))));\r\n        _;\r\n    }\r\n    modifier onlyMedicalResearcher {\r\n        require(keccak256(abi.encodePacked((_registration.getRole(tx.origin)))) == keccak256(abi.encodePacked((\"RESEARCHER\"))));\r\n        _;\r\n    }\r\n    modifier onlyDoctor {\r\n        require(keccak256(abi.encodePacked((_registration.getRole(tx.origin)))) == keccak256(abi.encodePacked((\"DOCTOR\"))));\r\n        _;\r\n    }\r\n\r\n    function getResearcher(address _address) public returns(Researcher memory){\r\n        return researchers[_address];\r\n    }\r\n\r\n    function getPatientsOfAResearcher(address _address) public returns(address[] memory){\r\n        return patients[_address];\r\n    }\r\n\r\n    function getReseachers() view public returns(address[] memory){\r\n        return medicalReseachersAccounts;\r\n    }\r\n\r\n    function addEncryptionKey(string memory encryptionPublicKey) public onlyMedicalResearcher {\r\n        encryptionPublicKeys[msg.sender] = encryptionPublicKey;\r\n    }\r\n\r\n    function getEncryptionPublicKey(address _address) public returns(string memory){\r\n        return encryptionPublicKeys[_address];\r\n    }\r\n\r\n    function addResearcher(Researcher memory researcher) public onlyAdmin{\r\n        researchers[researcher._address] = researcher;\r\n        medicalReseachersAccounts.push(researcher._address);\r\n        _registration.addResearcher(researcher._address);\r\n        emit ResearcherAdd(researcher.name, researcher.city, researcher.country, 0, researcher._address);\r\n    }\r\n\r\n    function addRequest(address patient, address researcher) public{\r\n        requestsOfAPatient[patient].push(Request(patient, researcher, requestsOfAPatient[patient].length));\r\n\r\n        emit RequestAdd(patient, researcher, requestsOfAPatient[patient].length);\r\n    }\r\n\r\n    function getHistoryAvailableForResearcher(address _address) public returns(address[] memory){\r\n        return historyAvailable[_address];\r\n    }\r\n\r\n    function getRequestsOfAResearcher(address _address) public returns(Request[] memory){\r\n        return requestsOfAPatient[_address];\r\n    }\r\n\r\n    function addFilesToResearcher(address _address, string memory _hash) public{\r\n        historyFiles[_address].push(Files(msg.sender, _hash));\r\n        \r\n        emit FilesAdd(msg.sender, _hash);\r\n    }\r\n\r\n    function acceptRequestFromResearcher(address _address, uint index, string memory _hash) public{\r\n        historyAvailable[_address].push(msg.sender);\r\n        patients[_address].push(msg.sender);\r\n        researchers[_address].nrOfPatients++;\r\n        researchersOfPatient[msg.sender].push(_address);\r\n\r\n        delete requestsOfAPatient[msg.sender][index];\r\n    }\r\n\r\n    function getFilesHistory(address _address) public returns(Files[] memory){\r\n        return historyFiles[_address];\r\n    }\r\n}",
  "sourcePath": "C:/Licenta/Licenta/src/contracts/MedicalResearchers.sol",
  "compiler": {
    "name": "solc",
    "version": "0.8.4+commit.c7e474f2.Emscripten.clang"
  },
  "schemaVersion": "3.2.3",
  "updatedAt": "2022-06-26T20:15:36.284Z",
  "networkType": "ethereum",
  "devdoc": {
    "kind": "dev",
    "methods": {
      "owner()": {
        "details": "Returns the address of the current owner."
      },
      "renounceOwnership()": {
        "details": "Leaves the contract without owner. It will not be possible to call `onlyOwner` functions anymore. Can only be called by the current owner. NOTE: Renouncing ownership will leave the contract without an owner, thereby removing any functionality that is only available to the owner."
      },
      "transferOwnership(address)": {
        "details": "Transfers ownership of the contract to a new account (`newOwner`). Can only be called by the current owner."
      }
    },
    "version": 1
  },
  "userdoc": {
    "kind": "user",
    "methods": {},
    "version": 1
  }
}