{
  "contractName": "MedicalResearchers",
  "abi": [
    {
      "inputs": [
        {
          "internalType": "address",
          "name": "registrationA",
          "type": "address"
        }
      ],
      "stateMutability": "nonpayable",
      "type": "constructor"
    },
    {
      "anonymous": false,
      "inputs": [
        {
          "indexed": false,
          "internalType": "address",
          "name": "patient",
          "type": "address"
        },
        {
          "indexed": false,
          "internalType": "string",
          "name": "_hash",
          "type": "string"
        }
      ],
      "name": "FilesAdd",
      "type": "event"
    },
    {
      "anonymous": false,
      "inputs": [
        {
          "indexed": true,
          "internalType": "address",
          "name": "previousOwner",
          "type": "address"
        },
        {
          "indexed": true,
          "internalType": "address",
          "name": "newOwner",
          "type": "address"
        }
      ],
      "name": "OwnershipTransferred",
      "type": "event"
    },
    {
      "anonymous": false,
      "inputs": [
        {
          "indexed": false,
          "internalType": "address",
          "name": "patient",
          "type": "address"
        },
        {
          "indexed": false,
          "internalType": "address",
          "name": "researcher",
          "type": "address"
        },
        {
          "indexed": false,
          "internalType": "uint256",
          "name": "index",
          "type": "uint256"
        }
      ],
      "name": "RequestAdd",
      "type": "event"
    },
    {
      "anonymous": false,
      "inputs": [
        {
          "indexed": false,
          "internalType": "string",
          "name": "name",
          "type": "string"
        },
        {
          "indexed": false,
          "internalType": "string",
          "name": "city",
          "type": "string"
        },
        {
          "indexed": false,
          "internalType": "string",
          "name": "country",
          "type": "string"
        },
        {
          "indexed": false,
          "internalType": "uint256",
          "name": "nrOfPatients",
          "type": "uint256"
        },
        {
          "indexed": false,
          "internalType": "address",
          "name": "_address",
          "type": "address"
        }
      ],
      "name": "ResearcherAdd",
      "type": "event"
    },
    {
      "inputs": [
        {
          "internalType": "uint256",
          "name": "",
          "type": "uint256"
        }
      ],
      "name": "medicalReseachersAccounts",
      "outputs": [
        {
          "internalType": "address",
          "name": "",
          "type": "address"
        }
      ],
      "stateMutability": "view",
      "type": "function",
      "constant": true
    },
    {
      "inputs": [],
      "name": "owner",
      "outputs": [
        {
          "internalType": "address",
          "name": "",
          "type": "address"
        }
      ],
      "stateMutability": "view",
      "type": "function",
      "constant": true
    },
    {
      "inputs": [],
      "name": "renounceOwnership",
      "outputs": [],
      "stateMutability": "nonpayable",
      "type": "function"
    },
    {
      "inputs": [
        {
          "internalType": "address",
          "name": "newOwner",
          "type": "address"
        }
      ],
      "name": "transferOwnership",
      "outputs": [],
      "stateMutability": "nonpayable",
      "type": "function"
    },
    {
      "inputs": [
        {
          "internalType": "address",
          "name": "_address",
          "type": "address"
        }
      ],
      "name": "getResearcher",
      "outputs": [
        {
          "components": [
            {
              "internalType": "string",
              "name": "name",
              "type": "string"
            },
            {
              "internalType": "string",
              "name": "city",
              "type": "string"
            },
            {
              "internalType": "string",
              "name": "country",
              "type": "string"
            },
            {
              "internalType": "uint256",
              "name": "nrOfPatients",
              "type": "uint256"
            },
            {
              "internalType": "address",
              "name": "_address",
              "type": "address"
            }
          ],
          "internalType": "struct MedicalResearchers.Researcher",
          "name": "",
          "type": "tuple"
        }
      ],
      "stateMutability": "nonpayable",
      "type": "function"
    },
    {
      "inputs": [
        {
          "internalType": "address",
          "name": "_address",
          "type": "address"
        }
      ],
      "name": "getPatientsOfAResearcher",
      "outputs": [
        {
          "internalType": "address[]",
          "name": "",
          "type": "address[]"
        }
      ],
      "stateMutability": "nonpayable",
      "type": "function"
    },
    {
      "inputs": [],
      "name": "getReseachers",
      "outputs": [
        {
          "internalType": "address[]",
          "name": "",
          "type": "address[]"
        }
      ],
      "stateMutability": "view",
      "type": "function",
      "constant": true
    },
    {
      "inputs": [
        {
          "internalType": "string",
          "name": "encryptionPublicKey",
          "type": "string"
        }
      ],
      "name": "addEncryptionKey",
      "outputs": [],
      "stateMutability": "nonpayable",
      "type": "function"
    },
    {
      "inputs": [
        {
          "internalType": "address",
          "name": "_address",
          "type": "address"
        }
      ],
      "name": "getEncryptionPublicKey",
      "outputs": [
        {
          "internalType": "string",
          "name": "",
          "type": "string"
        }
      ],
      "stateMutability": "nonpayable",
      "type": "function"
    },
    {
      "inputs": [
        {
          "components": [
            {
              "internalType": "string",
              "name": "name",
              "type": "string"
            },
            {
              "internalType": "string",
              "name": "city",
              "type": "string"
            },
            {
              "internalType": "string",
              "name": "country",
              "type": "string"
            },
            {
              "internalType": "uint256",
              "name": "nrOfPatients",
              "type": "uint256"
            },
            {
              "internalType": "address",
              "name": "_address",
              "type": "address"
            }
          ],
          "internalType": "struct MedicalResearchers.Researcher",
          "name": "researcher",
          "type": "tuple"
        }
      ],
      "name": "addResearcher",
      "outputs": [],
      "stateMutability": "nonpayable",
      "type": "function"
    },
    {
      "inputs": [
        {
          "internalType": "address",
          "name": "patient",
          "type": "address"
        },
        {
          "internalType": "address",
          "name": "researcher",
          "type": "address"
        }
      ],
      "name": "addRequest",
      "outputs": [],
      "stateMutability": "nonpayable",
      "type": "function"
    },
    {
      "inputs": [
        {
          "internalType": "address",
          "name": "_address",
          "type": "address"
        }
      ],
      "name": "getHistoryAvailableForResearcher",
      "outputs": [
        {
          "internalType": "address[]",
          "name": "",
          "type": "address[]"
        }
      ],
      "stateMutability": "nonpayable",
      "type": "function"
    },
    {
      "inputs": [
        {
          "internalType": "address",
          "name": "_address",
          "type": "address"
        }
      ],
      "name": "getRequestsOfAResearcher",
      "outputs": [
        {
          "components": [
            {
              "internalType": "address",
              "name": "patient",
              "type": "address"
            },
            {
              "internalType": "address",
              "name": "researcher",
              "type": "address"
            },
            {
              "internalType": "uint256",
              "name": "index",
              "type": "uint256"
            }
          ],
          "internalType": "struct MedicalResearchers.Request[]",
          "name": "",
          "type": "tuple[]"
        }
      ],
      "stateMutability": "nonpayable",
      "type": "function"
    },
    {
      "inputs": [
        {
          "internalType": "address",
          "name": "_address",
          "type": "address"
        },
        {
          "internalType": "string",
          "name": "_hash",
          "type": "string"
        }
      ],
      "name": "addFilesToResearcher",
      "outputs": [],
      "stateMutability": "nonpayable",
      "type": "function"
    },
    {
      "inputs": [
        {
          "internalType": "address",
          "name": "_address",
          "type": "address"
        },
        {
          "internalType": "uint256",
          "name": "index",
          "type": "uint256"
        },
        {
          "internalType": "string",
          "name": "_hash",
          "type": "string"
        }
      ],
      "name": "acceptRequestFromResearcher",
      "outputs": [],
      "stateMutability": "nonpayable",
      "type": "function"
    },
    {
      "inputs": [
        {
          "internalType": "address",
          "name": "_address",
          "type": "address"
        },
        {
          "internalType": "uint256",
          "name": "index",
          "type": "uint256"
        }
      ],
      "name": "declineRequestFromResearcher",
      "outputs": [],
      "stateMutability": "nonpayable",
      "type": "function"
    },
    {
      "inputs": [
        {
          "internalType": "address",
          "name": "_address",
          "type": "address"
        }
      ],
      "name": "getFilesHistory",
      "outputs": [
        {
          "components": [
            {
              "internalType": "address",
              "name": "patient",
              "type": "address"
            },
            {
              "internalType": "string",
              "name": "_hash",
              "type": "string"
            }
          ],
          "internalType": "struct MedicalResearchers.Files[]",
          "name": "",
          "type": "tuple[]"
        }
      ],
      "stateMutability": "nonpayable",
      "type": "function"
    }
  ],
  "bytecode": "0x60806040523480156200001157600080fd5b5060405162002ffd38038062002ffd833981810160405281019062000037919062000182565b620000576200004b6200009f60201b60201c565b620000a760201b60201c565b80600160006101000a81548173ffffffffffffffffffffffffffffffffffffffff021916908373ffffffffffffffffffffffffffffffffffffffff16021790555050620001fc565b600033905090565b60008060009054906101000a900473ffffffffffffffffffffffffffffffffffffffff169050816000806101000a81548173ffffffffffffffffffffffffffffffffffffffff021916908373ffffffffffffffffffffffffffffffffffffffff1602179055508173ffffffffffffffffffffffffffffffffffffffff168173ffffffffffffffffffffffffffffffffffffffff167f8be0079c531659141344cd1fd0a4f28419497f9722a3daafe3b4186f6b6457e060405160405180910390a35050565b6000815190506200017c81620001e2565b92915050565b6000602082840312156200019557600080fd5b6000620001a5848285016200016b565b91505092915050565b6000620001bb82620001c2565b9050919050565b600073ffffffffffffffffffffffffffffffffffffffff82169050919050565b620001ed81620001ae565b8114620001f957600080fd5b50565b612df1806200020c6000396000f3fe608060405234801561001057600080fd5b506004361061010b5760003560e01c806367673719116100a25780638da5cb5b116100715780638da5cb5b146102a05780639dde40bd146102be578063b6e3fe56146102ee578063e7eba4c21461031e578063f2fde38b1461034e5761010b565b8063676737191461022e578063715018a61461024a5780637d9f7b1914610254578063895af4f1146102845761010b565b80633e6d4ff8116100de5780633e6d4ff81461019457806351103675146101b2578063558eca3e146101ce578063675bbbc2146101fe5761010b565b80630c5fb11d146101105780630d8eeac81461012c5780630f8d66c41461015c578063399423a814610178575b600080fd5b61012a60048036038101906101259190612165565b61036a565b005b61014660048036038101906101419190612100565b6105a5565b6040516101539190612835565b60405180910390f35b6101766004803603810190610171919061225c565b610672565b005b610192600480360381019061018d91906122de565b6107ce565b005b61019c610b0d565b6040516101a99190612835565b60405180910390f35b6101cc60048036038101906101c791906121f5565b610b9b565b005b6101e860048036038101906101e39190612100565b610fbb565b6040516101f59190612857565b60405180910390f35b6102186004803603810190610213919061231f565b611141565b60405161022591906127b3565b60405180910390f35b610248600480360381019061024391906121b9565b611180565b005b610252611367565b005b61026e60048036038101906102699190612100565b6113ef565b60405161027b919061289b565b60405180910390f35b61029e60048036038101906102999190612129565b6114c0565b005b6102a86117d1565b6040516102b591906127b3565b60405180910390f35b6102d860048036038101906102d39190612100565b6117fa565b6040516102e59190612879565b60405180910390f35b61030860048036038101906103039190612100565b61194e565b6040516103159190612835565b60405180910390f35b61033860048036038101906103339190612100565b611a1b565b6040516103459190612965565b60405180910390f35b61036860048036038101906103639190612100565b611c8a565b005b6040516020016103799061279e565b60405160208183030381529060405280519060200120600160009054906101000a900473ffffffffffffffffffffffffffffffffffffffff1673ffffffffffffffffffffffffffffffffffffffff166344276733326040518263ffffffff1660e01b81526004016103ea91906127b3565b60006040518083038186803b15801561040257600080fd5b505afa158015610416573d6000803e3d6000fd5b505050506040513d6000823e3d601f19601f8201168201806040525081019061043f919061229d565b60405160200161044f919061275d565b604051602081830303815290604052805190602001201461046f57600080fd5b600360008373ffffffffffffffffffffffffffffffffffffffff1673ffffffffffffffffffffffffffffffffffffffff16815260200190815260200160002060405180604001604052803373ffffffffffffffffffffffffffffffffffffffff16815260200183815250908060018154018082558091505060019003906000526020600020906002020160009091909190915060008201518160000160006101000a81548173ffffffffffffffffffffffffffffffffffffffff021916908373ffffffffffffffffffffffffffffffffffffffff1602179055506020820151816001019080519060200190610565929190611e4e565b5050507ffe3833d10ea2624036e9009fa30162c7514262e56688d210546a48503743e5123382604051610599929190612805565b60405180910390a15050565b6060600760008373ffffffffffffffffffffffffffffffffffffffff1673ffffffffffffffffffffffffffffffffffffffff16815260200190815260200160002080548060200260200160405190810160405280929190818152602001828054801561066657602002820191906000526020600020905b8160009054906101000a900473ffffffffffffffffffffffffffffffffffffffff1673ffffffffffffffffffffffffffffffffffffffff168152602001906001019080831161061c575b50505050509050919050565b60405160200161068190612774565b60405160208183030381529060405280519060200120600160009054906101000a900473ffffffffffffffffffffffffffffffffffffffff1673ffffffffffffffffffffffffffffffffffffffff166344276733326040518263ffffffff1660e01b81526004016106f291906127b3565b60006040518083038186803b15801561070a57600080fd5b505afa15801561071e573d6000803e3d6000fd5b505050506040513d6000823e3d601f19601f82011682018060405250810190610747919061229d565b604051602001610757919061275d565b604051602081830303815290604052805190602001201461077757600080fd5b80600960003373ffffffffffffffffffffffffffffffffffffffff1673ffffffffffffffffffffffffffffffffffffffff16815260200190815260200160002090805190602001906107ca929190611e4e565b5050565b6040516020016107dd90612789565b60405160208183030381529060405280519060200120600160009054906101000a900473ffffffffffffffffffffffffffffffffffffffff1673ffffffffffffffffffffffffffffffffffffffff166344276733326040518263ffffffff1660e01b815260040161084e91906127b3565b60006040518083038186803b15801561086657600080fd5b505afa15801561087a573d6000803e3d6000fd5b505050506040513d6000823e3d601f19601f820116820180604052508101906108a3919061229d565b6040516020016108b3919061275d565b60405160208183030381529060405280519060200120146108d357600080fd5b8060066000836080015173ffffffffffffffffffffffffffffffffffffffff1673ffffffffffffffffffffffffffffffffffffffff1681526020019081526020016000206000820151816000019080519060200190610933929190611e4e565b506020820151816001019080519060200190610950929190611e4e565b50604082015181600201908051906020019061096d929190611e4e565b506060820151816003015560808201518160040160006101000a81548173ffffffffffffffffffffffffffffffffffffffff021916908373ffffffffffffffffffffffffffffffffffffffff160217905550905050600581608001519080600181540180825580915050600190039060005260206000200160009091909190916101000a81548173ffffffffffffffffffffffffffffffffffffffff021916908373ffffffffffffffffffffffffffffffffffffffff160217905550600160009054906101000a900473ffffffffffffffffffffffffffffffffffffffff1673ffffffffffffffffffffffffffffffffffffffff166328bde61582608001516040518263ffffffff1660e01b8152600401610a8891906127b3565b600060405180830381600087803b158015610aa257600080fd5b505af1158015610ab6573d6000803e3d6000fd5b505050507f96a93e10874f26ff6ccba23fd1dbefd27d1937ce628841db3406cf59b9ce233081600001518260200151836040015160008560800151604051610b029594939291906128bd565b60405180910390a150565b60606005805480602002602001604051908101604052809291908181526020018280548015610b9157602002820191906000526020600020905b8160009054906101000a900473ffffffffffffffffffffffffffffffffffffffff1673ffffffffffffffffffffffffffffffffffffffff1681526020019060010190808311610b47575b5050505050905090565b604051602001610baa9061279e565b60405160208183030381529060405280519060200120600160009054906101000a900473ffffffffffffffffffffffffffffffffffffffff1673ffffffffffffffffffffffffffffffffffffffff166344276733326040518263ffffffff1660e01b8152600401610c1b91906127b3565b60006040518083038186803b158015610c3357600080fd5b505afa158015610c47573d6000803e3d6000fd5b505050506040513d6000823e3d601f19601f82011682018060405250810190610c70919061229d565b604051602001610c80919061275d565b6040516020818303038152906040528051906020012014610ca057600080fd5b600260008473ffffffffffffffffffffffffffffffffffffffff1673ffffffffffffffffffffffffffffffffffffffff168152602001908152602001600020339080600181540180825580915050600190039060005260206000200160009091909190916101000a81548173ffffffffffffffffffffffffffffffffffffffff021916908373ffffffffffffffffffffffffffffffffffffffff160217905550600760008473ffffffffffffffffffffffffffffffffffffffff1673ffffffffffffffffffffffffffffffffffffffff168152602001908152602001600020339080600181540180825580915050600190039060005260206000200160009091909190916101000a81548173ffffffffffffffffffffffffffffffffffffffff021916908373ffffffffffffffffffffffffffffffffffffffff160217905550600660008473ffffffffffffffffffffffffffffffffffffffff1673ffffffffffffffffffffffffffffffffffffffff1681526020019081526020016000206003016000815480929190610e3390612bb3565b9190505550600860003373ffffffffffffffffffffffffffffffffffffffff1673ffffffffffffffffffffffffffffffffffffffff168152602001908152602001600020839080600181540180825580915050600190039060005260206000200160009091909190916101000a81548173ffffffffffffffffffffffffffffffffffffffff021916908373ffffffffffffffffffffffffffffffffffffffff160217905550600460003373ffffffffffffffffffffffffffffffffffffffff1673ffffffffffffffffffffffffffffffffffffffff1681526020019081526020016000208281548110610f4f577f4e487b7100000000000000000000000000000000000000000000000000000000600052603260045260246000fd5b9060005260206000209060030201600080820160006101000a81549073ffffffffffffffffffffffffffffffffffffffff02191690556001820160006101000a81549073ffffffffffffffffffffffffffffffffffffffff021916905560028201600090555050505050565b6060600360008373ffffffffffffffffffffffffffffffffffffffff1673ffffffffffffffffffffffffffffffffffffffff168152602001908152602001600020805480602002602001604051908101604052809291908181526020016000905b8282101561113657838290600052602060002090600202016040518060400160405290816000820160009054906101000a900473ffffffffffffffffffffffffffffffffffffffff1673ffffffffffffffffffffffffffffffffffffffff1673ffffffffffffffffffffffffffffffffffffffff1681526020016001820180546110a590612b50565b80601f01602080910402602001604051908101604052809291908181526020018280546110d190612b50565b801561111e5780601f106110f35761010080835404028352916020019161111e565b820191906000526020600020905b81548152906001019060200180831161110157829003601f168201915b5050505050815250508152602001906001019061101c565b505050509050919050565b6005818154811061115157600080fd5b906000526020600020016000915054906101000a900473ffffffffffffffffffffffffffffffffffffffff1681565b60405160200161118f9061279e565b60405160208183030381529060405280519060200120600160009054906101000a900473ffffffffffffffffffffffffffffffffffffffff1673ffffffffffffffffffffffffffffffffffffffff166344276733326040518263ffffffff1660e01b815260040161120091906127b3565b60006040518083038186803b15801561121857600080fd5b505afa15801561122c573d6000803e3d6000fd5b505050506040513d6000823e3d601f19601f82011682018060405250810190611255919061229d565b604051602001611265919061275d565b604051602081830303815290604052805190602001201461128557600080fd5b600460003373ffffffffffffffffffffffffffffffffffffffff1673ffffffffffffffffffffffffffffffffffffffff16815260200190815260200160002081815481106112fc577f4e487b7100000000000000000000000000000000000000000000000000000000600052603260045260246000fd5b9060005260206000209060030201600080820160006101000a81549073ffffffffffffffffffffffffffffffffffffffff02191690556001820160006101000a81549073ffffffffffffffffffffffffffffffffffffffff0219169055600282016000905550505050565b61136f611d82565b73ffffffffffffffffffffffffffffffffffffffff1661138d6117d1565b73ffffffffffffffffffffffffffffffffffffffff16146113e3576040517f08c379a00000000000000000000000000000000000000000000000000000000081526004016113da90612945565b60405180910390fd5b6113ed6000611d8a565b565b6060600960008373ffffffffffffffffffffffffffffffffffffffff1673ffffffffffffffffffffffffffffffffffffffff168152602001908152602001600020805461143b90612b50565b80601f016020809104026020016040519081016040528092919081815260200182805461146790612b50565b80156114b45780601f10611489576101008083540402835291602001916114b4565b820191906000526020600020905b81548152906001019060200180831161149757829003601f168201915b50505050509050919050565b6040516020016114cf90612774565b60405160208183030381529060405280519060200120600160009054906101000a900473ffffffffffffffffffffffffffffffffffffffff1673ffffffffffffffffffffffffffffffffffffffff166344276733326040518263ffffffff1660e01b815260040161154091906127b3565b60006040518083038186803b15801561155857600080fd5b505afa15801561156c573d6000803e3d6000fd5b505050506040513d6000823e3d601f19601f82011682018060405250810190611595919061229d565b6040516020016115a5919061275d565b60405160208183030381529060405280519060200120146115c557600080fd5b600460008373ffffffffffffffffffffffffffffffffffffffff1673ffffffffffffffffffffffffffffffffffffffff16815260200190815260200160002060405180606001604052808473ffffffffffffffffffffffffffffffffffffffff1681526020018373ffffffffffffffffffffffffffffffffffffffff168152602001600460008673ffffffffffffffffffffffffffffffffffffffff1673ffffffffffffffffffffffffffffffffffffffff16815260200190815260200160002080549050815250908060018154018082558091505060019003906000526020600020906003020160009091909190915060008201518160000160006101000a81548173ffffffffffffffffffffffffffffffffffffffff021916908373ffffffffffffffffffffffffffffffffffffffff16021790555060208201518160010160006101000a81548173ffffffffffffffffffffffffffffffffffffffff021916908373ffffffffffffffffffffffffffffffffffffffff1602179055506040820151816002015550507feaf5ea1e95678b1be41f17e32e21f6f2820f06e7bb870717f720ba58c80ddaa38282600460008673ffffffffffffffffffffffffffffffffffffffff1673ffffffffffffffffffffffffffffffffffffffff168152602001908152602001600020805490506040516117c5939291906127ce565b60405180910390a15050565b60008060009054906101000a900473ffffffffffffffffffffffffffffffffffffffff16905090565b6060600460008373ffffffffffffffffffffffffffffffffffffffff1673ffffffffffffffffffffffffffffffffffffffff168152602001908152602001600020805480602002602001604051908101604052809291908181526020016000905b8282101561194357838290600052602060002090600302016040518060600160405290816000820160009054906101000a900473ffffffffffffffffffffffffffffffffffffffff1673ffffffffffffffffffffffffffffffffffffffff1673ffffffffffffffffffffffffffffffffffffffff1681526020016001820160009054906101000a900473ffffffffffffffffffffffffffffffffffffffff1673ffffffffffffffffffffffffffffffffffffffff1673ffffffffffffffffffffffffffffffffffffffff1681526020016002820154815250508152602001906001019061185b565b505050509050919050565b6060600260008373ffffffffffffffffffffffffffffffffffffffff1673ffffffffffffffffffffffffffffffffffffffff168152602001908152602001600020805480602002602001604051908101604052809291908181526020018280548015611a0f57602002820191906000526020600020905b8160009054906101000a900473ffffffffffffffffffffffffffffffffffffffff1673ffffffffffffffffffffffffffffffffffffffff16815260200190600101908083116119c5575b50505050509050919050565b611a23611ed4565b600660008373ffffffffffffffffffffffffffffffffffffffff1673ffffffffffffffffffffffffffffffffffffffff1681526020019081526020016000206040518060a0016040529081600082018054611a7d90612b50565b80601f0160208091040260200160405190810160405280929190818152602001828054611aa990612b50565b8015611af65780601f10611acb57610100808354040283529160200191611af6565b820191906000526020600020905b815481529060010190602001808311611ad957829003601f168201915b50505050508152602001600182018054611b0f90612b50565b80601f0160208091040260200160405190810160405280929190818152602001828054611b3b90612b50565b8015611b885780601f10611b5d57610100808354040283529160200191611b88565b820191906000526020600020905b815481529060010190602001808311611b6b57829003601f168201915b50505050508152602001600282018054611ba190612b50565b80601f0160208091040260200160405190810160405280929190818152602001828054611bcd90612b50565b8015611c1a5780601f10611bef57610100808354040283529160200191611c1a565b820191906000526020600020905b815481529060010190602001808311611bfd57829003601f168201915b50505050508152602001600382015481526020016004820160009054906101000a900473ffffffffffffffffffffffffffffffffffffffff1673ffffffffffffffffffffffffffffffffffffffff1673ffffffffffffffffffffffffffffffffffffffff16815250509050919050565b611c92611d82565b73ffffffffffffffffffffffffffffffffffffffff16611cb06117d1565b73ffffffffffffffffffffffffffffffffffffffff1614611d06576040517f08c379a0000000000000000000000000000000000000000000000000000000008152600401611cfd90612945565b60405180910390fd5b600073ffffffffffffffffffffffffffffffffffffffff168173ffffffffffffffffffffffffffffffffffffffff161415611d76576040517f08c379a0000000000000000000000000000000000000000000000000000000008152600401611d6d90612925565b60405180910390fd5b611d7f81611d8a565b50565b600033905090565b60008060009054906101000a900473ffffffffffffffffffffffffffffffffffffffff169050816000806101000a81548173ffffffffffffffffffffffffffffffffffffffff021916908373ffffffffffffffffffffffffffffffffffffffff1602179055508173ffffffffffffffffffffffffffffffffffffffff168173ffffffffffffffffffffffffffffffffffffffff167f8be0079c531659141344cd1fd0a4f28419497f9722a3daafe3b4186f6b6457e060405160405180910390a35050565b828054611e5a90612b50565b90600052602060002090601f016020900481019282611e7c5760008555611ec3565b82601f10611e9557805160ff1916838001178555611ec3565b82800160010185558215611ec3579182015b82811115611ec2578251825591602001919060010190611ea7565b5b509050611ed09190611f19565b5090565b6040518060a0016040528060608152602001606081526020016060815260200160008152602001600073ffffffffffffffffffffffffffffffffffffffff1681525090565b5b80821115611f32576000816000905550600101611f1a565b5090565b6000611f49611f44846129ac565b612987565b905082815260208101848484011115611f6157600080fd5b611f6c848285612b0e565b509392505050565b6000611f87611f82846129ac565b612987565b905082815260208101848484011115611f9f57600080fd5b611faa848285612b1d565b509392505050565b600081359050611fc181612d8d565b92915050565b600082601f830112611fd857600080fd5b8135611fe8848260208601611f36565b91505092915050565b600082601f83011261200257600080fd5b8151612012848260208601611f74565b91505092915050565b600060a0828403121561202d57600080fd5b61203760a0612987565b9050600082013567ffffffffffffffff81111561205357600080fd5b61205f84828501611fc7565b600083015250602082013567ffffffffffffffff81111561207f57600080fd5b61208b84828501611fc7565b602083015250604082013567ffffffffffffffff8111156120ab57600080fd5b6120b784828501611fc7565b60408301525060606120cb848285016120eb565b60608301525060806120df84828501611fb2565b60808301525092915050565b6000813590506120fa81612da4565b92915050565b60006020828403121561211257600080fd5b600061212084828501611fb2565b91505092915050565b6000806040838503121561213c57600080fd5b600061214a85828601611fb2565b925050602061215b85828601611fb2565b9150509250929050565b6000806040838503121561217857600080fd5b600061218685828601611fb2565b925050602083013567ffffffffffffffff8111156121a357600080fd5b6121af85828601611fc7565b9150509250929050565b600080604083850312156121cc57600080fd5b60006121da85828601611fb2565b92505060206121eb858286016120eb565b9150509250929050565b60008060006060848603121561220a57600080fd5b600061221886828701611fb2565b9350506020612229868287016120eb565b925050604084013567ffffffffffffffff81111561224657600080fd5b61225286828701611fc7565b9150509250925092565b60006020828403121561226e57600080fd5b600082013567ffffffffffffffff81111561228857600080fd5b61229484828501611fc7565b91505092915050565b6000602082840312156122af57600080fd5b600082015167ffffffffffffffff8111156122c957600080fd5b6122d584828501611ff1565b91505092915050565b6000602082840312156122f057600080fd5b600082013567ffffffffffffffff81111561230a57600080fd5b6123168482850161201b565b91505092915050565b60006020828403121561233157600080fd5b600061233f848285016120eb565b91505092915050565b6000612354838361238c565b60208301905092915050565b600061236c838361263c565b905092915050565b60006123808383612679565b60608301905092915050565b61239581612ac0565b82525050565b6123a481612ac0565b82525050565b60006123b582612a0d565b6123bf8185612a60565b93506123ca836129dd565b8060005b838110156123fb5781516123e28882612348565b97506123ed83612a39565b9250506001810190506123ce565b5085935050505092915050565b600061241382612a18565b61241d8185612a71565b93508360208202850161242f856129ed565b8060005b8581101561246b578484038952815161244c8582612360565b945061245783612a46565b925060208a01995050600181019050612433565b50829750879550505050505092915050565b600061248882612a23565b6124928185612a82565b935061249d836129fd565b8060005b838110156124ce5781516124b58882612374565b97506124c083612a53565b9250506001810190506124a1565b5085935050505092915050565b6124e481612afc565b82525050565b60006124f582612a2e565b6124ff8185612a93565b935061250f818560208601612b1d565b61251881612c89565b840191505092915050565b600061252e82612a2e565b6125388185612aa4565b9350612548818560208601612b1d565b61255181612c89565b840191505092915050565b600061256782612a2e565b6125718185612ab5565b9350612581818560208601612b1d565b80840191505092915050565b600061259a602683612aa4565b91506125a582612c9a565b604082019050919050565b60006125bd600a83612ab5565b91506125c882612ce9565b600a82019050919050565b60006125e0602083612aa4565b91506125eb82612d12565b602082019050919050565b6000612603600583612ab5565b915061260e82612d3b565b600582019050919050565b6000612626600783612ab5565b915061263182612d64565b600782019050919050565b6000604083016000830151612654600086018261238c565b506020830151848203602086015261266c82826124ea565b9150508091505092915050565b60608201600082015161268f600085018261238c565b5060208201516126a2602085018261238c565b5060408201516126b5604085018261273f565b50505050565b600060a08301600083015184820360008601526126d882826124ea565b915050602083015184820360208601526126f282826124ea565b9150506040830151848203604086015261270c82826124ea565b9150506060830151612721606086018261273f565b506080830151612734608086018261238c565b508091505092915050565b61274881612af2565b82525050565b61275781612af2565b82525050565b6000612769828461255c565b915081905092915050565b600061277f826125b0565b9150819050919050565b6000612794826125f6565b9150819050919050565b60006127a982612619565b9150819050919050565b60006020820190506127c8600083018461239b565b92915050565b60006060820190506127e3600083018661239b565b6127f0602083018561239b565b6127fd604083018461274e565b949350505050565b600060408201905061281a600083018561239b565b818103602083015261282c8184612523565b90509392505050565b6000602082019050818103600083015261284f81846123aa565b905092915050565b600060208201905081810360008301526128718184612408565b905092915050565b60006020820190508181036000830152612893818461247d565b905092915050565b600060208201905081810360008301526128b58184612523565b905092915050565b600060a08201905081810360008301526128d78188612523565b905081810360208301526128eb8187612523565b905081810360408301526128ff8186612523565b905061290e60608301856124db565b61291b608083018461239b565b9695505050505050565b6000602082019050818103600083015261293e8161258d565b9050919050565b6000602082019050818103600083015261295e816125d3565b9050919050565b6000602082019050818103600083015261297f81846126bb565b905092915050565b60006129916129a2565b905061299d8282612b82565b919050565b6000604051905090565b600067ffffffffffffffff8211156129c7576129c6612c5a565b5b6129d082612c89565b9050602081019050919050565b6000819050602082019050919050565b6000819050602082019050919050565b6000819050602082019050919050565b600081519050919050565b600081519050919050565b600081519050919050565b600081519050919050565b6000602082019050919050565b6000602082019050919050565b6000602082019050919050565b600082825260208201905092915050565b600082825260208201905092915050565b600082825260208201905092915050565b600082825260208201905092915050565b600082825260208201905092915050565b600081905092915050565b6000612acb82612ad2565b9050919050565b600073ffffffffffffffffffffffffffffffffffffffff82169050919050565b6000819050919050565b6000612b0782612af2565b9050919050565b82818337600083830152505050565b60005b83811015612b3b578082015181840152602081019050612b20565b83811115612b4a576000848401525b50505050565b60006002820490506001821680612b6857607f821691505b60208210811415612b7c57612b7b612c2b565b5b50919050565b612b8b82612c89565b810181811067ffffffffffffffff82111715612baa57612ba9612c5a565b5b80604052505050565b6000612bbe82612af2565b91507fffffffffffffffffffffffffffffffffffffffffffffffffffffffffffffffff821415612bf157612bf0612bfc565b5b600182019050919050565b7f4e487b7100000000000000000000000000000000000000000000000000000000600052601160045260246000fd5b7f4e487b7100000000000000000000000000000000000000000000000000000000600052602260045260246000fd5b7f4e487b7100000000000000000000000000000000000000000000000000000000600052604160045260246000fd5b6000601f19601f8301169050919050565b7f4f776e61626c653a206e6577206f776e657220697320746865207a65726f206160008201527f6464726573730000000000000000000000000000000000000000000000000000602082015250565b7f5245534541524348455200000000000000000000000000000000000000000000600082015250565b7f4f776e61626c653a2063616c6c6572206973206e6f7420746865206f776e6572600082015250565b7f41444d494e000000000000000000000000000000000000000000000000000000600082015250565b7f50415449454e5400000000000000000000000000000000000000000000000000600082015250565b612d9681612ac0565b8114612da157600080fd5b50565b612dad81612af2565b8114612db857600080fd5b5056fea26469706673582212203add116c1d82016178beb90f43863ac13a4bb9eabab7af164ce63a47c1d0d3a964736f6c63430008040033",
  "immutableReferences": {},
  "source": "pragma solidity  0.8.4;\r\n\r\nimport \"@openzeppelin/contracts/access/Ownable.sol\";\r\nimport \"@openzeppelin/contracts/access/AccessControl.sol\";\r\nimport \"./Registration.sol\";\r\n\r\ncontract MedicalResearchers is Ownable{\r\n    \r\n    struct Researcher{\r\n        string name;\r\n        string city;\r\n        string country;\r\n        uint nrOfPatients;\r\n        address _address;\r\n    }\r\n\r\n     event ResearcherAdd(\r\n        string name,\r\n        string city,\r\n        string country,\r\n        uint nrOfPatients,\r\n        address _address\r\n    );\r\n\r\n    struct Request {\r\n        address patient;\r\n        address researcher;\r\n        uint index;\r\n    }\r\n\r\n    event RequestAdd(\r\n        address patient,\r\n        address researcher,\r\n        uint index\r\n    );\r\n\r\n     struct Files {\r\n        address patient;\r\n        string _hash;\r\n    }\r\n\r\n    event FilesAdd(\r\n        address patient,\r\n        string _hash\r\n    );\r\n\r\n    Registration _registration;\r\n    \r\n    mapping(address => address[]) historyAvailable;\r\n    mapping(address => Files[]) historyFiles;\r\n    mapping(address => Request[]) requestsOfAPatient;\r\n\r\n    address[] public medicalReseachersAccounts;\r\n\r\n    mapping(address => Researcher) researchers;\r\n    mapping(address => address[]) patients;\r\n    mapping(address => address[]) researchersOfPatient;\r\n\r\n    mapping(address => string) encryptionPublicKeys;\r\n\r\n    constructor(address registrationA) public {\r\n        _registration = Registration(registrationA);\r\n    }\r\n\r\n    modifier onlyAdmin {\r\n      require(keccak256(abi.encodePacked((_registration.getRole(tx.origin)))) == keccak256(abi.encodePacked((\"ADMIN\"))));\r\n      _;\r\n    }\r\n    modifier onlyPatient {\r\n        require(keccak256(abi.encodePacked((_registration.getRole(tx.origin)))) == keccak256(abi.encodePacked((\"PATIENT\"))));\r\n        _;\r\n    }\r\n    modifier onlyMedicalResearcher {\r\n        require(keccak256(abi.encodePacked((_registration.getRole(tx.origin)))) == keccak256(abi.encodePacked((\"RESEARCHER\"))));\r\n        _;\r\n    }\r\n\r\n    function getResearcher(address _address) public returns(Researcher memory){\r\n        return researchers[_address];\r\n    }\r\n\r\n    function getPatientsOfAResearcher(address _address) public returns(address[] memory){\r\n        return patients[_address];\r\n    }\r\n\r\n    function getReseachers() view public returns(address[] memory){\r\n        return medicalReseachersAccounts;\r\n    }\r\n\r\n    function addEncryptionKey(string memory encryptionPublicKey) public onlyMedicalResearcher {\r\n        encryptionPublicKeys[msg.sender] = encryptionPublicKey;\r\n    }\r\n\r\n    function getEncryptionPublicKey(address _address) public returns(string memory){\r\n        return encryptionPublicKeys[_address];\r\n    }\r\n\r\n    function addResearcher(Researcher memory researcher) public onlyAdmin{\r\n        researchers[researcher._address] = researcher;\r\n        medicalReseachersAccounts.push(researcher._address);\r\n        _registration.addResearcher(researcher._address);\r\n        emit ResearcherAdd(researcher.name, researcher.city, researcher.country, 0, researcher._address);\r\n    }\r\n\r\n    function addRequest(address patient, address researcher) onlyMedicalResearcher public{\r\n        requestsOfAPatient[patient].push(Request(patient, researcher, requestsOfAPatient[patient].length));\r\n\r\n        emit RequestAdd(patient, researcher, requestsOfAPatient[patient].length);\r\n    }\r\n\r\n    function getHistoryAvailableForResearcher(address _address) public returns(address[] memory){\r\n        return historyAvailable[_address];\r\n    }\r\n\r\n    function getRequestsOfAResearcher(address _address) public returns(Request[] memory){\r\n        return requestsOfAPatient[_address];\r\n    }\r\n\r\n    function addFilesToResearcher(address _address, string memory _hash) onlyPatient public{\r\n        historyFiles[_address].push(Files(msg.sender, _hash));\r\n        \r\n        emit FilesAdd(msg.sender, _hash);\r\n    }\r\n\r\n    function acceptRequestFromResearcher(address _address, uint index, string memory _hash) onlyPatient public{\r\n        historyAvailable[_address].push(msg.sender);\r\n        patients[_address].push(msg.sender);\r\n        researchers[_address].nrOfPatients++;\r\n        researchersOfPatient[msg.sender].push(_address);\r\n\r\n        delete requestsOfAPatient[msg.sender][index];\r\n    }\r\n\r\n    function declineRequestFromResearcher(address _address, uint index) public onlyPatient{\r\n        delete requestsOfAPatient[msg.sender][index];\r\n    }\r\n\r\n    function getFilesHistory(address _address) public returns(Files[] memory){\r\n        return historyFiles[_address];\r\n    }\r\n}",
  "sourcePath": "C:/Licenta/Licenta/src/contracts/MedicalResearchers.sol",
  "compiler": {
    "name": "solc",
    "version": "0.8.4+commit.c7e474f2.Emscripten.clang"
  },
  "schemaVersion": "3.2.3",
  "updatedAt": "2022-06-30T17:30:30.284Z",
  "networkType": "ethereum",
  "devdoc": {
    "kind": "dev",
    "methods": {
      "owner()": {
        "details": "Returns the address of the current owner."
      },
      "renounceOwnership()": {
        "details": "Leaves the contract without owner. It will not be possible to call `onlyOwner` functions anymore. Can only be called by the current owner. NOTE: Renouncing ownership will leave the contract without an owner, thereby removing any functionality that is only available to the owner."
      },
      "transferOwnership(address)": {
        "details": "Transfers ownership of the contract to a new account (`newOwner`). Can only be called by the current owner."
      }
    },
    "version": 1
  },
  "userdoc": {
    "kind": "user",
    "methods": {},
    "version": 1
  }
}