{
  "contractName": "MedicalResearchers",
  "abi": [
    {
      "inputs": [
        {
          "internalType": "address",
          "name": "registrationA",
          "type": "address"
        }
      ],
      "stateMutability": "nonpayable",
      "type": "constructor"
    },
    {
      "anonymous": false,
      "inputs": [
        {
          "indexed": false,
          "internalType": "address",
          "name": "patient",
          "type": "address"
        },
        {
          "indexed": false,
          "internalType": "string",
          "name": "_hash",
          "type": "string"
        }
      ],
      "name": "FilesAdd",
      "type": "event"
    },
    {
      "anonymous": false,
      "inputs": [
        {
          "indexed": true,
          "internalType": "address",
          "name": "previousOwner",
          "type": "address"
        },
        {
          "indexed": true,
          "internalType": "address",
          "name": "newOwner",
          "type": "address"
        }
      ],
      "name": "OwnershipTransferred",
      "type": "event"
    },
    {
      "anonymous": false,
      "inputs": [
        {
          "indexed": false,
          "internalType": "address",
          "name": "patient",
          "type": "address"
        },
        {
          "indexed": false,
          "internalType": "address",
          "name": "researcher",
          "type": "address"
        },
        {
          "indexed": false,
          "internalType": "uint256",
          "name": "index",
          "type": "uint256"
        }
      ],
      "name": "RequestAdd",
      "type": "event"
    },
    {
      "anonymous": false,
      "inputs": [
        {
          "indexed": false,
          "internalType": "string",
          "name": "name",
          "type": "string"
        },
        {
          "indexed": false,
          "internalType": "string",
          "name": "city",
          "type": "string"
        },
        {
          "indexed": false,
          "internalType": "string",
          "name": "country",
          "type": "string"
        },
        {
          "indexed": false,
          "internalType": "uint256",
          "name": "nrOfPatients",
          "type": "uint256"
        },
        {
          "indexed": false,
          "internalType": "address",
          "name": "_address",
          "type": "address"
        }
      ],
      "name": "ResearcherAdd",
      "type": "event"
    },
    {
      "inputs": [
        {
          "internalType": "uint256",
          "name": "",
          "type": "uint256"
        }
      ],
      "name": "medicalReseachersAccounts",
      "outputs": [
        {
          "internalType": "address",
          "name": "",
          "type": "address"
        }
      ],
      "stateMutability": "view",
      "type": "function",
      "constant": true
    },
    {
      "inputs": [],
      "name": "owner",
      "outputs": [
        {
          "internalType": "address",
          "name": "",
          "type": "address"
        }
      ],
      "stateMutability": "view",
      "type": "function",
      "constant": true
    },
    {
      "inputs": [],
      "name": "renounceOwnership",
      "outputs": [],
      "stateMutability": "nonpayable",
      "type": "function"
    },
    {
      "inputs": [
        {
          "internalType": "address",
          "name": "newOwner",
          "type": "address"
        }
      ],
      "name": "transferOwnership",
      "outputs": [],
      "stateMutability": "nonpayable",
      "type": "function"
    },
    {
      "inputs": [
        {
          "internalType": "address",
          "name": "_address",
          "type": "address"
        }
      ],
      "name": "getResearcher",
      "outputs": [
        {
          "components": [
            {
              "internalType": "string",
              "name": "name",
              "type": "string"
            },
            {
              "internalType": "string",
              "name": "city",
              "type": "string"
            },
            {
              "internalType": "string",
              "name": "country",
              "type": "string"
            },
            {
              "internalType": "uint256",
              "name": "nrOfPatients",
              "type": "uint256"
            },
            {
              "internalType": "address",
              "name": "_address",
              "type": "address"
            }
          ],
          "internalType": "struct MedicalResearchers.Researcher",
          "name": "",
          "type": "tuple"
        }
      ],
      "stateMutability": "nonpayable",
      "type": "function"
    },
    {
      "inputs": [
        {
          "internalType": "address",
          "name": "_address",
          "type": "address"
        }
      ],
      "name": "getPatientsOfAResearcher",
      "outputs": [
        {
          "internalType": "address[]",
          "name": "",
          "type": "address[]"
        }
      ],
      "stateMutability": "nonpayable",
      "type": "function"
    },
    {
      "inputs": [],
      "name": "getReseachers",
      "outputs": [
        {
          "internalType": "address[]",
          "name": "",
          "type": "address[]"
        }
      ],
      "stateMutability": "view",
      "type": "function",
      "constant": true
    },
    {
      "inputs": [
        {
          "internalType": "string",
          "name": "encryptionPublicKey",
          "type": "string"
        }
      ],
      "name": "addEncryptionKey",
      "outputs": [],
      "stateMutability": "nonpayable",
      "type": "function"
    },
    {
      "inputs": [
        {
          "internalType": "address",
          "name": "_address",
          "type": "address"
        }
      ],
      "name": "getEncryptionPublicKey",
      "outputs": [
        {
          "internalType": "string",
          "name": "",
          "type": "string"
        }
      ],
      "stateMutability": "nonpayable",
      "type": "function"
    },
    {
      "inputs": [
        {
          "components": [
            {
              "internalType": "string",
              "name": "name",
              "type": "string"
            },
            {
              "internalType": "string",
              "name": "city",
              "type": "string"
            },
            {
              "internalType": "string",
              "name": "country",
              "type": "string"
            },
            {
              "internalType": "uint256",
              "name": "nrOfPatients",
              "type": "uint256"
            },
            {
              "internalType": "address",
              "name": "_address",
              "type": "address"
            }
          ],
          "internalType": "struct MedicalResearchers.Researcher",
          "name": "researcher",
          "type": "tuple"
        }
      ],
      "name": "addResearcher",
      "outputs": [],
      "stateMutability": "nonpayable",
      "type": "function"
    },
    {
      "inputs": [
        {
          "internalType": "address",
          "name": "patient",
          "type": "address"
        },
        {
          "internalType": "address",
          "name": "researcher",
          "type": "address"
        }
      ],
      "name": "addRequest",
      "outputs": [],
      "stateMutability": "nonpayable",
      "type": "function"
    },
    {
      "inputs": [
        {
          "internalType": "address",
          "name": "_address",
          "type": "address"
        }
      ],
      "name": "getHistoryAvailableForResearcher",
      "outputs": [
        {
          "internalType": "address[]",
          "name": "",
          "type": "address[]"
        }
      ],
      "stateMutability": "nonpayable",
      "type": "function"
    },
    {
      "inputs": [
        {
          "internalType": "address",
          "name": "_address",
          "type": "address"
        }
      ],
      "name": "getRequestsOfAResearcher",
      "outputs": [
        {
          "components": [
            {
              "internalType": "address",
              "name": "patient",
              "type": "address"
            },
            {
              "internalType": "address",
              "name": "researcher",
              "type": "address"
            },
            {
              "internalType": "uint256",
              "name": "index",
              "type": "uint256"
            }
          ],
          "internalType": "struct MedicalResearchers.Request[]",
          "name": "",
          "type": "tuple[]"
        }
      ],
      "stateMutability": "nonpayable",
      "type": "function"
    },
    {
      "inputs": [
        {
          "internalType": "address",
          "name": "_address",
          "type": "address"
        },
        {
          "internalType": "string",
          "name": "_hash",
          "type": "string"
        }
      ],
      "name": "addFilesToResearcher",
      "outputs": [],
      "stateMutability": "nonpayable",
      "type": "function"
    },
    {
      "inputs": [
        {
          "internalType": "address",
          "name": "_address",
          "type": "address"
        },
        {
          "internalType": "uint256",
          "name": "index",
          "type": "uint256"
        },
        {
          "internalType": "string",
          "name": "_hash",
          "type": "string"
        }
      ],
      "name": "acceptRequestFromResearcher",
      "outputs": [],
      "stateMutability": "nonpayable",
      "type": "function"
    },
    {
      "inputs": [
        {
          "internalType": "address",
          "name": "_address",
          "type": "address"
        },
        {
          "internalType": "uint256",
          "name": "index",
          "type": "uint256"
        }
      ],
      "name": "declineRequestFromResearcher",
      "outputs": [],
      "stateMutability": "nonpayable",
      "type": "function"
    },
    {
      "inputs": [
        {
          "internalType": "address",
          "name": "_address",
          "type": "address"
        }
      ],
      "name": "getFilesHistory",
      "outputs": [
        {
          "components": [
            {
              "internalType": "address",
              "name": "patient",
              "type": "address"
            },
            {
              "internalType": "string",
              "name": "_hash",
              "type": "string"
            }
          ],
          "internalType": "struct MedicalResearchers.Files[]",
          "name": "",
          "type": "tuple[]"
        }
      ],
      "stateMutability": "nonpayable",
      "type": "function"
    },
    {
      "inputs": [
        {
          "internalType": "address",
          "name": "_address",
          "type": "address"
        }
      ],
      "name": "getResearchersOfPatient",
      "outputs": [
        {
          "internalType": "address[]",
          "name": "",
          "type": "address[]"
        }
      ],
      "stateMutability": "view",
      "type": "function",
      "constant": true
    }
  ],
  "bytecode": "0x60806040523480156200001157600080fd5b506040516200310538038062003105833981810160405281019062000037919062000182565b620000576200004b6200009f60201b60201c565b620000a760201b60201c565b80600160006101000a81548173ffffffffffffffffffffffffffffffffffffffff021916908373ffffffffffffffffffffffffffffffffffffffff16021790555050620001fc565b600033905090565b60008060009054906101000a900473ffffffffffffffffffffffffffffffffffffffff169050816000806101000a81548173ffffffffffffffffffffffffffffffffffffffff021916908373ffffffffffffffffffffffffffffffffffffffff1602179055508173ffffffffffffffffffffffffffffffffffffffff168173ffffffffffffffffffffffffffffffffffffffff167f8be0079c531659141344cd1fd0a4f28419497f9722a3daafe3b4186f6b6457e060405160405180910390a35050565b6000815190506200017c81620001e2565b92915050565b6000602082840312156200019557600080fd5b6000620001a5848285016200016b565b91505092915050565b6000620001bb82620001c2565b9050919050565b600073ffffffffffffffffffffffffffffffffffffffff82169050919050565b620001ed81620001ae565b8114620001f957600080fd5b50565b612ef9806200020c6000396000f3fe608060405234801561001057600080fd5b50600436106101165760003560e01c8063715018a6116100a25780639dde40bd116100715780639dde40bd146102c9578063b6e3fe56146102f9578063cebf2aa514610329578063e7eba4c214610359578063f2fde38b1461038957610116565b8063715018a6146102555780637d9f7b191461025f578063895af4f11461028f5780638da5cb5b146102ab57610116565b80633e6d4ff8116100e95780633e6d4ff81461019f57806351103675146101bd578063558eca3e146101d9578063675bbbc214610209578063676737191461023957610116565b80630c5fb11d1461011b5780630d8eeac8146101375780630f8d66c414610167578063399423a814610183575b600080fd5b6101356004803603810190610130919061226d565b6103a5565b005b610151600480360381019061014c9190612208565b6105e0565b60405161015e919061293d565b60405180910390f35b610181600480360381019061017c9190612364565b6106ad565b005b61019d600480360381019061019891906123e6565b610809565b005b6101a7610b48565b6040516101b4919061293d565b60405180910390f35b6101d760048036038101906101d291906122fd565b610bd6565b005b6101f360048036038101906101ee9190612208565b610ff6565b604051610200919061295f565b60405180910390f35b610223600480360381019061021e9190612427565b61117c565b60405161023091906128bb565b60405180910390f35b610253600480360381019061024e91906122c1565b6111bb565b005b61025d6113a2565b005b61027960048036038101906102749190612208565b61142a565b60405161028691906129a3565b60405180910390f35b6102a960048036038101906102a49190612231565b6114fb565b005b6102b361180c565b6040516102c091906128bb565b60405180910390f35b6102e360048036038101906102de9190612208565b611835565b6040516102f09190612981565b60405180910390f35b610313600480360381019061030e9190612208565b611989565b604051610320919061293d565b60405180910390f35b610343600480360381019061033e9190612208565b611a56565b604051610350919061293d565b60405180910390f35b610373600480360381019061036e9190612208565b611b23565b6040516103809190612a6d565b60405180910390f35b6103a3600480360381019061039e9190612208565b611d92565b005b6040516020016103b4906128a6565b60405160208183030381529060405280519060200120600160009054906101000a900473ffffffffffffffffffffffffffffffffffffffff1673ffffffffffffffffffffffffffffffffffffffff166344276733326040518263ffffffff1660e01b815260040161042591906128bb565b60006040518083038186803b15801561043d57600080fd5b505afa158015610451573d6000803e3d6000fd5b505050506040513d6000823e3d601f19601f8201168201806040525081019061047a91906123a5565b60405160200161048a9190612865565b60405160208183030381529060405280519060200120146104aa57600080fd5b600360008373ffffffffffffffffffffffffffffffffffffffff1673ffffffffffffffffffffffffffffffffffffffff16815260200190815260200160002060405180604001604052803373ffffffffffffffffffffffffffffffffffffffff16815260200183815250908060018154018082558091505060019003906000526020600020906002020160009091909190915060008201518160000160006101000a81548173ffffffffffffffffffffffffffffffffffffffff021916908373ffffffffffffffffffffffffffffffffffffffff16021790555060208201518160010190805190602001906105a0929190611f56565b5050507ffe3833d10ea2624036e9009fa30162c7514262e56688d210546a48503743e51233826040516105d492919061290d565b60405180910390a15050565b6060600760008373ffffffffffffffffffffffffffffffffffffffff1673ffffffffffffffffffffffffffffffffffffffff1681526020019081526020016000208054806020026020016040519081016040528092919081815260200182805480156106a157602002820191906000526020600020905b8160009054906101000a900473ffffffffffffffffffffffffffffffffffffffff1673ffffffffffffffffffffffffffffffffffffffff1681526020019060010190808311610657575b50505050509050919050565b6040516020016106bc9061287c565b60405160208183030381529060405280519060200120600160009054906101000a900473ffffffffffffffffffffffffffffffffffffffff1673ffffffffffffffffffffffffffffffffffffffff166344276733326040518263ffffffff1660e01b815260040161072d91906128bb565b60006040518083038186803b15801561074557600080fd5b505afa158015610759573d6000803e3d6000fd5b505050506040513d6000823e3d601f19601f8201168201806040525081019061078291906123a5565b6040516020016107929190612865565b60405160208183030381529060405280519060200120146107b257600080fd5b80600960003373ffffffffffffffffffffffffffffffffffffffff1673ffffffffffffffffffffffffffffffffffffffff1681526020019081526020016000209080519060200190610805929190611f56565b5050565b60405160200161081890612891565b60405160208183030381529060405280519060200120600160009054906101000a900473ffffffffffffffffffffffffffffffffffffffff1673ffffffffffffffffffffffffffffffffffffffff166344276733326040518263ffffffff1660e01b815260040161088991906128bb565b60006040518083038186803b1580156108a157600080fd5b505afa1580156108b5573d6000803e3d6000fd5b505050506040513d6000823e3d601f19601f820116820180604052508101906108de91906123a5565b6040516020016108ee9190612865565b604051602081830303815290604052805190602001201461090e57600080fd5b8060066000836080015173ffffffffffffffffffffffffffffffffffffffff1673ffffffffffffffffffffffffffffffffffffffff168152602001908152602001600020600082015181600001908051906020019061096e929190611f56565b50602082015181600101908051906020019061098b929190611f56565b5060408201518160020190805190602001906109a8929190611f56565b506060820151816003015560808201518160040160006101000a81548173ffffffffffffffffffffffffffffffffffffffff021916908373ffffffffffffffffffffffffffffffffffffffff160217905550905050600581608001519080600181540180825580915050600190039060005260206000200160009091909190916101000a81548173ffffffffffffffffffffffffffffffffffffffff021916908373ffffffffffffffffffffffffffffffffffffffff160217905550600160009054906101000a900473ffffffffffffffffffffffffffffffffffffffff1673ffffffffffffffffffffffffffffffffffffffff166328bde61582608001516040518263ffffffff1660e01b8152600401610ac391906128bb565b600060405180830381600087803b158015610add57600080fd5b505af1158015610af1573d6000803e3d6000fd5b505050507f96a93e10874f26ff6ccba23fd1dbefd27d1937ce628841db3406cf59b9ce233081600001518260200151836040015160008560800151604051610b3d9594939291906129c5565b60405180910390a150565b60606005805480602002602001604051908101604052809291908181526020018280548015610bcc57602002820191906000526020600020905b8160009054906101000a900473ffffffffffffffffffffffffffffffffffffffff1673ffffffffffffffffffffffffffffffffffffffff1681526020019060010190808311610b82575b5050505050905090565b604051602001610be5906128a6565b60405160208183030381529060405280519060200120600160009054906101000a900473ffffffffffffffffffffffffffffffffffffffff1673ffffffffffffffffffffffffffffffffffffffff166344276733326040518263ffffffff1660e01b8152600401610c5691906128bb565b60006040518083038186803b158015610c6e57600080fd5b505afa158015610c82573d6000803e3d6000fd5b505050506040513d6000823e3d601f19601f82011682018060405250810190610cab91906123a5565b604051602001610cbb9190612865565b6040516020818303038152906040528051906020012014610cdb57600080fd5b600260008473ffffffffffffffffffffffffffffffffffffffff1673ffffffffffffffffffffffffffffffffffffffff168152602001908152602001600020339080600181540180825580915050600190039060005260206000200160009091909190916101000a81548173ffffffffffffffffffffffffffffffffffffffff021916908373ffffffffffffffffffffffffffffffffffffffff160217905550600760008473ffffffffffffffffffffffffffffffffffffffff1673ffffffffffffffffffffffffffffffffffffffff168152602001908152602001600020339080600181540180825580915050600190039060005260206000200160009091909190916101000a81548173ffffffffffffffffffffffffffffffffffffffff021916908373ffffffffffffffffffffffffffffffffffffffff160217905550600660008473ffffffffffffffffffffffffffffffffffffffff1673ffffffffffffffffffffffffffffffffffffffff1681526020019081526020016000206003016000815480929190610e6e90612cbb565b9190505550600860003373ffffffffffffffffffffffffffffffffffffffff1673ffffffffffffffffffffffffffffffffffffffff168152602001908152602001600020839080600181540180825580915050600190039060005260206000200160009091909190916101000a81548173ffffffffffffffffffffffffffffffffffffffff021916908373ffffffffffffffffffffffffffffffffffffffff160217905550600460003373ffffffffffffffffffffffffffffffffffffffff1673ffffffffffffffffffffffffffffffffffffffff1681526020019081526020016000208281548110610f8a577f4e487b7100000000000000000000000000000000000000000000000000000000600052603260045260246000fd5b9060005260206000209060030201600080820160006101000a81549073ffffffffffffffffffffffffffffffffffffffff02191690556001820160006101000a81549073ffffffffffffffffffffffffffffffffffffffff021916905560028201600090555050505050565b6060600360008373ffffffffffffffffffffffffffffffffffffffff1673ffffffffffffffffffffffffffffffffffffffff168152602001908152602001600020805480602002602001604051908101604052809291908181526020016000905b8282101561117157838290600052602060002090600202016040518060400160405290816000820160009054906101000a900473ffffffffffffffffffffffffffffffffffffffff1673ffffffffffffffffffffffffffffffffffffffff1673ffffffffffffffffffffffffffffffffffffffff1681526020016001820180546110e090612c58565b80601f016020809104026020016040519081016040528092919081815260200182805461110c90612c58565b80156111595780601f1061112e57610100808354040283529160200191611159565b820191906000526020600020905b81548152906001019060200180831161113c57829003601f168201915b50505050508152505081526020019060010190611057565b505050509050919050565b6005818154811061118c57600080fd5b906000526020600020016000915054906101000a900473ffffffffffffffffffffffffffffffffffffffff1681565b6040516020016111ca906128a6565b60405160208183030381529060405280519060200120600160009054906101000a900473ffffffffffffffffffffffffffffffffffffffff1673ffffffffffffffffffffffffffffffffffffffff166344276733326040518263ffffffff1660e01b815260040161123b91906128bb565b60006040518083038186803b15801561125357600080fd5b505afa158015611267573d6000803e3d6000fd5b505050506040513d6000823e3d601f19601f8201168201806040525081019061129091906123a5565b6040516020016112a09190612865565b60405160208183030381529060405280519060200120146112c057600080fd5b600460003373ffffffffffffffffffffffffffffffffffffffff1673ffffffffffffffffffffffffffffffffffffffff1681526020019081526020016000208181548110611337577f4e487b7100000000000000000000000000000000000000000000000000000000600052603260045260246000fd5b9060005260206000209060030201600080820160006101000a81549073ffffffffffffffffffffffffffffffffffffffff02191690556001820160006101000a81549073ffffffffffffffffffffffffffffffffffffffff0219169055600282016000905550505050565b6113aa611e8a565b73ffffffffffffffffffffffffffffffffffffffff166113c861180c565b73ffffffffffffffffffffffffffffffffffffffff161461141e576040517f08c379a000000000000000000000000000000000000000000000000000000000815260040161141590612a4d565b60405180910390fd5b6114286000611e92565b565b6060600960008373ffffffffffffffffffffffffffffffffffffffff1673ffffffffffffffffffffffffffffffffffffffff168152602001908152602001600020805461147690612c58565b80601f01602080910402602001604051908101604052809291908181526020018280546114a290612c58565b80156114ef5780601f106114c4576101008083540402835291602001916114ef565b820191906000526020600020905b8154815290600101906020018083116114d257829003601f168201915b50505050509050919050565b60405160200161150a9061287c565b60405160208183030381529060405280519060200120600160009054906101000a900473ffffffffffffffffffffffffffffffffffffffff1673ffffffffffffffffffffffffffffffffffffffff166344276733326040518263ffffffff1660e01b815260040161157b91906128bb565b60006040518083038186803b15801561159357600080fd5b505afa1580156115a7573d6000803e3d6000fd5b505050506040513d6000823e3d601f19601f820116820180604052508101906115d091906123a5565b6040516020016115e09190612865565b604051602081830303815290604052805190602001201461160057600080fd5b600460008373ffffffffffffffffffffffffffffffffffffffff1673ffffffffffffffffffffffffffffffffffffffff16815260200190815260200160002060405180606001604052808473ffffffffffffffffffffffffffffffffffffffff1681526020018373ffffffffffffffffffffffffffffffffffffffff168152602001600460008673ffffffffffffffffffffffffffffffffffffffff1673ffffffffffffffffffffffffffffffffffffffff16815260200190815260200160002080549050815250908060018154018082558091505060019003906000526020600020906003020160009091909190915060008201518160000160006101000a81548173ffffffffffffffffffffffffffffffffffffffff021916908373ffffffffffffffffffffffffffffffffffffffff16021790555060208201518160010160006101000a81548173ffffffffffffffffffffffffffffffffffffffff021916908373ffffffffffffffffffffffffffffffffffffffff1602179055506040820151816002015550507feaf5ea1e95678b1be41f17e32e21f6f2820f06e7bb870717f720ba58c80ddaa38282600460008673ffffffffffffffffffffffffffffffffffffffff1673ffffffffffffffffffffffffffffffffffffffff16815260200190815260200160002080549050604051611800939291906128d6565b60405180910390a15050565b60008060009054906101000a900473ffffffffffffffffffffffffffffffffffffffff16905090565b6060600460008373ffffffffffffffffffffffffffffffffffffffff1673ffffffffffffffffffffffffffffffffffffffff168152602001908152602001600020805480602002602001604051908101604052809291908181526020016000905b8282101561197e57838290600052602060002090600302016040518060600160405290816000820160009054906101000a900473ffffffffffffffffffffffffffffffffffffffff1673ffffffffffffffffffffffffffffffffffffffff1673ffffffffffffffffffffffffffffffffffffffff1681526020016001820160009054906101000a900473ffffffffffffffffffffffffffffffffffffffff1673ffffffffffffffffffffffffffffffffffffffff1673ffffffffffffffffffffffffffffffffffffffff16815260200160028201548152505081526020019060010190611896565b505050509050919050565b6060600260008373ffffffffffffffffffffffffffffffffffffffff1673ffffffffffffffffffffffffffffffffffffffff168152602001908152602001600020805480602002602001604051908101604052809291908181526020018280548015611a4a57602002820191906000526020600020905b8160009054906101000a900473ffffffffffffffffffffffffffffffffffffffff1673ffffffffffffffffffffffffffffffffffffffff1681526020019060010190808311611a00575b50505050509050919050565b6060600860008373ffffffffffffffffffffffffffffffffffffffff1673ffffffffffffffffffffffffffffffffffffffff168152602001908152602001600020805480602002602001604051908101604052809291908181526020018280548015611b1757602002820191906000526020600020905b8160009054906101000a900473ffffffffffffffffffffffffffffffffffffffff1673ffffffffffffffffffffffffffffffffffffffff1681526020019060010190808311611acd575b50505050509050919050565b611b2b611fdc565b600660008373ffffffffffffffffffffffffffffffffffffffff1673ffffffffffffffffffffffffffffffffffffffff1681526020019081526020016000206040518060a0016040529081600082018054611b8590612c58565b80601f0160208091040260200160405190810160405280929190818152602001828054611bb190612c58565b8015611bfe5780601f10611bd357610100808354040283529160200191611bfe565b820191906000526020600020905b815481529060010190602001808311611be157829003601f168201915b50505050508152602001600182018054611c1790612c58565b80601f0160208091040260200160405190810160405280929190818152602001828054611c4390612c58565b8015611c905780601f10611c6557610100808354040283529160200191611c90565b820191906000526020600020905b815481529060010190602001808311611c7357829003601f168201915b50505050508152602001600282018054611ca990612c58565b80601f0160208091040260200160405190810160405280929190818152602001828054611cd590612c58565b8015611d225780601f10611cf757610100808354040283529160200191611d22565b820191906000526020600020905b815481529060010190602001808311611d0557829003601f168201915b50505050508152602001600382015481526020016004820160009054906101000a900473ffffffffffffffffffffffffffffffffffffffff1673ffffffffffffffffffffffffffffffffffffffff1673ffffffffffffffffffffffffffffffffffffffff16815250509050919050565b611d9a611e8a565b73ffffffffffffffffffffffffffffffffffffffff16611db861180c565b73ffffffffffffffffffffffffffffffffffffffff1614611e0e576040517f08c379a0000000000000000000000000000000000000000000000000000000008152600401611e0590612a4d565b60405180910390fd5b600073ffffffffffffffffffffffffffffffffffffffff168173ffffffffffffffffffffffffffffffffffffffff161415611e7e576040517f08c379a0000000000000000000000000000000000000000000000000000000008152600401611e7590612a2d565b60405180910390fd5b611e8781611e92565b50565b600033905090565b60008060009054906101000a900473ffffffffffffffffffffffffffffffffffffffff169050816000806101000a81548173ffffffffffffffffffffffffffffffffffffffff021916908373ffffffffffffffffffffffffffffffffffffffff1602179055508173ffffffffffffffffffffffffffffffffffffffff168173ffffffffffffffffffffffffffffffffffffffff167f8be0079c531659141344cd1fd0a4f28419497f9722a3daafe3b4186f6b6457e060405160405180910390a35050565b828054611f6290612c58565b90600052602060002090601f016020900481019282611f845760008555611fcb565b82601f10611f9d57805160ff1916838001178555611fcb565b82800160010185558215611fcb579182015b82811115611fca578251825591602001919060010190611faf565b5b509050611fd89190612021565b5090565b6040518060a0016040528060608152602001606081526020016060815260200160008152602001600073ffffffffffffffffffffffffffffffffffffffff1681525090565b5b8082111561203a576000816000905550600101612022565b5090565b600061205161204c84612ab4565b612a8f565b90508281526020810184848401111561206957600080fd5b612074848285612c16565b509392505050565b600061208f61208a84612ab4565b612a8f565b9050828152602081018484840111156120a757600080fd5b6120b2848285612c25565b509392505050565b6000813590506120c981612e95565b92915050565b600082601f8301126120e057600080fd5b81356120f084826020860161203e565b91505092915050565b600082601f83011261210a57600080fd5b815161211a84826020860161207c565b91505092915050565b600060a0828403121561213557600080fd5b61213f60a0612a8f565b9050600082013567ffffffffffffffff81111561215b57600080fd5b612167848285016120cf565b600083015250602082013567ffffffffffffffff81111561218757600080fd5b612193848285016120cf565b602083015250604082013567ffffffffffffffff8111156121b357600080fd5b6121bf848285016120cf565b60408301525060606121d3848285016121f3565b60608301525060806121e7848285016120ba565b60808301525092915050565b60008135905061220281612eac565b92915050565b60006020828403121561221a57600080fd5b6000612228848285016120ba565b91505092915050565b6000806040838503121561224457600080fd5b6000612252858286016120ba565b9250506020612263858286016120ba565b9150509250929050565b6000806040838503121561228057600080fd5b600061228e858286016120ba565b925050602083013567ffffffffffffffff8111156122ab57600080fd5b6122b7858286016120cf565b9150509250929050565b600080604083850312156122d457600080fd5b60006122e2858286016120ba565b92505060206122f3858286016121f3565b9150509250929050565b60008060006060848603121561231257600080fd5b6000612320868287016120ba565b9350506020612331868287016121f3565b925050604084013567ffffffffffffffff81111561234e57600080fd5b61235a868287016120cf565b9150509250925092565b60006020828403121561237657600080fd5b600082013567ffffffffffffffff81111561239057600080fd5b61239c848285016120cf565b91505092915050565b6000602082840312156123b757600080fd5b600082015167ffffffffffffffff8111156123d157600080fd5b6123dd848285016120f9565b91505092915050565b6000602082840312156123f857600080fd5b600082013567ffffffffffffffff81111561241257600080fd5b61241e84828501612123565b91505092915050565b60006020828403121561243957600080fd5b6000612447848285016121f3565b91505092915050565b600061245c8383612494565b60208301905092915050565b60006124748383612744565b905092915050565b60006124888383612781565b60608301905092915050565b61249d81612bc8565b82525050565b6124ac81612bc8565b82525050565b60006124bd82612b15565b6124c78185612b68565b93506124d283612ae5565b8060005b838110156125035781516124ea8882612450565b97506124f583612b41565b9250506001810190506124d6565b5085935050505092915050565b600061251b82612b20565b6125258185612b79565b93508360208202850161253785612af5565b8060005b8581101561257357848403895281516125548582612468565b945061255f83612b4e565b925060208a0199505060018101905061253b565b50829750879550505050505092915050565b600061259082612b2b565b61259a8185612b8a565b93506125a583612b05565b8060005b838110156125d65781516125bd888261247c565b97506125c883612b5b565b9250506001810190506125a9565b5085935050505092915050565b6125ec81612c04565b82525050565b60006125fd82612b36565b6126078185612b9b565b9350612617818560208601612c25565b61262081612d91565b840191505092915050565b600061263682612b36565b6126408185612bac565b9350612650818560208601612c25565b61265981612d91565b840191505092915050565b600061266f82612b36565b6126798185612bbd565b9350612689818560208601612c25565b80840191505092915050565b60006126a2602683612bac565b91506126ad82612da2565b604082019050919050565b60006126c5600a83612bbd565b91506126d082612df1565b600a82019050919050565b60006126e8602083612bac565b91506126f382612e1a565b602082019050919050565b600061270b600583612bbd565b915061271682612e43565b600582019050919050565b600061272e600783612bbd565b915061273982612e6c565b600782019050919050565b600060408301600083015161275c6000860182612494565b506020830151848203602086015261277482826125f2565b9150508091505092915050565b6060820160008201516127976000850182612494565b5060208201516127aa6020850182612494565b5060408201516127bd6040850182612847565b50505050565b600060a08301600083015184820360008601526127e082826125f2565b915050602083015184820360208601526127fa82826125f2565b9150506040830151848203604086015261281482826125f2565b91505060608301516128296060860182612847565b50608083015161283c6080860182612494565b508091505092915050565b61285081612bfa565b82525050565b61285f81612bfa565b82525050565b60006128718284612664565b915081905092915050565b6000612887826126b8565b9150819050919050565b600061289c826126fe565b9150819050919050565b60006128b182612721565b9150819050919050565b60006020820190506128d060008301846124a3565b92915050565b60006060820190506128eb60008301866124a3565b6128f860208301856124a3565b6129056040830184612856565b949350505050565b600060408201905061292260008301856124a3565b8181036020830152612934818461262b565b90509392505050565b6000602082019050818103600083015261295781846124b2565b905092915050565b600060208201905081810360008301526129798184612510565b905092915050565b6000602082019050818103600083015261299b8184612585565b905092915050565b600060208201905081810360008301526129bd818461262b565b905092915050565b600060a08201905081810360008301526129df818861262b565b905081810360208301526129f3818761262b565b90508181036040830152612a07818661262b565b9050612a1660608301856125e3565b612a2360808301846124a3565b9695505050505050565b60006020820190508181036000830152612a4681612695565b9050919050565b60006020820190508181036000830152612a66816126db565b9050919050565b60006020820190508181036000830152612a8781846127c3565b905092915050565b6000612a99612aaa565b9050612aa58282612c8a565b919050565b6000604051905090565b600067ffffffffffffffff821115612acf57612ace612d62565b5b612ad882612d91565b9050602081019050919050565b6000819050602082019050919050565b6000819050602082019050919050565b6000819050602082019050919050565b600081519050919050565b600081519050919050565b600081519050919050565b600081519050919050565b6000602082019050919050565b6000602082019050919050565b6000602082019050919050565b600082825260208201905092915050565b600082825260208201905092915050565b600082825260208201905092915050565b600082825260208201905092915050565b600082825260208201905092915050565b600081905092915050565b6000612bd382612bda565b9050919050565b600073ffffffffffffffffffffffffffffffffffffffff82169050919050565b6000819050919050565b6000612c0f82612bfa565b9050919050565b82818337600083830152505050565b60005b83811015612c43578082015181840152602081019050612c28565b83811115612c52576000848401525b50505050565b60006002820490506001821680612c7057607f821691505b60208210811415612c8457612c83612d33565b5b50919050565b612c9382612d91565b810181811067ffffffffffffffff82111715612cb257612cb1612d62565b5b80604052505050565b6000612cc682612bfa565b91507fffffffffffffffffffffffffffffffffffffffffffffffffffffffffffffffff821415612cf957612cf8612d04565b5b600182019050919050565b7f4e487b7100000000000000000000000000000000000000000000000000000000600052601160045260246000fd5b7f4e487b7100000000000000000000000000000000000000000000000000000000600052602260045260246000fd5b7f4e487b7100000000000000000000000000000000000000000000000000000000600052604160045260246000fd5b6000601f19601f8301169050919050565b7f4f776e61626c653a206e6577206f776e657220697320746865207a65726f206160008201527f6464726573730000000000000000000000000000000000000000000000000000602082015250565b7f5245534541524348455200000000000000000000000000000000000000000000600082015250565b7f4f776e61626c653a2063616c6c6572206973206e6f7420746865206f776e6572600082015250565b7f41444d494e000000000000000000000000000000000000000000000000000000600082015250565b7f50415449454e5400000000000000000000000000000000000000000000000000600082015250565b612e9e81612bc8565b8114612ea957600080fd5b50565b612eb581612bfa565b8114612ec057600080fd5b5056fea264697066735822122053cc43a3231ef01285237cd0af6babc5ea32b3cac0c8874cad6f98e24e9d3b9264736f6c63430008040033",
  "immutableReferences": {},
  "source": "pragma solidity  0.8.4;\r\n\r\nimport \"@openzeppelin/contracts/access/Ownable.sol\";\r\nimport \"@openzeppelin/contracts/access/AccessControl.sol\";\r\nimport \"./Registration.sol\";\r\n\r\ncontract MedicalResearchers is Ownable{\r\n    \r\n    struct Researcher{\r\n        string name;\r\n        string city;\r\n        string country;\r\n        uint nrOfPatients;\r\n        address _address;\r\n    }\r\n\r\n     event ResearcherAdd(\r\n        string name,\r\n        string city,\r\n        string country,\r\n        uint nrOfPatients,\r\n        address _address\r\n    );\r\n\r\n    struct Request {\r\n        address patient;\r\n        address researcher;\r\n        uint index;\r\n    }\r\n\r\n    event RequestAdd(\r\n        address patient,\r\n        address researcher,\r\n        uint index\r\n    );\r\n\r\n     struct Files {\r\n        address patient;\r\n        string _hash;\r\n    }\r\n\r\n    event FilesAdd(\r\n        address patient,\r\n        string _hash\r\n    );\r\n\r\n    Registration _registration;\r\n    \r\n    mapping(address => address[]) historyAvailable;\r\n    mapping(address => Files[]) historyFiles;\r\n    mapping(address => Request[]) requestsOfAPatient;\r\n\r\n    address[] public medicalReseachersAccounts;\r\n\r\n    mapping(address => Researcher) researchers;\r\n    mapping(address => address[]) patients;\r\n    mapping(address => address[]) researchersOfPatient;\r\n\r\n    mapping(address => string) encryptionPublicKeys;\r\n\r\n    constructor(address registrationA) public {\r\n        _registration = Registration(registrationA);\r\n    }\r\n\r\n    modifier onlyAdmin {\r\n      require(keccak256(abi.encodePacked((_registration.getRole(tx.origin)))) == keccak256(abi.encodePacked((\"ADMIN\"))));\r\n      _;\r\n    }\r\n    modifier onlyPatient {\r\n        require(keccak256(abi.encodePacked((_registration.getRole(tx.origin)))) == keccak256(abi.encodePacked((\"PATIENT\"))));\r\n        _;\r\n    }\r\n    modifier onlyMedicalResearcher {\r\n        require(keccak256(abi.encodePacked((_registration.getRole(tx.origin)))) == keccak256(abi.encodePacked((\"RESEARCHER\"))));\r\n        _;\r\n    }\r\n\r\n    function getResearcher(address _address) public returns(Researcher memory){\r\n        return researchers[_address];\r\n    }\r\n\r\n    function getPatientsOfAResearcher(address _address) public returns(address[] memory){\r\n        return patients[_address];\r\n    }\r\n\r\n    function getReseachers() view public returns(address[] memory){\r\n        return medicalReseachersAccounts;\r\n    }\r\n\r\n    function addEncryptionKey(string memory encryptionPublicKey) public onlyMedicalResearcher {\r\n        encryptionPublicKeys[msg.sender] = encryptionPublicKey;\r\n    }\r\n\r\n    function getEncryptionPublicKey(address _address) public returns(string memory){\r\n        return encryptionPublicKeys[_address];\r\n    }\r\n\r\n    function addResearcher(Researcher memory researcher) public onlyAdmin{\r\n        researchers[researcher._address] = researcher;\r\n        medicalReseachersAccounts.push(researcher._address);\r\n        _registration.addResearcher(researcher._address);\r\n        emit ResearcherAdd(researcher.name, researcher.city, researcher.country, 0, researcher._address);\r\n    }\r\n\r\n    function addRequest(address patient, address researcher) onlyMedicalResearcher public{\r\n        requestsOfAPatient[patient].push(Request(patient, researcher, requestsOfAPatient[patient].length));\r\n\r\n        emit RequestAdd(patient, researcher, requestsOfAPatient[patient].length);\r\n    }\r\n\r\n    function getHistoryAvailableForResearcher(address _address) public returns(address[] memory){\r\n        return historyAvailable[_address];\r\n    }\r\n\r\n    function getRequestsOfAResearcher(address _address) public returns(Request[] memory){\r\n        return requestsOfAPatient[_address];\r\n    }\r\n\r\n    function addFilesToResearcher(address _address, string memory _hash) onlyPatient public{\r\n        historyFiles[_address].push(Files(msg.sender, _hash));\r\n        \r\n        emit FilesAdd(msg.sender, _hash);\r\n    }\r\n\r\n    function acceptRequestFromResearcher(address _address, uint index, string memory _hash) onlyPatient public{\r\n        historyAvailable[_address].push(msg.sender);\r\n        patients[_address].push(msg.sender);\r\n        researchers[_address].nrOfPatients++;\r\n        researchersOfPatient[msg.sender].push(_address);\r\n\r\n        delete requestsOfAPatient[msg.sender][index];\r\n    }\r\n\r\n    function declineRequestFromResearcher(address _address, uint index) public onlyPatient{\r\n        delete requestsOfAPatient[msg.sender][index];\r\n    }\r\n\r\n    function getFilesHistory(address _address) public returns(Files[] memory){\r\n        return historyFiles[_address];\r\n    }\r\n\r\n    function getResearchersOfPatient(address _address) public view returns(address[] memory){\r\n        return researchersOfPatient[_address];\r\n    }\r\n}",
  "sourcePath": "C:/Licenta/Licenta/src/contracts/MedicalResearchers.sol",
  "compiler": {
    "name": "solc",
    "version": "0.8.4+commit.c7e474f2.Emscripten.clang"
  },
  "schemaVersion": "3.2.3",
  "updatedAt": "2022-07-06T20:00:40.718Z",
  "networkType": "ethereum",
  "devdoc": {
    "kind": "dev",
    "methods": {
      "owner()": {
        "details": "Returns the address of the current owner."
      },
      "renounceOwnership()": {
        "details": "Leaves the contract without owner. It will not be possible to call `onlyOwner` functions anymore. Can only be called by the current owner. NOTE: Renouncing ownership will leave the contract without an owner, thereby removing any functionality that is only available to the owner."
      },
      "transferOwnership(address)": {
        "details": "Transfers ownership of the contract to a new account (`newOwner`). Can only be called by the current owner."
      }
    },
    "version": 1
  },
  "userdoc": {
    "kind": "user",
    "methods": {},
    "version": 1
  }
}