{
  "contractName": "Patients",
  "abi": [
    {
      "inputs": [],
      "stateMutability": "nonpayable",
      "type": "constructor"
    },
    {
      "anonymous": false,
      "inputs": [
        {
          "indexed": false,
          "internalType": "string",
          "name": "firstName",
          "type": "string"
        },
        {
          "indexed": false,
          "internalType": "string",
          "name": "lastName",
          "type": "string"
        },
        {
          "indexed": false,
          "internalType": "string",
          "name": "country",
          "type": "string"
        },
        {
          "indexed": false,
          "internalType": "string",
          "name": "city",
          "type": "string"
        },
        {
          "indexed": false,
          "internalType": "string",
          "name": "gender",
          "type": "string"
        },
        {
          "indexed": false,
          "internalType": "string",
          "name": "_addressLocation",
          "type": "string"
        },
        {
          "indexed": false,
          "internalType": "address",
          "name": "_address",
          "type": "address"
        },
        {
          "indexed": false,
          "internalType": "string",
          "name": "CNP",
          "type": "string"
        },
        {
          "indexed": false,
          "internalType": "uint256",
          "name": "birthDate",
          "type": "uint256"
        }
      ],
      "name": "AddPatient",
      "type": "event"
    },
    {
      "anonymous": false,
      "inputs": [
        {
          "indexed": false,
          "internalType": "string",
          "name": "fileHash",
          "type": "string"
        },
        {
          "indexed": false,
          "internalType": "uint256",
          "name": "fileSize",
          "type": "uint256"
        },
        {
          "indexed": false,
          "internalType": "string",
          "name": "fileType",
          "type": "string"
        },
        {
          "indexed": false,
          "internalType": "string",
          "name": "fileName",
          "type": "string"
        },
        {
          "indexed": false,
          "internalType": "string",
          "name": "fileDescription",
          "type": "string"
        },
        {
          "indexed": false,
          "internalType": "uint256",
          "name": "uploadTime",
          "type": "uint256"
        },
        {
          "indexed": false,
          "internalType": "address",
          "name": "patient_address",
          "type": "address"
        },
        {
          "indexed": false,
          "internalType": "address payable",
          "name": "uploader",
          "type": "address"
        }
      ],
      "name": "FileUploaded",
      "type": "event"
    },
    {
      "anonymous": false,
      "inputs": [
        {
          "indexed": true,
          "internalType": "address",
          "name": "previousOwner",
          "type": "address"
        },
        {
          "indexed": true,
          "internalType": "address",
          "name": "newOwner",
          "type": "address"
        }
      ],
      "name": "OwnershipTransferred",
      "type": "event"
    },
    {
      "anonymous": false,
      "inputs": [
        {
          "indexed": true,
          "internalType": "bytes32",
          "name": "role",
          "type": "bytes32"
        },
        {
          "indexed": true,
          "internalType": "bytes32",
          "name": "previousAdminRole",
          "type": "bytes32"
        },
        {
          "indexed": true,
          "internalType": "bytes32",
          "name": "newAdminRole",
          "type": "bytes32"
        }
      ],
      "name": "RoleAdminChanged",
      "type": "event"
    },
    {
      "anonymous": false,
      "inputs": [
        {
          "indexed": true,
          "internalType": "bytes32",
          "name": "role",
          "type": "bytes32"
        },
        {
          "indexed": true,
          "internalType": "address",
          "name": "account",
          "type": "address"
        },
        {
          "indexed": true,
          "internalType": "address",
          "name": "sender",
          "type": "address"
        }
      ],
      "name": "RoleGranted",
      "type": "event"
    },
    {
      "anonymous": false,
      "inputs": [
        {
          "indexed": true,
          "internalType": "bytes32",
          "name": "role",
          "type": "bytes32"
        },
        {
          "indexed": true,
          "internalType": "address",
          "name": "account",
          "type": "address"
        },
        {
          "indexed": true,
          "internalType": "address",
          "name": "sender",
          "type": "address"
        }
      ],
      "name": "RoleRevoked",
      "type": "event"
    },
    {
      "inputs": [],
      "name": "DEFAULT_ADMIN_ROLE",
      "outputs": [
        {
          "internalType": "bytes32",
          "name": "",
          "type": "bytes32"
        }
      ],
      "stateMutability": "view",
      "type": "function",
      "constant": true
    },
    {
      "inputs": [
        {
          "internalType": "bytes32",
          "name": "role",
          "type": "bytes32"
        }
      ],
      "name": "getRoleAdmin",
      "outputs": [
        {
          "internalType": "bytes32",
          "name": "",
          "type": "bytes32"
        }
      ],
      "stateMutability": "view",
      "type": "function",
      "constant": true
    },
    {
      "inputs": [
        {
          "internalType": "bytes32",
          "name": "role",
          "type": "bytes32"
        },
        {
          "internalType": "address",
          "name": "account",
          "type": "address"
        }
      ],
      "name": "grantRole",
      "outputs": [],
      "stateMutability": "nonpayable",
      "type": "function"
    },
    {
      "inputs": [
        {
          "internalType": "bytes32",
          "name": "role",
          "type": "bytes32"
        },
        {
          "internalType": "address",
          "name": "account",
          "type": "address"
        }
      ],
      "name": "hasRole",
      "outputs": [
        {
          "internalType": "bool",
          "name": "",
          "type": "bool"
        }
      ],
      "stateMutability": "view",
      "type": "function",
      "constant": true
    },
    {
      "inputs": [],
      "name": "owner",
      "outputs": [
        {
          "internalType": "address",
          "name": "",
          "type": "address"
        }
      ],
      "stateMutability": "view",
      "type": "function",
      "constant": true
    },
    {
      "inputs": [],
      "name": "renounceOwnership",
      "outputs": [],
      "stateMutability": "nonpayable",
      "type": "function"
    },
    {
      "inputs": [
        {
          "internalType": "bytes32",
          "name": "role",
          "type": "bytes32"
        },
        {
          "internalType": "address",
          "name": "account",
          "type": "address"
        }
      ],
      "name": "renounceRole",
      "outputs": [],
      "stateMutability": "nonpayable",
      "type": "function"
    },
    {
      "inputs": [
        {
          "internalType": "bytes32",
          "name": "role",
          "type": "bytes32"
        },
        {
          "internalType": "address",
          "name": "account",
          "type": "address"
        }
      ],
      "name": "revokeRole",
      "outputs": [],
      "stateMutability": "nonpayable",
      "type": "function"
    },
    {
      "inputs": [
        {
          "internalType": "bytes4",
          "name": "interfaceId",
          "type": "bytes4"
        }
      ],
      "name": "supportsInterface",
      "outputs": [
        {
          "internalType": "bool",
          "name": "",
          "type": "bool"
        }
      ],
      "stateMutability": "view",
      "type": "function",
      "constant": true
    },
    {
      "inputs": [
        {
          "internalType": "address",
          "name": "newOwner",
          "type": "address"
        }
      ],
      "name": "transferOwnership",
      "outputs": [],
      "stateMutability": "nonpayable",
      "type": "function"
    },
    {
      "inputs": [
        {
          "internalType": "address",
          "name": "_address",
          "type": "address"
        }
      ],
      "name": "giveHistoryPermission",
      "outputs": [],
      "stateMutability": "nonpayable",
      "type": "function"
    },
    {
      "inputs": [
        {
          "internalType": "string",
          "name": "fname",
          "type": "string"
        },
        {
          "internalType": "string",
          "name": "lname",
          "type": "string"
        },
        {
          "internalType": "string",
          "name": "gender",
          "type": "string"
        },
        {
          "internalType": "string",
          "name": "addressLocation",
          "type": "string"
        },
        {
          "internalType": "string",
          "name": "city",
          "type": "string"
        },
        {
          "internalType": "string",
          "name": "country",
          "type": "string"
        },
        {
          "internalType": "string",
          "name": "cnp",
          "type": "string"
        },
        {
          "internalType": "address",
          "name": "_address",
          "type": "address"
        },
        {
          "internalType": "uint256",
          "name": "birthDate",
          "type": "uint256"
        }
      ],
      "name": "registerAPatientAsDoctor",
      "outputs": [],
      "stateMutability": "nonpayable",
      "type": "function"
    },
    {
      "inputs": [
        {
          "internalType": "address",
          "name": "_address",
          "type": "address"
        }
      ],
      "name": "getPatientFiles",
      "outputs": [
        {
          "components": [
            {
              "internalType": "string",
              "name": "fileHash",
              "type": "string"
            },
            {
              "internalType": "uint256",
              "name": "fileSize",
              "type": "uint256"
            },
            {
              "internalType": "string",
              "name": "fileType",
              "type": "string"
            },
            {
              "internalType": "string",
              "name": "fileName",
              "type": "string"
            },
            {
              "internalType": "string",
              "name": "fileDescription",
              "type": "string"
            },
            {
              "internalType": "uint256",
              "name": "uploadTime",
              "type": "uint256"
            },
            {
              "internalType": "address",
              "name": "patient_address",
              "type": "address"
            },
            {
              "internalType": "address payable",
              "name": "uploader",
              "type": "address"
            }
          ],
          "internalType": "struct Patients.File[]",
          "name": "",
          "type": "tuple[]"
        }
      ],
      "stateMutability": "view",
      "type": "function",
      "constant": true
    },
    {
      "inputs": [
        {
          "internalType": "string",
          "name": "_fileHash",
          "type": "string"
        },
        {
          "internalType": "uint256",
          "name": "_fileSize",
          "type": "uint256"
        },
        {
          "internalType": "string",
          "name": "_fileType",
          "type": "string"
        },
        {
          "internalType": "string",
          "name": "_fileName",
          "type": "string"
        },
        {
          "internalType": "string",
          "name": "_fileDescription",
          "type": "string"
        },
        {
          "internalType": "address",
          "name": "patient_address",
          "type": "address"
        }
      ],
      "name": "addFile",
      "outputs": [],
      "stateMutability": "nonpayable",
      "type": "function"
    },
    {
      "inputs": [
        {
          "internalType": "address",
          "name": "_address",
          "type": "address"
        }
      ],
      "name": "getPatientsOfDoctor",
      "outputs": [
        {
          "components": [
            {
              "internalType": "string",
              "name": "firstName",
              "type": "string"
            },
            {
              "internalType": "string",
              "name": "lastName",
              "type": "string"
            },
            {
              "internalType": "string",
              "name": "country",
              "type": "string"
            },
            {
              "internalType": "string",
              "name": "city",
              "type": "string"
            },
            {
              "internalType": "string",
              "name": "gender",
              "type": "string"
            },
            {
              "internalType": "string",
              "name": "_addressLocation",
              "type": "string"
            },
            {
              "internalType": "address",
              "name": "_address",
              "type": "address"
            },
            {
              "internalType": "string",
              "name": "CNP",
              "type": "string"
            },
            {
              "internalType": "uint256",
              "name": "birthDate",
              "type": "uint256"
            }
          ],
          "internalType": "struct Patients.Patient[]",
          "name": "",
          "type": "tuple[]"
        }
      ],
      "stateMutability": "view",
      "type": "function",
      "constant": true
    }
  ],
  "bytecode": "0x60806040523480156200001157600080fd5b506200003262000026620000a460201b60201c565b620000ac60201b60201c565b604051620000409062000170565b604051809103906000f0801580156200005d573d6000803e3d6000fd5b50600260006101000a81548173ffffffffffffffffffffffffffffffffffffffff021916908373ffffffffffffffffffffffffffffffffffffffff1602179055506200017e565b600033905090565b60008060009054906101000a900473ffffffffffffffffffffffffffffffffffffffff169050816000806101000a81548173ffffffffffffffffffffffffffffffffffffffff021916908373ffffffffffffffffffffffffffffffffffffffff1602179055508173ffffffffffffffffffffffffffffffffffffffff168173ffffffffffffffffffffffffffffffffffffffff167f8be0079c531659141344cd1fd0a4f28419497f9722a3daafe3b4186f6b6457e060405160405180910390a35050565b61047c8062003d3a83390190565b613bac806200018e6000396000f3fe608060405234801561001057600080fd5b50600436106100f55760003560e01c8063954946ed11610097578063ca7c369011610066578063ca7c369014610270578063d547741f146102a0578063ef0beecd146102bc578063f2fde38b146102d8576100f5565b8063954946ed146101ea578063a217fddf14610206578063b230b10414610224578063c1816dfb14610240576100f5565b806336568abe116100d357806336568abe14610176578063715018a6146101925780638da5cb5b1461019c57806391d14854146101ba576100f5565b806301ffc9a7146100fa578063248a9ca31461012a5780632f2ff15d1461015a575b600080fd5b610114600480360381019061010f9190612c9d565b6102f4565b6040516101219190613563565b60405180910390f35b610144600480360381019061013f9190612c0f565b61036e565b604051610151919061357e565b60405180910390f35b610174600480360381019061016f9190612c61565b61038e565b005b610190600480360381019061018b9190612c61565b6103b7565b005b61019a61043a565b005b6101a46104c2565b6040516101b19190613504565b60405180910390f35b6101d460048036038101906101cf9190612c61565b6104eb565b6040516101e19190613563565b60405180910390f35b61020460048036038101906101ff9190612cc6565b610556565b005b61020e6109ec565b60405161021b919061357e565b60405180910390f35b61023e60048036038101906102399190612e34565b6109f3565b005b61025a60048036038101906102559190612be6565b610f7a565b604051610267919061351f565b60405180910390f35b61028a60048036038101906102859190612be6565b611ca0565b6040516102979190613541565b60405180910390f35b6102ba60048036038101906102b59190612c61565b61219d565b005b6102d660048036038101906102d19190612be6565b6121c6565b005b6102f260048036038101906102ed9190612be6565b61225e565b005b60007f7965db0b000000000000000000000000000000000000000000000000000000007bffffffffffffffffffffffffffffffffffffffffffffffffffffffff1916827bffffffffffffffffffffffffffffffffffffffffffffffffffffffff19161480610367575061036682612356565b5b9050919050565b600060016000838152602001908152602001600020600101549050919050565b6103978261036e565b6103a8816103a36123c0565b6123c8565b6103b28383612465565b505050565b6103bf6123c0565b73ffffffffffffffffffffffffffffffffffffffff168173ffffffffffffffffffffffffffffffffffffffff161461042c576040517f08c379a000000000000000000000000000000000000000000000000000000000815260040161042390613773565b60405180910390fd5b6104368282612545565b5050565b6104426123c0565b73ffffffffffffffffffffffffffffffffffffffff166104606104c2565b73ffffffffffffffffffffffffffffffffffffffff16146104b6576040517f08c379a00000000000000000000000000000000000000000000000000000000081526004016104ad90613753565b60405180910390fd5b6104c06000612627565b565b60008060009054906101000a900473ffffffffffffffffffffffffffffffffffffffff16905090565b60006001600084815260200190815260200160002060000160008373ffffffffffffffffffffffffffffffffffffffff1673ffffffffffffffffffffffffffffffffffffffff16815260200190815260200160002060009054906101000a900460ff16905092915050565b6040518061012001604052808a81526020018981526020018581526020018681526020018881526020018781526020018373ffffffffffffffffffffffffffffffffffffffff16815260200184815260200182815250600860008473ffffffffffffffffffffffffffffffffffffffff1673ffffffffffffffffffffffffffffffffffffffff16815260200190815260200160002060008201518160000190805190602001906106079291906129e5565b5060208201518160010190805190602001906106249291906129e5565b5060408201518160020190805190602001906106419291906129e5565b50606082015181600301908051906020019061065e9291906129e5565b50608082015181600401908051906020019061067b9291906129e5565b5060a08201518160050190805190602001906106989291906129e5565b5060c08201518160060160006101000a81548173ffffffffffffffffffffffffffffffffffffffff021916908373ffffffffffffffffffffffffffffffffffffffff16021790555060e08201518160070190805190602001906106fc9291906129e5565b506101008201518160080155905050600660003373ffffffffffffffffffffffffffffffffffffffff1673ffffffffffffffffffffffffffffffffffffffff168152602001908152602001600020600860008473ffffffffffffffffffffffffffffffffffffffff1673ffffffffffffffffffffffffffffffffffffffff168152602001908152602001600020908060018154018082558091505060019003906000526020600020906009020160009091909190915060008201816000019080546107c690613a4a565b6107d1929190612a6b565b5060018201816001019080546107e690613a4a565b6107f1929190612a6b565b50600282018160020190805461080690613a4a565b610811929190612a6b565b50600382018160030190805461082690613a4a565b610831929190612a6b565b50600482018160040190805461084690613a4a565b610851929190612a6b565b50600582018160050190805461086690613a4a565b610871929190612a6b565b506006820160009054906101000a900473ffffffffffffffffffffffffffffffffffffffff168160060160006101000a81548173ffffffffffffffffffffffffffffffffffffffff021916908373ffffffffffffffffffffffffffffffffffffffff16021790555060078201816007019080546108ed90613a4a565b6108f8929190612a6b565b506008820154816008015550506001600560008473ffffffffffffffffffffffffffffffffffffffff1673ffffffffffffffffffffffffffffffffffffffff16815260200190815260200160002060003373ffffffffffffffffffffffffffffffffffffffff1673ffffffffffffffffffffffffffffffffffffffff16815260200190815260200160002060006101000a81548160ff0219169083151502179055507fa5f96332d506397008ae115ad58094fcecc407a0255d91b90e5e96334653edfa898986888b8b888a896040516109d9999897969594939291906135bb565b60405180910390a1505050505050505050565b6000801b81565b600260009054906101000a900473ffffffffffffffffffffffffffffffffffffffff1673ffffffffffffffffffffffffffffffffffffffff1663fec331f26040518163ffffffff1660e01b815260040160206040518083038186803b158015610a5b57600080fd5b505afa158015610a6f573d6000803e3d6000fd5b505050506040513d601f19601f82011682018060405250810190610a939190612c38565b610aa481610a9f6123c0565b6123c8565b6000875111610ab257600080fd5b6000855111610ac057600080fd5b6000835111610ace57600080fd5b6000845111610adc57600080fd5b600073ffffffffffffffffffffffffffffffffffffffff163373ffffffffffffffffffffffffffffffffffffffff161415610b1657600080fd5b60008611610b2357600080fd5b600460008373ffffffffffffffffffffffffffffffffffffffff1673ffffffffffffffffffffffffffffffffffffffff1681526020019081526020016000206040518061010001604052808981526020018881526020018781526020018681526020018581526020014281526020018473ffffffffffffffffffffffffffffffffffffffff1681526020013373ffffffffffffffffffffffffffffffffffffffff1681525090806001815401808255809150506001900390600052602060002090600802016000909190919091506000820151816000019080519060200190610c0d9291906129e5565b50602082015181600101556040820151816002019080519060200190610c349291906129e5565b506060820151816003019080519060200190610c519291906129e5565b506080820151816004019080519060200190610c6e9291906129e5565b5060a0820151816005015560c08201518160060160006101000a81548173ffffffffffffffffffffffffffffffffffffffff021916908373ffffffffffffffffffffffffffffffffffffffff16021790555060e08201518160070160006101000a81548173ffffffffffffffffffffffffffffffffffffffff021916908373ffffffffffffffffffffffffffffffffffffffff1602179055505050600760003373ffffffffffffffffffffffffffffffffffffffff1673ffffffffffffffffffffffffffffffffffffffff16815260200190815260200160002060008373ffffffffffffffffffffffffffffffffffffffff1673ffffffffffffffffffffffffffffffffffffffff1681526020019081526020016000206040518061010001604052808981526020018881526020018781526020018681526020018581526020014281526020018473ffffffffffffffffffffffffffffffffffffffff1681526020013373ffffffffffffffffffffffffffffffffffffffff1681525090806001815401808255809150506001900390600052602060002090600802016000909190919091506000820151816000019080519060200190610e309291906129e5565b50602082015181600101556040820151816002019080519060200190610e579291906129e5565b506060820151816003019080519060200190610e749291906129e5565b506080820151816004019080519060200190610e919291906129e5565b5060a0820151816005015560c08201518160060160006101000a81548173ffffffffffffffffffffffffffffffffffffffff021916908373ffffffffffffffffffffffffffffffffffffffff16021790555060e08201518160070160006101000a81548173ffffffffffffffffffffffffffffffffffffffff021916908373ffffffffffffffffffffffffffffffffffffffff16021790555050507f0e28bc4e50a4f6b410208d4c0789c84f2db79625f6027b4beebb3627de8f5b0c8787878787428833604051610f69989796959493929190613679565b60405180910390a150505050505050565b6060611025600260009054906101000a900473ffffffffffffffffffffffffffffffffffffffff1673ffffffffffffffffffffffffffffffffffffffff1663fec331f26040518163ffffffff1660e01b815260040160206040518083038186803b158015610fe757600080fd5b505afa158015610ffb573d6000803e3d6000fd5b505050506040513d601f19601f8201168201806040525081019061101f9190612c38565b836104eb565b156118475760011515600960008473ffffffffffffffffffffffffffffffffffffffff1673ffffffffffffffffffffffffffffffffffffffff16815260200190815260200160002060003373ffffffffffffffffffffffffffffffffffffffff1673ffffffffffffffffffffffffffffffffffffffff16815260200190815260200160002060009054906101000a900460ff161515141561146557600460008373ffffffffffffffffffffffffffffffffffffffff1673ffffffffffffffffffffffffffffffffffffffff168152602001908152602001600020805480602002602001604051908101604052809291908181526020016000905b8282101561145a57838290600052602060002090600802016040518061010001604052908160008201805461115390613a4a565b80601f016020809104026020016040519081016040528092919081815260200182805461117f90613a4a565b80156111cc5780601f106111a1576101008083540402835291602001916111cc565b820191906000526020600020905b8154815290600101906020018083116111af57829003601f168201915b50505050508152602001600182015481526020016002820180546111ef90613a4a565b80601f016020809104026020016040519081016040528092919081815260200182805461121b90613a4a565b80156112685780601f1061123d57610100808354040283529160200191611268565b820191906000526020600020905b81548152906001019060200180831161124b57829003601f168201915b5050505050815260200160038201805461128190613a4a565b80601f01602080910402602001604051908101604052809291908181526020018280546112ad90613a4a565b80156112fa5780601f106112cf576101008083540402835291602001916112fa565b820191906000526020600020905b8154815290600101906020018083116112dd57829003601f168201915b5050505050815260200160048201805461131390613a4a565b80601f016020809104026020016040519081016040528092919081815260200182805461133f90613a4a565b801561138c5780601f106113615761010080835404028352916020019161138c565b820191906000526020600020905b81548152906001019060200180831161136f57829003601f168201915b50505050508152602001600582015481526020016006820160009054906101000a900473ffffffffffffffffffffffffffffffffffffffff1673ffffffffffffffffffffffffffffffffffffffff1673ffffffffffffffffffffffffffffffffffffffff1681526020016007820160009054906101000a900473ffffffffffffffffffffffffffffffffffffffff1673ffffffffffffffffffffffffffffffffffffffff1673ffffffffffffffffffffffffffffffffffffffff16815250508152602001906001019061111f565b505050509050611c9b565b600760003373ffffffffffffffffffffffffffffffffffffffff1673ffffffffffffffffffffffffffffffffffffffff16815260200190815260200160002060008373ffffffffffffffffffffffffffffffffffffffff1673ffffffffffffffffffffffffffffffffffffffff168152602001908152602001600020805480602002602001604051908101604052809291908181526020016000905b8282101561183c57838290600052602060002090600802016040518061010001604052908160008201805461153590613a4a565b80601f016020809104026020016040519081016040528092919081815260200182805461156190613a4a565b80156115ae5780601f10611583576101008083540402835291602001916115ae565b820191906000526020600020905b81548152906001019060200180831161159157829003601f168201915b50505050508152602001600182015481526020016002820180546115d190613a4a565b80601f01602080910402602001604051908101604052809291908181526020018280546115fd90613a4a565b801561164a5780601f1061161f5761010080835404028352916020019161164a565b820191906000526020600020905b81548152906001019060200180831161162d57829003601f168201915b5050505050815260200160038201805461166390613a4a565b80601f016020809104026020016040519081016040528092919081815260200182805461168f90613a4a565b80156116dc5780601f106116b1576101008083540402835291602001916116dc565b820191906000526020600020905b8154815290600101906020018083116116bf57829003601f168201915b505050505081526020016004820180546116f590613a4a565b80601f016020809104026020016040519081016040528092919081815260200182805461172190613a4a565b801561176e5780601f106117435761010080835404028352916020019161176e565b820191906000526020600020905b81548152906001019060200180831161175157829003601f168201915b50505050508152602001600582015481526020016006820160009054906101000a900473ffffffffffffffffffffffffffffffffffffffff1673ffffffffffffffffffffffffffffffffffffffff1673ffffffffffffffffffffffffffffffffffffffff1681526020016007820160009054906101000a900473ffffffffffffffffffffffffffffffffffffffff1673ffffffffffffffffffffffffffffffffffffffff1673ffffffffffffffffffffffffffffffffffffffff168152505081526020019060010190611501565b505050509050611c9b565b6118f0600260009054906101000a900473ffffffffffffffffffffffffffffffffffffffff1673ffffffffffffffffffffffffffffffffffffffff1663ac5cb97d6040518163ffffffff1660e01b815260040160206040518083038186803b1580156118b257600080fd5b505afa1580156118c6573d6000803e3d6000fd5b505050506040513d601f19601f820116820180604052508101906118ea9190612c38565b836104eb565b15611c9a57600460008373ffffffffffffffffffffffffffffffffffffffff1673ffffffffffffffffffffffffffffffffffffffff168152602001908152602001600020805480602002602001604051908101604052809291908181526020016000905b82821015611c8f57838290600052602060002090600802016040518061010001604052908160008201805461198890613a4a565b80601f01602080910402602001604051908101604052809291908181526020018280546119b490613a4a565b8015611a015780601f106119d657610100808354040283529160200191611a01565b820191906000526020600020905b8154815290600101906020018083116119e457829003601f168201915b5050505050815260200160018201548152602001600282018054611a2490613a4a565b80601f0160208091040260200160405190810160405280929190818152602001828054611a5090613a4a565b8015611a9d5780601f10611a7257610100808354040283529160200191611a9d565b820191906000526020600020905b815481529060010190602001808311611a8057829003601f168201915b50505050508152602001600382018054611ab690613a4a565b80601f0160208091040260200160405190810160405280929190818152602001828054611ae290613a4a565b8015611b2f5780601f10611b0457610100808354040283529160200191611b2f565b820191906000526020600020905b815481529060010190602001808311611b1257829003601f168201915b50505050508152602001600482018054611b4890613a4a565b80601f0160208091040260200160405190810160405280929190818152602001828054611b7490613a4a565b8015611bc15780601f10611b9657610100808354040283529160200191611bc1565b820191906000526020600020905b815481529060010190602001808311611ba457829003601f168201915b50505050508152602001600582015481526020016006820160009054906101000a900473ffffffffffffffffffffffffffffffffffffffff1673ffffffffffffffffffffffffffffffffffffffff1673ffffffffffffffffffffffffffffffffffffffff1681526020016007820160009054906101000a900473ffffffffffffffffffffffffffffffffffffffff1673ffffffffffffffffffffffffffffffffffffffff1673ffffffffffffffffffffffffffffffffffffffff168152505081526020019060010190611954565b505050509050611c9b565b5b919050565b6060600660008373ffffffffffffffffffffffffffffffffffffffff1673ffffffffffffffffffffffffffffffffffffffff168152602001908152602001600020805480602002602001604051908101604052809291908181526020016000905b82821015612192578382906000526020600020906009020160405180610120016040529081600082018054611d3590613a4a565b80601f0160208091040260200160405190810160405280929190818152602001828054611d6190613a4a565b8015611dae5780601f10611d8357610100808354040283529160200191611dae565b820191906000526020600020905b815481529060010190602001808311611d9157829003601f168201915b50505050508152602001600182018054611dc790613a4a565b80601f0160208091040260200160405190810160405280929190818152602001828054611df390613a4a565b8015611e405780601f10611e1557610100808354040283529160200191611e40565b820191906000526020600020905b815481529060010190602001808311611e2357829003601f168201915b50505050508152602001600282018054611e5990613a4a565b80601f0160208091040260200160405190810160405280929190818152602001828054611e8590613a4a565b8015611ed25780601f10611ea757610100808354040283529160200191611ed2565b820191906000526020600020905b815481529060010190602001808311611eb557829003601f168201915b50505050508152602001600382018054611eeb90613a4a565b80601f0160208091040260200160405190810160405280929190818152602001828054611f1790613a4a565b8015611f645780601f10611f3957610100808354040283529160200191611f64565b820191906000526020600020905b815481529060010190602001808311611f4757829003601f168201915b50505050508152602001600482018054611f7d90613a4a565b80601f0160208091040260200160405190810160405280929190818152602001828054611fa990613a4a565b8015611ff65780601f10611fcb57610100808354040283529160200191611ff6565b820191906000526020600020905b815481529060010190602001808311611fd957829003601f168201915b5050505050815260200160058201805461200f90613a4a565b80601f016020809104026020016040519081016040528092919081815260200182805461203b90613a4a565b80156120885780601f1061205d57610100808354040283529160200191612088565b820191906000526020600020905b81548152906001019060200180831161206b57829003601f168201915b505050505081526020016006820160009054906101000a900473ffffffffffffffffffffffffffffffffffffffff1673ffffffffffffffffffffffffffffffffffffffff1673ffffffffffffffffffffffffffffffffffffffff1681526020016007820180546120f790613a4a565b80601f016020809104026020016040519081016040528092919081815260200182805461212390613a4a565b80156121705780601f1061214557610100808354040283529160200191612170565b820191906000526020600020905b81548152906001019060200180831161215357829003601f168201915b5050505050815260200160088201548152505081526020019060010190611d01565b505050509050919050565b6121a68261036e565b6121b7816121b26123c0565b6123c8565b6121c18383612545565b505050565b6001600960003373ffffffffffffffffffffffffffffffffffffffff1673ffffffffffffffffffffffffffffffffffffffff16815260200190815260200160002060008373ffffffffffffffffffffffffffffffffffffffff1673ffffffffffffffffffffffffffffffffffffffff16815260200190815260200160002060006101000a81548160ff02191690831515021790555050565b6122666123c0565b73ffffffffffffffffffffffffffffffffffffffff166122846104c2565b73ffffffffffffffffffffffffffffffffffffffff16146122da576040517f08c379a00000000000000000000000000000000000000000000000000000000081526004016122d190613753565b60405180910390fd5b600073ffffffffffffffffffffffffffffffffffffffff168173ffffffffffffffffffffffffffffffffffffffff16141561234a576040517f08c379a000000000000000000000000000000000000000000000000000000000815260040161234190613733565b60405180910390fd5b61235381612627565b50565b60007f01ffc9a7000000000000000000000000000000000000000000000000000000007bffffffffffffffffffffffffffffffffffffffffffffffffffffffff1916827bffffffffffffffffffffffffffffffffffffffffffffffffffffffff1916149050919050565b600033905090565b6123d282826104eb565b612461576123f78173ffffffffffffffffffffffffffffffffffffffff1660146126eb565b6124058360001c60206126eb565b6040516020016124169291906134ca565b6040516020818303038152906040526040517f08c379a00000000000000000000000000000000000000000000000000000000081526004016124589190613599565b60405180910390fd5b5050565b61246f82826104eb565b61254157600180600084815260200190815260200160002060000160008373ffffffffffffffffffffffffffffffffffffffff1673ffffffffffffffffffffffffffffffffffffffff16815260200190815260200160002060006101000a81548160ff0219169083151502179055506124e66123c0565b73ffffffffffffffffffffffffffffffffffffffff168173ffffffffffffffffffffffffffffffffffffffff16837f2f8788117e7eff1d82e926ec794901d17c78024a50270940304540a733656f0d60405160405180910390a45b5050565b61254f82826104eb565b156126235760006001600084815260200190815260200160002060000160008373ffffffffffffffffffffffffffffffffffffffff1673ffffffffffffffffffffffffffffffffffffffff16815260200190815260200160002060006101000a81548160ff0219169083151502179055506125c86123c0565b73ffffffffffffffffffffffffffffffffffffffff168173ffffffffffffffffffffffffffffffffffffffff16837ff6391f5c32d9c69d2a47ea670b442974b53935d1edc7fd64eb21e047a839171b60405160405180910390a45b5050565b60008060009054906101000a900473ffffffffffffffffffffffffffffffffffffffff169050816000806101000a81548173ffffffffffffffffffffffffffffffffffffffff021916908373ffffffffffffffffffffffffffffffffffffffff1602179055508173ffffffffffffffffffffffffffffffffffffffff168173ffffffffffffffffffffffffffffffffffffffff167f8be0079c531659141344cd1fd0a4f28419497f9722a3daafe3b4186f6b6457e060405160405180910390a35050565b6060600060028360026126fe91906138f4565b612708919061389e565b67ffffffffffffffff811115612747577f4e487b7100000000000000000000000000000000000000000000000000000000600052604160045260246000fd5b6040519080825280601f01601f1916602001820160405280156127795781602001600182028036833780820191505090505b5090507f3000000000000000000000000000000000000000000000000000000000000000816000815181106127d7577f4e487b7100000000000000000000000000000000000000000000000000000000600052603260045260246000fd5b60200101907effffffffffffffffffffffffffffffffffffffffffffffffffffffffffffff1916908160001a9053507f780000000000000000000000000000000000000000000000000000000000000081600181518110612861577f4e487b7100000000000000000000000000000000000000000000000000000000600052603260045260246000fd5b60200101907effffffffffffffffffffffffffffffffffffffffffffffffffffffffffffff1916908160001a905350600060018460026128a191906138f4565b6128ab919061389e565b90505b6001811115612997577f3031323334353637383961626364656600000000000000000000000000000000600f861660108110612913577f4e487b7100000000000000000000000000000000000000000000000000000000600052603260045260246000fd5b1a60f81b828281518110612950577f4e487b7100000000000000000000000000000000000000000000000000000000600052603260045260246000fd5b60200101907effffffffffffffffffffffffffffffffffffffffffffffffffffffffffffff1916908160001a905350600485901c94508061299090613a20565b90506128ae565b50600084146129db576040517f08c379a00000000000000000000000000000000000000000000000000000000081526004016129d290613713565b60405180910390fd5b8091505092915050565b8280546129f190613a4a565b90600052602060002090601f016020900481019282612a135760008555612a5a565b82601f10612a2c57805160ff1916838001178555612a5a565b82800160010185558215612a5a579182015b82811115612a59578251825591602001919060010190612a3e565b5b509050612a679190612af8565b5090565b828054612a7790613a4a565b90600052602060002090601f016020900481019282612a995760008555612ae7565b82601f10612aaa5780548555612ae7565b82800160010185558215612ae757600052602060002091601f016020900482015b82811115612ae6578254825591600101919060010190612acb565b5b509050612af49190612af8565b5090565b5b80821115612b11576000816000905550600101612af9565b5090565b6000612b28612b23846137c4565b613793565b905082815260208101848484011115612b4057600080fd5b612b4b8482856139de565b509392505050565b600081359050612b6281613b1a565b92915050565b600081359050612b7781613b31565b92915050565b600081519050612b8c81613b31565b92915050565b600081359050612ba181613b48565b92915050565b600082601f830112612bb857600080fd5b8135612bc8848260208601612b15565b91505092915050565b600081359050612be081613b5f565b92915050565b600060208284031215612bf857600080fd5b6000612c0684828501612b53565b91505092915050565b600060208284031215612c2157600080fd5b6000612c2f84828501612b68565b91505092915050565b600060208284031215612c4a57600080fd5b6000612c5884828501612b7d565b91505092915050565b60008060408385031215612c7457600080fd5b6000612c8285828601612b68565b9250506020612c9385828601612b53565b9150509250929050565b600060208284031215612caf57600080fd5b6000612cbd84828501612b92565b91505092915050565b60008060008060008060008060006101208a8c031215612ce557600080fd5b60008a013567ffffffffffffffff811115612cff57600080fd5b612d0b8c828d01612ba7565b99505060208a013567ffffffffffffffff811115612d2857600080fd5b612d348c828d01612ba7565b98505060408a013567ffffffffffffffff811115612d5157600080fd5b612d5d8c828d01612ba7565b97505060608a013567ffffffffffffffff811115612d7a57600080fd5b612d868c828d01612ba7565b96505060808a013567ffffffffffffffff811115612da357600080fd5b612daf8c828d01612ba7565b95505060a08a013567ffffffffffffffff811115612dcc57600080fd5b612dd88c828d01612ba7565b94505060c08a013567ffffffffffffffff811115612df557600080fd5b612e018c828d01612ba7565b93505060e0612e128c828d01612b53565b925050610100612e248c828d01612bd1565b9150509295985092959850929598565b60008060008060008060c08789031215612e4d57600080fd5b600087013567ffffffffffffffff811115612e6757600080fd5b612e7389828a01612ba7565b9650506020612e8489828a01612bd1565b955050604087013567ffffffffffffffff811115612ea157600080fd5b612ead89828a01612ba7565b945050606087013567ffffffffffffffff811115612eca57600080fd5b612ed689828a01612ba7565b935050608087013567ffffffffffffffff811115612ef357600080fd5b612eff89828a01612ba7565b92505060a0612f1089828a01612b53565b9150509295509295509295565b6000612f2983836132f8565b905092915050565b6000612f3d83836133bd565b905092915050565b612f4e81613960565b82525050565b612f5d81613960565b82525050565b612f6c8161394e565b82525050565b612f7b8161394e565b82525050565b6000612f8c82613814565b612f96818561384f565b935083602082028501612fa8856137f4565b8060005b85811015612fe45784840389528151612fc58582612f1d565b9450612fd083613835565b925060208a01995050600181019050612fac565b50829750879550505050505092915050565b60006130018261381f565b61300b8185613860565b93508360208202850161301d85613804565b8060005b85811015613059578484038952815161303a8582612f31565b945061304583613842565b925060208a01995050600181019050613021565b50829750879550505050505092915050565b61307481613972565b82525050565b6130838161397e565b82525050565b60006130948261382a565b61309e8185613871565b93506130ae8185602086016139ed565b6130b781613b09565b840191505092915050565b60006130cd8261382a565b6130d78185613882565b93506130e78185602086016139ed565b6130f081613b09565b840191505092915050565b60006131068261382a565b6131108185613893565b93506131208185602086016139ed565b80840191505092915050565b6000613139602083613882565b91507f537472696e67733a20686578206c656e67746820696e73756666696369656e746000830152602082019050919050565b6000613179602683613882565b91507f4f776e61626c653a206e6577206f776e657220697320746865207a65726f206160008301527f64647265737300000000000000000000000000000000000000000000000000006020830152604082019050919050565b60006131df602083613882565b91507f4f776e61626c653a2063616c6c6572206973206e6f7420746865206f776e65726000830152602082019050919050565b600061321f601783613893565b91507f416363657373436f6e74726f6c3a206163636f756e74200000000000000000006000830152601782019050919050565b600061325f601183613893565b91507f206973206d697373696e6720726f6c65200000000000000000000000000000006000830152601182019050919050565b600061329f602f83613882565b91507f416363657373436f6e74726f6c3a2063616e206f6e6c792072656e6f756e636560008301527f20726f6c657320666f722073656c6600000000000000000000000000000000006020830152604082019050919050565b60006101008301600083015184820360008601526133168282613089565b915050602083015161332b60208601826134ac565b50604083015184820360408601526133438282613089565b9150506060830151848203606086015261335d8282613089565b915050608083015184820360808601526133778282613089565b91505060a083015161338c60a08601826134ac565b5060c083015161339f60c0860182612f63565b5060e08301516133b260e0860182612f45565b508091505092915050565b60006101208301600083015184820360008601526133db8282613089565b915050602083015184820360208601526133f58282613089565b9150506040830151848203604086015261340f8282613089565b915050606083015184820360608601526134298282613089565b915050608083015184820360808601526134438282613089565b91505060a083015184820360a086015261345d8282613089565b91505060c083015161347260c0860182612f63565b5060e083015184820360e086015261348a8282613089565b9150506101008301516134a16101008601826134ac565b508091505092915050565b6134b5816139d4565b82525050565b6134c4816139d4565b82525050565b60006134d582613212565b91506134e182856130fb565b91506134ec82613252565b91506134f882846130fb565b91508190509392505050565b60006020820190506135196000830184612f72565b92915050565b600060208201905081810360008301526135398184612f81565b905092915050565b6000602082019050818103600083015261355b8184612ff6565b905092915050565b6000602082019050613578600083018461306b565b92915050565b6000602082019050613593600083018461307a565b92915050565b600060208201905081810360008301526135b381846130c2565b905092915050565b60006101208201905081810360008301526135d6818c6130c2565b905081810360208301526135ea818b6130c2565b905081810360408301526135fe818a6130c2565b9050818103606083015261361281896130c2565b9050818103608083015261362681886130c2565b905081810360a083015261363a81876130c2565b905061364960c0830186612f72565b81810360e083015261365b81856130c2565b905061366b6101008301846134bb565b9a9950505050505050505050565b6000610100820190508181036000830152613694818b6130c2565b90506136a3602083018a6134bb565b81810360408301526136b581896130c2565b905081810360608301526136c981886130c2565b905081810360808301526136dd81876130c2565b90506136ec60a08301866134bb565b6136f960c0830185612f72565b61370660e0830184612f54565b9998505050505050505050565b6000602082019050818103600083015261372c8161312c565b9050919050565b6000602082019050818103600083015261374c8161316c565b9050919050565b6000602082019050818103600083015261376c816131d2565b9050919050565b6000602082019050818103600083015261378c81613292565b9050919050565b6000604051905081810181811067ffffffffffffffff821117156137ba576137b9613ada565b5b8060405250919050565b600067ffffffffffffffff8211156137df576137de613ada565b5b601f19601f8301169050602081019050919050565b6000819050602082019050919050565b6000819050602082019050919050565b600081519050919050565b600081519050919050565b600081519050919050565b6000602082019050919050565b6000602082019050919050565b600082825260208201905092915050565b600082825260208201905092915050565b600082825260208201905092915050565b600082825260208201905092915050565b600081905092915050565b60006138a9826139d4565b91506138b4836139d4565b9250827fffffffffffffffffffffffffffffffffffffffffffffffffffffffffffffffff038211156138e9576138e8613a7c565b5b828201905092915050565b60006138ff826139d4565b915061390a836139d4565b9250817fffffffffffffffffffffffffffffffffffffffffffffffffffffffffffffffff048311821515161561394357613942613a7c565b5b828202905092915050565b6000613959826139b4565b9050919050565b600061396b826139b4565b9050919050565b60008115159050919050565b6000819050919050565b60007fffffffff0000000000000000000000000000000000000000000000000000000082169050919050565b600073ffffffffffffffffffffffffffffffffffffffff82169050919050565b6000819050919050565b82818337600083830152505050565b60005b83811015613a0b5780820151818401526020810190506139f0565b83811115613a1a576000848401525b50505050565b6000613a2b826139d4565b91506000821415613a3f57613a3e613a7c565b5b600182039050919050565b60006002820490506001821680613a6257607f821691505b60208210811415613a7657613a75613aab565b5b50919050565b7f4e487b7100000000000000000000000000000000000000000000000000000000600052601160045260246000fd5b7f4e487b7100000000000000000000000000000000000000000000000000000000600052602260045260246000fd5b7f4e487b7100000000000000000000000000000000000000000000000000000000600052604160045260246000fd5b6000601f19601f8301169050919050565b613b238161394e565b8114613b2e57600080fd5b50565b613b3a8161397e565b8114613b4557600080fd5b50565b613b5181613988565b8114613b5c57600080fd5b50565b613b68816139d4565b8114613b7357600080fd5b5056fea2646970667358221220420bf42780b7619ad21c8b00aeca67f584bc1a087ca988f6fcabe5cb6110ab3564736f6c63430008000033608060405234801561001057600080fd5b50610034735c4e9fccd53c74a4ce7c9fc14aac38a81f9ae98361005c60201b60201c565b61005773e2d18e6fffd6b2d36b3c7e2f44e33374c7d92b3361005c60201b60201c565b6100b6565b60016000808373ffffffffffffffffffffffffffffffffffffffff1673ffffffffffffffffffffffffffffffffffffffff16815260200190815260200160002060006101000a81548160ff02191690831515021790555050565b6103b7806100c56000396000f3fe608060405234801561001057600080fd5b50600436106100625760003560e01c80630e666e4914610067578063421b2d8b1461009757806375b238fc146100b3578063a87430ba146100d1578063ac5cb97d14610101578063fec331f21461011f575b600080fd5b610081600480360381019061007c91906102a5565b61013d565b60405161008e91906102ec565b60405180910390f35b6100b160048036038101906100ac91906102a5565b6101aa565b005b6100bb610204565b6040516100c89190610307565b60405180910390f35b6100eb60048036038101906100e691906102a5565b610228565b6040516100f891906102ec565b60405180910390f35b610109610248565b6040516101169190610307565b60405180910390f35b61012761026c565b6040516101349190610307565b60405180910390f35b6000600115156000808473ffffffffffffffffffffffffffffffffffffffff1673ffffffffffffffffffffffffffffffffffffffff16815260200190815260200160002060009054906101000a900460ff16151514156101a057600190506101a5565b600090505b919050565b60016000808373ffffffffffffffffffffffffffffffffffffffff1673ffffffffffffffffffffffffffffffffffffffff16815260200190815260200160002060006101000a81548160ff02191690831515021790555050565b7fa49807205ce4d355092ef5a8a18f56e8913cf4a201fbe287825b095693c2177581565b60006020528060005260406000206000915054906101000a900460ff1681565b7f72606200fac42b7dc86b75901d61ecfab2a4a1a6eded478b97a428094891abed81565b7f0af1dac7dea2fd7f7738119cec7df099dfad49aa9d2e7d17ba6b60f63ae7411f81565b60008135905061029f8161036a565b92915050565b6000602082840312156102b757600080fd5b60006102c584828501610290565b91505092915050565b6102d781610334565b82525050565b6102e681610340565b82525050565b600060208201905061030160008301846102ce565b92915050565b600060208201905061031c60008301846102dd565b92915050565b600061032d8261034a565b9050919050565b60008115159050919050565b6000819050919050565b600073ffffffffffffffffffffffffffffffffffffffff82169050919050565b61037381610322565b811461037e57600080fd5b5056fea2646970667358221220cb06887f8f6a2b7515d4c43276683e473704bb9323043dca4ee12e6ff311fe0d64736f6c63430008000033",
  "immutableReferences": {},
  "source": "pragma solidity 0.8.0;\r\n\r\nimport \"@openzeppelin/contracts/access/Ownable.sol\";\r\nimport \"@openzeppelin/contracts/access/AccessControl.sol\";\r\nimport \"./Registration.sol\";\r\nimport \"./DStorage.sol\";\r\n\r\ncontract Patients is Ownable, AccessControl{\r\n\r\n    Registration _registration;\r\n    DStorage _dstorage;\r\n\r\n    struct File {\r\n      string fileHash;\r\n      uint fileSize;\r\n      string fileType;\r\n      string fileName;\r\n      string fileDescription;\r\n      uint uploadTime;\r\n      address patient_address;\r\n      address payable uploader;\r\n    }\r\n\r\n    event FileUploaded(\r\n      string fileHash,\r\n      uint fileSize,\r\n      string fileType,\r\n      string fileName,\r\n      string fileDescription,\r\n      uint uploadTime,\r\n      address patient_address,\r\n      address payable uploader\r\n  );\r\n\r\n    struct Doctor {\r\n        uint age;\r\n        string name;\r\n        string specialization;\r\n        uint hospitalId;\r\n    }\r\n\r\n    constructor() public {\r\n        _registration = new Registration();\r\n    }\r\n\r\n    struct Patient {\r\n        string firstName;\r\n        string lastName;\r\n        string country;\r\n        string city;\r\n        string gender;\r\n        string _addressLocation;\r\n        address _address;\r\n        string CNP;\r\n        uint birthDate;\r\n    }\r\n\r\n    event AddPatient(\r\n      string firstName,\r\n      string lastName,\r\n      string country,\r\n      string city,\r\n      string gender,\r\n      string _addressLocation,\r\n      address _address,\r\n      string CNP,\r\n      uint birthDate\r\n  );\r\n    \r\n    mapping(address => File[]) medical_records;\r\n    // mapping(address => Doctor[]) doctors;\r\n    mapping(address => mapping(address => bool)) doctors;\r\n\r\n    mapping(address => Patient[]) patientsOfDoctor;\r\n    mapping(address => mapping(address => File[])) patient_files;\r\n\r\n    mapping(address => Patient) patients;\r\n    mapping(address => mapping(address => bool)) history_approved;\r\n\r\n    function giveHistoryPermission(address _address) public{\r\n        history_approved[msg.sender][_address] = true;\r\n    }\r\n\r\n    function registerAPatientAsDoctor(string memory fname, string memory lname, string memory gender, string memory addressLocation,\r\n        string memory city, string memory country, string memory cnp, address _address, uint birthDate) public{\r\n        \r\n        patients[_address] = Patient(fname, lname, country, city, gender, addressLocation, _address, cnp, birthDate);\r\n        patientsOfDoctor[msg.sender].push(patients[_address]);\r\n        doctors[_address][msg.sender] = true;\r\n\r\n        emit AddPatient(fname, lname, country, city, gender, addressLocation, _address, cnp, birthDate);\r\n    } \r\n\r\n    function getPatientFiles(address _address) view public returns(File[] memory){\r\n        if(hasRole(_registration.DOCTOR_ROLE(), _address)){\r\n            if (history_approved[_address][msg.sender] == true) {\r\n                // is a doctor which has access to the medical history of the patient\r\n                return medical_records[_address];\r\n            }\r\n            else {\r\n                // is a doctor which has not access to the medical history of the patient\r\n                // and will receive only the corresponding medical records\r\n                return patient_files[msg.sender][_address];\r\n            }\r\n        }\r\n        else if (hasRole(_registration.PATIENT_ROLE(), _address)) { \r\n            // is a patient who wants to retrieve his files\r\n            return medical_records[_address];\r\n        }\r\n    }\r\n\r\n    function addFile(string memory _fileHash, uint _fileSize, string memory _fileType, string memory _fileName, string memory _fileDescription, address patient_address) public onlyRole(_registration.DOCTOR_ROLE()){\r\n        // Make sure the file hash exists\r\n        require(bytes(_fileHash).length > 0);\r\n\r\n        // Make sure file type exists\r\n        require(bytes(_fileType).length > 0);\r\n\r\n        // Make sure file description exists\r\n        require(bytes(_fileDescription).length > 0);\r\n\r\n        // Make sure file fileName exists\r\n        require(bytes(_fileName).length > 0);\r\n\r\n        // Make sure uploader address exists\r\n        require(msg.sender != address(0));\r\n\r\n        // Make sure file size is more than 0\r\n        require(_fileSize > 0);\r\n\r\n        medical_records[patient_address].push(File(_fileHash, _fileSize, _fileType, _fileName, _fileDescription, block.timestamp, patient_address, payable(msg.sender)));\r\n        patient_files[msg.sender][patient_address].push(File(_fileHash, _fileSize, _fileType, _fileName, _fileDescription, block.timestamp, patient_address, payable(msg.sender)));\r\n        // Trigger an event\r\n\r\n        emit FileUploaded(_fileHash, _fileSize, _fileType, _fileName, _fileDescription, block.timestamp, patient_address, payable(msg.sender));\r\n    }\r\n\r\n    function getPatientsOfDoctor(address _address) view public returns(Patient[] memory){\r\n        return patientsOfDoctor[_address];\r\n    }\r\n}",
  "sourcePath": "C:/Licenta/Licenta/src/contracts/Patients.sol",
  "compiler": {
    "name": "solc",
    "version": "0.8.0+commit.c7dfd78e.Emscripten.clang"
  },
  "schemaVersion": "3.2.3",
  "updatedAt": "2022-04-18T17:48:08.247Z",
  "networkType": "ethereum",
  "devdoc": {
    "kind": "dev",
    "methods": {
      "getRoleAdmin(bytes32)": {
        "details": "Returns the admin role that controls `role`. See {grantRole} and {revokeRole}. To change a role's admin, use {_setRoleAdmin}."
      },
      "grantRole(bytes32,address)": {
        "details": "Grants `role` to `account`. If `account` had not been already granted `role`, emits a {RoleGranted} event. Requirements: - the caller must have ``role``'s admin role."
      },
      "hasRole(bytes32,address)": {
        "details": "Returns `true` if `account` has been granted `role`."
      },
      "owner()": {
        "details": "Returns the address of the current owner."
      },
      "renounceOwnership()": {
        "details": "Leaves the contract without owner. It will not be possible to call `onlyOwner` functions anymore. Can only be called by the current owner. NOTE: Renouncing ownership will leave the contract without an owner, thereby removing any functionality that is only available to the owner."
      },
      "renounceRole(bytes32,address)": {
        "details": "Revokes `role` from the calling account. Roles are often managed via {grantRole} and {revokeRole}: this function's purpose is to provide a mechanism for accounts to lose their privileges if they are compromised (such as when a trusted device is misplaced). If the calling account had been revoked `role`, emits a {RoleRevoked} event. Requirements: - the caller must be `account`."
      },
      "revokeRole(bytes32,address)": {
        "details": "Revokes `role` from `account`. If `account` had been granted `role`, emits a {RoleRevoked} event. Requirements: - the caller must have ``role``'s admin role."
      },
      "supportsInterface(bytes4)": {
        "details": "See {IERC165-supportsInterface}."
      },
      "transferOwnership(address)": {
        "details": "Transfers ownership of the contract to a new account (`newOwner`). Can only be called by the current owner."
      }
    },
    "version": 1
  },
  "userdoc": {
    "kind": "user",
    "methods": {},
    "version": 1
  }
}