{
  "contractName": "Patients",
  "abi": [
    {
      "inputs": [
        {
          "internalType": "address",
          "name": "registrationA",
          "type": "address"
        }
      ],
      "stateMutability": "nonpayable",
      "type": "constructor"
    },
    {
      "anonymous": false,
      "inputs": [
        {
          "indexed": false,
          "internalType": "string",
          "name": "firstName",
          "type": "string"
        },
        {
          "indexed": false,
          "internalType": "string",
          "name": "lastName",
          "type": "string"
        },
        {
          "indexed": false,
          "internalType": "string",
          "name": "country",
          "type": "string"
        },
        {
          "indexed": false,
          "internalType": "string",
          "name": "city",
          "type": "string"
        },
        {
          "indexed": false,
          "internalType": "string",
          "name": "gender",
          "type": "string"
        },
        {
          "indexed": false,
          "internalType": "string",
          "name": "_addressLocation",
          "type": "string"
        },
        {
          "indexed": false,
          "internalType": "address",
          "name": "_address",
          "type": "address"
        },
        {
          "indexed": false,
          "internalType": "string",
          "name": "CNP",
          "type": "string"
        },
        {
          "indexed": false,
          "internalType": "uint256",
          "name": "birthDate",
          "type": "uint256"
        },
        {
          "indexed": false,
          "internalType": "string",
          "name": "_hash",
          "type": "string"
        }
      ],
      "name": "AddPatient",
      "type": "event"
    },
    {
      "anonymous": false,
      "inputs": [
        {
          "indexed": true,
          "internalType": "address",
          "name": "previousOwner",
          "type": "address"
        },
        {
          "indexed": true,
          "internalType": "address",
          "name": "newOwner",
          "type": "address"
        }
      ],
      "name": "OwnershipTransferred",
      "type": "event"
    },
    {
      "anonymous": false,
      "inputs": [
        {
          "indexed": true,
          "internalType": "bytes32",
          "name": "role",
          "type": "bytes32"
        },
        {
          "indexed": true,
          "internalType": "bytes32",
          "name": "previousAdminRole",
          "type": "bytes32"
        },
        {
          "indexed": true,
          "internalType": "bytes32",
          "name": "newAdminRole",
          "type": "bytes32"
        }
      ],
      "name": "RoleAdminChanged",
      "type": "event"
    },
    {
      "anonymous": false,
      "inputs": [
        {
          "indexed": true,
          "internalType": "bytes32",
          "name": "role",
          "type": "bytes32"
        },
        {
          "indexed": true,
          "internalType": "address",
          "name": "account",
          "type": "address"
        },
        {
          "indexed": true,
          "internalType": "address",
          "name": "sender",
          "type": "address"
        }
      ],
      "name": "RoleGranted",
      "type": "event"
    },
    {
      "anonymous": false,
      "inputs": [
        {
          "indexed": true,
          "internalType": "bytes32",
          "name": "role",
          "type": "bytes32"
        },
        {
          "indexed": true,
          "internalType": "address",
          "name": "account",
          "type": "address"
        },
        {
          "indexed": true,
          "internalType": "address",
          "name": "sender",
          "type": "address"
        }
      ],
      "name": "RoleRevoked",
      "type": "event"
    },
    {
      "inputs": [],
      "name": "DEFAULT_ADMIN_ROLE",
      "outputs": [
        {
          "internalType": "bytes32",
          "name": "",
          "type": "bytes32"
        }
      ],
      "stateMutability": "view",
      "type": "function",
      "constant": true
    },
    {
      "inputs": [
        {
          "internalType": "bytes32",
          "name": "role",
          "type": "bytes32"
        }
      ],
      "name": "getRoleAdmin",
      "outputs": [
        {
          "internalType": "bytes32",
          "name": "",
          "type": "bytes32"
        }
      ],
      "stateMutability": "view",
      "type": "function",
      "constant": true
    },
    {
      "inputs": [
        {
          "internalType": "bytes32",
          "name": "role",
          "type": "bytes32"
        },
        {
          "internalType": "address",
          "name": "account",
          "type": "address"
        }
      ],
      "name": "grantRole",
      "outputs": [],
      "stateMutability": "nonpayable",
      "type": "function"
    },
    {
      "inputs": [
        {
          "internalType": "bytes32",
          "name": "role",
          "type": "bytes32"
        },
        {
          "internalType": "address",
          "name": "account",
          "type": "address"
        }
      ],
      "name": "hasRole",
      "outputs": [
        {
          "internalType": "bool",
          "name": "",
          "type": "bool"
        }
      ],
      "stateMutability": "view",
      "type": "function",
      "constant": true
    },
    {
      "inputs": [],
      "name": "owner",
      "outputs": [
        {
          "internalType": "address",
          "name": "",
          "type": "address"
        }
      ],
      "stateMutability": "view",
      "type": "function",
      "constant": true
    },
    {
      "inputs": [
        {
          "internalType": "uint256",
          "name": "",
          "type": "uint256"
        }
      ],
      "name": "patientAccounts",
      "outputs": [
        {
          "internalType": "address",
          "name": "",
          "type": "address"
        }
      ],
      "stateMutability": "view",
      "type": "function",
      "constant": true
    },
    {
      "inputs": [],
      "name": "renounceOwnership",
      "outputs": [],
      "stateMutability": "nonpayable",
      "type": "function"
    },
    {
      "inputs": [
        {
          "internalType": "bytes32",
          "name": "role",
          "type": "bytes32"
        },
        {
          "internalType": "address",
          "name": "account",
          "type": "address"
        }
      ],
      "name": "renounceRole",
      "outputs": [],
      "stateMutability": "nonpayable",
      "type": "function"
    },
    {
      "inputs": [
        {
          "internalType": "bytes32",
          "name": "role",
          "type": "bytes32"
        },
        {
          "internalType": "address",
          "name": "account",
          "type": "address"
        }
      ],
      "name": "revokeRole",
      "outputs": [],
      "stateMutability": "nonpayable",
      "type": "function"
    },
    {
      "inputs": [
        {
          "internalType": "bytes4",
          "name": "interfaceId",
          "type": "bytes4"
        }
      ],
      "name": "supportsInterface",
      "outputs": [
        {
          "internalType": "bool",
          "name": "",
          "type": "bool"
        }
      ],
      "stateMutability": "view",
      "type": "function",
      "constant": true
    },
    {
      "inputs": [
        {
          "internalType": "address",
          "name": "newOwner",
          "type": "address"
        }
      ],
      "name": "transferOwnership",
      "outputs": [],
      "stateMutability": "nonpayable",
      "type": "function"
    },
    {
      "inputs": [
        {
          "internalType": "string",
          "name": "fname",
          "type": "string"
        },
        {
          "internalType": "string",
          "name": "lname",
          "type": "string"
        },
        {
          "internalType": "string",
          "name": "gender",
          "type": "string"
        },
        {
          "internalType": "string",
          "name": "addressLocation",
          "type": "string"
        },
        {
          "internalType": "string",
          "name": "city",
          "type": "string"
        },
        {
          "internalType": "string",
          "name": "country",
          "type": "string"
        },
        {
          "internalType": "string",
          "name": "cnp",
          "type": "string"
        },
        {
          "internalType": "uint256",
          "name": "birthDate",
          "type": "uint256"
        },
        {
          "internalType": "string",
          "name": "_hash",
          "type": "string"
        }
      ],
      "name": "registerPatient",
      "outputs": [],
      "stateMutability": "nonpayable",
      "type": "function"
    },
    {
      "inputs": [
        {
          "internalType": "address",
          "name": "_address",
          "type": "address"
        }
      ],
      "name": "getPatient",
      "outputs": [
        {
          "components": [
            {
              "internalType": "string",
              "name": "firstName",
              "type": "string"
            },
            {
              "internalType": "string",
              "name": "lastName",
              "type": "string"
            },
            {
              "internalType": "string",
              "name": "country",
              "type": "string"
            },
            {
              "internalType": "string",
              "name": "city",
              "type": "string"
            },
            {
              "internalType": "string",
              "name": "gender",
              "type": "string"
            },
            {
              "internalType": "string",
              "name": "_addressLocation",
              "type": "string"
            },
            {
              "internalType": "address",
              "name": "_address",
              "type": "address"
            },
            {
              "internalType": "string",
              "name": "CNP",
              "type": "string"
            },
            {
              "internalType": "uint256",
              "name": "birthDate",
              "type": "uint256"
            },
            {
              "internalType": "string",
              "name": "_hash",
              "type": "string"
            }
          ],
          "internalType": "struct Patients.Patient",
          "name": "",
          "type": "tuple"
        }
      ],
      "stateMutability": "view",
      "type": "function",
      "constant": true
    },
    {
      "inputs": [],
      "name": "getPatientsAccount",
      "outputs": [
        {
          "internalType": "address[]",
          "name": "",
          "type": "address[]"
        }
      ],
      "stateMutability": "view",
      "type": "function",
      "constant": true
    }
  ],
  "bytecode": "0x60806040523480156200001157600080fd5b506040516200272d3803806200272d83398181016040528101906200003791906200018a565b620000576200004b620000a760201b60201c565b620000af60201b60201c565b600160028190555080600360006101000a81548173ffffffffffffffffffffffffffffffffffffffff021916908373ffffffffffffffffffffffffffffffffffffffff1602179055505062000204565b600033905090565b60008060009054906101000a900473ffffffffffffffffffffffffffffffffffffffff169050816000806101000a81548173ffffffffffffffffffffffffffffffffffffffff021916908373ffffffffffffffffffffffffffffffffffffffff1602179055508173ffffffffffffffffffffffffffffffffffffffff168173ffffffffffffffffffffffffffffffffffffffff167f8be0079c531659141344cd1fd0a4f28419497f9722a3daafe3b4186f6b6457e060405160405180910390a35050565b6000815190506200018481620001ea565b92915050565b6000602082840312156200019d57600080fd5b6000620001ad8482850162000173565b91505092915050565b6000620001c382620001ca565b9050919050565b600073ffffffffffffffffffffffffffffffffffffffff82169050919050565b620001f581620001b6565b81146200020157600080fd5b50565b61251980620002146000396000f3fe608060405234801561001057600080fd5b50600436106100ea5760003560e01c806391d148541161008c578063c0ca946111610066578063c0ca94611461024b578063c1e7673f14610267578063d547741f14610297578063f2fde38b146102b3576100ea565b806391d14854146101cd578063a217fddf146101fd578063b5368e201461021b576100ea565b80632f2ff15d116100c85780632f2ff15d1461016d57806336568abe14610189578063715018a6146101a55780638da5cb5b146101af576100ea565b806301ffc9a7146100ef5780630f0c441c1461011f578063248a9ca31461013d575b600080fd5b61010960048036038101906101049190611876565b6102cf565b6040516101169190611e15565b60405180910390f35b610127610349565b6040516101349190611df3565b60405180910390f35b61015760048036038101906101529190611811565b6103d7565b6040516101649190611e30565b60405180910390f35b6101876004803603810190610182919061183a565b6103f7565b005b6101a3600480360381019061019e919061183a565b610418565b005b6101ad61049b565b005b6101b7610523565b6040516101c49190611dd8565b60405180910390f35b6101e760048036038101906101e2919061183a565b61054c565b6040516101f49190611e15565b60405180910390f35b6102056105b7565b6040516102129190611e30565b60405180910390f35b610235600480360381019061023091906117e8565b6105be565b6040516102429190611fc1565b60405180910390f35b6102656004803603810190610260919061189f565b610b08565b005b610281600480360381019061027c9190611a25565b610e25565b60405161028e9190611dd8565b60405180910390f35b6102b160048036038101906102ac919061183a565b610e64565b005b6102cd60048036038101906102c891906117e8565b610e85565b005b60007f7965db0b000000000000000000000000000000000000000000000000000000007bffffffffffffffffffffffffffffffffffffffffffffffffffffffff1916827bffffffffffffffffffffffffffffffffffffffffffffffffffffffff19161480610342575061034182610f7d565b5b9050919050565b606060058054806020026020016040519081016040528092919081815260200182805480156103cd57602002820191906000526020600020905b8160009054906101000a900473ffffffffffffffffffffffffffffffffffffffff1673ffffffffffffffffffffffffffffffffffffffff1681526020019060010190808311610383575b5050505050905090565b600060016000838152602001908152602001600020600101549050919050565b610400826103d7565b61040981610fe7565b6104138383610ffb565b505050565b6104206110db565b73ffffffffffffffffffffffffffffffffffffffff168173ffffffffffffffffffffffffffffffffffffffff161461048d576040517f08c379a000000000000000000000000000000000000000000000000000000000815260040161048490611fa1565b60405180910390fd5b61049782826110e3565b5050565b6104a36110db565b73ffffffffffffffffffffffffffffffffffffffff166104c1610523565b73ffffffffffffffffffffffffffffffffffffffff1614610517576040517f08c379a000000000000000000000000000000000000000000000000000000000815260040161050e90611f81565b60405180910390fd5b61052160006111c5565b565b60008060009054906101000a900473ffffffffffffffffffffffffffffffffffffffff16905090565b60006001600084815260200190815260200160002060000160008373ffffffffffffffffffffffffffffffffffffffff1673ffffffffffffffffffffffffffffffffffffffff16815260200190815260200160002060009054906101000a900460ff16905092915050565b6000801b81565b6105c6611620565b600460008373ffffffffffffffffffffffffffffffffffffffff1673ffffffffffffffffffffffffffffffffffffffff1681526020019081526020016000206040518061014001604052908160008201805461062190612244565b80601f016020809104026020016040519081016040528092919081815260200182805461064d90612244565b801561069a5780601f1061066f5761010080835404028352916020019161069a565b820191906000526020600020905b81548152906001019060200180831161067d57829003601f168201915b505050505081526020016001820180546106b390612244565b80601f01602080910402602001604051908101604052809291908181526020018280546106df90612244565b801561072c5780601f106107015761010080835404028352916020019161072c565b820191906000526020600020905b81548152906001019060200180831161070f57829003601f168201915b5050505050815260200160028201805461074590612244565b80601f016020809104026020016040519081016040528092919081815260200182805461077190612244565b80156107be5780601f10610793576101008083540402835291602001916107be565b820191906000526020600020905b8154815290600101906020018083116107a157829003601f168201915b505050505081526020016003820180546107d790612244565b80601f016020809104026020016040519081016040528092919081815260200182805461080390612244565b80156108505780601f1061082557610100808354040283529160200191610850565b820191906000526020600020905b81548152906001019060200180831161083357829003601f168201915b5050505050815260200160048201805461086990612244565b80601f016020809104026020016040519081016040528092919081815260200182805461089590612244565b80156108e25780601f106108b7576101008083540402835291602001916108e2565b820191906000526020600020905b8154815290600101906020018083116108c557829003601f168201915b505050505081526020016005820180546108fb90612244565b80601f016020809104026020016040519081016040528092919081815260200182805461092790612244565b80156109745780601f1061094957610100808354040283529160200191610974565b820191906000526020600020905b81548152906001019060200180831161095757829003601f168201915b505050505081526020016006820160009054906101000a900473ffffffffffffffffffffffffffffffffffffffff1673ffffffffffffffffffffffffffffffffffffffff1673ffffffffffffffffffffffffffffffffffffffff1681526020016007820180546109e390612244565b80601f0160208091040260200160405190810160405280929190818152602001828054610a0f90612244565b8015610a5c5780601f10610a3157610100808354040283529160200191610a5c565b820191906000526020600020905b815481529060010190602001808311610a3f57829003601f168201915b5050505050815260200160088201548152602001600982018054610a7f90612244565b80601f0160208091040260200160405190810160405280929190818152602001828054610aab90612244565b8015610af85780601f10610acd57610100808354040283529160200191610af8565b820191906000526020600020905b815481529060010190602001808311610adb57829003601f168201915b5050505050815250509050919050565b6040518061014001604052808a81526020018981526020018581526020018681526020018881526020018781526020013373ffffffffffffffffffffffffffffffffffffffff16815260200184815260200183815260200182815250600460003373ffffffffffffffffffffffffffffffffffffffff1673ffffffffffffffffffffffffffffffffffffffff1681526020019081526020016000206000820151816000019080519060200190610bbf929190611689565b506020820151816001019080519060200190610bdc929190611689565b506040820151816002019080519060200190610bf9929190611689565b506060820151816003019080519060200190610c16929190611689565b506080820151816004019080519060200190610c33929190611689565b5060a0820151816005019080519060200190610c50929190611689565b5060c08201518160060160006101000a81548173ffffffffffffffffffffffffffffffffffffffff021916908373ffffffffffffffffffffffffffffffffffffffff16021790555060e0820151816007019080519060200190610cb4929190611689565b506101008201518160080155610120820151816009019080519060200190610cdd929190611689565b509050506005339080600181540180825580915050600190039060005260206000200160009091909190916101000a81548173ffffffffffffffffffffffffffffffffffffffff021916908373ffffffffffffffffffffffffffffffffffffffff160217905550600360009054906101000a900473ffffffffffffffffffffffffffffffffffffffff1673ffffffffffffffffffffffffffffffffffffffff16636d263ceb326040518263ffffffff1660e01b8152600401610d9f9190611dd8565b600060405180830381600087803b158015610db957600080fd5b505af1158015610dcd573d6000803e3d6000fd5b505050507f97c8ee661eec8c93258c4953c2322d519b4e429deb2d33fbb16f71c6f2da7b1d898986888b8b338a8a8a604051610e129a99989796959493929190611e6d565b60405180910390a1505050505050505050565b60058181548110610e3557600080fd5b906000526020600020016000915054906101000a900473ffffffffffffffffffffffffffffffffffffffff1681565b610e6d826103d7565b610e7681610fe7565b610e8083836110e3565b505050565b610e8d6110db565b73ffffffffffffffffffffffffffffffffffffffff16610eab610523565b73ffffffffffffffffffffffffffffffffffffffff1614610f01576040517f08c379a0000000000000000000000000000000000000000000000000000000008152600401610ef890611f81565b60405180910390fd5b600073ffffffffffffffffffffffffffffffffffffffff168173ffffffffffffffffffffffffffffffffffffffff161415610f71576040517f08c379a0000000000000000000000000000000000000000000000000000000008152600401610f6890611f61565b60405180910390fd5b610f7a816111c5565b50565b60007f01ffc9a7000000000000000000000000000000000000000000000000000000007bffffffffffffffffffffffffffffffffffffffffffffffffffffffff1916827bffffffffffffffffffffffffffffffffffffffffffffffffffffffff1916149050919050565b610ff881610ff36110db565b611289565b50565b611005828261054c565b6110d757600180600084815260200190815260200160002060000160008373ffffffffffffffffffffffffffffffffffffffff1673ffffffffffffffffffffffffffffffffffffffff16815260200190815260200160002060006101000a81548160ff02191690831515021790555061107c6110db565b73ffffffffffffffffffffffffffffffffffffffff168173ffffffffffffffffffffffffffffffffffffffff16837f2f8788117e7eff1d82e926ec794901d17c78024a50270940304540a733656f0d60405160405180910390a45b5050565b600033905090565b6110ed828261054c565b156111c15760006001600084815260200190815260200160002060000160008373ffffffffffffffffffffffffffffffffffffffff1673ffffffffffffffffffffffffffffffffffffffff16815260200190815260200160002060006101000a81548160ff0219169083151502179055506111666110db565b73ffffffffffffffffffffffffffffffffffffffff168173ffffffffffffffffffffffffffffffffffffffff16837ff6391f5c32d9c69d2a47ea670b442974b53935d1edc7fd64eb21e047a839171b60405160405180910390a45b5050565b60008060009054906101000a900473ffffffffffffffffffffffffffffffffffffffff169050816000806101000a81548173ffffffffffffffffffffffffffffffffffffffff021916908373ffffffffffffffffffffffffffffffffffffffff1602179055508173ffffffffffffffffffffffffffffffffffffffff168173ffffffffffffffffffffffffffffffffffffffff167f8be0079c531659141344cd1fd0a4f28419497f9722a3daafe3b4186f6b6457e060405160405180910390a35050565b611293828261054c565b611322576112b88173ffffffffffffffffffffffffffffffffffffffff166014611326565b6112c68360001c6020611326565b6040516020016112d7929190611d9e565b6040516020818303038152906040526040517f08c379a00000000000000000000000000000000000000000000000000000000081526004016113199190611e4b565b60405180910390fd5b5050565b6060600060028360026113399190612100565b61134391906120aa565b67ffffffffffffffff811115611382577f4e487b7100000000000000000000000000000000000000000000000000000000600052604160045260246000fd5b6040519080825280601f01601f1916602001820160405280156113b45781602001600182028036833780820191505090505b5090507f300000000000000000000000000000000000000000000000000000000000000081600081518110611412577f4e487b7100000000000000000000000000000000000000000000000000000000600052603260045260246000fd5b60200101907effffffffffffffffffffffffffffffffffffffffffffffffffffffffffffff1916908160001a9053507f78000000000000000000000000000000000000000000000000000000000000008160018151811061149c577f4e487b7100000000000000000000000000000000000000000000000000000000600052603260045260246000fd5b60200101907effffffffffffffffffffffffffffffffffffffffffffffffffffffffffffff1916908160001a905350600060018460026114dc9190612100565b6114e691906120aa565b90505b60018111156115d2577f3031323334353637383961626364656600000000000000000000000000000000600f86166010811061154e577f4e487b7100000000000000000000000000000000000000000000000000000000600052603260045260246000fd5b1a60f81b82828151811061158b577f4e487b7100000000000000000000000000000000000000000000000000000000600052603260045260246000fd5b60200101907effffffffffffffffffffffffffffffffffffffffffffffffffffffffffffff1916908160001a905350600485901c9450806115cb9061221a565b90506114e9565b5060008414611616576040517f08c379a000000000000000000000000000000000000000000000000000000000815260040161160d90611f41565b60405180910390fd5b8091505092915050565b604051806101400160405280606081526020016060815260200160608152602001606081526020016060815260200160608152602001600073ffffffffffffffffffffffffffffffffffffffff1681526020016060815260200160008152602001606081525090565b82805461169590612244565b90600052602060002090601f0160209004810192826116b757600085556116fe565b82601f106116d057805160ff19168380011785556116fe565b828001600101855582156116fe579182015b828111156116fd5782518255916020019190600101906116e2565b5b50905061170b919061170f565b5090565b5b80821115611728576000816000905550600101611710565b5090565b600061173f61173a84612008565b611fe3565b90508281526020810184848401111561175757600080fd5b6117628482856121d8565b509392505050565b60008135905061177981612487565b92915050565b60008135905061178e8161249e565b92915050565b6000813590506117a3816124b5565b92915050565b600082601f8301126117ba57600080fd5b81356117ca84826020860161172c565b91505092915050565b6000813590506117e2816124cc565b92915050565b6000602082840312156117fa57600080fd5b60006118088482850161176a565b91505092915050565b60006020828403121561182357600080fd5b60006118318482850161177f565b91505092915050565b6000806040838503121561184d57600080fd5b600061185b8582860161177f565b925050602061186c8582860161176a565b9150509250929050565b60006020828403121561188857600080fd5b600061189684828501611794565b91505092915050565b60008060008060008060008060006101208a8c0312156118be57600080fd5b60008a013567ffffffffffffffff8111156118d857600080fd5b6118e48c828d016117a9565b99505060208a013567ffffffffffffffff81111561190157600080fd5b61190d8c828d016117a9565b98505060408a013567ffffffffffffffff81111561192a57600080fd5b6119368c828d016117a9565b97505060608a013567ffffffffffffffff81111561195357600080fd5b61195f8c828d016117a9565b96505060808a013567ffffffffffffffff81111561197c57600080fd5b6119888c828d016117a9565b95505060a08a013567ffffffffffffffff8111156119a557600080fd5b6119b18c828d016117a9565b94505060c08a013567ffffffffffffffff8111156119ce57600080fd5b6119da8c828d016117a9565b93505060e06119eb8c828d016117d3565b9250506101008a013567ffffffffffffffff811115611a0957600080fd5b611a158c828d016117a9565b9150509295985092959850929598565b600060208284031215611a3757600080fd5b6000611a45848285016117d3565b91505092915050565b6000611a5a8383611a66565b60208301905092915050565b611a6f8161215a565b82525050565b611a7e8161215a565b82525050565b6000611a8f82612049565b611a99818561206c565b9350611aa483612039565b8060005b83811015611ad5578151611abc8882611a4e565b9750611ac78361205f565b925050600181019050611aa8565b5085935050505092915050565b611aeb8161216c565b82525050565b611afa81612178565b82525050565b6000611b0b82612054565b611b15818561207d565b9350611b258185602086016121e7565b611b2e81612334565b840191505092915050565b6000611b4482612054565b611b4e818561208e565b9350611b5e8185602086016121e7565b611b6781612334565b840191505092915050565b6000611b7d82612054565b611b87818561209f565b9350611b978185602086016121e7565b80840191505092915050565b6000611bb060208361208e565b9150611bbb82612345565b602082019050919050565b6000611bd360268361208e565b9150611bde8261236e565b604082019050919050565b6000611bf660208361208e565b9150611c01826123bd565b602082019050919050565b6000611c1960178361209f565b9150611c24826123e6565b601782019050919050565b6000611c3c60118361209f565b9150611c478261240f565b601182019050919050565b6000611c5f602f8361208e565b9150611c6a82612438565b604082019050919050565b6000610140830160008301518482036000860152611c938282611b00565b91505060208301518482036020860152611cad8282611b00565b91505060408301518482036040860152611cc78282611b00565b91505060608301518482036060860152611ce18282611b00565b91505060808301518482036080860152611cfb8282611b00565b91505060a083015184820360a0860152611d158282611b00565b91505060c0830151611d2a60c0860182611a66565b5060e083015184820360e0860152611d428282611b00565b915050610100830151611d59610100860182611d80565b50610120830151848203610120860152611d738282611b00565b9150508091505092915050565b611d89816121ce565b82525050565b611d98816121ce565b82525050565b6000611da982611c0c565b9150611db58285611b72565b9150611dc082611c2f565b9150611dcc8284611b72565b91508190509392505050565b6000602082019050611ded6000830184611a75565b92915050565b60006020820190508181036000830152611e0d8184611a84565b905092915050565b6000602082019050611e2a6000830184611ae2565b92915050565b6000602082019050611e456000830184611af1565b92915050565b60006020820190508181036000830152611e658184611b39565b905092915050565b6000610140820190508181036000830152611e88818d611b39565b90508181036020830152611e9c818c611b39565b90508181036040830152611eb0818b611b39565b90508181036060830152611ec4818a611b39565b90508181036080830152611ed88189611b39565b905081810360a0830152611eec8188611b39565b9050611efb60c0830187611a75565b81810360e0830152611f0d8186611b39565b9050611f1d610100830185611d8f565b818103610120830152611f308184611b39565b90509b9a5050505050505050505050565b60006020820190508181036000830152611f5a81611ba3565b9050919050565b60006020820190508181036000830152611f7a81611bc6565b9050919050565b60006020820190508181036000830152611f9a81611be9565b9050919050565b60006020820190508181036000830152611fba81611c52565b9050919050565b60006020820190508181036000830152611fdb8184611c75565b905092915050565b6000611fed611ffe565b9050611ff98282612276565b919050565b6000604051905090565b600067ffffffffffffffff82111561202357612022612305565b5b61202c82612334565b9050602081019050919050565b6000819050602082019050919050565b600081519050919050565b600081519050919050565b6000602082019050919050565b600082825260208201905092915050565b600082825260208201905092915050565b600082825260208201905092915050565b600081905092915050565b60006120b5826121ce565b91506120c0836121ce565b9250827fffffffffffffffffffffffffffffffffffffffffffffffffffffffffffffffff038211156120f5576120f46122a7565b5b828201905092915050565b600061210b826121ce565b9150612116836121ce565b9250817fffffffffffffffffffffffffffffffffffffffffffffffffffffffffffffffff048311821515161561214f5761214e6122a7565b5b828202905092915050565b6000612165826121ae565b9050919050565b60008115159050919050565b6000819050919050565b60007fffffffff0000000000000000000000000000000000000000000000000000000082169050919050565b600073ffffffffffffffffffffffffffffffffffffffff82169050919050565b6000819050919050565b82818337600083830152505050565b60005b838110156122055780820151818401526020810190506121ea565b83811115612214576000848401525b50505050565b6000612225826121ce565b91506000821415612239576122386122a7565b5b600182039050919050565b6000600282049050600182168061225c57607f821691505b602082108114156122705761226f6122d6565b5b50919050565b61227f82612334565b810181811067ffffffffffffffff8211171561229e5761229d612305565b5b80604052505050565b7f4e487b7100000000000000000000000000000000000000000000000000000000600052601160045260246000fd5b7f4e487b7100000000000000000000000000000000000000000000000000000000600052602260045260246000fd5b7f4e487b7100000000000000000000000000000000000000000000000000000000600052604160045260246000fd5b6000601f19601f8301169050919050565b7f537472696e67733a20686578206c656e67746820696e73756666696369656e74600082015250565b7f4f776e61626c653a206e6577206f776e657220697320746865207a65726f206160008201527f6464726573730000000000000000000000000000000000000000000000000000602082015250565b7f4f776e61626c653a2063616c6c6572206973206e6f7420746865206f776e6572600082015250565b7f416363657373436f6e74726f6c3a206163636f756e7420000000000000000000600082015250565b7f206973206d697373696e6720726f6c6520000000000000000000000000000000600082015250565b7f416363657373436f6e74726f6c3a2063616e206f6e6c792072656e6f756e636560008201527f20726f6c657320666f722073656c660000000000000000000000000000000000602082015250565b6124908161215a565b811461249b57600080fd5b50565b6124a781612178565b81146124b257600080fd5b50565b6124be81612182565b81146124c957600080fd5b50565b6124d5816121ce565b81146124e057600080fd5b5056fea26469706673582212206097d7197d6b9f74b18e80f4d88535805a0e4fbf1cfaf8b54e98717ae02d6d2364736f6c63430008040033",
  "immutableReferences": {},
  "source": "pragma solidity 0.8.4;\r\n\r\nimport \"@openzeppelin/contracts/access/Ownable.sol\";\r\nimport \"@openzeppelin/contracts/access/AccessControl.sol\";\r\nimport \"./Registration.sol\";\r\nimport \"@openzeppelin/contracts/token/ERC721/IERC721.sol\";\r\nimport \"@openzeppelin/contracts/security/ReentrancyGuard.sol\";\r\n\r\n\r\ncontract Patients is Ownable, AccessControl, ReentrancyGuard {\r\n\r\n    Registration _registration;\r\n\r\n    constructor(address registrationA) public {\r\n        _registration = Registration(registrationA);\r\n    }\r\n\r\n    struct Patient {\r\n        string firstName;\r\n        string lastName;\r\n        string country;\r\n        string city;\r\n        string gender;\r\n        string _addressLocation;\r\n        address _address;\r\n        string CNP;\r\n        uint birthDate;\r\n        string _hash;\r\n    }\r\n\r\n    event AddPatient(\r\n      string firstName,\r\n      string lastName,\r\n      string country,\r\n      string city,\r\n      string gender,\r\n      string _addressLocation,\r\n      address _address,\r\n      string CNP,\r\n      uint birthDate,\r\n      string _hash\r\n  );\r\n\r\n    mapping(address => Patient) patients;\r\n    address[] public patientAccounts;\r\n\r\n    function registerPatient(string memory fname, string memory lname, string memory gender, string memory addressLocation,\r\n        string memory city, string memory country, string memory cnp, uint birthDate, string memory _hash) public{\r\n        \r\n        patients[msg.sender] = Patient(fname, lname, country, city, gender, addressLocation, msg.sender, cnp, birthDate, _hash);\r\n        patientAccounts.push(msg.sender);\r\n\r\n        _registration.addPatient(tx.origin);\r\n\r\n        emit AddPatient(fname, lname, country, city, gender, addressLocation, msg.sender, cnp, birthDate, _hash);\r\n\r\n    } \r\n\r\n    function getPatient(address _address) view public returns(Patient memory){\r\n        return patients[_address];\r\n    }\r\n\r\n    function getPatientsAccount() view public returns(address[] memory){\r\n        return patientAccounts;\r\n    }\r\n}",
  "sourcePath": "C:/Licenta/Licenta/src/contracts/Patients.sol",
  "compiler": {
    "name": "solc",
    "version": "0.8.4+commit.c7e474f2.Emscripten.clang"
  },
  "schemaVersion": "3.2.3",
  "updatedAt": "2022-07-06T20:00:40.699Z",
  "networkType": "ethereum",
  "devdoc": {
    "kind": "dev",
    "methods": {
      "getRoleAdmin(bytes32)": {
        "details": "Returns the admin role that controls `role`. See {grantRole} and {revokeRole}. To change a role's admin, use {_setRoleAdmin}."
      },
      "grantRole(bytes32,address)": {
        "details": "Grants `role` to `account`. If `account` had not been already granted `role`, emits a {RoleGranted} event. Requirements: - the caller must have ``role``'s admin role."
      },
      "hasRole(bytes32,address)": {
        "details": "Returns `true` if `account` has been granted `role`."
      },
      "owner()": {
        "details": "Returns the address of the current owner."
      },
      "renounceOwnership()": {
        "details": "Leaves the contract without owner. It will not be possible to call `onlyOwner` functions anymore. Can only be called by the current owner. NOTE: Renouncing ownership will leave the contract without an owner, thereby removing any functionality that is only available to the owner."
      },
      "renounceRole(bytes32,address)": {
        "details": "Revokes `role` from the calling account. Roles are often managed via {grantRole} and {revokeRole}: this function's purpose is to provide a mechanism for accounts to lose their privileges if they are compromised (such as when a trusted device is misplaced). If the calling account had been revoked `role`, emits a {RoleRevoked} event. Requirements: - the caller must be `account`."
      },
      "revokeRole(bytes32,address)": {
        "details": "Revokes `role` from `account`. If `account` had been granted `role`, emits a {RoleRevoked} event. Requirements: - the caller must have ``role``'s admin role."
      },
      "supportsInterface(bytes4)": {
        "details": "See {IERC165-supportsInterface}."
      },
      "transferOwnership(address)": {
        "details": "Transfers ownership of the contract to a new account (`newOwner`). Can only be called by the current owner."
      }
    },
    "version": 1
  },
  "userdoc": {
    "kind": "user",
    "methods": {},
    "version": 1
  }
}