{
  "contractName": "Patients",
  "abi": [
    {
      "inputs": [
        {
          "internalType": "address",
          "name": "registrationA",
          "type": "address"
        }
      ],
      "stateMutability": "nonpayable",
      "type": "constructor"
    },
    {
      "anonymous": false,
      "inputs": [
        {
          "indexed": false,
          "internalType": "string",
          "name": "firstName",
          "type": "string"
        },
        {
          "indexed": false,
          "internalType": "string",
          "name": "lastName",
          "type": "string"
        },
        {
          "indexed": false,
          "internalType": "string",
          "name": "country",
          "type": "string"
        },
        {
          "indexed": false,
          "internalType": "string",
          "name": "city",
          "type": "string"
        },
        {
          "indexed": false,
          "internalType": "string",
          "name": "gender",
          "type": "string"
        },
        {
          "indexed": false,
          "internalType": "string",
          "name": "_addressLocation",
          "type": "string"
        },
        {
          "indexed": false,
          "internalType": "address",
          "name": "_address",
          "type": "address"
        },
        {
          "indexed": false,
          "internalType": "string",
          "name": "CNP",
          "type": "string"
        },
        {
          "indexed": false,
          "internalType": "uint256",
          "name": "birthDate",
          "type": "uint256"
        },
        {
          "indexed": false,
          "internalType": "string",
          "name": "_hash",
          "type": "string"
        }
      ],
      "name": "AddPatient",
      "type": "event"
    },
    {
      "anonymous": false,
      "inputs": [
        {
          "indexed": true,
          "internalType": "address",
          "name": "previousOwner",
          "type": "address"
        },
        {
          "indexed": true,
          "internalType": "address",
          "name": "newOwner",
          "type": "address"
        }
      ],
      "name": "OwnershipTransferred",
      "type": "event"
    },
    {
      "anonymous": false,
      "inputs": [
        {
          "indexed": true,
          "internalType": "bytes32",
          "name": "role",
          "type": "bytes32"
        },
        {
          "indexed": true,
          "internalType": "bytes32",
          "name": "previousAdminRole",
          "type": "bytes32"
        },
        {
          "indexed": true,
          "internalType": "bytes32",
          "name": "newAdminRole",
          "type": "bytes32"
        }
      ],
      "name": "RoleAdminChanged",
      "type": "event"
    },
    {
      "anonymous": false,
      "inputs": [
        {
          "indexed": true,
          "internalType": "bytes32",
          "name": "role",
          "type": "bytes32"
        },
        {
          "indexed": true,
          "internalType": "address",
          "name": "account",
          "type": "address"
        },
        {
          "indexed": true,
          "internalType": "address",
          "name": "sender",
          "type": "address"
        }
      ],
      "name": "RoleGranted",
      "type": "event"
    },
    {
      "anonymous": false,
      "inputs": [
        {
          "indexed": true,
          "internalType": "bytes32",
          "name": "role",
          "type": "bytes32"
        },
        {
          "indexed": true,
          "internalType": "address",
          "name": "account",
          "type": "address"
        },
        {
          "indexed": true,
          "internalType": "address",
          "name": "sender",
          "type": "address"
        }
      ],
      "name": "RoleRevoked",
      "type": "event"
    },
    {
      "inputs": [],
      "name": "DEFAULT_ADMIN_ROLE",
      "outputs": [
        {
          "internalType": "bytes32",
          "name": "",
          "type": "bytes32"
        }
      ],
      "stateMutability": "view",
      "type": "function",
      "constant": true
    },
    {
      "inputs": [
        {
          "internalType": "bytes32",
          "name": "role",
          "type": "bytes32"
        }
      ],
      "name": "getRoleAdmin",
      "outputs": [
        {
          "internalType": "bytes32",
          "name": "",
          "type": "bytes32"
        }
      ],
      "stateMutability": "view",
      "type": "function",
      "constant": true
    },
    {
      "inputs": [
        {
          "internalType": "bytes32",
          "name": "role",
          "type": "bytes32"
        },
        {
          "internalType": "address",
          "name": "account",
          "type": "address"
        }
      ],
      "name": "grantRole",
      "outputs": [],
      "stateMutability": "nonpayable",
      "type": "function"
    },
    {
      "inputs": [
        {
          "internalType": "bytes32",
          "name": "role",
          "type": "bytes32"
        },
        {
          "internalType": "address",
          "name": "account",
          "type": "address"
        }
      ],
      "name": "hasRole",
      "outputs": [
        {
          "internalType": "bool",
          "name": "",
          "type": "bool"
        }
      ],
      "stateMutability": "view",
      "type": "function",
      "constant": true
    },
    {
      "inputs": [],
      "name": "owner",
      "outputs": [
        {
          "internalType": "address",
          "name": "",
          "type": "address"
        }
      ],
      "stateMutability": "view",
      "type": "function",
      "constant": true
    },
    {
      "inputs": [
        {
          "internalType": "uint256",
          "name": "",
          "type": "uint256"
        }
      ],
      "name": "patientAccounts",
      "outputs": [
        {
          "internalType": "address",
          "name": "",
          "type": "address"
        }
      ],
      "stateMutability": "view",
      "type": "function",
      "constant": true
    },
    {
      "inputs": [],
      "name": "renounceOwnership",
      "outputs": [],
      "stateMutability": "nonpayable",
      "type": "function"
    },
    {
      "inputs": [
        {
          "internalType": "bytes32",
          "name": "role",
          "type": "bytes32"
        },
        {
          "internalType": "address",
          "name": "account",
          "type": "address"
        }
      ],
      "name": "renounceRole",
      "outputs": [],
      "stateMutability": "nonpayable",
      "type": "function"
    },
    {
      "inputs": [
        {
          "internalType": "bytes32",
          "name": "role",
          "type": "bytes32"
        },
        {
          "internalType": "address",
          "name": "account",
          "type": "address"
        }
      ],
      "name": "revokeRole",
      "outputs": [],
      "stateMutability": "nonpayable",
      "type": "function"
    },
    {
      "inputs": [
        {
          "internalType": "bytes4",
          "name": "interfaceId",
          "type": "bytes4"
        }
      ],
      "name": "supportsInterface",
      "outputs": [
        {
          "internalType": "bool",
          "name": "",
          "type": "bool"
        }
      ],
      "stateMutability": "view",
      "type": "function",
      "constant": true
    },
    {
      "inputs": [
        {
          "internalType": "address",
          "name": "newOwner",
          "type": "address"
        }
      ],
      "name": "transferOwnership",
      "outputs": [],
      "stateMutability": "nonpayable",
      "type": "function"
    },
    {
      "inputs": [
        {
          "internalType": "string",
          "name": "fname",
          "type": "string"
        },
        {
          "internalType": "string",
          "name": "lname",
          "type": "string"
        },
        {
          "internalType": "string",
          "name": "gender",
          "type": "string"
        },
        {
          "internalType": "string",
          "name": "addressLocation",
          "type": "string"
        },
        {
          "internalType": "string",
          "name": "city",
          "type": "string"
        },
        {
          "internalType": "string",
          "name": "country",
          "type": "string"
        },
        {
          "internalType": "string",
          "name": "cnp",
          "type": "string"
        },
        {
          "internalType": "uint256",
          "name": "birthDate",
          "type": "uint256"
        },
        {
          "internalType": "string",
          "name": "_hash",
          "type": "string"
        }
      ],
      "name": "registerPatient",
      "outputs": [],
      "stateMutability": "nonpayable",
      "type": "function"
    },
    {
      "inputs": [
        {
          "internalType": "address",
          "name": "_address",
          "type": "address"
        }
      ],
      "name": "getPatient",
      "outputs": [
        {
          "components": [
            {
              "internalType": "string",
              "name": "firstName",
              "type": "string"
            },
            {
              "internalType": "string",
              "name": "lastName",
              "type": "string"
            },
            {
              "internalType": "string",
              "name": "country",
              "type": "string"
            },
            {
              "internalType": "string",
              "name": "city",
              "type": "string"
            },
            {
              "internalType": "string",
              "name": "gender",
              "type": "string"
            },
            {
              "internalType": "string",
              "name": "_addressLocation",
              "type": "string"
            },
            {
              "internalType": "address",
              "name": "_address",
              "type": "address"
            },
            {
              "internalType": "string",
              "name": "CNP",
              "type": "string"
            },
            {
              "internalType": "uint256",
              "name": "birthDate",
              "type": "uint256"
            },
            {
              "internalType": "string",
              "name": "_hash",
              "type": "string"
            }
          ],
          "internalType": "struct Patients.Patient",
          "name": "",
          "type": "tuple"
        }
      ],
      "stateMutability": "view",
      "type": "function",
      "constant": true
    },
    {
      "inputs": [],
      "name": "getPatientsAccount",
      "outputs": [
        {
          "internalType": "address[]",
          "name": "",
          "type": "address[]"
        }
      ],
      "stateMutability": "view",
      "type": "function",
      "constant": true
    }
  ],
  "bytecode": "0x60806040523480156200001157600080fd5b50604051620027293803806200272983398181016040528101906200003791906200018a565b620000576200004b620000a760201b60201c565b620000af60201b60201c565b600160028190555080600360006101000a81548173ffffffffffffffffffffffffffffffffffffffff021916908373ffffffffffffffffffffffffffffffffffffffff1602179055505062000204565b600033905090565b60008060009054906101000a900473ffffffffffffffffffffffffffffffffffffffff169050816000806101000a81548173ffffffffffffffffffffffffffffffffffffffff021916908373ffffffffffffffffffffffffffffffffffffffff1602179055508173ffffffffffffffffffffffffffffffffffffffff168173ffffffffffffffffffffffffffffffffffffffff167f8be0079c531659141344cd1fd0a4f28419497f9722a3daafe3b4186f6b6457e060405160405180910390a35050565b6000815190506200018481620001ea565b92915050565b6000602082840312156200019d57600080fd5b6000620001ad8482850162000173565b91505092915050565b6000620001c382620001ca565b9050919050565b600073ffffffffffffffffffffffffffffffffffffffff82169050919050565b620001f581620001b6565b81146200020157600080fd5b50565b61251580620002146000396000f3fe608060405234801561001057600080fd5b50600436106100ea5760003560e01c806391d148541161008c578063c0ca946111610066578063c0ca94611461024b578063c1e7673f14610267578063d547741f14610297578063f2fde38b146102b3576100ea565b806391d14854146101cd578063a217fddf146101fd578063b5368e201461021b576100ea565b80632f2ff15d116100c85780632f2ff15d1461016d57806336568abe14610189578063715018a6146101a55780638da5cb5b146101af576100ea565b806301ffc9a7146100ef5780630f0c441c1461011f578063248a9ca31461013d575b600080fd5b61010960048036038101906101049190611872565b6102cf565b6040516101169190611e11565b60405180910390f35b610127610349565b6040516101349190611def565b60405180910390f35b6101576004803603810190610152919061180d565b6103d7565b6040516101649190611e2c565b60405180910390f35b61018760048036038101906101829190611836565b6103f7565b005b6101a3600480360381019061019e9190611836565b610420565b005b6101ad6104a3565b005b6101b761052b565b6040516101c49190611dd4565b60405180910390f35b6101e760048036038101906101e29190611836565b610554565b6040516101f49190611e11565b60405180910390f35b6102056105bf565b6040516102129190611e2c565b60405180910390f35b610235600480360381019061023091906117e4565b6105c6565b6040516102429190611fbd565b60405180910390f35b6102656004803603810190610260919061189b565b610b10565b005b610281600480360381019061027c9190611a21565b610e2d565b60405161028e9190611dd4565b60405180910390f35b6102b160048036038101906102ac9190611836565b610e6c565b005b6102cd60048036038101906102c891906117e4565b610e95565b005b60007f7965db0b000000000000000000000000000000000000000000000000000000007bffffffffffffffffffffffffffffffffffffffffffffffffffffffff1916827bffffffffffffffffffffffffffffffffffffffffffffffffffffffff19161480610342575061034182610f8d565b5b9050919050565b606060058054806020026020016040519081016040528092919081815260200182805480156103cd57602002820191906000526020600020905b8160009054906101000a900473ffffffffffffffffffffffffffffffffffffffff1673ffffffffffffffffffffffffffffffffffffffff1681526020019060010190808311610383575b5050505050905090565b600060016000838152602001908152602001600020600101549050919050565b610400826103d7565b6104118161040c610ff7565b610fff565b61041b838361109c565b505050565b610428610ff7565b73ffffffffffffffffffffffffffffffffffffffff168173ffffffffffffffffffffffffffffffffffffffff1614610495576040517f08c379a000000000000000000000000000000000000000000000000000000000815260040161048c90611f9d565b60405180910390fd5b61049f828261117c565b5050565b6104ab610ff7565b73ffffffffffffffffffffffffffffffffffffffff166104c961052b565b73ffffffffffffffffffffffffffffffffffffffff161461051f576040517f08c379a000000000000000000000000000000000000000000000000000000000815260040161051690611f7d565b60405180910390fd5b610529600061125e565b565b60008060009054906101000a900473ffffffffffffffffffffffffffffffffffffffff16905090565b60006001600084815260200190815260200160002060000160008373ffffffffffffffffffffffffffffffffffffffff1673ffffffffffffffffffffffffffffffffffffffff16815260200190815260200160002060009054906101000a900460ff16905092915050565b6000801b81565b6105ce61161c565b600460008373ffffffffffffffffffffffffffffffffffffffff1673ffffffffffffffffffffffffffffffffffffffff1681526020019081526020016000206040518061014001604052908160008201805461062990612240565b80601f016020809104026020016040519081016040528092919081815260200182805461065590612240565b80156106a25780601f10610677576101008083540402835291602001916106a2565b820191906000526020600020905b81548152906001019060200180831161068557829003601f168201915b505050505081526020016001820180546106bb90612240565b80601f01602080910402602001604051908101604052809291908181526020018280546106e790612240565b80156107345780601f1061070957610100808354040283529160200191610734565b820191906000526020600020905b81548152906001019060200180831161071757829003601f168201915b5050505050815260200160028201805461074d90612240565b80601f016020809104026020016040519081016040528092919081815260200182805461077990612240565b80156107c65780601f1061079b576101008083540402835291602001916107c6565b820191906000526020600020905b8154815290600101906020018083116107a957829003601f168201915b505050505081526020016003820180546107df90612240565b80601f016020809104026020016040519081016040528092919081815260200182805461080b90612240565b80156108585780601f1061082d57610100808354040283529160200191610858565b820191906000526020600020905b81548152906001019060200180831161083b57829003601f168201915b5050505050815260200160048201805461087190612240565b80601f016020809104026020016040519081016040528092919081815260200182805461089d90612240565b80156108ea5780601f106108bf576101008083540402835291602001916108ea565b820191906000526020600020905b8154815290600101906020018083116108cd57829003601f168201915b5050505050815260200160058201805461090390612240565b80601f016020809104026020016040519081016040528092919081815260200182805461092f90612240565b801561097c5780601f106109515761010080835404028352916020019161097c565b820191906000526020600020905b81548152906001019060200180831161095f57829003601f168201915b505050505081526020016006820160009054906101000a900473ffffffffffffffffffffffffffffffffffffffff1673ffffffffffffffffffffffffffffffffffffffff1673ffffffffffffffffffffffffffffffffffffffff1681526020016007820180546109eb90612240565b80601f0160208091040260200160405190810160405280929190818152602001828054610a1790612240565b8015610a645780601f10610a3957610100808354040283529160200191610a64565b820191906000526020600020905b815481529060010190602001808311610a4757829003601f168201915b5050505050815260200160088201548152602001600982018054610a8790612240565b80601f0160208091040260200160405190810160405280929190818152602001828054610ab390612240565b8015610b005780601f10610ad557610100808354040283529160200191610b00565b820191906000526020600020905b815481529060010190602001808311610ae357829003601f168201915b5050505050815250509050919050565b6040518061014001604052808a81526020018981526020018581526020018681526020018881526020018781526020013373ffffffffffffffffffffffffffffffffffffffff16815260200184815260200183815260200182815250600460003373ffffffffffffffffffffffffffffffffffffffff1673ffffffffffffffffffffffffffffffffffffffff1681526020019081526020016000206000820151816000019080519060200190610bc7929190611685565b506020820151816001019080519060200190610be4929190611685565b506040820151816002019080519060200190610c01929190611685565b506060820151816003019080519060200190610c1e929190611685565b506080820151816004019080519060200190610c3b929190611685565b5060a0820151816005019080519060200190610c58929190611685565b5060c08201518160060160006101000a81548173ffffffffffffffffffffffffffffffffffffffff021916908373ffffffffffffffffffffffffffffffffffffffff16021790555060e0820151816007019080519060200190610cbc929190611685565b506101008201518160080155610120820151816009019080519060200190610ce5929190611685565b509050506005339080600181540180825580915050600190039060005260206000200160009091909190916101000a81548173ffffffffffffffffffffffffffffffffffffffff021916908373ffffffffffffffffffffffffffffffffffffffff160217905550600360009054906101000a900473ffffffffffffffffffffffffffffffffffffffff1673ffffffffffffffffffffffffffffffffffffffff16636d263ceb326040518263ffffffff1660e01b8152600401610da79190611dd4565b600060405180830381600087803b158015610dc157600080fd5b505af1158015610dd5573d6000803e3d6000fd5b505050507f97c8ee661eec8c93258c4953c2322d519b4e429deb2d33fbb16f71c6f2da7b1d898986888b8b338a8a8a604051610e1a9a99989796959493929190611e69565b60405180910390a1505050505050505050565b60058181548110610e3d57600080fd5b906000526020600020016000915054906101000a900473ffffffffffffffffffffffffffffffffffffffff1681565b610e75826103d7565b610e8681610e81610ff7565b610fff565b610e90838361117c565b505050565b610e9d610ff7565b73ffffffffffffffffffffffffffffffffffffffff16610ebb61052b565b73ffffffffffffffffffffffffffffffffffffffff1614610f11576040517f08c379a0000000000000000000000000000000000000000000000000000000008152600401610f0890611f7d565b60405180910390fd5b600073ffffffffffffffffffffffffffffffffffffffff168173ffffffffffffffffffffffffffffffffffffffff161415610f81576040517f08c379a0000000000000000000000000000000000000000000000000000000008152600401610f7890611f5d565b60405180910390fd5b610f8a8161125e565b50565b60007f01ffc9a7000000000000000000000000000000000000000000000000000000007bffffffffffffffffffffffffffffffffffffffffffffffffffffffff1916827bffffffffffffffffffffffffffffffffffffffffffffffffffffffff1916149050919050565b600033905090565b6110098282610554565b6110985761102e8173ffffffffffffffffffffffffffffffffffffffff166014611322565b61103c8360001c6020611322565b60405160200161104d929190611d9a565b6040516020818303038152906040526040517f08c379a000000000000000000000000000000000000000000000000000000000815260040161108f9190611e47565b60405180910390fd5b5050565b6110a68282610554565b61117857600180600084815260200190815260200160002060000160008373ffffffffffffffffffffffffffffffffffffffff1673ffffffffffffffffffffffffffffffffffffffff16815260200190815260200160002060006101000a81548160ff02191690831515021790555061111d610ff7565b73ffffffffffffffffffffffffffffffffffffffff168173ffffffffffffffffffffffffffffffffffffffff16837f2f8788117e7eff1d82e926ec794901d17c78024a50270940304540a733656f0d60405160405180910390a45b5050565b6111868282610554565b1561125a5760006001600084815260200190815260200160002060000160008373ffffffffffffffffffffffffffffffffffffffff1673ffffffffffffffffffffffffffffffffffffffff16815260200190815260200160002060006101000a81548160ff0219169083151502179055506111ff610ff7565b73ffffffffffffffffffffffffffffffffffffffff168173ffffffffffffffffffffffffffffffffffffffff16837ff6391f5c32d9c69d2a47ea670b442974b53935d1edc7fd64eb21e047a839171b60405160405180910390a45b5050565b60008060009054906101000a900473ffffffffffffffffffffffffffffffffffffffff169050816000806101000a81548173ffffffffffffffffffffffffffffffffffffffff021916908373ffffffffffffffffffffffffffffffffffffffff1602179055508173ffffffffffffffffffffffffffffffffffffffff168173ffffffffffffffffffffffffffffffffffffffff167f8be0079c531659141344cd1fd0a4f28419497f9722a3daafe3b4186f6b6457e060405160405180910390a35050565b60606000600283600261133591906120fc565b61133f91906120a6565b67ffffffffffffffff81111561137e577f4e487b7100000000000000000000000000000000000000000000000000000000600052604160045260246000fd5b6040519080825280601f01601f1916602001820160405280156113b05781602001600182028036833780820191505090505b5090507f30000000000000000000000000000000000000000000000000000000000000008160008151811061140e577f4e487b7100000000000000000000000000000000000000000000000000000000600052603260045260246000fd5b60200101907effffffffffffffffffffffffffffffffffffffffffffffffffffffffffffff1916908160001a9053507f780000000000000000000000000000000000000000000000000000000000000081600181518110611498577f4e487b7100000000000000000000000000000000000000000000000000000000600052603260045260246000fd5b60200101907effffffffffffffffffffffffffffffffffffffffffffffffffffffffffffff1916908160001a905350600060018460026114d891906120fc565b6114e291906120a6565b90505b60018111156115ce577f3031323334353637383961626364656600000000000000000000000000000000600f86166010811061154a577f4e487b7100000000000000000000000000000000000000000000000000000000600052603260045260246000fd5b1a60f81b828281518110611587577f4e487b7100000000000000000000000000000000000000000000000000000000600052603260045260246000fd5b60200101907effffffffffffffffffffffffffffffffffffffffffffffffffffffffffffff1916908160001a905350600485901c9450806115c790612216565b90506114e5565b5060008414611612576040517f08c379a000000000000000000000000000000000000000000000000000000000815260040161160990611f3d565b60405180910390fd5b8091505092915050565b604051806101400160405280606081526020016060815260200160608152602001606081526020016060815260200160608152602001600073ffffffffffffffffffffffffffffffffffffffff1681526020016060815260200160008152602001606081525090565b82805461169190612240565b90600052602060002090601f0160209004810192826116b357600085556116fa565b82601f106116cc57805160ff19168380011785556116fa565b828001600101855582156116fa579182015b828111156116f95782518255916020019190600101906116de565b5b509050611707919061170b565b5090565b5b8082111561172457600081600090555060010161170c565b5090565b600061173b61173684612004565b611fdf565b90508281526020810184848401111561175357600080fd5b61175e8482856121d4565b509392505050565b60008135905061177581612483565b92915050565b60008135905061178a8161249a565b92915050565b60008135905061179f816124b1565b92915050565b600082601f8301126117b657600080fd5b81356117c6848260208601611728565b91505092915050565b6000813590506117de816124c8565b92915050565b6000602082840312156117f657600080fd5b600061180484828501611766565b91505092915050565b60006020828403121561181f57600080fd5b600061182d8482850161177b565b91505092915050565b6000806040838503121561184957600080fd5b60006118578582860161177b565b925050602061186885828601611766565b9150509250929050565b60006020828403121561188457600080fd5b600061189284828501611790565b91505092915050565b60008060008060008060008060006101208a8c0312156118ba57600080fd5b60008a013567ffffffffffffffff8111156118d457600080fd5b6118e08c828d016117a5565b99505060208a013567ffffffffffffffff8111156118fd57600080fd5b6119098c828d016117a5565b98505060408a013567ffffffffffffffff81111561192657600080fd5b6119328c828d016117a5565b97505060608a013567ffffffffffffffff81111561194f57600080fd5b61195b8c828d016117a5565b96505060808a013567ffffffffffffffff81111561197857600080fd5b6119848c828d016117a5565b95505060a08a013567ffffffffffffffff8111156119a157600080fd5b6119ad8c828d016117a5565b94505060c08a013567ffffffffffffffff8111156119ca57600080fd5b6119d68c828d016117a5565b93505060e06119e78c828d016117cf565b9250506101008a013567ffffffffffffffff811115611a0557600080fd5b611a118c828d016117a5565b9150509295985092959850929598565b600060208284031215611a3357600080fd5b6000611a41848285016117cf565b91505092915050565b6000611a568383611a62565b60208301905092915050565b611a6b81612156565b82525050565b611a7a81612156565b82525050565b6000611a8b82612045565b611a958185612068565b9350611aa083612035565b8060005b83811015611ad1578151611ab88882611a4a565b9750611ac38361205b565b925050600181019050611aa4565b5085935050505092915050565b611ae781612168565b82525050565b611af681612174565b82525050565b6000611b0782612050565b611b118185612079565b9350611b218185602086016121e3565b611b2a81612330565b840191505092915050565b6000611b4082612050565b611b4a818561208a565b9350611b5a8185602086016121e3565b611b6381612330565b840191505092915050565b6000611b7982612050565b611b83818561209b565b9350611b938185602086016121e3565b80840191505092915050565b6000611bac60208361208a565b9150611bb782612341565b602082019050919050565b6000611bcf60268361208a565b9150611bda8261236a565b604082019050919050565b6000611bf260208361208a565b9150611bfd826123b9565b602082019050919050565b6000611c1560178361209b565b9150611c20826123e2565b601782019050919050565b6000611c3860118361209b565b9150611c438261240b565b601182019050919050565b6000611c5b602f8361208a565b9150611c6682612434565b604082019050919050565b6000610140830160008301518482036000860152611c8f8282611afc565b91505060208301518482036020860152611ca98282611afc565b91505060408301518482036040860152611cc38282611afc565b91505060608301518482036060860152611cdd8282611afc565b91505060808301518482036080860152611cf78282611afc565b91505060a083015184820360a0860152611d118282611afc565b91505060c0830151611d2660c0860182611a62565b5060e083015184820360e0860152611d3e8282611afc565b915050610100830151611d55610100860182611d7c565b50610120830151848203610120860152611d6f8282611afc565b9150508091505092915050565b611d85816121ca565b82525050565b611d94816121ca565b82525050565b6000611da582611c08565b9150611db18285611b6e565b9150611dbc82611c2b565b9150611dc88284611b6e565b91508190509392505050565b6000602082019050611de96000830184611a71565b92915050565b60006020820190508181036000830152611e098184611a80565b905092915050565b6000602082019050611e266000830184611ade565b92915050565b6000602082019050611e416000830184611aed565b92915050565b60006020820190508181036000830152611e618184611b35565b905092915050565b6000610140820190508181036000830152611e84818d611b35565b90508181036020830152611e98818c611b35565b90508181036040830152611eac818b611b35565b90508181036060830152611ec0818a611b35565b90508181036080830152611ed48189611b35565b905081810360a0830152611ee88188611b35565b9050611ef760c0830187611a71565b81810360e0830152611f098186611b35565b9050611f19610100830185611d8b565b818103610120830152611f2c8184611b35565b90509b9a5050505050505050505050565b60006020820190508181036000830152611f5681611b9f565b9050919050565b60006020820190508181036000830152611f7681611bc2565b9050919050565b60006020820190508181036000830152611f9681611be5565b9050919050565b60006020820190508181036000830152611fb681611c4e565b9050919050565b60006020820190508181036000830152611fd78184611c71565b905092915050565b6000611fe9611ffa565b9050611ff58282612272565b919050565b6000604051905090565b600067ffffffffffffffff82111561201f5761201e612301565b5b61202882612330565b9050602081019050919050565b6000819050602082019050919050565b600081519050919050565b600081519050919050565b6000602082019050919050565b600082825260208201905092915050565b600082825260208201905092915050565b600082825260208201905092915050565b600081905092915050565b60006120b1826121ca565b91506120bc836121ca565b9250827fffffffffffffffffffffffffffffffffffffffffffffffffffffffffffffffff038211156120f1576120f06122a3565b5b828201905092915050565b6000612107826121ca565b9150612112836121ca565b9250817fffffffffffffffffffffffffffffffffffffffffffffffffffffffffffffffff048311821515161561214b5761214a6122a3565b5b828202905092915050565b6000612161826121aa565b9050919050565b60008115159050919050565b6000819050919050565b60007fffffffff0000000000000000000000000000000000000000000000000000000082169050919050565b600073ffffffffffffffffffffffffffffffffffffffff82169050919050565b6000819050919050565b82818337600083830152505050565b60005b838110156122015780820151818401526020810190506121e6565b83811115612210576000848401525b50505050565b6000612221826121ca565b91506000821415612235576122346122a3565b5b600182039050919050565b6000600282049050600182168061225857607f821691505b6020821081141561226c5761226b6122d2565b5b50919050565b61227b82612330565b810181811067ffffffffffffffff8211171561229a57612299612301565b5b80604052505050565b7f4e487b7100000000000000000000000000000000000000000000000000000000600052601160045260246000fd5b7f4e487b7100000000000000000000000000000000000000000000000000000000600052602260045260246000fd5b7f4e487b7100000000000000000000000000000000000000000000000000000000600052604160045260246000fd5b6000601f19601f8301169050919050565b7f537472696e67733a20686578206c656e67746820696e73756666696369656e74600082015250565b7f4f776e61626c653a206e6577206f776e657220697320746865207a65726f206160008201527f6464726573730000000000000000000000000000000000000000000000000000602082015250565b7f4f776e61626c653a2063616c6c6572206973206e6f7420746865206f776e6572600082015250565b7f416363657373436f6e74726f6c3a206163636f756e7420000000000000000000600082015250565b7f206973206d697373696e6720726f6c6520000000000000000000000000000000600082015250565b7f416363657373436f6e74726f6c3a2063616e206f6e6c792072656e6f756e636560008201527f20726f6c657320666f722073656c660000000000000000000000000000000000602082015250565b61248c81612156565b811461249757600080fd5b50565b6124a381612174565b81146124ae57600080fd5b50565b6124ba8161217e565b81146124c557600080fd5b50565b6124d1816121ca565b81146124dc57600080fd5b5056fea2646970667358221220dc5fccd7f3d815c8234907091fb564b9db70e0580bf379e0beade6b48595116664736f6c63430008040033",
  "immutableReferences": {},
  "source": "pragma solidity 0.8.4;\r\n\r\nimport \"@openzeppelin/contracts/access/Ownable.sol\";\r\nimport \"@openzeppelin/contracts/access/AccessControl.sol\";\r\nimport \"./Registration.sol\";\r\nimport \"@openzeppelin/contracts/token/ERC721/IERC721.sol\";\r\nimport \"@openzeppelin/contracts/security/ReentrancyGuard.sol\";\r\n\r\n\r\ncontract Patients is Ownable, AccessControl, ReentrancyGuard {\r\n\r\n    Registration _registration;\r\n\r\n    constructor(address registrationA) public {\r\n        _registration = Registration(registrationA);\r\n    }\r\n\r\n    struct Patient {\r\n        string firstName;\r\n        string lastName;\r\n        string country;\r\n        string city;\r\n        string gender;\r\n        string _addressLocation;\r\n        address _address;\r\n        string CNP;\r\n        uint birthDate;\r\n        string _hash;\r\n    }\r\n\r\n    event AddPatient(\r\n      string firstName,\r\n      string lastName,\r\n      string country,\r\n      string city,\r\n      string gender,\r\n      string _addressLocation,\r\n      address _address,\r\n      string CNP,\r\n      uint birthDate,\r\n      string _hash\r\n  );\r\n\r\n    mapping(address => Patient) patients;\r\n    address[] public patientAccounts;\r\n\r\n    function registerPatient(string memory fname, string memory lname, string memory gender, string memory addressLocation,\r\n        string memory city, string memory country, string memory cnp, uint birthDate, string memory _hash) public{\r\n        \r\n        patients[msg.sender] = Patient(fname, lname, country, city, gender, addressLocation, msg.sender, cnp, birthDate, _hash);\r\n        patientAccounts.push(msg.sender);\r\n\r\n        _registration.addPatient(tx.origin);\r\n\r\n        emit AddPatient(fname, lname, country, city, gender, addressLocation, msg.sender, cnp, birthDate, _hash);\r\n\r\n    } \r\n\r\n    function getPatient(address _address) view public returns(Patient memory){\r\n        return patients[_address];\r\n    }\r\n\r\n    function getPatientsAccount() view public returns(address[] memory){\r\n        return patientAccounts;\r\n    }\r\n}",
  "sourcePath": "C:/Licenta/Licenta/src/contracts/Patients.sol",
  "compiler": {
    "name": "solc",
    "version": "0.8.4+commit.c7e474f2.Emscripten.clang"
  },
  "schemaVersion": "3.2.3",
  "updatedAt": "2022-06-26T20:15:36.262Z",
  "networkType": "ethereum",
  "devdoc": {
    "kind": "dev",
    "methods": {
      "getRoleAdmin(bytes32)": {
        "details": "Returns the admin role that controls `role`. See {grantRole} and {revokeRole}. To change a role's admin, use {_setRoleAdmin}."
      },
      "grantRole(bytes32,address)": {
        "details": "Grants `role` to `account`. If `account` had not been already granted `role`, emits a {RoleGranted} event. Requirements: - the caller must have ``role``'s admin role."
      },
      "hasRole(bytes32,address)": {
        "details": "Returns `true` if `account` has been granted `role`."
      },
      "owner()": {
        "details": "Returns the address of the current owner."
      },
      "renounceOwnership()": {
        "details": "Leaves the contract without owner. It will not be possible to call `onlyOwner` functions anymore. Can only be called by the current owner. NOTE: Renouncing ownership will leave the contract without an owner, thereby removing any functionality that is only available to the owner."
      },
      "renounceRole(bytes32,address)": {
        "details": "Revokes `role` from the calling account. Roles are often managed via {grantRole} and {revokeRole}: this function's purpose is to provide a mechanism for accounts to lose their privileges if they are compromised (such as when a trusted device is misplaced). If the calling account had been revoked `role`, emits a {RoleRevoked} event. Requirements: - the caller must be `account`."
      },
      "revokeRole(bytes32,address)": {
        "details": "Revokes `role` from `account`. If `account` had been granted `role`, emits a {RoleRevoked} event. Requirements: - the caller must have ``role``'s admin role."
      },
      "supportsInterface(bytes4)": {
        "details": "See {IERC165-supportsInterface}."
      },
      "transferOwnership(address)": {
        "details": "Transfers ownership of the contract to a new account (`newOwner`). Can only be called by the current owner."
      }
    },
    "version": 1
  },
  "userdoc": {
    "kind": "user",
    "methods": {},
    "version": 1
  }
}