{
  "contractName": "Patients",
  "abi": [
    {
      "inputs": [
        {
          "internalType": "address",
          "name": "registrationA",
          "type": "address"
        }
      ],
      "stateMutability": "nonpayable",
      "type": "constructor"
    },
    {
      "anonymous": false,
      "inputs": [
        {
          "indexed": false,
          "internalType": "string",
          "name": "firstName",
          "type": "string"
        },
        {
          "indexed": false,
          "internalType": "string",
          "name": "lastName",
          "type": "string"
        },
        {
          "indexed": false,
          "internalType": "string",
          "name": "country",
          "type": "string"
        },
        {
          "indexed": false,
          "internalType": "string",
          "name": "city",
          "type": "string"
        },
        {
          "indexed": false,
          "internalType": "string",
          "name": "gender",
          "type": "string"
        },
        {
          "indexed": false,
          "internalType": "string",
          "name": "_addressLocation",
          "type": "string"
        },
        {
          "indexed": false,
          "internalType": "address",
          "name": "_address",
          "type": "address"
        },
        {
          "indexed": false,
          "internalType": "string",
          "name": "CNP",
          "type": "string"
        },
        {
          "indexed": false,
          "internalType": "uint256",
          "name": "birthDate",
          "type": "uint256"
        },
        {
          "indexed": false,
          "internalType": "string",
          "name": "_hash",
          "type": "string"
        }
      ],
      "name": "AddPatient",
      "type": "event"
    },
    {
      "anonymous": false,
      "inputs": [
        {
          "indexed": false,
          "internalType": "string",
          "name": "fileHash",
          "type": "string"
        },
        {
          "indexed": false,
          "internalType": "uint256",
          "name": "fileSize",
          "type": "uint256"
        },
        {
          "indexed": false,
          "internalType": "string",
          "name": "fileType",
          "type": "string"
        },
        {
          "indexed": false,
          "internalType": "string",
          "name": "fileName",
          "type": "string"
        },
        {
          "indexed": false,
          "internalType": "string",
          "name": "fileDescription",
          "type": "string"
        },
        {
          "indexed": false,
          "internalType": "uint256",
          "name": "uploadTime",
          "type": "uint256"
        },
        {
          "indexed": false,
          "internalType": "address",
          "name": "patient_address",
          "type": "address"
        },
        {
          "indexed": false,
          "internalType": "address payable",
          "name": "uploader",
          "type": "address"
        }
      ],
      "name": "FileUploaded",
      "type": "event"
    },
    {
      "anonymous": false,
      "inputs": [
        {
          "indexed": true,
          "internalType": "address",
          "name": "previousOwner",
          "type": "address"
        },
        {
          "indexed": true,
          "internalType": "address",
          "name": "newOwner",
          "type": "address"
        }
      ],
      "name": "OwnershipTransferred",
      "type": "event"
    },
    {
      "anonymous": false,
      "inputs": [
        {
          "indexed": true,
          "internalType": "bytes32",
          "name": "role",
          "type": "bytes32"
        },
        {
          "indexed": true,
          "internalType": "bytes32",
          "name": "previousAdminRole",
          "type": "bytes32"
        },
        {
          "indexed": true,
          "internalType": "bytes32",
          "name": "newAdminRole",
          "type": "bytes32"
        }
      ],
      "name": "RoleAdminChanged",
      "type": "event"
    },
    {
      "anonymous": false,
      "inputs": [
        {
          "indexed": true,
          "internalType": "bytes32",
          "name": "role",
          "type": "bytes32"
        },
        {
          "indexed": true,
          "internalType": "address",
          "name": "account",
          "type": "address"
        },
        {
          "indexed": true,
          "internalType": "address",
          "name": "sender",
          "type": "address"
        }
      ],
      "name": "RoleGranted",
      "type": "event"
    },
    {
      "anonymous": false,
      "inputs": [
        {
          "indexed": true,
          "internalType": "bytes32",
          "name": "role",
          "type": "bytes32"
        },
        {
          "indexed": true,
          "internalType": "address",
          "name": "account",
          "type": "address"
        },
        {
          "indexed": true,
          "internalType": "address",
          "name": "sender",
          "type": "address"
        }
      ],
      "name": "RoleRevoked",
      "type": "event"
    },
    {
      "inputs": [],
      "name": "DEFAULT_ADMIN_ROLE",
      "outputs": [
        {
          "internalType": "bytes32",
          "name": "",
          "type": "bytes32"
        }
      ],
      "stateMutability": "view",
      "type": "function",
      "constant": true
    },
    {
      "inputs": [
        {
          "internalType": "bytes32",
          "name": "role",
          "type": "bytes32"
        }
      ],
      "name": "getRoleAdmin",
      "outputs": [
        {
          "internalType": "bytes32",
          "name": "",
          "type": "bytes32"
        }
      ],
      "stateMutability": "view",
      "type": "function",
      "constant": true
    },
    {
      "inputs": [
        {
          "internalType": "bytes32",
          "name": "role",
          "type": "bytes32"
        },
        {
          "internalType": "address",
          "name": "account",
          "type": "address"
        }
      ],
      "name": "grantRole",
      "outputs": [],
      "stateMutability": "nonpayable",
      "type": "function"
    },
    {
      "inputs": [
        {
          "internalType": "bytes32",
          "name": "role",
          "type": "bytes32"
        },
        {
          "internalType": "address",
          "name": "account",
          "type": "address"
        }
      ],
      "name": "hasRole",
      "outputs": [
        {
          "internalType": "bool",
          "name": "",
          "type": "bool"
        }
      ],
      "stateMutability": "view",
      "type": "function",
      "constant": true
    },
    {
      "inputs": [],
      "name": "owner",
      "outputs": [
        {
          "internalType": "address",
          "name": "",
          "type": "address"
        }
      ],
      "stateMutability": "view",
      "type": "function",
      "constant": true
    },
    {
      "inputs": [
        {
          "internalType": "uint256",
          "name": "",
          "type": "uint256"
        }
      ],
      "name": "patientAccounts",
      "outputs": [
        {
          "internalType": "address",
          "name": "",
          "type": "address"
        }
      ],
      "stateMutability": "view",
      "type": "function",
      "constant": true
    },
    {
      "inputs": [],
      "name": "renounceOwnership",
      "outputs": [],
      "stateMutability": "nonpayable",
      "type": "function"
    },
    {
      "inputs": [
        {
          "internalType": "bytes32",
          "name": "role",
          "type": "bytes32"
        },
        {
          "internalType": "address",
          "name": "account",
          "type": "address"
        }
      ],
      "name": "renounceRole",
      "outputs": [],
      "stateMutability": "nonpayable",
      "type": "function"
    },
    {
      "inputs": [
        {
          "internalType": "bytes32",
          "name": "role",
          "type": "bytes32"
        },
        {
          "internalType": "address",
          "name": "account",
          "type": "address"
        }
      ],
      "name": "revokeRole",
      "outputs": [],
      "stateMutability": "nonpayable",
      "type": "function"
    },
    {
      "inputs": [
        {
          "internalType": "bytes4",
          "name": "interfaceId",
          "type": "bytes4"
        }
      ],
      "name": "supportsInterface",
      "outputs": [
        {
          "internalType": "bool",
          "name": "",
          "type": "bool"
        }
      ],
      "stateMutability": "view",
      "type": "function",
      "constant": true
    },
    {
      "inputs": [
        {
          "internalType": "address",
          "name": "newOwner",
          "type": "address"
        }
      ],
      "name": "transferOwnership",
      "outputs": [],
      "stateMutability": "nonpayable",
      "type": "function"
    },
    {
      "inputs": [
        {
          "internalType": "uint256",
          "name": "_tokenId",
          "type": "uint256"
        },
        {
          "internalType": "address",
          "name": "_to",
          "type": "address"
        }
      ],
      "name": "addFileNft",
      "outputs": [],
      "stateMutability": "nonpayable",
      "type": "function"
    },
    {
      "inputs": [
        {
          "internalType": "contract IERC721",
          "name": "_nft",
          "type": "address"
        },
        {
          "internalType": "address",
          "name": "_doctor",
          "type": "address"
        },
        {
          "internalType": "uint256",
          "name": "_tokenId",
          "type": "uint256"
        }
      ],
      "name": "transferFileDoctor",
      "outputs": [],
      "stateMutability": "nonpayable",
      "type": "function"
    },
    {
      "inputs": [
        {
          "internalType": "address",
          "name": "_address",
          "type": "address"
        }
      ],
      "name": "getFilesForUser",
      "outputs": [
        {
          "internalType": "uint256[]",
          "name": "",
          "type": "uint256[]"
        }
      ],
      "stateMutability": "nonpayable",
      "type": "function"
    },
    {
      "inputs": [
        {
          "internalType": "address",
          "name": "_address",
          "type": "address"
        }
      ],
      "name": "giveHistoryPermission",
      "outputs": [],
      "stateMutability": "nonpayable",
      "type": "function"
    },
    {
      "inputs": [
        {
          "internalType": "string",
          "name": "fname",
          "type": "string"
        },
        {
          "internalType": "string",
          "name": "lname",
          "type": "string"
        },
        {
          "internalType": "string",
          "name": "gender",
          "type": "string"
        },
        {
          "internalType": "string",
          "name": "addressLocation",
          "type": "string"
        },
        {
          "internalType": "string",
          "name": "city",
          "type": "string"
        },
        {
          "internalType": "string",
          "name": "country",
          "type": "string"
        },
        {
          "internalType": "string",
          "name": "cnp",
          "type": "string"
        },
        {
          "internalType": "address",
          "name": "_address",
          "type": "address"
        },
        {
          "internalType": "uint256",
          "name": "birthDate",
          "type": "uint256"
        },
        {
          "internalType": "string",
          "name": "_hash",
          "type": "string"
        }
      ],
      "name": "registerAPatientAsDoctor",
      "outputs": [],
      "stateMutability": "nonpayable",
      "type": "function"
    },
    {
      "inputs": [
        {
          "internalType": "string",
          "name": "fname",
          "type": "string"
        },
        {
          "internalType": "string",
          "name": "lname",
          "type": "string"
        },
        {
          "internalType": "string",
          "name": "gender",
          "type": "string"
        },
        {
          "internalType": "string",
          "name": "addressLocation",
          "type": "string"
        },
        {
          "internalType": "string",
          "name": "city",
          "type": "string"
        },
        {
          "internalType": "string",
          "name": "country",
          "type": "string"
        },
        {
          "internalType": "string",
          "name": "cnp",
          "type": "string"
        },
        {
          "internalType": "uint256",
          "name": "birthDate",
          "type": "uint256"
        },
        {
          "internalType": "string",
          "name": "_hash",
          "type": "string"
        }
      ],
      "name": "registerPatient",
      "outputs": [],
      "stateMutability": "nonpayable",
      "type": "function"
    },
    {
      "inputs": [
        {
          "internalType": "address",
          "name": "_address",
          "type": "address"
        }
      ],
      "name": "getPatientFiles",
      "outputs": [
        {
          "components": [
            {
              "internalType": "string",
              "name": "fileHash",
              "type": "string"
            },
            {
              "internalType": "uint256",
              "name": "fileSize",
              "type": "uint256"
            },
            {
              "internalType": "string",
              "name": "fileType",
              "type": "string"
            },
            {
              "internalType": "string",
              "name": "fileName",
              "type": "string"
            },
            {
              "internalType": "string",
              "name": "fileDescription",
              "type": "string"
            },
            {
              "internalType": "uint256",
              "name": "uploadTime",
              "type": "uint256"
            },
            {
              "internalType": "address",
              "name": "patient_address",
              "type": "address"
            },
            {
              "internalType": "address payable",
              "name": "uploader",
              "type": "address"
            }
          ],
          "internalType": "struct Patients.File[]",
          "name": "",
          "type": "tuple[]"
        }
      ],
      "stateMutability": "view",
      "type": "function",
      "constant": true
    },
    {
      "inputs": [
        {
          "internalType": "string",
          "name": "_fileHash",
          "type": "string"
        },
        {
          "internalType": "uint256",
          "name": "_fileSize",
          "type": "uint256"
        },
        {
          "internalType": "string",
          "name": "_fileType",
          "type": "string"
        },
        {
          "internalType": "string",
          "name": "_fileName",
          "type": "string"
        },
        {
          "internalType": "string",
          "name": "_fileDescription",
          "type": "string"
        },
        {
          "internalType": "address",
          "name": "patient_address",
          "type": "address"
        }
      ],
      "name": "addFile",
      "outputs": [],
      "stateMutability": "nonpayable",
      "type": "function"
    },
    {
      "inputs": [
        {
          "internalType": "address",
          "name": "_address",
          "type": "address"
        }
      ],
      "name": "getPatientsOfDoctor",
      "outputs": [
        {
          "components": [
            {
              "internalType": "string",
              "name": "firstName",
              "type": "string"
            },
            {
              "internalType": "string",
              "name": "lastName",
              "type": "string"
            },
            {
              "internalType": "string",
              "name": "country",
              "type": "string"
            },
            {
              "internalType": "string",
              "name": "city",
              "type": "string"
            },
            {
              "internalType": "string",
              "name": "gender",
              "type": "string"
            },
            {
              "internalType": "string",
              "name": "_addressLocation",
              "type": "string"
            },
            {
              "internalType": "address",
              "name": "_address",
              "type": "address"
            },
            {
              "internalType": "string",
              "name": "CNP",
              "type": "string"
            },
            {
              "internalType": "uint256",
              "name": "birthDate",
              "type": "uint256"
            },
            {
              "internalType": "string",
              "name": "_hash",
              "type": "string"
            }
          ],
          "internalType": "struct Patients.Patient[]",
          "name": "",
          "type": "tuple[]"
        }
      ],
      "stateMutability": "view",
      "type": "function",
      "constant": true
    },
    {
      "inputs": [],
      "name": "returnPatientFile",
      "outputs": [
        {
          "internalType": "string",
          "name": "",
          "type": "string"
        }
      ],
      "stateMutability": "view",
      "type": "function",
      "constant": true
    },
    {
      "inputs": [
        {
          "internalType": "address",
          "name": "_address",
          "type": "address"
        }
      ],
      "name": "getPatient",
      "outputs": [
        {
          "components": [
            {
              "internalType": "string",
              "name": "firstName",
              "type": "string"
            },
            {
              "internalType": "string",
              "name": "lastName",
              "type": "string"
            },
            {
              "internalType": "string",
              "name": "country",
              "type": "string"
            },
            {
              "internalType": "string",
              "name": "city",
              "type": "string"
            },
            {
              "internalType": "string",
              "name": "gender",
              "type": "string"
            },
            {
              "internalType": "string",
              "name": "_addressLocation",
              "type": "string"
            },
            {
              "internalType": "address",
              "name": "_address",
              "type": "address"
            },
            {
              "internalType": "string",
              "name": "CNP",
              "type": "string"
            },
            {
              "internalType": "uint256",
              "name": "birthDate",
              "type": "uint256"
            },
            {
              "internalType": "string",
              "name": "_hash",
              "type": "string"
            }
          ],
          "internalType": "struct Patients.Patient",
          "name": "",
          "type": "tuple"
        }
      ],
      "stateMutability": "view",
      "type": "function",
      "constant": true
    },
    {
      "inputs": [],
      "name": "getPatientsAccount",
      "outputs": [
        {
          "internalType": "address[]",
          "name": "",
          "type": "address[]"
        }
      ],
      "stateMutability": "view",
      "type": "function",
      "constant": true
    }
  ],
  "bytecode": "0x60806040523480156200001157600080fd5b50604051620052223803806200522283398181016040528101906200003791906200018a565b620000576200004b620000a760201b60201c565b620000af60201b60201c565b600160028190555080600360006101000a81548173ffffffffffffffffffffffffffffffffffffffff021916908373ffffffffffffffffffffffffffffffffffffffff1602179055505062000204565b600033905090565b60008060009054906101000a900473ffffffffffffffffffffffffffffffffffffffff169050816000806101000a81548173ffffffffffffffffffffffffffffffffffffffff021916908373ffffffffffffffffffffffffffffffffffffffff1602179055508173ffffffffffffffffffffffffffffffffffffffff168173ffffffffffffffffffffffffffffffffffffffff167f8be0079c531659141344cd1fd0a4f28419497f9722a3daafe3b4186f6b6457e060405160405180910390a35050565b6000815190506200018481620001ea565b92915050565b6000602082840312156200019d57600080fd5b6000620001ad8482850162000173565b91505092915050565b6000620001c382620001ca565b9050919050565b600073ffffffffffffffffffffffffffffffffffffffff82169050919050565b620001f581620001b6565b81146200020157600080fd5b50565b61500e80620002146000396000f3fe608060405234801561001057600080fd5b506004361061014d5760003560e01c8063a3a56466116100c3578063c1e7673f1161007c578063c1e7673f14610388578063ca7c3690146103b8578063d13431cb146103e8578063d547741f14610418578063ef0beecd14610434578063f2fde38b146104505761014d565b8063a3a56466146102b6578063b230b104146102d4578063b5368e20146102f0578063b9a3bbaa14610320578063c0ca94611461033c578063c1816dfb146103585761014d565b806336568abe1161011557806336568abe146102085780634edb665314610224578063715018a6146102405780638da5cb5b1461024a57806391d1485414610268578063a217fddf146102985761014d565b806301ffc9a7146101525780630f0c441c146101825780630f80e271146101a0578063248a9ca3146101bc5780632f2ff15d146101ec575b600080fd5b61016c60048036038101906101679190613ac9565b61046c565b604051610179919061478a565b60405180910390f35b61018a6104e6565b6040516101979190614702565b60405180910390f35b6101ba60048036038101906101b59190613f74565b610574565b005b6101d660048036038101906101d19190613a3b565b6105de565b6040516101e391906147a5565b60405180910390f35b61020660048036038101906102019190613a8d565b6105fe565b005b610222600480360381019061021d9190613a8d565b610627565b005b61023e60048036038101906102399190613b41565b6106aa565b005b610248610b87565b005b610252610c0f565b60405161025f91906146b0565b60405180910390f35b610282600480360381019061027d9190613a8d565b610c38565b60405161028f919061478a565b60405180910390f35b6102a0610ca3565b6040516102ad91906147a5565b60405180910390f35b6102be610caa565b6040516102cb91906147c0565b60405180910390f35b6102ee60048036038101906102e99190613e62565b610d7c565b005b61030a60048036038101906103059190613a12565b611303565b60405161031791906149d0565b60405180910390f35b61033a60048036038101906103359190613af2565b61184d565b005b61035660048036038101906103519190613cdc565b611930565b005b610372600480360381019061036d9190613a12565b611bc0565b60405161037f9190614724565b60405180910390f35b6103a2600480360381019061039d9190613f4b565b6128e6565b6040516103af91906146b0565b60405180910390f35b6103d260048036038101906103cd9190613a12565b612925565b6040516103df9190614746565b60405180910390f35b61040260048036038101906103fd9190613a12565b612eb4565b60405161040f9190614768565b60405180910390f35b610432600480360381019061042d9190613a8d565b612f4b565b005b61044e60048036038101906104499190613a12565b612f74565b005b61046a60048036038101906104659190613a12565b61300c565b005b60007f7965db0b000000000000000000000000000000000000000000000000000000007bffffffffffffffffffffffffffffffffffffffffffffffffffffffff1916827bffffffffffffffffffffffffffffffffffffffffffffffffffffffff191614806104df57506104de82613104565b5b9050919050565b6060600a80548060200260200160405190810160405280929190818152602001828054801561056a57602002820191906000526020600020905b8160009054906101000a900473ffffffffffffffffffffffffffffffffffffffff1673ffffffffffffffffffffffffffffffffffffffff1681526020019060010190808311610520575b5050505050905090565b600c60008273ffffffffffffffffffffffffffffffffffffffff1673ffffffffffffffffffffffffffffffffffffffff1681526020019081526020016000208290806001815401808255809150506001900390600052602060002001600090919091909150555050565b600060016000838152602001908152602001600020600101549050919050565b610607826105de565b6106188161061361316e565b613176565b6106228383613213565b505050565b61062f61316e565b73ffffffffffffffffffffffffffffffffffffffff168173ffffffffffffffffffffffffffffffffffffffff161461069c576040517f08c379a0000000000000000000000000000000000000000000000000000000008152600401610693906149b0565b60405180910390fd5b6106a682826132f3565b5050565b6040518061014001604052808b81526020018a81526020018681526020018781526020018981526020018881526020018473ffffffffffffffffffffffffffffffffffffffff16815260200185815260200183815260200182815250600960008573ffffffffffffffffffffffffffffffffffffffff1673ffffffffffffffffffffffffffffffffffffffff1681526020019081526020016000206000820151816000019080519060200190610761929190613793565b50602082015181600101908051906020019061077e929190613793565b50604082015181600201908051906020019061079b929190613793565b5060608201518160030190805190602001906107b8929190613793565b5060808201518160040190805190602001906107d5929190613793565b5060a08201518160050190805190602001906107f2929190613793565b5060c08201518160060160006101000a81548173ffffffffffffffffffffffffffffffffffffffff021916908373ffffffffffffffffffffffffffffffffffffffff16021790555060e0820151816007019080519060200190610856929190613793565b50610100820151816008015561012082015181600901908051906020019061087f929190613793565b50905050600760003373ffffffffffffffffffffffffffffffffffffffff1673ffffffffffffffffffffffffffffffffffffffff168152602001908152602001600020600960008573ffffffffffffffffffffffffffffffffffffffff1673ffffffffffffffffffffffffffffffffffffffff16815260200190815260200160002090806001815401808255809150506001900390600052602060002090600a0201600090919091909150600082018160000190805461093e90614d22565b610949929190613819565b50600182018160010190805461095e90614d22565b610969929190613819565b50600282018160020190805461097e90614d22565b610989929190613819565b50600382018160030190805461099e90614d22565b6109a9929190613819565b5060048201816004019080546109be90614d22565b6109c9929190613819565b5060058201816005019080546109de90614d22565b6109e9929190613819565b506006820160009054906101000a900473ffffffffffffffffffffffffffffffffffffffff168160060160006101000a81548173ffffffffffffffffffffffffffffffffffffffff021916908373ffffffffffffffffffffffffffffffffffffffff1602179055506007820181600701908054610a6590614d22565b610a70929190613819565b50600882015481600801556009820181600901908054610a8f90614d22565b610a9a929190613819565b5050506001600660008573ffffffffffffffffffffffffffffffffffffffff1673ffffffffffffffffffffffffffffffffffffffff16815260200190815260200160002060003373ffffffffffffffffffffffffffffffffffffffff1673ffffffffffffffffffffffffffffffffffffffff16815260200190815260200160002060006101000a81548160ff0219169083151502179055507f97c8ee661eec8c93258c4953c2322d519b4e429deb2d33fbb16f71c6f2da7b1d8a8a87898c8c898b8a8a604051610b739a999897969594939291906147e2565b60405180910390a150505050505050505050565b610b8f61316e565b73ffffffffffffffffffffffffffffffffffffffff16610bad610c0f565b73ffffffffffffffffffffffffffffffffffffffff1614610c03576040517f08c379a0000000000000000000000000000000000000000000000000000000008152600401610bfa90614990565b60405180910390fd5b610c0d60006133d5565b565b60008060009054906101000a900473ffffffffffffffffffffffffffffffffffffffff16905090565b60006001600084815260200190815260200160002060000160008373ffffffffffffffffffffffffffffffffffffffff1673ffffffffffffffffffffffffffffffffffffffff16815260200190815260200160002060009054906101000a900460ff16905092915050565b6000801b81565b6060600960003373ffffffffffffffffffffffffffffffffffffffff1673ffffffffffffffffffffffffffffffffffffffff1681526020019081526020016000206009018054610cf990614d22565b80601f0160208091040260200160405190810160405280929190818152602001828054610d2590614d22565b8015610d725780601f10610d4757610100808354040283529160200191610d72565b820191906000526020600020905b815481529060010190602001808311610d5557829003601f168201915b5050505050905090565b600360009054906101000a900473ffffffffffffffffffffffffffffffffffffffff1673ffffffffffffffffffffffffffffffffffffffff1663fec331f26040518163ffffffff1660e01b815260040160206040518083038186803b158015610de457600080fd5b505afa158015610df8573d6000803e3d6000fd5b505050506040513d601f19601f82011682018060405250810190610e1c9190613a64565b610e2d81610e2861316e565b613176565b6000875111610e3b57600080fd5b6000855111610e4957600080fd5b6000835111610e5757600080fd5b6000845111610e6557600080fd5b600073ffffffffffffffffffffffffffffffffffffffff163373ffffffffffffffffffffffffffffffffffffffff161415610e9f57600080fd5b60008611610eac57600080fd5b600560008373ffffffffffffffffffffffffffffffffffffffff1673ffffffffffffffffffffffffffffffffffffffff1681526020019081526020016000206040518061010001604052808981526020018881526020018781526020018681526020018581526020014281526020018473ffffffffffffffffffffffffffffffffffffffff1681526020013373ffffffffffffffffffffffffffffffffffffffff1681525090806001815401808255809150506001900390600052602060002090600802016000909190919091506000820151816000019080519060200190610f96929190613793565b50602082015181600101556040820151816002019080519060200190610fbd929190613793565b506060820151816003019080519060200190610fda929190613793565b506080820151816004019080519060200190610ff7929190613793565b5060a0820151816005015560c08201518160060160006101000a81548173ffffffffffffffffffffffffffffffffffffffff021916908373ffffffffffffffffffffffffffffffffffffffff16021790555060e08201518160070160006101000a81548173ffffffffffffffffffffffffffffffffffffffff021916908373ffffffffffffffffffffffffffffffffffffffff1602179055505050600860003373ffffffffffffffffffffffffffffffffffffffff1673ffffffffffffffffffffffffffffffffffffffff16815260200190815260200160002060008373ffffffffffffffffffffffffffffffffffffffff1673ffffffffffffffffffffffffffffffffffffffff1681526020019081526020016000206040518061010001604052808981526020018881526020018781526020018681526020018581526020014281526020018473ffffffffffffffffffffffffffffffffffffffff1681526020013373ffffffffffffffffffffffffffffffffffffffff16815250908060018154018082558091505060019003906000526020600020906008020160009091909190915060008201518160000190805190602001906111b9929190613793565b506020820151816001015560408201518160020190805190602001906111e0929190613793565b5060608201518160030190805190602001906111fd929190613793565b50608082015181600401908051906020019061121a929190613793565b5060a0820151816005015560c08201518160060160006101000a81548173ffffffffffffffffffffffffffffffffffffffff021916908373ffffffffffffffffffffffffffffffffffffffff16021790555060e08201518160070160006101000a81548173ffffffffffffffffffffffffffffffffffffffff021916908373ffffffffffffffffffffffffffffffffffffffff16021790555050507f0e28bc4e50a4f6b410208d4c0789c84f2db79625f6027b4beebb3627de8f5b0c87878787874288336040516112f29897969594939291906148b6565b60405180910390a150505050505050565b61130b6138a6565b600960008373ffffffffffffffffffffffffffffffffffffffff1673ffffffffffffffffffffffffffffffffffffffff1681526020019081526020016000206040518061014001604052908160008201805461136690614d22565b80601f016020809104026020016040519081016040528092919081815260200182805461139290614d22565b80156113df5780601f106113b4576101008083540402835291602001916113df565b820191906000526020600020905b8154815290600101906020018083116113c257829003601f168201915b505050505081526020016001820180546113f890614d22565b80601f016020809104026020016040519081016040528092919081815260200182805461142490614d22565b80156114715780601f1061144657610100808354040283529160200191611471565b820191906000526020600020905b81548152906001019060200180831161145457829003601f168201915b5050505050815260200160028201805461148a90614d22565b80601f01602080910402602001604051908101604052809291908181526020018280546114b690614d22565b80156115035780601f106114d857610100808354040283529160200191611503565b820191906000526020600020905b8154815290600101906020018083116114e657829003601f168201915b5050505050815260200160038201805461151c90614d22565b80601f016020809104026020016040519081016040528092919081815260200182805461154890614d22565b80156115955780601f1061156a57610100808354040283529160200191611595565b820191906000526020600020905b81548152906001019060200180831161157857829003601f168201915b505050505081526020016004820180546115ae90614d22565b80601f01602080910402602001604051908101604052809291908181526020018280546115da90614d22565b80156116275780601f106115fc57610100808354040283529160200191611627565b820191906000526020600020905b81548152906001019060200180831161160a57829003601f168201915b5050505050815260200160058201805461164090614d22565b80601f016020809104026020016040519081016040528092919081815260200182805461166c90614d22565b80156116b95780601f1061168e576101008083540402835291602001916116b9565b820191906000526020600020905b81548152906001019060200180831161169c57829003601f168201915b505050505081526020016006820160009054906101000a900473ffffffffffffffffffffffffffffffffffffffff1673ffffffffffffffffffffffffffffffffffffffff1673ffffffffffffffffffffffffffffffffffffffff16815260200160078201805461172890614d22565b80601f016020809104026020016040519081016040528092919081815260200182805461175490614d22565b80156117a15780601f10611776576101008083540402835291602001916117a1565b820191906000526020600020905b81548152906001019060200180831161178457829003601f168201915b50505050508152602001600882015481526020016009820180546117c490614d22565b80601f01602080910402602001604051908101604052809291908181526020018280546117f090614d22565b801561183d5780601f106118125761010080835404028352916020019161183d565b820191906000526020600020905b81548152906001019060200180831161182057829003601f168201915b5050505050815250509050919050565b8273ffffffffffffffffffffffffffffffffffffffff166323b872dd3330846040518463ffffffff1660e01b815260040161188a939291906146cb565b600060405180830381600087803b1580156118a457600080fd5b505af11580156118b8573d6000803e3d6000fd5b505050508273ffffffffffffffffffffffffffffffffffffffff166323b872dd3084846040518463ffffffff1660e01b81526004016118f9939291906146cb565b600060405180830381600087803b15801561191357600080fd5b505af1158015611927573d6000803e3d6000fd5b50505050505050565b6040518061014001604052808a81526020018981526020018581526020018681526020018881526020018781526020013373ffffffffffffffffffffffffffffffffffffffff16815260200184815260200183815260200182815250600960003373ffffffffffffffffffffffffffffffffffffffff1673ffffffffffffffffffffffffffffffffffffffff16815260200190815260200160002060008201518160000190805190602001906119e7929190613793565b506020820151816001019080519060200190611a04929190613793565b506040820151816002019080519060200190611a21929190613793565b506060820151816003019080519060200190611a3e929190613793565b506080820151816004019080519060200190611a5b929190613793565b5060a0820151816005019080519060200190611a78929190613793565b5060c08201518160060160006101000a81548173ffffffffffffffffffffffffffffffffffffffff021916908373ffffffffffffffffffffffffffffffffffffffff16021790555060e0820151816007019080519060200190611adc929190613793565b506101008201518160080155610120820151816009019080519060200190611b05929190613793565b50905050600a339080600181540180825580915050600190039060005260206000200160009091909190916101000a81548173ffffffffffffffffffffffffffffffffffffffff021916908373ffffffffffffffffffffffffffffffffffffffff1602179055507f97c8ee661eec8c93258c4953c2322d519b4e429deb2d33fbb16f71c6f2da7b1d898986888b8b338a8a8a604051611bad9a999897969594939291906147e2565b60405180910390a1505050505050505050565b6060611c6b600360009054906101000a900473ffffffffffffffffffffffffffffffffffffffff1673ffffffffffffffffffffffffffffffffffffffff1663fec331f26040518163ffffffff1660e01b815260040160206040518083038186803b158015611c2d57600080fd5b505afa158015611c41573d6000803e3d6000fd5b505050506040513d601f19601f82011682018060405250810190611c659190613a64565b83610c38565b1561248d5760011515600b60008473ffffffffffffffffffffffffffffffffffffffff1673ffffffffffffffffffffffffffffffffffffffff16815260200190815260200160002060003373ffffffffffffffffffffffffffffffffffffffff1673ffffffffffffffffffffffffffffffffffffffff16815260200190815260200160002060009054906101000a900460ff16151514156120ab57600560008373ffffffffffffffffffffffffffffffffffffffff1673ffffffffffffffffffffffffffffffffffffffff168152602001908152602001600020805480602002602001604051908101604052809291908181526020016000905b828210156120a0578382906000526020600020906008020160405180610100016040529081600082018054611d9990614d22565b80601f0160208091040260200160405190810160405280929190818152602001828054611dc590614d22565b8015611e125780601f10611de757610100808354040283529160200191611e12565b820191906000526020600020905b815481529060010190602001808311611df557829003601f168201915b5050505050815260200160018201548152602001600282018054611e3590614d22565b80601f0160208091040260200160405190810160405280929190818152602001828054611e6190614d22565b8015611eae5780601f10611e8357610100808354040283529160200191611eae565b820191906000526020600020905b815481529060010190602001808311611e9157829003601f168201915b50505050508152602001600382018054611ec790614d22565b80601f0160208091040260200160405190810160405280929190818152602001828054611ef390614d22565b8015611f405780601f10611f1557610100808354040283529160200191611f40565b820191906000526020600020905b815481529060010190602001808311611f2357829003601f168201915b50505050508152602001600482018054611f5990614d22565b80601f0160208091040260200160405190810160405280929190818152602001828054611f8590614d22565b8015611fd25780601f10611fa757610100808354040283529160200191611fd2565b820191906000526020600020905b815481529060010190602001808311611fb557829003601f168201915b50505050508152602001600582015481526020016006820160009054906101000a900473ffffffffffffffffffffffffffffffffffffffff1673ffffffffffffffffffffffffffffffffffffffff1673ffffffffffffffffffffffffffffffffffffffff1681526020016007820160009054906101000a900473ffffffffffffffffffffffffffffffffffffffff1673ffffffffffffffffffffffffffffffffffffffff1673ffffffffffffffffffffffffffffffffffffffff168152505081526020019060010190611d65565b5050505090506128e1565b600860003373ffffffffffffffffffffffffffffffffffffffff1673ffffffffffffffffffffffffffffffffffffffff16815260200190815260200160002060008373ffffffffffffffffffffffffffffffffffffffff1673ffffffffffffffffffffffffffffffffffffffff168152602001908152602001600020805480602002602001604051908101604052809291908181526020016000905b8282101561248257838290600052602060002090600802016040518061010001604052908160008201805461217b90614d22565b80601f01602080910402602001604051908101604052809291908181526020018280546121a790614d22565b80156121f45780601f106121c9576101008083540402835291602001916121f4565b820191906000526020600020905b8154815290600101906020018083116121d757829003601f168201915b505050505081526020016001820154815260200160028201805461221790614d22565b80601f016020809104026020016040519081016040528092919081815260200182805461224390614d22565b80156122905780601f1061226557610100808354040283529160200191612290565b820191906000526020600020905b81548152906001019060200180831161227357829003601f168201915b505050505081526020016003820180546122a990614d22565b80601f01602080910402602001604051908101604052809291908181526020018280546122d590614d22565b80156123225780601f106122f757610100808354040283529160200191612322565b820191906000526020600020905b81548152906001019060200180831161230557829003601f168201915b5050505050815260200160048201805461233b90614d22565b80601f016020809104026020016040519081016040528092919081815260200182805461236790614d22565b80156123b45780601f10612389576101008083540402835291602001916123b4565b820191906000526020600020905b81548152906001019060200180831161239757829003601f168201915b50505050508152602001600582015481526020016006820160009054906101000a900473ffffffffffffffffffffffffffffffffffffffff1673ffffffffffffffffffffffffffffffffffffffff1673ffffffffffffffffffffffffffffffffffffffff1681526020016007820160009054906101000a900473ffffffffffffffffffffffffffffffffffffffff1673ffffffffffffffffffffffffffffffffffffffff1673ffffffffffffffffffffffffffffffffffffffff168152505081526020019060010190612147565b5050505090506128e1565b612536600360009054906101000a900473ffffffffffffffffffffffffffffffffffffffff1673ffffffffffffffffffffffffffffffffffffffff1663ac5cb97d6040518163ffffffff1660e01b815260040160206040518083038186803b1580156124f857600080fd5b505afa15801561250c573d6000803e3d6000fd5b505050506040513d601f19601f820116820180604052508101906125309190613a64565b83610c38565b156128e057600560008373ffffffffffffffffffffffffffffffffffffffff1673ffffffffffffffffffffffffffffffffffffffff168152602001908152602001600020805480602002602001604051908101604052809291908181526020016000905b828210156128d55783829060005260206000209060080201604051806101000160405290816000820180546125ce90614d22565b80601f01602080910402602001604051908101604052809291908181526020018280546125fa90614d22565b80156126475780601f1061261c57610100808354040283529160200191612647565b820191906000526020600020905b81548152906001019060200180831161262a57829003601f168201915b505050505081526020016001820154815260200160028201805461266a90614d22565b80601f016020809104026020016040519081016040528092919081815260200182805461269690614d22565b80156126e35780601f106126b8576101008083540402835291602001916126e3565b820191906000526020600020905b8154815290600101906020018083116126c657829003601f168201915b505050505081526020016003820180546126fc90614d22565b80601f016020809104026020016040519081016040528092919081815260200182805461272890614d22565b80156127755780601f1061274a57610100808354040283529160200191612775565b820191906000526020600020905b81548152906001019060200180831161275857829003601f168201915b5050505050815260200160048201805461278e90614d22565b80601f01602080910402602001604051908101604052809291908181526020018280546127ba90614d22565b80156128075780601f106127dc57610100808354040283529160200191612807565b820191906000526020600020905b8154815290600101906020018083116127ea57829003601f168201915b50505050508152602001600582015481526020016006820160009054906101000a900473ffffffffffffffffffffffffffffffffffffffff1673ffffffffffffffffffffffffffffffffffffffff1673ffffffffffffffffffffffffffffffffffffffff1681526020016007820160009054906101000a900473ffffffffffffffffffffffffffffffffffffffff1673ffffffffffffffffffffffffffffffffffffffff1673ffffffffffffffffffffffffffffffffffffffff16815250508152602001906001019061259a565b5050505090506128e1565b5b919050565b600a81815481106128f657600080fd5b906000526020600020016000915054906101000a900473ffffffffffffffffffffffffffffffffffffffff1681565b6060600760008373ffffffffffffffffffffffffffffffffffffffff1673ffffffffffffffffffffffffffffffffffffffff168152602001908152602001600020805480602002602001604051908101604052809291908181526020016000905b82821015612ea957838290600052602060002090600a0201604051806101400160405290816000820180546129ba90614d22565b80601f01602080910402602001604051908101604052809291908181526020018280546129e690614d22565b8015612a335780601f10612a0857610100808354040283529160200191612a33565b820191906000526020600020905b815481529060010190602001808311612a1657829003601f168201915b50505050508152602001600182018054612a4c90614d22565b80601f0160208091040260200160405190810160405280929190818152602001828054612a7890614d22565b8015612ac55780601f10612a9a57610100808354040283529160200191612ac5565b820191906000526020600020905b815481529060010190602001808311612aa857829003601f168201915b50505050508152602001600282018054612ade90614d22565b80601f0160208091040260200160405190810160405280929190818152602001828054612b0a90614d22565b8015612b575780601f10612b2c57610100808354040283529160200191612b57565b820191906000526020600020905b815481529060010190602001808311612b3a57829003601f168201915b50505050508152602001600382018054612b7090614d22565b80601f0160208091040260200160405190810160405280929190818152602001828054612b9c90614d22565b8015612be95780601f10612bbe57610100808354040283529160200191612be9565b820191906000526020600020905b815481529060010190602001808311612bcc57829003601f168201915b50505050508152602001600482018054612c0290614d22565b80601f0160208091040260200160405190810160405280929190818152602001828054612c2e90614d22565b8015612c7b5780601f10612c5057610100808354040283529160200191612c7b565b820191906000526020600020905b815481529060010190602001808311612c5e57829003601f168201915b50505050508152602001600582018054612c9490614d22565b80601f0160208091040260200160405190810160405280929190818152602001828054612cc090614d22565b8015612d0d5780601f10612ce257610100808354040283529160200191612d0d565b820191906000526020600020905b815481529060010190602001808311612cf057829003601f168201915b505050505081526020016006820160009054906101000a900473ffffffffffffffffffffffffffffffffffffffff1673ffffffffffffffffffffffffffffffffffffffff1673ffffffffffffffffffffffffffffffffffffffff168152602001600782018054612d7c90614d22565b80601f0160208091040260200160405190810160405280929190818152602001828054612da890614d22565b8015612df55780601f10612dca57610100808354040283529160200191612df5565b820191906000526020600020905b815481529060010190602001808311612dd857829003601f168201915b5050505050815260200160088201548152602001600982018054612e1890614d22565b80601f0160208091040260200160405190810160405280929190818152602001828054612e4490614d22565b8015612e915780601f10612e6657610100808354040283529160200191612e91565b820191906000526020600020905b815481529060010190602001808311612e7457829003601f168201915b50505050508152505081526020019060010190612986565b505050509050919050565b6060600c60008373ffffffffffffffffffffffffffffffffffffffff1673ffffffffffffffffffffffffffffffffffffffff168152602001908152602001600020805480602002602001604051908101604052809291908181526020018280548015612f3f57602002820191906000526020600020905b815481526020019060010190808311612f2b575b50505050509050919050565b612f54826105de565b612f6581612f6061316e565b613176565b612f6f83836132f3565b505050565b6001600b60003373ffffffffffffffffffffffffffffffffffffffff1673ffffffffffffffffffffffffffffffffffffffff16815260200190815260200160002060008373ffffffffffffffffffffffffffffffffffffffff1673ffffffffffffffffffffffffffffffffffffffff16815260200190815260200160002060006101000a81548160ff02191690831515021790555050565b61301461316e565b73ffffffffffffffffffffffffffffffffffffffff16613032610c0f565b73ffffffffffffffffffffffffffffffffffffffff1614613088576040517f08c379a000000000000000000000000000000000000000000000000000000000815260040161307f90614990565b60405180910390fd5b600073ffffffffffffffffffffffffffffffffffffffff168173ffffffffffffffffffffffffffffffffffffffff1614156130f8576040517f08c379a00000000000000000000000000000000000000000000000000000000081526004016130ef90614970565b60405180910390fd5b613101816133d5565b50565b60007f01ffc9a7000000000000000000000000000000000000000000000000000000007bffffffffffffffffffffffffffffffffffffffffffffffffffffffff1916827bffffffffffffffffffffffffffffffffffffffffffffffffffffffff1916149050919050565b600033905090565b6131808282610c38565b61320f576131a58173ffffffffffffffffffffffffffffffffffffffff166014613499565b6131b38360001c6020613499565b6040516020016131c4929190614676565b6040516020818303038152906040526040517f08c379a000000000000000000000000000000000000000000000000000000000815260040161320691906147c0565b60405180910390fd5b5050565b61321d8282610c38565b6132ef57600180600084815260200190815260200160002060000160008373ffffffffffffffffffffffffffffffffffffffff1673ffffffffffffffffffffffffffffffffffffffff16815260200190815260200160002060006101000a81548160ff02191690831515021790555061329461316e565b73ffffffffffffffffffffffffffffffffffffffff168173ffffffffffffffffffffffffffffffffffffffff16837f2f8788117e7eff1d82e926ec794901d17c78024a50270940304540a733656f0d60405160405180910390a45b5050565b6132fd8282610c38565b156133d15760006001600084815260200190815260200160002060000160008373ffffffffffffffffffffffffffffffffffffffff1673ffffffffffffffffffffffffffffffffffffffff16815260200190815260200160002060006101000a81548160ff02191690831515021790555061337661316e565b73ffffffffffffffffffffffffffffffffffffffff168173ffffffffffffffffffffffffffffffffffffffff16837ff6391f5c32d9c69d2a47ea670b442974b53935d1edc7fd64eb21e047a839171b60405160405180910390a45b5050565b60008060009054906101000a900473ffffffffffffffffffffffffffffffffffffffff169050816000806101000a81548173ffffffffffffffffffffffffffffffffffffffff021916908373ffffffffffffffffffffffffffffffffffffffff1602179055508173ffffffffffffffffffffffffffffffffffffffff168173ffffffffffffffffffffffffffffffffffffffff167f8be0079c531659141344cd1fd0a4f28419497f9722a3daafe3b4186f6b6457e060405160405180910390a35050565b6060600060028360026134ac9190614bba565b6134b69190614b64565b67ffffffffffffffff8111156134f5577f4e487b7100000000000000000000000000000000000000000000000000000000600052604160045260246000fd5b6040519080825280601f01601f1916602001820160405280156135275781602001600182028036833780820191505090505b5090507f300000000000000000000000000000000000000000000000000000000000000081600081518110613585577f4e487b7100000000000000000000000000000000000000000000000000000000600052603260045260246000fd5b60200101907effffffffffffffffffffffffffffffffffffffffffffffffffffffffffffff1916908160001a9053507f78000000000000000000000000000000000000000000000000000000000000008160018151811061360f577f4e487b7100000000000000000000000000000000000000000000000000000000600052603260045260246000fd5b60200101907effffffffffffffffffffffffffffffffffffffffffffffffffffffffffffff1916908160001a9053506000600184600261364f9190614bba565b6136599190614b64565b90505b6001811115613745577f3031323334353637383961626364656600000000000000000000000000000000600f8616601081106136c1577f4e487b7100000000000000000000000000000000000000000000000000000000600052603260045260246000fd5b1a60f81b8282815181106136fe577f4e487b7100000000000000000000000000000000000000000000000000000000600052603260045260246000fd5b60200101907effffffffffffffffffffffffffffffffffffffffffffffffffffffffffffff1916908160001a905350600485901c94508061373e90614cf8565b905061365c565b5060008414613789576040517f08c379a000000000000000000000000000000000000000000000000000000000815260040161378090614950565b60405180910390fd5b8091505092915050565b82805461379f90614d22565b90600052602060002090601f0160209004810192826137c15760008555613808565b82601f106137da57805160ff1916838001178555613808565b82800160010185558215613808579182015b828111156138075782518255916020019190600101906137ec565b5b509050613815919061390f565b5090565b82805461382590614d22565b90600052602060002090601f0160209004810192826138475760008555613895565b82601f106138585780548555613895565b8280016001018555821561389557600052602060002091601f016020900482015b82811115613894578254825591600101919060010190613879565b5b5090506138a2919061390f565b5090565b604051806101400160405280606081526020016060815260200160608152602001606081526020016060815260200160608152602001600073ffffffffffffffffffffffffffffffffffffffff1681526020016060815260200160008152602001606081525090565b5b80821115613928576000816000905550600101613910565b5090565b600061393f61393a84614a17565b6149f2565b90508281526020810184848401111561395757600080fd5b613962848285614cb6565b509392505050565b60008135905061397981614f65565b92915050565b60008135905061398e81614f7c565b92915050565b6000815190506139a381614f7c565b92915050565b6000813590506139b881614f93565b92915050565b6000813590506139cd81614faa565b92915050565b600082601f8301126139e457600080fd5b81356139f484826020860161392c565b91505092915050565b600081359050613a0c81614fc1565b92915050565b600060208284031215613a2457600080fd5b6000613a328482850161396a565b91505092915050565b600060208284031215613a4d57600080fd5b6000613a5b8482850161397f565b91505092915050565b600060208284031215613a7657600080fd5b6000613a8484828501613994565b91505092915050565b60008060408385031215613aa057600080fd5b6000613aae8582860161397f565b9250506020613abf8582860161396a565b9150509250929050565b600060208284031215613adb57600080fd5b6000613ae9848285016139a9565b91505092915050565b600080600060608486031215613b0757600080fd5b6000613b15868287016139be565b9350506020613b268682870161396a565b9250506040613b37868287016139fd565b9150509250925092565b6000806000806000806000806000806101408b8d031215613b6157600080fd5b60008b013567ffffffffffffffff811115613b7b57600080fd5b613b878d828e016139d3565b9a505060208b013567ffffffffffffffff811115613ba457600080fd5b613bb08d828e016139d3565b99505060408b013567ffffffffffffffff811115613bcd57600080fd5b613bd98d828e016139d3565b98505060608b013567ffffffffffffffff811115613bf657600080fd5b613c028d828e016139d3565b97505060808b013567ffffffffffffffff811115613c1f57600080fd5b613c2b8d828e016139d3565b96505060a08b013567ffffffffffffffff811115613c4857600080fd5b613c548d828e016139d3565b95505060c08b013567ffffffffffffffff811115613c7157600080fd5b613c7d8d828e016139d3565b94505060e0613c8e8d828e0161396a565b935050610100613ca08d828e016139fd565b9250506101208b013567ffffffffffffffff811115613cbe57600080fd5b613cca8d828e016139d3565b9150509295989b9194979a5092959850565b60008060008060008060008060006101208a8c031215613cfb57600080fd5b60008a013567ffffffffffffffff811115613d1557600080fd5b613d218c828d016139d3565b99505060208a013567ffffffffffffffff811115613d3e57600080fd5b613d4a8c828d016139d3565b98505060408a013567ffffffffffffffff811115613d6757600080fd5b613d738c828d016139d3565b97505060608a013567ffffffffffffffff811115613d9057600080fd5b613d9c8c828d016139d3565b96505060808a013567ffffffffffffffff811115613db957600080fd5b613dc58c828d016139d3565b95505060a08a013567ffffffffffffffff811115613de257600080fd5b613dee8c828d016139d3565b94505060c08a013567ffffffffffffffff811115613e0b57600080fd5b613e178c828d016139d3565b93505060e0613e288c828d016139fd565b9250506101008a013567ffffffffffffffff811115613e4657600080fd5b613e528c828d016139d3565b9150509295985092959850929598565b60008060008060008060c08789031215613e7b57600080fd5b600087013567ffffffffffffffff811115613e9557600080fd5b613ea189828a016139d3565b9650506020613eb289828a016139fd565b955050604087013567ffffffffffffffff811115613ecf57600080fd5b613edb89828a016139d3565b945050606087013567ffffffffffffffff811115613ef857600080fd5b613f0489828a016139d3565b935050608087013567ffffffffffffffff811115613f2157600080fd5b613f2d89828a016139d3565b92505060a0613f3e89828a0161396a565b9150509295509295509295565b600060208284031215613f5d57600080fd5b6000613f6b848285016139fd565b91505092915050565b60008060408385031215613f8757600080fd5b6000613f95858286016139fd565b9250506020613fa68582860161396a565b9150509250929050565b6000613fbc8383614026565b60208301905092915050565b6000613fd4838361437d565b905092915050565b6000613fe88383614442565b905092915050565b6000613ffc8383614658565b60208301905092915050565b61401181614c26565b82525050565b61402081614c26565b82525050565b61402f81614c14565b82525050565b61403e81614c14565b82525050565b600061404f82614a88565b6140598185614af3565b935061406483614a48565b8060005b8381101561409557815161407c8882613fb0565b975061408783614abf565b925050600181019050614068565b5085935050505092915050565b60006140ad82614a93565b6140b78185614b04565b9350836020820285016140c985614a58565b8060005b8581101561410557848403895281516140e68582613fc8565b94506140f183614acc565b925060208a019950506001810190506140cd565b50829750879550505050505092915050565b600061412282614a9e565b61412c8185614b15565b93508360208202850161413e85614a68565b8060005b8581101561417a578484038952815161415b8582613fdc565b945061416683614ad9565b925060208a01995050600181019050614142565b50829750879550505050505092915050565b600061419782614aa9565b6141a18185614b26565b93506141ac83614a78565b8060005b838110156141dd5781516141c48882613ff0565b97506141cf83614ae6565b9250506001810190506141b0565b5085935050505092915050565b6141f381614c38565b82525050565b61420281614c44565b82525050565b600061421382614ab4565b61421d8185614b37565b935061422d818560208601614cc5565b61423681614e12565b840191505092915050565b600061424c82614ab4565b6142568185614b48565b9350614266818560208601614cc5565b61426f81614e12565b840191505092915050565b600061428582614ab4565b61428f8185614b59565b935061429f818560208601614cc5565b80840191505092915050565b60006142b8602083614b48565b91506142c382614e23565b602082019050919050565b60006142db602683614b48565b91506142e682614e4c565b604082019050919050565b60006142fe602083614b48565b915061430982614e9b565b602082019050919050565b6000614321601783614b59565b915061432c82614ec4565b601782019050919050565b6000614344601183614b59565b915061434f82614eed565b601182019050919050565b6000614367602f83614b48565b915061437282614f16565b604082019050919050565b600061010083016000830151848203600086015261439b8282614208565b91505060208301516143b06020860182614658565b50604083015184820360408601526143c88282614208565b915050606083015184820360608601526143e28282614208565b915050608083015184820360808601526143fc8282614208565b91505060a083015161441160a0860182614658565b5060c083015161442460c0860182614026565b5060e083015161443760e0860182614008565b508091505092915050565b60006101408301600083015184820360008601526144608282614208565b9150506020830151848203602086015261447a8282614208565b915050604083015184820360408601526144948282614208565b915050606083015184820360608601526144ae8282614208565b915050608083015184820360808601526144c88282614208565b91505060a083015184820360a08601526144e28282614208565b91505060c08301516144f760c0860182614026565b5060e083015184820360e086015261450f8282614208565b915050610100830151614526610100860182614658565b506101208301518482036101208601526145408282614208565b9150508091505092915050565b600061014083016000830151848203600086015261456b8282614208565b915050602083015184820360208601526145858282614208565b9150506040830151848203604086015261459f8282614208565b915050606083015184820360608601526145b98282614208565b915050608083015184820360808601526145d38282614208565b91505060a083015184820360a08601526145ed8282614208565b91505060c083015161460260c0860182614026565b5060e083015184820360e086015261461a8282614208565b915050610100830151614631610100860182614658565b5061012083015184820361012086015261464b8282614208565b9150508091505092915050565b61466181614cac565b82525050565b61467081614cac565b82525050565b600061468182614314565b915061468d828561427a565b915061469882614337565b91506146a4828461427a565b91508190509392505050565b60006020820190506146c56000830184614035565b92915050565b60006060820190506146e06000830186614035565b6146ed6020830185614035565b6146fa6040830184614667565b949350505050565b6000602082019050818103600083015261471c8184614044565b905092915050565b6000602082019050818103600083015261473e81846140a2565b905092915050565b600060208201905081810360008301526147608184614117565b905092915050565b60006020820190508181036000830152614782818461418c565b905092915050565b600060208201905061479f60008301846141ea565b92915050565b60006020820190506147ba60008301846141f9565b92915050565b600060208201905081810360008301526147da8184614241565b905092915050565b60006101408201905081810360008301526147fd818d614241565b90508181036020830152614811818c614241565b90508181036040830152614825818b614241565b90508181036060830152614839818a614241565b9050818103608083015261484d8189614241565b905081810360a08301526148618188614241565b905061487060c0830187614035565b81810360e08301526148828186614241565b9050614892610100830185614667565b8181036101208301526148a58184614241565b90509b9a5050505050505050505050565b60006101008201905081810360008301526148d1818b614241565b90506148e0602083018a614667565b81810360408301526148f28189614241565b905081810360608301526149068188614241565b9050818103608083015261491a8187614241565b905061492960a0830186614667565b61493660c0830185614035565b61494360e0830184614017565b9998505050505050505050565b60006020820190508181036000830152614969816142ab565b9050919050565b60006020820190508181036000830152614989816142ce565b9050919050565b600060208201905081810360008301526149a9816142f1565b9050919050565b600060208201905081810360008301526149c98161435a565b9050919050565b600060208201905081810360008301526149ea818461454d565b905092915050565b60006149fc614a0d565b9050614a088282614d54565b919050565b6000604051905090565b600067ffffffffffffffff821115614a3257614a31614de3565b5b614a3b82614e12565b9050602081019050919050565b6000819050602082019050919050565b6000819050602082019050919050565b6000819050602082019050919050565b6000819050602082019050919050565b600081519050919050565b600081519050919050565b600081519050919050565b600081519050919050565b600081519050919050565b6000602082019050919050565b6000602082019050919050565b6000602082019050919050565b6000602082019050919050565b600082825260208201905092915050565b600082825260208201905092915050565b600082825260208201905092915050565b600082825260208201905092915050565b600082825260208201905092915050565b600082825260208201905092915050565b600081905092915050565b6000614b6f82614cac565b9150614b7a83614cac565b9250827fffffffffffffffffffffffffffffffffffffffffffffffffffffffffffffffff03821115614baf57614bae614d85565b5b828201905092915050565b6000614bc582614cac565b9150614bd083614cac565b9250817fffffffffffffffffffffffffffffffffffffffffffffffffffffffffffffffff0483118215151615614c0957614c08614d85565b5b828202905092915050565b6000614c1f82614c8c565b9050919050565b6000614c3182614c8c565b9050919050565b60008115159050919050565b6000819050919050565b60007fffffffff0000000000000000000000000000000000000000000000000000000082169050919050565b6000614c8582614c14565b9050919050565b600073ffffffffffffffffffffffffffffffffffffffff82169050919050565b6000819050919050565b82818337600083830152505050565b60005b83811015614ce3578082015181840152602081019050614cc8565b83811115614cf2576000848401525b50505050565b6000614d0382614cac565b91506000821415614d1757614d16614d85565b5b600182039050919050565b60006002820490506001821680614d3a57607f821691505b60208210811415614d4e57614d4d614db4565b5b50919050565b614d5d82614e12565b810181811067ffffffffffffffff82111715614d7c57614d7b614de3565b5b80604052505050565b7f4e487b7100000000000000000000000000000000000000000000000000000000600052601160045260246000fd5b7f4e487b7100000000000000000000000000000000000000000000000000000000600052602260045260246000fd5b7f4e487b7100000000000000000000000000000000000000000000000000000000600052604160045260246000fd5b6000601f19601f8301169050919050565b7f537472696e67733a20686578206c656e67746820696e73756666696369656e74600082015250565b7f4f776e61626c653a206e6577206f776e657220697320746865207a65726f206160008201527f6464726573730000000000000000000000000000000000000000000000000000602082015250565b7f4f776e61626c653a2063616c6c6572206973206e6f7420746865206f776e6572600082015250565b7f416363657373436f6e74726f6c3a206163636f756e7420000000000000000000600082015250565b7f206973206d697373696e6720726f6c6520000000000000000000000000000000600082015250565b7f416363657373436f6e74726f6c3a2063616e206f6e6c792072656e6f756e636560008201527f20726f6c657320666f722073656c660000000000000000000000000000000000602082015250565b614f6e81614c14565b8114614f7957600080fd5b50565b614f8581614c44565b8114614f9057600080fd5b50565b614f9c81614c4e565b8114614fa757600080fd5b50565b614fb381614c7a565b8114614fbe57600080fd5b50565b614fca81614cac565b8114614fd557600080fd5b5056fea2646970667358221220913dada3432ef5337847d3c7f20901f6972c25504b3f5a22806cbb3e250f12d964736f6c63430008040033",
  "immutableReferences": {},
  "source": "pragma solidity 0.8.4;\r\n\r\nimport \"@openzeppelin/contracts/access/Ownable.sol\";\r\nimport \"@openzeppelin/contracts/access/AccessControl.sol\";\r\nimport \"./Registration.sol\";\r\nimport \"./DStorage.sol\";\r\nimport \"@openzeppelin/contracts/token/ERC721/IERC721.sol\";\r\nimport \"@openzeppelin/contracts/security/ReentrancyGuard.sol\";\r\n\r\n\r\ncontract Patients is Ownable, AccessControl, ReentrancyGuard {\r\n\r\n    Registration _registration;\r\n    DStorage _dstorage;\r\n\r\n    struct File {\r\n      string fileHash;\r\n      uint fileSize;\r\n      string fileType;\r\n      string fileName;\r\n      string fileDescription;\r\n      uint uploadTime;\r\n      address patient_address;\r\n      address payable uploader;\r\n    }\r\n\r\n    event FileUploaded(\r\n      string fileHash,\r\n      uint fileSize,\r\n      string fileType,\r\n      string fileName,\r\n      string fileDescription,\r\n      uint uploadTime,\r\n      address patient_address,\r\n      address payable uploader\r\n  );\r\n\r\n    struct Doctor {\r\n        uint age;\r\n        string name;\r\n        string specialization;\r\n        uint hospitalId;\r\n    }\r\n\r\n    constructor(address registrationA) public {\r\n        _registration = Registration(registrationA);\r\n    }\r\n\r\n    struct Patient {\r\n        string firstName;\r\n        string lastName;\r\n        string country;\r\n        string city;\r\n        string gender;\r\n        string _addressLocation;\r\n        address _address;\r\n        string CNP;\r\n        uint birthDate;\r\n        string _hash;\r\n    }\r\n\r\n    event AddPatient(\r\n      string firstName,\r\n      string lastName,\r\n      string country,\r\n      string city,\r\n      string gender,\r\n      string _addressLocation,\r\n      address _address,\r\n      string CNP,\r\n      uint birthDate,\r\n      string _hash\r\n  );\r\n    \r\n    mapping(address => File[]) medical_records;\r\n    // mapping(address => Doctor[]) doctors;\r\n    mapping(address => mapping(address => bool)) doctors;\r\n\r\n    mapping(address => Patient[]) patientsOfDoctor;\r\n    mapping(address => mapping(address => File[])) patient_files;\r\n\r\n    mapping(address => Patient) patients;\r\n    address[] public patientAccounts;\r\n\r\n    mapping(address => mapping(address => bool)) history_approved;\r\n\r\n    mapping(address => uint[]) files;\r\n\r\n    function addFileNft(uint _tokenId, address _to) public{\r\n        files[_to].push(_tokenId);\r\n    }\r\n\r\n    function transferFileDoctor(IERC721 _nft, address _doctor, uint _tokenId) external {\r\n        _nft.transferFrom(msg.sender, address(this), _tokenId);\r\n        _nft.transferFrom(address(this), _doctor, _tokenId);\r\n    }\r\n\r\n    function getFilesForUser(address _address) public returns(uint[] memory)\r\n    {\r\n        return files[_address];\r\n    }\r\n\r\n    function giveHistoryPermission(address _address) public{\r\n        history_approved[msg.sender][_address] = true;\r\n    }\r\n\r\n    function registerAPatientAsDoctor(string memory fname, string memory lname, string memory gender, string memory addressLocation,\r\n        string memory city, string memory country, string memory cnp, address _address, uint birthDate, string memory _hash) public{\r\n        \r\n        patients[_address] = Patient(fname, lname, country, city, gender, addressLocation, _address, cnp, birthDate, _hash);\r\n        patientsOfDoctor[msg.sender].push(patients[_address]);\r\n        doctors[_address][msg.sender] = true;\r\n        \r\n        // _setupRole(_registration.PATIENT_ROLE(), _address);\r\n        // _registration.addUser(_address);\r\n\r\n        emit AddPatient(fname, lname, country, city, gender, addressLocation, _address, cnp, birthDate, _hash);\r\n    } \r\n\r\n    function registerPatient(string memory fname, string memory lname, string memory gender, string memory addressLocation,\r\n        string memory city, string memory country, string memory cnp, uint birthDate, string memory _hash) public{\r\n        \r\n       \r\n        patients[msg.sender] = Patient(fname, lname, country, city, gender, addressLocation, msg.sender, cnp, birthDate, _hash);\r\n        patientAccounts.push(msg.sender);\r\n        // _setupRole(_registration.PATIENT_ROLE(), 0x681536517EEd5a1622485bf61119F27F477A871f);\r\n        // _registration.addUser(tx.origin);\r\n\r\n        emit AddPatient(fname, lname, country, city, gender, addressLocation, msg.sender, cnp, birthDate, _hash);\r\n\r\n    } \r\n\r\n    function getPatientFiles(address _address) view public returns(File[] memory){\r\n        if(hasRole(_registration.DOCTOR_ROLE(), _address)){\r\n            if (history_approved[_address][msg.sender] == true) {\r\n                // is a doctor which has access to the medical history of the patient\r\n                return medical_records[_address];\r\n            }\r\n            else {\r\n                // is a doctor which has not access to the medical history of the patient\r\n                // and will receive only the corresponding medical records\r\n                return patient_files[msg.sender][_address];\r\n            }\r\n        }\r\n        else if (hasRole(_registration.PATIENT_ROLE(), _address)) { \r\n            // is a patient who wants to retrieve his files\r\n            return medical_records[_address];\r\n        }\r\n    }\r\n\r\n    function addFile(string memory _fileHash, uint _fileSize, string memory _fileType, string memory _fileName, string memory _fileDescription, address patient_address) public onlyRole(_registration.DOCTOR_ROLE()){\r\n        // Make sure the file hash exists\r\n        require(bytes(_fileHash).length > 0);\r\n\r\n        // Make sure file type exists\r\n        require(bytes(_fileType).length > 0);\r\n\r\n        // Make sure file description exists\r\n        require(bytes(_fileDescription).length > 0);\r\n\r\n        // Make sure file fileName exists\r\n        require(bytes(_fileName).length > 0);\r\n\r\n        // Make sure uploader address exists\r\n        require(msg.sender != address(0));\r\n\r\n        // Make sure file size is more than 0\r\n        require(_fileSize > 0);\r\n\r\n        medical_records[patient_address].push(File(_fileHash, _fileSize, _fileType, _fileName, _fileDescription, block.timestamp, patient_address, payable(msg.sender)));\r\n        patient_files[msg.sender][patient_address].push(File(_fileHash, _fileSize, _fileType, _fileName, _fileDescription, block.timestamp, patient_address, payable(msg.sender)));\r\n        // Trigger an event\r\n\r\n        emit FileUploaded(_fileHash, _fileSize, _fileType, _fileName, _fileDescription, block.timestamp, patient_address, payable(msg.sender));\r\n    }\r\n\r\n    function getPatientsOfDoctor(address _address) view public returns(Patient[] memory){\r\n        return patientsOfDoctor[_address];\r\n    }\r\n\r\n    function returnPatientFile() view public returns(string memory){\r\n        return patients[msg.sender]._hash;\r\n    }\r\n\r\n    function getPatient(address _address) view public returns(Patient memory){\r\n        return patients[_address];\r\n    }\r\n\r\n    function getPatientsAccount() view public returns(address[] memory){\r\n        return patientAccounts;\r\n    }\r\n}",
  "sourcePath": "C:\\Licenta\\Licenta\\src\\contracts\\Patients.sol",
  "compiler": {
    "name": "solc",
    "version": "0.8.4+commit.c7e474f2.Emscripten.clang"
  },
  "schemaVersion": "3.2.3",
  "updatedAt": "2022-06-13T13:47:43.233Z",
  "networkType": "ethereum",
  "devdoc": {
    "kind": "dev",
    "methods": {
      "getRoleAdmin(bytes32)": {
        "details": "Returns the admin role that controls `role`. See {grantRole} and {revokeRole}. To change a role's admin, use {_setRoleAdmin}."
      },
      "grantRole(bytes32,address)": {
        "details": "Grants `role` to `account`. If `account` had not been already granted `role`, emits a {RoleGranted} event. Requirements: - the caller must have ``role``'s admin role."
      },
      "hasRole(bytes32,address)": {
        "details": "Returns `true` if `account` has been granted `role`."
      },
      "owner()": {
        "details": "Returns the address of the current owner."
      },
      "renounceOwnership()": {
        "details": "Leaves the contract without owner. It will not be possible to call `onlyOwner` functions anymore. Can only be called by the current owner. NOTE: Renouncing ownership will leave the contract without an owner, thereby removing any functionality that is only available to the owner."
      },
      "renounceRole(bytes32,address)": {
        "details": "Revokes `role` from the calling account. Roles are often managed via {grantRole} and {revokeRole}: this function's purpose is to provide a mechanism for accounts to lose their privileges if they are compromised (such as when a trusted device is misplaced). If the calling account had been revoked `role`, emits a {RoleRevoked} event. Requirements: - the caller must be `account`."
      },
      "revokeRole(bytes32,address)": {
        "details": "Revokes `role` from `account`. If `account` had been granted `role`, emits a {RoleRevoked} event. Requirements: - the caller must have ``role``'s admin role."
      },
      "supportsInterface(bytes4)": {
        "details": "See {IERC165-supportsInterface}."
      },
      "transferOwnership(address)": {
        "details": "Transfers ownership of the contract to a new account (`newOwner`). Can only be called by the current owner."
      }
    },
    "version": 1
  },
  "userdoc": {
    "kind": "user",
    "methods": {},
    "version": 1
  }
}