{
  "contractName": "Registration",
  "abi": [
    {
      "inputs": [],
      "stateMutability": "nonpayable",
      "type": "constructor"
    },
    {
      "anonymous": false,
      "inputs": [
        {
          "indexed": true,
          "internalType": "address",
          "name": "previousOwner",
          "type": "address"
        },
        {
          "indexed": true,
          "internalType": "address",
          "name": "newOwner",
          "type": "address"
        }
      ],
      "name": "OwnershipTransferred",
      "type": "event"
    },
    {
      "anonymous": false,
      "inputs": [
        {
          "indexed": true,
          "internalType": "bytes32",
          "name": "role",
          "type": "bytes32"
        },
        {
          "indexed": true,
          "internalType": "bytes32",
          "name": "previousAdminRole",
          "type": "bytes32"
        },
        {
          "indexed": true,
          "internalType": "bytes32",
          "name": "newAdminRole",
          "type": "bytes32"
        }
      ],
      "name": "RoleAdminChanged",
      "type": "event"
    },
    {
      "anonymous": false,
      "inputs": [
        {
          "indexed": true,
          "internalType": "bytes32",
          "name": "role",
          "type": "bytes32"
        },
        {
          "indexed": true,
          "internalType": "address",
          "name": "account",
          "type": "address"
        },
        {
          "indexed": true,
          "internalType": "address",
          "name": "sender",
          "type": "address"
        }
      ],
      "name": "RoleGranted",
      "type": "event"
    },
    {
      "anonymous": false,
      "inputs": [
        {
          "indexed": true,
          "internalType": "bytes32",
          "name": "role",
          "type": "bytes32"
        },
        {
          "indexed": true,
          "internalType": "address",
          "name": "account",
          "type": "address"
        },
        {
          "indexed": true,
          "internalType": "address",
          "name": "sender",
          "type": "address"
        }
      ],
      "name": "RoleRevoked",
      "type": "event"
    },
    {
      "inputs": [],
      "name": "ADMIN_ROLE",
      "outputs": [
        {
          "internalType": "bytes32",
          "name": "",
          "type": "bytes32"
        }
      ],
      "stateMutability": "view",
      "type": "function",
      "constant": true
    },
    {
      "inputs": [],
      "name": "DEFAULT_ADMIN_ROLE",
      "outputs": [
        {
          "internalType": "bytes32",
          "name": "",
          "type": "bytes32"
        }
      ],
      "stateMutability": "view",
      "type": "function",
      "constant": true
    },
    {
      "inputs": [],
      "name": "DOCTOR_ROLE",
      "outputs": [
        {
          "internalType": "bytes32",
          "name": "",
          "type": "bytes32"
        }
      ],
      "stateMutability": "view",
      "type": "function",
      "constant": true
    },
    {
      "inputs": [],
      "name": "PATIENT_ROLE",
      "outputs": [
        {
          "internalType": "bytes32",
          "name": "",
          "type": "bytes32"
        }
      ],
      "stateMutability": "view",
      "type": "function",
      "constant": true
    },
    {
      "inputs": [],
      "name": "RESEARCHER_ROLE",
      "outputs": [
        {
          "internalType": "bytes32",
          "name": "",
          "type": "bytes32"
        }
      ],
      "stateMutability": "view",
      "type": "function",
      "constant": true
    },
    {
      "inputs": [
        {
          "internalType": "bytes32",
          "name": "role",
          "type": "bytes32"
        }
      ],
      "name": "getRoleAdmin",
      "outputs": [
        {
          "internalType": "bytes32",
          "name": "",
          "type": "bytes32"
        }
      ],
      "stateMutability": "view",
      "type": "function",
      "constant": true
    },
    {
      "inputs": [
        {
          "internalType": "bytes32",
          "name": "role",
          "type": "bytes32"
        },
        {
          "internalType": "address",
          "name": "account",
          "type": "address"
        }
      ],
      "name": "grantRole",
      "outputs": [],
      "stateMutability": "nonpayable",
      "type": "function"
    },
    {
      "inputs": [
        {
          "internalType": "bytes32",
          "name": "role",
          "type": "bytes32"
        },
        {
          "internalType": "address",
          "name": "account",
          "type": "address"
        }
      ],
      "name": "hasRole",
      "outputs": [
        {
          "internalType": "bool",
          "name": "",
          "type": "bool"
        }
      ],
      "stateMutability": "view",
      "type": "function",
      "constant": true
    },
    {
      "inputs": [],
      "name": "owner",
      "outputs": [
        {
          "internalType": "address",
          "name": "",
          "type": "address"
        }
      ],
      "stateMutability": "view",
      "type": "function",
      "constant": true
    },
    {
      "inputs": [],
      "name": "renounceOwnership",
      "outputs": [],
      "stateMutability": "nonpayable",
      "type": "function"
    },
    {
      "inputs": [
        {
          "internalType": "bytes32",
          "name": "role",
          "type": "bytes32"
        },
        {
          "internalType": "address",
          "name": "account",
          "type": "address"
        }
      ],
      "name": "renounceRole",
      "outputs": [],
      "stateMutability": "nonpayable",
      "type": "function"
    },
    {
      "inputs": [
        {
          "internalType": "bytes32",
          "name": "role",
          "type": "bytes32"
        },
        {
          "internalType": "address",
          "name": "account",
          "type": "address"
        }
      ],
      "name": "revokeRole",
      "outputs": [],
      "stateMutability": "nonpayable",
      "type": "function"
    },
    {
      "inputs": [
        {
          "internalType": "bytes4",
          "name": "interfaceId",
          "type": "bytes4"
        }
      ],
      "name": "supportsInterface",
      "outputs": [
        {
          "internalType": "bool",
          "name": "",
          "type": "bool"
        }
      ],
      "stateMutability": "view",
      "type": "function",
      "constant": true
    },
    {
      "inputs": [
        {
          "internalType": "address",
          "name": "newOwner",
          "type": "address"
        }
      ],
      "name": "transferOwnership",
      "outputs": [],
      "stateMutability": "nonpayable",
      "type": "function"
    },
    {
      "inputs": [],
      "name": "userCount",
      "outputs": [
        {
          "internalType": "uint256",
          "name": "",
          "type": "uint256"
        }
      ],
      "stateMutability": "view",
      "type": "function",
      "constant": true
    },
    {
      "inputs": [
        {
          "internalType": "address",
          "name": "",
          "type": "address"
        }
      ],
      "name": "users",
      "outputs": [
        {
          "internalType": "bool",
          "name": "",
          "type": "bool"
        }
      ],
      "stateMutability": "view",
      "type": "function",
      "constant": true
    },
    {
      "inputs": [
        {
          "internalType": "address",
          "name": "_user",
          "type": "address"
        }
      ],
      "name": "addUser",
      "outputs": [],
      "stateMutability": "nonpayable",
      "type": "function"
    },
    {
      "inputs": [
        {
          "internalType": "address",
          "name": "_user",
          "type": "address"
        }
      ],
      "name": "userExists",
      "outputs": [
        {
          "internalType": "bool",
          "name": "",
          "type": "bool"
        }
      ],
      "stateMutability": "nonpayable",
      "type": "function"
    },
    {
      "inputs": [],
      "name": "getUserCount",
      "outputs": [
        {
          "internalType": "uint256",
          "name": "",
          "type": "uint256"
        }
      ],
      "stateMutability": "nonpayable",
      "type": "function"
    },
    {
      "inputs": [
        {
          "internalType": "address",
          "name": "_address",
          "type": "address"
        }
      ],
      "name": "addPatient",
      "outputs": [],
      "stateMutability": "nonpayable",
      "type": "function"
    },
    {
      "inputs": [
        {
          "internalType": "address",
          "name": "_address",
          "type": "address"
        }
      ],
      "name": "addDoctor",
      "outputs": [],
      "stateMutability": "nonpayable",
      "type": "function"
    },
    {
      "inputs": [
        {
          "internalType": "address",
          "name": "_address",
          "type": "address"
        }
      ],
      "name": "addAdmin",
      "outputs": [],
      "stateMutability": "nonpayable",
      "type": "function"
    },
    {
      "inputs": [
        {
          "internalType": "address",
          "name": "_address",
          "type": "address"
        }
      ],
      "name": "addResearcher",
      "outputs": [],
      "stateMutability": "nonpayable",
      "type": "function"
    },
    {
      "inputs": [
        {
          "internalType": "address",
          "name": "_address",
          "type": "address"
        }
      ],
      "name": "getRole",
      "outputs": [
        {
          "internalType": "string",
          "name": "",
          "type": "string"
        }
      ],
      "stateMutability": "view",
      "type": "function",
      "constant": true
    }
  ],
  "bytecode": "0x60806040523480156200001157600080fd5b506200003262000026620000a360201b60201c565b620000ab60201b60201c565b62000057735c4e9fccd53c74a4ce7c9fc14aac38a81f9ae9836200016f60201b60201c565b6200009d7fa49807205ce4d355092ef5a8a18f56e8913cf4a201fbe287825b095693c21775735c4e9fccd53c74a4ce7c9fc14aac38a81f9ae9836200024260201b60201c565b6200043b565b600033905090565b60008060009054906101000a900473ffffffffffffffffffffffffffffffffffffffff169050816000806101000a81548173ffffffffffffffffffffffffffffffffffffffff021916908373ffffffffffffffffffffffffffffffffffffffff1602179055508173ffffffffffffffffffffffffffffffffffffffff168173ffffffffffffffffffffffffffffffffffffffff167f8be0079c531659141344cd1fd0a4f28419497f9722a3daafe3b4186f6b6457e060405160405180910390a35050565b60001515600260008373ffffffffffffffffffffffffffffffffffffffff1673ffffffffffffffffffffffffffffffffffffffff16815260200190815260200160002060009054906101000a900460ff16151514620001cd57600080fd5b6001600260008373ffffffffffffffffffffffffffffffffffffffff1673ffffffffffffffffffffffffffffffffffffffff16815260200190815260200160002060006101000a81548160ff021916908315150217905550600360008154809291906200023a90620003be565b919050555050565b6200025482826200025860201b60201c565b5050565b6200026a82826200034960201b60201c565b6200034557600180600084815260200190815260200160002060000160008373ffffffffffffffffffffffffffffffffffffffff1673ffffffffffffffffffffffffffffffffffffffff16815260200190815260200160002060006101000a81548160ff021916908315150217905550620002ea620000a360201b60201c565b73ffffffffffffffffffffffffffffffffffffffff168173ffffffffffffffffffffffffffffffffffffffff16837f2f8788117e7eff1d82e926ec794901d17c78024a50270940304540a733656f0d60405160405180910390a45b5050565b60006001600084815260200190815260200160002060000160008373ffffffffffffffffffffffffffffffffffffffff1673ffffffffffffffffffffffffffffffffffffffff16815260200190815260200160002060009054906101000a900460ff16905092915050565b6000819050919050565b6000620003cb82620003b4565b91507fffffffffffffffffffffffffffffffffffffffffffffffffffffffffffffffff8214156200040157620004006200040c565b5b600182019050919050565b7f4e487b7100000000000000000000000000000000000000000000000000000000600052601160045260246000fd5b611ad6806200044b6000396000f3fe608060405234801561001057600080fd5b50600436106101585760003560e01c806370480275116100c3578063a87430ba1161007c578063a87430ba146103b1578063ac5cb97d146103e1578063b5cb15f7146103ff578063d547741f1461041d578063f2fde38b14610439578063fec331f21461045557610158565b80637048027514610301578063715018a61461031d57806375b238fc146103275780638da5cb5b1461034557806391d1485414610363578063a217fddf1461039357610158565b806336568abe1161011557806336568abe14610243578063421b2d8b1461025f578063442767331461027b5780634780468f146102ab57806350f2aab3146102c75780636d263ceb146102e557610158565b806301ffc9a71461015d57806307973ccf1461018d5780630e666e49146101ab578063248a9ca3146101db57806328bde6151461020b5780632f2ff15d14610227575b600080fd5b610177600480360381019061017291906113f5565b610473565b60405161018491906115eb565b60405180910390f35b6101956104ed565b6040516101a291906116c3565b60405180910390f35b6101c560048036038101906101c09190611367565b6104f3565b6040516101d291906115eb565b60405180910390f35b6101f560048036038101906101f09190611390565b610561565b6040516102029190611606565b60405180910390f35b61022560048036038101906102209190611367565b610581565b005b610241600480360381019061023c91906113b9565b6105b7565b005b61025d600480360381019061025891906113b9565b6105e0565b005b61027960048036038101906102749190611367565b610663565b005b61029560048036038101906102909190611367565b610733565b6040516102a29190611621565b60405180910390f35b6102c560048036038101906102c09190611367565b6108eb565b005b6102cf610921565b6040516102dc9190611606565b60405180910390f35b6102ff60048036038101906102fa9190611367565b610945565b005b61031b60048036038101906103169190611367565b61097b565b005b6103256109b1565b005b61032f610a39565b60405161033c9190611606565b60405180910390f35b61034d610a5d565b60405161035a91906115d0565b60405180910390f35b61037d600480360381019061037891906113b9565b610a86565b60405161038a91906115eb565b60405180910390f35b61039b610af1565b6040516103a89190611606565b60405180910390f35b6103cb60048036038101906103c69190611367565b610af8565b6040516103d891906115eb565b60405180910390f35b6103e9610b18565b6040516103f69190611606565b60405180910390f35b610407610b3c565b60405161041491906116c3565b60405180910390f35b610437600480360381019061043291906113b9565b610b46565b005b610453600480360381019061044e9190611367565b610b6f565b005b61045d610c67565b60405161046a9190611606565b60405180910390f35b60007f7965db0b000000000000000000000000000000000000000000000000000000007bffffffffffffffffffffffffffffffffffffffffffffffffffffffff1916827bffffffffffffffffffffffffffffffffffffffffffffffffffffffff191614806104e657506104e582610c8b565b5b9050919050565b60035481565b600060011515600260008473ffffffffffffffffffffffffffffffffffffffff1673ffffffffffffffffffffffffffffffffffffffff16815260200190815260200160002060009054906101000a900460ff1615151415610557576001905061055c565b600090505b919050565b600060016000838152602001908152602001600020600101549050919050565b6105ab7f7765bfe615aab9fb9a16bd4c5c9b353f39dae79ca7da86094b0a74ea8a89e59a82610cf5565b6105b481610663565b50565b6105c082610561565b6105d1816105cc610d03565b610d0b565b6105db8383610da8565b505050565b6105e8610d03565b73ffffffffffffffffffffffffffffffffffffffff168173ffffffffffffffffffffffffffffffffffffffff1614610655576040517f08c379a000000000000000000000000000000000000000000000000000000000815260040161064c906116a3565b60405180910390fd5b61065f8282610e88565b5050565b60001515600260008373ffffffffffffffffffffffffffffffffffffffff1673ffffffffffffffffffffffffffffffffffffffff16815260200190815260200160002060009054906101000a900460ff161515146106c057600080fd5b6001600260008373ffffffffffffffffffffffffffffffffffffffff1673ffffffffffffffffffffffffffffffffffffffff16815260200190815260200160002060006101000a81548160ff0219169083151502179055506003600081548092919061072b90611890565b919050555050565b606061075f7f72606200fac42b7dc86b75901d61ecfab2a4a1a6eded478b97a428094891abed83610a86565b156107a1576040518060400160405280600781526020017f50415449454e540000000000000000000000000000000000000000000000000081525090506108e6565b6107cb7f0af1dac7dea2fd7f7738119cec7df099dfad49aa9d2e7d17ba6b60f63ae7411f83610a86565b1561080d576040518060400160405280600681526020017f444f43544f52000000000000000000000000000000000000000000000000000081525090506108e6565b6108377fa49807205ce4d355092ef5a8a18f56e8913cf4a201fbe287825b095693c2177583610a86565b15610879576040518060400160405280600581526020017f41444d494e00000000000000000000000000000000000000000000000000000081525090506108e6565b6108a37f7765bfe615aab9fb9a16bd4c5c9b353f39dae79ca7da86094b0a74ea8a89e59a83610a86565b156108e5576040518060400160405280600a81526020017f524553454152434845520000000000000000000000000000000000000000000081525090506108e6565b5b919050565b6109157f0af1dac7dea2fd7f7738119cec7df099dfad49aa9d2e7d17ba6b60f63ae7411f82610cf5565b61091e81610663565b50565b7f7765bfe615aab9fb9a16bd4c5c9b353f39dae79ca7da86094b0a74ea8a89e59a81565b61096f7f72606200fac42b7dc86b75901d61ecfab2a4a1a6eded478b97a428094891abed82610cf5565b61097881610663565b50565b6109a57fa49807205ce4d355092ef5a8a18f56e8913cf4a201fbe287825b095693c2177582610cf5565b6109ae81610663565b50565b6109b9610d03565b73ffffffffffffffffffffffffffffffffffffffff166109d7610a5d565b73ffffffffffffffffffffffffffffffffffffffff1614610a2d576040517f08c379a0000000000000000000000000000000000000000000000000000000008152600401610a2490611683565b60405180910390fd5b610a376000610f6a565b565b7fa49807205ce4d355092ef5a8a18f56e8913cf4a201fbe287825b095693c2177581565b60008060009054906101000a900473ffffffffffffffffffffffffffffffffffffffff16905090565b60006001600084815260200190815260200160002060000160008373ffffffffffffffffffffffffffffffffffffffff1673ffffffffffffffffffffffffffffffffffffffff16815260200190815260200160002060009054906101000a900460ff16905092915050565b6000801b81565b60026020528060005260406000206000915054906101000a900460ff1681565b7f72606200fac42b7dc86b75901d61ecfab2a4a1a6eded478b97a428094891abed81565b6000600354905090565b610b4f82610561565b610b6081610b5b610d03565b610d0b565b610b6a8383610e88565b505050565b610b77610d03565b73ffffffffffffffffffffffffffffffffffffffff16610b95610a5d565b73ffffffffffffffffffffffffffffffffffffffff1614610beb576040517f08c379a0000000000000000000000000000000000000000000000000000000008152600401610be290611683565b60405180910390fd5b600073ffffffffffffffffffffffffffffffffffffffff168173ffffffffffffffffffffffffffffffffffffffff161415610c5b576040517f08c379a0000000000000000000000000000000000000000000000000000000008152600401610c5290611663565b60405180910390fd5b610c6481610f6a565b50565b7f0af1dac7dea2fd7f7738119cec7df099dfad49aa9d2e7d17ba6b60f63ae7411f81565b60007f01ffc9a7000000000000000000000000000000000000000000000000000000007bffffffffffffffffffffffffffffffffffffffffffffffffffffffff1916827bffffffffffffffffffffffffffffffffffffffffffffffffffffffff1916149050919050565b610cff8282610da8565b5050565b600033905090565b610d158282610a86565b610da457610d3a8173ffffffffffffffffffffffffffffffffffffffff16601461102e565b610d488360001c602061102e565b604051602001610d59929190611596565b6040516020818303038152906040526040517f08c379a0000000000000000000000000000000000000000000000000000000008152600401610d9b9190611621565b60405180910390fd5b5050565b610db28282610a86565b610e8457600180600084815260200190815260200160002060000160008373ffffffffffffffffffffffffffffffffffffffff1673ffffffffffffffffffffffffffffffffffffffff16815260200190815260200160002060006101000a81548160ff021916908315150217905550610e29610d03565b73ffffffffffffffffffffffffffffffffffffffff168173ffffffffffffffffffffffffffffffffffffffff16837f2f8788117e7eff1d82e926ec794901d17c78024a50270940304540a733656f0d60405160405180910390a45b5050565b610e928282610a86565b15610f665760006001600084815260200190815260200160002060000160008373ffffffffffffffffffffffffffffffffffffffff1673ffffffffffffffffffffffffffffffffffffffff16815260200190815260200160002060006101000a81548160ff021916908315150217905550610f0b610d03565b73ffffffffffffffffffffffffffffffffffffffff168173ffffffffffffffffffffffffffffffffffffffff16837ff6391f5c32d9c69d2a47ea670b442974b53935d1edc7fd64eb21e047a839171b60405160405180910390a45b5050565b60008060009054906101000a900473ffffffffffffffffffffffffffffffffffffffff169050816000806101000a81548173ffffffffffffffffffffffffffffffffffffffff021916908373ffffffffffffffffffffffffffffffffffffffff1602179055508173ffffffffffffffffffffffffffffffffffffffff168173ffffffffffffffffffffffffffffffffffffffff167f8be0079c531659141344cd1fd0a4f28419497f9722a3daafe3b4186f6b6457e060405160405180910390a35050565b606060006002836002611041919061175b565b61104b9190611705565b67ffffffffffffffff81111561108a577f4e487b7100000000000000000000000000000000000000000000000000000000600052604160045260246000fd5b6040519080825280601f01601f1916602001820160405280156110bc5781602001600182028036833780820191505090505b5090507f30000000000000000000000000000000000000000000000000000000000000008160008151811061111a577f4e487b7100000000000000000000000000000000000000000000000000000000600052603260045260246000fd5b60200101907effffffffffffffffffffffffffffffffffffffffffffffffffffffffffffff1916908160001a9053507f7800000000000000000000000000000000000000000000000000000000000000816001815181106111a4577f4e487b7100000000000000000000000000000000000000000000000000000000600052603260045260246000fd5b60200101907effffffffffffffffffffffffffffffffffffffffffffffffffffffffffffff1916908160001a905350600060018460026111e4919061175b565b6111ee9190611705565b90505b60018111156112da577f3031323334353637383961626364656600000000000000000000000000000000600f861660108110611256577f4e487b7100000000000000000000000000000000000000000000000000000000600052603260045260246000fd5b1a60f81b828281518110611293577f4e487b7100000000000000000000000000000000000000000000000000000000600052603260045260246000fd5b60200101907effffffffffffffffffffffffffffffffffffffffffffffffffffffffffffff1916908160001a905350600485901c9450806112d390611866565b90506111f1565b506000841461131e576040517f08c379a000000000000000000000000000000000000000000000000000000000815260040161131590611643565b60405180910390fd5b8091505092915050565b60008135905061133781611a5b565b92915050565b60008135905061134c81611a72565b92915050565b60008135905061136181611a89565b92915050565b60006020828403121561137957600080fd5b600061138784828501611328565b91505092915050565b6000602082840312156113a257600080fd5b60006113b08482850161133d565b91505092915050565b600080604083850312156113cc57600080fd5b60006113da8582860161133d565b92505060206113eb85828601611328565b9150509250929050565b60006020828403121561140757600080fd5b600061141584828501611352565b91505092915050565b611427816117b5565b82525050565b611436816117c7565b82525050565b611445816117d3565b82525050565b6000611456826116de565b61146081856116e9565b9350611470818560208601611833565b61147981611908565b840191505092915050565b600061148f826116de565b61149981856116fa565b93506114a9818560208601611833565b80840191505092915050565b60006114c26020836116e9565b91506114cd82611919565b602082019050919050565b60006114e56026836116e9565b91506114f082611942565b604082019050919050565b60006115086020836116e9565b915061151382611991565b602082019050919050565b600061152b6017836116fa565b9150611536826119ba565b601782019050919050565b600061154e6011836116fa565b9150611559826119e3565b601182019050919050565b6000611571602f836116e9565b915061157c82611a0c565b604082019050919050565b61159081611829565b82525050565b60006115a18261151e565b91506115ad8285611484565b91506115b882611541565b91506115c48284611484565b91508190509392505050565b60006020820190506115e5600083018461141e565b92915050565b6000602082019050611600600083018461142d565b92915050565b600060208201905061161b600083018461143c565b92915050565b6000602082019050818103600083015261163b818461144b565b905092915050565b6000602082019050818103600083015261165c816114b5565b9050919050565b6000602082019050818103600083015261167c816114d8565b9050919050565b6000602082019050818103600083015261169c816114fb565b9050919050565b600060208201905081810360008301526116bc81611564565b9050919050565b60006020820190506116d86000830184611587565b92915050565b600081519050919050565b600082825260208201905092915050565b600081905092915050565b600061171082611829565b915061171b83611829565b9250827fffffffffffffffffffffffffffffffffffffffffffffffffffffffffffffffff038211156117505761174f6118d9565b5b828201905092915050565b600061176682611829565b915061177183611829565b9250817fffffffffffffffffffffffffffffffffffffffffffffffffffffffffffffffff04831182151516156117aa576117a96118d9565b5b828202905092915050565b60006117c082611809565b9050919050565b60008115159050919050565b6000819050919050565b60007fffffffff0000000000000000000000000000000000000000000000000000000082169050919050565b600073ffffffffffffffffffffffffffffffffffffffff82169050919050565b6000819050919050565b60005b83811015611851578082015181840152602081019050611836565b83811115611860576000848401525b50505050565b600061187182611829565b91506000821415611885576118846118d9565b5b600182039050919050565b600061189b82611829565b91507fffffffffffffffffffffffffffffffffffffffffffffffffffffffffffffffff8214156118ce576118cd6118d9565b5b600182019050919050565b7f4e487b7100000000000000000000000000000000000000000000000000000000600052601160045260246000fd5b6000601f19601f8301169050919050565b7f537472696e67733a20686578206c656e67746820696e73756666696369656e74600082015250565b7f4f776e61626c653a206e6577206f776e657220697320746865207a65726f206160008201527f6464726573730000000000000000000000000000000000000000000000000000602082015250565b7f4f776e61626c653a2063616c6c6572206973206e6f7420746865206f776e6572600082015250565b7f416363657373436f6e74726f6c3a206163636f756e7420000000000000000000600082015250565b7f206973206d697373696e6720726f6c6520000000000000000000000000000000600082015250565b7f416363657373436f6e74726f6c3a2063616e206f6e6c792072656e6f756e636560008201527f20726f6c657320666f722073656c660000000000000000000000000000000000602082015250565b611a64816117b5565b8114611a6f57600080fd5b50565b611a7b816117d3565b8114611a8657600080fd5b50565b611a92816117dd565b8114611a9d57600080fd5b5056fea2646970667358221220877c01b0fbd470f28d698402f66564d823611de56238dd41e3bd5732e4e83e0664736f6c63430008040033",
  "immutableReferences": {},
  "source": "pragma solidity  0.8.4;\r\nimport \"@openzeppelin/contracts/access/Ownable.sol\";\r\nimport \"@openzeppelin/contracts/access/AccessControl.sol\";\r\nimport \"@openzeppelin/contracts/access/AccessControlEnumerable.sol\";\r\n\r\ncontract Registration is Ownable, AccessControl{ \r\n    \r\n  mapping (address => bool) public users;\r\n  uint public userCount;\r\n\r\n  bytes32 public constant ADMIN_ROLE = keccak256(\"ADMIN_ROLE\");\r\n  bytes32 public constant DOCTOR_ROLE = keccak256(\"DOCTOR_ROLE\");\r\n  bytes32 public constant PATIENT_ROLE = keccak256(\"PATIENT_ROLE\");\r\n  bytes32 public constant RESEARCHER_ROLE = keccak256(\"RESEARCHER_ROLE\");\r\n\r\n  constructor() public {\r\n    addUser(0x5c4E9Fccd53c74A4cE7C9fc14AAc38A81F9aE983);\r\n    _setupRole(ADMIN_ROLE, 0x5c4E9Fccd53c74A4cE7C9fc14AAc38A81F9aE983);\r\n  }\r\n\r\n  function addUser(address _user) public{\r\n    require(users[_user] == false);\r\n    users[_user] = true;\r\n    userCount++;\r\n  }\r\n\r\n  function userExists(address _user) public returns (bool){\r\n    if (users[_user] == true){\r\n      return true;\r\n    }\r\n    else{\r\n      return false;\r\n    }\r\n  }\r\n\r\n  function getUserCount() public  returns (uint){\r\n    return userCount;\r\n  }\r\n  \r\n  function addPatient(address _address) public \r\n  {\r\n    _setupRole(PATIENT_ROLE, _address);\r\n    addUser(_address);\r\n  }\r\n\r\n  function addDoctor(address _address) public \r\n  {\r\n    _setupRole(DOCTOR_ROLE, _address);\r\n    addUser(_address);\r\n  }\r\n\r\n  function addAdmin(address _address) public \r\n  {\r\n    _setupRole(ADMIN_ROLE, _address);\r\n    addUser(_address);\r\n  }\r\n\r\n  function addResearcher(address _address) public \r\n  {\r\n    _setupRole(RESEARCHER_ROLE, _address);\r\n    addUser(_address);\r\n  }\r\n\r\n  function getRole(address _address) public view returns (string memory)\r\n  {\r\n    if(hasRole(PATIENT_ROLE, _address))\r\n    {\r\n      return \"PATIENT\";\r\n    }\r\n    if(hasRole(DOCTOR_ROLE, _address))\r\n    {\r\n      return \"DOCTOR\";\r\n    }\r\n    if(hasRole(ADMIN_ROLE, _address))\r\n    {\r\n      return \"ADMIN\";\r\n    }\r\n    if(hasRole(RESEARCHER_ROLE, _address))\r\n    {\r\n      return \"RESEARCHER\";\r\n    }\r\n  }\r\n}",
  "sourcePath": "C:\\Licenta\\Licenta\\src\\contracts\\Registration.sol",
  "compiler": {
    "name": "solc",
    "version": "0.8.4+commit.c7e474f2.Emscripten.clang"
  },
  "schemaVersion": "3.2.3",
  "updatedAt": "2022-06-26T20:15:36.247Z",
  "networkType": "ethereum",
  "devdoc": {
    "kind": "dev",
    "methods": {
      "getRoleAdmin(bytes32)": {
        "details": "Returns the admin role that controls `role`. See {grantRole} and {revokeRole}. To change a role's admin, use {_setRoleAdmin}."
      },
      "grantRole(bytes32,address)": {
        "details": "Grants `role` to `account`. If `account` had not been already granted `role`, emits a {RoleGranted} event. Requirements: - the caller must have ``role``'s admin role."
      },
      "hasRole(bytes32,address)": {
        "details": "Returns `true` if `account` has been granted `role`."
      },
      "owner()": {
        "details": "Returns the address of the current owner."
      },
      "renounceOwnership()": {
        "details": "Leaves the contract without owner. It will not be possible to call `onlyOwner` functions anymore. Can only be called by the current owner. NOTE: Renouncing ownership will leave the contract without an owner, thereby removing any functionality that is only available to the owner."
      },
      "renounceRole(bytes32,address)": {
        "details": "Revokes `role` from the calling account. Roles are often managed via {grantRole} and {revokeRole}: this function's purpose is to provide a mechanism for accounts to lose their privileges if they are compromised (such as when a trusted device is misplaced). If the calling account had been revoked `role`, emits a {RoleRevoked} event. Requirements: - the caller must be `account`."
      },
      "revokeRole(bytes32,address)": {
        "details": "Revokes `role` from `account`. If `account` had been granted `role`, emits a {RoleRevoked} event. Requirements: - the caller must have ``role``'s admin role."
      },
      "supportsInterface(bytes4)": {
        "details": "See {IERC165-supportsInterface}."
      },
      "transferOwnership(address)": {
        "details": "Transfers ownership of the contract to a new account (`newOwner`). Can only be called by the current owner."
      }
    },
    "version": 1
  },
  "userdoc": {
    "kind": "user",
    "methods": {},
    "version": 1
  }
}