{
  "contractName": "Registration",
  "abi": [
    {
      "inputs": [],
      "stateMutability": "nonpayable",
      "type": "constructor"
    },
    {
      "inputs": [],
      "name": "ADMIN_ROLE",
      "outputs": [
        {
          "internalType": "bytes32",
          "name": "",
          "type": "bytes32"
        }
      ],
      "stateMutability": "view",
      "type": "function",
      "constant": true
    },
    {
      "inputs": [],
      "name": "DOCTOR_ROLE",
      "outputs": [
        {
          "internalType": "bytes32",
          "name": "",
          "type": "bytes32"
        }
      ],
      "stateMutability": "view",
      "type": "function",
      "constant": true
    },
    {
      "inputs": [],
      "name": "PATIENT_ROLE",
      "outputs": [
        {
          "internalType": "bytes32",
          "name": "",
          "type": "bytes32"
        }
      ],
      "stateMutability": "view",
      "type": "function",
      "constant": true
    },
    {
      "inputs": [
        {
          "internalType": "address",
          "name": "",
          "type": "address"
        }
      ],
      "name": "users",
      "outputs": [
        {
          "internalType": "bool",
          "name": "",
          "type": "bool"
        }
      ],
      "stateMutability": "view",
      "type": "function",
      "constant": true
    },
    {
      "inputs": [
        {
          "internalType": "address",
          "name": "_user",
          "type": "address"
        }
      ],
      "name": "addUser",
      "outputs": [],
      "stateMutability": "nonpayable",
      "type": "function"
    },
    {
      "inputs": [
        {
          "internalType": "address",
          "name": "_user",
          "type": "address"
        }
      ],
      "name": "userExists",
      "outputs": [
        {
          "internalType": "bool",
          "name": "",
          "type": "bool"
        }
      ],
      "stateMutability": "nonpayable",
      "type": "function"
    }
  ],
  "bytecode": "0x608060405234801561001057600080fd5b50610034735c4e9fccd53c74a4ce7c9fc14aac38a81f9ae98361005c60201b60201c565b61005773e2d18e6fffd6b2d36b3c7e2f44e33374c7d92b3361005c60201b60201c565b6100b6565b60016000808373ffffffffffffffffffffffffffffffffffffffff1673ffffffffffffffffffffffffffffffffffffffff16815260200190815260200160002060006101000a81548160ff02191690831515021790555050565b6103b7806100c56000396000f3fe608060405234801561001057600080fd5b50600436106100625760003560e01c80630e666e4914610067578063421b2d8b1461009757806375b238fc146100b3578063a87430ba146100d1578063ac5cb97d14610101578063fec331f21461011f575b600080fd5b610081600480360381019061007c91906102a5565b61013d565b60405161008e91906102ec565b60405180910390f35b6100b160048036038101906100ac91906102a5565b6101aa565b005b6100bb610204565b6040516100c89190610307565b60405180910390f35b6100eb60048036038101906100e691906102a5565b610228565b6040516100f891906102ec565b60405180910390f35b610109610248565b6040516101169190610307565b60405180910390f35b61012761026c565b6040516101349190610307565b60405180910390f35b6000600115156000808473ffffffffffffffffffffffffffffffffffffffff1673ffffffffffffffffffffffffffffffffffffffff16815260200190815260200160002060009054906101000a900460ff16151514156101a057600190506101a5565b600090505b919050565b60016000808373ffffffffffffffffffffffffffffffffffffffff1673ffffffffffffffffffffffffffffffffffffffff16815260200190815260200160002060006101000a81548160ff02191690831515021790555050565b7fa49807205ce4d355092ef5a8a18f56e8913cf4a201fbe287825b095693c2177581565b60006020528060005260406000206000915054906101000a900460ff1681565b7f72606200fac42b7dc86b75901d61ecfab2a4a1a6eded478b97a428094891abed81565b7f0af1dac7dea2fd7f7738119cec7df099dfad49aa9d2e7d17ba6b60f63ae7411f81565b60008135905061029f8161036a565b92915050565b6000602082840312156102b757600080fd5b60006102c584828501610290565b91505092915050565b6102d781610334565b82525050565b6102e681610340565b82525050565b600060208201905061030160008301846102ce565b92915050565b600060208201905061031c60008301846102dd565b92915050565b600061032d8261034a565b9050919050565b60008115159050919050565b6000819050919050565b600073ffffffffffffffffffffffffffffffffffffffff82169050919050565b61037381610322565b811461037e57600080fd5b5056fea2646970667358221220cb06887f8f6a2b7515d4c43276683e473704bb9323043dca4ee12e6ff311fe0d64736f6c63430008000033",
  "immutableReferences": {},
  "source": "pragma solidity  0.8.0;\r\n\r\ncontract Registration{ \r\n    \r\n  mapping (address => bool) public users;\r\n\r\n  bytes32 public constant ADMIN_ROLE = keccak256(\"ADMIN_ROLE\");\r\n  bytes32 public constant DOCTOR_ROLE = keccak256(\"DOCTOR_ROLE\");\r\n  bytes32 public constant PATIENT_ROLE = keccak256(\"PATIENT_ROLE\");\r\n\r\n  constructor() public {\r\n    addUser(0x5c4E9Fccd53c74A4cE7C9fc14AAc38A81F9aE983);\r\n    addUser(0xe2D18E6fffd6B2d36B3C7e2F44E33374c7d92B33);\r\n  }\r\n\r\n  function addUser(address _user) public{\r\n    users[_user] = true;\r\n  }\r\n\r\n  function userExists(address _user) public returns (bool){\r\n    if (users[_user] == true){\r\n      return true;\r\n    }\r\n    else{\r\n      return false;\r\n    }\r\n  }\r\n}",
  "sourcePath": "C:\\Licenta\\Licenta\\src\\contracts\\Registration.sol",
  "compiler": {
    "name": "solc",
    "version": "0.8.0+commit.c7dfd78e.Emscripten.clang"
  },
  "schemaVersion": "3.2.3",
  "updatedAt": "2022-04-18T17:48:08.237Z",
  "networkType": "ethereum",
  "devdoc": {
    "kind": "dev",
    "methods": {},
    "version": 1
  },
  "userdoc": {
    "kind": "user",
    "methods": {},
    "version": 1
  }
}