{
  "contractName": "Registration",
  "abi": [
    {
      "inputs": [],
      "stateMutability": "nonpayable",
      "type": "constructor"
    },
    {
      "anonymous": false,
      "inputs": [
        {
          "indexed": true,
          "internalType": "address",
          "name": "previousOwner",
          "type": "address"
        },
        {
          "indexed": true,
          "internalType": "address",
          "name": "newOwner",
          "type": "address"
        }
      ],
      "name": "OwnershipTransferred",
      "type": "event"
    },
    {
      "anonymous": false,
      "inputs": [
        {
          "indexed": true,
          "internalType": "bytes32",
          "name": "role",
          "type": "bytes32"
        },
        {
          "indexed": true,
          "internalType": "bytes32",
          "name": "previousAdminRole",
          "type": "bytes32"
        },
        {
          "indexed": true,
          "internalType": "bytes32",
          "name": "newAdminRole",
          "type": "bytes32"
        }
      ],
      "name": "RoleAdminChanged",
      "type": "event"
    },
    {
      "anonymous": false,
      "inputs": [
        {
          "indexed": true,
          "internalType": "bytes32",
          "name": "role",
          "type": "bytes32"
        },
        {
          "indexed": true,
          "internalType": "address",
          "name": "account",
          "type": "address"
        },
        {
          "indexed": true,
          "internalType": "address",
          "name": "sender",
          "type": "address"
        }
      ],
      "name": "RoleGranted",
      "type": "event"
    },
    {
      "anonymous": false,
      "inputs": [
        {
          "indexed": true,
          "internalType": "bytes32",
          "name": "role",
          "type": "bytes32"
        },
        {
          "indexed": true,
          "internalType": "address",
          "name": "account",
          "type": "address"
        },
        {
          "indexed": true,
          "internalType": "address",
          "name": "sender",
          "type": "address"
        }
      ],
      "name": "RoleRevoked",
      "type": "event"
    },
    {
      "inputs": [],
      "name": "ADMIN_ROLE",
      "outputs": [
        {
          "internalType": "bytes32",
          "name": "",
          "type": "bytes32"
        }
      ],
      "stateMutability": "view",
      "type": "function",
      "constant": true
    },
    {
      "inputs": [],
      "name": "DEFAULT_ADMIN_ROLE",
      "outputs": [
        {
          "internalType": "bytes32",
          "name": "",
          "type": "bytes32"
        }
      ],
      "stateMutability": "view",
      "type": "function",
      "constant": true
    },
    {
      "inputs": [],
      "name": "DOCTOR_ROLE",
      "outputs": [
        {
          "internalType": "bytes32",
          "name": "",
          "type": "bytes32"
        }
      ],
      "stateMutability": "view",
      "type": "function",
      "constant": true
    },
    {
      "inputs": [],
      "name": "PATIENT_ROLE",
      "outputs": [
        {
          "internalType": "bytes32",
          "name": "",
          "type": "bytes32"
        }
      ],
      "stateMutability": "view",
      "type": "function",
      "constant": true
    },
    {
      "inputs": [
        {
          "internalType": "bytes32",
          "name": "role",
          "type": "bytes32"
        }
      ],
      "name": "getRoleAdmin",
      "outputs": [
        {
          "internalType": "bytes32",
          "name": "",
          "type": "bytes32"
        }
      ],
      "stateMutability": "view",
      "type": "function",
      "constant": true
    },
    {
      "inputs": [
        {
          "internalType": "bytes32",
          "name": "role",
          "type": "bytes32"
        },
        {
          "internalType": "address",
          "name": "account",
          "type": "address"
        }
      ],
      "name": "grantRole",
      "outputs": [],
      "stateMutability": "nonpayable",
      "type": "function"
    },
    {
      "inputs": [
        {
          "internalType": "bytes32",
          "name": "role",
          "type": "bytes32"
        },
        {
          "internalType": "address",
          "name": "account",
          "type": "address"
        }
      ],
      "name": "hasRole",
      "outputs": [
        {
          "internalType": "bool",
          "name": "",
          "type": "bool"
        }
      ],
      "stateMutability": "view",
      "type": "function",
      "constant": true
    },
    {
      "inputs": [],
      "name": "owner",
      "outputs": [
        {
          "internalType": "address",
          "name": "",
          "type": "address"
        }
      ],
      "stateMutability": "view",
      "type": "function",
      "constant": true
    },
    {
      "inputs": [],
      "name": "renounceOwnership",
      "outputs": [],
      "stateMutability": "nonpayable",
      "type": "function"
    },
    {
      "inputs": [
        {
          "internalType": "bytes32",
          "name": "role",
          "type": "bytes32"
        },
        {
          "internalType": "address",
          "name": "account",
          "type": "address"
        }
      ],
      "name": "renounceRole",
      "outputs": [],
      "stateMutability": "nonpayable",
      "type": "function"
    },
    {
      "inputs": [
        {
          "internalType": "bytes32",
          "name": "role",
          "type": "bytes32"
        },
        {
          "internalType": "address",
          "name": "account",
          "type": "address"
        }
      ],
      "name": "revokeRole",
      "outputs": [],
      "stateMutability": "nonpayable",
      "type": "function"
    },
    {
      "inputs": [
        {
          "internalType": "bytes4",
          "name": "interfaceId",
          "type": "bytes4"
        }
      ],
      "name": "supportsInterface",
      "outputs": [
        {
          "internalType": "bool",
          "name": "",
          "type": "bool"
        }
      ],
      "stateMutability": "view",
      "type": "function",
      "constant": true
    },
    {
      "inputs": [
        {
          "internalType": "address",
          "name": "newOwner",
          "type": "address"
        }
      ],
      "name": "transferOwnership",
      "outputs": [],
      "stateMutability": "nonpayable",
      "type": "function"
    },
    {
      "inputs": [],
      "name": "userCount",
      "outputs": [
        {
          "internalType": "uint256",
          "name": "",
          "type": "uint256"
        }
      ],
      "stateMutability": "view",
      "type": "function",
      "constant": true
    },
    {
      "inputs": [
        {
          "internalType": "address",
          "name": "",
          "type": "address"
        }
      ],
      "name": "users",
      "outputs": [
        {
          "internalType": "bool",
          "name": "",
          "type": "bool"
        }
      ],
      "stateMutability": "view",
      "type": "function",
      "constant": true
    },
    {
      "inputs": [
        {
          "internalType": "address",
          "name": "_user",
          "type": "address"
        }
      ],
      "name": "addUser",
      "outputs": [],
      "stateMutability": "nonpayable",
      "type": "function"
    },
    {
      "inputs": [],
      "name": "increment",
      "outputs": [],
      "stateMutability": "nonpayable",
      "type": "function"
    },
    {
      "inputs": [
        {
          "internalType": "address",
          "name": "_user",
          "type": "address"
        }
      ],
      "name": "userExists",
      "outputs": [
        {
          "internalType": "bool",
          "name": "",
          "type": "bool"
        }
      ],
      "stateMutability": "nonpayable",
      "type": "function"
    },
    {
      "inputs": [],
      "name": "getUserCount",
      "outputs": [
        {
          "internalType": "uint256",
          "name": "",
          "type": "uint256"
        }
      ],
      "stateMutability": "nonpayable",
      "type": "function"
    },
    {
      "inputs": [
        {
          "internalType": "address",
          "name": "_address",
          "type": "address"
        }
      ],
      "name": "isAdmin",
      "outputs": [
        {
          "internalType": "bool",
          "name": "",
          "type": "bool"
        }
      ],
      "stateMutability": "nonpayable",
      "type": "function"
    },
    {
      "inputs": [
        {
          "internalType": "address",
          "name": "_address",
          "type": "address"
        }
      ],
      "name": "addPatient",
      "outputs": [],
      "stateMutability": "nonpayable",
      "type": "function"
    },
    {
      "inputs": [
        {
          "internalType": "address",
          "name": "_address",
          "type": "address"
        }
      ],
      "name": "addDoctor",
      "outputs": [],
      "stateMutability": "nonpayable",
      "type": "function"
    },
    {
      "inputs": [
        {
          "internalType": "address",
          "name": "_address",
          "type": "address"
        }
      ],
      "name": "addAdmin",
      "outputs": [],
      "stateMutability": "nonpayable",
      "type": "function"
    },
    {
      "inputs": [
        {
          "internalType": "address",
          "name": "_address",
          "type": "address"
        }
      ],
      "name": "isDoctor",
      "outputs": [
        {
          "internalType": "bool",
          "name": "",
          "type": "bool"
        }
      ],
      "stateMutability": "nonpayable",
      "type": "function"
    },
    {
      "inputs": [
        {
          "internalType": "address",
          "name": "_address",
          "type": "address"
        }
      ],
      "name": "isPatient",
      "outputs": [
        {
          "internalType": "bool",
          "name": "",
          "type": "bool"
        }
      ],
      "stateMutability": "nonpayable",
      "type": "function"
    },
    {
      "inputs": [
        {
          "internalType": "address",
          "name": "_address",
          "type": "address"
        }
      ],
      "name": "getRole",
      "outputs": [
        {
          "internalType": "string",
          "name": "",
          "type": "string"
        }
      ],
      "stateMutability": "view",
      "type": "function",
      "constant": true
    }
  ],
  "bytecode": "0x60806040523480156200001157600080fd5b5062000032620000266200010e60201b60201c565b6200011660201b60201c565b62000057735c4e9fccd53c74a4ce7c9fc14aac38a81f9ae983620001da60201b60201c565b6200007c73e2d18e6fffd6b2d36b3c7e2f44e33374c7d92b33620001da60201b60201c565b620000c27fa49807205ce4d355092ef5a8a18f56e8913cf4a201fbe287825b095693c21775735c4e9fccd53c74a4ce7c9fc14aac38a81f9ae9836200024f60201b60201c565b620001087f0af1dac7dea2fd7f7738119cec7df099dfad49aa9d2e7d17ba6b60f63ae7411f73e2d18e6fffd6b2d36b3c7e2f44e33374c7d92b336200024f60201b60201c565b62000448565b600033905090565b60008060009054906101000a900473ffffffffffffffffffffffffffffffffffffffff169050816000806101000a81548173ffffffffffffffffffffffffffffffffffffffff021916908373ffffffffffffffffffffffffffffffffffffffff1602179055508173ffffffffffffffffffffffffffffffffffffffff168173ffffffffffffffffffffffffffffffffffffffff167f8be0079c531659141344cd1fd0a4f28419497f9722a3daafe3b4186f6b6457e060405160405180910390a35050565b6001600260008373ffffffffffffffffffffffffffffffffffffffff1673ffffffffffffffffffffffffffffffffffffffff16815260200190815260200160002060006101000a81548160ff021916908315150217905550600360008154809291906200024790620003cb565b919050555050565b6200026182826200026560201b60201c565b5050565b6200027782826200035660201b60201c565b6200035257600180600084815260200190815260200160002060000160008373ffffffffffffffffffffffffffffffffffffffff1673ffffffffffffffffffffffffffffffffffffffff16815260200190815260200160002060006101000a81548160ff021916908315150217905550620002f76200010e60201b60201c565b73ffffffffffffffffffffffffffffffffffffffff168173ffffffffffffffffffffffffffffffffffffffff16837f2f8788117e7eff1d82e926ec794901d17c78024a50270940304540a733656f0d60405160405180910390a45b5050565b60006001600084815260200190815260200160002060000160008373ffffffffffffffffffffffffffffffffffffffff1673ffffffffffffffffffffffffffffffffffffffff16815260200190815260200160002060009054906101000a900460ff16905092915050565b6000819050919050565b6000620003d882620003c1565b91507fffffffffffffffffffffffffffffffffffffffffffffffffffffffffffffffff8214156200040e576200040d62000419565b5b600182019050919050565b7f4e487b7100000000000000000000000000000000000000000000000000000000600052601160045260246000fd5b611b2f80620004586000396000f3fe608060405234801561001057600080fd5b506004361061018e5760003560e01c806375b238fc116100de578063a87430ba11610097578063d09de08a11610071578063d09de08a146104a9578063d547741f146104b3578063f2fde38b146104cf578063fec331f2146104eb5761018e565b8063a87430ba1461043d578063ac5cb97d1461046d578063b5cb15f71461048b5761018e565b806375b238fc146103535780638da5cb5b146103715780638f9c79ed1461038f57806391d14854146103bf578063996440c6146103ef578063a217fddf1461041f5761018e565b806336568abe1161014b5780634780468f116101255780634780468f146102f55780636d263ceb14610311578063704802751461032d578063715018a6146103495761018e565b806336568abe1461028d578063421b2d8b146102a957806344276733146102c55761018e565b806301ffc9a71461019357806307973ccf146101c35780630e666e49146101e1578063248a9ca31461021157806324d7806c146102415780632f2ff15d14610271575b600080fd5b6101ad60048036038101906101a8919061144e565b610509565b6040516101ba9190611644565b60405180910390f35b6101cb610583565b6040516101d8919061171c565b60405180910390f35b6101fb60048036038101906101f691906113c0565b610589565b6040516102089190611644565b60405180910390f35b61022b600480360381019061022691906113e9565b6105f7565b604051610238919061165f565b60405180910390f35b61025b600480360381019061025691906113c0565b610617565b6040516102689190611644565b60405180910390f35b61028b60048036038101906102869190611412565b61065b565b005b6102a760048036038101906102a29190611412565b610684565b005b6102c360048036038101906102be91906113c0565b610707565b005b6102df60048036038101906102da91906113c0565b61077a565b6040516102ec919061167a565b60405180910390f35b61030f600480360381019061030a91906113c0565b6108c6565b005b61032b600480360381019061032691906113c0565b6108fc565b005b610347600480360381019061034291906113c0565b610932565b005b610351610968565b005b61035b6109f0565b604051610368919061165f565b60405180910390f35b610379610a14565b6040516103869190611629565b60405180910390f35b6103a960048036038101906103a491906113c0565b610a3d565b6040516103b69190611644565b60405180910390f35b6103d960048036038101906103d49190611412565b610a81565b6040516103e69190611644565b60405180910390f35b610409600480360381019061040491906113c0565b610aec565b6040516104169190611644565b60405180910390f35b610427610b30565b604051610434919061165f565b60405180910390f35b610457600480360381019061045291906113c0565b610b37565b6040516104649190611644565b60405180910390f35b610475610b57565b604051610482919061165f565b60405180910390f35b610493610b7b565b6040516104a0919061171c565b60405180910390f35b6104b1610b85565b005b6104cd60048036038101906104c89190611412565b610b9f565b005b6104e960048036038101906104e491906113c0565b610bc8565b005b6104f3610cc0565b604051610500919061165f565b60405180910390f35b60007f7965db0b000000000000000000000000000000000000000000000000000000007bffffffffffffffffffffffffffffffffffffffffffffffffffffffff1916827bffffffffffffffffffffffffffffffffffffffffffffffffffffffff1916148061057c575061057b82610ce4565b5b9050919050565b60035481565b600060011515600260008473ffffffffffffffffffffffffffffffffffffffff1673ffffffffffffffffffffffffffffffffffffffff16815260200190815260200160002060009054906101000a900460ff16151514156105ed57600190506105f2565b600090505b919050565b600060016000838152602001908152602001600020600101549050919050565b60006106437fa49807205ce4d355092ef5a8a18f56e8913cf4a201fbe287825b095693c2177583610a81565b156106515760019050610656565b600090505b919050565b610664826105f7565b61067581610670610d4e565b610d56565b61067f8383610df3565b505050565b61068c610d4e565b73ffffffffffffffffffffffffffffffffffffffff168173ffffffffffffffffffffffffffffffffffffffff16146106f9576040517f08c379a00000000000000000000000000000000000000000000000000000000081526004016106f0906116fc565b60405180910390fd5b6107038282610ed3565b5050565b6001600260008373ffffffffffffffffffffffffffffffffffffffff1673ffffffffffffffffffffffffffffffffffffffff16815260200190815260200160002060006101000a81548160ff02191690831515021790555060036000815480929190610772906118e9565b919050555050565b60606107a67f72606200fac42b7dc86b75901d61ecfab2a4a1a6eded478b97a428094891abed83610a81565b156107e8576040518060400160405280600781526020017f50415449454e540000000000000000000000000000000000000000000000000081525090506108c1565b6108127f0af1dac7dea2fd7f7738119cec7df099dfad49aa9d2e7d17ba6b60f63ae7411f83610a81565b15610854576040518060400160405280600681526020017f444f43544f52000000000000000000000000000000000000000000000000000081525090506108c1565b61087e7fa49807205ce4d355092ef5a8a18f56e8913cf4a201fbe287825b095693c2177583610a81565b156108c0576040518060400160405280600581526020017f41444d494e00000000000000000000000000000000000000000000000000000081525090506108c1565b5b919050565b6108f07f0af1dac7dea2fd7f7738119cec7df099dfad49aa9d2e7d17ba6b60f63ae7411f82610fb5565b6108f981610707565b50565b6109267f72606200fac42b7dc86b75901d61ecfab2a4a1a6eded478b97a428094891abed82610fb5565b61092f81610707565b50565b61095c7fa49807205ce4d355092ef5a8a18f56e8913cf4a201fbe287825b095693c2177582610fb5565b61096581610707565b50565b610970610d4e565b73ffffffffffffffffffffffffffffffffffffffff1661098e610a14565b73ffffffffffffffffffffffffffffffffffffffff16146109e4576040517f08c379a00000000000000000000000000000000000000000000000000000000081526004016109db906116dc565b60405180910390fd5b6109ee6000610fc3565b565b7fa49807205ce4d355092ef5a8a18f56e8913cf4a201fbe287825b095693c2177581565b60008060009054906101000a900473ffffffffffffffffffffffffffffffffffffffff16905090565b6000610a697f72606200fac42b7dc86b75901d61ecfab2a4a1a6eded478b97a428094891abed83610a81565b15610a775760019050610a7c565b600090505b919050565b60006001600084815260200190815260200160002060000160008373ffffffffffffffffffffffffffffffffffffffff1673ffffffffffffffffffffffffffffffffffffffff16815260200190815260200160002060009054906101000a900460ff16905092915050565b6000610b187f0af1dac7dea2fd7f7738119cec7df099dfad49aa9d2e7d17ba6b60f63ae7411f83610a81565b15610b265760019050610b2b565b600090505b919050565b6000801b81565b60026020528060005260406000206000915054906101000a900460ff1681565b7f72606200fac42b7dc86b75901d61ecfab2a4a1a6eded478b97a428094891abed81565b6000600354905090565b60036000815480929190610b98906118e9565b9190505550565b610ba8826105f7565b610bb981610bb4610d4e565b610d56565b610bc38383610ed3565b505050565b610bd0610d4e565b73ffffffffffffffffffffffffffffffffffffffff16610bee610a14565b73ffffffffffffffffffffffffffffffffffffffff1614610c44576040517f08c379a0000000000000000000000000000000000000000000000000000000008152600401610c3b906116dc565b60405180910390fd5b600073ffffffffffffffffffffffffffffffffffffffff168173ffffffffffffffffffffffffffffffffffffffff161415610cb4576040517f08c379a0000000000000000000000000000000000000000000000000000000008152600401610cab906116bc565b60405180910390fd5b610cbd81610fc3565b50565b7f0af1dac7dea2fd7f7738119cec7df099dfad49aa9d2e7d17ba6b60f63ae7411f81565b60007f01ffc9a7000000000000000000000000000000000000000000000000000000007bffffffffffffffffffffffffffffffffffffffffffffffffffffffff1916827bffffffffffffffffffffffffffffffffffffffffffffffffffffffff1916149050919050565b600033905090565b610d608282610a81565b610def57610d858173ffffffffffffffffffffffffffffffffffffffff166014611087565b610d938360001c6020611087565b604051602001610da49291906115ef565b6040516020818303038152906040526040517f08c379a0000000000000000000000000000000000000000000000000000000008152600401610de6919061167a565b60405180910390fd5b5050565b610dfd8282610a81565b610ecf57600180600084815260200190815260200160002060000160008373ffffffffffffffffffffffffffffffffffffffff1673ffffffffffffffffffffffffffffffffffffffff16815260200190815260200160002060006101000a81548160ff021916908315150217905550610e74610d4e565b73ffffffffffffffffffffffffffffffffffffffff168173ffffffffffffffffffffffffffffffffffffffff16837f2f8788117e7eff1d82e926ec794901d17c78024a50270940304540a733656f0d60405160405180910390a45b5050565b610edd8282610a81565b15610fb15760006001600084815260200190815260200160002060000160008373ffffffffffffffffffffffffffffffffffffffff1673ffffffffffffffffffffffffffffffffffffffff16815260200190815260200160002060006101000a81548160ff021916908315150217905550610f56610d4e565b73ffffffffffffffffffffffffffffffffffffffff168173ffffffffffffffffffffffffffffffffffffffff16837ff6391f5c32d9c69d2a47ea670b442974b53935d1edc7fd64eb21e047a839171b60405160405180910390a45b5050565b610fbf8282610df3565b5050565b60008060009054906101000a900473ffffffffffffffffffffffffffffffffffffffff169050816000806101000a81548173ffffffffffffffffffffffffffffffffffffffff021916908373ffffffffffffffffffffffffffffffffffffffff1602179055508173ffffffffffffffffffffffffffffffffffffffff168173ffffffffffffffffffffffffffffffffffffffff167f8be0079c531659141344cd1fd0a4f28419497f9722a3daafe3b4186f6b6457e060405160405180910390a35050565b60606000600283600261109a91906117b4565b6110a4919061175e565b67ffffffffffffffff8111156110e3577f4e487b7100000000000000000000000000000000000000000000000000000000600052604160045260246000fd5b6040519080825280601f01601f1916602001820160405280156111155781602001600182028036833780820191505090505b5090507f300000000000000000000000000000000000000000000000000000000000000081600081518110611173577f4e487b7100000000000000000000000000000000000000000000000000000000600052603260045260246000fd5b60200101907effffffffffffffffffffffffffffffffffffffffffffffffffffffffffffff1916908160001a9053507f7800000000000000000000000000000000000000000000000000000000000000816001815181106111fd577f4e487b7100000000000000000000000000000000000000000000000000000000600052603260045260246000fd5b60200101907effffffffffffffffffffffffffffffffffffffffffffffffffffffffffffff1916908160001a9053506000600184600261123d91906117b4565b611247919061175e565b90505b6001811115611333577f3031323334353637383961626364656600000000000000000000000000000000600f8616601081106112af577f4e487b7100000000000000000000000000000000000000000000000000000000600052603260045260246000fd5b1a60f81b8282815181106112ec577f4e487b7100000000000000000000000000000000000000000000000000000000600052603260045260246000fd5b60200101907effffffffffffffffffffffffffffffffffffffffffffffffffffffffffffff1916908160001a905350600485901c94508061132c906118bf565b905061124a565b5060008414611377576040517f08c379a000000000000000000000000000000000000000000000000000000000815260040161136e9061169c565b60405180910390fd5b8091505092915050565b60008135905061139081611ab4565b92915050565b6000813590506113a581611acb565b92915050565b6000813590506113ba81611ae2565b92915050565b6000602082840312156113d257600080fd5b60006113e084828501611381565b91505092915050565b6000602082840312156113fb57600080fd5b600061140984828501611396565b91505092915050565b6000806040838503121561142557600080fd5b600061143385828601611396565b925050602061144485828601611381565b9150509250929050565b60006020828403121561146057600080fd5b600061146e848285016113ab565b91505092915050565b6114808161180e565b82525050565b61148f81611820565b82525050565b61149e8161182c565b82525050565b60006114af82611737565b6114b98185611742565b93506114c981856020860161188c565b6114d281611961565b840191505092915050565b60006114e882611737565b6114f28185611753565b935061150281856020860161188c565b80840191505092915050565b600061151b602083611742565b915061152682611972565b602082019050919050565b600061153e602683611742565b91506115498261199b565b604082019050919050565b6000611561602083611742565b915061156c826119ea565b602082019050919050565b6000611584601783611753565b915061158f82611a13565b601782019050919050565b60006115a7601183611753565b91506115b282611a3c565b601182019050919050565b60006115ca602f83611742565b91506115d582611a65565b604082019050919050565b6115e981611882565b82525050565b60006115fa82611577565b915061160682856114dd565b91506116118261159a565b915061161d82846114dd565b91508190509392505050565b600060208201905061163e6000830184611477565b92915050565b60006020820190506116596000830184611486565b92915050565b60006020820190506116746000830184611495565b92915050565b6000602082019050818103600083015261169481846114a4565b905092915050565b600060208201905081810360008301526116b58161150e565b9050919050565b600060208201905081810360008301526116d581611531565b9050919050565b600060208201905081810360008301526116f581611554565b9050919050565b60006020820190508181036000830152611715816115bd565b9050919050565b600060208201905061173160008301846115e0565b92915050565b600081519050919050565b600082825260208201905092915050565b600081905092915050565b600061176982611882565b915061177483611882565b9250827fffffffffffffffffffffffffffffffffffffffffffffffffffffffffffffffff038211156117a9576117a8611932565b5b828201905092915050565b60006117bf82611882565b91506117ca83611882565b9250817fffffffffffffffffffffffffffffffffffffffffffffffffffffffffffffffff048311821515161561180357611802611932565b5b828202905092915050565b600061181982611862565b9050919050565b60008115159050919050565b6000819050919050565b60007fffffffff0000000000000000000000000000000000000000000000000000000082169050919050565b600073ffffffffffffffffffffffffffffffffffffffff82169050919050565b6000819050919050565b60005b838110156118aa57808201518184015260208101905061188f565b838111156118b9576000848401525b50505050565b60006118ca82611882565b915060008214156118de576118dd611932565b5b600182039050919050565b60006118f482611882565b91507fffffffffffffffffffffffffffffffffffffffffffffffffffffffffffffffff82141561192757611926611932565b5b600182019050919050565b7f4e487b7100000000000000000000000000000000000000000000000000000000600052601160045260246000fd5b6000601f19601f8301169050919050565b7f537472696e67733a20686578206c656e67746820696e73756666696369656e74600082015250565b7f4f776e61626c653a206e6577206f776e657220697320746865207a65726f206160008201527f6464726573730000000000000000000000000000000000000000000000000000602082015250565b7f4f776e61626c653a2063616c6c6572206973206e6f7420746865206f776e6572600082015250565b7f416363657373436f6e74726f6c3a206163636f756e7420000000000000000000600082015250565b7f206973206d697373696e6720726f6c6520000000000000000000000000000000600082015250565b7f416363657373436f6e74726f6c3a2063616e206f6e6c792072656e6f756e636560008201527f20726f6c657320666f722073656c660000000000000000000000000000000000602082015250565b611abd8161180e565b8114611ac857600080fd5b50565b611ad48161182c565b8114611adf57600080fd5b50565b611aeb81611836565b8114611af657600080fd5b5056fea264697066735822122084b1f3c86a0c4bb267f4f241312e079397744002516ad388fb63dc465a0cbe8f64736f6c63430008040033",
  "immutableReferences": {},
  "source": "pragma solidity  0.8.4;\r\nimport \"@openzeppelin/contracts/access/Ownable.sol\";\r\nimport \"@openzeppelin/contracts/access/AccessControl.sol\";\r\nimport \"@openzeppelin/contracts/access/AccessControlEnumerable.sol\";\r\n\r\ncontract Registration is Ownable, AccessControl{ \r\n    \r\n  mapping (address => bool) public users;\r\n  uint public userCount;\r\n\r\n  bytes32 public constant ADMIN_ROLE = keccak256(\"ADMIN_ROLE\");\r\n  bytes32 public constant DOCTOR_ROLE = keccak256(\"DOCTOR_ROLE\");\r\n  bytes32 public constant PATIENT_ROLE = keccak256(\"PATIENT_ROLE\");\r\n\r\n  constructor() public {\r\n    addUser(0x5c4E9Fccd53c74A4cE7C9fc14AAc38A81F9aE983);\r\n    addUser(0xe2D18E6fffd6B2d36B3C7e2F44E33374c7d92B33);\r\n    _setupRole(ADMIN_ROLE, 0x5c4E9Fccd53c74A4cE7C9fc14AAc38A81F9aE983);\r\n    _setupRole(DOCTOR_ROLE, 0xe2D18E6fffd6B2d36B3C7e2F44E33374c7d92B33);\r\n  }\r\n\r\n  function addUser(address _user) public{\r\n    users[_user] = true;\r\n    userCount++;\r\n  }\r\n\r\n  function increment() public{\r\n    userCount++;\r\n  }\r\n\r\n  function userExists(address _user) public returns (bool){\r\n    if (users[_user] == true){\r\n      return true;\r\n    }\r\n    else{\r\n      return false;\r\n    }\r\n  }\r\n\r\n  function getUserCount() public  returns (uint){\r\n    return userCount;\r\n  }\r\n\r\n  function isAdmin(address _address) public returns (bool)\r\n  {\r\n    if(hasRole(ADMIN_ROLE, _address)){\r\n      return true;\r\n    }\r\n    return false;\r\n  }\r\n\r\n  function addPatient(address _address) public \r\n  {\r\n    _setupRole(PATIENT_ROLE, _address);\r\n    addUser(_address);\r\n  }\r\n\r\n  function addDoctor(address _address) public \r\n  {\r\n    _setupRole(DOCTOR_ROLE, _address);\r\n    addUser(_address);\r\n  }\r\n\r\n  function addAdmin(address _address) public \r\n  {\r\n    _setupRole(ADMIN_ROLE, _address);\r\n    addUser(_address);\r\n  }\r\n\r\n  function isDoctor(address _address) public returns (bool)\r\n  {\r\n    if(hasRole(DOCTOR_ROLE, _address)){\r\n      return true;\r\n    }\r\n    return false;\r\n  }\r\n\r\n  function isPatient(address _address) public returns (bool)\r\n  {\r\n    if(hasRole(PATIENT_ROLE, _address)){\r\n      return true;\r\n    }\r\n    return false;\r\n  }\r\n\r\n  function getRole(address _address) public view returns (string memory)\r\n  {\r\n    if(hasRole(PATIENT_ROLE, _address))\r\n    {\r\n      return \"PATIENT\";\r\n    }\r\n    if(hasRole(DOCTOR_ROLE, _address))\r\n    {\r\n      return \"DOCTOR\";\r\n    }\r\n    if(hasRole(ADMIN_ROLE, _address))\r\n    {\r\n      return \"ADMIN\";\r\n    }\r\n  }\r\n}",
  "sourcePath": "C:\\Licenta\\Licenta\\src\\contracts\\Registration.sol",
  "compiler": {
    "name": "solc",
    "version": "0.8.4+commit.c7e474f2.Emscripten.clang"
  },
  "schemaVersion": "3.2.3",
  "updatedAt": "2022-06-13T13:47:43.218Z",
  "networkType": "ethereum",
  "devdoc": {
    "kind": "dev",
    "methods": {
      "getRoleAdmin(bytes32)": {
        "details": "Returns the admin role that controls `role`. See {grantRole} and {revokeRole}. To change a role's admin, use {_setRoleAdmin}."
      },
      "grantRole(bytes32,address)": {
        "details": "Grants `role` to `account`. If `account` had not been already granted `role`, emits a {RoleGranted} event. Requirements: - the caller must have ``role``'s admin role."
      },
      "hasRole(bytes32,address)": {
        "details": "Returns `true` if `account` has been granted `role`."
      },
      "owner()": {
        "details": "Returns the address of the current owner."
      },
      "renounceOwnership()": {
        "details": "Leaves the contract without owner. It will not be possible to call `onlyOwner` functions anymore. Can only be called by the current owner. NOTE: Renouncing ownership will leave the contract without an owner, thereby removing any functionality that is only available to the owner."
      },
      "renounceRole(bytes32,address)": {
        "details": "Revokes `role` from the calling account. Roles are often managed via {grantRole} and {revokeRole}: this function's purpose is to provide a mechanism for accounts to lose their privileges if they are compromised (such as when a trusted device is misplaced). If the calling account had been revoked `role`, emits a {RoleRevoked} event. Requirements: - the caller must be `account`."
      },
      "revokeRole(bytes32,address)": {
        "details": "Revokes `role` from `account`. If `account` had been granted `role`, emits a {RoleRevoked} event. Requirements: - the caller must have ``role``'s admin role."
      },
      "supportsInterface(bytes4)": {
        "details": "See {IERC165-supportsInterface}."
      },
      "transferOwnership(address)": {
        "details": "Transfers ownership of the contract to a new account (`newOwner`). Can only be called by the current owner."
      }
    },
    "version": 1
  },
  "userdoc": {
    "kind": "user",
    "methods": {},
    "version": 1
  }
}