{
  "contractName": "Registration",
  "abi": [
    {
      "inputs": [],
      "stateMutability": "nonpayable",
      "type": "constructor"
    },
    {
      "anonymous": false,
      "inputs": [
        {
          "indexed": true,
          "internalType": "address",
          "name": "previousOwner",
          "type": "address"
        },
        {
          "indexed": true,
          "internalType": "address",
          "name": "newOwner",
          "type": "address"
        }
      ],
      "name": "OwnershipTransferred",
      "type": "event"
    },
    {
      "anonymous": false,
      "inputs": [
        {
          "indexed": true,
          "internalType": "bytes32",
          "name": "role",
          "type": "bytes32"
        },
        {
          "indexed": true,
          "internalType": "bytes32",
          "name": "previousAdminRole",
          "type": "bytes32"
        },
        {
          "indexed": true,
          "internalType": "bytes32",
          "name": "newAdminRole",
          "type": "bytes32"
        }
      ],
      "name": "RoleAdminChanged",
      "type": "event"
    },
    {
      "anonymous": false,
      "inputs": [
        {
          "indexed": true,
          "internalType": "bytes32",
          "name": "role",
          "type": "bytes32"
        },
        {
          "indexed": true,
          "internalType": "address",
          "name": "account",
          "type": "address"
        },
        {
          "indexed": true,
          "internalType": "address",
          "name": "sender",
          "type": "address"
        }
      ],
      "name": "RoleGranted",
      "type": "event"
    },
    {
      "anonymous": false,
      "inputs": [
        {
          "indexed": true,
          "internalType": "bytes32",
          "name": "role",
          "type": "bytes32"
        },
        {
          "indexed": true,
          "internalType": "address",
          "name": "account",
          "type": "address"
        },
        {
          "indexed": true,
          "internalType": "address",
          "name": "sender",
          "type": "address"
        }
      ],
      "name": "RoleRevoked",
      "type": "event"
    },
    {
      "inputs": [],
      "name": "ADMIN_ROLE",
      "outputs": [
        {
          "internalType": "bytes32",
          "name": "",
          "type": "bytes32"
        }
      ],
      "stateMutability": "view",
      "type": "function",
      "constant": true
    },
    {
      "inputs": [],
      "name": "DEFAULT_ADMIN_ROLE",
      "outputs": [
        {
          "internalType": "bytes32",
          "name": "",
          "type": "bytes32"
        }
      ],
      "stateMutability": "view",
      "type": "function",
      "constant": true
    },
    {
      "inputs": [],
      "name": "DOCTOR_ROLE",
      "outputs": [
        {
          "internalType": "bytes32",
          "name": "",
          "type": "bytes32"
        }
      ],
      "stateMutability": "view",
      "type": "function",
      "constant": true
    },
    {
      "inputs": [],
      "name": "PATIENT_ROLE",
      "outputs": [
        {
          "internalType": "bytes32",
          "name": "",
          "type": "bytes32"
        }
      ],
      "stateMutability": "view",
      "type": "function",
      "constant": true
    },
    {
      "inputs": [],
      "name": "RESEARCHER_ROLE",
      "outputs": [
        {
          "internalType": "bytes32",
          "name": "",
          "type": "bytes32"
        }
      ],
      "stateMutability": "view",
      "type": "function",
      "constant": true
    },
    {
      "inputs": [
        {
          "internalType": "bytes32",
          "name": "role",
          "type": "bytes32"
        }
      ],
      "name": "getRoleAdmin",
      "outputs": [
        {
          "internalType": "bytes32",
          "name": "",
          "type": "bytes32"
        }
      ],
      "stateMutability": "view",
      "type": "function",
      "constant": true
    },
    {
      "inputs": [
        {
          "internalType": "bytes32",
          "name": "role",
          "type": "bytes32"
        },
        {
          "internalType": "address",
          "name": "account",
          "type": "address"
        }
      ],
      "name": "grantRole",
      "outputs": [],
      "stateMutability": "nonpayable",
      "type": "function"
    },
    {
      "inputs": [
        {
          "internalType": "bytes32",
          "name": "role",
          "type": "bytes32"
        },
        {
          "internalType": "address",
          "name": "account",
          "type": "address"
        }
      ],
      "name": "hasRole",
      "outputs": [
        {
          "internalType": "bool",
          "name": "",
          "type": "bool"
        }
      ],
      "stateMutability": "view",
      "type": "function",
      "constant": true
    },
    {
      "inputs": [],
      "name": "owner",
      "outputs": [
        {
          "internalType": "address",
          "name": "",
          "type": "address"
        }
      ],
      "stateMutability": "view",
      "type": "function",
      "constant": true
    },
    {
      "inputs": [],
      "name": "renounceOwnership",
      "outputs": [],
      "stateMutability": "nonpayable",
      "type": "function"
    },
    {
      "inputs": [
        {
          "internalType": "bytes32",
          "name": "role",
          "type": "bytes32"
        },
        {
          "internalType": "address",
          "name": "account",
          "type": "address"
        }
      ],
      "name": "renounceRole",
      "outputs": [],
      "stateMutability": "nonpayable",
      "type": "function"
    },
    {
      "inputs": [
        {
          "internalType": "bytes32",
          "name": "role",
          "type": "bytes32"
        },
        {
          "internalType": "address",
          "name": "account",
          "type": "address"
        }
      ],
      "name": "revokeRole",
      "outputs": [],
      "stateMutability": "nonpayable",
      "type": "function"
    },
    {
      "inputs": [
        {
          "internalType": "bytes4",
          "name": "interfaceId",
          "type": "bytes4"
        }
      ],
      "name": "supportsInterface",
      "outputs": [
        {
          "internalType": "bool",
          "name": "",
          "type": "bool"
        }
      ],
      "stateMutability": "view",
      "type": "function",
      "constant": true
    },
    {
      "inputs": [
        {
          "internalType": "address",
          "name": "newOwner",
          "type": "address"
        }
      ],
      "name": "transferOwnership",
      "outputs": [],
      "stateMutability": "nonpayable",
      "type": "function"
    },
    {
      "inputs": [],
      "name": "userCount",
      "outputs": [
        {
          "internalType": "uint256",
          "name": "",
          "type": "uint256"
        }
      ],
      "stateMutability": "view",
      "type": "function",
      "constant": true
    },
    {
      "inputs": [
        {
          "internalType": "address",
          "name": "",
          "type": "address"
        }
      ],
      "name": "users",
      "outputs": [
        {
          "internalType": "bool",
          "name": "",
          "type": "bool"
        }
      ],
      "stateMutability": "view",
      "type": "function",
      "constant": true
    },
    {
      "inputs": [
        {
          "internalType": "address",
          "name": "_user",
          "type": "address"
        }
      ],
      "name": "addUser",
      "outputs": [],
      "stateMutability": "nonpayable",
      "type": "function"
    },
    {
      "inputs": [
        {
          "internalType": "address",
          "name": "_user",
          "type": "address"
        }
      ],
      "name": "userExists",
      "outputs": [
        {
          "internalType": "bool",
          "name": "",
          "type": "bool"
        }
      ],
      "stateMutability": "nonpayable",
      "type": "function"
    },
    {
      "inputs": [],
      "name": "getUserCount",
      "outputs": [
        {
          "internalType": "uint256",
          "name": "",
          "type": "uint256"
        }
      ],
      "stateMutability": "nonpayable",
      "type": "function"
    },
    {
      "inputs": [
        {
          "internalType": "address",
          "name": "_address",
          "type": "address"
        }
      ],
      "name": "addPatient",
      "outputs": [],
      "stateMutability": "nonpayable",
      "type": "function"
    },
    {
      "inputs": [
        {
          "internalType": "address",
          "name": "_address",
          "type": "address"
        }
      ],
      "name": "addDoctor",
      "outputs": [],
      "stateMutability": "nonpayable",
      "type": "function"
    },
    {
      "inputs": [
        {
          "internalType": "address",
          "name": "_address",
          "type": "address"
        }
      ],
      "name": "addAdmin",
      "outputs": [],
      "stateMutability": "nonpayable",
      "type": "function"
    },
    {
      "inputs": [
        {
          "internalType": "address",
          "name": "_address",
          "type": "address"
        }
      ],
      "name": "addResearcher",
      "outputs": [],
      "stateMutability": "nonpayable",
      "type": "function"
    },
    {
      "inputs": [
        {
          "internalType": "address",
          "name": "_address",
          "type": "address"
        }
      ],
      "name": "getRole",
      "outputs": [
        {
          "internalType": "string",
          "name": "",
          "type": "string"
        }
      ],
      "stateMutability": "view",
      "type": "function",
      "constant": true
    }
  ],
  "bytecode": "0x60806040523480156200001157600080fd5b506200003262000026620000a360201b60201c565b620000ab60201b60201c565b62000057735c4e9fccd53c74a4ce7c9fc14aac38a81f9ae9836200016f60201b60201c565b6200009d7fa49807205ce4d355092ef5a8a18f56e8913cf4a201fbe287825b095693c21775735c4e9fccd53c74a4ce7c9fc14aac38a81f9ae9836200024260201b60201c565b6200043b565b600033905090565b60008060009054906101000a900473ffffffffffffffffffffffffffffffffffffffff169050816000806101000a81548173ffffffffffffffffffffffffffffffffffffffff021916908373ffffffffffffffffffffffffffffffffffffffff1602179055508173ffffffffffffffffffffffffffffffffffffffff168173ffffffffffffffffffffffffffffffffffffffff167f8be0079c531659141344cd1fd0a4f28419497f9722a3daafe3b4186f6b6457e060405160405180910390a35050565b60001515600260008373ffffffffffffffffffffffffffffffffffffffff1673ffffffffffffffffffffffffffffffffffffffff16815260200190815260200160002060009054906101000a900460ff16151514620001cd57600080fd5b6001600260008373ffffffffffffffffffffffffffffffffffffffff1673ffffffffffffffffffffffffffffffffffffffff16815260200190815260200160002060006101000a81548160ff021916908315150217905550600360008154809291906200023a90620003be565b919050555050565b6200025482826200025860201b60201c565b5050565b6200026a82826200034960201b60201c565b6200034557600180600084815260200190815260200160002060000160008373ffffffffffffffffffffffffffffffffffffffff1673ffffffffffffffffffffffffffffffffffffffff16815260200190815260200160002060006101000a81548160ff021916908315150217905550620002ea620000a360201b60201c565b73ffffffffffffffffffffffffffffffffffffffff168173ffffffffffffffffffffffffffffffffffffffff16837f2f8788117e7eff1d82e926ec794901d17c78024a50270940304540a733656f0d60405160405180910390a45b5050565b60006001600084815260200190815260200160002060000160008373ffffffffffffffffffffffffffffffffffffffff1673ffffffffffffffffffffffffffffffffffffffff16815260200190815260200160002060009054906101000a900460ff16905092915050565b6000819050919050565b6000620003cb82620003b4565b91507fffffffffffffffffffffffffffffffffffffffffffffffffffffffffffffffff8214156200040157620004006200040c565b5b600182019050919050565b7f4e487b7100000000000000000000000000000000000000000000000000000000600052601160045260246000fd5b611ada806200044b6000396000f3fe608060405234801561001057600080fd5b50600436106101585760003560e01c806370480275116100c3578063a87430ba1161007c578063a87430ba146103b1578063ac5cb97d146103e1578063b5cb15f7146103ff578063d547741f1461041d578063f2fde38b14610439578063fec331f21461045557610158565b80637048027514610301578063715018a61461031d57806375b238fc146103275780638da5cb5b1461034557806391d1485414610363578063a217fddf1461039357610158565b806336568abe1161011557806336568abe14610243578063421b2d8b1461025f578063442767331461027b5780634780468f146102ab57806350f2aab3146102c75780636d263ceb146102e557610158565b806301ffc9a71461015d57806307973ccf1461018d5780630e666e49146101ab578063248a9ca3146101db57806328bde6151461020b5780632f2ff15d14610227575b600080fd5b610177600480360381019061017291906113f9565b610473565b60405161018491906115ef565b60405180910390f35b6101956104ed565b6040516101a291906116c7565b60405180910390f35b6101c560048036038101906101c0919061136b565b6104f3565b6040516101d291906115ef565b60405180910390f35b6101f560048036038101906101f09190611394565b610561565b604051610202919061160a565b60405180910390f35b6102256004803603810190610220919061136b565b610581565b005b610241600480360381019061023c91906113bd565b6105b7565b005b61025d600480360381019061025891906113bd565b6105d8565b005b6102796004803603810190610274919061136b565b61065b565b005b6102956004803603810190610290919061136b565b61072b565b6040516102a29190611625565b60405180910390f35b6102c560048036038101906102c0919061136b565b6108e3565b005b6102cf610919565b6040516102dc919061160a565b60405180910390f35b6102ff60048036038101906102fa919061136b565b61093d565b005b61031b6004803603810190610316919061136b565b610973565b005b6103256109a9565b005b61032f610a31565b60405161033c919061160a565b60405180910390f35b61034d610a55565b60405161035a91906115d4565b60405180910390f35b61037d600480360381019061037891906113bd565b610a7e565b60405161038a91906115ef565b60405180910390f35b61039b610ae9565b6040516103a8919061160a565b60405180910390f35b6103cb60048036038101906103c6919061136b565b610af0565b6040516103d891906115ef565b60405180910390f35b6103e9610b10565b6040516103f6919061160a565b60405180910390f35b610407610b34565b60405161041491906116c7565b60405180910390f35b610437600480360381019061043291906113bd565b610b3e565b005b610453600480360381019061044e919061136b565b610b5f565b005b61045d610c57565b60405161046a919061160a565b60405180910390f35b60007f7965db0b000000000000000000000000000000000000000000000000000000007bffffffffffffffffffffffffffffffffffffffffffffffffffffffff1916827bffffffffffffffffffffffffffffffffffffffffffffffffffffffff191614806104e657506104e582610c7b565b5b9050919050565b60035481565b600060011515600260008473ffffffffffffffffffffffffffffffffffffffff1673ffffffffffffffffffffffffffffffffffffffff16815260200190815260200160002060009054906101000a900460ff1615151415610557576001905061055c565b600090505b919050565b600060016000838152602001908152602001600020600101549050919050565b6105ab7f7765bfe615aab9fb9a16bd4c5c9b353f39dae79ca7da86094b0a74ea8a89e59a82610ce5565b6105b48161065b565b50565b6105c082610561565b6105c981610cf3565b6105d38383610d07565b505050565b6105e0610de7565b73ffffffffffffffffffffffffffffffffffffffff168173ffffffffffffffffffffffffffffffffffffffff161461064d576040517f08c379a0000000000000000000000000000000000000000000000000000000008152600401610644906116a7565b60405180910390fd5b6106578282610def565b5050565b60001515600260008373ffffffffffffffffffffffffffffffffffffffff1673ffffffffffffffffffffffffffffffffffffffff16815260200190815260200160002060009054906101000a900460ff161515146106b857600080fd5b6001600260008373ffffffffffffffffffffffffffffffffffffffff1673ffffffffffffffffffffffffffffffffffffffff16815260200190815260200160002060006101000a81548160ff0219169083151502179055506003600081548092919061072390611894565b919050555050565b60606107577f72606200fac42b7dc86b75901d61ecfab2a4a1a6eded478b97a428094891abed83610a7e565b15610799576040518060400160405280600781526020017f50415449454e540000000000000000000000000000000000000000000000000081525090506108de565b6107c37f0af1dac7dea2fd7f7738119cec7df099dfad49aa9d2e7d17ba6b60f63ae7411f83610a7e565b15610805576040518060400160405280600681526020017f444f43544f52000000000000000000000000000000000000000000000000000081525090506108de565b61082f7fa49807205ce4d355092ef5a8a18f56e8913cf4a201fbe287825b095693c2177583610a7e565b15610871576040518060400160405280600581526020017f41444d494e00000000000000000000000000000000000000000000000000000081525090506108de565b61089b7f7765bfe615aab9fb9a16bd4c5c9b353f39dae79ca7da86094b0a74ea8a89e59a83610a7e565b156108dd576040518060400160405280600a81526020017f524553454152434845520000000000000000000000000000000000000000000081525090506108de565b5b919050565b61090d7f0af1dac7dea2fd7f7738119cec7df099dfad49aa9d2e7d17ba6b60f63ae7411f82610ce5565b6109168161065b565b50565b7f7765bfe615aab9fb9a16bd4c5c9b353f39dae79ca7da86094b0a74ea8a89e59a81565b6109677f72606200fac42b7dc86b75901d61ecfab2a4a1a6eded478b97a428094891abed82610ce5565b6109708161065b565b50565b61099d7fa49807205ce4d355092ef5a8a18f56e8913cf4a201fbe287825b095693c2177582610ce5565b6109a68161065b565b50565b6109b1610de7565b73ffffffffffffffffffffffffffffffffffffffff166109cf610a55565b73ffffffffffffffffffffffffffffffffffffffff1614610a25576040517f08c379a0000000000000000000000000000000000000000000000000000000008152600401610a1c90611687565b60405180910390fd5b610a2f6000610ed1565b565b7fa49807205ce4d355092ef5a8a18f56e8913cf4a201fbe287825b095693c2177581565b60008060009054906101000a900473ffffffffffffffffffffffffffffffffffffffff16905090565b60006001600084815260200190815260200160002060000160008373ffffffffffffffffffffffffffffffffffffffff1673ffffffffffffffffffffffffffffffffffffffff16815260200190815260200160002060009054906101000a900460ff16905092915050565b6000801b81565b60026020528060005260406000206000915054906101000a900460ff1681565b7f72606200fac42b7dc86b75901d61ecfab2a4a1a6eded478b97a428094891abed81565b6000600354905090565b610b4782610561565b610b5081610cf3565b610b5a8383610def565b505050565b610b67610de7565b73ffffffffffffffffffffffffffffffffffffffff16610b85610a55565b73ffffffffffffffffffffffffffffffffffffffff1614610bdb576040517f08c379a0000000000000000000000000000000000000000000000000000000008152600401610bd290611687565b60405180910390fd5b600073ffffffffffffffffffffffffffffffffffffffff168173ffffffffffffffffffffffffffffffffffffffff161415610c4b576040517f08c379a0000000000000000000000000000000000000000000000000000000008152600401610c4290611667565b60405180910390fd5b610c5481610ed1565b50565b7f0af1dac7dea2fd7f7738119cec7df099dfad49aa9d2e7d17ba6b60f63ae7411f81565b60007f01ffc9a7000000000000000000000000000000000000000000000000000000007bffffffffffffffffffffffffffffffffffffffffffffffffffffffff1916827bffffffffffffffffffffffffffffffffffffffffffffffffffffffff1916149050919050565b610cef8282610d07565b5050565b610d0481610cff610de7565b610f95565b50565b610d118282610a7e565b610de357600180600084815260200190815260200160002060000160008373ffffffffffffffffffffffffffffffffffffffff1673ffffffffffffffffffffffffffffffffffffffff16815260200190815260200160002060006101000a81548160ff021916908315150217905550610d88610de7565b73ffffffffffffffffffffffffffffffffffffffff168173ffffffffffffffffffffffffffffffffffffffff16837f2f8788117e7eff1d82e926ec794901d17c78024a50270940304540a733656f0d60405160405180910390a45b5050565b600033905090565b610df98282610a7e565b15610ecd5760006001600084815260200190815260200160002060000160008373ffffffffffffffffffffffffffffffffffffffff1673ffffffffffffffffffffffffffffffffffffffff16815260200190815260200160002060006101000a81548160ff021916908315150217905550610e72610de7565b73ffffffffffffffffffffffffffffffffffffffff168173ffffffffffffffffffffffffffffffffffffffff16837ff6391f5c32d9c69d2a47ea670b442974b53935d1edc7fd64eb21e047a839171b60405160405180910390a45b5050565b60008060009054906101000a900473ffffffffffffffffffffffffffffffffffffffff169050816000806101000a81548173ffffffffffffffffffffffffffffffffffffffff021916908373ffffffffffffffffffffffffffffffffffffffff1602179055508173ffffffffffffffffffffffffffffffffffffffff168173ffffffffffffffffffffffffffffffffffffffff167f8be0079c531659141344cd1fd0a4f28419497f9722a3daafe3b4186f6b6457e060405160405180910390a35050565b610f9f8282610a7e565b61102e57610fc48173ffffffffffffffffffffffffffffffffffffffff166014611032565b610fd28360001c6020611032565b604051602001610fe392919061159a565b6040516020818303038152906040526040517f08c379a00000000000000000000000000000000000000000000000000000000081526004016110259190611625565b60405180910390fd5b5050565b606060006002836002611045919061175f565b61104f9190611709565b67ffffffffffffffff81111561108e577f4e487b7100000000000000000000000000000000000000000000000000000000600052604160045260246000fd5b6040519080825280601f01601f1916602001820160405280156110c05781602001600182028036833780820191505090505b5090507f30000000000000000000000000000000000000000000000000000000000000008160008151811061111e577f4e487b7100000000000000000000000000000000000000000000000000000000600052603260045260246000fd5b60200101907effffffffffffffffffffffffffffffffffffffffffffffffffffffffffffff1916908160001a9053507f7800000000000000000000000000000000000000000000000000000000000000816001815181106111a8577f4e487b7100000000000000000000000000000000000000000000000000000000600052603260045260246000fd5b60200101907effffffffffffffffffffffffffffffffffffffffffffffffffffffffffffff1916908160001a905350600060018460026111e8919061175f565b6111f29190611709565b90505b60018111156112de577f3031323334353637383961626364656600000000000000000000000000000000600f86166010811061125a577f4e487b7100000000000000000000000000000000000000000000000000000000600052603260045260246000fd5b1a60f81b828281518110611297577f4e487b7100000000000000000000000000000000000000000000000000000000600052603260045260246000fd5b60200101907effffffffffffffffffffffffffffffffffffffffffffffffffffffffffffff1916908160001a905350600485901c9450806112d79061186a565b90506111f5565b5060008414611322576040517f08c379a000000000000000000000000000000000000000000000000000000000815260040161131990611647565b60405180910390fd5b8091505092915050565b60008135905061133b81611a5f565b92915050565b60008135905061135081611a76565b92915050565b60008135905061136581611a8d565b92915050565b60006020828403121561137d57600080fd5b600061138b8482850161132c565b91505092915050565b6000602082840312156113a657600080fd5b60006113b484828501611341565b91505092915050565b600080604083850312156113d057600080fd5b60006113de85828601611341565b92505060206113ef8582860161132c565b9150509250929050565b60006020828403121561140b57600080fd5b600061141984828501611356565b91505092915050565b61142b816117b9565b82525050565b61143a816117cb565b82525050565b611449816117d7565b82525050565b600061145a826116e2565b61146481856116ed565b9350611474818560208601611837565b61147d8161190c565b840191505092915050565b6000611493826116e2565b61149d81856116fe565b93506114ad818560208601611837565b80840191505092915050565b60006114c66020836116ed565b91506114d18261191d565b602082019050919050565b60006114e96026836116ed565b91506114f482611946565b604082019050919050565b600061150c6020836116ed565b915061151782611995565b602082019050919050565b600061152f6017836116fe565b915061153a826119be565b601782019050919050565b60006115526011836116fe565b915061155d826119e7565b601182019050919050565b6000611575602f836116ed565b915061158082611a10565b604082019050919050565b6115948161182d565b82525050565b60006115a582611522565b91506115b18285611488565b91506115bc82611545565b91506115c88284611488565b91508190509392505050565b60006020820190506115e96000830184611422565b92915050565b60006020820190506116046000830184611431565b92915050565b600060208201905061161f6000830184611440565b92915050565b6000602082019050818103600083015261163f818461144f565b905092915050565b60006020820190508181036000830152611660816114b9565b9050919050565b60006020820190508181036000830152611680816114dc565b9050919050565b600060208201905081810360008301526116a0816114ff565b9050919050565b600060208201905081810360008301526116c081611568565b9050919050565b60006020820190506116dc600083018461158b565b92915050565b600081519050919050565b600082825260208201905092915050565b600081905092915050565b60006117148261182d565b915061171f8361182d565b9250827fffffffffffffffffffffffffffffffffffffffffffffffffffffffffffffffff03821115611754576117536118dd565b5b828201905092915050565b600061176a8261182d565b91506117758361182d565b9250817fffffffffffffffffffffffffffffffffffffffffffffffffffffffffffffffff04831182151516156117ae576117ad6118dd565b5b828202905092915050565b60006117c48261180d565b9050919050565b60008115159050919050565b6000819050919050565b60007fffffffff0000000000000000000000000000000000000000000000000000000082169050919050565b600073ffffffffffffffffffffffffffffffffffffffff82169050919050565b6000819050919050565b60005b8381101561185557808201518184015260208101905061183a565b83811115611864576000848401525b50505050565b60006118758261182d565b91506000821415611889576118886118dd565b5b600182039050919050565b600061189f8261182d565b91507fffffffffffffffffffffffffffffffffffffffffffffffffffffffffffffffff8214156118d2576118d16118dd565b5b600182019050919050565b7f4e487b7100000000000000000000000000000000000000000000000000000000600052601160045260246000fd5b6000601f19601f8301169050919050565b7f537472696e67733a20686578206c656e67746820696e73756666696369656e74600082015250565b7f4f776e61626c653a206e6577206f776e657220697320746865207a65726f206160008201527f6464726573730000000000000000000000000000000000000000000000000000602082015250565b7f4f776e61626c653a2063616c6c6572206973206e6f7420746865206f776e6572600082015250565b7f416363657373436f6e74726f6c3a206163636f756e7420000000000000000000600082015250565b7f206973206d697373696e6720726f6c6520000000000000000000000000000000600082015250565b7f416363657373436f6e74726f6c3a2063616e206f6e6c792072656e6f756e636560008201527f20726f6c657320666f722073656c660000000000000000000000000000000000602082015250565b611a68816117b9565b8114611a7357600080fd5b50565b611a7f816117d7565b8114611a8a57600080fd5b50565b611a96816117e1565b8114611aa157600080fd5b5056fea26469706673582212202d80baf6f7871e392a06e6afc6517b7d177aecff1e716874dcfdfa6722d1067264736f6c63430008040033",
  "immutableReferences": {},
  "source": "pragma solidity  0.8.4;\r\nimport \"@openzeppelin/contracts/access/Ownable.sol\";\r\nimport \"@openzeppelin/contracts/access/AccessControl.sol\";\r\nimport \"@openzeppelin/contracts/access/AccessControlEnumerable.sol\";\r\n\r\ncontract Registration is Ownable, AccessControl{ \r\n    \r\n  mapping (address => bool) public users;\r\n  uint public userCount;\r\n\r\n  bytes32 public constant ADMIN_ROLE = keccak256(\"ADMIN_ROLE\");\r\n  bytes32 public constant DOCTOR_ROLE = keccak256(\"DOCTOR_ROLE\");\r\n  bytes32 public constant PATIENT_ROLE = keccak256(\"PATIENT_ROLE\");\r\n  bytes32 public constant RESEARCHER_ROLE = keccak256(\"RESEARCHER_ROLE\");\r\n\r\n  constructor() public {\r\n    addUser(0x5c4E9Fccd53c74A4cE7C9fc14AAc38A81F9aE983);\r\n    _setupRole(ADMIN_ROLE, 0x5c4E9Fccd53c74A4cE7C9fc14AAc38A81F9aE983);\r\n  }\r\n\r\n  function addUser(address _user) public{\r\n    require(users[_user] == false);\r\n    users[_user] = true;\r\n    userCount++;\r\n  }\r\n\r\n  function userExists(address _user) public returns (bool){\r\n    if (users[_user] == true){\r\n      return true;\r\n    }\r\n    else{\r\n      return false;\r\n    }\r\n  }\r\n\r\n  function getUserCount() public  returns (uint){\r\n    return userCount;\r\n  }\r\n  \r\n  function addPatient(address _address) public \r\n  {\r\n    _setupRole(PATIENT_ROLE, _address);\r\n    addUser(_address);\r\n  }\r\n\r\n  function addDoctor(address _address) public \r\n  {\r\n    _setupRole(DOCTOR_ROLE, _address);\r\n    addUser(_address);\r\n  }\r\n\r\n  function addAdmin(address _address) public \r\n  {\r\n    _setupRole(ADMIN_ROLE, _address);\r\n    addUser(_address);\r\n  }\r\n\r\n  function addResearcher(address _address) public \r\n  {\r\n    _setupRole(RESEARCHER_ROLE, _address);\r\n    addUser(_address);\r\n  }\r\n\r\n  function getRole(address _address) public view returns (string memory)\r\n  {\r\n    if(hasRole(PATIENT_ROLE, _address))\r\n    {\r\n      return \"PATIENT\";\r\n    }\r\n    if(hasRole(DOCTOR_ROLE, _address))\r\n    {\r\n      return \"DOCTOR\";\r\n    }\r\n    if(hasRole(ADMIN_ROLE, _address))\r\n    {\r\n      return \"ADMIN\";\r\n    }\r\n    if(hasRole(RESEARCHER_ROLE, _address))\r\n    {\r\n      return \"RESEARCHER\";\r\n    }\r\n  }\r\n}",
  "sourcePath": "C:\\Licenta\\Licenta\\src\\contracts\\Registration.sol",
  "compiler": {
    "name": "solc",
    "version": "0.8.4+commit.c7e474f2.Emscripten.clang"
  },
  "schemaVersion": "3.2.3",
  "updatedAt": "2022-06-30T17:30:30.251Z",
  "networkType": "ethereum",
  "devdoc": {
    "kind": "dev",
    "methods": {
      "getRoleAdmin(bytes32)": {
        "details": "Returns the admin role that controls `role`. See {grantRole} and {revokeRole}. To change a role's admin, use {_setRoleAdmin}."
      },
      "grantRole(bytes32,address)": {
        "details": "Grants `role` to `account`. If `account` had not been already granted `role`, emits a {RoleGranted} event. Requirements: - the caller must have ``role``'s admin role."
      },
      "hasRole(bytes32,address)": {
        "details": "Returns `true` if `account` has been granted `role`."
      },
      "owner()": {
        "details": "Returns the address of the current owner."
      },
      "renounceOwnership()": {
        "details": "Leaves the contract without owner. It will not be possible to call `onlyOwner` functions anymore. Can only be called by the current owner. NOTE: Renouncing ownership will leave the contract without an owner, thereby removing any functionality that is only available to the owner."
      },
      "renounceRole(bytes32,address)": {
        "details": "Revokes `role` from the calling account. Roles are often managed via {grantRole} and {revokeRole}: this function's purpose is to provide a mechanism for accounts to lose their privileges if they are compromised (such as when a trusted device is misplaced). If the calling account had been revoked `role`, emits a {RoleRevoked} event. Requirements: - the caller must be `account`."
      },
      "revokeRole(bytes32,address)": {
        "details": "Revokes `role` from `account`. If `account` had been granted `role`, emits a {RoleRevoked} event. Requirements: - the caller must have ``role``'s admin role."
      },
      "supportsInterface(bytes4)": {
        "details": "See {IERC165-supportsInterface}."
      },
      "transferOwnership(address)": {
        "details": "Transfers ownership of the contract to a new account (`newOwner`). Can only be called by the current owner."
      }
    },
    "version": 1
  },
  "userdoc": {
    "kind": "user",
    "methods": {},
    "version": 1
  }
}